{
  "_format": "hh-sol-artifact-1",
  "contractName": "BulkSellerOffchain",
  "sourceName": "contracts/offchain-helpers/BulkSellerOffchain.sol",
  "abi": [
    {
      "inputs": [
        {
          "internalType": "contract IPBulkSeller",
          "name": "bulk",
          "type": "address"
        }
      ],
      "name": "calcCurrentRates",
      "outputs": [
        {
          "internalType": "uint256",
          "name": "rateTokenToSy",
          "type": "uint256"
        },
        {
          "internalType": "uint256",
          "name": "rateSyToToken",
          "type": "uint256"
        }
      ],
      "stateMutability": "view",
      "type": "function"
    },
    {
      "inputs": [
        {
          "internalType": "contract IPBulkSeller",
          "name": "bulk",
          "type": "address"
        },
        {
          "internalType": "uint256",
          "name": "hypoTotalToken",
          "type": "uint256"
        },
        {
          "internalType": "uint256",
          "name": "hypoTotalSy",
          "type": "uint256"
        }
      ],
      "name": "calcCurrentRatesWithAmount",
      "outputs": [
        {
          "internalType": "uint256",
          "name": "rateTokenToSy",
          "type": "uint256"
        },
        {
          "internalType": "uint256",
          "name": "rateSyToToken",
          "type": "uint256"
        }
      ],
      "stateMutability": "view",
      "type": "function"
    },
    {
      "inputs": [
        {
          "internalType": "contract IPBulkSeller",
          "name": "bulk",
          "type": "address"
        }
      ],
      "name": "getCurrentState",
      "outputs": [
        {
          "components": [
            {
              "internalType": "uint256",
              "name": "rateTokenToSy",
              "type": "uint256"
            },
            {
              "internalType": "uint256",
              "name": "rateSyToToken",
              "type": "uint256"
            },
            {
              "internalType": "uint256",
              "name": "totalToken",
              "type": "uint256"
            },
            {
              "internalType": "uint256",
              "name": "totalSy",
              "type": "uint256"
            },
            {
              "internalType": "uint256",
              "name": "feeRate",
              "type": "uint256"
            }
          ],
          "internalType": "struct BulkSellerState",
          "name": "state",
          "type": "tuple"
        },
        {
          "internalType": "uint256",
          "name": "tokenProp",
          "type": "uint256"
        },
        {
          "internalType": "uint256",
          "name": "hypoTokenBal",
          "type": "uint256"
        }
      ],
      "stateMutability": "view",
      "type": "function"
    }
  ],
  "bytecode": "0x608060405234801561001057600080fd5b50610a15806100206000396000f3fe608060405234801561001057600080fd5b50600436106100415760003560e01c80638718323e146100465780638d51e8f0146100a7578063c307974d146100cf575b600080fd5b61005961005436600461087c565b6100e2565b6040805184518152602080860151908201528482015191810191909152606080850151908201526080938401519381019390935260a083019190915260c082015260e0015b60405180910390f35b6100ba6100b53660046108a0565b6102f9565b6040805192835260208301919091520161009e565b6100ba6100dd36600461087c565b61050d565b6101146040518060a0016040528060008152602001600081526020016000815260200160008152602001600081525090565b600080836001600160a01b0316632778c3346040518163ffffffff1660e01b815260040160a060405180830381865afa158015610155573d6000803e3d6000fd5b505050506040513d601f19601f8201168201806040525081019061017991906108d5565b9250610184836107d9565b9150836001600160a01b031663afd27bf56040518163ffffffff1660e01b8152600401602060405180830381865afa1580156101c4573d6000803e3d6000fd5b505050506040513d601f19601f820116820180604052508101906101e89190610953565b6001600160a01b031663cbe52ae3856001600160a01b031663fc0c546a6040518163ffffffff1660e01b8152600401602060405180830381865afa158015610234573d6000803e3d6000fd5b505050506040513d601f19601f820116820180604052508101906102589190610953565b60608601516040517fffffffff0000000000000000000000000000000000000000000000000000000060e085901b1681526001600160a01b0390921660048301526024820152604401602060405180830381865afa1580156102be573d6000803e3d6000fd5b505050506040513d601f19601f820116820180604052508101906102e29190610970565b83604001516102f1919061099f565b929491935050565b6000806000856001600160a01b031663afd27bf56040518163ffffffff1660e01b8152600401602060405180830381865afa15801561033c573d6000803e3d6000fd5b505050506040513d601f19601f820116820180604052508101906103609190610953565b90506000866001600160a01b031663fc0c546a6040518163ffffffff1660e01b8152600401602060405180830381865afa1580156103a2573d6000803e3d6000fd5b505050506040513d601f19601f820116820180604052508101906103c69190610953565b6040517fb8f82b260000000000000000000000000000000000000000000000000000000081526001600160a01b0380831660048301526024820189905291925060009184169063b8f82b2690604401602060405180830381865afa158015610432573d6000803e3d6000fd5b505050506040513d601f19601f820116820180604052508101906104569190610970565b90506104628188610815565b6040517fcbe52ae30000000000000000000000000000000000000000000000000000000081526001600160a01b03848116600483015260248201899052919650600092509084169063cbe52ae390604401602060405180830381865afa1580156104d0573d6000803e3d6000fd5b505050506040513d601f19601f820116820180604052508101906104f49190610970565b90506105008187610815565b9350505050935093915050565b6000806000836001600160a01b0316632778c3346040518163ffffffff1660e01b815260040160a060405180830381865afa158015610550573d6000803e3d6000fd5b505050506040513d601f19601f8201168201806040525081019061057491906108d5565b90506000846001600160a01b031663afd27bf56040518163ffffffff1660e01b8152600401602060405180830381865afa1580156105b6573d6000803e3d6000fd5b505050506040513d601f19601f820116820180604052508101906105da9190610953565b90506000856001600160a01b031663fc0c546a6040518163ffffffff1660e01b8152600401602060405180830381865afa15801561061c573d6000803e3d6000fd5b505050506040513d601f19601f820116820180604052508101906106409190610953565b9050600061065f8460200151856060015161084690919063ffffffff16565b846040015161066e919061099f565b6040517fb8f82b260000000000000000000000000000000000000000000000000000000081526001600160a01b0384811660048301526024820183905291925060009185169063b8f82b2690604401602060405180830381865afa1580156106da573d6000803e3d6000fd5b505050506040513d601f19601f820116820180604052508101906106fe9190610970565b905061070a8183610815565b85516040870151919850600093506107229250610846565b8460600151610731919061099f565b6040517fcbe52ae30000000000000000000000000000000000000000000000000000000081526001600160a01b0384811660048301526024820183905291925060009185169063cbe52ae390604401602060405180830381865afa15801561079d573d6000803e3d6000fd5b505050506040513d601f19601f820116820180604052508101906107c19190610970565b90506107cd8183610815565b95505050505050915091565b6040810151602082015160608301516000929183916107f791610846565b905061080d610806828461099f565b8390610815565b949350505050565b60008061082a670de0b6b3a7640000856109b2565b905082818161083b5761083b6109c9565b049150505b92915050565b60008061085383856109b2565b9050670de0b6b3a76400008161083b565b6001600160a01b038116811461087957600080fd5b50565b60006020828403121561088e57600080fd5b813561089981610864565b9392505050565b6000806000606084860312156108b557600080fd5b83356108c081610864565b95602085013595506040909401359392505050565b600060a082840312156108e757600080fd5b60405160a0810181811067ffffffffffffffff8211171561091857634e487b7160e01b600052604160045260246000fd5b806040525082518152602083015160208201526040830151604082015260608301516060820152608083015160808201528091505092915050565b60006020828403121561096557600080fd5b815161089981610864565b60006020828403121561098257600080fd5b5051919050565b634e487b7160e01b600052601160045260246000fd5b8082018082111561084057610840610989565b808202811582820484141761084057610840610989565b634e487b7160e01b600052601260045260246000fdfea2646970667358221220686cc43ce7222fcbae86464b490a459dd54bcd0001f9056cfde757bdf0d1e6d164736f6c63430008110033",
  "linkReferences": {},
  "deployedLinkReferences": {}
}