{
  "_format": "hh-sol-artifact-1",
  "contractName": "ActionMarketAuxStatic",
  "sourceName": "contracts/offchain-helpers/router-static/base/ActionMarketAuxStatic.sol",
  "abi": [
    {
      "inputs": [
        {
          "internalType": "int256",
          "name": "exchangeRate",
          "type": "int256"
        }
      ],
      "name": "MarketExchangeRateBelowOne",
      "type": "error"
    },
    {
      "inputs": [],
      "name": "MarketExpired",
      "type": "error"
    },
    {
      "inputs": [],
      "name": "MarketProportionMustNotEqualOne",
      "type": "error"
    },
    {
      "inputs": [
        {
          "internalType": "int256",
          "name": "proportion",
          "type": "int256"
        },
        {
          "internalType": "int256",
          "name": "maxProportion",
          "type": "int256"
        }
      ],
      "name": "MarketProportionTooHigh",
      "type": "error"
    },
    {
      "inputs": [
        {
          "internalType": "int256",
          "name": "rateScalar",
          "type": "int256"
        }
      ],
      "name": "MarketRateScalarBelowZero",
      "type": "error"
    },
    {
      "inputs": [
        {
          "internalType": "int256",
          "name": "totalPt",
          "type": "int256"
        },
        {
          "internalType": "int256",
          "name": "totalAsset",
          "type": "int256"
        }
      ],
      "name": "MarketZeroTotalPtOrTotalAsset",
      "type": "error"
    },
    {
      "inputs": [
        {
          "internalType": "address",
          "name": "market",
          "type": "address"
        },
        {
          "internalType": "int256",
          "name": "netPtOut",
          "type": "int256"
        }
      ],
      "name": "calcPriceImpactPY",
      "outputs": [
        {
          "internalType": "uint256",
          "name": "priceImpact",
          "type": "uint256"
        }
      ],
      "stateMutability": "view",
      "type": "function"
    },
    {
      "inputs": [
        {
          "internalType": "address",
          "name": "market",
          "type": "address"
        },
        {
          "internalType": "int256",
          "name": "netPtOut",
          "type": "int256"
        }
      ],
      "name": "calcPriceImpactPt",
      "outputs": [
        {
          "internalType": "uint256",
          "name": "priceImpact",
          "type": "uint256"
        }
      ],
      "stateMutability": "view",
      "type": "function"
    },
    {
      "inputs": [
        {
          "internalType": "address",
          "name": "market",
          "type": "address"
        },
        {
          "internalType": "int256",
          "name": "netPtOut",
          "type": "int256"
        }
      ],
      "name": "calcPriceImpactYt",
      "outputs": [
        {
          "internalType": "uint256",
          "name": "priceImpact",
          "type": "uint256"
        }
      ],
      "stateMutability": "view",
      "type": "function"
    },
    {
      "inputs": [
        {
          "internalType": "address",
          "name": "market",
          "type": "address"
        }
      ],
      "name": "getLpToAssetRate",
      "outputs": [
        {
          "internalType": "uint256",
          "name": "",
          "type": "uint256"
        }
      ],
      "stateMutability": "view",
      "type": "function"
    },
    {
      "inputs": [
        {
          "internalType": "address",
          "name": "market",
          "type": "address"
        }
      ],
      "name": "getLpToSyRate",
      "outputs": [
        {
          "internalType": "uint256",
          "name": "",
          "type": "uint256"
        }
      ],
      "stateMutability": "view",
      "type": "function"
    },
    {
      "inputs": [
        {
          "internalType": "address",
          "name": "market",
          "type": "address"
        }
      ],
      "name": "getMarketState",
      "outputs": [
        {
          "internalType": "address",
          "name": "pt",
          "type": "address"
        },
        {
          "internalType": "address",
          "name": "yt",
          "type": "address"
        },
        {
          "internalType": "address",
          "name": "sy",
          "type": "address"
        },
        {
          "internalType": "int256",
          "name": "impliedYield",
          "type": "int256"
        },
        {
          "internalType": "uint256",
          "name": "marketExchangeRateExcludeFee",
          "type": "uint256"
        },
        {
          "components": [
            {
              "internalType": "int256",
              "name": "totalPt",
              "type": "int256"
            },
            {
              "internalType": "int256",
              "name": "totalSy",
              "type": "int256"
            },
            {
              "internalType": "int256",
              "name": "totalLp",
              "type": "int256"
            },
            {
              "internalType": "address",
              "name": "treasury",
              "type": "address"
            },
            {
              "internalType": "int256",
              "name": "scalarRoot",
              "type": "int256"
            },
            {
              "internalType": "uint256",
              "name": "expiry",
              "type": "uint256"
            },
            {
              "internalType": "uint256",
              "name": "lnFeeRateRoot",
              "type": "uint256"
            },
            {
              "internalType": "uint256",
              "name": "reserveFeePercent",
              "type": "uint256"
            },
            {
              "internalType": "uint256",
              "name": "lastLnImpliedRate",
              "type": "uint256"
            }
          ],
          "internalType": "struct MarketState",
          "name": "state",
          "type": "tuple"
        }
      ],
      "stateMutability": "view",
      "type": "function"
    },
    {
      "inputs": [
        {
          "internalType": "address",
          "name": "market",
          "type": "address"
        }
      ],
      "name": "getPtToAssetRate",
      "outputs": [
        {
          "internalType": "uint256",
          "name": "",
          "type": "uint256"
        }
      ],
      "stateMutability": "view",
      "type": "function"
    },
    {
      "inputs": [
        {
          "internalType": "address",
          "name": "market",
          "type": "address"
        }
      ],
      "name": "getPtToSyRate",
      "outputs": [
        {
          "internalType": "uint256",
          "name": "",
          "type": "uint256"
        }
      ],
      "stateMutability": "view",
      "type": "function"
    },
    {
      "inputs": [
        {
          "internalType": "address",
          "name": "market",
          "type": "address"
        },
        {
          "components": [
            {
              "internalType": "int256",
              "name": "totalPt",
              "type": "int256"
            },
            {
              "internalType": "int256",
              "name": "totalSy",
              "type": "int256"
            },
            {
              "internalType": "int256",
              "name": "totalLp",
              "type": "int256"
            },
            {
              "internalType": "address",
              "name": "treasury",
              "type": "address"
            },
            {
              "internalType": "int256",
              "name": "scalarRoot",
              "type": "int256"
            },
            {
              "internalType": "uint256",
              "name": "expiry",
              "type": "uint256"
            },
            {
              "internalType": "uint256",
              "name": "lnFeeRateRoot",
              "type": "uint256"
            },
            {
              "internalType": "uint256",
              "name": "reserveFeePercent",
              "type": "uint256"
            },
            {
              "internalType": "uint256",
              "name": "lastLnImpliedRate",
              "type": "uint256"
            }
          ],
          "internalType": "struct MarketState",
          "name": "state",
          "type": "tuple"
        }
      ],
      "name": "getTradeExchangeRateExcludeFee",
      "outputs": [
        {
          "internalType": "uint256",
          "name": "",
          "type": "uint256"
        }
      ],
      "stateMutability": "view",
      "type": "function"
    },
    {
      "inputs": [
        {
          "internalType": "address",
          "name": "market",
          "type": "address"
        },
        {
          "internalType": "int256",
          "name": "netPtOut",
          "type": "int256"
        }
      ],
      "name": "getTradeExchangeRateIncludeFee",
      "outputs": [
        {
          "internalType": "uint256",
          "name": "",
          "type": "uint256"
        }
      ],
      "stateMutability": "view",
      "type": "function"
    }
  ],
  "bytecode": "0x608060405234801561001057600080fd5b50611e2d806100206000396000f3fe608060405234801561001057600080fd5b50600436106100be5760003560e01c8063a34560c611610076578063d1b087c91161005b578063d1b087c91461015b578063e8a89c761461016e578063f2344deb1461022e57600080fd5b8063a34560c614610135578063bcc454e21461014857600080fd5b80635dc9bdbe116100a75780635dc9bdbe146100fc578063625769301461010f578063955ee4e71461012257600080fd5b80630ac6aa69146100c35780630f8cb321146100e9575b600080fd5b6100d66100d1366004611a65565b610241565b6040519081526020015b60405180910390f35b6100d66100f7366004611a65565b6102ae565b6100d661010a366004611ac9565b610403565b6100d661011d366004611b92565b6104c7565b6100d6610130366004611b92565b610552565b6100d6610143366004611a65565b6105c6565b6100d6610156366004611b92565b6105f0565b6100d6610169366004611a65565b61066e565b61018161017c366004611b92565b610697565b6040516100e09695949392919060006101c0820190506001600160a01b03808916835280881660208401528087166040840152856060840152846080840152835160a0840152602084015160c0840152604084015160e0840152606084015161010082821681860152608086015161012086015260a086015161014086015260c086015161016086015260e0860151610180860152808601516101a0860152505050979650505050505050565b6100d661023c366004611b92565b610742565b600080610251846100f785610763565b9050600061025e8261077c565b9050600061026c86866102ae565b905060006102798261077c565b905060006102878486610794565b905060006102958385610794565b90506102a182826107c3565b9998505050505050505050565b6000826001600160a01b0316632f13b60c6040518163ffffffff1660e01b8152600401602060405180830381865afa1580156102ee573d6000803e3d6000fd5b505050506040513d601f19601f820116820180604052508101906103129190611baf565b156103265750670de0b6b3a76400006103fd565b816000610332856107ed565b9050600061034a610342876108c7565b83904261094b565b9050600061036b836000015183602001518460000151856040015188610a7e565b905060008413156103d757600061038f836060015183610b5490919063ffffffff16565b9050670de0b6b3a76400008112156103c25760405163329e322960e21b8152600481018290526024015b60405180910390fd5b6103cb81610b83565b955050505050506103fd565b6103f66103f1836060015183610b9690919063ffffffff16565b610b83565b9450505050505b92915050565b6000826001600160a01b0316632f13b60c6040518163ffffffff1660e01b8152600401602060405180830381865afa158015610443573d6000803e3d6000fd5b505050506040513d601f19601f820116820180604052508101906104679190611baf565b1561047b5750670de0b6b3a76400006103fd565b6000610491610489856108c7565b84904261094b565b905060006104b384600001518360200151846000015185604001516000610a7e565b90506104be81610b83565b95945050505050565b6000806104d383610bb4565b5050905061054b816001600160a01b0316633ba0b9a96040518163ffffffff1660e01b8152600401602060405180830381865afa158015610518573d6000803e3d6000fd5b505050506040513d601f19601f8201168201806040525081019061053c9190611bd1565b61054585610742565b90610794565b9392505050565b60008061055e836107ed565b9050600061056b846108c7565b9050600061057a83834261094b565b9050600061059461058c878686610c28565b855190610b96565b82602001516105a39190611c00565b90506105bc846040015182610b5490919063ffffffff16565b9695505050505050565b6000806105d6846100f785610763565b905060006105e485856102ae565b90506104be82826107c3565b6000806105fc83610bb4565b5050905061054b816001600160a01b0316633ba0b9a96040518163ffffffff1660e01b8152600401602060405180830381865afa158015610641573d6000803e3d6000fd5b505050506040513d601f19601f820116820180604052508101906106659190611bd1565b61054585610552565b600080610686610681856100f786610763565b61077c565b905060006105e461068186866102ae565b60008060008060006106f760405180610120016040528060008152602001600081526020016000815260200160006001600160a01b0316815260200160008152602001600081526020016000815260200160008152602001600081525090565b60008060006107058a610bb4565b92509250925081985080975082965061071d8a6107ed565b93506107288a610ceb565b95506107348a85610403565b945050505091939550919395565b60008061074e836107ed565b905061054b838261075e866108c7565b610c28565b6000808213610774576000196103fd565b600192915050565b60006103fd82610545670de0b6b3a764000082611c28565b6000806107a9670de0b6b3a764000085611c3b565b90508281816107ba576107ba611c52565b04949350505050565b600061054b836105456107d585610d1c565b6107de87610d1c565b6107e89190611c68565b610d4b565b61084560405180610120016040528060008152602001600081526020016000815260200160006001600160a01b0316815260200160008152602001600081526020016000815260200160008152602001600081525090565b6040517f794052f30000000000000000000000000000000000000000000000000000000081523060048201526001600160a01b0383169063794052f39060240161012060405180830381865afa1580156108a3573d6000803e3d6000fd5b505050506040513d601f19601f820116820180604052508101906103fd9190611c9a565b6040517f295c2ea60000000000000000000000000000000000000000000000000000000081526001600160a01b0382166004820152600090309063295c2ea690602401602060405180830381865afa158015610927573d6000803e3d6000fd5b505050506040513d601f19601f820116820180604052508101906103fd9190611bd1565b6109766040518060800160405280600081526020016000815260200160008152602001600081525090565b60a084015182106109b3576040517fb2094b5900000000000000000000000000000000000000000000000000000000815260040160405180910390fd5b6000828560a001516109c59190611c28565b90506109d18582610d62565b825260208501516109e3908590610ddc565b6020830152845115806109f857506020820151155b15610a3f57845160208301516040517fb1c4aefb000000000000000000000000000000000000000000000000000000008152600481019290925260248201526044016103b9565b610a5d85600001518661010001518460200151856000015185610e13565b604083015260c0850151610a719082610e87565b6060830152509392505050565b600080610a8b8784610ec0565b90506000610aa3610a9c888a611c00565b8390610b54565b9050670d529ae9e8600000811315610af8576040517ffc68d09e00000000000000000000000000000000000000000000000000000000815260048101829052670d529ae9e860000060248201526044016103b9565b6000610b0382610f1c565b905085610b108289610b54565b610b1a9190611c00565b9350670de0b6b3a7640000841215610b485760405163329e322960e21b8152600481018590526024016103b9565b50505095945050505050565b600080610b69670de0b6b3a764000085611d1c565b9050828181610b7a57610b7a611c52565b05949350505050565b600080821215610b9257600080fd5b5090565b600080610ba38385611d1c565b9050670de0b6b3a764000081610b7a565b6000806000836001600160a01b0316632c8ce6bc6040518163ffffffff1660e01b8152600401606060405180830381865afa158015610bf7573d6000803e3d6000fd5b505050506040513d601f19601f82011682018060405250810190610c1b9190611d4c565b9250925092509193909250565b6000428360a0015111610cb2576000610c4085610bb4565b50509050610caa83826001600160a01b0316633ba0b9a96040518163ffffffff1660e01b8152600401602060405180830381865afa158015610c86573d6000803e3d6000fd5b505050506040513d601f19601f820116820180604052508101906105459190611bd1565b91505061054b565b6000428460a00151610cc49190611c28565b90506000610cd785610100015183610e87565b90506105bc670de0b6b3a764000082610b54565b600080610cf7836107ed565b90506000610d09826101000151610d1c565b9050610d1481610f88565b949350505050565b60007f7fffffffffffffffffffffffffffffffffffffffffffffffffffffffffffffff821115610b9257600080fd5b6000808213610b9257610d5d82611d99565b6103fd565b6000610d6d82610d1c565b610d84610d7f6201518061016d611c3b565b610d1c565b8460800151610d939190611d1c565b610d9d9190611db5565b9050600081136103fd576040517f1ca41876000000000000000000000000000000000000000000000000000000008152600481018290526024016103b9565b60008060008312610dee576001610df2565b6000195b9050610e09610d7f85610e0486610d4b565b61149f565b610d149082611d1c565b600080610e208684610e87565b9050670de0b6b3a7640000811215610e4e5760405163329e322960e21b8152600481018290526024016103b9565b6000610e64610e5d878a611c00565b8990610b54565b90506000610e7182610f1c565b9050610e7d8187610b54565b6102a19084611c68565b600080610e996201518061016d611c3b565b610ea38486611c3b565b610ead9190611de3565b9050610d14610ebb82610d1c565b610f88565b600081831215610f125760405162461bcd60e51b815260206004820152600860248201527f6e6567617469766500000000000000000000000000000000000000000000000060448201526064016103b9565b61054b8284611c68565b6000670de0b6b3a76400008203610f5f576040517fa9c8b14d00000000000000000000000000000000000000000000000000000000815260040160405180910390fd5b6000610f7d610f7684670de0b6b3a7640000611c68565b8490610b54565b905061054b816114be565b60007ffffffffffffffffffffffffffffffffffffffffffffffffdc702bd3a30fc00008212158015610fc3575068070c1cc73b00c800008213155b61100f5760405162461bcd60e51b815260206004820152601060248201527f496e76616c6964206578706f6e656e740000000000000000000000000000000060448201526064016103b9565b60008212156110485761102482600003610f88565b6ec097ce7bc90715b34b9f10000000008161104157611041611c52565b0592915050565b60006806f05b59d3b2000000831261109e57507ffffffffffffffffffffffffffffffffffffffffffffffff90fa4a62c4e00000090910190770195e54c5dd42177f53a27172fa9ec6302628270000000006110ea565b6803782dace9d900000083126110e657507ffffffffffffffffffffffffffffffffffffffffffffffffc87d2531627000000909101906b1425982cf597cd205cef73806110ea565b5060015b6064929092029168056bc75e2d6310000068ad78ebc5ac620000008412611150577fffffffffffffffffffffffffffffffffffffffffffffff5287143a539e0000009093019268056bc75e2d631000006e01855144814a7ff805980ff008400082020590505b6856bc75e2d63100000084126111a2577fffffffffffffffffffffffffffffffffffffffffffffffa9438a1d29cf0000009093019268056bc75e2d631000006b02df0ab5a80a22c61ab5a70082020590505b682b5e3af16b1880000084126111f2577fffffffffffffffffffffffffffffffffffffffffffffffd4a1c50e94e78000009093019268056bc75e2d63100000693f1fce3da636ea5cf85082020590505b6815af1d78b58c4000008412611242577fffffffffffffffffffffffffffffffffffffffffffffffea50e2874a73c000009093019268056bc75e2d63100000690127fa27722cc06cc5e282020590505b680ad78ebc5ac62000008412611291577ffffffffffffffffffffffffffffffffffffffffffffffff5287143a539e000009093019268056bc75e2d6310000068280e60114edb805d0382020590505b68056bc75e2d6310000084126112e0577ffffffffffffffffffffffffffffffffffffffffffffffffa9438a1d29cf000009093019268056bc75e2d63100000680ebc5fb4174612111082020590505b6802b5e3af16b1880000841261132f577ffffffffffffffffffffffffffffffffffffffffffffffffd4a1c50e94e7800009093019268056bc75e2d631000006808f00f760a4b2db55d82020590505b68015af1d78b58c40000841261137e577ffffffffffffffffffffffffffffffffffffffffffffffffea50e2874a73c00009093019268056bc75e2d631000006806f5f177578893793782020590505b68056bc75e2d631000008481019085906002908280020505918201919050600368056bc75e2d631000008783020505918201919050600468056bc75e2d631000008783020505918201919050600568056bc75e2d631000008783020505918201919050600668056bc75e2d631000008783020505918201919050600768056bc75e2d631000008783020505918201919050600868056bc75e2d631000008783020505918201919050600968056bc75e2d631000008783020505918201919050600a68056bc75e2d631000008783020505918201919050600b68056bc75e2d631000008783020505918201919050600c68056bc75e2d631000008783020505918201919050606468056bc75e2d63100000848402058502059695505050505050565b6000670de0b6b3a76400006114b48484611c3b565b61054b9190611de3565b600080821361150f5760405162461bcd60e51b815260206004820152600d60248201527f6f7574206f6620626f756e64730000000000000000000000000000000000000060448201526064016103b9565b670c7d713b49da00008213801561152d5750670f43fc2c04ee000082125b1561155157670de0b6b3a76400006115448361155f565b8161104157611041611c52565b6103fd82611697565b919050565b670de0b6b3a7640000026000806ec097ce7bc90715b34b9f1000000000808401907fffffffffffffffffffffffffffffffffff3f68318436f8ea4cb460f000000000850102816115b1576115b1611c52565b05905060006ec097ce7bc90715b34b9f100000000082800205905081806ec097ce7bc90715b34b9f100000000081840205915060038205016ec097ce7bc90715b34b9f100000000082840205915060058205016ec097ce7bc90715b34b9f100000000082840205915060078205016ec097ce7bc90715b34b9f100000000082840205915060098205016ec097ce7bc90715b34b9f1000000000828402059150600b8205016ec097ce7bc90715b34b9f1000000000828402059150600d8205016ec097ce7bc90715b34b9f1000000000828402059150600f82050160020295945050505050565b6000670de0b6b3a76400008212156116d9576116d0826ec097ce7bc90715b34b9f1000000000816116ca576116ca611c52565b05611697565b60000392915050565b60007e1600ef3172e58d2e933ec884fde10064c63b5372d805e203c0000000000000831261172a57770195e54c5dd42177f53a27172fa9ec630262827000000000830592506806f05b59d3b2000000015b73011798004d755d3c8bc8e03204cf44619e0000008312611762576b1425982cf597cd205cef7380830592506803782dace9d9000000015b606492830292026e01855144814a7ff805980ff008400083126117aa576e01855144814a7ff805980ff008400068056bc75e2d63100000840205925068ad78ebc5ac62000000015b6b02df0ab5a80a22c61ab5a70083126117e5576b02df0ab5a80a22c61ab5a70068056bc75e2d6310000084020592506856bc75e2d631000000015b693f1fce3da636ea5cf850831261181c57693f1fce3da636ea5cf85068056bc75e2d631000008402059250682b5e3af16b18800000015b690127fa27722cc06cc5e2831261185357690127fa27722cc06cc5e268056bc75e2d6310000084020592506815af1d78b58c400000015b68280e60114edb805d0383126118885768280e60114edb805d0368056bc75e2d631000008402059250680ad78ebc5ac6200000015b680ebc5fb4174612111083126118b357680ebc5fb4174612111068056bc75e2d631000009384020592015b6808f00f760a4b2db55d83126118e8576808f00f760a4b2db55d68056bc75e2d6310000084020592506802b5e3af16b1880000015b6806f5f1775788937937831261191d576806f5f177578893793768056bc75e2d63100000840205925068015af1d78b58c40000015b6806248f33704b2866038312611951576806248f33704b28660368056bc75e2d63100000840205925067ad78ebc5ac620000015b6805c548670b9510e7ac8312611985576805c548670b9510e7ac68056bc75e2d6310000084020592506756bc75e2d6310000015b600068056bc75e2d63100000840168056bc75e2d6310000080860302816119ae576119ae611c52565b059050600068056bc75e2d63100000828002059050818068056bc75e2d63100000818402059150600382050168056bc75e2d63100000828402059150600582050168056bc75e2d63100000828402059150600782050168056bc75e2d63100000828402059150600982050168056bc75e2d63100000828402059150600b820501600202606485820105979650505050505050565b6001600160a01b0381168114611a5757600080fd5b50565b803561155a81611a42565b60008060408385031215611a7857600080fd5b8235611a8381611a42565b946020939093013593505050565b604051610120810167ffffffffffffffff81118282101715611ac357634e487b7160e01b600052604160045260246000fd5b60405290565b600080828403610140811215611ade57600080fd5b8335611ae981611a42565b92506101207fffffffffffffffffffffffffffffffffffffffffffffffffffffffffffffffe08201811315611b1d57600080fd5b611b25611a91565b9150602085013582526040850135602083015260608501356040830152611b4e60808601611a5a565b606083015260a0850135608083015260c085013560a083015260e085013560c08301526101008086013560e084015281860135818401525050809150509250929050565b600060208284031215611ba457600080fd5b813561054b81611a42565b600060208284031215611bc157600080fd5b8151801515811461054b57600080fd5b600060208284031215611be357600080fd5b5051919050565b634e487b7160e01b600052601160045260246000fd5b8082018281126000831280158216821582161715611c2057611c20611bea565b505092915050565b818103818111156103fd576103fd611bea565b80820281158282048414176103fd576103fd611bea565b634e487b7160e01b600052601260045260246000fd5b8181036000831280158383131683831282161715611c8857611c88611bea565b5092915050565b805161155a81611a42565b60006101208284031215611cad57600080fd5b611cb5611a91565b825181526020830151602082015260408301516040820152611cd960608401611c8f565b60608201526080830151608082015260a083015160a082015260c083015160c082015260e083015160e08201526101008084015181830152508091505092915050565b80820260008212600160ff1b84141615611d3857611d38611bea565b81810583148215176103fd576103fd611bea565b600080600060608486031215611d6157600080fd5b8351611d6c81611a42565b6020850151909350611d7d81611a42565b6040850151909250611d8e81611a42565b809150509250925092565b6000600160ff1b8203611dae57611dae611bea565b5060000390565b600082611dc457611dc4611c52565b6000198314600160ff1b83141615611dde57611dde611bea565b500590565b600082611df257611df2611c52565b50049056fea264697066735822122089979f72e40c15287946dfef508cd7d61ab2312976cb95cfcdaa2403b106fe3664736f6c63430008110033",
  "linkReferences": {},
  "deployedLinkReferences": {}
}