{
  "_format": "hh-sol-artifact-1",
  "contractName": "PtAndLpToAsset",
  "sourceName": "contracts/offchain-helpers/PtAndLpToAsset.sol",
  "abi": [
    {
      "inputs": [
        {
          "internalType": "int256",
          "name": "exchangeRate",
          "type": "int256"
        }
      ],
      "name": "MarketExchangeRateBelowOne",
      "type": "error"
    },
    {
      "inputs": [],
      "name": "MarketExpired",
      "type": "error"
    },
    {
      "inputs": [],
      "name": "MarketProportionMustNotEqualOne",
      "type": "error"
    },
    {
      "inputs": [
        {
          "internalType": "int256",
          "name": "rateScalar",
          "type": "int256"
        }
      ],
      "name": "MarketRateScalarBelowZero",
      "type": "error"
    },
    {
      "inputs": [
        {
          "internalType": "int256",
          "name": "totalPt",
          "type": "int256"
        },
        {
          "internalType": "int256",
          "name": "totalAsset",
          "type": "int256"
        }
      ],
      "name": "MarketZeroTotalPtOrTotalAsset",
      "type": "error"
    },
    {
      "inputs": [
        {
          "internalType": "contract IPMarket",
          "name": "market",
          "type": "address"
        }
      ],
      "name": "getLpToAssetRate",
      "outputs": [
        {
          "internalType": "uint256",
          "name": "lpToAssetRate",
          "type": "uint256"
        }
      ],
      "stateMutability": "view",
      "type": "function"
    },
    {
      "inputs": [
        {
          "internalType": "contract IPMarket",
          "name": "market",
          "type": "address"
        }
      ],
      "name": "getPtToAssetRate",
      "outputs": [
        {
          "internalType": "uint256",
          "name": "ptToAssetRate",
          "type": "uint256"
        }
      ],
      "stateMutability": "view",
      "type": "function"
    }
  ],
  "bytecode": "0x608060405234801561001057600080fd5b50611769806100206000396000f3fe608060405234801561001057600080fd5b50600436106100365760003560e01c8063955ee4e71461003b578063f2344deb14610060575b600080fd5b61004e610049366004611464565b610073565b60405190815260200160405180910390f35b61004e61006e366004611464565b610163565b6040517f794052f30000000000000000000000000000000000000000000000000000000081526000600482018190529081906001600160a01b0384169063794052f39060240161012060405180830381865afa1580156100d7573d6000803e3d6000fd5b505050506040513d601f19601f820116820180604052508101906100fb91906114c4565b9050600061010884610207565b90506000610117838342610437565b9050600061013161012987868661056f565b855190610691565b8260200151610140919061155c565b90506101598460400151826106b690919063ffffffff16565b9695505050505050565b6040517f794052f30000000000000000000000000000000000000000000000000000000081526000600482018190529081906001600160a01b0384169063794052f39060240161012060405180830381865afa1580156101c7573d6000803e3d6000fd5b505050506040513d601f19601f820116820180604052508101906101eb91906114c4565b905061020083826101fb86610207565b61056f565b9392505050565b6000806000836001600160a01b0316632c8ce6bc6040518163ffffffff1660e01b8152600401606060405180830381865afa15801561024a573d6000803e3d6000fd5b505050506040513d601f19601f8201168201806040525081019061026e9190611584565b92505091506000826001600160a01b0316633ba0b9a96040518163ffffffff1660e01b8152600401602060405180830381865afa1580156102b3573d6000803e3d6000fd5b505050506040513d601f19601f820116820180604052508101906102d791906115d1565b90506000826001600160a01b031663d2a3584e6040518163ffffffff1660e01b8152600401602060405180830381865afa158015610319573d6000803e3d6000fd5b505050506040513d601f19601f8201168201806040525081019061033d91906115d1565b9050826001600160a01b031663516399df6040518163ffffffff1660e01b8152600401602060405180830381865afa15801561037d573d6000803e3d6000fd5b505050506040513d601f19601f820116820180604052508101906103a191906115ea565b801561041f575043836001600160a01b03166360e0a9e16040518163ffffffff1660e01b8152600401602060405180830381865afa1580156103e7573d6000803e3d6000fd5b505050506040513d601f19601f8201168201806040525081019061040b919061160c565b6fffffffffffffffffffffffffffffffff16145b1561042d5795945050505050565b61015982826106dc565b6104626040518060800160405280600081526020016000815260200160008152602001600081525090565b60a0840151821061049f576040517fb2094b5900000000000000000000000000000000000000000000000000000000815260040160405180910390fd5b6000828560a001516104b1919061163e565b90506104bd85826106f2565b825260208501516104cf90859061076c565b6020830152845115806104e457506020820151155b1561053057845160208301516040517fb1c4aefb000000000000000000000000000000000000000000000000000000008152600481019290925260248201526044015b60405180910390fd5b61054e856000015186610100015184602001518560000151856107ab565b604083015260c08501516105629082610845565b6060830152509392505050565b6000428360a0015111610658576000846001600160a01b0316632c8ce6bc6040518163ffffffff1660e01b8152600401606060405180830381865afa1580156105bc573d6000803e3d6000fd5b505050506040513d601f19601f820116820180604052508101906105e09190611584565b5050905061065083826001600160a01b0316633ba0b9a96040518163ffffffff1660e01b8152600401602060405180830381865afa158015610626573d6000803e3d6000fd5b505050506040513d601f19601f8201168201806040525081019061064a91906115d1565b9061087e565b915050610200565b6000428460a0015161066a919061163e565b9050600061067d85610100015183610845565b9050610159670de0b6b3a7640000826106b6565b60008061069e8385611651565b9050670de0b6b3a7640000815b059150505b92915050565b6000806106cb670de0b6b3a764000085611651565b90508281816106ab576106ab611681565b60008183116106eb5781610200565b5090919050565b60006106fd826108ad565b61071461070f6201518061016d611697565b6108ad565b84608001516107239190611651565b61072d91906116ae565b9050600081136106b0576040517f1ca4187600000000000000000000000000000000000000000000000000000000815260048101829052602401610527565b6000806000831261077e576001610782565b6000195b905061079961070f85610794866108e0565b6108f2565b6107a39082611651565b949350505050565b6000806107b88684610845565b9050670de0b6b3a76400008112156107ff576040517fca78c8a400000000000000000000000000000000000000000000000000000000815260048101829052602401610527565b600061081561080e878a61155c565b89906106b6565b9050600061082282610911565b905061082e81876106b6565b61083890846116dc565b9998505050505050505050565b6000806108576201518061016d611697565b6108618486611697565b61086b9190611703565b90506107a3610879826108ad565b61097d565b600080610893670de0b6b3a764000085611697565b90508281816108a4576108a4611681565b04949350505050565b60007f7fffffffffffffffffffffffffffffffffffffffffffffffffffffffffffffff8211156108dc57600080fd5b5090565b60008082136108dc576106b082611717565b6000670de0b6b3a76400006109078484611697565b6102009190611703565b6000670de0b6b3a76400008203610954576040517fa9c8b14d00000000000000000000000000000000000000000000000000000000815260040160405180910390fd5b600061097261096b84670de0b6b3a76400006116dc565b84906106b6565b905061020081610eae565b60007ffffffffffffffffffffffffffffffffffffffffffffffffdc702bd3a30fc000082121580156109b8575068070c1cc73b00c800008213155b610a1e576040517f08c379a000000000000000000000000000000000000000000000000000000000815260206004820152601060248201527f496e76616c6964206578706f6e656e74000000000000000000000000000000006044820152606401610527565b6000821215610a5757610a338260000361097d565b6ec097ce7bc90715b34b9f100000000081610a5057610a50611681565b0592915050565b60006806f05b59d3b20000008312610aad57507ffffffffffffffffffffffffffffffffffffffffffffffff90fa4a62c4e00000090910190770195e54c5dd42177f53a27172fa9ec630262827000000000610af9565b6803782dace9d90000008312610af557507ffffffffffffffffffffffffffffffffffffffffffffffffc87d2531627000000909101906b1425982cf597cd205cef7380610af9565b5060015b6064929092029168056bc75e2d6310000068ad78ebc5ac620000008412610b5f577fffffffffffffffffffffffffffffffffffffffffffffff5287143a539e0000009093019268056bc75e2d631000006e01855144814a7ff805980ff008400082020590505b6856bc75e2d6310000008412610bb1577fffffffffffffffffffffffffffffffffffffffffffffffa9438a1d29cf0000009093019268056bc75e2d631000006b02df0ab5a80a22c61ab5a70082020590505b682b5e3af16b188000008412610c01577fffffffffffffffffffffffffffffffffffffffffffffffd4a1c50e94e78000009093019268056bc75e2d63100000693f1fce3da636ea5cf85082020590505b6815af1d78b58c4000008412610c51577fffffffffffffffffffffffffffffffffffffffffffffffea50e2874a73c000009093019268056bc75e2d63100000690127fa27722cc06cc5e282020590505b680ad78ebc5ac62000008412610ca0577ffffffffffffffffffffffffffffffffffffffffffffffff5287143a539e000009093019268056bc75e2d6310000068280e60114edb805d0382020590505b68056bc75e2d631000008412610cef577ffffffffffffffffffffffffffffffffffffffffffffffffa9438a1d29cf000009093019268056bc75e2d63100000680ebc5fb4174612111082020590505b6802b5e3af16b18800008412610d3e577ffffffffffffffffffffffffffffffffffffffffffffffffd4a1c50e94e7800009093019268056bc75e2d631000006808f00f760a4b2db55d82020590505b68015af1d78b58c400008412610d8d577ffffffffffffffffffffffffffffffffffffffffffffffffea50e2874a73c00009093019268056bc75e2d631000006806f5f177578893793782020590505b68056bc75e2d631000008481019085906002908280020505918201919050600368056bc75e2d631000008783020505918201919050600468056bc75e2d631000008783020505918201919050600568056bc75e2d631000008783020505918201919050600668056bc75e2d631000008783020505918201919050600768056bc75e2d631000008783020505918201919050600868056bc75e2d631000008783020505918201919050600968056bc75e2d631000008783020505918201919050600a68056bc75e2d631000008783020505918201919050600b68056bc75e2d631000008783020505918201919050600c68056bc75e2d631000008783020505918201919050606468056bc75e2d63100000848402058502059695505050505050565b6000808213610f19576040517f08c379a000000000000000000000000000000000000000000000000000000000815260206004820152600d60248201527f6f7574206f6620626f756e6473000000000000000000000000000000000000006044820152606401610527565b670c7d713b49da000082138015610f375750670f43fc2c04ee000082125b15610f5b57670de0b6b3a7640000610f4e83610f69565b81610a5057610a50611681565b6106b0826110a1565b919050565b670de0b6b3a7640000026000806ec097ce7bc90715b34b9f1000000000808401907fffffffffffffffffffffffffffffffffff3f68318436f8ea4cb460f00000000085010281610fbb57610fbb611681565b05905060006ec097ce7bc90715b34b9f100000000082800205905081806ec097ce7bc90715b34b9f100000000081840205915060038205016ec097ce7bc90715b34b9f100000000082840205915060058205016ec097ce7bc90715b34b9f100000000082840205915060078205016ec097ce7bc90715b34b9f100000000082840205915060098205016ec097ce7bc90715b34b9f1000000000828402059150600b8205016ec097ce7bc90715b34b9f1000000000828402059150600d8205016ec097ce7bc90715b34b9f1000000000828402059150600f82050160020295945050505050565b6000670de0b6b3a76400008212156110e3576110da826ec097ce7bc90715b34b9f1000000000816110d4576110d4611681565b056110a1565b60000392915050565b60007e1600ef3172e58d2e933ec884fde10064c63b5372d805e203c0000000000000831261113457770195e54c5dd42177f53a27172fa9ec630262827000000000830592506806f05b59d3b2000000015b73011798004d755d3c8bc8e03204cf44619e000000831261116c576b1425982cf597cd205cef7380830592506803782dace9d9000000015b606492830292026e01855144814a7ff805980ff008400083126111b4576e01855144814a7ff805980ff008400068056bc75e2d63100000840205925068ad78ebc5ac62000000015b6b02df0ab5a80a22c61ab5a70083126111ef576b02df0ab5a80a22c61ab5a70068056bc75e2d6310000084020592506856bc75e2d631000000015b693f1fce3da636ea5cf850831261122657693f1fce3da636ea5cf85068056bc75e2d631000008402059250682b5e3af16b18800000015b690127fa27722cc06cc5e2831261125d57690127fa27722cc06cc5e268056bc75e2d6310000084020592506815af1d78b58c400000015b68280e60114edb805d0383126112925768280e60114edb805d0368056bc75e2d631000008402059250680ad78ebc5ac6200000015b680ebc5fb4174612111083126112bd57680ebc5fb4174612111068056bc75e2d631000009384020592015b6808f00f760a4b2db55d83126112f2576808f00f760a4b2db55d68056bc75e2d6310000084020592506802b5e3af16b1880000015b6806f5f17757889379378312611327576806f5f177578893793768056bc75e2d63100000840205925068015af1d78b58c40000015b6806248f33704b286603831261135b576806248f33704b28660368056bc75e2d63100000840205925067ad78ebc5ac620000015b6805c548670b9510e7ac831261138f576805c548670b9510e7ac68056bc75e2d6310000084020592506756bc75e2d6310000015b600068056bc75e2d63100000840168056bc75e2d6310000080860302816113b8576113b8611681565b059050600068056bc75e2d63100000828002059050818068056bc75e2d63100000818402059150600382050168056bc75e2d63100000828402059150600582050168056bc75e2d63100000828402059150600782050168056bc75e2d63100000828402059150600982050168056bc75e2d63100000828402059150600b820501600202606485820105979650505050505050565b6001600160a01b038116811461146157600080fd5b50565b60006020828403121561147657600080fd5b81356102008161144c565b604051610120810167ffffffffffffffff811182821017156114b357634e487b7160e01b600052604160045260246000fd5b60405290565b8051610f648161144c565b600061012082840312156114d757600080fd5b6114df611481565b825181526020830151602082015260408301516040820152611503606084016114b9565b60608201526080830151608082015260a083015160a082015260c083015160c082015260e083015160e08201526101008084015181830152508091505092915050565b634e487b7160e01b600052601160045260246000fd5b808201828112600083128015821682158216171561157c5761157c611546565b505092915050565b60008060006060848603121561159957600080fd5b83516115a48161144c565b60208501519093506115b58161144c565b60408501519092506115c68161144c565b809150509250925092565b6000602082840312156115e357600080fd5b5051919050565b6000602082840312156115fc57600080fd5b8151801515811461020057600080fd5b60006020828403121561161e57600080fd5b81516fffffffffffffffffffffffffffffffff8116811461020057600080fd5b818103818111156106b0576106b0611546565b80820260008212600160ff1b8414161561166d5761166d611546565b81810583148215176106b0576106b0611546565b634e487b7160e01b600052601260045260246000fd5b80820281158282048414176106b0576106b0611546565b6000826116bd576116bd611681565b6000198314600160ff1b831416156116d7576116d7611546565b500590565b81810360008312801583831316838312821617156116fc576116fc611546565b5092915050565b60008261171257611712611681565b500490565b6000600160ff1b820361172c5761172c611546565b506000039056fea2646970667358221220625f5f6e86e987cba36c8970f9ca56ca90cb2bdcdc2aac252cd946018fed096664736f6c63430008110033",
  "linkReferences": {},
  "deployedLinkReferences": {}
}