{
  "_format": "hh-sol-artifact-1",
  "contractName": "ActionSwapYT",
  "sourceName": "contracts/router/ActionSwapYT.sol",
  "abi": [
    {
      "inputs": [
        {
          "internalType": "contract IAddressProvider",
          "name": "provider",
          "type": "address"
        },
        {
          "internalType": "uint256",
          "name": "providerId",
          "type": "uint256"
        }
      ],
      "stateMutability": "nonpayable",
      "type": "constructor"
    },
    {
      "inputs": [],
      "name": "ApproxFail",
      "type": "error"
    },
    {
      "inputs": [
        {
          "internalType": "uint256",
          "name": "guessMin",
          "type": "uint256"
        },
        {
          "internalType": "uint256",
          "name": "guessMax",
          "type": "uint256"
        },
        {
          "internalType": "uint256",
          "name": "eps",
          "type": "uint256"
        }
      ],
      "name": "ApproxParamsInvalid",
      "type": "error"
    },
    {
      "inputs": [
        {
          "internalType": "int256",
          "name": "exchangeRate",
          "type": "int256"
        }
      ],
      "name": "MarketExchangeRateBelowOne",
      "type": "error"
    },
    {
      "inputs": [],
      "name": "MarketExpired",
      "type": "error"
    },
    {
      "inputs": [],
      "name": "MarketProportionMustNotEqualOne",
      "type": "error"
    },
    {
      "inputs": [
        {
          "internalType": "int256",
          "name": "proportion",
          "type": "int256"
        },
        {
          "internalType": "int256",
          "name": "maxProportion",
          "type": "int256"
        }
      ],
      "name": "MarketProportionTooHigh",
      "type": "error"
    },
    {
      "inputs": [
        {
          "internalType": "int256",
          "name": "rateScalar",
          "type": "int256"
        }
      ],
      "name": "MarketRateScalarBelowZero",
      "type": "error"
    },
    {
      "inputs": [
        {
          "internalType": "int256",
          "name": "totalPt",
          "type": "int256"
        },
        {
          "internalType": "int256",
          "name": "totalAsset",
          "type": "int256"
        }
      ],
      "name": "MarketZeroTotalPtOrTotalAsset",
      "type": "error"
    },
    {
      "inputs": [
        {
          "internalType": "address",
          "name": "caller",
          "type": "address"
        }
      ],
      "name": "RouterCallbackNotEuphratesMarket",
      "type": "error"
    },
    {
      "inputs": [
        {
          "internalType": "uint256",
          "name": "actualSyIn",
          "type": "uint256"
        },
        {
          "internalType": "uint256",
          "name": "limitSyIn",
          "type": "uint256"
        }
      ],
      "name": "RouterExceededLimitSyIn",
      "type": "error"
    },
    {
      "inputs": [
        {
          "internalType": "uint256",
          "name": "actualYtIn",
          "type": "uint256"
        },
        {
          "internalType": "uint256",
          "name": "limitYtIn",
          "type": "uint256"
        }
      ],
      "name": "RouterExceededLimitYtIn",
      "type": "error"
    },
    {
      "inputs": [
        {
          "internalType": "uint256",
          "name": "actualPtOut",
          "type": "uint256"
        },
        {
          "internalType": "uint256",
          "name": "requiredPtOut",
          "type": "uint256"
        }
      ],
      "name": "RouterInsufficientPtOut",
      "type": "error"
    },
    {
      "inputs": [
        {
          "internalType": "uint256",
          "name": "actualPtRepay",
          "type": "uint256"
        },
        {
          "internalType": "uint256",
          "name": "requiredPtRepay",
          "type": "uint256"
        }
      ],
      "name": "RouterInsufficientPtRepay",
      "type": "error"
    },
    {
      "inputs": [
        {
          "internalType": "uint256",
          "name": "actualSyOut",
          "type": "uint256"
        },
        {
          "internalType": "uint256",
          "name": "requiredSyOut",
          "type": "uint256"
        }
      ],
      "name": "RouterInsufficientSyOut",
      "type": "error"
    },
    {
      "inputs": [
        {
          "internalType": "uint256",
          "name": "actualSyRepay",
          "type": "uint256"
        },
        {
          "internalType": "uint256",
          "name": "requiredSyRepay",
          "type": "uint256"
        }
      ],
      "name": "RouterInsufficientSyRepay",
      "type": "error"
    },
    {
      "inputs": [
        {
          "internalType": "uint256",
          "name": "actualTokenOut",
          "type": "uint256"
        },
        {
          "internalType": "uint256",
          "name": "requiredTokenOut",
          "type": "uint256"
        }
      ],
      "name": "RouterInsufficientTokenOut",
      "type": "error"
    },
    {
      "inputs": [
        {
          "internalType": "uint256",
          "name": "actualYtOut",
          "type": "uint256"
        },
        {
          "internalType": "uint256",
          "name": "requiredYtOut",
          "type": "uint256"
        }
      ],
      "name": "RouterInsufficientYtOut",
      "type": "error"
    },
    {
      "anonymous": false,
      "inputs": [
        {
          "indexed": true,
          "internalType": "address",
          "name": "caller",
          "type": "address"
        },
        {
          "indexed": true,
          "internalType": "address",
          "name": "market",
          "type": "address"
        },
        {
          "indexed": true,
          "internalType": "address",
          "name": "receiver",
          "type": "address"
        },
        {
          "indexed": false,
          "internalType": "int256",
          "name": "netPtToAccount",
          "type": "int256"
        },
        {
          "indexed": false,
          "internalType": "int256",
          "name": "netYtToAccount",
          "type": "int256"
        }
      ],
      "name": "SwapPtAndYt",
      "type": "event"
    },
    {
      "anonymous": false,
      "inputs": [
        {
          "indexed": true,
          "internalType": "address",
          "name": "caller",
          "type": "address"
        },
        {
          "indexed": true,
          "internalType": "address",
          "name": "market",
          "type": "address"
        },
        {
          "indexed": true,
          "internalType": "address",
          "name": "receiver",
          "type": "address"
        },
        {
          "indexed": false,
          "internalType": "int256",
          "name": "netYtToAccount",
          "type": "int256"
        },
        {
          "indexed": false,
          "internalType": "int256",
          "name": "netSyToAccount",
          "type": "int256"
        }
      ],
      "name": "SwapYtAndSy",
      "type": "event"
    },
    {
      "anonymous": false,
      "inputs": [
        {
          "indexed": true,
          "internalType": "address",
          "name": "caller",
          "type": "address"
        },
        {
          "indexed": true,
          "internalType": "address",
          "name": "market",
          "type": "address"
        },
        {
          "indexed": true,
          "internalType": "address",
          "name": "token",
          "type": "address"
        },
        {
          "indexed": false,
          "internalType": "address",
          "name": "receiver",
          "type": "address"
        },
        {
          "indexed": false,
          "internalType": "int256",
          "name": "netYtToAccount",
          "type": "int256"
        },
        {
          "indexed": false,
          "internalType": "int256",
          "name": "netTokenToAccount",
          "type": "int256"
        }
      ],
      "name": "SwapYtAndToken",
      "type": "event"
    },
    {
      "inputs": [
        {
          "internalType": "int256",
          "name": "ptToAccount",
          "type": "int256"
        },
        {
          "internalType": "int256",
          "name": "syToAccount",
          "type": "int256"
        },
        {
          "internalType": "bytes",
          "name": "data",
          "type": "bytes"
        }
      ],
      "name": "swapCallback",
      "outputs": [],
      "stateMutability": "nonpayable",
      "type": "function"
    },
    {
      "inputs": [
        {
          "internalType": "address",
          "name": "receiver",
          "type": "address"
        },
        {
          "internalType": "address",
          "name": "market",
          "type": "address"
        },
        {
          "internalType": "uint256",
          "name": "exactPtIn",
          "type": "uint256"
        },
        {
          "internalType": "uint256",
          "name": "minYtOut",
          "type": "uint256"
        },
        {
          "components": [
            {
              "internalType": "uint256",
              "name": "guessMin",
              "type": "uint256"
            },
            {
              "internalType": "uint256",
              "name": "guessMax",
              "type": "uint256"
            },
            {
              "internalType": "uint256",
              "name": "guessOffchain",
              "type": "uint256"
            },
            {
              "internalType": "uint256",
              "name": "maxIteration",
              "type": "uint256"
            },
            {
              "internalType": "uint256",
              "name": "eps",
              "type": "uint256"
            }
          ],
          "internalType": "struct ApproxParams",
          "name": "guessTotalPtToSwap",
          "type": "tuple"
        }
      ],
      "name": "swapExactPtForYt",
      "outputs": [
        {
          "internalType": "uint256",
          "name": "netYtOut",
          "type": "uint256"
        },
        {
          "internalType": "uint256",
          "name": "netSyFee",
          "type": "uint256"
        }
      ],
      "stateMutability": "nonpayable",
      "type": "function"
    },
    {
      "inputs": [
        {
          "internalType": "address",
          "name": "receiver",
          "type": "address"
        },
        {
          "internalType": "address",
          "name": "market",
          "type": "address"
        },
        {
          "internalType": "uint256",
          "name": "exactSyIn",
          "type": "uint256"
        },
        {
          "internalType": "uint256",
          "name": "minYtOut",
          "type": "uint256"
        },
        {
          "components": [
            {
              "internalType": "uint256",
              "name": "guessMin",
              "type": "uint256"
            },
            {
              "internalType": "uint256",
              "name": "guessMax",
              "type": "uint256"
            },
            {
              "internalType": "uint256",
              "name": "guessOffchain",
              "type": "uint256"
            },
            {
              "internalType": "uint256",
              "name": "maxIteration",
              "type": "uint256"
            },
            {
              "internalType": "uint256",
              "name": "eps",
              "type": "uint256"
            }
          ],
          "internalType": "struct ApproxParams",
          "name": "guessYtOut",
          "type": "tuple"
        }
      ],
      "name": "swapExactSyForYt",
      "outputs": [
        {
          "internalType": "uint256",
          "name": "netYtOut",
          "type": "uint256"
        },
        {
          "internalType": "uint256",
          "name": "netSyFee",
          "type": "uint256"
        }
      ],
      "stateMutability": "nonpayable",
      "type": "function"
    },
    {
      "inputs": [
        {
          "internalType": "address",
          "name": "receiver",
          "type": "address"
        },
        {
          "internalType": "address",
          "name": "market",
          "type": "address"
        },
        {
          "internalType": "uint256",
          "name": "minYtOut",
          "type": "uint256"
        },
        {
          "components": [
            {
              "internalType": "uint256",
              "name": "guessMin",
              "type": "uint256"
            },
            {
              "internalType": "uint256",
              "name": "guessMax",
              "type": "uint256"
            },
            {
              "internalType": "uint256",
              "name": "guessOffchain",
              "type": "uint256"
            },
            {
              "internalType": "uint256",
              "name": "maxIteration",
              "type": "uint256"
            },
            {
              "internalType": "uint256",
              "name": "eps",
              "type": "uint256"
            }
          ],
          "internalType": "struct ApproxParams",
          "name": "guessYtOut",
          "type": "tuple"
        },
        {
          "components": [
            {
              "internalType": "address",
              "name": "tokenIn",
              "type": "address"
            },
            {
              "internalType": "uint256",
              "name": "netTokenIn",
              "type": "uint256"
            },
            {
              "internalType": "address",
              "name": "tokenMintSy",
              "type": "address"
            },
            {
              "internalType": "address",
              "name": "bulk",
              "type": "address"
            },
            {
              "internalType": "address",
              "name": "euphratesSwap",
              "type": "address"
            },
            {
              "components": [
                {
                  "internalType": "enum SwapType",
                  "name": "swapType",
                  "type": "uint8"
                },
                {
                  "internalType": "address",
                  "name": "extRouter",
                  "type": "address"
                },
                {
                  "internalType": "bytes",
                  "name": "extCalldata",
                  "type": "bytes"
                },
                {
                  "internalType": "bool",
                  "name": "needScale",
                  "type": "bool"
                }
              ],
              "internalType": "struct SwapData",
              "name": "swapData",
              "type": "tuple"
            }
          ],
          "internalType": "struct TokenInput",
          "name": "input",
          "type": "tuple"
        }
      ],
      "name": "swapExactTokenForYt",
      "outputs": [
        {
          "internalType": "uint256",
          "name": "netYtOut",
          "type": "uint256"
        },
        {
          "internalType": "uint256",
          "name": "netSyFee",
          "type": "uint256"
        }
      ],
      "stateMutability": "payable",
      "type": "function"
    },
    {
      "inputs": [
        {
          "internalType": "address",
          "name": "receiver",
          "type": "address"
        },
        {
          "internalType": "address",
          "name": "market",
          "type": "address"
        },
        {
          "internalType": "uint256",
          "name": "exactYtIn",
          "type": "uint256"
        },
        {
          "internalType": "uint256",
          "name": "minPtOut",
          "type": "uint256"
        },
        {
          "components": [
            {
              "internalType": "uint256",
              "name": "guessMin",
              "type": "uint256"
            },
            {
              "internalType": "uint256",
              "name": "guessMax",
              "type": "uint256"
            },
            {
              "internalType": "uint256",
              "name": "guessOffchain",
              "type": "uint256"
            },
            {
              "internalType": "uint256",
              "name": "maxIteration",
              "type": "uint256"
            },
            {
              "internalType": "uint256",
              "name": "eps",
              "type": "uint256"
            }
          ],
          "internalType": "struct ApproxParams",
          "name": "guessTotalPtFromSwap",
          "type": "tuple"
        }
      ],
      "name": "swapExactYtForPt",
      "outputs": [
        {
          "internalType": "uint256",
          "name": "netPtOut",
          "type": "uint256"
        },
        {
          "internalType": "uint256",
          "name": "netSyFee",
          "type": "uint256"
        }
      ],
      "stateMutability": "nonpayable",
      "type": "function"
    },
    {
      "inputs": [
        {
          "internalType": "address",
          "name": "receiver",
          "type": "address"
        },
        {
          "internalType": "address",
          "name": "market",
          "type": "address"
        },
        {
          "internalType": "uint256",
          "name": "exactYtIn",
          "type": "uint256"
        },
        {
          "internalType": "uint256",
          "name": "minSyOut",
          "type": "uint256"
        }
      ],
      "name": "swapExactYtForSy",
      "outputs": [
        {
          "internalType": "uint256",
          "name": "netSyOut",
          "type": "uint256"
        },
        {
          "internalType": "uint256",
          "name": "netSyFee",
          "type": "uint256"
        }
      ],
      "stateMutability": "nonpayable",
      "type": "function"
    },
    {
      "inputs": [
        {
          "internalType": "address",
          "name": "receiver",
          "type": "address"
        },
        {
          "internalType": "address",
          "name": "market",
          "type": "address"
        },
        {
          "internalType": "uint256",
          "name": "netYtIn",
          "type": "uint256"
        },
        {
          "components": [
            {
              "internalType": "address",
              "name": "tokenOut",
              "type": "address"
            },
            {
              "internalType": "uint256",
              "name": "minTokenOut",
              "type": "uint256"
            },
            {
              "internalType": "address",
              "name": "tokenRedeemSy",
              "type": "address"
            },
            {
              "internalType": "address",
              "name": "bulk",
              "type": "address"
            },
            {
              "internalType": "address",
              "name": "euphratesSwap",
              "type": "address"
            },
            {
              "components": [
                {
                  "internalType": "enum SwapType",
                  "name": "swapType",
                  "type": "uint8"
                },
                {
                  "internalType": "address",
                  "name": "extRouter",
                  "type": "address"
                },
                {
                  "internalType": "bytes",
                  "name": "extCalldata",
                  "type": "bytes"
                },
                {
                  "internalType": "bool",
                  "name": "needScale",
                  "type": "bool"
                }
              ],
              "internalType": "struct SwapData",
              "name": "swapData",
              "type": "tuple"
            }
          ],
          "internalType": "struct TokenOutput",
          "name": "output",
          "type": "tuple"
        }
      ],
      "name": "swapExactYtForToken",
      "outputs": [
        {
          "internalType": "uint256",
          "name": "netTokenOut",
          "type": "uint256"
        },
        {
          "internalType": "uint256",
          "name": "netSyFee",
          "type": "uint256"
        }
      ],
      "stateMutability": "nonpayable",
      "type": "function"
    },
    {
      "inputs": [
        {
          "internalType": "address",
          "name": "receiver",
          "type": "address"
        },
        {
          "internalType": "address",
          "name": "market",
          "type": "address"
        },
        {
          "internalType": "uint256",
          "name": "exactYtOut",
          "type": "uint256"
        },
        {
          "internalType": "uint256",
          "name": "maxSyIn",
          "type": "uint256"
        }
      ],
      "name": "swapSyForExactYt",
      "outputs": [
        {
          "internalType": "uint256",
          "name": "netSyIn",
          "type": "uint256"
        },
        {
          "internalType": "uint256",
          "name": "netSyFee",
          "type": "uint256"
        }
      ],
      "stateMutability": "nonpayable",
      "type": "function"
    },
    {
      "inputs": [
        {
          "internalType": "address",
          "name": "receiver",
          "type": "address"
        },
        {
          "internalType": "address",
          "name": "market",
          "type": "address"
        },
        {
          "internalType": "uint256",
          "name": "exactSyOut",
          "type": "uint256"
        },
        {
          "internalType": "uint256",
          "name": "maxYtIn",
          "type": "uint256"
        },
        {
          "components": [
            {
              "internalType": "uint256",
              "name": "guessMin",
              "type": "uint256"
            },
            {
              "internalType": "uint256",
              "name": "guessMax",
              "type": "uint256"
            },
            {
              "internalType": "uint256",
              "name": "guessOffchain",
              "type": "uint256"
            },
            {
              "internalType": "uint256",
              "name": "maxIteration",
              "type": "uint256"
            },
            {
              "internalType": "uint256",
              "name": "eps",
              "type": "uint256"
            }
          ],
          "internalType": "struct ApproxParams",
          "name": "guessYtIn",
          "type": "tuple"
        }
      ],
      "name": "swapYtForExactSy",
      "outputs": [
        {
          "internalType": "uint256",
          "name": "netYtIn",
          "type": "uint256"
        },
        {
          "internalType": "uint256",
          "name": "netSyFee",
          "type": "uint256"
        }
      ],
      "stateMutability": "nonpayable",
      "type": "function"
    }
  ],
  "bytecode": "0x60a06040523480156200001157600080fd5b5060405162004fc738038062004fc78339810160408190526200003491620000e4565b62000040828262000055565b6001600160a01b031660805250620001359050565b604051634a83e9cd60e11b8152600481018290526000906001600160a01b03841690639507d39a90602401602060405180830381865afa1580156200009e573d6000803e3d6000fd5b505050506040513d601f19601f82011682018060405250810190620000c4919062000115565b9392505050565b6001600160a01b0381168114620000e157600080fd5b50565b60008060408385031215620000f857600080fd5b82516200010581620000cb565b6020939093015192949293505050565b6000602082840312156200012857600080fd5b8151620000c481620000cb565b608051614e76620001516000396000611ca40152614e766000f3fe6080604052600436106100965760003560e01c8063c861a89811610069578063e15cc0981161004e578063e15cc09814610167578063fa483e7214610187578063fdd71f43146101a957600080fd5b8063c861a89814610127578063d6308fa41461014757600080fd5b8063357d65401461009b578063448b9b95146100d4578063bf1bd434146100f4578063c4a9c7de14610114575b600080fd5b3480156100a757600080fd5b506100bb6100b63660046144d1565b6101c9565b6040805192835260208301919091520160405180910390f35b3480156100e057600080fd5b506100bb6100ef36600461452f565b6102ba565b34801561010057600080fd5b506100bb61010f3660046144d1565b61050d565b6100bb61012236600461459e565b610745565b34801561013357600080fd5b506100bb61014236600461452f565b61086d565b34801561015357600080fd5b506100bb61016236600461461e565b610a7b565b34801561017357600080fd5b506100bb61018236600461452f565b610ba5565b34801561019357600080fd5b506101a76101a236600461468a565b610de9565b005b3480156101b557600080fd5b506100bb6101c436600461452f565b610eb8565b600080600080866001600160a01b0316632c8ce6bc6040518163ffffffff1660e01b8152600401606060405180830381865afa15801561020d573d6000803e3d6000fd5b505050506040513d601f19601f82011682018060405250810190610231919061470a565b925050915061024281338389610f86565b610250888884848a8a610fa7565b90945092506001600160a01b03808916908816337f05499aba408f669fb848399c146fad5bd604d50b15566bdc19e81c40922fab8d61028e8a611120565b6102978961113d565b6040805192835260208301919091520160405180910390a4505094509492505050565b600080600080876001600160a01b0316632c8ce6bc6040518163ffffffff1660e01b8152600401606060405180830381865afa1580156102fe573d6000803e3d6000fd5b505050506040513d601f19601f82011682018060405250810190610322919061470a565b60405163794052f360e01b81523060048201529194509250600091506001600160a01b038a169063794052f39060240161012060405180830381865afa158015610370573d6000803e3d6000fd5b505050506040513d601f19601f8201168201806040525081019061039491906147d3565b90506103a28233848b610f86565b60006103d46103b9846001600160a01b0316611170565b8a426103ca368c90038c018c614855565b86939291906111d6565b919750909550905087861015610425576040517f9cdffc8e00000000000000000000000000000000000000000000000000000000815260048101879052602481018990526044015b60405180910390fd5b896001600160a01b0316635b709f1730836104438f8e8e8b8b61130e565b6040518463ffffffff1660e01b815260040161046193929190614915565b60408051808303816000875af115801561047f573d6000803e3d6000fd5b505050506040513d601f19601f820116820180604052508101906104a3919061493d565b50506001600160a01b03808c16908b16337fa4519acd6c251a3f533922c5aaf3fbae71546aad6c01f8241e23143519a67ac86104de8a61113d565b6104e78e611120565b6040805192835260208301919091520160405180910390a4505050509550959350505050565b600080600080866001600160a01b0316632c8ce6bc6040518163ffffffff1660e01b8152600401606060405180830381865afa158015610551573d6000803e3d6000fd5b505050506040513d601f19601f82011682018060405250810190610575919061470a565b6040516370a0823160e01b815233600482015292945092506000916001600160a01b03851691506370a0823190602401602060405180830381865afa1580156105c2573d6000803e3d6000fd5b505050506040513d601f19601f820116820180604052508101906105e69190614961565b9050876001600160a01b03166329910b118389610606338e8c8a8a611360565b6040518463ffffffff1660e01b815260040161062493929190614915565b60408051808303816000875af1158015610642573d6000803e3d6000fd5b505050506040513d601f19601f82011682018060405250810190610666919061493d565b6040516370a0823160e01b81523360048201529095506001600160a01b03851691506370a0823190602401602060405180830381865afa1580156106ae573d6000803e3d6000fd5b505050506040513d601f19601f820116820180604052508101906106d29190614961565b6106dc9082614990565b94506001600160a01b03808a16908916337f05499aba408f669fb848399c146fad5bd604d50b15566bdc19e81c40922fab8d6107178b61113d565b6107208a611120565b604080519283526020830191909152015b60405180910390a450505094509492505050565b600080600080876001600160a01b0316632c8ce6bc6040518163ffffffff1660e01b8152600401606060405180830381865afa158015610789573d6000803e3d6000fd5b505050506040513d601f19601f820116820180604052508101906107ad919061470a565b925050915060006107c1828460018961138a565b90506107d18a8a84848c8c611587565b90955093506107e360208701876149a3565b6001600160a01b0316896001600160a01b0316336001600160a01b03167fc372308269f6e4dd0b4f322160cf0edef154584a3ad62248d654ae846e3eb6e88d61082b8a61113d565b6108388c60200135611120565b604080516001600160a01b03909416845260208401929092529082015260600160405180910390a45050509550959350505050565b600080600080876001600160a01b0316632c8ce6bc6040518163ffffffff1660e01b8152600401606060405180830381865afa1580156108b1573d6000803e3d6000fd5b505050506040513d601f19601f820116820180604052508101906108d5919061470a565b60405163794052f360e01b81523060048201529194509250600091506001600160a01b038a169063794052f39060240161012060405180830381865afa158015610923573d6000803e3d6000fd5b505050506040513d601f19601f8201168201806040525081019061094791906147d3565b905061095583338b8b610f86565b600061098761096c846001600160a01b0316611170565b8a4261097d368c90038c018c614855565b86939291906116e4565b9197509095509050878610156109ba5760405163a59b8c3160e01b8152600481018790526024810189905260440161041c565b896001600160a01b03166329910b1184836109d78f8e8e8a6117db565b6040518463ffffffff1660e01b81526004016109f593929190614915565b60408051808303816000875af1158015610a13573d6000803e3d6000fd5b505050506040513d601f19601f82011682018060405250810190610a37919061493d565b50506001600160a01b03808c16908b16337fa4519acd6c251a3f533922c5aaf3fbae71546aad6c01f8241e23143519a67ac8610a728d611120565b6104e78b61113d565b600080600080866001600160a01b0316632c8ce6bc6040518163ffffffff1660e01b8152600401606060405180830381865afa158015610abf573d6000803e3d6000fd5b505050506040513d601f19601f82011682018060405250810190610ae3919061470a565b9250509150610af481338389610f86565b6000610b0e610b03848861181f565b8985858b6001610fa7565b94509050610b2089848389600061185d565b9450610b2f60208701876149a3565b6001600160a01b0316886001600160a01b0316336001600160a01b03167fc372308269f6e4dd0b4f322160cf0edef154584a3ad62248d654ae846e3eb6e88c610b778c611120565b610b808b61113d565b604080516001600160a01b039094168452602084019290925290820152606001610731565b60405163794052f360e01b8152306004820152600090819081906001600160a01b0388169063794052f39060240161012060405180830381865afa158015610bf1573d6000803e3d6000fd5b505050506040513d601f19601f82011682018060405250810190610c1591906147d3565b90506000876001600160a01b0316632c8ce6bc6040518163ffffffff1660e01b8152600401606060405180830381865afa158015610c57573d6000803e3d6000fd5b505050506040513d601f19601f82011682018060405250810190610c7b919061470a565b92505050610caf610c94826001600160a01b0316611170565b8842610ca5368a90038a018a614855565b8693929190611a42565b509094505085841115610cf8576040517f570cfb81000000000000000000000000000000000000000000000000000000008152600481018590526024810187905260440161041c565b610d0481338387610f86565b876001600160a01b0316635b709f178286610d208d8c87611b39565b6040518463ffffffff1660e01b8152600401610d3e93929190614915565b60408051808303816000875af1158015610d5c573d6000803e3d6000fd5b505050506040513d601f19601f82011682018060405250810190610d80919061493d565b9350506001600160a01b03808a16908916337f05499aba408f669fb848399c146fad5bd604d50b15566bdc19e81c40922fab8d610dbc88611120565b610dc58c61113d565b6040805192835260208301919091520160405180910390a450509550959350505050565b81356001816004811115610dff57610dff6149c0565b03610e1557610e1085858585611b7e565b610eb1565b6000816004811115610e2957610e296149c0565b03610e3a57610e1085858585611c73565b6002816004811115610e4e57610e4e6149c0565b03610e5f57610e1085858585611ec8565b6003816004811115610e7357610e736149c0565b03610e8457610e1085858585612130565b6004816004811115610e9857610e986149c0565b03610ea957610e1085858585612294565b610eb16149d6565b5050505050565b600080600080876001600160a01b0316632c8ce6bc6040518163ffffffff1660e01b8152600401606060405180830381865afa158015610efc573d6000803e3d6000fd5b505050506040513d601f19601f82011682018060405250810190610f20919061470a565b9250509150610f318233838a610f86565b610f3f8989838a8a8a611587565b90945092506001600160a01b03808a16908916337f05499aba408f669fb848399c146fad5bd604d50b15566bdc19e81c40922fab8d610f7d8861113d565b610dc58c611120565b8015610fa157610fa16001600160a01b0385168484846123a3565b50505050565b6040516370a0823160e01b81526001600160a01b03878116600483015260009182918291908816906370a0823190602401602060405180830381865afa158015610ff5573d6000803e3d6000fd5b505050506040513d601f19601f820116820180604052508101906110199190614961565b9050876001600160a01b0316635b709f1787876110378d898c611b39565b6040518463ffffffff1660e01b815260040161105593929190614915565b60408051808303816000875af1158015611073573d6000803e3d6000fd5b505050506040513d601f19601f82011682018060405250810190611097919061493d565b6040516370a0823160e01b81526001600160a01b038c81166004830152919450839250908916906370a0823190602401602060405180830381865afa1580156110e4573d6000803e3d6000fd5b505050506040513d601f19601f820116820180604052508101906111089190614961565b6111129190614990565b925050965096945050505050565b600061112b8261113d565b611137906000196149ec565b92915050565b60007f7fffffffffffffffffffffffffffffffffffffffffffffffffffffffffffffff82111561116c57600080fd5b5090565b6000816001600160a01b0316631d52edc46040518163ffffffff1660e01b81526004016020604051808303816000875af11580156111b2573d6000803e3d6000fd5b505050506040513d601f19601f820116820180604052508101906111379190614961565b60008080806111e6898988612454565b9050846040015160000361122c5784516112009088612587565b85526020850151895161121e919061121990849061259d565b612631565b602086015261122c85612640565b60005b85606001518110156112d057600061124787836126b5565b90506000806112588d868e8661273a565b509092509050600061126a8d8461276c565b90508b81116112aa57611282818d8c60800151612781565b156112a2576112918185614990565b985092965094506113039350505050565b838a526112bb565b6112b5600185614990565b60208b01525b50505050806112c990614a1c565b905061122f565b506040517ffa711db200000000000000000000000000000000000000000000000000000000815260040160405180910390fd5b955095509592505050565b6040805160c080825260e08201909252606091602082018180368337019050509050600060035b60208301525060408101959095526060850193909352608084019190915260a083015260c082015290565b6040805160c080825260e08201909252606091602082018180368337019050509050600080611335565b60008061139a60a0840184614a36565b6113a8906020810190614a83565b90506000808260038111156113bf576113bf6149c0565b036113ea576113df6113d460208601866149a3565b3386602001356127b4565b50602083013561156f565b60038260038111156113fe576113fe6149c0565b0361143d576114136113d460208601866149a3565b6113df61142360208601866149a3565b61143360608701604088016149a3565b86602001356128ae565b600061144c60208601866149a3565b6001600160a01b03160361146f5761146a60003386602001356127b4565b61149a565b61149a61147f60208601866149a3565b3361149060a08801608089016149a3565b8760200135610f86565b6114aa60a08501608086016149a3565b6001600160a01b0316632bdb823c60006114c760208801886149a3565b6001600160a01b0316146114dc5760006114e2565b85602001355b6114ef60208801886149a3565b602088013561150160a08a018a614a36565b6040518563ffffffff1660e01b815260040161151f93929190614ae2565b6000604051808303818588803b15801561153857600080fd5b505af115801561154c573d6000803e3d6000fd5b505050505061156c84604001602081019061156791906149a3565b61298d565b90505b61157c8787838888612a12565b979650505050505050565b60405163794052f360e01b8152306004820152600090819081906001600160a01b0389169063794052f39060240161012060405180830381865afa1580156115d3573d6000803e3d6000fd5b505050506040513d601f19601f820116820180604052508101906115f791906147d3565b905061162961160e886001600160a01b0316611170565b874261161f36899003890189614855565b8593929190612bc5565b509250848310156116575760405163a59b8c3160e01b8152600481018490526024810186905260440161041c565b876001600160a01b03166329910b1188856116738d8a8d612ccc565b6040518463ffffffff1660e01b815260040161169193929190614915565b60408051808303816000875af11580156116af573d6000803e3d6000fd5b505050506040513d601f19601f820116820180604052508101906116d3919061493d565b939a93995092975050505050505050565b60008080806116f4898988612454565b9050846040015160000361173157845161170e9088612587565b85526020850151611723906112198b84612cf7565b602086015261173185612640565b60005b85606001518110156112d057600061174c87836126b5565b905060008061175d8d868e86612d7b565b509092509050600061176f8d84612dac565b9050600061177d8286614990565b90508c81116117b457611795818e8d60800151612781565b156117ac5750975091955090935061130392505050565b848b526117c5565b6117bf600186614990565b60208c01525b5050505050806117d490614a1c565b9050611734565b6040805160a080825260c08201909252606091602082018180368337505060046020830152506040810195909552506060840192909252608083015260a082015290565b60008061183260808401606085016149a3565b6001600160a01b0316036118465782611856565b61185660808301606084016149a3565b9392505050565b60008061186d60a0850185614a36565b61187b906020810190614a83565b90506000816003811115611891576118916149c0565b036118aa576118a38787878787612db8565b91506119ed565b60038160038111156118be576118be6149c0565b03611914576118d03087878787612db8565b91506118f86118e560608601604087016149a3565b6118f260208701876149a3565b846128ae565b61190f61190860208601866149a3565b8884612f75565b6119ed565b600061193261192960a08701608088016149a3565b88888888612db8565b905061194460a08601608087016149a3565b6001600160a01b0316632bdb823c61196260608801604089016149a3565b8361197060a08a018a614a36565b6040518463ffffffff1660e01b815260040161198e93929190614ae2565b600060405180830381600087803b1580156119a857600080fd5b505af11580156119bc573d6000803e3d6000fd5b506119d2925061156791505060208701876149a3565b92506119eb6119e460208701876149a3565b8985612f75565b505b8360200135821015611a38576040517fc5b5576d000000000000000000000000000000000000000000000000000000008152600481018390526020850135602482015260440161041c565b5095945050505050565b6000808080611a52898988612454565b90508460400151600003611a8457611a768560200151611219838c6000015161259d565b6020860152611a8485612640565b60005b85606001518110156112d0576000611a9f87836126b5565b9050600080611ab08d868e8661273a565b5090925090506000611ac28d8461276c565b90506000611ada611ad38387614990565b8f90613047565b90508c8110611b1557611af2818e8d60800151613053565b15611b095793985092965094506113039350505050565b60208b01859052611b23565b611b20856001614bd1565b8b525b505050505080611b3290614a1c565b9050611a87565b60408051608080825260a08201909252606091602082018180368337019050509050600060025b60208301525060408101939093526060830191909152608082015290565b6020820135604083013560608401356000611b9888613081565b60405163db74aa1560e01b81523360048201526001600160a01b03868116602483015291925060009184169063db74aa15906044016020604051808303816000875af1158015611bec573d6000803e3d6000fd5b505050506040513d601f19601f82011682018060405250810190611c109190614961565b905081811015611c3d5760405163c217d4a960e01b8152600481018290526024810183905260440161041c565b83811015611c685760405163a59b8c3160e01b8152600481018290526024810185905260440161041c565b505050505050505050565b6040517f58e6309f0000000000000000000000000000000000000000000000000000000081523360048201819052907f00000000000000000000000000000000000000000000000000000000000000006001600160a01b0316906358e6309f90602401602060405180830381865afa158015611cf3573d6000803e3d6000fd5b505050506040513d601f19601f82011682018060405250810190611d179190614be4565b611d58576040517fc56704ad0000000000000000000000000000000000000000000000000000000081526001600160a01b038216600482015260240161041c565b602083013560408401356060850135608086013560a08701356000611d856001600160a01b038316611170565b90506000611d928c613081565b90506000611da08383613093565b90506000611dad8d61309f565b90506000611dbb83836130ae565b905087811115611e01576040517fe744f9c0000000000000000000000000000000000000000000000000000000008152600481018290526024810189905260440161041c565b8015611e1357611e13878b8884610f86565b60405163db74aa1560e01b81523360048201526001600160a01b038a811660248301526000919088169063db74aa15906044016020604051808303816000875af1158015611e65573d6000803e3d6000fd5b505050506040513d601f19601f82011682018060405250810190611e899190614961565b905084811015611eb65760405163c217d4a960e01b8152600481018290526024810186905260440161041c565b50505050505050505050505050505050565b6020820135604083013560608401356000611eeb6001600160a01b038316611170565b90506000611f00611efb896130c5565b61309f565b604080516002808252606082018352929350600092909160208301908036833750506040805160028082526060820183529394506000939092509060208301908036833701905050905033611f55858561276c565b83600081518110611f6857611f68614c01565b6020026020010183600081518110611f8257611f82614c01565b6020026020010182815250826001600160a01b03166001600160a01b031681525050508681600081518110611fb957611fb9614c01565b6020026020010151611fca8d61309f565b611fd49190614990565b83600181518110611fe757611fe7614c01565b602002602001018360018151811061200157612001614c01565b60209081029190910101919091526001600160a01b0391821690526040517fb0d8898100000000000000000000000000000000000000000000000000000000815260009187169063b0d889819061205e9086908690600401614c17565b6000604051808303816000875af115801561207d573d6000803e3d6000fd5b505050506040513d6000823e601f3d908101601f191682016040526120a59190810190614c9b565b905086816001815181106120bb576120bb614c01565b6020026020010151101561212257806001815181106120dc576120dc614c01565b6020026020010151876040517f0a4439e600000000000000000000000000000000000000000000000000000000815260040161041c929190918252602082015260400190565b505050505050505050505050565b602082013560408301356060840135608085013560a0860135600061215489613081565b9050612161838387612f75565b6040517fbcb7ea5d0000000000000000000000000000000000000000000000000000000081523360048201526000906001600160a01b0384169063bcb7ea5d906024016020604051808303816000875af11580156121c3573d6000803e3d6000fd5b505050506040513d601f19601f820116820180604052508101906121e79190614961565b90508181101561222d576040517f21586e78000000000000000000000000000000000000000000000000000000008152600481018290526024810183905260440161041c565b6000866122398d61309f565b6122439190614990565b905085811015612289576040517f9cdffc8e000000000000000000000000000000000000000000000000000000008152600481018290526024810187905260440161041c565b612122858983612f75565b602082013560408301356060840135608085013560006122b389613081565b60405163db74aa1560e01b81523360048201526001600160a01b03878116602483015291925060009184169063db74aa15906044016020604051808303816000875af1158015612307573d6000803e3d6000fd5b505050506040513d601f19601f8201168201806040525081019061232b9190614961565b9050838110156123585760405163a59b8c3160e01b8152600481018290526024810185905260440161041c565b816123638287614bd1565b1015612397576123738186614bd1565b60405163c217d4a960e01b815260048101919091526024810183905260440161041c565b50505050505050505050565b6040516001600160a01b0380851660248301528316604482015260648101829052610fa19085907f23b872dd00000000000000000000000000000000000000000000000000000000906084015b60408051601f198184030181529190526020810180517bffffffffffffffffffffffffffffffffffffffffffffffffffffffff167fffffffff00000000000000000000000000000000000000000000000000000000909316929092179091526130d3565b61247f6040518060800160405280600081526020016000815260200160008152602001600081525090565b60a084015182106124bc576040517fb2094b5900000000000000000000000000000000000000000000000000000000815260040160405180910390fd5b6000828560a001516124ce9190614990565b90506124da85826131bb565b825260208501516124ec908590613235565b60208301528451158061250157506020820151155b1561254857845160208301516040517fb1c4aefb0000000000000000000000000000000000000000000000000000000081526004810192909252602482015260440161041c565b6125668560000151866101000151846020015185600001518561326c565b604083015260c085015161257a90826132ed565b6060830152509392505050565b60008183116125965781611856565b5090919050565b6000806125ca6125c58560000151866040015187606001516125bf9190614d41565b90613321565b613344565b905060006125ea6125e3670de0b6b3a764000084614d68565b839061385b565b905060006126088660200151866126019190614d68565b8390613321565b905060006126168287614d41565b90506103e8612627826103e7614d90565b61157c9190614dbd565b60008183106125965781611856565b60208101518151118061265e5750670de0b6b3a76400008160800151115b156126b2578051602082015160808301516040517fb301af0400000000000000000000000000000000000000000000000000000000815260048101939093526024830191909152604482015260640161041c565b50565b6000811580156126c85750604083015115155b156126d857506040820151611137565b602083015183511161270857602083015183516002916126f791614bd1565b6127019190614dbd565b9050611137565b6040517ffa711db200000000000000000000000000000000000000000000000000000000815260040160405180910390fd5b6000808080808061274d8a8a8a8a613881565b9250925092508261275d90614dd1565b9a919950975095505050505050565b60008261277981846139d5565b949350505050565b600082841115801561277957506127a9836127a484670de0b6b3a7640000614990565b613a0b565b841015949350505050565b6001600160a01b038316612816578034146128115760405162461bcd60e51b815260206004820152600c60248201527f657468206d69736d617463680000000000000000000000000000000000000000604482015260640161041c565b505050565b8015612811576040517f23b872dd0000000000000000000000000000000000000000000000000000000081526001600160a01b038381166004830152306024830152604482018390528416906323b872dd906064016020604051808303816000875af115801561288a573d6000803e3d6000fd5b505050506040513d601f19601f82011682018060405250810190610fa19190614be4565b6001600160a01b03831661291557816001600160a01b031663d0e30db0826040518263ffffffff1660e01b81526004016000604051808303818588803b1580156128f757600080fd5b505af115801561290b573d6000803e3d6000fd5b5050505050505050565b6040517f2e1a7d4d000000000000000000000000000000000000000000000000000000008152600481018290526001600160a01b03841690632e1a7d4d90602401600060405180830381600087803b15801561297057600080fd5b505af1158015612984573d6000803e3d6000fd5b50505050505050565b60006001600160a01b03821615612a0b576040516370a0823160e01b81523060048201526001600160a01b038316906370a0823190602401602060405180830381865afa1580156129e2573d6000803e3d6000fd5b505050506040513d601f19601f82011682018060405250810190612a069190614961565b611137565b4792915050565b60008080612a2660608501604086016149a3565b6001600160a01b031614612a3b576000612a3d565b845b90506000612a5160808501606086016149a3565b6001600160a01b031614612b0d57612a6f60808401606085016149a3565b6040517fb27670700000000000000000000000000000000000000000000000000000000081526001600160a01b0389811660048301526024820188905260448201879052919091169063b276707090839060640160206040518083038185885af1158015612ae1573d6000803e3d6000fd5b50505050506040513d601f19601f82011682018060405250810190612b069190614961565b9150611a38565b6001600160a01b0386166320e8c5658289612b2e60608801604089016149a3565b6040517fffffffff0000000000000000000000000000000000000000000000000000000060e086901b1681526001600160a01b03928316600482015291166024820152604481018990526064810188905260840160206040518083038185885af1158015612ba0573d6000803e3d6000fd5b50505050506040513d601f19601f8201168201806040525081019061157c9190614961565b60008080612bd4888887612454565b90508360400151600003612c1a578351612bf790612bf28989612dac565b612587565b84526020840151612c0c906112198a84612cf7565b6020850152612c1a84612640565b60005b84606001518110156112d0576000612c3586836126b5565b9050600080612c468c868d86612d7b565b5090925090506000612c588c85613093565b90506000612c668483614990565b90508b8111612c9b57612c7e818d8c60800151612781565b15612c9357509296509450612cc29350505050565b848a52612cac565b612ca6600186614990565b60208b01525b505050505080612cbb90614a1c565b9050612c1d565b9550959350505050565b60408051608080825260a0820190925260609160208201818036833701905050905060006001611b60565b60008060009050600060018460200151612d119190614990565b90505b808214612d735760006002612d298385614bd1565b612d34906001614bd1565b612d3e9190614dbd565b90506000612d5186886000015184613a2b565b1215612d6957612d62600182614990565b9150612d6d565b8092505b50612d14565b509392505050565b60008080808080612d998989612d908a614dd1565b8d929190613881565b919c909b50909950975050505050505050565b60006118568383613b28565b60008115612dd557612dd58533612dcf888761181f565b87610f86565b6000612de760808501606086016149a3565b6001600160a01b031614612ea857612e0560808401606085016149a3565b6040517f83f5b7660000000000000000000000000000000000000000000000000000000081526001600160a01b03888116600483015260248201879052600060448301526001606483015291909116906383f5b766906084016020604051808303816000875af1158015612e7d573d6000803e3d6000fd5b505050506040513d601f19601f82011682018060405250810190612ea19190614961565b9050612f6c565b6001600160a01b03851663769f8e5d8786612ec960608801604089016149a3565b60405160e085901b7fffffffff000000000000000000000000000000000000000000000000000000001681526001600160a01b03938416600482015260248101929092529091166044820152600060648201526001608482015260a4016020604051808303816000875af1158015612f45573d6000803e3d6000fd5b505050506040513d601f19601f82011682018060405250810190612f699190614961565b90505b95945050505050565b80600003612f8257505050565b6001600160a01b038316613033576000826001600160a01b03168260405160006040518083038185875af1925050503d8060008114612fdd576040519150601f19603f3d011682016040523d82523d6000602084013e612fe2565b606091505b5050905080610fa15760405162461bcd60e51b815260206004820152600f60248201527f6574682073656e64206661696c65640000000000000000000000000000000000604482015260640161041c565b6128116001600160a01b0384168383613b3d565b60006118568383613b86565b60008284101580156127795750613076836127a484670de0b6b3a7640000614bd1565b909311159392505050565b600080821361116c57612a0682614dd1565b60006118568383613b9b565b60008082121561116c57600080fd5b6000818310156130bf576000611856565b50900390565b6000611137826000196149ec565b6000613128826040518060400160405280602081526020017f5361666545524332303a206c6f772d6c6576656c2063616c6c206661696c6564815250856001600160a01b0316613bb39092919063ffffffff16565b90508051600014806131495750808060200190518101906131499190614be4565b6128115760405162461bcd60e51b815260206004820152602a60248201527f5361666545524332303a204552433230206f7065726174696f6e20646964206e60448201527f6f74207375636365656400000000000000000000000000000000000000000000606482015260840161041c565b60006131c68261113d565b6131dd6131d86201518061016d614d90565b61113d565b84608001516131ec91906149ec565b6131f69190614ded565b905060008113611137576040517f1ca418760000000000000000000000000000000000000000000000000000000081526004810182905260240161041c565b6000806000831261324757600161324b565b6000195b90506132626131d88561325d86613081565b613b28565b61277990826149ec565b60008061327986846132ed565b9050670de0b6b3a76400008112156132a75760405163329e322960e21b81526004810182905260240161041c565b60006132bd6132b6878a614d68565b899061385b565b905060006132ca82613bc2565b90506132d6818761385b565b6132e09084614d41565b9998505050505050505050565b6000806132ff6201518061016d614d90565b6133098486614d90565b6133139190614dbd565b90506127796125c58261113d565b60008061332e83856149ec565b9050670de0b6b3a7640000815b05949350505050565b60007ffffffffffffffffffffffffffffffffffffffffffffffffdc702bd3a30fc0000821215801561337f575068070c1cc73b00c800008213155b6133cb5760405162461bcd60e51b815260206004820152601060248201527f496e76616c6964206578706f6e656e7400000000000000000000000000000000604482015260640161041c565b6000821215613404576133e082600003613344565b6ec097ce7bc90715b34b9f1000000000816133fd576133fd614da7565b0592915050565b60006806f05b59d3b2000000831261345a57507ffffffffffffffffffffffffffffffffffffffffffffffff90fa4a62c4e00000090910190770195e54c5dd42177f53a27172fa9ec6302628270000000006134a6565b6803782dace9d900000083126134a257507ffffffffffffffffffffffffffffffffffffffffffffffffc87d2531627000000909101906b1425982cf597cd205cef73806134a6565b5060015b6064929092029168056bc75e2d6310000068ad78ebc5ac62000000841261350c577fffffffffffffffffffffffffffffffffffffffffffffff5287143a539e0000009093019268056bc75e2d631000006e01855144814a7ff805980ff008400082020590505b6856bc75e2d631000000841261355e577fffffffffffffffffffffffffffffffffffffffffffffffa9438a1d29cf0000009093019268056bc75e2d631000006b02df0ab5a80a22c61ab5a70082020590505b682b5e3af16b1880000084126135ae577fffffffffffffffffffffffffffffffffffffffffffffffd4a1c50e94e78000009093019268056bc75e2d63100000693f1fce3da636ea5cf85082020590505b6815af1d78b58c40000084126135fe577fffffffffffffffffffffffffffffffffffffffffffffffea50e2874a73c000009093019268056bc75e2d63100000690127fa27722cc06cc5e282020590505b680ad78ebc5ac6200000841261364d577ffffffffffffffffffffffffffffffffffffffffffffffff5287143a539e000009093019268056bc75e2d6310000068280e60114edb805d0382020590505b68056bc75e2d63100000841261369c577ffffffffffffffffffffffffffffffffffffffffffffffffa9438a1d29cf000009093019268056bc75e2d63100000680ebc5fb4174612111082020590505b6802b5e3af16b188000084126136eb577ffffffffffffffffffffffffffffffffffffffffffffffffd4a1c50e94e7800009093019268056bc75e2d631000006808f00f760a4b2db55d82020590505b68015af1d78b58c40000841261373a577ffffffffffffffffffffffffffffffffffffffffffffffffea50e2874a73c00009093019268056bc75e2d631000006806f5f177578893793782020590505b68056bc75e2d631000008481019085906002908280020505918201919050600368056bc75e2d631000008783020505918201919050600468056bc75e2d631000008783020505918201919050600568056bc75e2d631000008783020505918201919050600668056bc75e2d631000008783020505918201919050600768056bc75e2d631000008783020505918201919050600868056bc75e2d631000008783020505918201919050600968056bc75e2d631000008783020505918201919050600a68056bc75e2d631000008783020505918201919050600b68056bc75e2d631000008783020505918201919050600c68056bc75e2d631000008783020505918201919050606468056bc75e2d63100000848402058502059695505050505050565b600080613870670de0b6b3a7640000856149ec565b905082818161333b5761333b614da7565b6000806000806138a48860000151886020015189600001518a6040015189613c2e565b905060006138ba6138b5878461385b565b6130c5565b606089015190915060008713156139295760006138d7848361385b565b9050670de0b6b3a76400008112156139055760405163329e322960e21b81526004810182905260240161041c565b61392161391a83670de0b6b3a7640000614d41565b8490613321565b915050613956565b6139538161393f81670de0b6b3a7640000614d41565b61394990856149ec565b6138b59190614ded565b90505b600060646139678c60e0015161113d565b61397190846149ec565b61397b9190614ded565b905060006139898385614d41565b9050600081126139a25761399d8a82613cfd565b6139ac565b6139ac8a82613d2a565b97506139b88a84613cfd565b96506139c48a83613cfd565b955050505050509450945094915050565b6000670de0b6b3a76400006001816139ed8686614d90565b6139f79190614bd1565b613a019190614990565b6118569190614dbd565b600080613a188385614d90565b670de0b6b3a76400009004949350505050565b600080828560200151613a3e9190614d41565b90506000613a4c8585614d68565b9050600082138015613a5e5750600081135b613aaa5760405162461bcd60e51b815260206004820152601260248201527f696e76616c6964207074546f4d61726b65740000000000000000000000000000604482015260640161041c565b6000613ad8613ab984846149ec565b6020890151613ac89089614d68565b613ad290886149ec565b9061385b565b90506000613aee613ae9848661385b565b613d57565b8851909150600090613b0990670de0b6b3a76400009061385b565b9050613b19816125bf8486614d41565b89604001516132e09190614d41565b6000670de0b6b3a7640000613a018484614d90565b6040516001600160a01b0383166024820152604481018290526128119084907fa9059cbb00000000000000000000000000000000000000000000000000000000906064016123f0565b600082613a01670de0b6b3a764000084614d90565b6000826001816139ed670de0b6b3a764000086614d90565b60606127798484600085613df8565b6000670de0b6b3a76400008203613c05576040517fa9c8b14d00000000000000000000000000000000000000000000000000000000815260040160405180910390fd5b6000613c23613c1c84670de0b6b3a7640000614d41565b849061385b565b905061185681613d57565b600080613c3b8784613edf565b90506000613c4c6125e3888a614d68565b9050670d529ae9e8600000811315613ca1576040517ffc68d09e00000000000000000000000000000000000000000000000000000000815260048101829052670d529ae9e8600000602482015260440161041c565b6000613cac82613bc2565b905085613cb9828961385b565b613cc39190614d68565b9350670de0b6b3a7640000841215613cf15760405163329e322960e21b81526004810185905260240161041c565b50505095945050505050565b60008060008312613d0f576001613d13565b6000195b90506132626131d885613d2586613081565b613b86565b60008060008312613d3c576001613d40565b6000195b90506132626131d885613d5286613081565b613b9b565b6000808213613da85760405162461bcd60e51b815260206004820152600d60248201527f6f7574206f6620626f756e647300000000000000000000000000000000000000604482015260640161041c565b670c7d713b49da000082138015613dc65750670f43fc2c04ee000082125b15613dea57670de0b6b3a7640000613ddd83613f3b565b816133fd576133fd614da7565b61113782614073565b919050565b606082471015613e705760405162461bcd60e51b815260206004820152602660248201527f416464726573733a20696e73756666696369656e742062616c616e636520666f60448201527f722063616c6c0000000000000000000000000000000000000000000000000000606482015260840161041c565b600080866001600160a01b03168587604051613e8c9190614e1b565b60006040518083038185875af1925050503d8060008114613ec9576040519150601f19603f3d011682016040523d82523d6000602084013e613ece565b606091505b509150915061157c8783838761441e565b600081831215613f315760405162461bcd60e51b815260206004820152600860248201527f6e65676174697665000000000000000000000000000000000000000000000000604482015260640161041c565b6118568284614d41565b670de0b6b3a7640000026000806ec097ce7bc90715b34b9f1000000000808401907fffffffffffffffffffffffffffffffffff3f68318436f8ea4cb460f00000000085010281613f8d57613f8d614da7565b05905060006ec097ce7bc90715b34b9f100000000082800205905081806ec097ce7bc90715b34b9f100000000081840205915060038205016ec097ce7bc90715b34b9f100000000082840205915060058205016ec097ce7bc90715b34b9f100000000082840205915060078205016ec097ce7bc90715b34b9f100000000082840205915060098205016ec097ce7bc90715b34b9f1000000000828402059150600b8205016ec097ce7bc90715b34b9f1000000000828402059150600d8205016ec097ce7bc90715b34b9f1000000000828402059150600f82050160020295945050505050565b6000670de0b6b3a76400008212156140b5576140ac826ec097ce7bc90715b34b9f1000000000816140a6576140a6614da7565b05614073565b60000392915050565b60007e1600ef3172e58d2e933ec884fde10064c63b5372d805e203c0000000000000831261410657770195e54c5dd42177f53a27172fa9ec630262827000000000830592506806f05b59d3b2000000015b73011798004d755d3c8bc8e03204cf44619e000000831261413e576b1425982cf597cd205cef7380830592506803782dace9d9000000015b606492830292026e01855144814a7ff805980ff00840008312614186576e01855144814a7ff805980ff008400068056bc75e2d63100000840205925068ad78ebc5ac62000000015b6b02df0ab5a80a22c61ab5a70083126141c1576b02df0ab5a80a22c61ab5a70068056bc75e2d6310000084020592506856bc75e2d631000000015b693f1fce3da636ea5cf85083126141f857693f1fce3da636ea5cf85068056bc75e2d631000008402059250682b5e3af16b18800000015b690127fa27722cc06cc5e2831261422f57690127fa27722cc06cc5e268056bc75e2d6310000084020592506815af1d78b58c400000015b68280e60114edb805d0383126142645768280e60114edb805d0368056bc75e2d631000008402059250680ad78ebc5ac6200000015b680ebc5fb41746121110831261428f57680ebc5fb4174612111068056bc75e2d631000009384020592015b6808f00f760a4b2db55d83126142c4576808f00f760a4b2db55d68056bc75e2d6310000084020592506802b5e3af16b1880000015b6806f5f177578893793783126142f9576806f5f177578893793768056bc75e2d63100000840205925068015af1d78b58c40000015b6806248f33704b286603831261432d576806248f33704b28660368056bc75e2d63100000840205925067ad78ebc5ac620000015b6805c548670b9510e7ac8312614361576805c548670b9510e7ac68056bc75e2d6310000084020592506756bc75e2d6310000015b600068056bc75e2d63100000840168056bc75e2d63100000808603028161438a5761438a614da7565b059050600068056bc75e2d63100000828002059050818068056bc75e2d63100000818402059150600382050168056bc75e2d63100000828402059150600582050168056bc75e2d63100000828402059150600782050168056bc75e2d63100000828402059150600982050168056bc75e2d63100000828402059150600b820501600202606485820105979650505050505050565b6060831561448d578251600003614486576001600160a01b0385163b6144865760405162461bcd60e51b815260206004820152601d60248201527f416464726573733a2063616c6c20746f206e6f6e2d636f6e7472616374000000604482015260640161041c565b5081612779565b61277983838151156144a25781518083602001fd5b8060405162461bcd60e51b815260040161041c9190614e2d565b6001600160a01b03811681146126b257600080fd5b600080600080608085870312156144e757600080fd5b84356144f2816144bc565b93506020850135614502816144bc565b93969395505050506040820135916060013590565b600060a0828403121561452957600080fd5b50919050565b6000806000806000610120868803121561454857600080fd5b8535614553816144bc565b94506020860135614563816144bc565b935060408601359250606086013591506145808760808801614517565b90509295509295909350565b600060c0828403121561452957600080fd5b600080600080600061012086880312156145b757600080fd5b85356145c2816144bc565b945060208601356145d2816144bc565b9350604086013592506145e88760608801614517565b915061010086013567ffffffffffffffff81111561460557600080fd5b6146118882890161458c565b9150509295509295909350565b6000806000806080858703121561463457600080fd5b843561463f816144bc565b9350602085013561464f816144bc565b925060408501359150606085013567ffffffffffffffff81111561467257600080fd5b61467e8782880161458c565b91505092959194509250565b600080600080606085870312156146a057600080fd5b8435935060208501359250604085013567ffffffffffffffff808211156146c657600080fd5b818701915087601f8301126146da57600080fd5b8135818111156146e957600080fd5b8860208285010111156146fb57600080fd5b95989497505060200194505050565b60008060006060848603121561471f57600080fd5b835161472a816144bc565b602085015190935061473b816144bc565b604085015190925061474c816144bc565b809150509250925092565b634e487b7160e01b600052604160045260246000fd5b604051610120810167ffffffffffffffff8111828210171561479157614791614757565b60405290565b604051601f8201601f1916810167ffffffffffffffff811182821017156147c0576147c0614757565b604052919050565b8051613df3816144bc565b600061012082840312156147e657600080fd5b6147ee61476d565b825181526020830151602082015260408301516040820152614812606084016147c8565b60608201526080830151608082015260a083015160a082015260c083015160c082015260e083015160e08201526101008084015181830152508091505092915050565b600060a0828403121561486757600080fd5b60405160a0810181811067ffffffffffffffff8211171561488a5761488a614757565b806040525082358152602083013560208201526040830135604082015260608301356060820152608083013560808201528091505092915050565b60005b838110156148e05781810151838201526020016148c8565b50506000910152565b600081518084526149018160208601602086016148c5565b601f01601f19169290920160200192915050565b6001600160a01b0384168152826020820152606060408201526000612f6c60608301846148e9565b6000806040838503121561495057600080fd5b505080516020909101519092909150565b60006020828403121561497357600080fd5b5051919050565b634e487b7160e01b600052601160045260246000fd5b818103818111156111375761113761497a565b6000602082840312156149b557600080fd5b8135611856816144bc565b634e487b7160e01b600052602160045260246000fd5b634e487b7160e01b600052600160045260246000fd5b80820260008212600160ff1b84141615614a0857614a0861497a565b81810583148215176111375761113761497a565b60006000198203614a2f57614a2f61497a565b5060010190565b600082357fffffffffffffffffffffffffffffffffffffffffffffffffffffffffffffff81833603018112614a6a57600080fd5b9190910192915050565b803560048110613df357600080fd5b600060208284031215614a9557600080fd5b61185682614a74565b818352818160208501375060006020828401015260006020601f19601f840116840101905092915050565b80151581146126b257600080fd5b8035613df381614ac9565b60006001600160a01b03808616835284602084015260606040840152614b0784614a74565b60048110614b2557634e487b7160e01b600052602160045260246000fd5b60608401526020840135614b38816144bc565b1660808301526040830135368490037fffffffffffffffffffffffffffffffffffffffffffffffffffffffffffffffe1018112614b7457600080fd5b830160208101903567ffffffffffffffff811115614b9157600080fd5b803603821315614ba057600080fd5b608060a0850152614bb560e085018284614a9e565b915050614bc460608501614ad7565b80151560c0850152611a38565b808201808211156111375761113761497a565b600060208284031215614bf657600080fd5b815161185681614ac9565b634e487b7160e01b600052603260045260246000fd5b604080825283519082018190526000906020906060840190828701845b82811015614c595781516001600160a01b031684529284019290840190600101614c34565b5050508381038285015284518082528583019183019060005b81811015614c8e57835183529284019291840191600101614c72565b5090979650505050505050565b60006020808385031215614cae57600080fd5b825167ffffffffffffffff80821115614cc657600080fd5b818501915085601f830112614cda57600080fd5b815181811115614cec57614cec614757565b8060051b9150614cfd848301614797565b8181529183018401918481019088841115614d1757600080fd5b938501935b83851015614d3557845182529385019390850190614d1c565b98975050505050505050565b8181036000831280158383131683831282161715614d6157614d6161497a565b5092915050565b8082018281126000831280158216821582161715614d8857614d8861497a565b505092915050565b80820281158282048414176111375761113761497a565b634e487b7160e01b600052601260045260246000fd5b600082614dcc57614dcc614da7565b500490565b6000600160ff1b8203614de657614de661497a565b5060000390565b600082614dfc57614dfc614da7565b6000198314600160ff1b83141615614e1657614e1661497a565b500590565b60008251614a6a8184602087016148c5565b60208152600061185660208301846148e956fea2646970667358221220ce42e86018096ba1fcce0650e559631b6839f90e8b45758bc9aa9ef0c2dff34964736f6c63430008110033",
  "linkReferences": {},
  "deployedLinkReferences": {}
}