{
  "_format": "hh-sol-artifact-1",
  "contractName": "ActionSwapYT",
  "sourceName": "contracts/router/ActionSwapYT.sol",
  "abi": [
    {
      "inputs": [
        {
          "internalType": "contract IAddressProvider",
          "name": "provider",
          "type": "address"
        },
        {
          "internalType": "uint256",
          "name": "providerId",
          "type": "uint256"
        }
      ],
      "stateMutability": "nonpayable",
      "type": "constructor"
    },
    {
      "inputs": [],
      "name": "ApproxFail",
      "type": "error"
    },
    {
      "inputs": [
        {
          "internalType": "uint256",
          "name": "guessMin",
          "type": "uint256"
        },
        {
          "internalType": "uint256",
          "name": "guessMax",
          "type": "uint256"
        },
        {
          "internalType": "uint256",
          "name": "eps",
          "type": "uint256"
        }
      ],
      "name": "ApproxParamsInvalid",
      "type": "error"
    },
    {
      "inputs": [
        {
          "internalType": "int256",
          "name": "exchangeRate",
          "type": "int256"
        }
      ],
      "name": "MarketExchangeRateBelowOne",
      "type": "error"
    },
    {
      "inputs": [],
      "name": "MarketExpired",
      "type": "error"
    },
    {
      "inputs": [],
      "name": "MarketProportionMustNotEqualOne",
      "type": "error"
    },
    {
      "inputs": [
        {
          "internalType": "int256",
          "name": "proportion",
          "type": "int256"
        },
        {
          "internalType": "int256",
          "name": "maxProportion",
          "type": "int256"
        }
      ],
      "name": "MarketProportionTooHigh",
      "type": "error"
    },
    {
      "inputs": [
        {
          "internalType": "int256",
          "name": "rateScalar",
          "type": "int256"
        }
      ],
      "name": "MarketRateScalarBelowZero",
      "type": "error"
    },
    {
      "inputs": [
        {
          "internalType": "int256",
          "name": "totalPt",
          "type": "int256"
        },
        {
          "internalType": "int256",
          "name": "totalAsset",
          "type": "int256"
        }
      ],
      "name": "MarketZeroTotalPtOrTotalAsset",
      "type": "error"
    },
    {
      "inputs": [
        {
          "internalType": "address",
          "name": "caller",
          "type": "address"
        }
      ],
      "name": "RouterCallbackNotEuphratesMarket",
      "type": "error"
    },
    {
      "inputs": [
        {
          "internalType": "uint256",
          "name": "actualSyIn",
          "type": "uint256"
        },
        {
          "internalType": "uint256",
          "name": "limitSyIn",
          "type": "uint256"
        }
      ],
      "name": "RouterExceededLimitSyIn",
      "type": "error"
    },
    {
      "inputs": [
        {
          "internalType": "uint256",
          "name": "actualYtIn",
          "type": "uint256"
        },
        {
          "internalType": "uint256",
          "name": "limitYtIn",
          "type": "uint256"
        }
      ],
      "name": "RouterExceededLimitYtIn",
      "type": "error"
    },
    {
      "inputs": [
        {
          "internalType": "uint256",
          "name": "actualPtOut",
          "type": "uint256"
        },
        {
          "internalType": "uint256",
          "name": "requiredPtOut",
          "type": "uint256"
        }
      ],
      "name": "RouterInsufficientPtOut",
      "type": "error"
    },
    {
      "inputs": [
        {
          "internalType": "uint256",
          "name": "actualPtRepay",
          "type": "uint256"
        },
        {
          "internalType": "uint256",
          "name": "requiredPtRepay",
          "type": "uint256"
        }
      ],
      "name": "RouterInsufficientPtRepay",
      "type": "error"
    },
    {
      "inputs": [
        {
          "internalType": "uint256",
          "name": "actualSyOut",
          "type": "uint256"
        },
        {
          "internalType": "uint256",
          "name": "requiredSyOut",
          "type": "uint256"
        }
      ],
      "name": "RouterInsufficientSyOut",
      "type": "error"
    },
    {
      "inputs": [
        {
          "internalType": "uint256",
          "name": "actualSyRepay",
          "type": "uint256"
        },
        {
          "internalType": "uint256",
          "name": "requiredSyRepay",
          "type": "uint256"
        }
      ],
      "name": "RouterInsufficientSyRepay",
      "type": "error"
    },
    {
      "inputs": [
        {
          "internalType": "uint256",
          "name": "actualTokenOut",
          "type": "uint256"
        },
        {
          "internalType": "uint256",
          "name": "requiredTokenOut",
          "type": "uint256"
        }
      ],
      "name": "RouterInsufficientTokenOut",
      "type": "error"
    },
    {
      "inputs": [
        {
          "internalType": "uint256",
          "name": "actualYtOut",
          "type": "uint256"
        },
        {
          "internalType": "uint256",
          "name": "requiredYtOut",
          "type": "uint256"
        }
      ],
      "name": "RouterInsufficientYtOut",
      "type": "error"
    },
    {
      "anonymous": false,
      "inputs": [
        {
          "indexed": true,
          "internalType": "address",
          "name": "caller",
          "type": "address"
        },
        {
          "indexed": true,
          "internalType": "address",
          "name": "market",
          "type": "address"
        },
        {
          "indexed": true,
          "internalType": "address",
          "name": "receiver",
          "type": "address"
        },
        {
          "indexed": false,
          "internalType": "int256",
          "name": "netPtToAccount",
          "type": "int256"
        },
        {
          "indexed": false,
          "internalType": "int256",
          "name": "netYtToAccount",
          "type": "int256"
        }
      ],
      "name": "SwapPtAndYt",
      "type": "event"
    },
    {
      "anonymous": false,
      "inputs": [
        {
          "indexed": true,
          "internalType": "address",
          "name": "caller",
          "type": "address"
        },
        {
          "indexed": true,
          "internalType": "address",
          "name": "market",
          "type": "address"
        },
        {
          "indexed": true,
          "internalType": "address",
          "name": "receiver",
          "type": "address"
        },
        {
          "indexed": false,
          "internalType": "int256",
          "name": "netYtToAccount",
          "type": "int256"
        },
        {
          "indexed": false,
          "internalType": "int256",
          "name": "netSyToAccount",
          "type": "int256"
        }
      ],
      "name": "SwapYtAndSy",
      "type": "event"
    },
    {
      "anonymous": false,
      "inputs": [
        {
          "indexed": true,
          "internalType": "address",
          "name": "caller",
          "type": "address"
        },
        {
          "indexed": true,
          "internalType": "address",
          "name": "market",
          "type": "address"
        },
        {
          "indexed": true,
          "internalType": "address",
          "name": "token",
          "type": "address"
        },
        {
          "indexed": false,
          "internalType": "address",
          "name": "receiver",
          "type": "address"
        },
        {
          "indexed": false,
          "internalType": "int256",
          "name": "netYtToAccount",
          "type": "int256"
        },
        {
          "indexed": false,
          "internalType": "int256",
          "name": "netTokenToAccount",
          "type": "int256"
        }
      ],
      "name": "SwapYtAndToken",
      "type": "event"
    },
    {
      "inputs": [
        {
          "internalType": "int256",
          "name": "ptToAccount",
          "type": "int256"
        },
        {
          "internalType": "int256",
          "name": "syToAccount",
          "type": "int256"
        },
        {
          "internalType": "bytes",
          "name": "data",
          "type": "bytes"
        }
      ],
      "name": "swapCallback",
      "outputs": [],
      "stateMutability": "nonpayable",
      "type": "function"
    },
    {
      "inputs": [
        {
          "internalType": "address",
          "name": "receiver",
          "type": "address"
        },
        {
          "internalType": "address",
          "name": "market",
          "type": "address"
        },
        {
          "internalType": "uint256",
          "name": "exactPtIn",
          "type": "uint256"
        },
        {
          "internalType": "uint256",
          "name": "minYtOut",
          "type": "uint256"
        },
        {
          "components": [
            {
              "internalType": "uint256",
              "name": "guessMin",
              "type": "uint256"
            },
            {
              "internalType": "uint256",
              "name": "guessMax",
              "type": "uint256"
            },
            {
              "internalType": "uint256",
              "name": "guessOffchain",
              "type": "uint256"
            },
            {
              "internalType": "uint256",
              "name": "maxIteration",
              "type": "uint256"
            },
            {
              "internalType": "uint256",
              "name": "eps",
              "type": "uint256"
            }
          ],
          "internalType": "struct ApproxParams",
          "name": "guessTotalPtToSwap",
          "type": "tuple"
        },
        {
          "components": [
            {
              "internalType": "uint256",
              "name": "guessMin",
              "type": "uint256"
            },
            {
              "internalType": "uint256",
              "name": "guessMax",
              "type": "uint256"
            },
            {
              "internalType": "uint256",
              "name": "guessOffchain",
              "type": "uint256"
            },
            {
              "internalType": "uint256",
              "name": "maxIteration",
              "type": "uint256"
            },
            {
              "internalType": "uint256",
              "name": "eps",
              "type": "uint256"
            }
          ],
          "internalType": "struct ApproxParams",
          "name": "guessNewImpliedRate",
          "type": "tuple"
        }
      ],
      "name": "swapExactPtForYt",
      "outputs": [
        {
          "internalType": "uint256",
          "name": "netYtOut",
          "type": "uint256"
        },
        {
          "internalType": "uint256",
          "name": "netSyFee",
          "type": "uint256"
        }
      ],
      "stateMutability": "nonpayable",
      "type": "function"
    },
    {
      "inputs": [
        {
          "internalType": "address",
          "name": "receiver",
          "type": "address"
        },
        {
          "internalType": "address",
          "name": "market",
          "type": "address"
        },
        {
          "internalType": "uint256",
          "name": "exactSyIn",
          "type": "uint256"
        },
        {
          "internalType": "uint256",
          "name": "minYtOut",
          "type": "uint256"
        },
        {
          "components": [
            {
              "internalType": "uint256",
              "name": "guessMin",
              "type": "uint256"
            },
            {
              "internalType": "uint256",
              "name": "guessMax",
              "type": "uint256"
            },
            {
              "internalType": "uint256",
              "name": "guessOffchain",
              "type": "uint256"
            },
            {
              "internalType": "uint256",
              "name": "maxIteration",
              "type": "uint256"
            },
            {
              "internalType": "uint256",
              "name": "eps",
              "type": "uint256"
            }
          ],
          "internalType": "struct ApproxParams",
          "name": "guessYtOut",
          "type": "tuple"
        },
        {
          "components": [
            {
              "internalType": "uint256",
              "name": "guessMin",
              "type": "uint256"
            },
            {
              "internalType": "uint256",
              "name": "guessMax",
              "type": "uint256"
            },
            {
              "internalType": "uint256",
              "name": "guessOffchain",
              "type": "uint256"
            },
            {
              "internalType": "uint256",
              "name": "maxIteration",
              "type": "uint256"
            },
            {
              "internalType": "uint256",
              "name": "eps",
              "type": "uint256"
            }
          ],
          "internalType": "struct ApproxParams",
          "name": "guessNewImpliedRate",
          "type": "tuple"
        }
      ],
      "name": "swapExactSyForYt",
      "outputs": [
        {
          "internalType": "uint256",
          "name": "netYtOut",
          "type": "uint256"
        },
        {
          "internalType": "uint256",
          "name": "netSyFee",
          "type": "uint256"
        }
      ],
      "stateMutability": "nonpayable",
      "type": "function"
    },
    {
      "inputs": [
        {
          "internalType": "address",
          "name": "receiver",
          "type": "address"
        },
        {
          "internalType": "address",
          "name": "market",
          "type": "address"
        },
        {
          "internalType": "uint256",
          "name": "minYtOut",
          "type": "uint256"
        },
        {
          "components": [
            {
              "internalType": "uint256",
              "name": "guessMin",
              "type": "uint256"
            },
            {
              "internalType": "uint256",
              "name": "guessMax",
              "type": "uint256"
            },
            {
              "internalType": "uint256",
              "name": "guessOffchain",
              "type": "uint256"
            },
            {
              "internalType": "uint256",
              "name": "maxIteration",
              "type": "uint256"
            },
            {
              "internalType": "uint256",
              "name": "eps",
              "type": "uint256"
            }
          ],
          "internalType": "struct ApproxParams",
          "name": "guessYtOut",
          "type": "tuple"
        },
        {
          "components": [
            {
              "internalType": "address",
              "name": "tokenIn",
              "type": "address"
            },
            {
              "internalType": "uint256",
              "name": "netTokenIn",
              "type": "uint256"
            },
            {
              "internalType": "address",
              "name": "tokenMintSy",
              "type": "address"
            },
            {
              "internalType": "address",
              "name": "bulk",
              "type": "address"
            },
            {
              "internalType": "address",
              "name": "euphratesSwap",
              "type": "address"
            },
            {
              "components": [
                {
                  "internalType": "enum SwapType",
                  "name": "swapType",
                  "type": "uint8"
                },
                {
                  "internalType": "address",
                  "name": "extRouter",
                  "type": "address"
                },
                {
                  "internalType": "bytes",
                  "name": "extCalldata",
                  "type": "bytes"
                },
                {
                  "internalType": "bool",
                  "name": "needScale",
                  "type": "bool"
                }
              ],
              "internalType": "struct SwapData",
              "name": "swapData",
              "type": "tuple"
            }
          ],
          "internalType": "struct TokenInput",
          "name": "input",
          "type": "tuple"
        },
        {
          "components": [
            {
              "internalType": "uint256",
              "name": "guessMin",
              "type": "uint256"
            },
            {
              "internalType": "uint256",
              "name": "guessMax",
              "type": "uint256"
            },
            {
              "internalType": "uint256",
              "name": "guessOffchain",
              "type": "uint256"
            },
            {
              "internalType": "uint256",
              "name": "maxIteration",
              "type": "uint256"
            },
            {
              "internalType": "uint256",
              "name": "eps",
              "type": "uint256"
            }
          ],
          "internalType": "struct ApproxParams",
          "name": "guessNewImpliedRate",
          "type": "tuple"
        }
      ],
      "name": "swapExactTokenForYt",
      "outputs": [
        {
          "internalType": "uint256",
          "name": "netYtOut",
          "type": "uint256"
        },
        {
          "internalType": "uint256",
          "name": "netSyFee",
          "type": "uint256"
        }
      ],
      "stateMutability": "payable",
      "type": "function"
    },
    {
      "inputs": [
        {
          "internalType": "address",
          "name": "receiver",
          "type": "address"
        },
        {
          "internalType": "address",
          "name": "market",
          "type": "address"
        },
        {
          "internalType": "uint256",
          "name": "exactYtIn",
          "type": "uint256"
        },
        {
          "internalType": "uint256",
          "name": "minPtOut",
          "type": "uint256"
        },
        {
          "components": [
            {
              "internalType": "uint256",
              "name": "guessMin",
              "type": "uint256"
            },
            {
              "internalType": "uint256",
              "name": "guessMax",
              "type": "uint256"
            },
            {
              "internalType": "uint256",
              "name": "guessOffchain",
              "type": "uint256"
            },
            {
              "internalType": "uint256",
              "name": "maxIteration",
              "type": "uint256"
            },
            {
              "internalType": "uint256",
              "name": "eps",
              "type": "uint256"
            }
          ],
          "internalType": "struct ApproxParams",
          "name": "guessTotalPtFromSwap",
          "type": "tuple"
        },
        {
          "components": [
            {
              "internalType": "uint256",
              "name": "guessMin",
              "type": "uint256"
            },
            {
              "internalType": "uint256",
              "name": "guessMax",
              "type": "uint256"
            },
            {
              "internalType": "uint256",
              "name": "guessOffchain",
              "type": "uint256"
            },
            {
              "internalType": "uint256",
              "name": "maxIteration",
              "type": "uint256"
            },
            {
              "internalType": "uint256",
              "name": "eps",
              "type": "uint256"
            }
          ],
          "internalType": "struct ApproxParams",
          "name": "guessNewImpliedRate",
          "type": "tuple"
        }
      ],
      "name": "swapExactYtForPt",
      "outputs": [
        {
          "internalType": "uint256",
          "name": "netPtOut",
          "type": "uint256"
        },
        {
          "internalType": "uint256",
          "name": "netSyFee",
          "type": "uint256"
        }
      ],
      "stateMutability": "nonpayable",
      "type": "function"
    },
    {
      "inputs": [
        {
          "internalType": "address",
          "name": "receiver",
          "type": "address"
        },
        {
          "internalType": "address",
          "name": "market",
          "type": "address"
        },
        {
          "internalType": "uint256",
          "name": "exactYtIn",
          "type": "uint256"
        },
        {
          "internalType": "uint256",
          "name": "minSyOut",
          "type": "uint256"
        },
        {
          "components": [
            {
              "internalType": "uint256",
              "name": "guessMin",
              "type": "uint256"
            },
            {
              "internalType": "uint256",
              "name": "guessMax",
              "type": "uint256"
            },
            {
              "internalType": "uint256",
              "name": "guessOffchain",
              "type": "uint256"
            },
            {
              "internalType": "uint256",
              "name": "maxIteration",
              "type": "uint256"
            },
            {
              "internalType": "uint256",
              "name": "eps",
              "type": "uint256"
            }
          ],
          "internalType": "struct ApproxParams",
          "name": "guessNewImpliedRate",
          "type": "tuple"
        }
      ],
      "name": "swapExactYtForSy",
      "outputs": [
        {
          "internalType": "uint256",
          "name": "netSyOut",
          "type": "uint256"
        },
        {
          "internalType": "uint256",
          "name": "netSyFee",
          "type": "uint256"
        }
      ],
      "stateMutability": "nonpayable",
      "type": "function"
    },
    {
      "inputs": [
        {
          "internalType": "address",
          "name": "receiver",
          "type": "address"
        },
        {
          "internalType": "address",
          "name": "market",
          "type": "address"
        },
        {
          "internalType": "uint256",
          "name": "netYtIn",
          "type": "uint256"
        },
        {
          "components": [
            {
              "internalType": "address",
              "name": "tokenOut",
              "type": "address"
            },
            {
              "internalType": "uint256",
              "name": "minTokenOut",
              "type": "uint256"
            },
            {
              "internalType": "address",
              "name": "tokenRedeemSy",
              "type": "address"
            },
            {
              "internalType": "address",
              "name": "bulk",
              "type": "address"
            },
            {
              "internalType": "address",
              "name": "euphratesSwap",
              "type": "address"
            },
            {
              "components": [
                {
                  "internalType": "enum SwapType",
                  "name": "swapType",
                  "type": "uint8"
                },
                {
                  "internalType": "address",
                  "name": "extRouter",
                  "type": "address"
                },
                {
                  "internalType": "bytes",
                  "name": "extCalldata",
                  "type": "bytes"
                },
                {
                  "internalType": "bool",
                  "name": "needScale",
                  "type": "bool"
                }
              ],
              "internalType": "struct SwapData",
              "name": "swapData",
              "type": "tuple"
            }
          ],
          "internalType": "struct TokenOutput",
          "name": "output",
          "type": "tuple"
        },
        {
          "components": [
            {
              "internalType": "uint256",
              "name": "guessMin",
              "type": "uint256"
            },
            {
              "internalType": "uint256",
              "name": "guessMax",
              "type": "uint256"
            },
            {
              "internalType": "uint256",
              "name": "guessOffchain",
              "type": "uint256"
            },
            {
              "internalType": "uint256",
              "name": "maxIteration",
              "type": "uint256"
            },
            {
              "internalType": "uint256",
              "name": "eps",
              "type": "uint256"
            }
          ],
          "internalType": "struct ApproxParams",
          "name": "guessNewImpliedRate",
          "type": "tuple"
        }
      ],
      "name": "swapExactYtForToken",
      "outputs": [
        {
          "internalType": "uint256",
          "name": "netTokenOut",
          "type": "uint256"
        },
        {
          "internalType": "uint256",
          "name": "netSyFee",
          "type": "uint256"
        }
      ],
      "stateMutability": "nonpayable",
      "type": "function"
    },
    {
      "inputs": [
        {
          "internalType": "address",
          "name": "receiver",
          "type": "address"
        },
        {
          "internalType": "address",
          "name": "market",
          "type": "address"
        },
        {
          "internalType": "uint256",
          "name": "exactYtOut",
          "type": "uint256"
        },
        {
          "internalType": "uint256",
          "name": "maxSyIn",
          "type": "uint256"
        },
        {
          "components": [
            {
              "internalType": "uint256",
              "name": "guessMin",
              "type": "uint256"
            },
            {
              "internalType": "uint256",
              "name": "guessMax",
              "type": "uint256"
            },
            {
              "internalType": "uint256",
              "name": "guessOffchain",
              "type": "uint256"
            },
            {
              "internalType": "uint256",
              "name": "maxIteration",
              "type": "uint256"
            },
            {
              "internalType": "uint256",
              "name": "eps",
              "type": "uint256"
            }
          ],
          "internalType": "struct ApproxParams",
          "name": "guessNewImpliedRate",
          "type": "tuple"
        }
      ],
      "name": "swapSyForExactYt",
      "outputs": [
        {
          "internalType": "uint256",
          "name": "netSyIn",
          "type": "uint256"
        },
        {
          "internalType": "uint256",
          "name": "netSyFee",
          "type": "uint256"
        }
      ],
      "stateMutability": "nonpayable",
      "type": "function"
    },
    {
      "inputs": [
        {
          "internalType": "address",
          "name": "receiver",
          "type": "address"
        },
        {
          "internalType": "address",
          "name": "market",
          "type": "address"
        },
        {
          "internalType": "uint256",
          "name": "exactSyOut",
          "type": "uint256"
        },
        {
          "internalType": "uint256",
          "name": "maxYtIn",
          "type": "uint256"
        },
        {
          "components": [
            {
              "internalType": "uint256",
              "name": "guessMin",
              "type": "uint256"
            },
            {
              "internalType": "uint256",
              "name": "guessMax",
              "type": "uint256"
            },
            {
              "internalType": "uint256",
              "name": "guessOffchain",
              "type": "uint256"
            },
            {
              "internalType": "uint256",
              "name": "maxIteration",
              "type": "uint256"
            },
            {
              "internalType": "uint256",
              "name": "eps",
              "type": "uint256"
            }
          ],
          "internalType": "struct ApproxParams",
          "name": "guessYtIn",
          "type": "tuple"
        },
        {
          "components": [
            {
              "internalType": "uint256",
              "name": "guessMin",
              "type": "uint256"
            },
            {
              "internalType": "uint256",
              "name": "guessMax",
              "type": "uint256"
            },
            {
              "internalType": "uint256",
              "name": "guessOffchain",
              "type": "uint256"
            },
            {
              "internalType": "uint256",
              "name": "maxIteration",
              "type": "uint256"
            },
            {
              "internalType": "uint256",
              "name": "eps",
              "type": "uint256"
            }
          ],
          "internalType": "struct ApproxParams",
          "name": "guessNewImpliedRate",
          "type": "tuple"
        }
      ],
      "name": "swapYtForExactSy",
      "outputs": [
        {
          "internalType": "uint256",
          "name": "netYtIn",
          "type": "uint256"
        },
        {
          "internalType": "uint256",
          "name": "netSyFee",
          "type": "uint256"
        }
      ],
      "stateMutability": "nonpayable",
      "type": "function"
    }
  ],
  "bytecode": "0x60a06040523480156200001157600080fd5b5060405162005666380380620056668339810160408190526200003491620000e4565b62000040828262000055565b6001600160a01b031660805250620001359050565b604051634a83e9cd60e11b8152600481018290526000906001600160a01b03841690639507d39a90602401602060405180830381865afa1580156200009e573d6000803e3d6000fd5b505050506040513d601f19601f82011682018060405250810190620000c4919062000115565b9392505050565b6001600160a01b0381168114620000e157600080fd5b50565b60008060408385031215620000f857600080fd5b82516200010581620000cb565b6020939093015192949293505050565b6000602082840312156200012857600080fd5b8151620000c481620000cb565b608051615515620001516000396000611f7b01526155156000f3fe6080604052600436106100965760003560e01c8063bf5511f411610069578063c79b30fb1161004e578063c79b30fb14610167578063e42d88aa14610187578063fa483e72146101a757600080fd5b8063bf5511f414610127578063c6c2fcb91461014757600080fd5b80631f41bacf1461009b5780632fd61b27146100d457806360b9d673146100f45780636425fa7714610107575b600080fd5b3480156100a757600080fd5b506100bb6100b6366004614a73565b6101c9565b6040805192835260208301919091520160405180910390f35b3480156100e057600080fd5b506100bb6100ef366004614af2565b610304565b6100bb610102366004614b60565b610549565b34801561011357600080fd5b506100bb610122366004614af2565b610673565b34801561013357600080fd5b506100bb610142366004614be5565b61093e565b34801561015357600080fd5b506100bb610162366004614be5565b610a31565b34801561017357600080fd5b506100bb610182366004614af2565b610c42565b34801561019357600080fd5b506100bb6101a2366004614af2565b610ee5565b3480156101b357600080fd5b506101c76101c2366004614c36565b610fd9565b005b600080600080876001600160a01b0316632c8ce6bc6040518163ffffffff1660e01b8152600401606060405180830381865afa15801561020d573d6000803e3d6000fd5b505050506040513d601f19601f820116820180604052508101906102319190614cb6565b92505091506102428133838a6110a8565b600061025d61025184896110c9565b8a85858c60018c611109565b9450905061026f8a84838a6000611285565b945061027e6020880188614d03565b6001600160a01b0316896001600160a01b0316336001600160a01b03167fc372308269f6e4dd0b4f322160cf0edef154584a3ad62248d654ae846e3eb6e88d6102c68d61146f565b6102cf8b611486565b604080516001600160a01b03909416845260208401929092529082015260600160405180910390a45050509550959350505050565b60405163794052f360e01b8152306004820152600090819081906001600160a01b0389169063794052f39060240161014060405180830381865afa158015610350573d6000803e3d6000fd5b505050506040513d601f19601f820116820180604052508101906103749190614d9c565b90506000886001600160a01b0316632c8ce6bc6040518163ffffffff1660e01b8152600401606060405180830381865afa1580156103b6573d6000803e3d6000fd5b505050506040513d601f19601f820116820180604052508101906103da9190614cb6565b925050506104d26103f3826001600160a01b03166114b9565b89836001600160a01b031663a9480e596040518163ffffffff1660e01b8152600401602060405180830381865afa158015610432573d6000803e3d6000fd5b505050506040513d601f19601f820116820180604052508101906104569190614e2a565b610465368b90038b018b614e43565b8d6001600160a01b03166368bc9e6a6040518163ffffffff1660e01b8152600401602060405180830381865afa1580156104a3573d6000803e3d6000fd5b505050506040513d601f19601f820116820180604052508101906104c79190614e2a565b87949392919061151f565b509094505086841115610520576040517f570cfb8100000000000000000000000000000000000000000000000000000000815260048101859052602481018890526044015b60405180910390fd5b61052c813383876110a8565b61053a89828c878c8a611588565b92505050965096945050505050565b600080600080886001600160a01b0316632c8ce6bc6040518163ffffffff1660e01b8152600401606060405180830381865afa15801561058d573d6000803e3d6000fd5b505050506040513d601f19601f820116820180604052508101906105b19190614cb6565b925050915060006105c5828460018a61166f565b90506105d68b8b84848d8d8c611867565b90955093506105e86020880188614d03565b6001600160a01b03168a6001600160a01b0316336001600160a01b03167fc372308269f6e4dd0b4f322160cf0edef154584a3ad62248d654ae846e3eb6e88e6106308a611486565b61063d8d6020013561146f565b604080516001600160a01b03909416845260208401929092529082015260600160405180910390a4505050965096945050505050565b600080600080886001600160a01b0316632c8ce6bc6040518163ffffffff1660e01b8152600401606060405180830381865afa1580156106b7573d6000803e3d6000fd5b505050506040513d601f19601f820116820180604052508101906106db9190614cb6565b60405163794052f360e01b81523060048201529194509250600091506001600160a01b038b169063794052f39060240161014060405180830381865afa158015610729573d6000803e3d6000fd5b505050506040513d601f19601f8201168201806040525081019061074d9190614d9c565b905061075b83338c8c6110a8565b6000610851610772846001600160a01b03166114b9565b8b856001600160a01b031663a9480e596040518163ffffffff1660e01b8152600401602060405180830381865afa1580156107b1573d6000803e3d6000fd5b505050506040513d601f19601f820116820180604052508101906107d59190614e2a565b6107e4368d90038d018d614e43565b8f6001600160a01b03166368bc9e6a6040518163ffffffff1660e01b8152600401602060405180830381865afa158015610822573d6000803e3d6000fd5b505050506040513d601f19601f820116820180604052508101906108469190614e2a565b879493929190611a8b565b9197509095509050888610156108845760405163a59b8c3160e01b815260048101879052602481018a9052604401610517565b604080516001600160a01b03808f1660208301529181018c9052606081018b9052908416608082015260009060a00160405160208183030381529060405290506108d38c85848b856001611bb6565b506001600160a01b03808e16908d16337fa4519acd6c251a3f533922c5aaf3fbae71546aad6c01f8241e23143519a67ac861090d8f61146f565b6109168c611486565b6040805192835260208301919091520160405180910390a45050505050965096945050505050565b600080600080876001600160a01b0316632c8ce6bc6040518163ffffffff1660e01b8152600401606060405180830381865afa158015610982573d6000803e3d6000fd5b505050506040513d601f19601f820116820180604052508101906109a69190614cb6565b92505091506109b78133838a6110a8565b6109c6898984848b8b8b611109565b90945092506001600160a01b03808a16908916337f05499aba408f669fb848399c146fad5bd604d50b15566bdc19e81c40922fab8d610a048b61146f565b610a0d89611486565b6040805192835260208301919091520160405180910390a450509550959350505050565b600080600080876001600160a01b0316632c8ce6bc6040518163ffffffff1660e01b8152600401606060405180830381865afa158015610a75573d6000803e3d6000fd5b505050506040513d601f19601f82011682018060405250810190610a999190614cb6565b6040516370a0823160e01b815233600482015292945092506000916001600160a01b03851691506370a0823190602401602060405180830381865afa158015610ae6573d6000803e3d6000fd5b505050506040513d601f19601f82011682018060405250810190610b0a9190614e2a565b604080513360208201526001600160a01b038d811682840152606082018b90528681166080830152851660a0808301919091528251808303909101815260c09091019091529091506000610b628b858c8b8686611bb6565b6040516370a0823160e01b81523360048201529091506001600160a01b038616906370a0823190602401602060405180830381865afa158015610ba9573d6000803e3d6000fd5b505050506040513d601f19601f82011682018060405250810190610bcd9190614e2a565b610bd79084614ec9565b96506001600160a01b03808d16908c16337f05499aba408f669fb848399c146fad5bd604d50b15566bdc19e81c40922fab8d610c128e611486565b610c1b8c61146f565b6040805192835260208301919091520160405180910390a450505050509550959350505050565b600080600080886001600160a01b0316632c8ce6bc6040518163ffffffff1660e01b8152600401606060405180830381865afa158015610c86573d6000803e3d6000fd5b505050506040513d601f19601f82011682018060405250810190610caa9190614cb6565b60405163794052f360e01b81523060048201529194509250600091506001600160a01b038b169063794052f39060240161014060405180830381865afa158015610cf8573d6000803e3d6000fd5b505050506040513d601f19601f82011682018060405250810190610d1c9190614d9c565b9050610d2a8233848c6110a8565b6000610e20610d41846001600160a01b03166114b9565b8b856001600160a01b031663a9480e596040518163ffffffff1660e01b8152600401602060405180830381865afa158015610d80573d6000803e3d6000fd5b505050506040513d601f19601f82011682018060405250810190610da49190614e2a565b610db3368d90038d018d614e43565b8f6001600160a01b03166368bc9e6a6040518163ffffffff1660e01b8152600401602060405180830381865afa158015610df1573d6000803e3d6000fd5b505050506040513d601f19601f82011682018060405250810190610e159190614e2a565b879493929190611cd3565b919750909550905088861015610e6c576040517f9cdffc8e00000000000000000000000000000000000000000000000000000000815260048101879052602481018a9052604401610517565b610e7c8c8c8686858f8f8e611dc9565b6001600160a01b03808d16908c16337fa4519acd6c251a3f533922c5aaf3fbae71546aad6c01f8241e23143519a67ac8610eb58a611486565b610ebe8f61146f565b6040805192835260208301919091520160405180910390a450505050965096945050505050565b600080600080886001600160a01b0316632c8ce6bc6040518163ffffffff1660e01b8152600401606060405180830381865afa158015610f29573d6000803e3d6000fd5b505050506040513d601f19601f82011682018060405250810190610f4d9190614cb6565b9250509150610f5e8233838b6110a8565b610f6d8a8a838b8b8b8b611867565b90945092506001600160a01b03808b16908a16337f05499aba408f669fb848399c146fad5bd604d50b15566bdc19e81c40922fab8d610fab88611486565b610fb48d61146f565b6040805192835260208301919091520160405180910390a45050965096945050505050565b81356001816004811115610fef57610fef614edc565b036110055761100085858585611e55565b6110a1565b600081600481111561101957611019614edc565b0361102a5761100085858585611f4a565b600281600481111561103e5761103e614edc565b0361104f576110008585858561219f565b600381600481111561106357611063614edc565b036110745761100085858585612407565b600481600481111561108857611088614edc565b03611099576110008585858561256b565b6110a1614ef2565b5050505050565b80156110c3576110c36001600160a01b03851684848461266e565b50505050565b6000806110dc6080840160608501614d03565b6001600160a01b0316036110f05782611100565b6111006080830160608401614d03565b90505b92915050565b6040516370a0823160e01b81526001600160a01b03888116600483015260009182918291908916906370a0823190602401602060405180830381865afa158015611157573d6000803e3d6000fd5b505050506040513d601f19601f8201168201806040525081019061117b9190614e2a565b9050886001600160a01b031663e70a612688888761119a8f8b8e61271f565b6040518563ffffffff1660e01b81526004016111b99493929190614f58565b60408051808303816000875af11580156111d7573d6000803e3d6000fd5b505050506040513d601f19601f820116820180604052508101906111fb9190614fb0565b6040516370a0823160e01b81526001600160a01b038d81166004830152919450839250908a16906370a0823190602401602060405180830381865afa158015611248573d6000803e3d6000fd5b505050506040513d601f19601f8201168201806040525081019061126c9190614e2a565b6112769190614ec9565b92505097509795505050505050565b60008061129560a0850185614fd4565b6112a3906020810190615021565b905060008160038111156112b9576112b9614edc565b036112d2576112cb8787878787612764565b915061141a565b60038160038111156112e6576112e6614edc565b0361133c576112f83087878787612764565b915061132061130d6060860160408701614d03565b61131a6020870187614d03565b84612921565b6113376113306020860186614d03565b8884612a01565b61141a565b600061135a61135160a0870160808801614d03565b88888888612764565b905061136c60a0860160808701614d03565b6001600160a01b0316632bdb823c61138a6060880160408901614d03565b8361139860a08a018a614fd4565b6040518463ffffffff1660e01b81526004016113b693929190615080565b600060405180830381600087803b1580156113d057600080fd5b505af11580156113e4573d6000803e3d6000fd5b506113ff92506113fa9150506020870187614d03565b612ad3565b92506114186114116020870187614d03565b8985612a01565b505b8360200135821015611465576040517fc5b5576d0000000000000000000000000000000000000000000000000000000081526004810183905260208501356024820152604401610517565b5095945050505050565b600061147a82611486565b6111039060001961516f565b60007f7fffffffffffffffffffffffffffffffffffffffffffffffffffffffffffffff8211156114b557600080fd5b5090565b6000816001600160a01b0316631d52edc46040518163ffffffff1660e01b81526004016020604051808303816000875af11580156114fb573d6000803e3d6000fd5b505050506040513d601f19601f820116820180604052508101906111039190614e2a565b60008080806115308a8a878a612b58565b90508560400151600003611567576115598660200151611554838d60000151612c99565b612d2d565b602087015261156786612d43565b6115748a828b898c612db8565b935093509350505b96509650969350505050565b6000866001600160a01b031663e70a61268786856115a78a898d61271f565b6040518563ffffffff1660e01b81526004016115c69493929190614f58565b60408051808303816000875af11580156115e4573d6000803e3d6000fd5b505050506040513d601f19601f820116820180604052508101906116089190614fb0565b9150506001600160a01b03808616908816337f05499aba408f669fb848399c146fad5bd604d50b15566bdc19e81c40922fab8d6116448861146f565b61164d88611486565b6040805192835260208301919091520160405180910390a49695505050505050565b60008061167f60a0840184614fd4565b61168d906020810190615021565b90506000808260038111156116a4576116a4614edc565b036116cf576116c46116b96020860186614d03565b338660200135612e7c565b50602083013561184f565b60038260038111156116e3576116e3614edc565b03611722576116f86116b96020860186614d03565b6116c46117086020860186614d03565b6117186060870160408801614d03565b8660200135612921565b60006117316020860186614d03565b6001600160a01b0316036117545761174f6000338660200135612e7c565b61177f565b61177f6117646020860186614d03565b3361177560a0880160808901614d03565b87602001356110a8565b61178f60a0850160808601614d03565b6001600160a01b0316632bdb823c60006117ac6020880188614d03565b6001600160a01b0316146117c15760006117c7565b85602001355b6117d46020880188614d03565b60208801356117e660a08a018a614fd4565b6040518563ffffffff1660e01b815260040161180493929190615080565b6000604051808303818588803b15801561181d57600080fd5b505af1158015611831573d6000803e3d6000fd5b505050505061184c8460400160208101906113fa9190614d03565b90505b61185c8787838888612f71565b979650505050505050565b60405163794052f360e01b8152306004820152600090819081906001600160a01b038a169063794052f39060240161014060405180830381865afa1580156118b3573d6000803e3d6000fd5b505050506040513d601f19601f820116820180604052508101906118d79190614d9c565b90506119cd6118ee896001600160a01b03166114b9565b888a6001600160a01b031663a9480e596040518163ffffffff1660e01b8152600401602060405180830381865afa15801561192d573d6000803e3d6000fd5b505050506040513d601f19601f820116820180604052508101906119519190614e2a565b611960368a90038a018a614e43565b8d6001600160a01b03166368bc9e6a6040518163ffffffff1660e01b8152600401602060405180830381865afa15801561199e573d6000803e3d6000fd5b505050506040513d601f19601f820116820180604052508101906119c29190614e2a565b869493929190613124565b509250858310156119fb5760405163a59b8c3160e01b81526004810184905260248101879052604401610517565b886001600160a01b03166329032bad898587611a188f8c8f61322d565b6040518563ffffffff1660e01b8152600401611a379493929190614f58565b60408051808303816000875af1158015611a55573d6000803e3d6000fd5b505050506040513d601f19601f82011682018060405250810190611a799190614fb0565b939b939a509298505050505050505050565b6000808080611a9c8a8a878a612b58565b90508560400151600003611ad9578551611ab69089613258565b86526020860151611acb906115548c84613267565b6020870152611ad986612d43565b60005b8660600151811015611b83576000611af488836132eb565b9050600080611b058e868f86613370565b5090925090506000611b178e846133a1565b90506000611b258286614ec9565b90508d8111611b5c57611b3d818f8e608001516133ad565b15611b545750975091955090935061157c92505050565b848c52611b6d565b611b67600186614ec9565b60208d01525b505050505080611b7c9061519f565b9050611adc565b506040517ffa711db200000000000000000000000000000000000000000000000000000000815260040160405180910390fd5b600060608215611bf95760008060008087806020019051810190611bda91906151b9565b9350935093509350611bee848484846133e1565b945050505050611c34565b600080600080600088806020019051810190611c159190615205565b94509450945094509450611c2c8585858585613425565b955050505050505b6040517f29032bad0000000000000000000000000000000000000000000000000000000081526000906001600160a01b038a16906329032bad90611c82908b908b908b908890600401614f58565b60408051808303816000875af1158015611ca0573d6000803e3d6000fd5b505050506040513d601f19601f82011682018060405250810190611cc49190614fb0565b91505050509695505050505050565b6000808080611ce48a8a878a612b58565b90508560400151600003611d25578551611cfe9089613258565b865260208601518a51611d179190611554908490612c99565b6020870152611d2586612d43565b60005b8660600151811015611b83576000611d4088836132eb565b9050600080611d518e868f86613476565b5090925090506000611d638e846134a8565b90508c8111611da357611d7b818e8d608001516133ad565b15611d9b57611d8a8185614ec9565b9850929650945061157c9350505050565b838b52611db4565b611dae600185614ec9565b60208c01525b5050505080611dc29061519f565b9050611d28565b866001600160a01b031663e70a6126308684611de88d89898e8e6134b5565b6040518563ffffffff1660e01b8152600401611e079493929190614f58565b60408051808303816000875af1158015611e25573d6000803e3d6000fd5b505050506040513d601f19601f82011682018060405250810190611e499190614fb0565b50505050505050505050565b6020820135604083013560608401356000611e6f886134e0565b60405163db74aa1560e01b81523360048201526001600160a01b03868116602483015291925060009184169063db74aa15906044016020604051808303816000875af1158015611ec3573d6000803e3d6000fd5b505050506040513d601f19601f82011682018060405250810190611ee79190614e2a565b905081811015611f145760405163c217d4a960e01b81526004810182905260248101839052604401610517565b83811015611f3f5760405163a59b8c3160e01b81526004810182905260248101859052604401610517565b505050505050505050565b6040517f58e6309f0000000000000000000000000000000000000000000000000000000081523360048201819052907f00000000000000000000000000000000000000000000000000000000000000006001600160a01b0316906358e6309f90602401602060405180830381865afa158015611fca573d6000803e3d6000fd5b505050506040513d601f19601f82011682018060405250810190611fee9190615270565b61202f576040517fc56704ad0000000000000000000000000000000000000000000000000000000081526001600160a01b0382166004820152602401610517565b602083013560408401356060850135608086013560a0870135600061205c6001600160a01b0383166114b9565b905060006120698c6134e0565b9050600061207783836134f2565b905060006120848d6134fe565b90506000612092838361350d565b9050878111156120d8576040517fe744f9c00000000000000000000000000000000000000000000000000000000081526004810182905260248101899052604401610517565b80156120ea576120ea878b88846110a8565b60405163db74aa1560e01b81523360048201526001600160a01b038a811660248301526000919088169063db74aa15906044016020604051808303816000875af115801561213c573d6000803e3d6000fd5b505050506040513d601f19601f820116820180604052508101906121609190614e2a565b90508481101561218d5760405163c217d4a960e01b81526004810182905260248101869052604401610517565b50505050505050505050505050505050565b60208201356040830135606084013560006121c26001600160a01b0383166114b9565b905060006121d76121d289613524565b6134fe565b60408051600280825260608201835292935060009290916020830190803683375050604080516002808252606082018352939450600093909250906020830190803683370190505090503361222c85856134a8565b8360008151811061223f5761223f61528d565b60200260200101836000815181106122595761225961528d565b6020026020010182815250826001600160a01b03166001600160a01b0316815250505086816000815181106122905761229061528d565b60200260200101516122a18d6134fe565b6122ab9190614ec9565b836001815181106122be576122be61528d565b60200260200101836001815181106122d8576122d861528d565b60209081029190910101919091526001600160a01b0391821690526040517fb0d8898100000000000000000000000000000000000000000000000000000000815260009187169063b0d889819061233590869086906004016152a3565b6000604051808303816000875af1158015612354573d6000803e3d6000fd5b505050506040513d6000823e601f3d908101601f1916820160405261237c9190810190615327565b905086816001815181106123925761239261528d565b602002602001015110156123f957806001815181106123b3576123b361528d565b6020026020010151876040517f0a4439e6000000000000000000000000000000000000000000000000000000008152600401610517929190918252602082015260400190565b505050505050505050505050565b602082013560408301356060840135608085013560a0860135600061242b896134e0565b9050612438838387612a01565b6040517fbcb7ea5d0000000000000000000000000000000000000000000000000000000081523360048201526000906001600160a01b0384169063bcb7ea5d906024016020604051808303816000875af115801561249a573d6000803e3d6000fd5b505050506040513d601f19601f820116820180604052508101906124be9190614e2a565b905081811015612504576040517f21586e780000000000000000000000000000000000000000000000000000000081526004810182905260248101839052604401610517565b6000866125108d6134fe565b61251a9190614ec9565b905085811015612560576040517f9cdffc8e0000000000000000000000000000000000000000000000000000000081526004810182905260248101879052604401610517565b6123f9858983612a01565b6020820135604083013560608401356080850135600061258a896134e0565b60405163db74aa1560e01b81523360048201526001600160a01b03878116602483015291925060009184169063db74aa15906044016020604051808303816000875af11580156125de573d6000803e3d6000fd5b505050506040513d601f19601f820116820180604052508101906126029190614e2a565b90508381101561262f5760405163a59b8c3160e01b81526004810182905260248101859052604401610517565b8161263a82876153cd565b1015611e495761264a81866153cd565b60405163c217d4a960e01b8152600481019190915260248101839052604401610517565b6040516001600160a01b03808516602483015283166044820152606481018290526110c39085907f23b872dd00000000000000000000000000000000000000000000000000000000906084015b60408051601f198184030181529190526020810180517bffffffffffffffffffffffffffffffffffffffffffffffffffffffff167fffffffff0000000000000000000000000000000000000000000000000000000090931692909217909152613532565b60408051608080825260a08201909252606091602082018180368337019050509050600060025b60208301525060408101939093526060830191909152608082015290565b6000811561278157612781853361277b88876110c9565b876110a8565b60006127936080850160608601614d03565b6001600160a01b031614612854576127b16080840160608501614d03565b6040517f83f5b7660000000000000000000000000000000000000000000000000000000081526001600160a01b03888116600483015260248201879052600060448301526001606483015291909116906383f5b766906084016020604051808303816000875af1158015612829573d6000803e3d6000fd5b505050506040513d601f19601f8201168201806040525081019061284d9190614e2a565b9050612918565b6001600160a01b03851663769f8e5d87866128756060880160408901614d03565b60405160e085901b7fffffffff000000000000000000000000000000000000000000000000000000001681526001600160a01b03938416600482015260248101929092529091166044820152600060648201526001608482015260a4016020604051808303816000875af11580156128f1573d6000803e3d6000fd5b505050506040513d601f19601f820116820180604052508101906129159190614e2a565b90505b95945050505050565b6001600160a01b03831661298857816001600160a01b031663d0e30db0826040518263ffffffff1660e01b81526004016000604051808303818588803b15801561296a57600080fd5b505af115801561297e573d6000803e3d6000fd5b5050505050505050565b6040517f2e1a7d4d000000000000000000000000000000000000000000000000000000008152600481018290526001600160a01b03841690632e1a7d4d90602401600060405180830381600087803b1580156129e357600080fd5b505af11580156129f7573d6000803e3d6000fd5b505050505b505050565b80600003612a0e57505050565b6001600160a01b038316612abf576000826001600160a01b03168260405160006040518083038185875af1925050503d8060008114612a69576040519150601f19603f3d011682016040523d82523d6000602084013e612a6e565b606091505b50509050806110c35760405162461bcd60e51b815260206004820152600f60248201527f6574682073656e64206661696c656400000000000000000000000000000000006044820152606401610517565b6129fc6001600160a01b038416838361361a565b60006001600160a01b03821615612b51576040516370a0823160e01b81523060048201526001600160a01b038316906370a0823190602401602060405180830381865afa158015612b28573d6000803e3d6000fd5b505050506040513d601f19601f82011682018060405250810190612b4c9190614e2a565b611103565b4792915050565b612b836040518060800160405280600081526020016000815260200160008152602001600081525090565b60c08501518210612bc0576040517fb2094b5900000000000000000000000000000000000000000000000000000000815260040160405180910390fd5b6000828660c00151612bd29190614ec9565b9050612bea86612be562015180846153e0565b613663565b82526020860151612bfc9086906136dd565b602083015285511580612c1157506020820151155b15612c5857855160208301516040517fb1c4aefb00000000000000000000000000000000000000000000000000000000815260048101929092526024820152604401610517565b612c778660000151876101200151846020015185600001518886613714565b604083015260e0860151612c8b9082613797565b606083015250949350505050565b600080612cc6612cc1856000015186604001518760600151612cbb91906153f7565b906137d9565b6137fc565b90506000612ce6612cdf670de0b6b3a76400008461541e565b8390613d13565b90506000612d04866020015186612cfd919061541e565b83906137d9565b90506000612d1282876153f7565b90506103e8612d23826103e76153e0565b61185c919061545c565b6000818310612d3c5781611100565b5090919050565b602081015181511180612d615750670de0b6b3a76400008160800151115b15612db5578051602082015160808301516040517fb301af04000000000000000000000000000000000000000000000000000000008152600481019390935260248301919091526044820152606401610517565b50565b60008080805b8560600151811015612e6f576000612dd687836132eb565b9050600080612de78c8c8c86613476565b5090925090506000612df98b846134a8565b90506000612e11612e0a8387614ec9565b8d90613d39565b9050898110612e4b57612e29818b8d60800151613d45565b15612e3f579397509295509350612e7192505050565b60208b01859052612e59565b612e568560016153cd565b8b525b505050505080612e689061519f565b9050612dbe565b505b955095509592505050565b6001600160a01b038316612ed9578034146129fc5760405162461bcd60e51b815260206004820152600c60248201527f657468206d69736d6174636800000000000000000000000000000000000000006044820152606401610517565b80156129fc576040517f23b872dd0000000000000000000000000000000000000000000000000000000081526001600160a01b038381166004830152306024830152604482018390528416906323b872dd906064016020604051808303816000875af1158015612f4d573d6000803e3d6000fd5b505050506040513d601f19601f820116820180604052508101906110c39190615270565b60008080612f856060850160408601614d03565b6001600160a01b031614612f9a576000612f9c565b845b90506000612fb06080850160608601614d03565b6001600160a01b03161461306c57612fce6080840160608501614d03565b6040517fb27670700000000000000000000000000000000000000000000000000000000081526001600160a01b0389811660048301526024820188905260448201879052919091169063b276707090839060640160206040518083038185885af1158015613040573d6000803e3d6000fd5b50505050506040513d601f19601f820116820180604052508101906130659190614e2a565b9150611465565b6001600160a01b0386166320e8c565828961308d6060880160408901614d03565b6040517fffffffff0000000000000000000000000000000000000000000000000000000060e086901b1681526001600160a01b03928316600482015291166024820152604481018990526064810188905260840160206040518083038185885af11580156130ff573d6000803e3d6000fd5b50505050506040513d601f19601f8201168201806040525081019061185c9190614e2a565b6000808061313489898689612b58565b9050846040015160000361317a578451613157906131528a8a6133a1565b613258565b8552602085015161316c906115548b84613267565b602086015261317a85612d43565b60005b8560600151811015611b8357600061319587836132eb565b90506000806131a68d868e86613370565b50909250905060006131b88d856134f2565b905060006131c68483614ec9565b90508c81116131fb576131de818e8d608001516133ad565b156131f3575092965094506132229350505050565b848b5261320c565b613206600186614ec9565b60208c01525b50505050508061321b9061519f565b905061317d565b965096945050505050565b60408051608080825260a0820190925260609160208201818036833701905050905060006001612746565b6000818311612d3c5781611100565b600080600090506000600184602001516132819190614ec9565b90505b8082146132e3576000600261329983856153cd565b6132a49060016153cd565b6132ae919061545c565b905060006132c186886000015184613d73565b12156132d9576132d2600182614ec9565b91506132dd565b8092505b50613284565b509392505050565b6000811580156132fe5750604083015115155b1561330e57506040820151611103565b602083015183511161333e576020830151835160029161332d916153cd565b613337919061545c565b9050611103565b6040517ffa711db200000000000000000000000000000000000000000000000000000000815260040160405180910390fd5b6000808080808061338e89896133858a615470565b8d929190613e7d565b919c909b50909950975050505050505050565b60006111008383613fd2565b60008284111580156133d957506133d5836133d084670de0b6b3a7640000614ec9565b613ff1565b8410155b949350505050565b6040805160a080825260c08201909252606091602082018180368337505060046020830152506040810195909552506060840192909252608083015260a082015290565b6040805160c080825260e082019092526060916020820181803683370190505090506000805b60208301525060408101959095526060850193909352608084019190915260a083015260c082015290565b600080808080806134898a8a8a8a613e7d565b9250925092508261349990615470565b9a919950975095505050505050565b6000826133d98184614011565b6040805160c080825260e082019092526060916020820181803683370190505090506000600361344b565b60008082136114b557612b4c82615470565b6000611100838361403d565b6000808212156114b557600080fd5b60008183101561351e576000611100565b50900390565b60006111038260001961516f565b6000613587826040518060400160405280602081526020017f5361666545524332303a206c6f772d6c6576656c2063616c6c206661696c6564815250856001600160a01b03166140559092919063ffffffff16565b90508051600014806135a85750808060200190518101906135a89190615270565b6129fc5760405162461bcd60e51b815260206004820152602a60248201527f5361666545524332303a204552433230206f7065726174696f6e20646964206e60448201527f6f742073756363656564000000000000000000000000000000000000000000006064820152608401610517565b6040516001600160a01b0383166024820152604481018290526129fc9084907fa9059cbb00000000000000000000000000000000000000000000000000000000906064016126bb565b600061366e82611486565b6136856136806201518061016d6153e0565b611486565b8460800151613694919061516f565b61369e919061548c565b905060008113611103576040517f1ca4187600000000000000000000000000000000000000000000000000000000815260048101829052602401610517565b600080600083126136ef5760016136f3565b6000195b905061370a61368085613705866134e0565b613fd2565b6133d9908261516f565b600080613722878585614064565b9050670de0b6b3a76400008112156137505760405163329e322960e21b815260048101829052602401610517565b600061376661375f888b61541e565b8a90613d13565b905060006137738261411e565b905061377f8188613d13565b61378990846153f7565b9a9950505050505050505050565b6000806137a96201518061016d6153e0565b620151806137b785876153e0565b6137c191906153e0565b6137cb919061545c565b90506133d9612cc182611486565b6000806137e6838561516f565b9050670de0b6b3a7640000815b05949350505050565b60007ffffffffffffffffffffffffffffffffffffffffffffffffdc702bd3a30fc00008212158015613837575068070c1cc73b00c800008213155b6138835760405162461bcd60e51b815260206004820152601060248201527f496e76616c6964206578706f6e656e74000000000000000000000000000000006044820152606401610517565b60008212156138bc57613898826000036137fc565b6ec097ce7bc90715b34b9f1000000000816138b5576138b5615446565b0592915050565b60006806f05b59d3b2000000831261391257507ffffffffffffffffffffffffffffffffffffffffffffffff90fa4a62c4e00000090910190770195e54c5dd42177f53a27172fa9ec63026282700000000061395e565b6803782dace9d9000000831261395a57507ffffffffffffffffffffffffffffffffffffffffffffffffc87d2531627000000909101906b1425982cf597cd205cef738061395e565b5060015b6064929092029168056bc75e2d6310000068ad78ebc5ac6200000084126139c4577fffffffffffffffffffffffffffffffffffffffffffffff5287143a539e0000009093019268056bc75e2d631000006e01855144814a7ff805980ff008400082020590505b6856bc75e2d6310000008412613a16577fffffffffffffffffffffffffffffffffffffffffffffffa9438a1d29cf0000009093019268056bc75e2d631000006b02df0ab5a80a22c61ab5a70082020590505b682b5e3af16b188000008412613a66577fffffffffffffffffffffffffffffffffffffffffffffffd4a1c50e94e78000009093019268056bc75e2d63100000693f1fce3da636ea5cf85082020590505b6815af1d78b58c4000008412613ab6577fffffffffffffffffffffffffffffffffffffffffffffffea50e2874a73c000009093019268056bc75e2d63100000690127fa27722cc06cc5e282020590505b680ad78ebc5ac62000008412613b05577ffffffffffffffffffffffffffffffffffffffffffffffff5287143a539e000009093019268056bc75e2d6310000068280e60114edb805d0382020590505b68056bc75e2d631000008412613b54577ffffffffffffffffffffffffffffffffffffffffffffffffa9438a1d29cf000009093019268056bc75e2d63100000680ebc5fb4174612111082020590505b6802b5e3af16b18800008412613ba3577ffffffffffffffffffffffffffffffffffffffffffffffffd4a1c50e94e7800009093019268056bc75e2d631000006808f00f760a4b2db55d82020590505b68015af1d78b58c400008412613bf2577ffffffffffffffffffffffffffffffffffffffffffffffffea50e2874a73c00009093019268056bc75e2d631000006806f5f177578893793782020590505b68056bc75e2d631000008481019085906002908280020505918201919050600368056bc75e2d631000008783020505918201919050600468056bc75e2d631000008783020505918201919050600568056bc75e2d631000008783020505918201919050600668056bc75e2d631000008783020505918201919050600768056bc75e2d631000008783020505918201919050600868056bc75e2d631000008783020505918201919050600968056bc75e2d631000008783020505918201919050600a68056bc75e2d631000008783020505918201919050600b68056bc75e2d631000008783020505918201919050600c68056bc75e2d631000008783020505918201919050606468056bc75e2d63100000848402058502059695505050505050565b600080613d28670de0b6b3a76400008561516f565b90508281816137f3576137f3615446565b60006111008383614191565b60008284101580156133d95750613d68836133d084670de0b6b3a76400006153cd565b909311159392505050565b600080828560200151613d8691906153f7565b90506000613d94858561541e565b9050600082138015613da65750600081135b613df25760405162461bcd60e51b815260206004820152601260248201527f696e76616c6964207074546f4d61726b657400000000000000000000000000006044820152606401610517565b6000613e20613e01848461516f565b6020890151613e10908961541e565b613e1a908861516f565b90613d13565b90506000613e36613e318486613d13565b6141a6565b8851909150600090613e5190670de0b6b3a764000090613d13565b9050613e6181612cbb84866153f7565b8960400151613e7091906153f7565b9998505050505050505050565b600080600080613ea08860000151886020015189600001518a6040015189614247565b90506000613eb6613eb18784613d13565b613524565b60608901519091506000871315613f25576000613ed38483613d13565b9050670de0b6b3a7640000811215613f015760405163329e322960e21b815260048101829052602401610517565b613f1d613f1683670de0b6b3a76400006153f7565b84906137d9565b915050613f52565b613f4f81613f3b81670de0b6b3a76400006153f7565b613f45908561516f565b613eb1919061548c565b90505b60006064613f648c6101000151611486565b613f6e908461516f565b613f78919061548c565b90506000613f8683856153f7565b905060008112613f9f57613f9a8a82614316565b613fa9565b613fa98a82614343565b9750613fb58a84614316565b9650613fc18a83614316565b955050505050509450945094915050565b6000670de0b6b3a7640000613fe784846153e0565b611100919061545c565b600080613ffe83856153e0565b670de0b6b3a76400009004949350505050565b6000670de0b6b3a764000060018161402986866153e0565b61403391906153cd565b613fe79190614ec9565b600082600181614029670de0b6b3a7640000866153e0565b60606133d98484600085614370565b6000808061407761368061016d8761545c565b9050600061408761016d8861545c565b9050600061409582876153e0565b905060006140a5612cc18461146f565b905060006140b5612cc18461146f565b905060006140e483612cbb6140d282670de0b6b3a76400006153f7565b613e1a86670de0b6b3a76400006153f7565b9050816140f187836137d9565b6140fb919061541e565b965061410f670de0b6b3a764000088613d13565b9b9a5050505050505050505050565b6000670de0b6b3a76400008203614161576040517fa9c8b14d00000000000000000000000000000000000000000000000000000000815260040160405180910390fd5b600061417f61417884670de0b6b3a76400006153f7565b8490613d13565b905061418a816141a6565b9392505050565b600082613fe7670de0b6b3a7640000846153e0565b60008082136141f75760405162461bcd60e51b815260206004820152600d60248201527f6f7574206f6620626f756e6473000000000000000000000000000000000000006044820152606401610517565b670c7d713b49da0000821380156142155750670f43fc2c04ee000082125b1561423957670de0b6b3a764000061422c83614457565b816138b5576138b5615446565b6111038261458f565b919050565b600080614254878461493a565b90506000614265612cdf888a61541e565b9050670d529ae9e86000008113156142ba576040517ffc68d09e00000000000000000000000000000000000000000000000000000000815260048101829052670d529ae9e86000006024820152604401610517565b60006142c58261411e565b9050856142d28289613d13565b6142dc919061541e565b9350670de0b6b3a764000084121561430a5760405163329e322960e21b815260048101859052602401610517565b50505095945050505050565b6000806000831261432857600161432c565b6000195b905061370a6136808561433e866134e0565b614191565b60008060008312614355576001614359565b6000195b905061370a6136808561436b866134e0565b61403d565b6060824710156143e85760405162461bcd60e51b815260206004820152602660248201527f416464726573733a20696e73756666696369656e742062616c616e636520666f60448201527f722063616c6c00000000000000000000000000000000000000000000000000006064820152608401610517565b600080866001600160a01b0316858760405161440491906154ba565b60006040518083038185875af1925050503d8060008114614441576040519150601f19603f3d011682016040523d82523d6000602084013e614446565b606091505b509150915061185c87838387614996565b670de0b6b3a7640000026000806ec097ce7bc90715b34b9f1000000000808401907fffffffffffffffffffffffffffffffffff3f68318436f8ea4cb460f000000000850102816144a9576144a9615446565b05905060006ec097ce7bc90715b34b9f100000000082800205905081806ec097ce7bc90715b34b9f100000000081840205915060038205016ec097ce7bc90715b34b9f100000000082840205915060058205016ec097ce7bc90715b34b9f100000000082840205915060078205016ec097ce7bc90715b34b9f100000000082840205915060098205016ec097ce7bc90715b34b9f1000000000828402059150600b8205016ec097ce7bc90715b34b9f1000000000828402059150600d8205016ec097ce7bc90715b34b9f1000000000828402059150600f82050160020295945050505050565b6000670de0b6b3a76400008212156145d1576145c8826ec097ce7bc90715b34b9f1000000000816145c2576145c2615446565b0561458f565b60000392915050565b60007e1600ef3172e58d2e933ec884fde10064c63b5372d805e203c0000000000000831261462257770195e54c5dd42177f53a27172fa9ec630262827000000000830592506806f05b59d3b2000000015b73011798004d755d3c8bc8e03204cf44619e000000831261465a576b1425982cf597cd205cef7380830592506803782dace9d9000000015b606492830292026e01855144814a7ff805980ff008400083126146a2576e01855144814a7ff805980ff008400068056bc75e2d63100000840205925068ad78ebc5ac62000000015b6b02df0ab5a80a22c61ab5a70083126146dd576b02df0ab5a80a22c61ab5a70068056bc75e2d6310000084020592506856bc75e2d631000000015b693f1fce3da636ea5cf850831261471457693f1fce3da636ea5cf85068056bc75e2d631000008402059250682b5e3af16b18800000015b690127fa27722cc06cc5e2831261474b57690127fa27722cc06cc5e268056bc75e2d6310000084020592506815af1d78b58c400000015b68280e60114edb805d0383126147805768280e60114edb805d0368056bc75e2d631000008402059250680ad78ebc5ac6200000015b680ebc5fb4174612111083126147ab57680ebc5fb4174612111068056bc75e2d631000009384020592015b6808f00f760a4b2db55d83126147e0576808f00f760a4b2db55d68056bc75e2d6310000084020592506802b5e3af16b1880000015b6806f5f17757889379378312614815576806f5f177578893793768056bc75e2d63100000840205925068015af1d78b58c40000015b6806248f33704b2866038312614849576806248f33704b28660368056bc75e2d63100000840205925067ad78ebc5ac620000015b6805c548670b9510e7ac831261487d576805c548670b9510e7ac68056bc75e2d6310000084020592506756bc75e2d6310000015b600068056bc75e2d63100000840168056bc75e2d6310000080860302816148a6576148a6615446565b059050600068056bc75e2d63100000828002059050818068056bc75e2d63100000818402059150600382050168056bc75e2d63100000828402059150600582050168056bc75e2d63100000828402059150600782050168056bc75e2d63100000828402059150600982050168056bc75e2d63100000828402059150600b820501600202606485820105979650505050505050565b60008183121561498c5760405162461bcd60e51b815260206004820152600860248201527f6e656761746976650000000000000000000000000000000000000000000000006044820152606401610517565b61110082846153f7565b60608315614a055782516000036149fe576001600160a01b0385163b6149fe5760405162461bcd60e51b815260206004820152601d60248201527f416464726573733a2063616c6c20746f206e6f6e2d636f6e74726163740000006044820152606401610517565b50816133d9565b6133d98383815115614a1a5781518083602001fd5b8060405162461bcd60e51b815260040161051791906154cc565b6001600160a01b0381168114612db557600080fd5b600060c08284031215614a5b57600080fd5b50919050565b600060a08284031215614a5b57600080fd5b60008060008060006101208688031215614a8c57600080fd5b8535614a9781614a34565b94506020860135614aa781614a34565b935060408601359250606086013567ffffffffffffffff811115614aca57600080fd5b614ad688828901614a49565b925050614ae68760808801614a61565b90509295509295909350565b6000806000806000806101c08789031215614b0c57600080fd5b8635614b1781614a34565b95506020870135614b2781614a34565b94506040870135935060608701359250614b448860808901614a61565b9150614b54886101208901614a61565b90509295509295509295565b6000806000806000806101c08789031215614b7a57600080fd5b8635614b8581614a34565b95506020870135614b9581614a34565b945060408701359350614bab8860608901614a61565b925061010087013567ffffffffffffffff811115614bc857600080fd5b614bd489828a01614a49565b925050614b54886101208901614a61565b60008060008060006101208688031215614bfe57600080fd5b8535614c0981614a34565b94506020860135614c1981614a34565b93506040860135925060608601359150614ae68760808801614a61565b60008060008060608587031215614c4c57600080fd5b8435935060208501359250604085013567ffffffffffffffff80821115614c7257600080fd5b818701915087601f830112614c8657600080fd5b813581811115614c9557600080fd5b886020828501011115614ca757600080fd5b95989497505060200194505050565b600080600060608486031215614ccb57600080fd5b8351614cd681614a34565b6020850151909350614ce781614a34565b6040850151909250614cf881614a34565b809150509250925092565b600060208284031215614d1557600080fd5b813561418a81614a34565b634e487b7160e01b600052604160045260246000fd5b604051610140810167ffffffffffffffff81118282101715614d5a57614d5a614d20565b60405290565b604051601f8201601f1916810167ffffffffffffffff81118282101715614d8957614d89614d20565b604052919050565b805161424281614a34565b60006101408284031215614daf57600080fd5b614db7614d36565b825181526020830151602082015260408301516040820152614ddb60608401614d91565b60608201526080830151608082015260a083015160a082015260c083015160c082015260e083015160e08201526101008084015181830152506101208084015181830152508091505092915050565b600060208284031215614e3c57600080fd5b5051919050565b600060a08284031215614e5557600080fd5b60405160a0810181811067ffffffffffffffff82111715614e7857614e78614d20565b806040525082358152602083013560208201526040830135604082015260608301356060820152608083013560808201528091505092915050565b634e487b7160e01b600052601160045260246000fd5b8181038181111561110357611103614eb3565b634e487b7160e01b600052602160045260246000fd5b634e487b7160e01b600052600160045260246000fd5b60005b83811015614f23578181015183820152602001614f0b565b50506000910152565b60008151808452614f44816020860160208601614f08565b601f01601f19169290920160200192915050565b60006101006001600160a01b0387168352856020840152843560408401526020850135606084015260408501356080840152606085013560a0840152608085013560c08401528060e084015261185c81840185614f2c565b60008060408385031215614fc357600080fd5b505080516020909101519092909150565b600082357fffffffffffffffffffffffffffffffffffffffffffffffffffffffffffffff8183360301811261500857600080fd5b9190910192915050565b80356004811061424257600080fd5b60006020828403121561503357600080fd5b61110082615012565b818352818160208501375060006020828401015260006020601f19601f840116840101905092915050565b8015158114612db557600080fd5b803561424281615067565b60006001600160a01b038086168352846020840152606060408401526150a584615012565b600481106150c357634e487b7160e01b600052602160045260246000fd5b606084015260208401356150d681614a34565b1660808301526040830135368490037fffffffffffffffffffffffffffffffffffffffffffffffffffffffffffffffe101811261511257600080fd5b830160208101903567ffffffffffffffff81111561512f57600080fd5b80360382131561513e57600080fd5b608060a085015261515360e08501828461503c565b91505061516260608501615075565b80151560c0850152611465565b80820260008212600160ff1b8414161561518b5761518b614eb3565b818105831482151761110357611103614eb3565b600060001982036151b2576151b2614eb3565b5060010190565b600080600080608085870312156151cf57600080fd5b84516151da81614a34565b80945050602085015192506040850151915060608501516151fa81614a34565b939692955090935050565b600080600080600060a0868803121561521d57600080fd5b855161522881614a34565b602087015190955061523981614a34565b60408701516060880151919550935061525181614a34565b608087015190925061526281614a34565b809150509295509295909350565b60006020828403121561528257600080fd5b815161418a81615067565b634e487b7160e01b600052603260045260246000fd5b604080825283519082018190526000906020906060840190828701845b828110156152e55781516001600160a01b0316845292840192908401906001016152c0565b5050508381038285015284518082528583019183019060005b8181101561531a578351835292840192918401916001016152fe565b5090979650505050505050565b6000602080838503121561533a57600080fd5b825167ffffffffffffffff8082111561535257600080fd5b818501915085601f83011261536657600080fd5b81518181111561537857615378614d20565b8060051b9150615389848301614d60565b81815291830184019184810190888411156153a357600080fd5b938501935b838510156153c1578451825293850193908501906153a8565b98975050505050505050565b8082018082111561110357611103614eb3565b808202811582820484141761110357611103614eb3565b818103600083128015838313168383128216171561541757615417614eb3565b5092915050565b808201828112600083128015821682158216171561543e5761543e614eb3565b505092915050565b634e487b7160e01b600052601260045260246000fd5b60008261546b5761546b615446565b500490565b6000600160ff1b820361548557615485614eb3565b5060000390565b60008261549b5761549b615446565b6000198314600160ff1b831416156154b5576154b5614eb3565b500590565b60008251615008818460208701614f08565b6020815260006111006020830184614f2c56fea26469706673582212202be751ff23503771645171bbf3453821f4fec6d6af7d608af0157fa64c52757764736f6c63430008110033",
  "linkReferences": {},
  "deployedLinkReferences": {}
}