{
  "_format": "hh-sol-artifact-1",
  "contractName": "ActionAddRemoveLiq",
  "sourceName": "contracts/router/ActionAddRemoveLiq.sol",
  "abi": [
    {
      "inputs": [],
      "name": "ApproxFail",
      "type": "error"
    },
    {
      "inputs": [
        {
          "internalType": "uint256",
          "name": "guessMin",
          "type": "uint256"
        },
        {
          "internalType": "uint256",
          "name": "guessMax",
          "type": "uint256"
        },
        {
          "internalType": "uint256",
          "name": "eps",
          "type": "uint256"
        }
      ],
      "name": "ApproxParamsInvalid",
      "type": "error"
    },
    {
      "inputs": [
        {
          "internalType": "int256",
          "name": "exchangeRate",
          "type": "int256"
        }
      ],
      "name": "MarketExchangeRateBelowOne",
      "type": "error"
    },
    {
      "inputs": [],
      "name": "MarketExpired",
      "type": "error"
    },
    {
      "inputs": [],
      "name": "MarketProportionMustNotEqualOne",
      "type": "error"
    },
    {
      "inputs": [
        {
          "internalType": "int256",
          "name": "proportion",
          "type": "int256"
        },
        {
          "internalType": "int256",
          "name": "maxProportion",
          "type": "int256"
        }
      ],
      "name": "MarketProportionTooHigh",
      "type": "error"
    },
    {
      "inputs": [
        {
          "internalType": "int256",
          "name": "rateScalar",
          "type": "int256"
        }
      ],
      "name": "MarketRateScalarBelowZero",
      "type": "error"
    },
    {
      "inputs": [],
      "name": "MarketZeroAmountsInput",
      "type": "error"
    },
    {
      "inputs": [],
      "name": "MarketZeroAmountsOutput",
      "type": "error"
    },
    {
      "inputs": [
        {
          "internalType": "int256",
          "name": "totalPt",
          "type": "int256"
        },
        {
          "internalType": "int256",
          "name": "totalAsset",
          "type": "int256"
        }
      ],
      "name": "MarketZeroTotalPtOrTotalAsset",
      "type": "error"
    },
    {
      "inputs": [
        {
          "internalType": "uint256",
          "name": "actualLpOut",
          "type": "uint256"
        },
        {
          "internalType": "uint256",
          "name": "requiredLpOut",
          "type": "uint256"
        }
      ],
      "name": "RouterInsufficientLpOut",
      "type": "error"
    },
    {
      "inputs": [
        {
          "internalType": "uint256",
          "name": "actualPtOut",
          "type": "uint256"
        },
        {
          "internalType": "uint256",
          "name": "requiredPtOut",
          "type": "uint256"
        }
      ],
      "name": "RouterInsufficientPtOut",
      "type": "error"
    },
    {
      "inputs": [
        {
          "internalType": "uint256",
          "name": "actualSyOut",
          "type": "uint256"
        },
        {
          "internalType": "uint256",
          "name": "requiredSyOut",
          "type": "uint256"
        }
      ],
      "name": "RouterInsufficientSyOut",
      "type": "error"
    },
    {
      "inputs": [
        {
          "internalType": "uint256",
          "name": "actualTokenOut",
          "type": "uint256"
        },
        {
          "internalType": "uint256",
          "name": "requiredTokenOut",
          "type": "uint256"
        }
      ],
      "name": "RouterInsufficientTokenOut",
      "type": "error"
    },
    {
      "inputs": [
        {
          "internalType": "uint256",
          "name": "netSyDesired",
          "type": "uint256"
        },
        {
          "internalType": "uint256",
          "name": "netSyUsed",
          "type": "uint256"
        }
      ],
      "name": "RouterNotAllSyUsed",
      "type": "error"
    },
    {
      "anonymous": false,
      "inputs": [
        {
          "indexed": true,
          "internalType": "address",
          "name": "caller",
          "type": "address"
        },
        {
          "indexed": true,
          "internalType": "address",
          "name": "market",
          "type": "address"
        },
        {
          "indexed": true,
          "internalType": "address",
          "name": "receiver",
          "type": "address"
        },
        {
          "indexed": false,
          "internalType": "uint256",
          "name": "netSyUsed",
          "type": "uint256"
        },
        {
          "indexed": false,
          "internalType": "uint256",
          "name": "netPtUsed",
          "type": "uint256"
        },
        {
          "indexed": false,
          "internalType": "uint256",
          "name": "netLpOut",
          "type": "uint256"
        }
      ],
      "name": "AddLiquidityDualSyAndPt",
      "type": "event"
    },
    {
      "anonymous": false,
      "inputs": [
        {
          "indexed": true,
          "internalType": "address",
          "name": "caller",
          "type": "address"
        },
        {
          "indexed": true,
          "internalType": "address",
          "name": "market",
          "type": "address"
        },
        {
          "indexed": true,
          "internalType": "address",
          "name": "tokenIn",
          "type": "address"
        },
        {
          "indexed": false,
          "internalType": "address",
          "name": "receiver",
          "type": "address"
        },
        {
          "indexed": false,
          "internalType": "uint256",
          "name": "netTokenUsed",
          "type": "uint256"
        },
        {
          "indexed": false,
          "internalType": "uint256",
          "name": "netPtUsed",
          "type": "uint256"
        },
        {
          "indexed": false,
          "internalType": "uint256",
          "name": "netLpOut",
          "type": "uint256"
        }
      ],
      "name": "AddLiquidityDualTokenAndPt",
      "type": "event"
    },
    {
      "anonymous": false,
      "inputs": [
        {
          "indexed": true,
          "internalType": "address",
          "name": "caller",
          "type": "address"
        },
        {
          "indexed": true,
          "internalType": "address",
          "name": "market",
          "type": "address"
        },
        {
          "indexed": true,
          "internalType": "address",
          "name": "receiver",
          "type": "address"
        },
        {
          "indexed": false,
          "internalType": "uint256",
          "name": "netPtIn",
          "type": "uint256"
        },
        {
          "indexed": false,
          "internalType": "uint256",
          "name": "netLpOut",
          "type": "uint256"
        }
      ],
      "name": "AddLiquiditySinglePt",
      "type": "event"
    },
    {
      "anonymous": false,
      "inputs": [
        {
          "indexed": true,
          "internalType": "address",
          "name": "caller",
          "type": "address"
        },
        {
          "indexed": true,
          "internalType": "address",
          "name": "market",
          "type": "address"
        },
        {
          "indexed": true,
          "internalType": "address",
          "name": "receiver",
          "type": "address"
        },
        {
          "indexed": false,
          "internalType": "uint256",
          "name": "netSyIn",
          "type": "uint256"
        },
        {
          "indexed": false,
          "internalType": "uint256",
          "name": "netLpOut",
          "type": "uint256"
        }
      ],
      "name": "AddLiquiditySingleSy",
      "type": "event"
    },
    {
      "anonymous": false,
      "inputs": [
        {
          "indexed": true,
          "internalType": "address",
          "name": "caller",
          "type": "address"
        },
        {
          "indexed": true,
          "internalType": "address",
          "name": "market",
          "type": "address"
        },
        {
          "indexed": true,
          "internalType": "address",
          "name": "receiver",
          "type": "address"
        },
        {
          "indexed": false,
          "internalType": "uint256",
          "name": "netSyIn",
          "type": "uint256"
        },
        {
          "indexed": false,
          "internalType": "uint256",
          "name": "netLpOut",
          "type": "uint256"
        },
        {
          "indexed": false,
          "internalType": "uint256",
          "name": "netYtOut",
          "type": "uint256"
        }
      ],
      "name": "AddLiquiditySingleSyKeepYt",
      "type": "event"
    },
    {
      "anonymous": false,
      "inputs": [
        {
          "indexed": true,
          "internalType": "address",
          "name": "caller",
          "type": "address"
        },
        {
          "indexed": true,
          "internalType": "address",
          "name": "market",
          "type": "address"
        },
        {
          "indexed": true,
          "internalType": "address",
          "name": "token",
          "type": "address"
        },
        {
          "indexed": false,
          "internalType": "address",
          "name": "receiver",
          "type": "address"
        },
        {
          "indexed": false,
          "internalType": "uint256",
          "name": "netTokenIn",
          "type": "uint256"
        },
        {
          "indexed": false,
          "internalType": "uint256",
          "name": "netLpOut",
          "type": "uint256"
        }
      ],
      "name": "AddLiquiditySingleToken",
      "type": "event"
    },
    {
      "anonymous": false,
      "inputs": [
        {
          "indexed": true,
          "internalType": "address",
          "name": "caller",
          "type": "address"
        },
        {
          "indexed": true,
          "internalType": "address",
          "name": "market",
          "type": "address"
        },
        {
          "indexed": true,
          "internalType": "address",
          "name": "token",
          "type": "address"
        },
        {
          "indexed": false,
          "internalType": "address",
          "name": "receiver",
          "type": "address"
        },
        {
          "indexed": false,
          "internalType": "uint256",
          "name": "netTokenIn",
          "type": "uint256"
        },
        {
          "indexed": false,
          "internalType": "uint256",
          "name": "netLpOut",
          "type": "uint256"
        },
        {
          "indexed": false,
          "internalType": "uint256",
          "name": "netYtOut",
          "type": "uint256"
        }
      ],
      "name": "AddLiquiditySingleTokenKeepYt",
      "type": "event"
    },
    {
      "anonymous": false,
      "inputs": [
        {
          "indexed": true,
          "internalType": "address",
          "name": "caller",
          "type": "address"
        },
        {
          "indexed": true,
          "internalType": "address",
          "name": "market",
          "type": "address"
        },
        {
          "indexed": true,
          "internalType": "address",
          "name": "receiver",
          "type": "address"
        },
        {
          "indexed": false,
          "internalType": "uint256",
          "name": "netLpToRemove",
          "type": "uint256"
        },
        {
          "indexed": false,
          "internalType": "uint256",
          "name": "netPtOut",
          "type": "uint256"
        },
        {
          "indexed": false,
          "internalType": "uint256",
          "name": "netSyOut",
          "type": "uint256"
        }
      ],
      "name": "RemoveLiquidityDualSyAndPt",
      "type": "event"
    },
    {
      "anonymous": false,
      "inputs": [
        {
          "indexed": true,
          "internalType": "address",
          "name": "caller",
          "type": "address"
        },
        {
          "indexed": true,
          "internalType": "address",
          "name": "market",
          "type": "address"
        },
        {
          "indexed": true,
          "internalType": "address",
          "name": "tokenOut",
          "type": "address"
        },
        {
          "indexed": false,
          "internalType": "address",
          "name": "receiver",
          "type": "address"
        },
        {
          "indexed": false,
          "internalType": "uint256",
          "name": "netLpToRemove",
          "type": "uint256"
        },
        {
          "indexed": false,
          "internalType": "uint256",
          "name": "netPtOut",
          "type": "uint256"
        },
        {
          "indexed": false,
          "internalType": "uint256",
          "name": "netTokenOut",
          "type": "uint256"
        }
      ],
      "name": "RemoveLiquidityDualTokenAndPt",
      "type": "event"
    },
    {
      "anonymous": false,
      "inputs": [
        {
          "indexed": true,
          "internalType": "address",
          "name": "caller",
          "type": "address"
        },
        {
          "indexed": true,
          "internalType": "address",
          "name": "market",
          "type": "address"
        },
        {
          "indexed": true,
          "internalType": "address",
          "name": "receiver",
          "type": "address"
        },
        {
          "indexed": false,
          "internalType": "uint256",
          "name": "netLpToRemove",
          "type": "uint256"
        },
        {
          "indexed": false,
          "internalType": "uint256",
          "name": "netPtOut",
          "type": "uint256"
        }
      ],
      "name": "RemoveLiquiditySinglePt",
      "type": "event"
    },
    {
      "anonymous": false,
      "inputs": [
        {
          "indexed": true,
          "internalType": "address",
          "name": "caller",
          "type": "address"
        },
        {
          "indexed": true,
          "internalType": "address",
          "name": "market",
          "type": "address"
        },
        {
          "indexed": true,
          "internalType": "address",
          "name": "receiver",
          "type": "address"
        },
        {
          "indexed": false,
          "internalType": "uint256",
          "name": "netLpToRemove",
          "type": "uint256"
        },
        {
          "indexed": false,
          "internalType": "uint256",
          "name": "netSyOut",
          "type": "uint256"
        }
      ],
      "name": "RemoveLiquiditySingleSy",
      "type": "event"
    },
    {
      "anonymous": false,
      "inputs": [
        {
          "indexed": true,
          "internalType": "address",
          "name": "caller",
          "type": "address"
        },
        {
          "indexed": true,
          "internalType": "address",
          "name": "market",
          "type": "address"
        },
        {
          "indexed": true,
          "internalType": "address",
          "name": "token",
          "type": "address"
        },
        {
          "indexed": false,
          "internalType": "address",
          "name": "receiver",
          "type": "address"
        },
        {
          "indexed": false,
          "internalType": "uint256",
          "name": "netLpToRemove",
          "type": "uint256"
        },
        {
          "indexed": false,
          "internalType": "uint256",
          "name": "netTokenOut",
          "type": "uint256"
        }
      ],
      "name": "RemoveLiquiditySingleToken",
      "type": "event"
    },
    {
      "inputs": [
        {
          "internalType": "address",
          "name": "receiver",
          "type": "address"
        },
        {
          "internalType": "address",
          "name": "market",
          "type": "address"
        },
        {
          "internalType": "uint256",
          "name": "netSyDesired",
          "type": "uint256"
        },
        {
          "internalType": "uint256",
          "name": "netPtDesired",
          "type": "uint256"
        },
        {
          "internalType": "uint256",
          "name": "minLpOut",
          "type": "uint256"
        },
        {
          "components": [
            {
              "internalType": "uint256",
              "name": "guessMin",
              "type": "uint256"
            },
            {
              "internalType": "uint256",
              "name": "guessMax",
              "type": "uint256"
            },
            {
              "internalType": "uint256",
              "name": "guessOffchain",
              "type": "uint256"
            },
            {
              "internalType": "uint256",
              "name": "maxIteration",
              "type": "uint256"
            },
            {
              "internalType": "uint256",
              "name": "eps",
              "type": "uint256"
            }
          ],
          "internalType": "struct ApproxParams",
          "name": "guessInitialImpliedRate",
          "type": "tuple"
        }
      ],
      "name": "addLiquidityDualSyAndPt",
      "outputs": [
        {
          "internalType": "uint256",
          "name": "netLpOut",
          "type": "uint256"
        },
        {
          "internalType": "uint256",
          "name": "netSyUsed",
          "type": "uint256"
        },
        {
          "internalType": "uint256",
          "name": "netPtUsed",
          "type": "uint256"
        }
      ],
      "stateMutability": "nonpayable",
      "type": "function"
    },
    {
      "inputs": [
        {
          "internalType": "address",
          "name": "receiver",
          "type": "address"
        },
        {
          "internalType": "address",
          "name": "market",
          "type": "address"
        },
        {
          "components": [
            {
              "internalType": "address",
              "name": "tokenIn",
              "type": "address"
            },
            {
              "internalType": "uint256",
              "name": "netTokenIn",
              "type": "uint256"
            },
            {
              "internalType": "address",
              "name": "tokenMintSy",
              "type": "address"
            },
            {
              "internalType": "address",
              "name": "bulk",
              "type": "address"
            },
            {
              "internalType": "address",
              "name": "euphratesSwap",
              "type": "address"
            },
            {
              "components": [
                {
                  "internalType": "enum SwapType",
                  "name": "swapType",
                  "type": "uint8"
                },
                {
                  "internalType": "address",
                  "name": "extRouter",
                  "type": "address"
                },
                {
                  "internalType": "bytes",
                  "name": "extCalldata",
                  "type": "bytes"
                },
                {
                  "internalType": "bool",
                  "name": "needScale",
                  "type": "bool"
                }
              ],
              "internalType": "struct SwapData",
              "name": "swapData",
              "type": "tuple"
            }
          ],
          "internalType": "struct TokenInput",
          "name": "input",
          "type": "tuple"
        },
        {
          "internalType": "uint256",
          "name": "netPtDesired",
          "type": "uint256"
        },
        {
          "internalType": "uint256",
          "name": "minLpOut",
          "type": "uint256"
        },
        {
          "components": [
            {
              "internalType": "uint256",
              "name": "guessMin",
              "type": "uint256"
            },
            {
              "internalType": "uint256",
              "name": "guessMax",
              "type": "uint256"
            },
            {
              "internalType": "uint256",
              "name": "guessOffchain",
              "type": "uint256"
            },
            {
              "internalType": "uint256",
              "name": "maxIteration",
              "type": "uint256"
            },
            {
              "internalType": "uint256",
              "name": "eps",
              "type": "uint256"
            }
          ],
          "internalType": "struct ApproxParams",
          "name": "guessInitialImpliedRate",
          "type": "tuple"
        }
      ],
      "name": "addLiquidityDualTokenAndPt",
      "outputs": [
        {
          "internalType": "uint256",
          "name": "netLpOut",
          "type": "uint256"
        },
        {
          "internalType": "uint256",
          "name": "netTokenUsed",
          "type": "uint256"
        },
        {
          "internalType": "uint256",
          "name": "netPtUsed",
          "type": "uint256"
        }
      ],
      "stateMutability": "payable",
      "type": "function"
    },
    {
      "inputs": [
        {
          "internalType": "address",
          "name": "receiver",
          "type": "address"
        },
        {
          "internalType": "address",
          "name": "market",
          "type": "address"
        },
        {
          "internalType": "uint256",
          "name": "netSyIn",
          "type": "uint256"
        },
        {
          "internalType": "uint256",
          "name": "minLpOut",
          "type": "uint256"
        },
        {
          "components": [
            {
              "internalType": "uint256",
              "name": "guessMin",
              "type": "uint256"
            },
            {
              "internalType": "uint256",
              "name": "guessMax",
              "type": "uint256"
            },
            {
              "internalType": "uint256",
              "name": "guessOffchain",
              "type": "uint256"
            },
            {
              "internalType": "uint256",
              "name": "maxIteration",
              "type": "uint256"
            },
            {
              "internalType": "uint256",
              "name": "eps",
              "type": "uint256"
            }
          ],
          "internalType": "struct ApproxParams",
          "name": "guessPtReceivedFromSy",
          "type": "tuple"
        },
        {
          "components": [
            {
              "internalType": "uint256",
              "name": "guessMin",
              "type": "uint256"
            },
            {
              "internalType": "uint256",
              "name": "guessMax",
              "type": "uint256"
            },
            {
              "internalType": "uint256",
              "name": "guessOffchain",
              "type": "uint256"
            },
            {
              "internalType": "uint256",
              "name": "maxIteration",
              "type": "uint256"
            },
            {
              "internalType": "uint256",
              "name": "eps",
              "type": "uint256"
            }
          ],
          "internalType": "struct ApproxParams",
          "name": "guessNewImpliedRate",
          "type": "tuple"
        }
      ],
      "name": "addLiquiditySingleSy",
      "outputs": [
        {
          "internalType": "uint256",
          "name": "netLpOut",
          "type": "uint256"
        },
        {
          "internalType": "uint256",
          "name": "netSyFee",
          "type": "uint256"
        }
      ],
      "stateMutability": "nonpayable",
      "type": "function"
    },
    {
      "inputs": [
        {
          "internalType": "address",
          "name": "receiver",
          "type": "address"
        },
        {
          "internalType": "address",
          "name": "market",
          "type": "address"
        },
        {
          "internalType": "uint256",
          "name": "netLpToRemove",
          "type": "uint256"
        },
        {
          "internalType": "uint256",
          "name": "minSyOut",
          "type": "uint256"
        },
        {
          "internalType": "uint256",
          "name": "minPtOut",
          "type": "uint256"
        }
      ],
      "name": "removeLiquidityDualSyAndPt",
      "outputs": [
        {
          "internalType": "uint256",
          "name": "netSyOut",
          "type": "uint256"
        },
        {
          "internalType": "uint256",
          "name": "netPtOut",
          "type": "uint256"
        }
      ],
      "stateMutability": "nonpayable",
      "type": "function"
    },
    {
      "inputs": [
        {
          "internalType": "address",
          "name": "receiver",
          "type": "address"
        },
        {
          "internalType": "address",
          "name": "market",
          "type": "address"
        },
        {
          "internalType": "uint256",
          "name": "netLpToRemove",
          "type": "uint256"
        },
        {
          "components": [
            {
              "internalType": "address",
              "name": "tokenOut",
              "type": "address"
            },
            {
              "internalType": "uint256",
              "name": "minTokenOut",
              "type": "uint256"
            },
            {
              "internalType": "address",
              "name": "tokenRedeemSy",
              "type": "address"
            },
            {
              "internalType": "address",
              "name": "bulk",
              "type": "address"
            },
            {
              "internalType": "address",
              "name": "euphratesSwap",
              "type": "address"
            },
            {
              "components": [
                {
                  "internalType": "enum SwapType",
                  "name": "swapType",
                  "type": "uint8"
                },
                {
                  "internalType": "address",
                  "name": "extRouter",
                  "type": "address"
                },
                {
                  "internalType": "bytes",
                  "name": "extCalldata",
                  "type": "bytes"
                },
                {
                  "internalType": "bool",
                  "name": "needScale",
                  "type": "bool"
                }
              ],
              "internalType": "struct SwapData",
              "name": "swapData",
              "type": "tuple"
            }
          ],
          "internalType": "struct TokenOutput",
          "name": "output",
          "type": "tuple"
        },
        {
          "internalType": "uint256",
          "name": "minPtOut",
          "type": "uint256"
        }
      ],
      "name": "removeLiquidityDualTokenAndPt",
      "outputs": [
        {
          "internalType": "uint256",
          "name": "netTokenOut",
          "type": "uint256"
        },
        {
          "internalType": "uint256",
          "name": "netPtOut",
          "type": "uint256"
        }
      ],
      "stateMutability": "nonpayable",
      "type": "function"
    },
    {
      "inputs": [
        {
          "internalType": "address",
          "name": "receiver",
          "type": "address"
        },
        {
          "internalType": "address",
          "name": "market",
          "type": "address"
        },
        {
          "internalType": "uint256",
          "name": "netLpToRemove",
          "type": "uint256"
        },
        {
          "internalType": "uint256",
          "name": "minSyOut",
          "type": "uint256"
        },
        {
          "components": [
            {
              "internalType": "uint256",
              "name": "guessMin",
              "type": "uint256"
            },
            {
              "internalType": "uint256",
              "name": "guessMax",
              "type": "uint256"
            },
            {
              "internalType": "uint256",
              "name": "guessOffchain",
              "type": "uint256"
            },
            {
              "internalType": "uint256",
              "name": "maxIteration",
              "type": "uint256"
            },
            {
              "internalType": "uint256",
              "name": "eps",
              "type": "uint256"
            }
          ],
          "internalType": "struct ApproxParams",
          "name": "guessNewImpliedRate",
          "type": "tuple"
        }
      ],
      "name": "removeLiquiditySingleSy",
      "outputs": [
        {
          "internalType": "uint256",
          "name": "netSyOut",
          "type": "uint256"
        },
        {
          "internalType": "uint256",
          "name": "netSyFee",
          "type": "uint256"
        }
      ],
      "stateMutability": "nonpayable",
      "type": "function"
    }
  ],
  "bytecode": "0x608060405234801561001057600080fd5b50614365806100206000396000f3fe6080604052600436106100655760003560e01c8063b7d75b8b11610043578063b7d75b8b146100f2578063c0664bab14610112578063e6eaba011461013257600080fd5b80631717fae41461006a578063198438dc146100a45780638ec6e38e146100d2575b600080fd5b34801561007657600080fd5b5061008a610085366004613a24565b610152565b604080519283526020830191909152015b60405180910390f35b6100b76100b2366004613aa4565b610238565b6040805193845260208401929092529082015260600161009b565b3480156100de57600080fd5b5061008a6100ed366004613b1f565b61045f565b3480156100fe57600080fd5b5061008a61010d366004613b7c565b6104d7565b34801561011e57600080fd5b506100b761012d366004613bcd565b61063c565b34801561013e57600080fd5b5061008a61014d366004613c26565b610876565b600080600080886001600160a01b0316632c8ce6bc6040518163ffffffff1660e01b8152600401606060405180830381865afa158015610196573d6000803e3d6000fd5b505050506040513d601f19601f820116820180604052508101906101ba9190613c9a565b92505091506101cb82338b8b610a65565b6101da8a8a838b8b8b8b610a86565b604080518b8152602081018490529296509094506001600160a01b03808d1692908c169133917fb51950711c9b21dc7888d41f68a19540231ffb5f0d19d8f75cbccaf90ffa7fa5910160405180910390a45050965096945050505050565b6000806000806000896001600160a01b0316632c8ce6bc6040518163ffffffff1660e01b8152600401606060405180830381865afa15801561027e573d6000803e3d6000fd5b505050506040513d601f19601f820116820180604052508101906102a29190613c9a565b509150915060006102b68b8460018d610da0565b60405163794052f360e01b815230600482015290915060009081906001600160a01b038e169063794052f39060240161014060405180830381865afa158015610303573d6000803e3d6000fd5b505050506040513d601f19601f820116820180604052508101906103279190613d2a565b905061033581848d42610f9d565b919a50909750925050828214610386576040517fdea0d17600000000000000000000000000000000000000000000000000000000815260048101849052602481018390526044015b60405180910390fd5b898810156103b157604051636a1dbf1b60e01b815260048101899052602481018b905260440161037d565b8b602001359650506103c583338e88610a65565b8b6001600160a01b031663382da3428e83888c6040518563ffffffff1660e01b81526004016103f79493929190613db8565b6060604051808303816000875af1158015610416573d6000803e3d6000fd5b505050506040513d601f19601f8201168201806040525081019061043a9190613e0f565b50909750508887101561044f5761044f613e3d565b5050505096509650969350505050565b60008061046e86338888610a65565b61047b8787878787611008565b60408051888152602081018490529294509092506001600160a01b03808a16929089169133917fd31f02c44717b409d13b92ec9d2eaf1427fb4e63f85f4777f1458fb8d938776191015b60405180910390a49550959350505050565b6000806104e686338888610a65565b604051633dae446f60e21b81526001600160a01b038881166004830181905260248301526044820187905287169063f6b911bc9060640160408051808303816000875af115801561053b573d6000803e3d6000fd5b505050506040513d601f19601f8201168201806040525081019061055f9190613e53565b9092509050838210156105a8576040517f0a4439e6000000000000000000000000000000000000000000000000000000008152600481018390526024810185905260440161037d565b828110156105ec576040517f9cdffc8e000000000000000000000000000000000000000000000000000000008152600481018290526024810184905260440161037d565b60408051868152602081018390529081018390526001600160a01b03808916919088169033907fd9f35a37b64d95edfd8f26adf130ce45f3e9ddf3c7ab8c1fb7224727a339a98e906060016104c5565b6000806000806000896001600160a01b0316632c8ce6bc6040518163ffffffff1660e01b8152600401606060405180830381865afa158015610682573d6000803e3d6000fd5b505050506040513d601f19601f820116820180604052508101906106a69190613c9a565b5060405163794052f360e01b815230600482015291935091506000906001600160a01b038c169063794052f39060240161014060405180830381865afa1580156106f4573d6000803e3d6000fd5b505050506040513d601f19601f820116820180604052508101906107189190613d2a565b9050610726818b8b42610f9d565b91985096509450508786101561075957604051636a1dbf1b60e01b8152600481018790526024810189905260440161037d565b61076583338d88610a65565b61077182338d87610a65565b6040517f382da3420000000000000000000000000000000000000000000000000000000081526001600160a01b038c169063382da342906107bc908f90899089908d90600401613db8565b6060604051808303816000875af11580156107db573d6000803e3d6000fd5b505050506040513d601f19601f820116820180604052508101906107ff9190613e0f565b50909650508786101561081457610814613e3d565b60408051868152602081018690529081018790526001600160a01b03808e1691908d169033907f9334566f6358cd68e33d423fb1c9119c6837e3a2a7a8affaaa5020ed06aec0699060600160405180910390a450505096509650969350505050565b6000806000866001600160a01b0316632c8ce6bc6040518163ffffffff1660e01b8152600401606060405180830381865afa1580156108b9573d6000803e3d6000fd5b505050506040513d601f19601f820116820180604052508101906108dd9190613c9a565b505090506108ed87338989610a65565b6000876001600160a01b031663f6b911bc61090884896110e4565b6040517fffffffff0000000000000000000000000000000000000000000000000000000060e084901b1681526001600160a01b039182166004820152908c166024820152604481018a905260640160408051808303816000875af1158015610974573d6000803e3d6000fd5b505050506040513d601f19601f820116820180604052508101906109989190613e53565b93509050848310156109e0576040517f9cdffc8e000000000000000000000000000000000000000000000000000000008152600481018490526024810186905260440161037d565b6109ee898383896000611124565b93506109fd6020870187613e77565b604080516001600160a01b038c81168252602082018b90529181018690526060810187905291811691908a169033907fbcfac3aca0242d70e941905db1a4ffc8b7e15f3375043f5399d640a8ea3007ce9060800160405180910390a450509550959350505050565b8015610a8057610a806001600160a01b038516848484611309565b50505050565b60405163794052f360e01b8152306004820152600090819081906001600160a01b038a169063794052f39060240161014060405180830381865afa158015610ad2573d6000803e3d6000fd5b505050506040513d601f19601f82011682018060405250810190610af69190613d2a565b90506000896001600160a01b03166368bc9e6a6040518163ffffffff1660e01b8152600401602060405180830381865afa158015610b38573d6000803e3d6000fd5b505050506040513d601f19601f82011682018060405250810190610b5c9190613e94565b90506000896001600160a01b031663a9480e596040518163ffffffff1660e01b8152600401602060405180830381865afa158015610b9e573d6000803e3d6000fd5b505050506040513d601f19601f82011682018060405250810190610bc29190613e94565b90506000610bf7610bdb8c6001600160a01b03166113ba565b8b84610bec368d90038d018d613ead565b889392919088611420565b5050905060008c6001600160a01b031663e70a61268e848b6040516020016040516020818303038152906040526040518563ffffffff1660e01b8152600401610c439493929190613f7b565b60408051808303816000875af1158015610c61573d6000803e3d6000fd5b505050506040513d601f19601f82011682018060405250810190610c859190613e53565b965090506001600160a01b038d1663382da3428f610ca3848f613ff2565b6040517fffffffff0000000000000000000000000000000000000000000000000000000060e085901b1681526001600160a01b039092166004808401919091526024830191909152604482018690526000546064830152600154608483015260025460a483015260035460c48301525460e4820152610104016060604051808303816000875af1158015610d3b573d6000803e3d6000fd5b505050506040513d601f19601f82011682018060405250810190610d5f9190613e0f565b509097505089871015610d8f57604051636a1dbf1b60e01b815260048101889052602481018b905260440161037d565b505050505097509795505050505050565b600080610db060a0840184614005565b610dbe906020810190614052565b9050600080826003811115610dd557610dd561406d565b03610e0057610df5610dea6020860186613e77565b33866020013561168b565b506020830135610f85565b6003826003811115610e1457610e1461406d565b03610e5357610e29610dea6020860186613e77565b610df5610e396020860186613e77565b610e496060870160408801613e77565b8660200135611785565b6000610e626020860186613e77565b6001600160a01b031603610e8557610e80600033866020013561168b565b610eb0565b610eb0610e956020860186613e77565b33610ea660a0880160808901613e77565b8760200135610a65565b610ec060a0850160808601613e77565b6001600160a01b0316632bdb823c6000610edd6020880188613e77565b6001600160a01b031614610ef2576000610ef8565b85602001355b610f056020880188613e77565b6020880135610f1760a08a018a614005565b6040518563ffffffff1660e01b8152600401610f35939291906140c7565b6000604051808303818588803b158015610f4e57600080fd5b505af1158015610f62573d6000803e3d6000fd5b5050505050610f82846040016020810190610f7d9190613e77565b611864565b90505b610f928787838888611902565b979650505050505050565b600080600080600080600080610fc58c610fb68d611ab5565b610fbf8d611ab5565b8c611ae8565b9350935093509350610fd684611ceb565b9750610fe183611ceb565b9650610fec82611ceb565b9550610ff781611ceb565b945050505050945094509450949050565b600080856001600160a01b0316632f13b60c6040518163ffffffff1660e01b8152600401602060405180830381865afa158015611049573d6000803e3d6000fd5b505050506040513d601f19601f8201168201806040525081019061106d91906141b6565b156110845761107d878787611cfa565b9150611096565b61109087878786611e80565b90925090505b838210156110da576040517f0a4439e6000000000000000000000000000000000000000000000000000000008152600481018390526024810185905260440161037d565b9550959350505050565b6000806110f76080840160608501613e77565b6001600160a01b03160361110b578261111b565b61111b6080830160608401613e77565b90505b92915050565b60008061113460a0850185614005565b611142906020810190614052565b905060008160038111156111585761115861406d565b036111715761116a8787878787611fc0565b91506112b4565b60038160038111156111855761118561406d565b036111db576111973087878787611fc0565b91506111bf6111ac6060860160408701613e77565b6111b96020870187613e77565b84611785565b6111d66111cf6020860186613e77565b888461217d565b6112b4565b60006111f96111f060a0870160808801613e77565b88888888611fc0565b905061120b60a0860160808701613e77565b6001600160a01b0316632bdb823c6112296060880160408901613e77565b8361123760a08a018a614005565b6040518463ffffffff1660e01b8152600401611255939291906140c7565b600060405180830381600087803b15801561126f57600080fd5b505af1158015611283573d6000803e3d6000fd5b506112999250610f7d9150506020870187613e77565b92506112b26112ab6020870187613e77565b898561217d565b505b83602001358210156112ff576040517fc5b5576d000000000000000000000000000000000000000000000000000000008152600481018390526020850135602482015260440161037d565b5095945050505050565b6040516001600160a01b0380851660248301528316604482015260648101829052610a809085907f23b872dd00000000000000000000000000000000000000000000000000000000906084015b60408051601f198184030181529190526020810180517bffffffffffffffffffffffffffffffffffffffffffffffffffffffff167fffffffff000000000000000000000000000000000000000000000000000000009093169290921790915261224f565b6000816001600160a01b0316631d52edc46040518163ffffffff1660e01b81526004016020604051808303816000875af11580156113fc573d6000803e3d6000fd5b505050506040513d601f19601f8201168201806040525081019061111e9190613e94565b6040805160c08101825287815260208101879052908101859052606081018490526080810183905260a0810182905260009081908190816114638b8b888b612337565b90508160800151604001516000036115045761149882608001516020015161149383856000015160000151612478565b61250c565b60808301805160200191909152516114af90612522565b8151604001516000036115045760405162461bcd60e51b815260206004820152600e60248201527f6e6f206578697374696e67206c70000000000000000000000000000000000000604482015260640161037d565b60005b82608001516060015181101561164c576000611527846080015183612597565b9050600080600061154287600001518789602001518761261c565b92509250925086604001518311156115725761155f600185613ff2565b6080880151602001525061163c92505050565b86515160009081908190611587908890613ff2565b9050600084878c60000151602001516115a091906141d3565b6115aa9190613ff2565b90506115b681896141e6565b925081878c604001516115c99190613ff2565b6115d391906141e6565b935050506115ea81838b608001516080015161264e565b156116035750939950919750955061167f945050505050565b818111611620576116158660016141d3565b60808a015152611635565b61162b600187613ff2565b60808a0151602001525b5050505050505b611645816141fd565b9050611507565b506040517ffa711db200000000000000000000000000000000000000000000000000000000815260040160405180910390fd5b96509650969350505050565b6001600160a01b0383166116ed578034146116e85760405162461bcd60e51b815260206004820152600c60248201527f657468206d69736d617463680000000000000000000000000000000000000000604482015260640161037d565b505050565b80156116e8576040517f23b872dd0000000000000000000000000000000000000000000000000000000081526001600160a01b038381166004830152306024830152604482018390528416906323b872dd906064016020604051808303816000875af1158015611761573d6000803e3d6000fd5b505050506040513d601f19601f82011682018060405250810190610a8091906141b6565b6001600160a01b0383166117ec57816001600160a01b031663d0e30db0826040518263ffffffff1660e01b81526004016000604051808303818588803b1580156117ce57600080fd5b505af11580156117e2573d6000803e3d6000fd5b5050505050505050565b6040517f2e1a7d4d000000000000000000000000000000000000000000000000000000008152600481018290526001600160a01b03841690632e1a7d4d90602401600060405180830381600087803b15801561184757600080fd5b505af115801561185b573d6000803e3d6000fd5b50505050505050565b60006001600160a01b038216156118fb576040517f70a082310000000000000000000000000000000000000000000000000000000081523060048201526001600160a01b038316906370a0823190602401602060405180830381865afa1580156118d2573d6000803e3d6000fd5b505050506040513d601f19601f820116820180604052508101906118f69190613e94565b61111e565b4792915050565b600080806119166060850160408601613e77565b6001600160a01b03161461192b57600061192d565b845b905060006119416080850160608601613e77565b6001600160a01b0316146119fd5761195f6080840160608501613e77565b6040517fb27670700000000000000000000000000000000000000000000000000000000081526001600160a01b0389811660048301526024820188905260448201879052919091169063b276707090839060640160206040518083038185885af11580156119d1573d6000803e3d6000fd5b50505050506040513d601f19601f820116820180604052508101906119f69190613e94565b91506112ff565b6001600160a01b0386166320e8c5658289611a1e6060880160408901613e77565b6040517fffffffff0000000000000000000000000000000000000000000000000000000060e086901b1681526001600160a01b03928316600482015291166024820152604481018990526064810188905260840160206040518083038185885af1158015611a90573d6000803e3d6000fd5b50505050506040513d601f19601f82011682018060405250810190610f929190613e94565b60007f7fffffffffffffffffffffffffffffffffffffffffffffffffffffffffffffff821115611ae457600080fd5b5090565b6000808080861580611af8575085155b15611b2f576040517f25daaec300000000000000000000000000000000000000000000000000000000815260040160405180910390fd5b60a08801518510611b6c576040517fb2094b5900000000000000000000000000000000000000000000000000000000815260040160405180910390fd5b8760400151600003611bb9576103e8611b9d611b98611b93611b8e8a8c614217565b611ceb565b612697565b611ab5565b611ba79190614247565b92506103e89350869150859050611c5c565b8751604089015160009190611bce9089614217565b611bd89190614284565b9050600089602001518a604001518a611bf19190614217565b611bfb9190614284565b905080821215611c31578194508792508960400151858b60200151611c209190614217565b611c2a9190614284565b9350611c59565b8094508893508960400151858b60000151611c4c9190614217565b611c569190614284565b92505b50505b60008313611c96576040517fccbf546800000000000000000000000000000000000000000000000000000000815260040160405180910390fd5b8188602001818151611ca891906142b2565b905250875181908990611cbc9083906142b2565b905250611cc984846142b2565b88604001818151611cda91906142b2565b905250929791965094509092509050565b600080821215611ae457600080fd5b600080836001600160a01b0316632c8ce6bc6040518163ffffffff1660e01b8152600401606060405180830381865afa158015611d3b573d6000803e3d6000fd5b505050506040513d601f19601f82011682018060405250810190611d5f9190613c9a565b604051633dae446f60e21b81526001600160a01b03898116600483015280831660248301526044820188905291945060009350908716915063f6b911bc9060640160408051808303816000875af1158015611dbe573d6000803e3d6000fd5b505050506040513d601f19601f82011682018060405250810190611de29190613e53565b506040517fbcb7ea5d0000000000000000000000000000000000000000000000000000000081526001600160a01b0388811660048301529192509083169063bcb7ea5d906024016020604051808303816000875af1158015611e48573d6000803e3d6000fd5b505050506040513d601f19601f82011682018060405250810190611e6c9190613e94565b611e7690826141d3565b9695505050505050565b604051633dae446f60e21b81526001600160a01b038581166004830152841660248201819052604482018490526000918291829182919063f6b911bc9060640160408051808303816000875af1158015611ede573d6000803e3d6000fd5b505050506040513d601f19601f82011682018060405250810190611f029190613e53565b60408051600080825260208201928390527f29032bad00000000000000000000000000000000000000000000000000000000909252929450909250906001600160a01b038916906329032bad90611f62908c9086908b9060248101613f7b565b60408051808303816000875af1158015611f80573d6000803e3d6000fd5b505050506040513d601f19601f82011682018060405250810190611fa49190613e53565b94509050611fb281846141d3565b945050505094509492505050565b60008115611fdd57611fdd8533611fd788876110e4565b87610a65565b6000611fef6080850160608601613e77565b6001600160a01b0316146120b05761200d6080840160608501613e77565b6040517f83f5b7660000000000000000000000000000000000000000000000000000000081526001600160a01b03888116600483015260248201879052600060448301526001606483015291909116906383f5b766906084016020604051808303816000875af1158015612085573d6000803e3d6000fd5b505050506040513d601f19601f820116820180604052508101906120a99190613e94565b9050612174565b6001600160a01b03851663769f8e5d87866120d16060880160408901613e77565b60405160e085901b7fffffffff000000000000000000000000000000000000000000000000000000001681526001600160a01b03938416600482015260248101929092529091166044820152600060648201526001608482015260a4016020604051808303816000875af115801561214d573d6000803e3d6000fd5b505050506040513d601f19601f820116820180604052508101906121719190613e94565b90505b95945050505050565b8060000361218a57505050565b6001600160a01b03831661223b576000826001600160a01b03168260405160006040518083038185875af1925050503d80600081146121e5576040519150601f19603f3d011682016040523d82523d6000602084013e6121ea565b606091505b5050905080610a805760405162461bcd60e51b815260206004820152600f60248201527f6574682073656e64206661696c65640000000000000000000000000000000000604482015260640161037d565b6116e86001600160a01b0384168383612707565b60006122a4826040518060400160405280602081526020017f5361666545524332303a206c6f772d6c6576656c2063616c6c206661696c6564815250856001600160a01b03166127509092919063ffffffff16565b90508051600014806122c55750808060200190518101906122c591906141b6565b6116e85760405162461bcd60e51b815260206004820152602a60248201527f5361666545524332303a204552433230206f7065726174696f6e20646964206e60448201527f6f74207375636365656400000000000000000000000000000000000000000000606482015260840161037d565b6123626040518060800160405280600081526020016000815260200160008152602001600081525090565b60c0850151821061239f576040517fb2094b5900000000000000000000000000000000000000000000000000000000815260040160405180910390fd5b6000828660c001516123b19190613ff2565b90506123c9866123c462015180846141e6565b61275f565b825260208601516123db9086906127d4565b6020830152855115806123f057506020820151155b1561243757855160208301516040517fb1c4aefb0000000000000000000000000000000000000000000000000000000081526004810192909252602482015260440161037d565b612456866000015187610120015184602001518560000151888661280b565b604083015260e086015161246a908261288e565b606083015250949350505050565b6000806124a56124a085600001518660400151876060015161249a9190614247565b906128d0565b6128f3565b905060006124c56124be670de0b6b3a7640000846142b2565b8390612e0a565b905060006124e38660200151866124dc91906142b2565b83906128d0565b905060006124f18287614247565b90506103e8612502826103e76141e6565b610f9291906142da565b600081831061251b578161111b565b5090919050565b6020810151815111806125405750670de0b6b3a76400008160800151115b15612594578051602082015160808301516040517fb301af0400000000000000000000000000000000000000000000000000000000815260048101939093526024830191909152604482015260640161037d565b50565b6000811580156125aa5750604083015115155b156125ba5750604082015161111e565b60208301518351116125ea57602083015183516002916125d9916141d3565b6125e391906142da565b905061111e565b6040517ffa711db200000000000000000000000000000000000000000000000000000000815260040160405180910390fd5b6000808080808061262f8a8a8a8a612e30565b9250925092508261263f906142ee565b9a919950975095505050505050565b60008361266c8461266785670de0b6b3a7640000613ff2565b612f85565b1115801561268f575061268b8361266784670de0b6b3a76400006141d3565b8411155b949350505050565b600060038211156126f857508060006126b16002836142da565b6126bc9060016141d3565b90505b818110156126f2579050806002816126d781866142da565b6126e191906141d3565b6126eb91906142da565b90506126bf565b50919050565b8115612702575060015b919050565b6040516001600160a01b0383166024820152604481018290526116e89084907fa9059cbb0000000000000000000000000000000000000000000000000000000090606401611356565b606061268f8484600085612fa5565b600061276a82611ab5565b61277c611b986201518061016d6141e6565b846080015161278b9190614217565b6127959190614284565b90506000811361111e576040517f1ca418760000000000000000000000000000000000000000000000000000000081526004810182905260240161037d565b600080600083126127e65760016127ea565b6000195b9050612801611b98856127fc8661308c565b61309e565b61268f9082614217565b6000806128198785856130bd565b9050670de0b6b3a76400008112156128475760405163329e322960e21b81526004810182905260240161037d565b600061285d612856888b6142b2565b8a90612e0a565b9050600061286a8261317d565b90506128768188612e0a565b6128809084614247565b9a9950505050505050505050565b6000806128a06201518061016d6141e6565b620151806128ae85876141e6565b6128b891906141e6565b6128c291906142da565b905061268f6124a082611ab5565b6000806128dd8385614217565b9050670de0b6b3a7640000815b05949350505050565b60007ffffffffffffffffffffffffffffffffffffffffffffffffdc702bd3a30fc0000821215801561292e575068070c1cc73b00c800008213155b61297a5760405162461bcd60e51b815260206004820152601060248201527f496e76616c6964206578706f6e656e7400000000000000000000000000000000604482015260640161037d565b60008212156129b35761298f826000036128f3565b6ec097ce7bc90715b34b9f1000000000816129ac576129ac61426e565b0592915050565b60006806f05b59d3b20000008312612a0957507ffffffffffffffffffffffffffffffffffffffffffffffff90fa4a62c4e00000090910190770195e54c5dd42177f53a27172fa9ec630262827000000000612a55565b6803782dace9d90000008312612a5157507ffffffffffffffffffffffffffffffffffffffffffffffffc87d2531627000000909101906b1425982cf597cd205cef7380612a55565b5060015b6064929092029168056bc75e2d6310000068ad78ebc5ac620000008412612abb577fffffffffffffffffffffffffffffffffffffffffffffff5287143a539e0000009093019268056bc75e2d631000006e01855144814a7ff805980ff008400082020590505b6856bc75e2d6310000008412612b0d577fffffffffffffffffffffffffffffffffffffffffffffffa9438a1d29cf0000009093019268056bc75e2d631000006b02df0ab5a80a22c61ab5a70082020590505b682b5e3af16b188000008412612b5d577fffffffffffffffffffffffffffffffffffffffffffffffd4a1c50e94e78000009093019268056bc75e2d63100000693f1fce3da636ea5cf85082020590505b6815af1d78b58c4000008412612bad577fffffffffffffffffffffffffffffffffffffffffffffffea50e2874a73c000009093019268056bc75e2d63100000690127fa27722cc06cc5e282020590505b680ad78ebc5ac62000008412612bfc577ffffffffffffffffffffffffffffffffffffffffffffffff5287143a539e000009093019268056bc75e2d6310000068280e60114edb805d0382020590505b68056bc75e2d631000008412612c4b577ffffffffffffffffffffffffffffffffffffffffffffffffa9438a1d29cf000009093019268056bc75e2d63100000680ebc5fb4174612111082020590505b6802b5e3af16b18800008412612c9a577ffffffffffffffffffffffffffffffffffffffffffffffffd4a1c50e94e7800009093019268056bc75e2d631000006808f00f760a4b2db55d82020590505b68015af1d78b58c400008412612ce9577ffffffffffffffffffffffffffffffffffffffffffffffffea50e2874a73c00009093019268056bc75e2d631000006806f5f177578893793782020590505b68056bc75e2d631000008481019085906002908280020505918201919050600368056bc75e2d631000008783020505918201919050600468056bc75e2d631000008783020505918201919050600568056bc75e2d631000008783020505918201919050600668056bc75e2d631000008783020505918201919050600768056bc75e2d631000008783020505918201919050600868056bc75e2d631000008783020505918201919050600968056bc75e2d631000008783020505918201919050600a68056bc75e2d631000008783020505918201919050600b68056bc75e2d631000008783020505918201919050600c68056bc75e2d631000008783020505918201919050606468056bc75e2d63100000848402058502059695505050505050565b600080612e1f670de0b6b3a764000085614217565b90508281816128ea576128ea61426e565b600080600080612e538860000151886020015189600001518a60400151896131f0565b90506000612e69612e648784612e0a565b6132bf565b60608901519091506000871315612ed8576000612e868483612e0a565b9050670de0b6b3a7640000811215612eb45760405163329e322960e21b81526004810182905260240161037d565b612ed0612ec983670de0b6b3a7640000614247565b84906128d0565b915050612f05565b612f0281612eee81670de0b6b3a7640000614247565b612ef89085614217565b612e649190614284565b90505b60006064612f178c6101000151611ab5565b612f219084614217565b612f2b9190614284565b90506000612f398385614247565b905060008112612f5257612f4d8a826132cd565b612f5c565b612f5c8a826132fa565b9750612f688a846132cd565b9650612f748a836132cd565b955050505050509450945094915050565b600080612f9283856141e6565b670de0b6b3a76400009004949350505050565b60608247101561301d5760405162461bcd60e51b815260206004820152602660248201527f416464726573733a20696e73756666696369656e742062616c616e636520666f60448201527f722063616c6c0000000000000000000000000000000000000000000000000000606482015260840161037d565b600080866001600160a01b03168587604051613039919061430a565b60006040518083038185875af1925050503d8060008114613076576040519150601f19603f3d011682016040523d82523d6000602084013e61307b565b606091505b5091509150610f9287838387613327565b6000808213611ae4576118f6826142ee565b6000670de0b6b3a76400006130b384846141e6565b61111b91906142da565b600080806130d0611b9861016d876142da565b905060006130e061016d886142da565b905060006130ee82876141e6565b905060006130fe6124a0846133a0565b9050600061310e6124a0846133a0565b905060006131438361249a61312b82670de0b6b3a7640000614247565b61313d86670de0b6b3a7640000614247565b90612e0a565b90508161315087836128d0565b61315a91906142b2565b965061316e670de0b6b3a764000088612e0a565b9b9a5050505050505050505050565b6000670de0b6b3a764000082036131c0576040517fa9c8b14d00000000000000000000000000000000000000000000000000000000815260040160405180910390fd5b60006131de6131d784670de0b6b3a7640000614247565b8490612e0a565b90506131e9816133b7565b9392505050565b6000806131fd8784613453565b9050600061320e6124be888a6142b2565b9050670d529ae9e8600000811315613263576040517ffc68d09e00000000000000000000000000000000000000000000000000000000815260048101829052670d529ae9e8600000602482015260440161037d565b600061326e8261317d565b90508561327b8289612e0a565b61328591906142b2565b9350670de0b6b3a76400008412156132b35760405163329e322960e21b81526004810185905260240161037d565b50505095945050505050565b600061111e82600019614217565b600080600083126132df5760016132e3565b6000195b9050612801611b98856132f58661308c565b6134af565b6000806000831261330c576001613310565b6000195b9050612801611b98856133228661308c565b6134c4565b6060831561339657825160000361338f576001600160a01b0385163b61338f5760405162461bcd60e51b815260206004820152601d60248201527f416464726573733a2063616c6c20746f206e6f6e2d636f6e7472616374000000604482015260640161037d565b508161268f565b61268f83836134f0565b60006133ab82611ab5565b61111e90600019614217565b60008082136134085760405162461bcd60e51b815260206004820152600d60248201527f6f7574206f6620626f756e647300000000000000000000000000000000000000604482015260640161037d565b670c7d713b49da0000821380156134265750670f43fc2c04ee000082125b1561344a57670de0b6b3a764000061343d8361351a565b816129ac576129ac61426e565b61111e82613652565b6000818312156134a55760405162461bcd60e51b815260206004820152600860248201527f6e65676174697665000000000000000000000000000000000000000000000000604482015260640161037d565b61111b8284614247565b6000826130b3670de0b6b3a7640000846141e6565b6000826001816134dc670de0b6b3a7640000866141e6565b6134e691906141d3565b6130b39190613ff2565b8151156135005781518083602001fd5b8060405162461bcd60e51b815260040161037d919061431c565b670de0b6b3a7640000026000806ec097ce7bc90715b34b9f1000000000808401907fffffffffffffffffffffffffffffffffff3f68318436f8ea4cb460f0000000008501028161356c5761356c61426e565b05905060006ec097ce7bc90715b34b9f100000000082800205905081806ec097ce7bc90715b34b9f100000000081840205915060038205016ec097ce7bc90715b34b9f100000000082840205915060058205016ec097ce7bc90715b34b9f100000000082840205915060078205016ec097ce7bc90715b34b9f100000000082840205915060098205016ec097ce7bc90715b34b9f1000000000828402059150600b8205016ec097ce7bc90715b34b9f1000000000828402059150600d8205016ec097ce7bc90715b34b9f1000000000828402059150600f82050160020295945050505050565b6000670de0b6b3a76400008212156136945761368b826ec097ce7bc90715b34b9f1000000000816136855761368561426e565b05613652565b60000392915050565b60007e1600ef3172e58d2e933ec884fde10064c63b5372d805e203c000000000000083126136e557770195e54c5dd42177f53a27172fa9ec630262827000000000830592506806f05b59d3b2000000015b73011798004d755d3c8bc8e03204cf44619e000000831261371d576b1425982cf597cd205cef7380830592506803782dace9d9000000015b606492830292026e01855144814a7ff805980ff00840008312613765576e01855144814a7ff805980ff008400068056bc75e2d63100000840205925068ad78ebc5ac62000000015b6b02df0ab5a80a22c61ab5a70083126137a0576b02df0ab5a80a22c61ab5a70068056bc75e2d6310000084020592506856bc75e2d631000000015b693f1fce3da636ea5cf85083126137d757693f1fce3da636ea5cf85068056bc75e2d631000008402059250682b5e3af16b18800000015b690127fa27722cc06cc5e2831261380e57690127fa27722cc06cc5e268056bc75e2d6310000084020592506815af1d78b58c400000015b68280e60114edb805d0383126138435768280e60114edb805d0368056bc75e2d631000008402059250680ad78ebc5ac6200000015b680ebc5fb41746121110831261386e57680ebc5fb4174612111068056bc75e2d631000009384020592015b6808f00f760a4b2db55d83126138a3576808f00f760a4b2db55d68056bc75e2d6310000084020592506802b5e3af16b1880000015b6806f5f177578893793783126138d8576806f5f177578893793768056bc75e2d63100000840205925068015af1d78b58c40000015b6806248f33704b286603831261390c576806248f33704b28660368056bc75e2d63100000840205925067ad78ebc5ac620000015b6805c548670b9510e7ac8312613940576805c548670b9510e7ac68056bc75e2d6310000084020592506756bc75e2d6310000015b600068056bc75e2d63100000840168056bc75e2d6310000080860302816139695761396961426e565b059050600068056bc75e2d63100000828002059050818068056bc75e2d63100000818402059150600382050168056bc75e2d63100000828402059150600582050168056bc75e2d63100000828402059150600782050168056bc75e2d63100000828402059150600982050168056bc75e2d63100000828402059150600b820501600202606485820105979650505050505050565b6001600160a01b038116811461259457600080fd5b600060a082840312156126f257600080fd5b6000806000806000806101c08789031215613a3e57600080fd5b8635613a49816139fd565b95506020870135613a59816139fd565b94506040870135935060608701359250613a768860808901613a12565b9150613a86886101208901613a12565b90509295509295509295565b600060c082840312156126f257600080fd5b6000806000806000806101408789031215613abe57600080fd5b8635613ac9816139fd565b95506020870135613ad9816139fd565b9450604087013567ffffffffffffffff811115613af557600080fd5b613b0189828a01613a92565b9450506060870135925060808701359150613a868860a08901613a12565b60008060008060006101208688031215613b3857600080fd5b8535613b43816139fd565b94506020860135613b53816139fd565b93506040860135925060608601359150613b708760808801613a12565b90509295509295909350565b600080600080600060a08688031215613b9457600080fd5b8535613b9f816139fd565b94506020860135613baf816139fd565b94979496505050506040830135926060810135926080909101359150565b6000806000806000806101408789031215613be757600080fd5b8635613bf2816139fd565b95506020870135613c02816139fd565b9450604087013593506060870135925060808701359150613a868860a08901613a12565b600080600080600060a08688031215613c3e57600080fd5b8535613c49816139fd565b94506020860135613c59816139fd565b935060408601359250606086013567ffffffffffffffff811115613c7c57600080fd5b613c8888828901613a92565b95989497509295608001359392505050565b600080600060608486031215613caf57600080fd5b8351613cba816139fd565b6020850151909350613ccb816139fd565b6040850151909250613cdc816139fd565b809150509250925092565b604051610140810167ffffffffffffffff81118282101715613d1957634e487b7160e01b600052604160045260246000fd5b60405290565b8051612702816139fd565b60006101408284031215613d3d57600080fd5b613d45613ce7565b825181526020830151602082015260408301516040820152613d6960608401613d1f565b60608201526080830151608082015260a083015160a082015260c083015160c082015260e083015160e08201526101008084015181830152506101208084015181830152508091505092915050565b6001600160a01b038516815260208101849052604081018390526101008101612174606083018480358252602081013560208301526040810135604083015260608101356060830152608081013560808301525050565b600080600060608486031215613e2457600080fd5b8351925060208401519150604084015190509250925092565b634e487b7160e01b600052600160045260246000fd5b60008060408385031215613e6657600080fd5b505080516020909101519092909150565b600060208284031215613e8957600080fd5b81356131e9816139fd565b600060208284031215613ea657600080fd5b5051919050565b600060a08284031215613ebf57600080fd5b60405160a0810181811067ffffffffffffffff82111715613ef057634e487b7160e01b600052604160045260246000fd5b806040525082358152602083013560208201526040830135604082015260608301356060820152608083013560808201528091505092915050565b60005b83811015613f46578181015183820152602001613f2e565b50506000910152565b60008151808452613f67816020860160208601613f2b565b601f01601f19169290920160200192915050565b60006101006001600160a01b0387168352856020840152613fca604084018680358252602081013560208301526040810135604083015260608101356060830152608081013560808301525050565b8060e0840152610f9281840185613f4f565b634e487b7160e01b600052601160045260246000fd5b8181038181111561111e5761111e613fdc565b600082357fffffffffffffffffffffffffffffffffffffffffffffffffffffffffffffff8183360301811261403957600080fd5b9190910192915050565b80356004811061270257600080fd5b60006020828403121561406457600080fd5b61111b82614043565b634e487b7160e01b600052602160045260246000fd5b818352818160208501375060006020828401015260006020601f19601f840116840101905092915050565b801515811461259457600080fd5b8035612702816140ae565b60006001600160a01b038086168352846020840152606060408401526140ec84614043565b6004811061410a57634e487b7160e01b600052602160045260246000fd5b6060840152602084013561411d816139fd565b1660808301526040830135368490037fffffffffffffffffffffffffffffffffffffffffffffffffffffffffffffffe101811261415957600080fd5b830160208101903567ffffffffffffffff81111561417657600080fd5b80360382131561418557600080fd5b608060a085015261419a60e085018284614083565b9150506141a9606085016140bc565b80151560c08501526112ff565b6000602082840312156141c857600080fd5b81516131e9816140ae565b8082018082111561111e5761111e613fdc565b808202811582820484141761111e5761111e613fdc565b6000600019820361421057614210613fdc565b5060010190565b80820260008212600160ff1b8414161561423357614233613fdc565b818105831482151761111e5761111e613fdc565b818103600083128015838313168383128216171561426757614267613fdc565b5092915050565b634e487b7160e01b600052601260045260246000fd5b6000826142935761429361426e565b6000198314600160ff1b831416156142ad576142ad613fdc565b500590565b80820182811260008312801582168215821617156142d2576142d2613fdc565b505092915050565b6000826142e9576142e961426e565b500490565b6000600160ff1b820361430357614303613fdc565b5060000390565b60008251614039818460208701613f2b565b60208152600061111b6020830184613f4f56fea2646970667358221220bd99ea401481e92be76d850e55d15208c96f4b5eb3714d4ae211004727353bf364736f6c63430008110033",
  "linkReferences": {},
  "deployedLinkReferences": {}
}