{
  "_format": "hh-sol-artifact-1",
  "contractName": "ActionAddRemoveLiq",
  "sourceName": "contracts/router/ActionAddRemoveLiq.sol",
  "abi": [
    {
      "inputs": [],
      "name": "ApproxFail",
      "type": "error"
    },
    {
      "inputs": [
        {
          "internalType": "uint256",
          "name": "guessMin",
          "type": "uint256"
        },
        {
          "internalType": "uint256",
          "name": "guessMax",
          "type": "uint256"
        },
        {
          "internalType": "uint256",
          "name": "eps",
          "type": "uint256"
        }
      ],
      "name": "ApproxParamsInvalid",
      "type": "error"
    },
    {
      "inputs": [
        {
          "internalType": "int256",
          "name": "exchangeRate",
          "type": "int256"
        }
      ],
      "name": "MarketExchangeRateBelowOne",
      "type": "error"
    },
    {
      "inputs": [],
      "name": "MarketExpired",
      "type": "error"
    },
    {
      "inputs": [],
      "name": "MarketProportionMustNotEqualOne",
      "type": "error"
    },
    {
      "inputs": [
        {
          "internalType": "int256",
          "name": "proportion",
          "type": "int256"
        },
        {
          "internalType": "int256",
          "name": "maxProportion",
          "type": "int256"
        }
      ],
      "name": "MarketProportionTooHigh",
      "type": "error"
    },
    {
      "inputs": [
        {
          "internalType": "int256",
          "name": "rateScalar",
          "type": "int256"
        }
      ],
      "name": "MarketRateScalarBelowZero",
      "type": "error"
    },
    {
      "inputs": [],
      "name": "MarketZeroAmountsInput",
      "type": "error"
    },
    {
      "inputs": [],
      "name": "MarketZeroAmountsOutput",
      "type": "error"
    },
    {
      "inputs": [
        {
          "internalType": "int256",
          "name": "totalPt",
          "type": "int256"
        },
        {
          "internalType": "int256",
          "name": "totalAsset",
          "type": "int256"
        }
      ],
      "name": "MarketZeroTotalPtOrTotalAsset",
      "type": "error"
    },
    {
      "inputs": [
        {
          "internalType": "uint256",
          "name": "actualLpOut",
          "type": "uint256"
        },
        {
          "internalType": "uint256",
          "name": "requiredLpOut",
          "type": "uint256"
        }
      ],
      "name": "RouterInsufficientLpOut",
      "type": "error"
    },
    {
      "inputs": [
        {
          "internalType": "uint256",
          "name": "actualPtOut",
          "type": "uint256"
        },
        {
          "internalType": "uint256",
          "name": "requiredPtOut",
          "type": "uint256"
        }
      ],
      "name": "RouterInsufficientPtOut",
      "type": "error"
    },
    {
      "inputs": [
        {
          "internalType": "uint256",
          "name": "actualSyOut",
          "type": "uint256"
        },
        {
          "internalType": "uint256",
          "name": "requiredSyOut",
          "type": "uint256"
        }
      ],
      "name": "RouterInsufficientSyOut",
      "type": "error"
    },
    {
      "inputs": [
        {
          "internalType": "uint256",
          "name": "actualTokenOut",
          "type": "uint256"
        },
        {
          "internalType": "uint256",
          "name": "requiredTokenOut",
          "type": "uint256"
        }
      ],
      "name": "RouterInsufficientTokenOut",
      "type": "error"
    },
    {
      "inputs": [
        {
          "internalType": "uint256",
          "name": "actualYtOut",
          "type": "uint256"
        },
        {
          "internalType": "uint256",
          "name": "requiredYtOut",
          "type": "uint256"
        }
      ],
      "name": "RouterInsufficientYtOut",
      "type": "error"
    },
    {
      "inputs": [
        {
          "internalType": "uint256",
          "name": "netSyDesired",
          "type": "uint256"
        },
        {
          "internalType": "uint256",
          "name": "netSyUsed",
          "type": "uint256"
        }
      ],
      "name": "RouterNotAllSyUsed",
      "type": "error"
    },
    {
      "anonymous": false,
      "inputs": [
        {
          "indexed": true,
          "internalType": "address",
          "name": "caller",
          "type": "address"
        },
        {
          "indexed": true,
          "internalType": "address",
          "name": "market",
          "type": "address"
        },
        {
          "indexed": true,
          "internalType": "address",
          "name": "receiver",
          "type": "address"
        },
        {
          "indexed": false,
          "internalType": "uint256",
          "name": "netSyUsed",
          "type": "uint256"
        },
        {
          "indexed": false,
          "internalType": "uint256",
          "name": "netPtUsed",
          "type": "uint256"
        },
        {
          "indexed": false,
          "internalType": "uint256",
          "name": "netLpOut",
          "type": "uint256"
        }
      ],
      "name": "AddLiquidityDualSyAndPt",
      "type": "event"
    },
    {
      "anonymous": false,
      "inputs": [
        {
          "indexed": true,
          "internalType": "address",
          "name": "caller",
          "type": "address"
        },
        {
          "indexed": true,
          "internalType": "address",
          "name": "market",
          "type": "address"
        },
        {
          "indexed": true,
          "internalType": "address",
          "name": "tokenIn",
          "type": "address"
        },
        {
          "indexed": false,
          "internalType": "address",
          "name": "receiver",
          "type": "address"
        },
        {
          "indexed": false,
          "internalType": "uint256",
          "name": "netTokenUsed",
          "type": "uint256"
        },
        {
          "indexed": false,
          "internalType": "uint256",
          "name": "netPtUsed",
          "type": "uint256"
        },
        {
          "indexed": false,
          "internalType": "uint256",
          "name": "netLpOut",
          "type": "uint256"
        }
      ],
      "name": "AddLiquidityDualTokenAndPt",
      "type": "event"
    },
    {
      "anonymous": false,
      "inputs": [
        {
          "indexed": true,
          "internalType": "address",
          "name": "caller",
          "type": "address"
        },
        {
          "indexed": true,
          "internalType": "address",
          "name": "market",
          "type": "address"
        },
        {
          "indexed": true,
          "internalType": "address",
          "name": "receiver",
          "type": "address"
        },
        {
          "indexed": false,
          "internalType": "uint256",
          "name": "netPtIn",
          "type": "uint256"
        },
        {
          "indexed": false,
          "internalType": "uint256",
          "name": "netLpOut",
          "type": "uint256"
        }
      ],
      "name": "AddLiquiditySinglePt",
      "type": "event"
    },
    {
      "anonymous": false,
      "inputs": [
        {
          "indexed": true,
          "internalType": "address",
          "name": "caller",
          "type": "address"
        },
        {
          "indexed": true,
          "internalType": "address",
          "name": "market",
          "type": "address"
        },
        {
          "indexed": true,
          "internalType": "address",
          "name": "receiver",
          "type": "address"
        },
        {
          "indexed": false,
          "internalType": "uint256",
          "name": "netSyIn",
          "type": "uint256"
        },
        {
          "indexed": false,
          "internalType": "uint256",
          "name": "netLpOut",
          "type": "uint256"
        }
      ],
      "name": "AddLiquiditySingleSy",
      "type": "event"
    },
    {
      "anonymous": false,
      "inputs": [
        {
          "indexed": true,
          "internalType": "address",
          "name": "caller",
          "type": "address"
        },
        {
          "indexed": true,
          "internalType": "address",
          "name": "market",
          "type": "address"
        },
        {
          "indexed": true,
          "internalType": "address",
          "name": "receiver",
          "type": "address"
        },
        {
          "indexed": false,
          "internalType": "uint256",
          "name": "netSyIn",
          "type": "uint256"
        },
        {
          "indexed": false,
          "internalType": "uint256",
          "name": "netLpOut",
          "type": "uint256"
        },
        {
          "indexed": false,
          "internalType": "uint256",
          "name": "netYtOut",
          "type": "uint256"
        }
      ],
      "name": "AddLiquiditySingleSyKeepYt",
      "type": "event"
    },
    {
      "anonymous": false,
      "inputs": [
        {
          "indexed": true,
          "internalType": "address",
          "name": "caller",
          "type": "address"
        },
        {
          "indexed": true,
          "internalType": "address",
          "name": "market",
          "type": "address"
        },
        {
          "indexed": true,
          "internalType": "address",
          "name": "token",
          "type": "address"
        },
        {
          "indexed": false,
          "internalType": "address",
          "name": "receiver",
          "type": "address"
        },
        {
          "indexed": false,
          "internalType": "uint256",
          "name": "netTokenIn",
          "type": "uint256"
        },
        {
          "indexed": false,
          "internalType": "uint256",
          "name": "netLpOut",
          "type": "uint256"
        }
      ],
      "name": "AddLiquiditySingleToken",
      "type": "event"
    },
    {
      "anonymous": false,
      "inputs": [
        {
          "indexed": true,
          "internalType": "address",
          "name": "caller",
          "type": "address"
        },
        {
          "indexed": true,
          "internalType": "address",
          "name": "market",
          "type": "address"
        },
        {
          "indexed": true,
          "internalType": "address",
          "name": "token",
          "type": "address"
        },
        {
          "indexed": false,
          "internalType": "address",
          "name": "receiver",
          "type": "address"
        },
        {
          "indexed": false,
          "internalType": "uint256",
          "name": "netTokenIn",
          "type": "uint256"
        },
        {
          "indexed": false,
          "internalType": "uint256",
          "name": "netLpOut",
          "type": "uint256"
        },
        {
          "indexed": false,
          "internalType": "uint256",
          "name": "netYtOut",
          "type": "uint256"
        }
      ],
      "name": "AddLiquiditySingleTokenKeepYt",
      "type": "event"
    },
    {
      "anonymous": false,
      "inputs": [
        {
          "indexed": true,
          "internalType": "address",
          "name": "caller",
          "type": "address"
        },
        {
          "indexed": true,
          "internalType": "address",
          "name": "market",
          "type": "address"
        },
        {
          "indexed": true,
          "internalType": "address",
          "name": "receiver",
          "type": "address"
        },
        {
          "indexed": false,
          "internalType": "uint256",
          "name": "netLpToRemove",
          "type": "uint256"
        },
        {
          "indexed": false,
          "internalType": "uint256",
          "name": "netPtOut",
          "type": "uint256"
        },
        {
          "indexed": false,
          "internalType": "uint256",
          "name": "netSyOut",
          "type": "uint256"
        }
      ],
      "name": "RemoveLiquidityDualSyAndPt",
      "type": "event"
    },
    {
      "anonymous": false,
      "inputs": [
        {
          "indexed": true,
          "internalType": "address",
          "name": "caller",
          "type": "address"
        },
        {
          "indexed": true,
          "internalType": "address",
          "name": "market",
          "type": "address"
        },
        {
          "indexed": true,
          "internalType": "address",
          "name": "tokenOut",
          "type": "address"
        },
        {
          "indexed": false,
          "internalType": "address",
          "name": "receiver",
          "type": "address"
        },
        {
          "indexed": false,
          "internalType": "uint256",
          "name": "netLpToRemove",
          "type": "uint256"
        },
        {
          "indexed": false,
          "internalType": "uint256",
          "name": "netPtOut",
          "type": "uint256"
        },
        {
          "indexed": false,
          "internalType": "uint256",
          "name": "netTokenOut",
          "type": "uint256"
        }
      ],
      "name": "RemoveLiquidityDualTokenAndPt",
      "type": "event"
    },
    {
      "anonymous": false,
      "inputs": [
        {
          "indexed": true,
          "internalType": "address",
          "name": "caller",
          "type": "address"
        },
        {
          "indexed": true,
          "internalType": "address",
          "name": "market",
          "type": "address"
        },
        {
          "indexed": true,
          "internalType": "address",
          "name": "receiver",
          "type": "address"
        },
        {
          "indexed": false,
          "internalType": "uint256",
          "name": "netLpToRemove",
          "type": "uint256"
        },
        {
          "indexed": false,
          "internalType": "uint256",
          "name": "netPtOut",
          "type": "uint256"
        }
      ],
      "name": "RemoveLiquiditySinglePt",
      "type": "event"
    },
    {
      "anonymous": false,
      "inputs": [
        {
          "indexed": true,
          "internalType": "address",
          "name": "caller",
          "type": "address"
        },
        {
          "indexed": true,
          "internalType": "address",
          "name": "market",
          "type": "address"
        },
        {
          "indexed": true,
          "internalType": "address",
          "name": "receiver",
          "type": "address"
        },
        {
          "indexed": false,
          "internalType": "uint256",
          "name": "netLpToRemove",
          "type": "uint256"
        },
        {
          "indexed": false,
          "internalType": "uint256",
          "name": "netSyOut",
          "type": "uint256"
        }
      ],
      "name": "RemoveLiquiditySingleSy",
      "type": "event"
    },
    {
      "anonymous": false,
      "inputs": [
        {
          "indexed": true,
          "internalType": "address",
          "name": "caller",
          "type": "address"
        },
        {
          "indexed": true,
          "internalType": "address",
          "name": "market",
          "type": "address"
        },
        {
          "indexed": true,
          "internalType": "address",
          "name": "token",
          "type": "address"
        },
        {
          "indexed": false,
          "internalType": "address",
          "name": "receiver",
          "type": "address"
        },
        {
          "indexed": false,
          "internalType": "uint256",
          "name": "netLpToRemove",
          "type": "uint256"
        },
        {
          "indexed": false,
          "internalType": "uint256",
          "name": "netTokenOut",
          "type": "uint256"
        }
      ],
      "name": "RemoveLiquiditySingleToken",
      "type": "event"
    },
    {
      "inputs": [
        {
          "internalType": "address",
          "name": "receiver",
          "type": "address"
        },
        {
          "internalType": "address",
          "name": "market",
          "type": "address"
        },
        {
          "internalType": "uint256",
          "name": "netSyDesired",
          "type": "uint256"
        },
        {
          "internalType": "uint256",
          "name": "netPtDesired",
          "type": "uint256"
        },
        {
          "internalType": "uint256",
          "name": "minLpOut",
          "type": "uint256"
        }
      ],
      "name": "addLiquidityDualSyAndPt",
      "outputs": [
        {
          "internalType": "uint256",
          "name": "netLpOut",
          "type": "uint256"
        },
        {
          "internalType": "uint256",
          "name": "netSyUsed",
          "type": "uint256"
        },
        {
          "internalType": "uint256",
          "name": "netPtUsed",
          "type": "uint256"
        }
      ],
      "stateMutability": "nonpayable",
      "type": "function"
    },
    {
      "inputs": [
        {
          "internalType": "address",
          "name": "receiver",
          "type": "address"
        },
        {
          "internalType": "address",
          "name": "market",
          "type": "address"
        },
        {
          "components": [
            {
              "internalType": "address",
              "name": "tokenIn",
              "type": "address"
            },
            {
              "internalType": "uint256",
              "name": "netTokenIn",
              "type": "uint256"
            },
            {
              "internalType": "address",
              "name": "tokenMintSy",
              "type": "address"
            },
            {
              "internalType": "address",
              "name": "bulk",
              "type": "address"
            },
            {
              "internalType": "address",
              "name": "euphratesSwap",
              "type": "address"
            },
            {
              "components": [
                {
                  "internalType": "enum SwapType",
                  "name": "swapType",
                  "type": "uint8"
                },
                {
                  "internalType": "address",
                  "name": "extRouter",
                  "type": "address"
                },
                {
                  "internalType": "bytes",
                  "name": "extCalldata",
                  "type": "bytes"
                },
                {
                  "internalType": "bool",
                  "name": "needScale",
                  "type": "bool"
                }
              ],
              "internalType": "struct SwapData",
              "name": "swapData",
              "type": "tuple"
            }
          ],
          "internalType": "struct TokenInput",
          "name": "input",
          "type": "tuple"
        },
        {
          "internalType": "uint256",
          "name": "netPtDesired",
          "type": "uint256"
        },
        {
          "internalType": "uint256",
          "name": "minLpOut",
          "type": "uint256"
        }
      ],
      "name": "addLiquidityDualTokenAndPt",
      "outputs": [
        {
          "internalType": "uint256",
          "name": "netLpOut",
          "type": "uint256"
        },
        {
          "internalType": "uint256",
          "name": "netTokenUsed",
          "type": "uint256"
        },
        {
          "internalType": "uint256",
          "name": "netPtUsed",
          "type": "uint256"
        }
      ],
      "stateMutability": "payable",
      "type": "function"
    },
    {
      "inputs": [
        {
          "internalType": "address",
          "name": "receiver",
          "type": "address"
        },
        {
          "internalType": "address",
          "name": "market",
          "type": "address"
        },
        {
          "internalType": "uint256",
          "name": "netPtIn",
          "type": "uint256"
        },
        {
          "internalType": "uint256",
          "name": "minLpOut",
          "type": "uint256"
        },
        {
          "components": [
            {
              "internalType": "uint256",
              "name": "guessMin",
              "type": "uint256"
            },
            {
              "internalType": "uint256",
              "name": "guessMax",
              "type": "uint256"
            },
            {
              "internalType": "uint256",
              "name": "guessOffchain",
              "type": "uint256"
            },
            {
              "internalType": "uint256",
              "name": "maxIteration",
              "type": "uint256"
            },
            {
              "internalType": "uint256",
              "name": "eps",
              "type": "uint256"
            }
          ],
          "internalType": "struct ApproxParams",
          "name": "guessPtSwapToSy",
          "type": "tuple"
        }
      ],
      "name": "addLiquiditySinglePt",
      "outputs": [
        {
          "internalType": "uint256",
          "name": "netLpOut",
          "type": "uint256"
        },
        {
          "internalType": "uint256",
          "name": "netSyFee",
          "type": "uint256"
        }
      ],
      "stateMutability": "nonpayable",
      "type": "function"
    },
    {
      "inputs": [
        {
          "internalType": "address",
          "name": "receiver",
          "type": "address"
        },
        {
          "internalType": "address",
          "name": "market",
          "type": "address"
        },
        {
          "internalType": "uint256",
          "name": "netSyIn",
          "type": "uint256"
        },
        {
          "internalType": "uint256",
          "name": "minLpOut",
          "type": "uint256"
        },
        {
          "components": [
            {
              "internalType": "uint256",
              "name": "guessMin",
              "type": "uint256"
            },
            {
              "internalType": "uint256",
              "name": "guessMax",
              "type": "uint256"
            },
            {
              "internalType": "uint256",
              "name": "guessOffchain",
              "type": "uint256"
            },
            {
              "internalType": "uint256",
              "name": "maxIteration",
              "type": "uint256"
            },
            {
              "internalType": "uint256",
              "name": "eps",
              "type": "uint256"
            }
          ],
          "internalType": "struct ApproxParams",
          "name": "guessPtReceivedFromSy",
          "type": "tuple"
        }
      ],
      "name": "addLiquiditySingleSy",
      "outputs": [
        {
          "internalType": "uint256",
          "name": "netLpOut",
          "type": "uint256"
        },
        {
          "internalType": "uint256",
          "name": "netSyFee",
          "type": "uint256"
        }
      ],
      "stateMutability": "nonpayable",
      "type": "function"
    },
    {
      "inputs": [
        {
          "internalType": "address",
          "name": "receiver",
          "type": "address"
        },
        {
          "internalType": "address",
          "name": "market",
          "type": "address"
        },
        {
          "internalType": "uint256",
          "name": "netSyIn",
          "type": "uint256"
        },
        {
          "internalType": "uint256",
          "name": "minLpOut",
          "type": "uint256"
        },
        {
          "internalType": "uint256",
          "name": "minYtOut",
          "type": "uint256"
        }
      ],
      "name": "addLiquiditySingleSyKeepYt",
      "outputs": [
        {
          "internalType": "uint256",
          "name": "netLpOut",
          "type": "uint256"
        },
        {
          "internalType": "uint256",
          "name": "netYtOut",
          "type": "uint256"
        }
      ],
      "stateMutability": "nonpayable",
      "type": "function"
    },
    {
      "inputs": [
        {
          "internalType": "address",
          "name": "receiver",
          "type": "address"
        },
        {
          "internalType": "address",
          "name": "market",
          "type": "address"
        },
        {
          "internalType": "uint256",
          "name": "minLpOut",
          "type": "uint256"
        },
        {
          "components": [
            {
              "internalType": "uint256",
              "name": "guessMin",
              "type": "uint256"
            },
            {
              "internalType": "uint256",
              "name": "guessMax",
              "type": "uint256"
            },
            {
              "internalType": "uint256",
              "name": "guessOffchain",
              "type": "uint256"
            },
            {
              "internalType": "uint256",
              "name": "maxIteration",
              "type": "uint256"
            },
            {
              "internalType": "uint256",
              "name": "eps",
              "type": "uint256"
            }
          ],
          "internalType": "struct ApproxParams",
          "name": "guessPtReceivedFromSy",
          "type": "tuple"
        },
        {
          "components": [
            {
              "internalType": "address",
              "name": "tokenIn",
              "type": "address"
            },
            {
              "internalType": "uint256",
              "name": "netTokenIn",
              "type": "uint256"
            },
            {
              "internalType": "address",
              "name": "tokenMintSy",
              "type": "address"
            },
            {
              "internalType": "address",
              "name": "bulk",
              "type": "address"
            },
            {
              "internalType": "address",
              "name": "euphratesSwap",
              "type": "address"
            },
            {
              "components": [
                {
                  "internalType": "enum SwapType",
                  "name": "swapType",
                  "type": "uint8"
                },
                {
                  "internalType": "address",
                  "name": "extRouter",
                  "type": "address"
                },
                {
                  "internalType": "bytes",
                  "name": "extCalldata",
                  "type": "bytes"
                },
                {
                  "internalType": "bool",
                  "name": "needScale",
                  "type": "bool"
                }
              ],
              "internalType": "struct SwapData",
              "name": "swapData",
              "type": "tuple"
            }
          ],
          "internalType": "struct TokenInput",
          "name": "input",
          "type": "tuple"
        }
      ],
      "name": "addLiquiditySingleToken",
      "outputs": [
        {
          "internalType": "uint256",
          "name": "netLpOut",
          "type": "uint256"
        },
        {
          "internalType": "uint256",
          "name": "netSyFee",
          "type": "uint256"
        }
      ],
      "stateMutability": "payable",
      "type": "function"
    },
    {
      "inputs": [
        {
          "internalType": "address",
          "name": "receiver",
          "type": "address"
        },
        {
          "internalType": "address",
          "name": "market",
          "type": "address"
        },
        {
          "internalType": "uint256",
          "name": "minLpOut",
          "type": "uint256"
        },
        {
          "internalType": "uint256",
          "name": "minYtOut",
          "type": "uint256"
        },
        {
          "components": [
            {
              "internalType": "address",
              "name": "tokenIn",
              "type": "address"
            },
            {
              "internalType": "uint256",
              "name": "netTokenIn",
              "type": "uint256"
            },
            {
              "internalType": "address",
              "name": "tokenMintSy",
              "type": "address"
            },
            {
              "internalType": "address",
              "name": "bulk",
              "type": "address"
            },
            {
              "internalType": "address",
              "name": "euphratesSwap",
              "type": "address"
            },
            {
              "components": [
                {
                  "internalType": "enum SwapType",
                  "name": "swapType",
                  "type": "uint8"
                },
                {
                  "internalType": "address",
                  "name": "extRouter",
                  "type": "address"
                },
                {
                  "internalType": "bytes",
                  "name": "extCalldata",
                  "type": "bytes"
                },
                {
                  "internalType": "bool",
                  "name": "needScale",
                  "type": "bool"
                }
              ],
              "internalType": "struct SwapData",
              "name": "swapData",
              "type": "tuple"
            }
          ],
          "internalType": "struct TokenInput",
          "name": "input",
          "type": "tuple"
        }
      ],
      "name": "addLiquiditySingleTokenKeepYt",
      "outputs": [
        {
          "internalType": "uint256",
          "name": "netLpOut",
          "type": "uint256"
        },
        {
          "internalType": "uint256",
          "name": "netYtOut",
          "type": "uint256"
        }
      ],
      "stateMutability": "nonpayable",
      "type": "function"
    },
    {
      "inputs": [
        {
          "internalType": "address",
          "name": "receiver",
          "type": "address"
        },
        {
          "internalType": "address",
          "name": "market",
          "type": "address"
        },
        {
          "internalType": "uint256",
          "name": "netLpToRemove",
          "type": "uint256"
        },
        {
          "internalType": "uint256",
          "name": "minSyOut",
          "type": "uint256"
        },
        {
          "internalType": "uint256",
          "name": "minPtOut",
          "type": "uint256"
        }
      ],
      "name": "removeLiquidityDualSyAndPt",
      "outputs": [
        {
          "internalType": "uint256",
          "name": "netSyOut",
          "type": "uint256"
        },
        {
          "internalType": "uint256",
          "name": "netPtOut",
          "type": "uint256"
        }
      ],
      "stateMutability": "nonpayable",
      "type": "function"
    },
    {
      "inputs": [
        {
          "internalType": "address",
          "name": "receiver",
          "type": "address"
        },
        {
          "internalType": "address",
          "name": "market",
          "type": "address"
        },
        {
          "internalType": "uint256",
          "name": "netLpToRemove",
          "type": "uint256"
        },
        {
          "components": [
            {
              "internalType": "address",
              "name": "tokenOut",
              "type": "address"
            },
            {
              "internalType": "uint256",
              "name": "minTokenOut",
              "type": "uint256"
            },
            {
              "internalType": "address",
              "name": "tokenRedeemSy",
              "type": "address"
            },
            {
              "internalType": "address",
              "name": "bulk",
              "type": "address"
            },
            {
              "internalType": "address",
              "name": "euphratesSwap",
              "type": "address"
            },
            {
              "components": [
                {
                  "internalType": "enum SwapType",
                  "name": "swapType",
                  "type": "uint8"
                },
                {
                  "internalType": "address",
                  "name": "extRouter",
                  "type": "address"
                },
                {
                  "internalType": "bytes",
                  "name": "extCalldata",
                  "type": "bytes"
                },
                {
                  "internalType": "bool",
                  "name": "needScale",
                  "type": "bool"
                }
              ],
              "internalType": "struct SwapData",
              "name": "swapData",
              "type": "tuple"
            }
          ],
          "internalType": "struct TokenOutput",
          "name": "output",
          "type": "tuple"
        },
        {
          "internalType": "uint256",
          "name": "minPtOut",
          "type": "uint256"
        }
      ],
      "name": "removeLiquidityDualTokenAndPt",
      "outputs": [
        {
          "internalType": "uint256",
          "name": "netTokenOut",
          "type": "uint256"
        },
        {
          "internalType": "uint256",
          "name": "netPtOut",
          "type": "uint256"
        }
      ],
      "stateMutability": "nonpayable",
      "type": "function"
    },
    {
      "inputs": [
        {
          "internalType": "address",
          "name": "receiver",
          "type": "address"
        },
        {
          "internalType": "address",
          "name": "market",
          "type": "address"
        },
        {
          "internalType": "uint256",
          "name": "netLpToRemove",
          "type": "uint256"
        },
        {
          "internalType": "uint256",
          "name": "minPtOut",
          "type": "uint256"
        },
        {
          "components": [
            {
              "internalType": "uint256",
              "name": "guessMin",
              "type": "uint256"
            },
            {
              "internalType": "uint256",
              "name": "guessMax",
              "type": "uint256"
            },
            {
              "internalType": "uint256",
              "name": "guessOffchain",
              "type": "uint256"
            },
            {
              "internalType": "uint256",
              "name": "maxIteration",
              "type": "uint256"
            },
            {
              "internalType": "uint256",
              "name": "eps",
              "type": "uint256"
            }
          ],
          "internalType": "struct ApproxParams",
          "name": "guessPtReceivedFromSy",
          "type": "tuple"
        }
      ],
      "name": "removeLiquiditySinglePt",
      "outputs": [
        {
          "internalType": "uint256",
          "name": "netPtOut",
          "type": "uint256"
        },
        {
          "internalType": "uint256",
          "name": "netSyFee",
          "type": "uint256"
        }
      ],
      "stateMutability": "nonpayable",
      "type": "function"
    },
    {
      "inputs": [
        {
          "internalType": "address",
          "name": "receiver",
          "type": "address"
        },
        {
          "internalType": "address",
          "name": "market",
          "type": "address"
        },
        {
          "internalType": "uint256",
          "name": "netLpToRemove",
          "type": "uint256"
        },
        {
          "internalType": "uint256",
          "name": "minSyOut",
          "type": "uint256"
        }
      ],
      "name": "removeLiquiditySingleSy",
      "outputs": [
        {
          "internalType": "uint256",
          "name": "netSyOut",
          "type": "uint256"
        },
        {
          "internalType": "uint256",
          "name": "netSyFee",
          "type": "uint256"
        }
      ],
      "stateMutability": "nonpayable",
      "type": "function"
    },
    {
      "inputs": [
        {
          "internalType": "address",
          "name": "receiver",
          "type": "address"
        },
        {
          "internalType": "address",
          "name": "market",
          "type": "address"
        },
        {
          "internalType": "uint256",
          "name": "netLpToRemove",
          "type": "uint256"
        },
        {
          "components": [
            {
              "internalType": "address",
              "name": "tokenOut",
              "type": "address"
            },
            {
              "internalType": "uint256",
              "name": "minTokenOut",
              "type": "uint256"
            },
            {
              "internalType": "address",
              "name": "tokenRedeemSy",
              "type": "address"
            },
            {
              "internalType": "address",
              "name": "bulk",
              "type": "address"
            },
            {
              "internalType": "address",
              "name": "euphratesSwap",
              "type": "address"
            },
            {
              "components": [
                {
                  "internalType": "enum SwapType",
                  "name": "swapType",
                  "type": "uint8"
                },
                {
                  "internalType": "address",
                  "name": "extRouter",
                  "type": "address"
                },
                {
                  "internalType": "bytes",
                  "name": "extCalldata",
                  "type": "bytes"
                },
                {
                  "internalType": "bool",
                  "name": "needScale",
                  "type": "bool"
                }
              ],
              "internalType": "struct SwapData",
              "name": "swapData",
              "type": "tuple"
            }
          ],
          "internalType": "struct TokenOutput",
          "name": "output",
          "type": "tuple"
        }
      ],
      "name": "removeLiquiditySingleToken",
      "outputs": [
        {
          "internalType": "uint256",
          "name": "netTokenOut",
          "type": "uint256"
        },
        {
          "internalType": "uint256",
          "name": "netSyFee",
          "type": "uint256"
        }
      ],
      "stateMutability": "nonpayable",
      "type": "function"
    }
  ],
  "bytecode": "0x608060405234801561001057600080fd5b50615479806100206000396000f3fe6080604052600436106100c75760003560e01c8063844384aa11610074578063cb591eb21161004e578063cb591eb214610214578063dfbc814e14610227578063e6eaba011461024757600080fd5b8063844384aa1461019957806397ee279e146101b9578063b7d75b8b146101f457600080fd5b8063409c7a89116100a5578063409c7a8914610139578063690807ad14610159578063694ab5591461017957600080fd5b8063015491d1146100cc578063178d29d3146100f95780633af1f32914610119575b600080fd5b6100df6100da366004614b25565b610267565b604080519283526020830191909152015b60405180910390f35b34801561010557600080fd5b506100df610114366004614ba5565b61036b565b34801561012557600080fd5b506100df610134366004614beb565b6103e0565b34801561014557600080fd5b506100df610154366004614beb565b6106bd565b34801561016557600080fd5b506100df610174366004614c48565b6107a2565b34801561018557600080fd5b506100df610194366004614beb565b6108b2565b3480156101a557600080fd5b506100df6101b4366004614cb4565b610b9b565b3480156101c557600080fd5b506101d96101d4366004614cb4565b610c77565b604080519384526020840192909252908201526060016100f0565b34801561020057600080fd5b506100df61020f366004614cb4565b610eb5565b6101d9610222366004614d05565b61100e565b34801561023357600080fd5b506100df610242366004614d79565b6112b6565b34801561025357600080fd5b506100df610262366004614dd6565b6113b1565b600080600080876001600160a01b0316632c8ce6bc6040518163ffffffff1660e01b8152600401606060405180830381865afa1580156102ab573d6000803e3d6000fd5b505050506040513d601f19601f820116820180604052508101906102cf9190614e4a565b925050915060006102e38984600189611560565b90506102f38a8a84848c8c61175d565b90955093506103056020870187614e97565b604080516001600160a01b038d811682526020808b01359083015291810188905291811691908b169033907ff83776e5b667a2b471f92ddfd482749c61b5328b832d375097638c2c08818f3b906060015b60405180910390a45050509550959350505050565b60008061037a85338787611972565b61038686868686611993565b60408051878152602081018490529294509092506001600160a01b03808916929088169133917fd31f02c44717b409d13b92ec9d2eaf1427fb4e63f85f4777f1458fb8d9387761910160405180910390a494509492505050565b600080600080876001600160a01b0316632c8ce6bc6040518163ffffffff1660e01b8152600401606060405180830381865afa158015610424573d6000803e3d6000fd5b505050506040513d601f19601f820116820180604052508101906104489190614e4a565b60405163794052f360e01b81523060048201529194509250600091506001600160a01b038a169063794052f39060240161012060405180830381865afa158015610496573d6000803e3d6000fd5b505050506040513d601f19601f820116820180604052508101906104ba9190614ef7565b905060006104ee6104d3846001600160a01b0316611a6d565b8a426104e4368c90038c018c614f79565b8693929190611ad9565b505090506104fe84338c8c611972565b60408051600080825260208201928390527f29910b11000000000000000000000000000000000000000000000000000000009092526001600160a01b038c16906329910b1190610555908e90869060248101615047565b60408051808303816000875af1158015610573573d6000803e3d6000fd5b505050506040513d601f19601f82011682018060405250810190610597919061506f565b965090506001600160a01b038b1663156e29f68d836105b6868f6150a9565b6040516001600160e01b031960e086901b1681526001600160a01b039093166004840152602483019190915260448201526064016060604051808303816000875af1158015610609573d6000803e3d6000fd5b505050506040513d601f19601f8201168201806040525081019061062d91906150bc565b50909750508887101561066257604051636a1dbf1b60e01b815260048101889052602481018a90526044015b60405180910390fd5b604080518b8152602081018990526001600160a01b03808f1692908e169133917fc87b85efc5055ef177e0092af0d4e624fff4b1d57db748857f65e4b7e4a28a3691015b60405180910390a450505050509550959350505050565b600080600080876001600160a01b0316632c8ce6bc6040518163ffffffff1660e01b8152600401606060405180830381865afa158015610701573d6000803e3d6000fd5b505050506040513d601f19601f820116820180604052508101906107259190614e4a565b925050915061073682338a8a611972565b6107448989838a8a8a61175d565b604080518a8152602081018490529296509094506001600160a01b03808c1692908b169133917fb51950711c9b21dc7888d41f68a19540231ffb5f0d19d8f75cbccaf90ffa7fa591015b60405180910390a450509550959350505050565b6000806000856001600160a01b0316632c8ce6bc6040518163ffffffff1660e01b8152600401606060405180830381865afa1580156107e5573d6000803e3d6000fd5b505050506040513d601f19601f820116820180604052508101906108099190614e4a565b5050905061081986338888611972565b60006108316108288387611c5e565b88886001611993565b93509050610843888383886000611c9c565b93506108526020860186614e97565b604080516001600160a01b038b81168252602082018a9052918101879052918116919089169033907f3fff08e8137afe866dce7ced13ddc12d684db61b80b0ac5cb9e54961c9dd8a219060600160405180910390a4505094509492505050565b6000806000866001600160a01b0316632c8ce6bc6040518163ffffffff1660e01b8152600401606060405180830381865afa1580156108f5573d6000803e3d6000fd5b505050506040513d601f19601f820116820180604052508101906109199190614e4a565b60405163794052f360e01b8152306004820152909350600092506001600160a01b038a16915063794052f39060240161012060405180830381865afa158015610966573d6000803e3d6000fd5b505050506040513d601f19601f8201168201806040525081019061098a9190614ef7565b9050600080610999838a611e81565b9150915060006109cf6109b4866001600160a01b0316611a6d565b84426109c5368d90038d018d614f79565b8893929190611ebc565b509050886109dd82846150ea565b1015610a11576109ed81836150ea565b604051634e6ffe4760e11b81526004810191909152602481018a9052604401610659565b610a1d8b338d8d611972565b604051633dae446f60e21b81526001600160a01b03808d1660048301819052908e166024830152604482018c90529063f6b911bc9060640160408051808303816000875af1158015610a73573d6000803e3d6000fd5b505050506040513d601f19601f82011682018060405250810190610a97919061506f565b604080516000815260208101918290527f5b709f17000000000000000000000000000000000000000000000000000000009091529093506001600160a01b038d169150635b709f1790610af1908f90859060248101615047565b60408051808303816000875af1158015610b0f573d6000803e3d6000fd5b505050506040513d601f19601f82011682018060405250810190610b33919061506f565b9650610b41905081836150ea565b965088871015610b5357610b536150fd565b604080518b8152602081018990526001600160a01b03808f1692908e169133917fac97b87f5422fa3beec99bff8f336310d8ebc7d33d909b7d534cd7c72f61e87191016106a6565b600080600080876001600160a01b0316632c8ce6bc6040518163ffffffff1660e01b8152600401606060405180830381865afa158015610bdf573d6000803e3d6000fd5b505050506040513d601f19601f82011682018060405250810190610c039190614e4a565b9250509150610c13823389611f8f565b610c22898984848b8b8b612089565b604080518a81526020810184905290810182905291955093506001600160a01b03808b1691908a169033907fc8437d84f52d1e20cc82487e336feadb2d39ede00af7711b6a58abf39392328f9060600161078e565b6000806000806000886001600160a01b0316632c8ce6bc6040518163ffffffff1660e01b8152600401606060405180830381865afa158015610cbd573d6000803e3d6000fd5b505050506040513d601f19601f82011682018060405250810190610ce19190614e4a565b5060405163794052f360e01b815230600482015291935091506000906001600160a01b038b169063794052f39060240161012060405180830381865afa158015610d2f573d6000803e3d6000fd5b505050506040513d601f19601f82011682018060405250810190610d539190614ef7565b9050610d61818a8a42612321565b919850965094505086861015610d9457604051636a1dbf1b60e01b81526004810187905260248101889052604401610659565b610da083338c88611972565b610dac82338c87611972565b6040517f156e29f60000000000000000000000000000000000000000000000000000000081526001600160a01b038c8116600483015260248201879052604482018690528b169063156e29f6906064016060604051808303816000875af1158015610e1b573d6000803e3d6000fd5b505050506040513d601f19601f82011682018060405250810190610e3f91906150bc565b509096505086861015610e5457610e546150fd565b60408051868152602081018690529081018790526001600160a01b03808d1691908c169033907f9334566f6358cd68e33d423fb1c9119c6837e3a2a7a8affaaa5020ed06aec0699060600160405180910390a4505050955095509592505050565b600080610ec486338888611972565b604051633dae446f60e21b81526001600160a01b038881166004830181905260248301526044820187905287169063f6b911bc9060640160408051808303816000875af1158015610f19573d6000803e3d6000fd5b505050506040513d601f19601f82011682018060405250810190610f3d919061506f565b909250905083821015610f86576040517f0a4439e60000000000000000000000000000000000000000000000000000000081526004810183905260248101859052604401610659565b82811015610fb157604051634e6ffe4760e11b81526004810182905260248101849052604401610659565b60408051868152602081018390529081018390526001600160a01b03808916919088169033907fd9f35a37b64d95edfd8f26adf130ce45f3e9ddf3c7ab8c1fb7224727a339a98e9060600160405180910390a49550959350505050565b6000806000806000886001600160a01b0316632c8ce6bc6040518163ffffffff1660e01b8152600401606060405180830381865afa158015611054573d6000803e3d6000fd5b505050506040513d601f19601f820116820180604052508101906110789190614e4a565b5091509150600061108c8a8460018c611560565b60405163794052f360e01b815230600482015290915060009081906001600160a01b038d169063794052f39060240161012060405180830381865afa1580156110d9573d6000803e3d6000fd5b505050506040513d601f19601f820116820180604052508101906110fd9190614ef7565b905061110b81848c42612321565b919a50909750925050828214611157576040517fdea0d1760000000000000000000000000000000000000000000000000000000081526004810184905260248101839052604401610659565b8888101561118257604051636a1dbf1b60e01b815260048101899052602481018a9052604401610659565b8a6020013596505061119683338d88611972565b6040517f156e29f60000000000000000000000000000000000000000000000000000000081526001600160a01b038d8116600483015260248201839052604482018790528c169063156e29f6906064016060604051808303816000875af1158015611205573d6000803e3d6000fd5b505050506040513d601f19601f8201168201806040525081019061122991906150bc565b50909750508787101561123e5761123e6150fd565b61124b60208b018b614e97565b604080516001600160a01b038f81168252602082018a9052918101889052606081018a905291811691908d169033907f7f646a534401967ac0913451efea28d9e170ffc164efa98e3957cde363c0245f9060800160405180910390a450505050955095509592505050565b600080600080876001600160a01b0316632c8ce6bc6040518163ffffffff1660e01b8152600401606060405180830381865afa1580156112fa573d6000803e3d6000fd5b505050506040513d601f19601f8201168201806040525081019061131e9190614e4a565b925050915060006113323084600189611560565b90506113438a8a8585858d8d612089565b90955093506113556020870187614e97565b604080516001600160a01b038d811682526020808b0135908301529181018890526060810187905291811691908b169033907f43eb84d5f21c53e2b7be07b8fc06cbbb55af094a111c91c7ddc6513fed4d035290608001610356565b6000806000866001600160a01b0316632c8ce6bc6040518163ffffffff1660e01b8152600401606060405180830381865afa1580156113f4573d6000803e3d6000fd5b505050506040513d601f19601f820116820180604052508101906114189190614e4a565b5050905061142887338989611972565b6000876001600160a01b031663f6b911bc6114438489611c5e565b6040516001600160e01b031960e084901b1681526001600160a01b039182166004820152908c166024820152604481018a905260640160408051808303816000875af1158015611497573d6000803e3d6000fd5b505050506040513d601f19601f820116820180604052508101906114bb919061506f565b93509050848310156114ea57604051634e6ffe4760e11b81526004810184905260248101869052604401610659565b6114f8898383896000611c9c565b93506115076020870187614e97565b604080516001600160a01b038c81168252602082018b90529181018690526060810187905291811691908a169033907fbcfac3aca0242d70e941905db1a4ffc8b7e15f3375043f5399d640a8ea3007ce9060800161078e565b60008061157060a0840184615113565b61157e906020810190615160565b90506000808260038111156115955761159561517b565b036115c0576115b56115aa6020860186614e97565b338660200135611f8f565b506020830135611745565b60038260038111156115d4576115d461517b565b03611613576115e96115aa6020860186614e97565b6115b56115f96020860186614e97565b6116096060870160408801614e97565b866020013561238c565b60006116226020860186614e97565b6001600160a01b031603611645576116406000338660200135611f8f565b611670565b6116706116556020860186614e97565b3361166660a0880160808901614e97565b8760200135611972565b61168060a0850160808601614e97565b6001600160a01b0316632bdb823c600061169d6020880188614e97565b6001600160a01b0316146116b25760006116b8565b85602001355b6116c56020880188614e97565b60208801356116d760a08a018a615113565b6040518563ffffffff1660e01b81526004016116f5939291906151d5565b6000604051808303818588803b15801561170e57600080fd5b505af1158015611722573d6000803e3d6000fd5b505050505061174284604001602081019061173d9190614e97565b61246b565b90505b6117528787838888612509565b979650505050505050565b60405163794052f360e01b8152306004820152600090819081906001600160a01b0389169063794052f39060240161012060405180830381865afa1580156117a9573d6000803e3d6000fd5b505050506040513d601f19601f820116820180604052508101906117cd9190614ef7565b905060006118016117e6896001600160a01b0316611a6d565b88426117f7368a90038a018a614f79565b86939291906126a4565b505060408051600080825260208201928390527f5b709f1700000000000000000000000000000000000000000000000000000000909252919250906001600160a01b038b1690635b709f179061185e908d90869060248101615047565b60408051808303816000875af115801561187c573d6000803e3d6000fd5b505050506040513d601f19601f820116820180604052508101906118a0919061506f565b945090506001600160a01b038a1663156e29f68c6118be848c6150a9565b6040516001600160e01b031960e085901b1681526001600160a01b0390921660048301526024820152604481018590526064016060604051808303816000875af1158015611910573d6000803e3d6000fd5b505050506040513d601f19601f8201168201806040525081019061193491906150bc565b50909550508685101561196457604051636a1dbf1b60e01b81526004810186905260248101889052604401610659565b505050965096945050505050565b801561198d5761198d6001600160a01b0385168484846128c3565b50505050565b600080846001600160a01b0316632f13b60c6040518163ffffffff1660e01b8152600401602060405180830381865afa1580156119d4573d6000803e3d6000fd5b505050506040513d601f19601f820116820180604052508101906119f891906152c4565b15611a0f57611a0886868661295c565b9150611a20565b611a1a868686612ae2565b90925090505b82821015611a64576040517f0a4439e60000000000000000000000000000000000000000000000000000000081526004810183905260248101849052604401610659565b94509492505050565b6000816001600160a01b0316631d52edc46040518163ffffffff1660e01b81526004016020604051808303816000875af1158015611aaf573d6000803e3d6000fd5b505050506040513d601f19601f82011682018060405250810190611ad391906152e1565b92915050565b6000808080611ae9898988612c1f565b90508460400151600003611b8157611b0e8560200151611b098b84612d52565b612dd6565b60208601819052611b1f9088612dd6565b6020860152611b2d85612dec565b8860400151600003611b815760405162461bcd60e51b815260206004820152600e60248201527f6e6f206578697374696e67206c700000000000000000000000000000000000006044820152606401610659565b60005b8560600151811015611c20576000611b9c8783612e61565b9050600080600080611bb18f8f8f8a89612ee6565b509350935093509350611bc984848d60800151612f65565b15611be0579398509650919450611c539350505050565b828411611bf957611bf28560016150ea565b8b52611c0a565b611c046001866150a9565b60208c01525b505050505080611c19906152fa565b9050611b84565b506040517ffa711db200000000000000000000000000000000000000000000000000000000815260040160405180910390fd5b955095509592505050565b600080611c716080840160608501614e97565b6001600160a01b031603611c855782611c95565b611c956080830160608401614e97565b9392505050565b600080611cac60a0850185615113565b611cba906020810190615160565b90506000816003811115611cd057611cd061517b565b03611ce957611ce28787878787612fae565b9150611e2c565b6003816003811115611cfd57611cfd61517b565b03611d5357611d0f3087878787612fae565b9150611d37611d246060860160408701614e97565b611d316020870187614e97565b8461238c565b611d4e611d476020860186614e97565b8884613153565b611e2c565b6000611d71611d6860a0870160808801614e97565b88888888612fae565b9050611d8360a0860160808701614e97565b6001600160a01b0316632bdb823c611da16060880160408901614e97565b83611daf60a08a018a615113565b6040518463ffffffff1660e01b8152600401611dcd939291906151d5565b600060405180830381600087803b158015611de757600080fd5b505af1158015611dfb573d6000803e3d6000fd5b50611e11925061173d9150506020870187614e97565b9250611e2a611e236020870187614e97565b8985613153565b505b8360200135821015611e77576040517fc5b5576d0000000000000000000000000000000000000000000000000000000081526004810183905260208501356024820152604401610659565b5095945050505050565b600080600080611e9986611e9487613225565b613258565b91509150611ea682613356565b9350611eb181613356565b925050509250929050565b60008080611ecb888887612c1f565b90508360400151600003611efd57611eef8460200151611b09838b60000151613365565b6020850152611efd84612dec565b60005b8460600151811015611c20576000611f188683612e61565b9050600080611f298c868d866133f9565b5091509150898211611f6057611f44828b8a6080015161342b565b15611f5857919550909350611f8592505050565b828852611f71565b611f6b6001846150a9565b60208901525b50505080611f7e906152fa565b9050611f00565b9550959350505050565b6001600160a01b038316611ff157803414611fec5760405162461bcd60e51b815260206004820152600c60248201527f657468206d69736d6174636800000000000000000000000000000000000000006044820152606401610659565b505050565b8015611fec576040517f23b872dd0000000000000000000000000000000000000000000000000000000081526001600160a01b038381166004830152306024830152604482018390528416906323b872dd906064016020604051808303816000875af1158015612065573d6000803e3d6000fd5b505050506040513d601f19601f8201168201806040525081019061198d91906152c4565b60405163794052f360e01b8152306004820152600090819081906001600160a01b038a169063794052f39060240161012060405180830381865afa1580156120d5573d6000803e3d6000fd5b505050506040513d601f19601f820116820180604052508101906120f99190614ef7565b9050600061210f886001600160a01b0316611a6d565b9050600061212a6121238460200151613356565b8390613459565b835161213590613356565b61213f91906150ea565b835161214a90613356565b612154908a615314565b61215e9190615341565b905061216b8a8a83613153565b61217f8a8c61217a848c6150a9565b613153565b6040517fdb74aa150000000000000000000000000000000000000000000000000000000081526001600160a01b038c811660048301528d811660248301528a169063db74aa15906044016020604051808303816000875af11580156121e8573d6000803e3d6000fd5b505050506040513d601f19601f8201168201806040525081019061220c91906152e1565b93506001600160a01b038b1663156e29f68d612228848c6150a9565b6040516001600160e01b031960e085901b1681526001600160a01b0390921660048301526024820152604481018790526064016060604051808303816000875af115801561227a573d6000803e3d6000fd5b505050506040513d601f19601f8201168201806040525081019061229e91906150bc565b5090955050868510156122ce57604051636a1dbf1b60e01b81526004810186905260248101889052604401610659565b85841015612312576040517fa59b8c310000000000000000000000000000000000000000000000000000000081526004810185905260248101879052604401610659565b50505097509795505050505050565b6000806000806000806000806123498c61233a8d613225565b6123438d613225565b8c613465565b935093509350935061235a84613356565b975061236583613356565b965061237082613356565b955061237b81613356565b945050505050945094509450949050565b6001600160a01b0383166123f357816001600160a01b031663d0e30db0826040518263ffffffff1660e01b81526004016000604051808303818588803b1580156123d557600080fd5b505af11580156123e9573d6000803e3d6000fd5b5050505050505050565b6040517f2e1a7d4d000000000000000000000000000000000000000000000000000000008152600481018290526001600160a01b03841690632e1a7d4d90602401600060405180830381600087803b15801561244e57600080fd5b505af1158015612462573d6000803e3d6000fd5b50505050505050565b60006001600160a01b03821615612502576040517f70a082310000000000000000000000000000000000000000000000000000000081523060048201526001600160a01b038316906370a0823190602401602060405180830381865afa1580156124d9573d6000803e3d6000fd5b505050506040513d601f19601f820116820180604052508101906124fd91906152e1565b611ad3565b4792915050565b6000808061251d6060850160408601614e97565b6001600160a01b031614612532576000612534565b845b905060006125486080850160608601614e97565b6001600160a01b031614612604576125666080840160608501614e97565b6040517fb27670700000000000000000000000000000000000000000000000000000000081526001600160a01b0389811660048301526024820188905260448201879052919091169063b276707090839060640160206040518083038185885af11580156125d8573d6000803e3d6000fd5b50505050506040513d601f19601f820116820180604052508101906125fd91906152e1565b9150611e77565b6001600160a01b0386166320e8c56582896126256060880160408901614e97565b6040516001600160e01b031960e086901b1681526001600160a01b03928316600482015291166024820152604481018990526064810188905260840160206040518083038185885af115801561267f573d6000803e3d6000fd5b50505050506040513d601f19601f8201168201806040525081019061175291906152e1565b6040805160a08101825286815260208101869052908101849052606081018390526080810182905260009081908190816126df8a8a89612c1f565b905081608001516040015160000361277b5761270f826080015160200151611b0983856000015160000151613365565b608083018051602001919091525161272690612dec565b81516040015160000361277b5760405162461bcd60e51b815260206004820152600e60248201527f6e6f206578697374696e67206c700000000000000000000000000000000000006044820152606401610659565b60005b826080015160600151811015611c2057600061279e846080015183612e61565b905060008060006127b98760000151878960200151876133f9565b92509250925086604001518311156127e9576127d66001856150a9565b608088015160200152506128b392505050565b865151600090819081906127fe9088906150a9565b9050600084878c600001516020015161281791906150ea565b61282191906150a9565b905061282d8189615314565b925081878c6040015161284091906150a9565b61284a9190615314565b9350505061286181838b6080015160800151612f65565b1561287a57509399509197509550611c53945050505050565b8181116128975761288c8660016150ea565b60808a0151526128ac565b6128a26001876150a9565b60808a0151602001525b5050505050505b6128bc816152fa565b905061277e565b6040516001600160a01b038085166024830152831660448201526064810182905261198d9085907f23b872dd00000000000000000000000000000000000000000000000000000000906084015b60408051601f198184030181529190526020810180517bffffffffffffffffffffffffffffffffffffffffffffffffffffffff166001600160e01b031990931692909217909152613668565b600080836001600160a01b0316632c8ce6bc6040518163ffffffff1660e01b8152600401606060405180830381865afa15801561299d573d6000803e3d6000fd5b505050506040513d601f19601f820116820180604052508101906129c19190614e4a565b604051633dae446f60e21b81526001600160a01b03898116600483015280831660248301526044820188905291945060009350908716915063f6b911bc9060640160408051808303816000875af1158015612a20573d6000803e3d6000fd5b505050506040513d601f19601f82011682018060405250810190612a44919061506f565b506040517fbcb7ea5d0000000000000000000000000000000000000000000000000000000081526001600160a01b0388811660048301529192509083169063bcb7ea5d906024016020604051808303816000875af1158015612aaa573d6000803e3d6000fd5b505050506040513d601f19601f82011682018060405250810190612ace91906152e1565b612ad890826150ea565b9695505050505050565b604051633dae446f60e21b81526001600160a01b038481166004830152831660248201819052604482018390526000918291829182919063f6b911bc9060640160408051808303816000875af1158015612b40573d6000803e3d6000fd5b505050506040513d601f19601f82011682018060405250810190612b64919061506f565b60408051600080825260208201928390527f29910b1100000000000000000000000000000000000000000000000000000000909252929450909250906001600160a01b038816906329910b1190612bc2908b90869060248101615047565b60408051808303816000875af1158015612be0573d6000803e3d6000fd5b505050506040513d601f19601f82011682018060405250810190612c04919061506f565b94509050612c1281846150ea565b9450505050935093915050565b612c4a6040518060800160405280600081526020016000815260200160008152602001600081525090565b60a08401518210612c87576040517fb2094b5900000000000000000000000000000000000000000000000000000000815260040160405180910390fd5b6000828560a00151612c9991906150a9565b9050612ca58582613750565b82526020850151612cb79085906137c5565b602083015284511580612ccc57506020820151155b15612d1357845160208301516040517fb1c4aefb00000000000000000000000000000000000000000000000000000000815260048101929092526024820152604401610659565b612d31856000015186610100015184602001518560000151856137fc565b604083015260c0850151612d45908261387d565b6060830152509392505050565b60008060009050600060018460200151612d6c91906150a9565b90505b808214612dce5760006002612d8483856150ea565b612d8f9060016150ea565b612d999190615341565b90506000612dac868860000151846138b1565b1215612dc457612dbd6001826150a9565b9150612dc8565b8092505b50612d6f565b509392505050565b6000818310612de55781611c95565b5090919050565b602081015181511180612e0a5750670de0b6b3a76400008160800151115b15612e5e578051602082015160808301516040517fb301af04000000000000000000000000000000000000000000000000000000008152600481019390935260248301919091526044820152606401610659565b50565b600081158015612e745750604083015115155b15612e8457506040820151611ad3565b6020830151835111612eb45760208301518351600291612ea3916150ea565b612ead9190615341565b9050611ad3565b6040517ffa711db200000000000000000000000000000000000000000000000000000000815260040160405180910390fd5b6000806000806000612efa8a888b896139ae565b8c519295509093509150600090612f129088906150ea565b9050600082858d60200151612f2791906150a9565b612f3191906150a9565b9050612f3d8286615314565b965080612f4a898c6150a9565b612f549190615314565b955050509550955095509550959050565b600083612f8384612f7e85670de0b6b3a76400006150a9565b6139df565b11158015612fa65750612fa283612f7e84670de0b6b3a76400006150ea565b8411155b949350505050565b60008115612fcb57612fcb8533612fc58887611c5e565b87611972565b6000612fdd6080850160608601614e97565b6001600160a01b03161461309e57612ffb6080840160608501614e97565b6040517f83f5b7660000000000000000000000000000000000000000000000000000000081526001600160a01b03888116600483015260248201879052600060448301526001606483015291909116906383f5b766906084016020604051808303816000875af1158015613073573d6000803e3d6000fd5b505050506040513d601f19601f8201168201806040525081019061309791906152e1565b905061314a565b6001600160a01b03851663769f8e5d87866130bf6060880160408901614e97565b60405160e085901b6001600160e01b03191681526001600160a01b03938416600482015260248101929092529091166044820152600060648201526001608482015260a4016020604051808303816000875af1158015613123573d6000803e3d6000fd5b505050506040513d601f19601f8201168201806040525081019061314791906152e1565b90505b95945050505050565b8060000361316057505050565b6001600160a01b038316613211576000826001600160a01b03168260405160006040518083038185875af1925050503d80600081146131bb576040519150601f19603f3d011682016040523d82523d6000602084013e6131c0565b606091505b505090508061198d5760405162461bcd60e51b815260206004820152600f60248201527f6574682073656e64206661696c656400000000000000000000000000000000006044820152606401610659565b611fec6001600160a01b03841683836139ff565b60007f7fffffffffffffffffffffffffffffffffffffffffffffffffffffffffffffff82111561325457600080fd5b5090565b60008082600003613295576040517f25daaec300000000000000000000000000000000000000000000000000000000815260040160405180910390fd5b604084015160208501516132a99085615355565b6132b39190615385565b60408501518551919350906132c89085615355565b6132d29190615385565b9050811580156132e0575080155b15613317576040517fccbf546800000000000000000000000000000000000000000000000000000000815260040160405180910390fd5b60408401516133269084613a48565b604085015283516133379082613a48565b845260208401516133489083613a48565b602090940193909352929050565b60008082121561325457600080fd5b60008061339261338d85600001518660400151876060015161338791906153b3565b90613aa4565b613ac7565b905060006133b26133ab670de0b6b3a7640000846153da565b8390613fde565b905060006133d08660200151866133c991906153da565b8390613aa4565b905060006133de82876153b3565b90506103e86133ef826103e7615314565b6117529190615341565b6000808080808061340c8a8a8a8a614004565b9250925092508261341c90615402565b9a919950975095505050505050565b6000828411158015612fa6575061344e83612f7e84670de0b6b3a76400006150a9565b909310159392505050565b6000611c958383614158565b6000808080861580613475575085155b156134ac576040517f25daaec300000000000000000000000000000000000000000000000000000000815260040160405180910390fd5b60a088015185106134e9576040517fb2094b5900000000000000000000000000000000000000000000000000000000815260040160405180910390fd5b8760400151600003613536576103e861351a61351561351061350b8a8c615355565b613356565b614177565b613225565b61352491906153b3565b92506103e893508691508590506135d9565b875160408901516000919061354b9089615355565b6135559190615385565b9050600089602001518a604001518a61356e9190615355565b6135789190615385565b9050808212156135ae578194508792508960400151858b6020015161359d9190615355565b6135a79190615385565b93506135d6565b8094508893508960400151858b600001516135c99190615355565b6135d39190615385565b92505b50505b60008313613613576040517fccbf546800000000000000000000000000000000000000000000000000000000815260040160405180910390fd5b818860200181815161362591906153da565b9052508751819089906136399083906153da565b90525061364684846153da565b8860400181815161365791906153da565b905250929791965094509092509050565b60006136bd826040518060400160405280602081526020017f5361666545524332303a206c6f772d6c6576656c2063616c6c206661696c6564815250856001600160a01b03166141e79092919063ffffffff16565b90508051600014806136de5750808060200190518101906136de91906152c4565b611fec5760405162461bcd60e51b815260206004820152602a60248201527f5361666545524332303a204552433230206f7065726174696f6e20646964206e60448201527f6f742073756363656564000000000000000000000000000000000000000000006064820152608401610659565b600061375b82613225565b61376d6135156201518061016d615314565b846080015161377c9190615355565b6137869190615385565b905060008113611ad3576040517f1ca4187600000000000000000000000000000000000000000000000000000000815260048101829052602401610659565b600080600083126137d75760016137db565b6000195b90506137f2613515856137ed866141f6565b614158565b612fa69082615355565b600080613809868461387d565b9050670de0b6b3a76400008112156138375760405163329e322960e21b815260048101829052602401610659565b600061384d613846878a6153da565b8990613fde565b9050600061385a82614208565b90506138668187613fde565b61387090846153b3565b9998505050505050505050565b60008061388f6201518061016d615314565b6138998486615314565b6138a39190615341565b9050612fa661338d82613225565b6000808285602001516138c491906153b3565b905060006138d285856153da565b90506000821380156138e45750600081135b6139305760405162461bcd60e51b815260206004820152601260248201527f696e76616c6964207074546f4d61726b657400000000000000000000000000006044820152606401610659565b600061395e61393f8484615355565b602089015161394e90896153da565b6139589088615355565b90613fde565b9050600061397461396f8486613fde565b614270565b885190915060009061398f90670de0b6b3a764000090613fde565b905061399f8161338784866153b3565b896040015161387091906153b3565b600080808080806139cc89896139c38a615402565b8d929190614004565b919c909b50909950975050505050505050565b6000806139ec8385615314565b670de0b6b3a76400009004949350505050565b6040516001600160a01b038316602482015260448101829052611fec9084907fa9059cbb0000000000000000000000000000000000000000000000000000000090606401612910565b600081831215613a9a5760405162461bcd60e51b815260206004820152600860248201527f6e656761746976650000000000000000000000000000000000000000000000006044820152606401610659565b611c9582846153b3565b600080613ab18385615355565b9050670de0b6b3a7640000815b05949350505050565b60007ffffffffffffffffffffffffffffffffffffffffffffffffdc702bd3a30fc00008212158015613b02575068070c1cc73b00c800008213155b613b4e5760405162461bcd60e51b815260206004820152601060248201527f496e76616c6964206578706f6e656e74000000000000000000000000000000006044820152606401610659565b6000821215613b8757613b6382600003613ac7565b6ec097ce7bc90715b34b9f100000000081613b8057613b8061532b565b0592915050565b60006806f05b59d3b20000008312613bdd57507ffffffffffffffffffffffffffffffffffffffffffffffff90fa4a62c4e00000090910190770195e54c5dd42177f53a27172fa9ec630262827000000000613c29565b6803782dace9d90000008312613c2557507ffffffffffffffffffffffffffffffffffffffffffffffffc87d2531627000000909101906b1425982cf597cd205cef7380613c29565b5060015b6064929092029168056bc75e2d6310000068ad78ebc5ac620000008412613c8f577fffffffffffffffffffffffffffffffffffffffffffffff5287143a539e0000009093019268056bc75e2d631000006e01855144814a7ff805980ff008400082020590505b6856bc75e2d6310000008412613ce1577fffffffffffffffffffffffffffffffffffffffffffffffa9438a1d29cf0000009093019268056bc75e2d631000006b02df0ab5a80a22c61ab5a70082020590505b682b5e3af16b188000008412613d31577fffffffffffffffffffffffffffffffffffffffffffffffd4a1c50e94e78000009093019268056bc75e2d63100000693f1fce3da636ea5cf85082020590505b6815af1d78b58c4000008412613d81577fffffffffffffffffffffffffffffffffffffffffffffffea50e2874a73c000009093019268056bc75e2d63100000690127fa27722cc06cc5e282020590505b680ad78ebc5ac62000008412613dd0577ffffffffffffffffffffffffffffffffffffffffffffffff5287143a539e000009093019268056bc75e2d6310000068280e60114edb805d0382020590505b68056bc75e2d631000008412613e1f577ffffffffffffffffffffffffffffffffffffffffffffffffa9438a1d29cf000009093019268056bc75e2d63100000680ebc5fb4174612111082020590505b6802b5e3af16b18800008412613e6e577ffffffffffffffffffffffffffffffffffffffffffffffffd4a1c50e94e7800009093019268056bc75e2d631000006808f00f760a4b2db55d82020590505b68015af1d78b58c400008412613ebd577ffffffffffffffffffffffffffffffffffffffffffffffffea50e2874a73c00009093019268056bc75e2d631000006806f5f177578893793782020590505b68056bc75e2d631000008481019085906002908280020505918201919050600368056bc75e2d631000008783020505918201919050600468056bc75e2d631000008783020505918201919050600568056bc75e2d631000008783020505918201919050600668056bc75e2d631000008783020505918201919050600768056bc75e2d631000008783020505918201919050600868056bc75e2d631000008783020505918201919050600968056bc75e2d631000008783020505918201919050600a68056bc75e2d631000008783020505918201919050600b68056bc75e2d631000008783020505918201919050600c68056bc75e2d631000008783020505918201919050606468056bc75e2d63100000848402058502059695505050505050565b600080613ff3670de0b6b3a764000085615355565b9050828181613abe57613abe61532b565b6000806000806140278860000151886020015189600001518a604001518961430c565b9050600061403d6140388784613fde565b6143db565b606089015190915060008713156140ac57600061405a8483613fde565b9050670de0b6b3a76400008112156140885760405163329e322960e21b815260048101829052602401610659565b6140a461409d83670de0b6b3a76400006153b3565b8490613aa4565b9150506140d9565b6140d6816140c281670de0b6b3a76400006153b3565b6140cc9085615355565b6140389190615385565b90505b600060646140ea8c60e00151613225565b6140f49084615355565b6140fe9190615385565b9050600061410c83856153b3565b905060008112614125576141208a826143e9565b61412f565b61412f8a82614416565b975061413b8a846143e9565b96506141478a836143e9565b955050505050509450945094915050565b6000670de0b6b3a764000061416d8484615314565b611c959190615341565b600060038211156141d85750806000614191600283615341565b61419c9060016150ea565b90505b818110156141d2579050806002816141b78186615341565b6141c191906150ea565b6141cb9190615341565b905061419f565b50919050565b81156141e2575060015b919050565b6060612fa68484600085614443565b6000808213613254576124fd82615402565b6000670de0b6b3a7640000820361424b576040517fa9c8b14d00000000000000000000000000000000000000000000000000000000815260040160405180910390fd5b600061426961426284670de0b6b3a76400006153b3565b8490613fde565b9050611c95815b60008082136142c15760405162461bcd60e51b815260206004820152600d60248201527f6f7574206f6620626f756e6473000000000000000000000000000000000000006044820152606401610659565b670c7d713b49da0000821380156142df5750670f43fc2c04ee000082125b1561430357670de0b6b3a76400006142f68361452a565b81613b8057613b8061532b565b611ad382614662565b6000806143198784613a48565b9050600061432a6133ab888a6153da565b9050670d529ae9e860000081131561437f576040517ffc68d09e00000000000000000000000000000000000000000000000000000000815260048101829052670d529ae9e86000006024820152604401610659565b600061438a82614208565b9050856143978289613fde565b6143a191906153da565b9350670de0b6b3a76400008412156143cf5760405163329e322960e21b815260048101859052602401610659565b50505095945050505050565b6000611ad382600019615355565b600080600083126143fb5760016143ff565b6000195b90506137f261351585614411866141f6565b614a0d565b6000806000831261442857600161442c565b6000195b90506137f26135158561443e866141f6565b614a22565b6060824710156144bb5760405162461bcd60e51b815260206004820152602660248201527f416464726573733a20696e73756666696369656e742062616c616e636520666f60448201527f722063616c6c00000000000000000000000000000000000000000000000000006064820152608401610659565b600080866001600160a01b031685876040516144d7919061541e565b60006040518083038185875af1925050503d8060008114614514576040519150601f19603f3d011682016040523d82523d6000602084013e614519565b606091505b509150915061175287838387614a4e565b670de0b6b3a7640000026000806ec097ce7bc90715b34b9f1000000000808401907fffffffffffffffffffffffffffffffffff3f68318436f8ea4cb460f0000000008501028161457c5761457c61532b565b05905060006ec097ce7bc90715b34b9f100000000082800205905081806ec097ce7bc90715b34b9f100000000081840205915060038205016ec097ce7bc90715b34b9f100000000082840205915060058205016ec097ce7bc90715b34b9f100000000082840205915060078205016ec097ce7bc90715b34b9f100000000082840205915060098205016ec097ce7bc90715b34b9f1000000000828402059150600b8205016ec097ce7bc90715b34b9f1000000000828402059150600d8205016ec097ce7bc90715b34b9f1000000000828402059150600f82050160020295945050505050565b6000670de0b6b3a76400008212156146a45761469b826ec097ce7bc90715b34b9f1000000000816146955761469561532b565b05614662565b60000392915050565b60007e1600ef3172e58d2e933ec884fde10064c63b5372d805e203c000000000000083126146f557770195e54c5dd42177f53a27172fa9ec630262827000000000830592506806f05b59d3b2000000015b73011798004d755d3c8bc8e03204cf44619e000000831261472d576b1425982cf597cd205cef7380830592506803782dace9d9000000015b606492830292026e01855144814a7ff805980ff00840008312614775576e01855144814a7ff805980ff008400068056bc75e2d63100000840205925068ad78ebc5ac62000000015b6b02df0ab5a80a22c61ab5a70083126147b0576b02df0ab5a80a22c61ab5a70068056bc75e2d6310000084020592506856bc75e2d631000000015b693f1fce3da636ea5cf85083126147e757693f1fce3da636ea5cf85068056bc75e2d631000008402059250682b5e3af16b18800000015b690127fa27722cc06cc5e2831261481e57690127fa27722cc06cc5e268056bc75e2d6310000084020592506815af1d78b58c400000015b68280e60114edb805d0383126148535768280e60114edb805d0368056bc75e2d631000008402059250680ad78ebc5ac6200000015b680ebc5fb41746121110831261487e57680ebc5fb4174612111068056bc75e2d631000009384020592015b6808f00f760a4b2db55d83126148b3576808f00f760a4b2db55d68056bc75e2d6310000084020592506802b5e3af16b1880000015b6806f5f177578893793783126148e8576806f5f177578893793768056bc75e2d63100000840205925068015af1d78b58c40000015b6806248f33704b286603831261491c576806248f33704b28660368056bc75e2d63100000840205925067ad78ebc5ac620000015b6805c548670b9510e7ac8312614950576805c548670b9510e7ac68056bc75e2d6310000084020592506756bc75e2d6310000015b600068056bc75e2d63100000840168056bc75e2d6310000080860302816149795761497961532b565b059050600068056bc75e2d63100000828002059050818068056bc75e2d63100000818402059150600382050168056bc75e2d63100000828402059150600582050168056bc75e2d63100000828402059150600782050168056bc75e2d63100000828402059150600982050168056bc75e2d63100000828402059150600b820501600202606485820105979650505050505050565b60008261416d670de0b6b3a764000084615314565b600082600181614a3a670de0b6b3a764000086615314565b614a4491906150ea565b61416d91906150a9565b60608315614abd578251600003614ab6576001600160a01b0385163b614ab65760405162461bcd60e51b815260206004820152601d60248201527f416464726573733a2063616c6c20746f206e6f6e2d636f6e74726163740000006044820152606401610659565b5081612fa6565b612fa68383815115614ad25781518083602001fd5b8060405162461bcd60e51b81526004016106599190615430565b6001600160a01b0381168114612e5e57600080fd5b600060a082840312156141d257600080fd5b600060c082840312156141d257600080fd5b60008060008060006101208688031215614b3e57600080fd5b8535614b4981614aec565b94506020860135614b5981614aec565b935060408601359250614b6f8760608801614b01565b915061010086013567ffffffffffffffff811115614b8c57600080fd5b614b9888828901614b13565b9150509295509295909350565b60008060008060808587031215614bbb57600080fd5b8435614bc681614aec565b93506020850135614bd681614aec565b93969395505050506040820135916060013590565b60008060008060006101208688031215614c0457600080fd5b8535614c0f81614aec565b94506020860135614c1f81614aec565b93506040860135925060608601359150614c3c8760808801614b01565b90509295509295909350565b60008060008060808587031215614c5e57600080fd5b8435614c6981614aec565b93506020850135614c7981614aec565b925060408501359150606085013567ffffffffffffffff811115614c9c57600080fd5b614ca887828801614b13565b91505092959194509250565b600080600080600060a08688031215614ccc57600080fd5b8535614cd781614aec565b94506020860135614ce781614aec565b94979496505050506040830135926060810135926080909101359150565b600080600080600060a08688031215614d1d57600080fd5b8535614d2881614aec565b94506020860135614d3881614aec565b9350604086013567ffffffffffffffff811115614d5457600080fd5b614d6088828901614b13565b9598949750949560608101359550608001359392505050565b600080600080600060a08688031215614d9157600080fd5b8535614d9c81614aec565b94506020860135614dac81614aec565b93506040860135925060608601359150608086013567ffffffffffffffff811115614b8c57600080fd5b600080600080600060a08688031215614dee57600080fd5b8535614df981614aec565b94506020860135614e0981614aec565b935060408601359250606086013567ffffffffffffffff811115614e2c57600080fd5b614e3888828901614b13565b95989497509295608001359392505050565b600080600060608486031215614e5f57600080fd5b8351614e6a81614aec565b6020850151909350614e7b81614aec565b6040850151909250614e8c81614aec565b809150509250925092565b600060208284031215614ea957600080fd5b8135611c9581614aec565b604051610120810167ffffffffffffffff81118282101715614ee657634e487b7160e01b600052604160045260246000fd5b60405290565b80516141e281614aec565b60006101208284031215614f0a57600080fd5b614f12614eb4565b825181526020830151602082015260408301516040820152614f3660608401614eec565b60608201526080830151608082015260a083015160a082015260c083015160c082015260e083015160e08201526101008084015181830152508091505092915050565b600060a08284031215614f8b57600080fd5b60405160a0810181811067ffffffffffffffff82111715614fbc57634e487b7160e01b600052604160045260246000fd5b806040525082358152602083013560208201526040830135604082015260608301356060820152608083013560808201528091505092915050565b60005b83811015615012578181015183820152602001614ffa565b50506000910152565b60008151808452615033816020860160208601614ff7565b601f01601f19169290920160200192915050565b6001600160a01b038416815282602082015260606040820152600061314a606083018461501b565b6000806040838503121561508257600080fd5b505080516020909101519092909150565b634e487b7160e01b600052601160045260246000fd5b81810381811115611ad357611ad3615093565b6000806000606084860312156150d157600080fd5b8351925060208401519150604084015190509250925092565b80820180821115611ad357611ad3615093565b634e487b7160e01b600052600160045260246000fd5b600082357fffffffffffffffffffffffffffffffffffffffffffffffffffffffffffffff8183360301811261514757600080fd5b9190910192915050565b8035600481106141e257600080fd5b60006020828403121561517257600080fd5b611c9582615151565b634e487b7160e01b600052602160045260246000fd5b818352818160208501375060006020828401015260006020601f19601f840116840101905092915050565b8015158114612e5e57600080fd5b80356141e2816151bc565b60006001600160a01b038086168352846020840152606060408401526151fa84615151565b6004811061521857634e487b7160e01b600052602160045260246000fd5b6060840152602084013561522b81614aec565b1660808301526040830135368490037fffffffffffffffffffffffffffffffffffffffffffffffffffffffffffffffe101811261526757600080fd5b830160208101903567ffffffffffffffff81111561528457600080fd5b80360382131561529357600080fd5b608060a08501526152a860e085018284615191565b9150506152b7606085016151ca565b80151560c0850152611e77565b6000602082840312156152d657600080fd5b8151611c95816151bc565b6000602082840312156152f357600080fd5b5051919050565b6000600019820361530d5761530d615093565b5060010190565b8082028115828204841417611ad357611ad3615093565b634e487b7160e01b600052601260045260246000fd5b6000826153505761535061532b565b500490565b80820260008212600160ff1b8414161561537157615371615093565b8181058314821517611ad357611ad3615093565b6000826153945761539461532b565b6000198314600160ff1b831416156153ae576153ae615093565b500590565b81810360008312801583831316838312821617156153d3576153d3615093565b5092915050565b80820182811260008312801582168215821617156153fa576153fa615093565b505092915050565b6000600160ff1b820361541757615417615093565b5060000390565b60008251615147818460208701614ff7565b602081526000611c95602083018461501b56fea26469706673582212209a71da42ba82c61f264668878e0b5ea3ba76e2f8190004f786cbfc338d48e13964736f6c63430008110033",
  "linkReferences": {},
  "deployedLinkReferences": {}
}