{
  "_format": "hh-sol-artifact-1",
  "contractName": "BaseSplitCodeFactoryContract",
  "sourceName": "contracts/offchain-helpers/BaseSplitCodeFactoryContract.sol",
  "abi": [
    {
      "inputs": [],
      "stateMutability": "nonpayable",
      "type": "constructor"
    },
    {
      "anonymous": false,
      "inputs": [
        {
          "indexed": true,
          "internalType": "string",
          "name": "name",
          "type": "string"
        },
        {
          "indexed": false,
          "internalType": "address",
          "name": "creationCodeContractA",
          "type": "address"
        },
        {
          "indexed": false,
          "internalType": "uint256",
          "name": "creationCodeSizeA",
          "type": "uint256"
        },
        {
          "indexed": false,
          "internalType": "address",
          "name": "creationCodeContractB",
          "type": "address"
        },
        {
          "indexed": false,
          "internalType": "uint256",
          "name": "creationCodeSizeB",
          "type": "uint256"
        }
      ],
      "name": "Deployed",
      "type": "event"
    },
    {
      "anonymous": false,
      "inputs": [
        {
          "indexed": false,
          "internalType": "uint8",
          "name": "version",
          "type": "uint8"
        }
      ],
      "name": "Initialized",
      "type": "event"
    },
    {
      "anonymous": false,
      "inputs": [
        {
          "indexed": true,
          "internalType": "address",
          "name": "previousOwner",
          "type": "address"
        },
        {
          "indexed": true,
          "internalType": "address",
          "name": "newOwner",
          "type": "address"
        }
      ],
      "name": "OwnershipTransferred",
      "type": "event"
    },
    {
      "inputs": [],
      "name": "claimOwnership",
      "outputs": [],
      "stateMutability": "nonpayable",
      "type": "function"
    },
    {
      "inputs": [
        {
          "internalType": "string",
          "name": "name",
          "type": "string"
        },
        {
          "internalType": "bytes",
          "name": "creationCode",
          "type": "bytes"
        }
      ],
      "name": "deploy",
      "outputs": [
        {
          "internalType": "address",
          "name": "creationCodeContractA",
          "type": "address"
        },
        {
          "internalType": "uint256",
          "name": "creationCodeSizeA",
          "type": "uint256"
        },
        {
          "internalType": "address",
          "name": "creationCodeContractB",
          "type": "address"
        },
        {
          "internalType": "uint256",
          "name": "creationCodeSizeB",
          "type": "uint256"
        }
      ],
      "stateMutability": "nonpayable",
      "type": "function"
    },
    {
      "inputs": [],
      "name": "owner",
      "outputs": [
        {
          "internalType": "address",
          "name": "",
          "type": "address"
        }
      ],
      "stateMutability": "view",
      "type": "function"
    },
    {
      "inputs": [],
      "name": "pendingOwner",
      "outputs": [
        {
          "internalType": "address",
          "name": "",
          "type": "address"
        }
      ],
      "stateMutability": "view",
      "type": "function"
    },
    {
      "inputs": [
        {
          "internalType": "address",
          "name": "newOwner",
          "type": "address"
        },
        {
          "internalType": "bool",
          "name": "direct",
          "type": "bool"
        },
        {
          "internalType": "bool",
          "name": "renounce",
          "type": "bool"
        }
      ],
      "name": "transferOwnership",
      "outputs": [],
      "stateMutability": "nonpayable",
      "type": "function"
    }
  ],
  "bytecode": "0x608060405234801561001057600080fd5b50600154600160a81b900460ff1615808015610037575060018054600160a01b900460ff16105b8061006857506100503061015260201b61045f1760201c565b158015610068575060018054600160a01b900460ff16145b6100d05760405162461bcd60e51b815260206004820152602e60248201527f496e697469616c697a61626c653a20636f6e747261637420697320616c72656160448201526d191e481a5b9a5d1a585b1a5e995960921b60648201526084015b60405180910390fd5b6001805460ff60a01b1916600160a01b17905580156100fd576001805460ff60a81b1916600160a81b1790555b610105610161565b801561014c576001805460ff60a81b191681556040519081527f7f26b83ff96e1f2b6a682f133852f6798a09c465da95921460cefb38474024989060200160405180910390a15b506101e2565b6001600160a01b03163b151590565b600154600160a81b900460ff166101ce5760405162461bcd60e51b815260206004820152602b60248201527f496e697469616c697a61626c653a20636f6e7472616374206973206e6f74206960448201526a6e697469616c697a696e6760a81b60648201526084016100c7565b600080546001600160a01b03191633179055565b6107d0806101f16000396000f3fe608060405234801561001057600080fd5b50600436106100675760003560e01c80638da5cb5b116100505780638da5cb5b14610089578063be3397e9146100b9578063e30c39781461010157600080fd5b8063078dfbe71461006c5780634e71e0c814610081575b600080fd5b61007f61007a3660046105a9565b610114565b005b61007f61027a565b60005461009c906001600160a01b031681565b6040516001600160a01b0390911681526020015b60405180910390f35b6100cc6100c7366004610672565b610344565b6040516100b094939291906001600160a01b039485168152602081019390935292166040820152606081019190915260800190565b60015461009c906001600160a01b031681565b6000546001600160a01b031633146101735760405162461bcd60e51b815260206004820181905260248201527f4f776e61626c653a2063616c6c6572206973206e6f7420746865206f776e657260448201526064015b60405180910390fd5b811561024b576001600160a01b03831615158061018d5750805b6101d95760405162461bcd60e51b815260206004820152601560248201527f4f776e61626c653a207a65726f20616464726573730000000000000000000000604482015260640161016a565b600080546040516001600160a01b03808716939216917f8be0079c531659141344cd1fd0a4f28419497f9722a3daafe3b4186f6b6457e091a3600080546001600160a01b03851673ffffffffffffffffffffffffffffffffffffffff1991821617909155600180549091169055505050565b600180546001600160a01b03851673ffffffffffffffffffffffffffffffffffffffff19909116179055505050565b6001546001600160a01b03163381146102d55760405162461bcd60e51b815260206004820181905260248201527f4f776e61626c653a2063616c6c657220213d2070656e64696e67206f776e6572604482015260640161016a565b600080546040516001600160a01b03808516939216917f8be0079c531659141344cd1fd0a4f28419497f9722a3daafe3b4186f6b6457e091a3600080546001600160a01b0390921673ffffffffffffffffffffffffffffffffffffffff19928316179055600180549091169055565b600080548190819081906001600160a01b031633146103a55760405162461bcd60e51b815260206004820181905260248201527f4f776e61626c653a2063616c6c6572206973206e6f7420746865206f776e6572604482015260640161016a565b6103e486868080601f01602080910402602001604051908101604052809392919081815260200183838082843760009201919091525061046e92505050565b604051939750919550935091506103fc90889061076b565b604080519182900382206001600160a01b0387811684526020840187905285168383015260608301849052905190917fbc62a8a743e5565da3487dae8f72d8e62aba1c03b13971b56ace6da5812d9ac6919081900360800190a293509350935093565b6001600160a01b03163b151590565b60008060008060008551116104c55760405162461bcd60e51b815260206004820152600b60248201527f7a65726f206c656e677468000000000000000000000000000000000000000000604482015260640161016a565b84516002810480875293508381039150856104df81610503565b8786018051858252919750906104f482610503565b93909252529395929450919050565b80517f602038038060206000396000f3fefefefefefefefefefefefefefefefefefefe808352600091602081018484f090845291506001600160a01b03821661058e5760405162461bcd60e51b815260206004820152601a60248201527f4445504c4f594d454e545f4641494c45445f42414c414e434552000000000000604482015260640161016a565b50919050565b803580151581146105a457600080fd5b919050565b6000806000606084860312156105be57600080fd5b83356001600160a01b03811681146105d557600080fd5b92506105e360208501610594565b91506105f160408501610594565b90509250925092565b7f4e487b7100000000000000000000000000000000000000000000000000000000600052604160045260246000fd5b60008083601f84011261063b57600080fd5b50813567ffffffffffffffff81111561065357600080fd5b60208301915083602082850101111561066b57600080fd5b9250929050565b60008060006040848603121561068757600080fd5b833567ffffffffffffffff8082111561069f57600080fd5b818601915086601f8301126106b357600080fd5b8135818111156106c5576106c56105fa565b604051601f82017fffffffffffffffffffffffffffffffffffffffffffffffffffffffffffffffe0908116603f0116810190838211818310171561070b5761070b6105fa565b8160405282815289602084870101111561072457600080fd5b82602086016020830137600060208483010152809750505050602086013591508082111561075157600080fd5b5061075e86828701610629565b9497909650939450505050565b6000825160005b8181101561078c5760208186018101518583015201610772565b50600092019182525091905056fea264697066735822122004283e494892de46d23bc6496676d2f31405c735f229efa7ec79d1ef58a00a3a64736f6c63430008110033",
  "linkReferences": {},
  "deployedLinkReferences": {}
}