{
  "_format": "hh-sol-artifact-1",
  "contractName": "BulkSeller",
  "sourceName": "contracts/core/BulkSeller/BulkSeller.sol",
  "abi": [
    {
      "inputs": [
        {
          "internalType": "uint256",
          "name": "actualRate",
          "type": "uint256"
        },
        {
          "internalType": "uint256",
          "name": "currentRate",
          "type": "uint256"
        },
        {
          "internalType": "uint256",
          "name": "eps",
          "type": "uint256"
        }
      ],
      "name": "BulkBadRateSyToToken",
      "type": "error"
    },
    {
      "inputs": [
        {
          "internalType": "uint256",
          "name": "actualRate",
          "type": "uint256"
        },
        {
          "internalType": "uint256",
          "name": "currentRate",
          "type": "uint256"
        },
        {
          "internalType": "uint256",
          "name": "eps",
          "type": "uint256"
        }
      ],
      "name": "BulkBadRateTokenToSy",
      "type": "error"
    },
    {
      "inputs": [
        {
          "internalType": "uint256",
          "name": "actualSyOut",
          "type": "uint256"
        },
        {
          "internalType": "uint256",
          "name": "requiredSyOut",
          "type": "uint256"
        }
      ],
      "name": "BulkInSufficientSyOut",
      "type": "error"
    },
    {
      "inputs": [
        {
          "internalType": "uint256",
          "name": "actualTokenOut",
          "type": "uint256"
        },
        {
          "internalType": "uint256",
          "name": "requiredTokenOut",
          "type": "uint256"
        }
      ],
      "name": "BulkInSufficientTokenOut",
      "type": "error"
    },
    {
      "inputs": [
        {
          "internalType": "uint256",
          "name": "currentAmount",
          "type": "uint256"
        },
        {
          "internalType": "uint256",
          "name": "requiredAmount",
          "type": "uint256"
        }
      ],
      "name": "BulkInsufficientSyForTrade",
      "type": "error"
    },
    {
      "inputs": [
        {
          "internalType": "uint256",
          "name": "actualBalance",
          "type": "uint256"
        },
        {
          "internalType": "uint256",
          "name": "requiredBalance",
          "type": "uint256"
        }
      ],
      "name": "BulkInsufficientSyReceived",
      "type": "error"
    },
    {
      "inputs": [
        {
          "internalType": "uint256",
          "name": "currentAmount",
          "type": "uint256"
        },
        {
          "internalType": "uint256",
          "name": "requiredAmount",
          "type": "uint256"
        }
      ],
      "name": "BulkInsufficientTokenForTrade",
      "type": "error"
    },
    {
      "inputs": [],
      "name": "BulkNotMaintainer",
      "type": "error"
    },
    {
      "anonymous": false,
      "inputs": [
        {
          "indexed": false,
          "internalType": "uint256",
          "name": "newFeeRate",
          "type": "uint256"
        },
        {
          "indexed": false,
          "internalType": "uint256",
          "name": "oldFeeRate",
          "type": "uint256"
        }
      ],
      "name": "FeeRateUpdated",
      "type": "event"
    },
    {
      "anonymous": false,
      "inputs": [
        {
          "indexed": false,
          "internalType": "uint8",
          "name": "version",
          "type": "uint8"
        }
      ],
      "name": "Initialized",
      "type": "event"
    },
    {
      "anonymous": false,
      "inputs": [
        {
          "indexed": false,
          "internalType": "uint256",
          "name": "newRateTokenToSy",
          "type": "uint256"
        },
        {
          "indexed": false,
          "internalType": "uint256",
          "name": "newRateSyToToken",
          "type": "uint256"
        },
        {
          "indexed": false,
          "internalType": "uint256",
          "name": "oldRateTokenToSy",
          "type": "uint256"
        },
        {
          "indexed": false,
          "internalType": "uint256",
          "name": "oldRateSyToToken",
          "type": "uint256"
        }
      ],
      "name": "RateUpdated",
      "type": "event"
    },
    {
      "anonymous": false,
      "inputs": [
        {
          "indexed": false,
          "internalType": "uint256",
          "name": "netSyRedeem",
          "type": "uint256"
        },
        {
          "indexed": false,
          "internalType": "uint256",
          "name": "netTokenFromSy",
          "type": "uint256"
        },
        {
          "indexed": false,
          "internalType": "uint256",
          "name": "newTokenProp",
          "type": "uint256"
        },
        {
          "indexed": false,
          "internalType": "uint256",
          "name": "oldTokenProp",
          "type": "uint256"
        }
      ],
      "name": "ReBalanceSyToToken",
      "type": "event"
    },
    {
      "anonymous": false,
      "inputs": [
        {
          "indexed": false,
          "internalType": "uint256",
          "name": "netTokenDeposit",
          "type": "uint256"
        },
        {
          "indexed": false,
          "internalType": "uint256",
          "name": "netSyFromToken",
          "type": "uint256"
        },
        {
          "indexed": false,
          "internalType": "uint256",
          "name": "newTokenProp",
          "type": "uint256"
        },
        {
          "indexed": false,
          "internalType": "uint256",
          "name": "oldTokenProp",
          "type": "uint256"
        }
      ],
      "name": "ReBalanceTokenToSy",
      "type": "event"
    },
    {
      "anonymous": false,
      "inputs": [
        {
          "indexed": false,
          "internalType": "uint256",
          "name": "totalToken",
          "type": "uint256"
        },
        {
          "indexed": false,
          "internalType": "uint256",
          "name": "totalSy",
          "type": "uint256"
        }
      ],
      "name": "ReserveUpdated",
      "type": "event"
    },
    {
      "anonymous": false,
      "inputs": [
        {
          "indexed": false,
          "internalType": "address",
          "name": "receiver",
          "type": "address"
        },
        {
          "indexed": false,
          "internalType": "uint256",
          "name": "netSyIn",
          "type": "uint256"
        },
        {
          "indexed": false,
          "internalType": "uint256",
          "name": "netTokenOut",
          "type": "uint256"
        }
      ],
      "name": "SwapExactSyForToken",
      "type": "event"
    },
    {
      "anonymous": false,
      "inputs": [
        {
          "indexed": false,
          "internalType": "address",
          "name": "receiver",
          "type": "address"
        },
        {
          "indexed": false,
          "internalType": "uint256",
          "name": "netTokenIn",
          "type": "uint256"
        },
        {
          "indexed": false,
          "internalType": "uint256",
          "name": "netSyOut",
          "type": "uint256"
        }
      ],
      "name": "SwapExactTokenForSy",
      "type": "event"
    },
    {
      "inputs": [],
      "name": "SY",
      "outputs": [
        {
          "internalType": "address",
          "name": "",
          "type": "address"
        }
      ],
      "stateMutability": "view",
      "type": "function"
    },
    {
      "inputs": [],
      "name": "_storage",
      "outputs": [
        {
          "internalType": "uint128",
          "name": "rateTokenToSy",
          "type": "uint128"
        },
        {
          "internalType": "uint128",
          "name": "rateSyToToken",
          "type": "uint128"
        },
        {
          "internalType": "uint128",
          "name": "totalSy",
          "type": "uint128"
        },
        {
          "internalType": "uint128",
          "name": "totalToken",
          "type": "uint128"
        }
      ],
      "stateMutability": "view",
      "type": "function"
    },
    {
      "inputs": [
        {
          "internalType": "uint256",
          "name": "netTokenOut",
          "type": "uint256"
        },
        {
          "internalType": "uint256",
          "name": "netSyOut",
          "type": "uint256"
        }
      ],
      "name": "decreaseReserve",
      "outputs": [],
      "stateMutability": "nonpayable",
      "type": "function"
    },
    {
      "inputs": [],
      "name": "factory",
      "outputs": [
        {
          "internalType": "address",
          "name": "",
          "type": "address"
        }
      ],
      "stateMutability": "view",
      "type": "function"
    },
    {
      "inputs": [],
      "name": "feeRate",
      "outputs": [
        {
          "internalType": "uint64",
          "name": "",
          "type": "uint64"
        }
      ],
      "stateMutability": "view",
      "type": "function"
    },
    {
      "inputs": [
        {
          "internalType": "uint256",
          "name": "netTokenIn",
          "type": "uint256"
        },
        {
          "internalType": "uint256",
          "name": "netSyIn",
          "type": "uint256"
        }
      ],
      "name": "increaseReserve",
      "outputs": [],
      "stateMutability": "payable",
      "type": "function"
    },
    {
      "inputs": [
        {
          "internalType": "address",
          "name": "_token",
          "type": "address"
        },
        {
          "internalType": "address",
          "name": "_SY",
          "type": "address"
        },
        {
          "internalType": "address",
          "name": "_factory",
          "type": "address"
        }
      ],
      "name": "initialize",
      "outputs": [],
      "stateMutability": "nonpayable",
      "type": "function"
    },
    {
      "inputs": [
        {
          "internalType": "uint256",
          "name": "targetProp",
          "type": "uint256"
        },
        {
          "internalType": "uint256",
          "name": "maxDiff",
          "type": "uint256"
        }
      ],
      "name": "reBalance",
      "outputs": [],
      "stateMutability": "nonpayable",
      "type": "function"
    },
    {
      "inputs": [],
      "name": "readState",
      "outputs": [
        {
          "components": [
            {
              "internalType": "uint256",
              "name": "rateTokenToSy",
              "type": "uint256"
            },
            {
              "internalType": "uint256",
              "name": "rateSyToToken",
              "type": "uint256"
            },
            {
              "internalType": "uint256",
              "name": "totalToken",
              "type": "uint256"
            },
            {
              "internalType": "uint256",
              "name": "totalSy",
              "type": "uint256"
            },
            {
              "internalType": "uint256",
              "name": "feeRate",
              "type": "uint256"
            }
          ],
          "internalType": "struct BulkSellerState",
          "name": "state",
          "type": "tuple"
        }
      ],
      "stateMutability": "view",
      "type": "function"
    },
    {
      "inputs": [],
      "name": "redeemRewards",
      "outputs": [],
      "stateMutability": "nonpayable",
      "type": "function"
    },
    {
      "inputs": [
        {
          "internalType": "uint64",
          "name": "newFeeRate",
          "type": "uint64"
        }
      ],
      "name": "setFeeRate",
      "outputs": [],
      "stateMutability": "nonpayable",
      "type": "function"
    },
    {
      "inputs": [
        {
          "internalType": "uint256",
          "name": "newRateSyToToken",
          "type": "uint256"
        },
        {
          "internalType": "uint256",
          "name": "newRateTokenToSy",
          "type": "uint256"
        },
        {
          "internalType": "uint256",
          "name": "maxDiff",
          "type": "uint256"
        }
      ],
      "name": "setRate",
      "outputs": [],
      "stateMutability": "nonpayable",
      "type": "function"
    },
    {
      "inputs": [],
      "name": "skim",
      "outputs": [],
      "stateMutability": "nonpayable",
      "type": "function"
    },
    {
      "inputs": [
        {
          "internalType": "address",
          "name": "receiver",
          "type": "address"
        },
        {
          "internalType": "uint256",
          "name": "exactSyIn",
          "type": "uint256"
        },
        {
          "internalType": "uint256",
          "name": "minTokenOut",
          "type": "uint256"
        },
        {
          "internalType": "bool",
          "name": "swapFromInternalBalance",
          "type": "bool"
        }
      ],
      "name": "swapExactSyForToken",
      "outputs": [
        {
          "internalType": "uint256",
          "name": "netTokenOut",
          "type": "uint256"
        }
      ],
      "stateMutability": "nonpayable",
      "type": "function"
    },
    {
      "inputs": [
        {
          "internalType": "address",
          "name": "receiver",
          "type": "address"
        },
        {
          "internalType": "uint256",
          "name": "netTokenIn",
          "type": "uint256"
        },
        {
          "internalType": "uint256",
          "name": "minSyOut",
          "type": "uint256"
        }
      ],
      "name": "swapExactTokenForSy",
      "outputs": [
        {
          "internalType": "uint256",
          "name": "netSyOut",
          "type": "uint256"
        }
      ],
      "stateMutability": "payable",
      "type": "function"
    },
    {
      "inputs": [],
      "name": "token",
      "outputs": [
        {
          "internalType": "address",
          "name": "",
          "type": "address"
        }
      ],
      "stateMutability": "view",
      "type": "function"
    }
  ],
  "bytecode": "0x608060405234801561001057600080fd5b506126aa806100206000396000f3fe6080604052600436106100f35760003560e01c8063afd27bf51161008a578063c45a015511610059578063c45a015514610347578063d0378d0714610367578063f0fc4ec114610387578063fc0c546a1461039c57600080fd5b8063afd27bf514610251578063b276707014610289578063c0c53b8b1461029c578063c3fb90d6146102bc57600080fd5b80636d71be4c116100c65780636d71be4c146101af57806383f5b766146101c2578063978bbdb9146101f0578063a279879b1461023157600080fd5b80631dd19cb4146100f85780632778c3341461010f5780633989c6661461016f578063459770f61461018f575b600080fd5b34801561010457600080fd5b5061010d6103bc565b005b34801561011b57600080fd5b506101246104e4565b6040516101669190600060a082019050825182526020830151602083015260408301516040830152606083015160608301526080830151608083015292915050565b60405180910390f35b34801561017b57600080fd5b5061010d61018a3660046121f6565b61058a565b34801561019b57600080fd5b5061010d6101aa366004612222565b610692565b61010d6101bd36600461224c565b6107ad565b3480156101ce57600080fd5b506101e26101dd366004612294565b6108e5565b604051908152602001610166565b3480156101fc57600080fd5b5060345461021890600160a01b900467ffffffffffffffff1681565b60405167ffffffffffffffff9091168152602001610166565b34801561023d57600080fd5b5061010d61024c36600461224c565b610a5d565b34801561025d57600080fd5b50603454610271906001600160a01b031681565b6040516001600160a01b039091168152602001610166565b6101e26102973660046122de565b610c10565b3480156102a857600080fd5b5061010d6102b7366004612313565b610d09565b3480156102c857600080fd5b5060365460375461030b916fffffffffffffffffffffffffffffffff80821692700100000000000000000000000000000000928390048216928183169291041684565b604080516fffffffffffffffffffffffffffffffff95861681529385166020850152918416918301919091529091166060820152608001610166565b34801561035357600080fd5b50603554610271906001600160a01b031681565b34801561037357600080fd5b5061010d61038236600461224c565b610eab565b34801561039357600080fd5b5061010d610fbc565b3480156103a857600080fd5b50603354610271906001600160a01b031681565b603554604051636eab9b3560e11b81523360048201526001600160a01b039091169063dd57366a90602401602060405180830381865afa158015610404573d6000803e3d6000fd5b505050506040513d601f19601f82011682018060405250810190610428919061235e565b61044557604051630de65d1160e11b815260040160405180910390fd5b600061044f6104e4565b604081015160335491925060009161046f906001600160a01b03166111fe565b6104799190612391565b6060830151603454919250600091610499906001600160a01b03166111fe565b6104a39190612391565b905081156104c2576033546104c2906001600160a01b0316338461129d565b80156104df576034546104df906001600160a01b0316338361129d565b505050565b6105166040518060a0016040528060008152602001600081526020016000815260200160008152602001600081525090565b506040805160a0810182526036546fffffffffffffffffffffffffffffffff808216835270010000000000000000000000000000000091829004811660208401526037549182048116938301939093529091166060820152603454600160a01b900467ffffffffffffffff16608082015290565b603554604051636eab9b3560e11b81523360048201526001600160a01b039091169063dd57366a90602401602060405180830381865afa1580156105d2573d6000803e3d6000fd5b505050506040513d601f19601f820116820180604052508101906105f6919061235e565b61061357604051630de65d1160e11b815260040160405180910390fd5b600061061d6104e4565b805160208201516040519293507fdd8196f9280a887c2cda9ceaa0c9f147ee5931086cfa28738c70c45ce383f1cb9261066f928792899293845260208401929092526040830152606082015260800190565b60405180910390a16106838185858561131d565b61068c816113fc565b50505050565b603554604051636eab9b3560e11b81523360048201526001600160a01b039091169063dd57366a90602401602060405180830381865afa1580156106da573d6000803e3d6000fd5b505050506040513d601f19601f820116820180604052508101906106fe919061235e565b61071b57604051630de65d1160e11b815260040160405180910390fd5b6034546040805167ffffffffffffffff8085168252600160a01b90930490921660208301527f14914da2bf76024616fbe1859783fcd4dbddcb179b1f3a854949fbf920dcb957910160405180910390a16034805467ffffffffffffffff909216600160a01b027fffffffff0000000000000000ffffffffffffffffffffffffffffffffffffffff909216919091179055565b603554604051636eab9b3560e11b81523360048201526001600160a01b039091169063dd57366a90602401602060405180830381865afa1580156107f5573d6000803e3d6000fd5b505050506040513d601f19601f82011682018060405250810190610819919061235e565b61083657604051630de65d1160e11b815260040160405180910390fd5b60006108406104e4565b9050828160400181815161085491906123a4565b90525060608101805183919061086b9083906123a4565b905250603354610885906001600160a01b031633856114d9565b60345461089c906001600160a01b031633846114d9565b6040808201516060830151825191825260208201527f32dc813d3f262a05478ad1165d5701040e411d9a6e1684c8c2da1c8e6f3b8022910160405180910390a16104df816113fc565b60006108ef6115ce565b60006108f96104e4565b90508261091c57603454610917906001600160a01b031633876114d9565b610991565b60608101516034546000919061093a906001600160a01b03166111fe565b6109449190612391565b90508581101561098f576040517f6313b4e500000000000000000000000000000000000000000000000000000000815260048101829052602481018790526044015b60405180910390fd5b505b61099b8186611627565b9150838210156109e1576040517fd40799150000000000000000000000000000000000000000000000000000000081526004810183905260248101859052604401610986565b6033546109f8906001600160a01b03168784611667565b610a01816113fc565b604080516001600160a01b0388168152602081018790529081018390527fe9dcd197d2f7d180de1ecfd3999f91ecf06bb65781541f206ddabbc08e4cd29b9060600160405180910390a150610a5560018055565b949350505050565b603554604051636eab9b3560e11b81523360048201526001600160a01b039091169063dd57366a90602401602060405180830381865afa158015610aa5573d6000803e3d6000fd5b505050506040513d601f19601f82011682018060405250810190610ac9919061235e565b610ae657604051630de65d1160e11b815260040160405180910390fd5b6000610af06104e4565b90506000610afd8261173f565b9050600080610b0c8487611773565b90925090508115610b8d576000610b22836117f2565b9050610b30858483896118b4565b6000610b3b8661173f565b6040805186815260208101859052908101829052606081018790529091507fb569412a0abb89d32fca61e1a718d803d8e7dd8b1fe0b8e152a01e1808e7d2329060800160405180910390a15050610bff565b6000610b988261194e565b9050610ba685838389611a0e565b6000610bb18661173f565b6040805185815260208101859052908101829052606081018790529091507fc41b352e51a1d27f9abe2577fe6a992eaee7f0c62e0185f726a6876463db710b9060800160405180910390a150505b610c08846113fc565b505050505050565b6000610c1a6115ce565b6000610c246104e4565b603354909150610c3e906001600160a01b031633866114d9565b610c488185611aa1565b915082821015610c8e576040517fefd9f0cd0000000000000000000000000000000000000000000000000000000081526004810183905260248101849052604401610986565b603454610ca5906001600160a01b03168684611667565b610cae816113fc565b604080516001600160a01b0387168152602081018690529081018390527fdeed462e5fd237e34f502e1dcf0d079b3a5e5958bebea6b03700434c7bec36d49060600160405180910390a150610d0260018055565b9392505050565b600054610100900460ff1615808015610d295750600054600160ff909116105b80610d435750303b158015610d43575060005460ff166001145b610db55760405162461bcd60e51b815260206004820152602e60248201527f496e697469616c697a61626c653a20636f6e747261637420697320616c72656160448201527f647920696e697469616c697a65640000000000000000000000000000000000006064820152608401610986565b600080547fffffffffffffffffffffffffffffffffffffffffffffffffffffffffffffff001660011790558015610df6576000805461ff0019166101001790555b610dfe611ad8565b603380547fffffffffffffffffffffffff00000000000000000000000000000000000000009081166001600160a01b038781169182179093556034805483168785169081179091556035805490931693861693909317909155610e6091611b5f565b801561068c576000805461ff0019169055604051600181527f7f26b83ff96e1f2b6a682f133852f6798a09c465da95921460cefb38474024989060200160405180910390a150505050565b603554604051636eab9b3560e11b81523360048201526001600160a01b039091169063dd57366a90602401602060405180830381865afa158015610ef3573d6000803e3d6000fd5b505050506040513d601f19601f82011682018060405250810190610f17919061235e565b610f3457604051630de65d1160e11b815260040160405180910390fd5b6000610f3e6104e4565b90506000198303610f5157806040015192505b6000198203610f6257806060015191505b8281604001818151610f749190612391565b905250606081018051839190610f8b908390612391565b905250603354610fa5906001600160a01b03163385611667565b60345461089c906001600160a01b03163384611667565b603554604051636eab9b3560e11b81523360048201526001600160a01b039091169063dd57366a90602401602060405180830381865afa158015611004573d6000803e3d6000fd5b505050506040513d601f19601f82011682018060405250810190611028919061235e565b61104557604051630de65d1160e11b815260040160405180910390fd5b6034546040517fef5cfb8c0000000000000000000000000000000000000000000000000000000081523060048201526001600160a01b039091169063ef5cfb8c906024016000604051808303816000875af11580156110a8573d6000803e3d6000fd5b505050506040513d6000823e601f3d908101601f191682016040526110d09190810190612422565b50603454604080517fc4f59f9b00000000000000000000000000000000000000000000000000000000815290516000926001600160a01b03169163c4f59f9b91600480830192869291908290030181865afa158015611133573d6000803e3d6000fd5b505050506040513d6000823e601f3d908101601f1916820160405261115b91908101906124ad565b905060005b81518110156111fa5760335482516001600160a01b039091169083908390811061118c5761118c61253c565b60200260200101516001600160a01b031603156111e8576111e88282815181106111b8576111b861253c565b6020026020010151336111e38585815181106111d6576111d661253c565b60200260200101516111fe565b611667565b806111f281612552565b915050611160565b5050565b60006001600160a01b03821615611295576040517f70a082310000000000000000000000000000000000000000000000000000000081523060048201526001600160a01b038316906370a0823190602401602060405180830381865afa15801561126c573d6000803e3d6000fd5b505050506040513d601f19601f82011682018060405250810190611290919061256c565b611297565b475b92915050565b604080516001600160a01b038416602482015260448082018490528251808303909101815260649091019091526020810180517bffffffffffffffffffffffffffffffffffffffffffffffffffffffff167fa9059cbb000000000000000000000000000000000000000000000000000000001790526104df908490611c42565b835115801590611339575061133782856000015183611d2a565b155b156113845783516040517fefb0d1c700000000000000000000000000000000000000000000000000000000815260048101849052602481019190915260448101829052606401610986565b6020840151158015906113a357506113a183856020015183611d2a565b155b156113f15760208401516040517fd2d67f8400000000000000000000000000000000000000000000000000000000815260048101859052602481019190915260448101829052606401610986565b508252602090910152565b600060405180608001604052806114168460000151611d72565b6fffffffffffffffffffffffffffffffff16815260200161143a8460200151611d72565b6fffffffffffffffffffffffffffffffff16815260200161145e8460600151611d72565b6fffffffffffffffffffffffffffffffff1681526020016114828460400151611d72565b6fffffffffffffffffffffffffffffffff9081169091528151602083015182167001000000000000000000000000000000009081029183169190911760365560408301516060909301518216029116176037555050565b6001600160a01b038316611536578034146104df5760405162461bcd60e51b815260206004820152600c60248201527f657468206d69736d6174636800000000000000000000000000000000000000006044820152606401610986565b80156104df576040517f23b872dd0000000000000000000000000000000000000000000000000000000081526001600160a01b038381166004830152306024830152604482018390528416906323b872dd906064016020604051808303816000875af11580156115aa573d6000803e3d6000fd5b505050506040513d601f19601f8201168201806040525081019061068c919061235e565b6002600154036116205760405162461bcd60e51b815260206004820152601f60248201527f5265656e7472616e637947756172643a207265656e7472616e742063616c6c006044820152606401610986565b6002600155565b60006116338383611d95565b9050818360600181815161164791906123a4565b90525060408301805182919061165e908390612391565b90525092915050565b8060000361167457505050565b6001600160a01b038316611725576000826001600160a01b03168260405160006040518083038185875af1925050503d80600081146116cf576040519150601f19603f3d011682016040523d82523d6000602084013e6116d4565b606091505b505090508061068c5760405162461bcd60e51b815260206004820152600f60248201527f6574682073656e64206661696c656400000000000000000000000000000000006044820152606401610986565b6104df6001600160a01b038416838361129d565b60018055565b60408101516020820151606083015160009291839161175d91611e32565b9050610a5561176c82846123a4565b8390611e55565b60008060006117818561173f565b9050838111156117b4576117ad816117a761179c8783612391565b604089015190611e32565b90611e55565b92506117ea565b60006117c882670de0b6b3a7640000612391565b90506117e6816117a76117db8589612391565b60608a015190611e32565b9250505b509250929050565b60335460009081906001600160a01b03161561180f576000611811565b825b6034546033546040517f20e8c5650000000000000000000000000000000000000000000000000000000081523060048201526001600160a01b039182166024820152604481018790526000606482015292935016906320e8c56590839060840160206040518083038185885af115801561188f573d6000803e3d6000fd5b50505050506040513d601f19601f82011682018060405250810190610d02919061256c565b60006118c08385611e55565b90506118d181866000015184611d2a565b61191b5784516040517fefb0d1c700000000000000000000000000000000000000000000000000000000815260048101839052602481019190915260448101839052606401610986565b838560400181815161192d9190612391565b9052506060850180518491906119449083906123a4565b9052505050505050565b603454600090611968906001600160a01b03168084611667565b6034546033546040517f769f8e5d000000000000000000000000000000000000000000000000000000008152306004820152602481018590526001600160a01b039182166044820152600060648201526001608482015291169063769f8e5d9060a4016020604051808303816000875af11580156119ea573d6000803e3d6000fd5b505050506040513d601f19601f82011682018060405250810190611297919061256c565b6000611a1a8385611e55565b9050611a2b81866020015184611d2a565b611a785760208501516040517fd2d67f8400000000000000000000000000000000000000000000000000000000815260048101839052602481019190915260448101839052606401610986565b8285604001818151611a8a91906123a4565b905250606085018051859190611944908390612391565b6000611aad8383611e7b565b90508183604001818151611ac191906123a4565b90525060608301805182919061165e908390612391565b600054610100900460ff16611b555760405162461bcd60e51b815260206004820152602b60248201527f496e697469616c697a61626c653a20636f6e7472616374206973206e6f74206960448201527f6e697469616c697a696e670000000000000000000000000000000000000000006064820152608401610986565b611b5d611f0d565b565b6001600160a01b038216611b71575050565b611b8860026bffffffffffffffffffffffff61259b565b6040517fdd62ed3e0000000000000000000000000000000000000000000000000000000081523060048201526001600160a01b0383811660248301526bffffffffffffffffffffffff929092169184169063dd62ed3e90604401602060405180830381865afa158015611bff573d6000803e3d6000fd5b505050506040513d601f19601f82011682018060405250810190611c23919061256c565b10156111fa57611c3582826000611f8a565b6111fa8282600019611f8a565b6000611c97826040518060400160405280602081526020017f5361666545524332303a206c6f772d6c6576656c2063616c6c206661696c6564815250856001600160a01b03166120d39092919063ffffffff16565b9050805160001480611cb8575080806020019051810190611cb8919061235e565b6104df5760405162461bcd60e51b815260206004820152602a60248201527f5361666545524332303a204552433230206f7065726174696f6e20646964206e60448201527f6f742073756363656564000000000000000000000000000000000000000000006064820152608401610986565b600083611d4884611d4385670de0b6b3a7640000612391565b611e32565b11158015610a555750611d6783611d4384670de0b6b3a76400006123a4565b841115949350505050565b60006fffffffffffffffffffffffffffffffff821115611d9157600080fd5b5090565b600080611dbe8460800151670de0b6b3a7640000611db39190612391565b602086015190611e32565b905080600003611dd057611dd06125d4565b611dda8382611e32565b91508360400151821115611e2b578360400151826040517f1895cd1f000000000000000000000000000000000000000000000000000000008152600401610986929190918252602082015260400190565b5092915050565b600080611e3f83856125ea565b9050670de0b6b3a7640000815b04949350505050565b600080611e6a670de0b6b3a7640000856125ea565b9050828181611e4c57611e4c612585565b600080611ea18460800151670de0b6b3a7640000611e999190612391565b855190611e32565b905080600003611eb357611eb36125d4565b611ebd8382611e32565b91508360600151821115611e2b5760608401516040517f0d704c14000000000000000000000000000000000000000000000000000000008152600481019190915260248101839052604401610986565b600054610100900460ff166117395760405162461bcd60e51b815260206004820152602b60248201527f496e697469616c697a61626c653a20636f6e7472616374206973206e6f74206960448201527f6e697469616c697a696e670000000000000000000000000000000000000000006064820152608401610986565b604080516001600160a01b038481166024830152604480830185905283518084039091018152606490920183526020820180517bffffffffffffffffffffffffffffffffffffffffffffffffffffffff167f095ea7b30000000000000000000000000000000000000000000000000000000017905291516000928392908716916120149190612625565b6000604051808303816000865af19150503d8060008114612051576040519150601f19603f3d011682016040523d82523d6000602084013e612056565b606091505b5091509150818015612080575080511580612080575080806020019051810190612080919061235e565b6120cc5760405162461bcd60e51b815260206004820152600c60248201527f5361666520417070726f766500000000000000000000000000000000000000006044820152606401610986565b5050505050565b6060610a55848460008585600080866001600160a01b031685876040516120fa9190612625565b60006040518083038185875af1925050503d8060008114612137576040519150601f19603f3d011682016040523d82523d6000602084013e61213c565b606091505b509150915061214d87838387612158565b979650505050505050565b606083156121c75782516000036121c0576001600160a01b0385163b6121c05760405162461bcd60e51b815260206004820152601d60248201527f416464726573733a2063616c6c20746f206e6f6e2d636f6e74726163740000006044820152606401610986565b5081610a55565b610a5583838151156121dc5781518083602001fd5b8060405162461bcd60e51b81526004016109869190612641565b60008060006060848603121561220b57600080fd5b505081359360208301359350604090920135919050565b60006020828403121561223457600080fd5b813567ffffffffffffffff81168114610d0257600080fd5b6000806040838503121561225f57600080fd5b50508035926020909101359150565b6001600160a01b038116811461228357600080fd5b50565b801515811461228357600080fd5b600080600080608085870312156122aa57600080fd5b84356122b58161226e565b9350602085013592506040850135915060608501356122d381612286565b939692955090935050565b6000806000606084860312156122f357600080fd5b83356122fe8161226e565b95602085013595506040909401359392505050565b60008060006060848603121561232857600080fd5b83356123338161226e565b925060208401356123438161226e565b915060408401356123538161226e565b809150509250925092565b60006020828403121561237057600080fd5b8151610d0281612286565b634e487b7160e01b600052601160045260246000fd5b818103818111156112975761129761237b565b808201808211156112975761129761237b565b634e487b7160e01b600052604160045260246000fd5b604051601f8201601f1916810167ffffffffffffffff811182821017156123f6576123f66123b7565b604052919050565b600067ffffffffffffffff821115612418576124186123b7565b5060051b60200190565b6000602080838503121561243557600080fd5b825167ffffffffffffffff81111561244c57600080fd5b8301601f8101851361245d57600080fd5b805161247061246b826123fe565b6123cd565b81815260059190911b8201830190838101908783111561248f57600080fd5b928401925b8284101561214d57835182529284019290840190612494565b600060208083850312156124c057600080fd5b825167ffffffffffffffff8111156124d757600080fd5b8301601f810185136124e857600080fd5b80516124f661246b826123fe565b81815260059190911b8201830190838101908783111561251557600080fd5b928401925b8284101561214d57835161252d8161226e565b8252928401929084019061251a565b634e487b7160e01b600052603260045260246000fd5b600060001982036125655761256561237b565b5060010190565b60006020828403121561257e57600080fd5b5051919050565b634e487b7160e01b600052601260045260246000fd5b60006bffffffffffffffffffffffff808416806125c857634e487b7160e01b600052601260045260246000fd5b92169190910492915050565b634e487b7160e01b600052600160045260246000fd5b80820281158282048414176112975761129761237b565b60005b8381101561261c578181015183820152602001612604565b50506000910152565b60008251612637818460208701612601565b9190910192915050565b6020815260008251806020840152612660816040850160208701612601565b601f01601f1916919091016040019291505056fea264697066735822122002012c2e3cd16460a7a1fd4f26e03a0664acac9396161b5cd717cdbdf03fa4b864736f6c63430008110033",
  "linkReferences": {},
  "deployedLinkReferences": {}
}