{
  "_format": "hh-sol-artifact-1",
  "contractName": "EuphratesSwap",
  "sourceName": "contracts/router/swap-aggregator/PendleSwap.sol",
  "abi": [
    {
      "inputs": [
        {
          "internalType": "uint256",
          "name": "aggregatorType",
          "type": "uint256"
        },
        {
          "internalType": "bytes4",
          "name": "selector",
          "type": "bytes4"
        }
      ],
      "name": "UnsupportedSelector",
      "type": "error"
    },
    {
      "inputs": [
        {
          "internalType": "address",
          "name": "tokenIn",
          "type": "address"
        },
        {
          "internalType": "uint256",
          "name": "amountIn",
          "type": "uint256"
        },
        {
          "components": [
            {
              "internalType": "enum SwapType",
              "name": "swapType",
              "type": "uint8"
            },
            {
              "internalType": "address",
              "name": "extRouter",
              "type": "address"
            },
            {
              "internalType": "bytes",
              "name": "extCalldata",
              "type": "bytes"
            },
            {
              "internalType": "bool",
              "name": "needScale",
              "type": "bool"
            }
          ],
          "internalType": "struct SwapData",
          "name": "data",
          "type": "tuple"
        }
      ],
      "name": "swap",
      "outputs": [],
      "stateMutability": "payable",
      "type": "function"
    },
    {
      "stateMutability": "payable",
      "type": "receive"
    }
  ],
  "bytecode": "0x608060405234801561001057600080fd5b50613763806100206000396000f3fe6080604052600436106100225760003560e01c80632bdb823c1461002e57600080fd5b3661002957005b600080fd5b61004161003c366004611a5d565b610043565b005b61005c836100576040840160208501611abd565b61011b565b61011561006f6080830160608401611ae8565b6100ba576100806040830183611b05565b8080601f0160208091040260200160405190810160405280939291908181526020018383808284376000920191909152506100dd92505050565b6100dd6100ca6020840184611b71565b6100d76040850185611b05565b86610220565b6001600160a01b038516156100f35760006100f5565b835b6101056040850160208601611abd565b6001600160a01b03169190610281565b50505050565b6001600160a01b03821661012d575050565b61014460026bffffffffffffffffffffffff611ba8565b6040517fdd62ed3e0000000000000000000000000000000000000000000000000000000081523060048201526001600160a01b0383811660248301526bffffffffffffffffffffffff929092169184169063dd62ed3e90604401602060405180830381865afa1580156101bb573d6000803e3d6000fd5b505050506040513d601f19601f820116820180604052508101906101df9190611bd3565b101561021c576101f1828260006102b1565b61021c82827fffffffffffffffffffffffffffffffffffffffffffffffffffffffffffffffff6102b1565b5050565b6060600185600381111561023657610236611bec565b0361024d576102468484846103ff565b9050610279565b600285600381111561026157610261611bec565b0361027157610246848484610645565b610279611c02565b949350505050565b60606102a784848460405180606001604052806029815260200161370560299139610898565b90505b9392505050565b604080516001600160a01b038481166024830152604480830185905283518084039091018152606490920183526020820180517bffffffffffffffffffffffffffffffffffffffffffffffffffffffff167f095ea7b300000000000000000000000000000000000000000000000000000000179052915160009283929087169161033b9190611c3c565b6000604051808303816000865af19150503d8060008114610378576040519150601f19603f3d011682016040523d82523d6000602084013e61037d565b606091505b50915091508180156103a75750805115806103a75750808060200190518101906103a79190611c63565b6103f85760405162461bcd60e51b815260206004820152600c60248201527f5361666520417070726f7665000000000000000000000000000000000000000060448201526064015b60405180910390fd5b5050505050565b606060006104106004828688611c80565b61041991611caa565b905036600061042b866004818a611c80565b90925090507f1de02f17000000000000000000000000000000000000000000000000000000006001600160e01b031984160161050d57600061046f828401846120bf565b9050610498816060015182604001518861049385606001516101200151602061098a565b610996565b8260600183604001829052829052505083816040516024016104ba9190612328565b60408051601f198184030181529190526020810180517bffffffffffffffffffffffffffffffffffffffffffffffffffffffff166001600160e01b03199093169290921790915294506102aa9350505050565b7f750fcc05000000000000000000000000000000000000000000000000000000006001600160e01b03198416016105d857600080808061054f858701876123aa565b935093509350935061056483838b6001610996565b60405191945092508790610582908690869086908690602401612445565b60408051601f198184030181529190526020810180517bffffffffffffffffffffffffffffffffffffffffffffffffffffffff166001600160e01b03199093169290921790915297506102aa9650505050505050565b60405162461bcd60e51b8152602060048201526024808201527f496e7075745363616c696e6748656c7065723a20496e76616c69642073656c6560448201527f63746f720000000000000000000000000000000000000000000000000000000060648201526084016103ef565b606060006106566004828688611c80565b61065f91611caa565b905060006106708560048189611c80565b8080601f0160208091040260200160405190810160405280939291908181526020018383808284376000920191909152509293505050506001600160e01b031982167f437f0e58000000000000000000000000000000000000000000000000000000000161076a57600080600080848060200190518101906106f291906124e8565b935093509350935087925085848484846040516024016107159493929190612541565b60408051601f198184030181529190526020810180517bffffffffffffffffffffffffffffffffffffffffffffffffffffffff166001600160e01b03199093169290921790915296506102aa95505050505050565b7fed55c351000000000000000000000000000000000000000000000000000000006001600160e01b03198316016107df57600080600080848060200190518101906107b591906125b4565b935093509350935087836080018181525050858484848460405160240161071594939291906126ad565b7f08723dad000000000000000000000000000000000000000000000000000000006001600160e01b03198316016108535760008060008060008580602001905181019061082c9190612733565b945094509450945094508892508685858585856040516024016105829594939291906127ac565b6040517fa7dd6a95000000000000000000000000000000000000000000000000000000008152600160048201526001600160e01b0319831660248201526044016103ef565b6060824710156109105760405162461bcd60e51b815260206004820152602660248201527f416464726573733a20696e73756666696369656e742062616c616e636520666f60448201527f722063616c6c000000000000000000000000000000000000000000000000000060648201526084016103ef565b600080866001600160a01b0316858760405161092c9190611c3c565b60006040518083038185875af1925050503d8060008114610969576040519150601f19603f3d011682016040523d82523d6000602084013e61096e565b606091505b509150915061097f87838387610a74565b979650505050505050565b81811615155b92915050565b610a0e60405180610160016040528060006001600160a01b0316815260200160006001600160a01b031681526020016060815260200160608152602001606081526020016060815260200160006001600160a01b03168152602001600081526020016000815260200160008152602001606081525090565b60e0850151606090848103610a295786869250925050610a6b565b8315610a4f57610a3a878287610aed565b610a45878388610c18565b9250925050610a6b565b610a5a878287610aed565b610a65878388610cde565b92509250505b94509492505050565b60608315610ae3578251600003610adc576001600160a01b0385163b610adc5760405162461bcd60e51b815260206004820152601d60248201527f416464726573733a2063616c6c20746f206e6f6e2d636f6e747261637400000060448201526064016103ef565b5081610279565b61027983836113eb565b610b6560405180610160016040528060006001600160a01b0316815260200160006001600160a01b031681526020016060815260200160608152602001606081526020016060815260200160006001600160a01b03168152602001600081526020016000815260200160008152602001606081525090565b8282856101000151610b7791906127e4565b610b819190612809565b6101008501819052600003610b995760016101008501525b60e0840182905260408401515160005b81811015610c0e57848487606001518381518110610bc957610bc961281d565b6020026020010151610bdb91906127e4565b610be59190612809565b86606001518281518110610bfb57610bfb61281d565b6020908102919091010152600101610ba9565b5093949350505050565b6060600084806020019051810190610c309190612922565b80515190915060005b81811015610c9e57858584602001518381518110610c5957610c5961281d565b6020026020010151610c6b91906127e4565b610c759190612809565b83602001518281518110610c8b57610c8b61281d565b6020908102919091010152600101610c39565b50610cae82608001518686611415565b6080830152604051610cc49083906020016129f6565b604051602081830303815290604052925050509392505050565b6060600084806020019051810190610cf69190612c3a565b9050610d078160a001518585611415565b60a082015280515160005b818110156113d957600083600001518281518110610d3257610d3261281d565b6020026020010151600081518110610d4c57610d4c61281d565b602090810291909101810151908101519091507fa6c9ee67000000000000000000000000000000000000000000000000000000006001600160e01b0319821601610da4578151610d9d9089896114ec565b82526113cf565b7f572d34ef000000000000000000000000000000000000000000000000000000006001600160e01b0319821601610de2578151610d9d908989611550565b7f26f31b6f000000000000000000000000000000000000000000000000000000006001600160e01b0319821601610e20578151610d9d90898961159b565b7f5c8ddaba000000000000000000000000000000000000000000000000000000006001600160e01b0319821601610e5e578151610d9d9089896114ec565b7f9cbf85b7000000000000000000000000000000000000000000000000000000006001600160e01b0319821601610e9c578151610d9d9089896115e6565b7f359e7d26000000000000000000000000000000000000000000000000000000006001600160e01b0319821601610f3b5760405162461bcd60e51b815260206004820152602a60248201527f496e7075745363616c696e6748656c7065723a2043616e206e6f74207363616c60448201527f652052465120737761700000000000000000000000000000000000000000000060648201526084016103ef565b7f73385a95000000000000000000000000000000000000000000000000000000006001600160e01b0319821601610f79578151610d9d90898961168f565b7ff357140f000000000000000000000000000000000000000000000000000000006001600160e01b0319821601610fb7578151610d9d90898961171e565b7f114abcec000000000000000000000000000000000000000000000000000000006001600160e01b0319821601610ff5578151610d9d90898961178a565b7f84868a9d000000000000000000000000000000000000000000000000000000006001600160e01b0319821601611033578151610d9d9089896117ce565b7faa052d05000000000000000000000000000000000000000000000000000000006001600160e01b0319821601611071578151610d9d9089896114ec565b7fc4d7b302000000000000000000000000000000000000000000000000000000006001600160e01b03198216016110af578151610d9d908989611819565b7f8b7c9535000000000000000000000000000000000000000000000000000000006001600160e01b03198216016110ed578151610d9d908989611864565b7f7fffdc5f000000000000000000000000000000000000000000000000000000006001600160e01b031982160161118c5760405162461bcd60e51b815260206004820152602a60248201527f496e7075745363616c696e6748656c7065723a2043616e206e6f74207363616c60448201527f652052465120737761700000000000000000000000000000000000000000000060648201526084016103ef565b7f720b5e95000000000000000000000000000000000000000000000000000000006001600160e01b03198216016111ca578151610d9d9089896114ec565b7f2967b593000000000000000000000000000000000000000000000000000000006001600160e01b03198216016112695760405162461bcd60e51b815260206004820152602a60248201527f496e7075745363616c696e6748656c7065723a2043616e206e6f74207363616c60448201527f652052465120737761700000000000000000000000000000000000000000000060648201526084016103ef565b7f70f867ac000000000000000000000000000000000000000000000000000000006001600160e01b03198216016112a7578151610d9d908989611819565b7f564c1c68000000000000000000000000000000000000000000000000000000006001600160e01b03198216016112e5578151610d9d9089896114ec565b7f6d8b601f000000000000000000000000000000000000000000000000000000006001600160e01b0319821601611323578151610d9d908989611909565b7fd83f32e8000000000000000000000000000000000000000000000000000000006001600160e01b0319821601611361578151610d9d90898961199a565b60405162461bcd60e51b815260206004820152602b60248201527f4167677265676174696f6e4578656375746f723a204465782074797065206e6f60448201527f7420737570706f7274656400000000000000000000000000000000000000000060648201526084016103ef565b5050600101610d12565b5081604051602001610cc49190612d08565b8151156113fb5781518083602001fd5b8060405162461bcd60e51b81526004016103ef9190612e56565b6060602084511115611486576000848060200190518101906114379190612e69565b90508383826020015161144a91906127e4565b6114549190612809565b6020828101918252604080519351918401919091529051828201528051808303820181526060909201905293506114e4565b83516020036114e4576000848060200190518101906114a59190611bd3565b9050836114b284836127e4565b6114bc9190612809565b9050806040516020016114d191815260200190565b6040516020818303038152906040529450505b509192915050565b60606000848060200190518101906115049190612ecc565b90508383826080015161151791906127e4565b6115219190612809565b6080820152604051611537908290602001612f6d565b6040516020818303038152906040529150509392505050565b6060600084806020019051810190611568919061300a565b905083838260a0015161157b91906127e4565b6115859190612809565b60a08201526040516115379082906020016130b2565b60606000848060200190518101906115b3919061315f565b905083838260a001516115c691906127e4565b6115d09190612809565b60a08201526040516115379082906020016131f4565b60606000848060200190518101906115fe919061326f565b90508383826080015161161191906127e4565b61161b9190612809565b6080820152604051611537908290602001600060e0820190506001600160a01b03808451168352806020850151166020840152806040850151166040840152806060850151166060840152608084015160808401528060a08501511660a08401525060c0830151151560c083015292915050565b60606000848060200190518101906116a79190613306565b9050838382608001516116ba91906127e4565b6116c49190612809565b6080820152604051611537908290602001600060a0820190506001600160a01b0380845116835260208401516020840152806040850151166040840152806060850151166060840152506080830151608083015292915050565b60606000848060200190518101906117369190613370565b90508383826020015161174991906127e4565b6117539190612809565b60208281019182526040805184516001600160a01b0316928101929092529151818301529082015115156060820152608001611537565b60606000848060200190518101906117a29190611bd3565b9050836117af84836127e4565b6117b99190612809565b90508060405160200161153791815260200190565b60606000848060200190518101906117e691906133d9565b9050838382608001516117f991906127e4565b6118039190612809565b608082015260405161153790829060200161345d565b60606000848060200190518101906118319190613540565b90508383826060015161184491906127e4565b61184e9190612809565b606082015260405161153790829060200161355c565b606060008480602001905181019061187c91906135a6565b90508383826080015161188f91906127e4565b6118999190612809565b6080820152604051611537908290602001600060e0820190506001600160a01b0380845116835280602085015116602084015280604085015116604084015250606083015160608301526080830151608083015260a083015160a083015260c0830151151560c083015292915050565b60606000848060200190518101906119219190613621565b90508383826080015161193491906127e4565b61193e9190612809565b6080820152604051611537908290602001600060a0820190506001600160a01b03808451168352806020850151166020840152806040850151166040840152806060850151166060840152506080830151608083015292915050565b60606000848060200190518101906119b29190613669565b9050838382608001516119c591906127e4565b6119cf9190612809565b6080820152604051611537908290602001600060c0820190506001600160a01b03808451168352806020850151166020840152806040850151166040840152806060850151166060840152506080830151608083015260a083015160a083015292915050565b6001600160a01b0381168114611a4a57600080fd5b50565b8035611a5881611a35565b919050565b600080600060608486031215611a7257600080fd5b8335611a7d81611a35565b925060208401359150604084013567ffffffffffffffff811115611aa057600080fd5b840160808187031215611ab257600080fd5b809150509250925092565b600060208284031215611acf57600080fd5b81356102aa81611a35565b8015158114611a4a57600080fd5b600060208284031215611afa57600080fd5b81356102aa81611ada565b60008083357fffffffffffffffffffffffffffffffffffffffffffffffffffffffffffffffe1843603018112611b3a57600080fd5b83018035915067ffffffffffffffff821115611b5557600080fd5b602001915036819003821315611b6a57600080fd5b9250929050565b600060208284031215611b8357600080fd5b8135600481106102aa57600080fd5b634e487b7160e01b600052601260045260246000fd5b60006bffffffffffffffffffffffff80841680611bc757611bc7611b92565b92169190910492915050565b600060208284031215611be557600080fd5b5051919050565b634e487b7160e01b600052602160045260246000fd5b634e487b7160e01b600052600160045260246000fd5b60005b83811015611c33578181015183820152602001611c1b565b50506000910152565b60008251611c4e818460208701611c18565b9190910192915050565b8051611a5881611ada565b600060208284031215611c7557600080fd5b81516102aa81611ada565b60008085851115611c9057600080fd5b83861115611c9d57600080fd5b5050820193919092039150565b6001600160e01b03198135818116916004851015611cd25780818660040360031b1b83161692505b505092915050565b634e487b7160e01b600052604160045260246000fd5b604051610160810167ffffffffffffffff81118282101715611d1457611d14611cda565b60405290565b60405160a0810167ffffffffffffffff81118282101715611d1457611d14611cda565b60405160e0810167ffffffffffffffff81118282101715611d1457611d14611cda565b6040805190810167ffffffffffffffff81118282101715611d1457611d14611cda565b60405160c0810167ffffffffffffffff81118282101715611d1457611d14611cda565b604051610100810167ffffffffffffffff81118282101715611d1457611d14611cda565b604051610120810167ffffffffffffffff81118282101715611d1457611d14611cda565b604051601f8201601f1916810167ffffffffffffffff81118282101715611e1757611e17611cda565b604052919050565b600067ffffffffffffffff821115611e3957611e39611cda565b50601f01601f191660200190565b600082601f830112611e5857600080fd5b8135611e6b611e6682611e1f565b611dee565b818152846020838601011115611e8057600080fd5b816020850160208301376000918101602001919091529392505050565b600067ffffffffffffffff821115611eb757611eb7611cda565b5060051b60200190565b600082601f830112611ed257600080fd5b81356020611ee2611e6683611e9d565b82815260059290921b84018101918181019086841115611f0157600080fd5b8286015b84811015611f25578035611f1881611a35565b8352918301918301611f05565b509695505050505050565b600082601f830112611f4157600080fd5b81356020611f51611e6683611e9d565b82815260059290921b84018101918181019086841115611f7057600080fd5b8286015b84811015611f255780358352918301918301611f74565b60006101608284031215611f9e57600080fd5b611fa6611cf0565b9050611fb182611a4d565b8152611fbf60208301611a4d565b6020820152604082013567ffffffffffffffff80821115611fdf57600080fd5b611feb85838601611ec1565b6040840152606084013591508082111561200457600080fd5b61201085838601611f30565b6060840152608084013591508082111561202957600080fd5b61203585838601611ec1565b608084015260a084013591508082111561204e57600080fd5b61205a85838601611f30565b60a084015261206b60c08501611a4d565b60c084015260e0848101359084015261010080850135908401526101208085013590840152610140915081840135818111156120a657600080fd5b6120b286828701611e47565b8385015250505092915050565b6000602082840312156120d157600080fd5b813567ffffffffffffffff808211156120e957600080fd5b9083019060a082860312156120fd57600080fd5b612105611d1a565b61210e83611a4d565b815261211c60208401611a4d565b602082015260408301358281111561213357600080fd5b61213f87828601611e47565b60408301525060608301358281111561215757600080fd5b61216387828601611f8b565b60608301525060808301358281111561217b57600080fd5b61218787828601611e47565b60808301525095945050505050565b600081518084526121ae816020860160208601611c18565b601f01601f19169290920160200192915050565b600081518084526020808501945080840160005b838110156121fb5781516001600160a01b0316875295820195908201906001016121d6565b509495945050505050565b600081518084526020808501945080840160005b838110156121fb5781518752958201959082019060010161221a565b80516001600160a01b031682526000610160602083015161226260208601826001600160a01b03169052565b50604083015181604086015261227a828601826121c2565b915050606083015184820360608601526122948282612206565b915050608083015184820360808601526122ae82826121c2565b91505060a083015184820360a08601526122c88282612206565b91505060c08301516122e560c08601826001600160a01b03169052565b5060e0838101519085015261010080840151908501526101208084015190850152610140808401518583038287015261231e8382612196565b9695505050505050565b6020815260006001600160a01b0380845116602084015280602085015116604084015250604083015160a0606084015261236560c0840182612196565b90506060840151601f19808584030160808601526123838383612236565b925060808601519150808584030160a0860152506123a18282612196565b95945050505050565b600080600080608085870312156123c057600080fd5b84356123cb81611a35565b9350602085013567ffffffffffffffff808211156123e857600080fd5b6123f488838901611f8b565b9450604087013591508082111561240a57600080fd5b61241688838901611e47565b9350606087013591508082111561242c57600080fd5b5061243987828801611e47565b91505092959194509250565b6001600160a01b03851681526080602082015260006124676080830186612236565b82810360408401526124798186612196565b9050828103606084015261097f8185612196565b600082601f83011261249e57600080fd5b815160206124ae611e6683611e9d565b82815260059290921b840181019181810190868411156124cd57600080fd5b8286015b84811015611f2557805183529183019183016124d1565b600080600080608085870312156124fe57600080fd5b845161250981611a35565b809450506020850151925060408501519150606085015167ffffffffffffffff81111561253557600080fd5b6124398782880161248d565b6001600160a01b038516815283602082015282604082015260806060820152600061231e6080830184612206565b600082601f83011261258057600080fd5b815161258e611e6682611e1f565b8181528460208386010111156125a357600080fd5b610279826020830160208701611c18565b6000806000808486036101408112156125cc57600080fd5b85516125d781611a35565b945060e0601f19820112156125eb57600080fd5b506125f4611d3d565b602086015161260281611a35565b8152604086015161261281611a35565b6020820152606086015161262581611a35565b6040820152608086015161263881611a35565b8060608301525060a0860151608082015260c086015160a082015260e086015160c08201528093505061010085015167ffffffffffffffff8082111561267d57600080fd5b6126898883890161256f565b93506101208701519150808211156126a057600080fd5b506124398782880161256f565b60006101406001600160a01b03808816845280875116602085015280602088015116604085015280604088015116606085015280606088015116608085015250608086015160a084015260a086015160c084015260c086015160e08401528061010084015261271e81840186612196565b905082810361012084015261097f8185612196565b600080600080600060a0868803121561274b57600080fd5b855161275681611a35565b602087015190955061276781611a35565b809450506040860151925060608601519150608086015167ffffffffffffffff81111561279357600080fd5b61279f8882890161248d565b9150509295509295909350565b60006001600160a01b03808816835280871660208401525084604083015283606083015260a0608083015261097f60a0830184612206565b808202811582820484141761099057634e487b7160e01b600052601160045260246000fd5b60008261281857612818611b92565b500490565b634e487b7160e01b600052603260045260246000fd5b8051611a5881611a35565b600082601f83011261284f57600080fd5b8151602061285f611e6683611e9d565b82815260059290921b8401810191818101908684111561287e57600080fd5b8286015b84811015611f2557805161289581611a35565b8352918301918301612882565b600082601f8301126128b357600080fd5b815160206128c3611e6683611e9d565b82815260059290921b840181019181810190868411156128e257600080fd5b8286015b84811015611f2557805167ffffffffffffffff8111156129065760008081fd5b6129148986838b010161256f565b8452509183019183016128e6565b60006020828403121561293457600080fd5b815167ffffffffffffffff8082111561294c57600080fd5b9083019060a0828603121561296057600080fd5b612968611d1a565b82518281111561297757600080fd5b6129838782860161283e565b82525060208301518281111561299857600080fd5b6129a48782860161248d565b6020830152506040830151828111156129bc57600080fd5b6129c8878286016128a2565b604083015250606083015160608201526080830151828111156129ea57600080fd5b6121878782860161256f565b60006020808352835160a082850152612a1260c08501826121c2565b905081850151601f1980868403016040870152612a2f8383612206565b60408801518782038301606089015280518083529194508501925084840190600581901b8501860160005b82811015612a865784878303018452612a74828751612196565b95880195938801939150600101612a5a565b5060608a015160808a015260808a01519650838982030160a08a0152612aac8188612196565b9a9950505050505050505050565b600082601f830112612acb57600080fd5b8151612ad9611e6682611e9d565b808282526020820191508560208460051b8701011115612af857600080fd5b602085015b60208460051b870101811015612c3057805167ffffffffffffffff811115612b2457600080fd5b8601603f81018813612b3557600080fd5b6020810151612b46611e6682611e9d565b808282526020820191508a60408460051b8601011115612b6557600080fd5b604084015b60408460051b860101811015612c1a57805167ffffffffffffffff811115612b9157600080fd5b60407fffffffffffffffffffffffffffffffffffffffffffffffffffffffffffffffc08288018f03011215612bc557600080fd5b612bcd611d60565b6040828801015167ffffffffffffffff811115612be957600080fd5b612bfa8f604083868c01010161256f565b825250908601606001516020808301919091529084529283019201612b6a565b5086525050602093840193919091019050612afd565b5095945050505050565b600060208284031215612c4c57600080fd5b815167ffffffffffffffff80821115612c6457600080fd5b9083019060c08286031215612c7857600080fd5b612c80611d83565b825182811115612c8f57600080fd5b612c9b87828601612aba565b825250612caa60208401612833565b6020820152612cbb60408401612833565b6040820152612ccc60608401612833565b60608201526080830151608082015260a083015182811115612ced57600080fd5b612cf98782860161256f565b60a08301525095945050505050565b6020808252825160c083830152805160e0840181905260009291600582811b860161010090810193928501929087019186805b83811015612de3578987037fffffffffffffffffffffffffffffffffffffffffffffffffffffffffffffff0001855285518051808952908901908989019080861b8a018b01855b82811015612dcd57601f198c8303018452845160408151818552612da882860182612196565b9150508e8201518f85015280935050508c850194508c84019350600181019050612d82565b5099505050958801955093870193600101612d3b565b50505050928601516001600160a01b03811660408701529250612e039050565b60408501516001600160a01b0381166060860152915060608501516001600160a01b03811660808601529150608085015160a085015260a08501519150601f198482030160c08501526123a18183612196565b6020815260006102aa6020830184612196565b600060408284031215612e7b57600080fd5b6040516040810181811067ffffffffffffffff82111715612e9e57612e9e611cda565b604052825181526020928301519281019290925250919050565b805163ffffffff81168114611a5857600080fd5b60006101008284031215612edf57600080fd5b612ee7611da6565b8251612ef281611a35565b81526020830151612f0281611a35565b6020820152612f1360408401612833565b6040820152612f2460608401612833565b606082015260808301516080820152612f3f60a08401612eb8565b60a0820152612f5060c08401612eb8565b60c0820152612f6160e08401612eb8565b60e08201529392505050565b6000610100820190506001600160a01b03808451168352806020850151166020840152806040850151166040840152806060850151166060840152506080830151608083015263ffffffff60a08401511660a083015260c0830151612fda60c084018263ffffffff169052565b5060e0830151612ff260e084018263ffffffff169052565b5092915050565b805160ff81168114611a5857600080fd5b6000610120828403121561301d57600080fd5b613025611dca565b61302e83612833565b815261303c60208401612833565b602082015261304d60408401612833565b604082015261305e60608401612ff9565b606082015261306f60808401612ff9565b608082015260a083015160a082015260c083015160c082015261309460e08401612833565b60e08201526101006130a7818501611c58565b908201529392505050565b81516001600160a01b039081168252602080840151821690830152604080840151918216908301526101208201905060608301516130f5606084018260ff169052565b50608083015161310a608084018260ff169052565b5060a083015160a083015260c083015160c083015260e083015161313960e08401826001600160a01b03169052565b506101008381015180151584830152611cd2565b8051600f81900b8114611a5857600080fd5b6000610100828403121561317257600080fd5b61317a611da6565b825161318581611a35565b8152602083015161319581611a35565b60208201526131a660408401612833565b60408201526131b76060840161314d565b60608201526131c86080840161314d565b608082015260a083015160a08201526131e360c08401611c58565b60c0820152612f6160e08401611c58565b6000610100820190506001600160a01b03808451168352806020850151166020840152806040850151166040840152506060830151600f0b60608301526080830151600f0b608083015260a083015160a083015260c083015161325b60c084018215159052565b5060e0830151612ff260e084018215159052565b600060e0828403121561328157600080fd5b613289611d3d565b825161329481611a35565b815260208301516132a481611a35565b602082015260408301516132b781611a35565b604082015260608301516132ca81611a35565b60608201526080838101519082015260a08301516132e781611a35565b60a082015260c08301516132fa81611ada565b60c08201529392505050565b600060a0828403121561331857600080fd5b613320611d1a565b825161332b81611a35565b815260208381015190820152604083015161334581611a35565b6040820152606083015161335881611a35565b60608201526080928301519281019290925250919050565b60006060828403121561338257600080fd5b6040516060810181811067ffffffffffffffff821117156133a5576133a5611cda565b60405282516133b381611a35565b81526020838101519082015260408301516133cd81611ada565b60408201529392505050565b600061010082840312156133ec57600080fd5b6133f4611da6565b82516133ff81611a35565b8152602083015161340f81611a35565b602082015261342060408401612833565b604082015261343160608401612833565b60608201526080830151608082015261344c60a08401612833565b60a08201526131e360c08401611c58565b6000610100820190506001600160a01b03808451168352806020850151166020840152806040850151166040840152806060850151166060840152608084015160808401528060a08501511660a08401525060c0830151151560c083015260e0830151612ff260e084018215159052565b600060a082840312156134e057600080fd5b6134e8611d1a565b905081516134f581611a35565b8152602082015161350581611a35565b6020820152604082015161351881611a35565b604082015260608281015190820152608082015161353581611a35565b608082015292915050565b600060a0828403121561355257600080fd5b6102aa83836134ce565b60a0810161099082846001600160a01b0380825116835280602083015116602084015280604083015116604084015260608201516060840152806080830151166080840152505050565b600060e082840312156135b857600080fd5b6135c0611d3d565b82516135cb81611a35565b815260208301516135db81611a35565b602082015260408301516135ee81611a35565b80604083015250606083015160608201526080830151608082015260a083015160a082015260c08301516132fa81611ada565b600060a0828403121561363357600080fd5b61363b611d1a565b825161364681611a35565b8152602083015161365681611a35565b6020820152604083015161334581611a35565b600060c0828403121561367b57600080fd5b60405160c0810181811067ffffffffffffffff8211171561369e5761369e611cda565b60405282516136ac81611a35565b815260208301516136bc81611a35565b602082015260408301516136cf81611a35565b604082015260608301516136e281611a35565b60608201526080838101519082015260a092830151928101929092525091905056fe416464726573733a206c6f772d6c6576656c2063616c6c20776974682076616c7565206661696c6564a26469706673582212204492f932415d35b9af1d1d7be4000dd18bf4997db18d8ae0349c200de628384464736f6c63430008110033",
  "linkReferences": {},
  "deployedLinkReferences": {}
}