{
  "_format": "hh-sol-artifact-1",
  "contractName": "ActionMintRedeem",
  "sourceName": "contracts/router/ActionMintRedeem.sol",
  "abi": [
    {
      "inputs": [
        {
          "internalType": "uint256",
          "name": "actualPYOut",
          "type": "uint256"
        },
        {
          "internalType": "uint256",
          "name": "requiredPYOut",
          "type": "uint256"
        }
      ],
      "name": "RouterInsufficientPYOut",
      "type": "error"
    },
    {
      "inputs": [
        {
          "internalType": "uint256",
          "name": "actualSyOut",
          "type": "uint256"
        },
        {
          "internalType": "uint256",
          "name": "requiredSyOut",
          "type": "uint256"
        }
      ],
      "name": "RouterInsufficientSyOut",
      "type": "error"
    },
    {
      "inputs": [
        {
          "internalType": "uint256",
          "name": "actualTokenOut",
          "type": "uint256"
        },
        {
          "internalType": "uint256",
          "name": "requiredTokenOut",
          "type": "uint256"
        }
      ],
      "name": "RouterInsufficientTokenOut",
      "type": "error"
    },
    {
      "anonymous": false,
      "inputs": [
        {
          "indexed": true,
          "internalType": "address",
          "name": "caller",
          "type": "address"
        },
        {
          "indexed": true,
          "internalType": "address",
          "name": "receiver",
          "type": "address"
        },
        {
          "indexed": true,
          "internalType": "address",
          "name": "YT",
          "type": "address"
        },
        {
          "indexed": false,
          "internalType": "uint256",
          "name": "netSyIn",
          "type": "uint256"
        },
        {
          "indexed": false,
          "internalType": "uint256",
          "name": "netPyOut",
          "type": "uint256"
        }
      ],
      "name": "MintPyFromSy",
      "type": "event"
    },
    {
      "anonymous": false,
      "inputs": [
        {
          "indexed": true,
          "internalType": "address",
          "name": "caller",
          "type": "address"
        },
        {
          "indexed": true,
          "internalType": "address",
          "name": "tokenIn",
          "type": "address"
        },
        {
          "indexed": true,
          "internalType": "address",
          "name": "YT",
          "type": "address"
        },
        {
          "indexed": false,
          "internalType": "address",
          "name": "receiver",
          "type": "address"
        },
        {
          "indexed": false,
          "internalType": "uint256",
          "name": "netTokenIn",
          "type": "uint256"
        },
        {
          "indexed": false,
          "internalType": "uint256",
          "name": "netPyOut",
          "type": "uint256"
        }
      ],
      "name": "MintPyFromToken",
      "type": "event"
    },
    {
      "anonymous": false,
      "inputs": [
        {
          "indexed": true,
          "internalType": "address",
          "name": "caller",
          "type": "address"
        },
        {
          "indexed": true,
          "internalType": "address",
          "name": "tokenIn",
          "type": "address"
        },
        {
          "indexed": true,
          "internalType": "address",
          "name": "SY",
          "type": "address"
        },
        {
          "indexed": false,
          "internalType": "address",
          "name": "receiver",
          "type": "address"
        },
        {
          "indexed": false,
          "internalType": "uint256",
          "name": "netTokenIn",
          "type": "uint256"
        },
        {
          "indexed": false,
          "internalType": "uint256",
          "name": "netSyOut",
          "type": "uint256"
        }
      ],
      "name": "MintSyFromToken",
      "type": "event"
    },
    {
      "anonymous": false,
      "inputs": [
        {
          "indexed": true,
          "internalType": "address",
          "name": "caller",
          "type": "address"
        },
        {
          "indexed": true,
          "internalType": "address",
          "name": "receiver",
          "type": "address"
        },
        {
          "indexed": true,
          "internalType": "address",
          "name": "YT",
          "type": "address"
        },
        {
          "indexed": false,
          "internalType": "uint256",
          "name": "netPyIn",
          "type": "uint256"
        },
        {
          "indexed": false,
          "internalType": "uint256",
          "name": "netSyOut",
          "type": "uint256"
        }
      ],
      "name": "RedeemPyToSy",
      "type": "event"
    },
    {
      "anonymous": false,
      "inputs": [
        {
          "indexed": true,
          "internalType": "address",
          "name": "caller",
          "type": "address"
        },
        {
          "indexed": true,
          "internalType": "address",
          "name": "tokenOut",
          "type": "address"
        },
        {
          "indexed": true,
          "internalType": "address",
          "name": "YT",
          "type": "address"
        },
        {
          "indexed": false,
          "internalType": "address",
          "name": "receiver",
          "type": "address"
        },
        {
          "indexed": false,
          "internalType": "uint256",
          "name": "netPyIn",
          "type": "uint256"
        },
        {
          "indexed": false,
          "internalType": "uint256",
          "name": "netTokenOut",
          "type": "uint256"
        }
      ],
      "name": "RedeemPyToToken",
      "type": "event"
    },
    {
      "anonymous": false,
      "inputs": [
        {
          "indexed": true,
          "internalType": "address",
          "name": "caller",
          "type": "address"
        },
        {
          "indexed": true,
          "internalType": "address",
          "name": "tokenOut",
          "type": "address"
        },
        {
          "indexed": true,
          "internalType": "address",
          "name": "SY",
          "type": "address"
        },
        {
          "indexed": false,
          "internalType": "address",
          "name": "receiver",
          "type": "address"
        },
        {
          "indexed": false,
          "internalType": "uint256",
          "name": "netSyIn",
          "type": "uint256"
        },
        {
          "indexed": false,
          "internalType": "uint256",
          "name": "netTokenOut",
          "type": "uint256"
        }
      ],
      "name": "RedeemSyToToken",
      "type": "event"
    },
    {
      "inputs": [
        {
          "internalType": "address",
          "name": "receiver",
          "type": "address"
        },
        {
          "internalType": "address",
          "name": "YT",
          "type": "address"
        },
        {
          "internalType": "uint256",
          "name": "netSyIn",
          "type": "uint256"
        },
        {
          "internalType": "uint256",
          "name": "minPyOut",
          "type": "uint256"
        }
      ],
      "name": "mintPyFromSy",
      "outputs": [
        {
          "internalType": "uint256",
          "name": "netPyOut",
          "type": "uint256"
        }
      ],
      "stateMutability": "nonpayable",
      "type": "function"
    },
    {
      "inputs": [
        {
          "internalType": "address",
          "name": "receiver",
          "type": "address"
        },
        {
          "internalType": "address",
          "name": "YT",
          "type": "address"
        },
        {
          "internalType": "uint256",
          "name": "minPyOut",
          "type": "uint256"
        },
        {
          "components": [
            {
              "internalType": "address",
              "name": "tokenIn",
              "type": "address"
            },
            {
              "internalType": "uint256",
              "name": "netTokenIn",
              "type": "uint256"
            },
            {
              "internalType": "address",
              "name": "tokenMintSy",
              "type": "address"
            },
            {
              "internalType": "address",
              "name": "bulk",
              "type": "address"
            },
            {
              "internalType": "address",
              "name": "euphratesSwap",
              "type": "address"
            },
            {
              "components": [
                {
                  "internalType": "enum SwapType",
                  "name": "swapType",
                  "type": "uint8"
                },
                {
                  "internalType": "address",
                  "name": "extRouter",
                  "type": "address"
                },
                {
                  "internalType": "bytes",
                  "name": "extCalldata",
                  "type": "bytes"
                },
                {
                  "internalType": "bool",
                  "name": "needScale",
                  "type": "bool"
                }
              ],
              "internalType": "struct SwapData",
              "name": "swapData",
              "type": "tuple"
            }
          ],
          "internalType": "struct TokenInput",
          "name": "input",
          "type": "tuple"
        }
      ],
      "name": "mintPyFromToken",
      "outputs": [
        {
          "internalType": "uint256",
          "name": "netPyOut",
          "type": "uint256"
        }
      ],
      "stateMutability": "payable",
      "type": "function"
    },
    {
      "inputs": [
        {
          "internalType": "address",
          "name": "receiver",
          "type": "address"
        },
        {
          "internalType": "address",
          "name": "SY",
          "type": "address"
        },
        {
          "internalType": "uint256",
          "name": "minSyOut",
          "type": "uint256"
        },
        {
          "components": [
            {
              "internalType": "address",
              "name": "tokenIn",
              "type": "address"
            },
            {
              "internalType": "uint256",
              "name": "netTokenIn",
              "type": "uint256"
            },
            {
              "internalType": "address",
              "name": "tokenMintSy",
              "type": "address"
            },
            {
              "internalType": "address",
              "name": "bulk",
              "type": "address"
            },
            {
              "internalType": "address",
              "name": "euphratesSwap",
              "type": "address"
            },
            {
              "components": [
                {
                  "internalType": "enum SwapType",
                  "name": "swapType",
                  "type": "uint8"
                },
                {
                  "internalType": "address",
                  "name": "extRouter",
                  "type": "address"
                },
                {
                  "internalType": "bytes",
                  "name": "extCalldata",
                  "type": "bytes"
                },
                {
                  "internalType": "bool",
                  "name": "needScale",
                  "type": "bool"
                }
              ],
              "internalType": "struct SwapData",
              "name": "swapData",
              "type": "tuple"
            }
          ],
          "internalType": "struct TokenInput",
          "name": "input",
          "type": "tuple"
        }
      ],
      "name": "mintSyFromToken",
      "outputs": [
        {
          "internalType": "uint256",
          "name": "netSyOut",
          "type": "uint256"
        }
      ],
      "stateMutability": "payable",
      "type": "function"
    },
    {
      "inputs": [
        {
          "internalType": "address",
          "name": "user",
          "type": "address"
        },
        {
          "internalType": "address[]",
          "name": "sys",
          "type": "address[]"
        },
        {
          "internalType": "address[]",
          "name": "yts",
          "type": "address[]"
        },
        {
          "internalType": "address[]",
          "name": "markets",
          "type": "address[]"
        }
      ],
      "name": "redeemDueInterestAndRewards",
      "outputs": [],
      "stateMutability": "nonpayable",
      "type": "function"
    },
    {
      "inputs": [
        {
          "internalType": "address",
          "name": "receiver",
          "type": "address"
        },
        {
          "internalType": "address",
          "name": "YT",
          "type": "address"
        },
        {
          "internalType": "uint256",
          "name": "netPyIn",
          "type": "uint256"
        },
        {
          "internalType": "uint256",
          "name": "minSyOut",
          "type": "uint256"
        }
      ],
      "name": "redeemPyToSy",
      "outputs": [
        {
          "internalType": "uint256",
          "name": "netSyOut",
          "type": "uint256"
        }
      ],
      "stateMutability": "nonpayable",
      "type": "function"
    },
    {
      "inputs": [
        {
          "internalType": "address",
          "name": "receiver",
          "type": "address"
        },
        {
          "internalType": "address",
          "name": "YT",
          "type": "address"
        },
        {
          "internalType": "uint256",
          "name": "netPyIn",
          "type": "uint256"
        },
        {
          "internalType": "address",
          "name": "tokenRedeemSy",
          "type": "address"
        }
      ],
      "name": "redeemPyToToken",
      "outputs": [
        {
          "internalType": "uint256",
          "name": "netTokenOut",
          "type": "uint256"
        }
      ],
      "stateMutability": "nonpayable",
      "type": "function"
    },
    {
      "inputs": [
        {
          "internalType": "address",
          "name": "receiver",
          "type": "address"
        },
        {
          "internalType": "address",
          "name": "SY",
          "type": "address"
        },
        {
          "internalType": "uint256",
          "name": "netSyIn",
          "type": "uint256"
        },
        {
          "components": [
            {
              "internalType": "address",
              "name": "tokenOut",
              "type": "address"
            },
            {
              "internalType": "uint256",
              "name": "minTokenOut",
              "type": "uint256"
            },
            {
              "internalType": "address",
              "name": "tokenRedeemSy",
              "type": "address"
            },
            {
              "internalType": "address",
              "name": "bulk",
              "type": "address"
            },
            {
              "internalType": "address",
              "name": "euphratesSwap",
              "type": "address"
            },
            {
              "components": [
                {
                  "internalType": "enum SwapType",
                  "name": "swapType",
                  "type": "uint8"
                },
                {
                  "internalType": "address",
                  "name": "extRouter",
                  "type": "address"
                },
                {
                  "internalType": "bytes",
                  "name": "extCalldata",
                  "type": "bytes"
                },
                {
                  "internalType": "bool",
                  "name": "needScale",
                  "type": "bool"
                }
              ],
              "internalType": "struct SwapData",
              "name": "swapData",
              "type": "tuple"
            }
          ],
          "internalType": "struct TokenOutput",
          "name": "output",
          "type": "tuple"
        }
      ],
      "name": "redeemSyToToken",
      "outputs": [
        {
          "internalType": "uint256",
          "name": "netTokenOut",
          "type": "uint256"
        }
      ],
      "stateMutability": "nonpayable",
      "type": "function"
    }
  ],
  "bytecode": "0x608060405234801561001057600080fd5b50612207806100206000396000f3fe6080604052600436106100705760003560e01c8063443e65121161004e578063443e6512146100e757806346eb2db6146100fa57806385b299361461010d578063f7e375e81461012d57600080fd5b80631a8631b21461007557806325440e56146100a7578063339748cb146100c7575b600080fd5b34801561008157600080fd5b50610095610090366004611bbb565b61014f565b60405190815260200160405180910390f35b3480156100b357600080fd5b506100956100c2366004611c01565b61022b565b3480156100d357600080fd5b506100956100e2366004611bbb565b6102ba565b6100956100f5366004611c6c565b610322565b610095610108366004611c6c565b6103af565b34801561011957600080fd5b50610095610128366004611c6c565b6104ac565b34801561013957600080fd5b5061014d610148366004611d24565b610522565b005b60006101c185856001600160a01b031663afd27bf56040518163ffffffff1660e01b8152600401602060405180830381865afa158015610193573d6000803e3d6000fd5b505050506040513d601f19601f820116820180604052508101906101b79190611dd1565b868686600161078f565b9050836001600160a01b0316856001600160a01b0316336001600160a01b03167f52e05e4badd3463bad837f42fe3ba58c739d1b3081cff9bb6eb02a24034d455d868560405161021b929190918252602082015260400190565b60405180910390a4949350505050565b600080846001600160a01b031663afd27bf56040518163ffffffff1660e01b8152600401602060405180830381865afa15801561026c573d6000803e3d6000fd5b505050506040513d601f19601f820116820180604052508101906102909190611dd1565b905060006102a18287876001610884565b90506102af87838387610a45565b979650505050505050565b60006102c885858585610884565b9050836001600160a01b0316856001600160a01b0316336001600160a01b03167f31af33f80f4b396e3d4e42b38ecd3e022883a9bf689fd63f47afbe1d389cb6e7868560405161021b929190918252602082015260400190565b600061033a6103346020840184611dee565b85610a5c565b61034685858585610b61565b90506001600160a01b03841661035f6020840184611dee565b604080516001600160a01b0389811682526020808801359083015291810185905291169033907f71c7a44161eb32e4640f6c8f0586db5f1d2e03306e2c63bb2e0f7cd0a8fc690c9060600161021b565b600080846001600160a01b031663afd27bf56040518163ffffffff1660e01b8152600401602060405180830381865afa1580156103f0573d6000803e3d6000fd5b505050506040513d601f19601f820116820180604052508101906104149190611dd1565b905060006104258683600087610b61565b90506104368783888489600061078f565b92506001600160a01b03861661044f6020860186611dee565b604080516001600160a01b038b811682526020808a01359083015291810187905291169033907ff586e656e1e436d9ca7c96e43cb793e47b685467d5d574a66efabb8501a333b89060600160405180910390a45050949350505050565b60006104bc858585856001610d53565b90506001600160a01b0384166104d56020840184611dee565b604080516001600160a01b0389811682526020820188905291810185905291169033907fcd34b6ac7e4b72ab30845649aef2f4fd41945ae2dc08f625be69738bbd0f9aa99060600161021b565b60005b858110156105e85786868281811061053f5761053f611e0b565b90506020020160208101906105549190611dee565b6040517fef5cfb8c0000000000000000000000000000000000000000000000000000000081526001600160a01b038a81166004830152919091169063ef5cfb8c906024016000604051808303816000875af11580156105b7573d6000803e3d6000fd5b505050506040513d6000823e601f3d908101601f191682016040526105df9190810190611ec7565b50600101610525565b5060005b838110156106be5784848281811061060657610606611e0b565b905060200201602081019061061b9190611dee565b6040517f7d24da4d0000000000000000000000000000000000000000000000000000000081526001600160a01b038a8116600483015260016024830181905260448301529190911690637d24da4d906064016000604051808303816000875af115801561068c573d6000803e3d6000fd5b505050506040513d6000823e601f3d908101601f191682016040526106b49190810190611efc565b50506001016105ec565b5060005b81811015610785578282828181106106dc576106dc611e0b565b90506020020160208101906106f19190611dee565b6040517f9262187b0000000000000000000000000000000000000000000000000000000081526001600160a01b038a811660048301529190911690639262187b906024016000604051808303816000875af1158015610754573d6000803e3d6000fd5b505050506040513d6000823e601f3d908101601f1916820160405261077c9190810190611ec7565b506001016106c2565b5050505050505050565b600081156107a3576107a386338787610f38565b6040517fdb74aa150000000000000000000000000000000000000000000000000000000081526001600160a01b0388811660048301819052602483015286169063db74aa15906044016020604051808303816000875af115801561080b573d6000803e3d6000fd5b505050506040513d601f19601f8201168201806040525081019061082f9190611f43565b90508281101561087a576040517fca935dfd00000000000000000000000000000000000000000000000000000000815260048101829052602481018490526044015b60405180910390fd5b9695505050505050565b600080846001600160a01b031663d94073d46040518163ffffffff1660e01b8152600401602060405180830381865afa1580156108c5573d6000803e3d6000fd5b505050506040513d601f19601f820116820180604052508101906108e99190611dd1565b90506108f781338787610f38565b6000856001600160a01b0316632f13b60c6040518163ffffffff1660e01b8152600401602060405180830381865afa158015610937573d6000803e3d6000fd5b505050506040513d601f19601f8201168201806040525081019061095b9190611f6a565b15905080156109705761097086338888610f38565b6040517fbcb7ea5d0000000000000000000000000000000000000000000000000000000081526001600160a01b03888116600483015287169063bcb7ea5d906024016020604051808303816000875af11580156109d1573d6000803e3d6000fd5b505050506040513d601f19601f820116820180604052508101906109f59190611f43565b925083831015610a3b576040517f0a4439e60000000000000000000000000000000000000000000000000000000081526004810184905260248101859052604401610871565b5050949350505050565b6000610a5385858585610f59565b95945050505050565b6001600160a01b038216610a6e575050565b610a8560026bffffffffffffffffffffffff611f87565b6040517fdd62ed3e0000000000000000000000000000000000000000000000000000000081523060048201526001600160a01b0383811660248301526bffffffffffffffffffffffff929092169184169063dd62ed3e90604401602060405180830381865afa158015610afc573d6000803e3d6000fd5b505050506040513d601f19601f82011682018060405250810190610b209190611f43565b1015610b5d57610b3282826000610fff565b610b5d82827fffffffffffffffffffffffffffffffffffffffffffffffffffffffffffffffff610fff565b5050565b600080610b7160a0840184611fc0565b610b7f906020810190612012565b9050600080826003811115610b9657610b9661202d565b03610bc157610bb6610bab6020860186611dee565b338660200135611148565b506020830135610d46565b6003826003811115610bd557610bd561202d565b03610c1457610bea610bab6020860186611dee565b610bb6610bfa6020860186611dee565b610c0a6060870160408801611dee565b8660200135611242565b6000610c236020860186611dee565b6001600160a01b031603610c4657610c416000338660200135611148565b610c71565b610c71610c566020860186611dee565b33610c6760a0880160808901611dee565b8760200135610f38565b610c8160a0850160808601611dee565b6001600160a01b0316632bdb823c6000610c9e6020880188611dee565b6001600160a01b031614610cb3576000610cb9565b85602001355b610cc66020880188611dee565b6020880135610cd860a08a018a611fc0565b6040518563ffffffff1660e01b8152600401610cf693929190612079565b6000604051808303818588803b158015610d0f57600080fd5b505af1158015610d23573d6000803e3d6000fd5b5050505050610d43846040016020810190610d3e9190611dee565b611317565b90505b6102af87878388886113b6565b600080610d6360a0850185611fc0565b610d71906020810190612012565b90506000816003811115610d8757610d8761202d565b03610da057610d998787878787611569565b9150610ee3565b6003816003811115610db457610db461202d565b03610e0a57610dc63087878787611569565b9150610dee610ddb6060860160408701611dee565b610de86020870187611dee565b84611242565b610e05610dfe6020860186611dee565b888461171a565b610ee3565b6000610e28610e1f60a0870160808801611dee565b88888888611569565b9050610e3a60a0860160808701611dee565b6001600160a01b0316632bdb823c610e586060880160408901611dee565b83610e6660a08a018a611fc0565b6040518463ffffffff1660e01b8152600401610e8493929190612079565b600060405180830381600087803b158015610e9e57600080fd5b505af1158015610eb2573d6000803e3d6000fd5b50610ec89250610d3e9150506020870187611dee565b9250610ee1610eda6020870187611dee565b898561171a565b505b8360200135821015610f2e576040517fc5b5576d0000000000000000000000000000000000000000000000000000000081526004810183905260208501356024820152604401610871565b5095945050505050565b8015610f5357610f536001600160a01b0385168484846117ec565b50505050565b6040517f769f8e5d0000000000000000000000000000000000000000000000000000000081526001600160a01b03858116600483015260248201849052828116604483015260006064830181905260016084840152919085169063769f8e5d9060a4016020604051808303816000875af1158015610fdb573d6000803e3d6000fd5b505050506040513d601f19601f82011682018060405250810190610a539190611f43565b604080516001600160a01b038481166024830152604480830185905283518084039091018152606490920183526020820180517bffffffffffffffffffffffffffffffffffffffffffffffffffffffff167f095ea7b3000000000000000000000000000000000000000000000000000000001790529151600092839290871691611089919061218c565b6000604051808303816000865af19150503d80600081146110c6576040519150601f19603f3d011682016040523d82523d6000602084013e6110cb565b606091505b50915091508180156110f55750805115806110f55750808060200190518101906110f59190611f6a565b6111415760405162461bcd60e51b815260206004820152600c60248201527f5361666520417070726f766500000000000000000000000000000000000000006044820152606401610871565b5050505050565b6001600160a01b0383166111aa578034146111a55760405162461bcd60e51b815260206004820152600c60248201527f657468206d69736d6174636800000000000000000000000000000000000000006044820152606401610871565b505050565b80156111a5576040517f23b872dd0000000000000000000000000000000000000000000000000000000081526001600160a01b038381166004830152306024830152604482018390528416906323b872dd906064016020604051808303816000875af115801561121e573d6000803e3d6000fd5b505050506040513d601f19601f82011682018060405250810190610f539190611f6a565b6001600160a01b03831661129f57816001600160a01b031663d0e30db0826040518263ffffffff1660e01b81526004016000604051808303818588803b15801561128b57600080fd5b505af1158015610785573d6000803e3d6000fd5b6040517f2e1a7d4d000000000000000000000000000000000000000000000000000000008152600481018290526001600160a01b03841690632e1a7d4d90602401600060405180830381600087803b1580156112fa57600080fd5b505af115801561130e573d6000803e3d6000fd5b50505050505050565b60006001600160a01b038216156113ae576040517f70a082310000000000000000000000000000000000000000000000000000000081523060048201526001600160a01b038316906370a0823190602401602060405180830381865afa158015611385573d6000803e3d6000fd5b505050506040513d601f19601f820116820180604052508101906113a99190611f43565b6113b0565b475b92915050565b600080806113ca6060850160408601611dee565b6001600160a01b0316146113df5760006113e1565b845b905060006113f56080850160608601611dee565b6001600160a01b0316146114b1576114136080840160608501611dee565b6040517fb27670700000000000000000000000000000000000000000000000000000000081526001600160a01b0389811660048301526024820188905260448201879052919091169063b276707090839060640160206040518083038185885af1158015611485573d6000803e3d6000fd5b50505050506040513d601f19601f820116820180604052508101906114aa9190611f43565b9150610f2e565b6001600160a01b0386166320e8c56582896114d26060880160408901611dee565b6040517fffffffff0000000000000000000000000000000000000000000000000000000060e086901b1681526001600160a01b03928316600482015291166024820152604481018990526064810188905260840160206040518083038185885af1158015611544573d6000803e3d6000fd5b50505050506040513d601f19601f820116820180604052508101906102af9190611f43565b60008115611586576115868533611580888761189d565b87610f38565b60006115986080850160608601611dee565b6001600160a01b031614611659576115b66080840160608501611dee565b6040517f83f5b7660000000000000000000000000000000000000000000000000000000081526001600160a01b03888116600483015260248201879052600060448301526001606483015291909116906383f5b766906084016020604051808303816000875af115801561162e573d6000803e3d6000fd5b505050506040513d601f19601f820116820180604052508101906116529190611f43565b9050610a53565b6001600160a01b03851663769f8e5d878661167a6060880160408901611dee565b60405160e085901b7fffffffff000000000000000000000000000000000000000000000000000000001681526001600160a01b03938416600482015260248101929092529091166044820152600060648201526001608482015260a4016020604051808303816000875af11580156116f6573d6000803e3d6000fd5b505050506040513d601f19601f8201168201806040525081019061087a9190611f43565b8060000361172757505050565b6001600160a01b0383166117d8576000826001600160a01b03168260405160006040518083038185875af1925050503d8060008114611782576040519150601f19603f3d011682016040523d82523d6000602084013e611787565b606091505b5050905080610f535760405162461bcd60e51b815260206004820152600f60248201527f6574682073656e64206661696c656400000000000000000000000000000000006044820152606401610871565b6111a56001600160a01b03841683836118db565b6040516001600160a01b0380851660248301528316604482015260648101829052610f539085907f23b872dd00000000000000000000000000000000000000000000000000000000906084015b60408051601f198184030181529190526020810180517bffffffffffffffffffffffffffffffffffffffffffffffffffffffff167fffffffff0000000000000000000000000000000000000000000000000000000090931692909217909152611924565b6000806118b06080840160608501611dee565b6001600160a01b0316036118c457826118d4565b6118d46080830160608401611dee565b9392505050565b6040516001600160a01b0383166024820152604481018290526111a59084907fa9059cbb0000000000000000000000000000000000000000000000000000000090606401611839565b6000611979826040518060400160405280602081526020017f5361666545524332303a206c6f772d6c6576656c2063616c6c206661696c6564815250856001600160a01b0316611a0c9092919063ffffffff16565b905080516000148061199a57508080602001905181019061199a9190611f6a565b6111a55760405162461bcd60e51b815260206004820152602a60248201527f5361666545524332303a204552433230206f7065726174696f6e20646964206e60448201527f6f742073756363656564000000000000000000000000000000000000000000006064820152608401610871565b6060611a1b8484600085611a23565b949350505050565b606082471015611a9b5760405162461bcd60e51b815260206004820152602660248201527f416464726573733a20696e73756666696369656e742062616c616e636520666f60448201527f722063616c6c00000000000000000000000000000000000000000000000000006064820152608401610871565b600080866001600160a01b03168587604051611ab7919061218c565b60006040518083038185875af1925050503d8060008114611af4576040519150601f19603f3d011682016040523d82523d6000602084013e611af9565b606091505b50915091506102af8783838760608315611b74578251600003611b6d576001600160a01b0385163b611b6d5760405162461bcd60e51b815260206004820152601d60248201527f416464726573733a2063616c6c20746f206e6f6e2d636f6e74726163740000006044820152606401610871565b5081611a1b565b611a1b8383815115611b895781518083602001fd5b8060405162461bcd60e51b8152600401610871919061219e565b6001600160a01b0381168114611bb857600080fd5b50565b60008060008060808587031215611bd157600080fd5b8435611bdc81611ba3565b93506020850135611bec81611ba3565b93969395505050506040820135916060013590565b60008060008060808587031215611c1757600080fd5b8435611c2281611ba3565b93506020850135611c3281611ba3565b9250604085013591506060850135611c4981611ba3565b939692955090935050565b600060c08284031215611c6657600080fd5b50919050565b60008060008060808587031215611c8257600080fd5b8435611c8d81611ba3565b93506020850135611c9d81611ba3565b925060408501359150606085013567ffffffffffffffff811115611cc057600080fd5b611ccc87828801611c54565b91505092959194509250565b60008083601f840112611cea57600080fd5b50813567ffffffffffffffff811115611d0257600080fd5b6020830191508360208260051b8501011115611d1d57600080fd5b9250929050565b60008060008060008060006080888a031215611d3f57600080fd5b8735611d4a81611ba3565b9650602088013567ffffffffffffffff80821115611d6757600080fd5b611d738b838c01611cd8565b909850965060408a0135915080821115611d8c57600080fd5b611d988b838c01611cd8565b909650945060608a0135915080821115611db157600080fd5b50611dbe8a828b01611cd8565b989b979a50959850939692959293505050565b600060208284031215611de357600080fd5b81516118d481611ba3565b600060208284031215611e0057600080fd5b81356118d481611ba3565b634e487b7160e01b600052603260045260246000fd5b634e487b7160e01b600052604160045260246000fd5b600082601f830112611e4857600080fd5b8151602067ffffffffffffffff80831115611e6557611e65611e21565b8260051b604051601f19603f83011681018181108482111715611e8a57611e8a611e21565b604052938452858101830193838101925087851115611ea857600080fd5b83870191505b848210156102af57815183529183019190830190611eae565b600060208284031215611ed957600080fd5b815167ffffffffffffffff811115611ef057600080fd5b611a1b84828501611e37565b60008060408385031215611f0f57600080fd5b82519150602083015167ffffffffffffffff811115611f2d57600080fd5b611f3985828601611e37565b9150509250929050565b600060208284031215611f5557600080fd5b5051919050565b8015158114611bb857600080fd5b600060208284031215611f7c57600080fd5b81516118d481611f5c565b60006bffffffffffffffffffffffff80841680611fb457634e487b7160e01b600052601260045260246000fd5b92169190910492915050565b600082357fffffffffffffffffffffffffffffffffffffffffffffffffffffffffffffff81833603018112611ff457600080fd5b9190910192915050565b80356004811061200d57600080fd5b919050565b60006020828403121561202457600080fd5b6118d482611ffe565b634e487b7160e01b600052602160045260246000fd5b818352818160208501375060006020828401015260006020601f19601f840116840101905092915050565b803561200d81611f5c565b60006001600160a01b0380861683528460208401526060604084015261209e84611ffe565b600481106120bc57634e487b7160e01b600052602160045260246000fd5b606084015260208401356120cf81611ba3565b1660808301526040830135368490037fffffffffffffffffffffffffffffffffffffffffffffffffffffffffffffffe101811261210b57600080fd5b830160208101903567ffffffffffffffff81111561212857600080fd5b80360382131561213757600080fd5b608060a085015261214c60e085018284612043565b91505061215b6060850161206e565b80151560c0850152610f2e565b60005b8381101561218357818101518382015260200161216b565b50506000910152565b60008251611ff4818460208701612168565b60208152600082518060208401526121bd816040850160208701612168565b601f01601f1916919091016040019291505056fea2646970667358221220c33f1920e0efcc4b1115f169791b0bf11db88e28cb47437eeb5fa1f88433967c64736f6c63430008110033",
  "linkReferences": {},
  "deployedLinkReferences": {}
}