{
  "_format": "hh-sol-artifact-1",
  "contractName": "BoringOwnableUpgradeableData",
  "sourceName": "contracts/core/libraries/BoringOwnableUpgradeable.sol",
  "abi": [
    {
      "inputs": [],
      "name": "owner",
      "outputs": [
        {
          "internalType": "address",
          "name": "",
          "type": "address"
        }
      ],
      "stateMutability": "view",
      "type": "function"
    },
    {
      "inputs": [],
      "name": "pendingOwner",
      "outputs": [
        {
          "internalType": "address",
          "name": "",
          "type": "address"
        }
      ],
      "stateMutability": "view",
      "type": "function"
    }
  ],
  "bytecode": "0x608060405234801561001057600080fd5b5060d48061001f6000396000f3fe6080604052348015600f57600080fd5b506004361060325760003560e01c80638da5cb5b146037578063e30c397814607f575b600080fd5b60005460569073ffffffffffffffffffffffffffffffffffffffff1681565b60405173ffffffffffffffffffffffffffffffffffffffff909116815260200160405180910390f35b60015460569073ffffffffffffffffffffffffffffffffffffffff168156fea2646970667358221220c1544562caf9df4f6545d63fb00417e9b0fc447a0f76a32f59482181316502ea64736f6c63430008110033",
  "linkReferences": {},
  "deployedLinkReferences": {}
}