{
  "_format": "hh-sol-artifact-1",
  "contractName": "EuphratesExternalRewardDistributor",
  "sourceName": "contracts/core/Market/EuphratesExternalRewardDistributor.sol",
  "abi": [
    {
      "inputs": [
        {
          "internalType": "address",
          "name": "_marketFactory",
          "type": "address"
        }
      ],
      "stateMutability": "nonpayable",
      "type": "constructor"
    },
    {
      "anonymous": false,
      "inputs": [
        {
          "indexed": true,
          "internalType": "address",
          "name": "market",
          "type": "address"
        },
        {
          "indexed": true,
          "internalType": "address",
          "name": "token",
          "type": "address"
        },
        {
          "components": [
            {
              "internalType": "uint128",
              "name": "rewardPerSec",
              "type": "uint128"
            },
            {
              "internalType": "uint128",
              "name": "accumulatedReward",
              "type": "uint128"
            },
            {
              "internalType": "uint128",
              "name": "lastUpdated",
              "type": "uint128"
            },
            {
              "internalType": "uint128",
              "name": "incentiveEndsAt",
              "type": "uint128"
            }
          ],
          "indexed": false,
          "internalType": "struct IPExternalRewardDistributor.MarketRewardData",
          "name": "data",
          "type": "tuple"
        }
      ],
      "name": "AddRewardToMarket",
      "type": "event"
    },
    {
      "anonymous": false,
      "inputs": [
        {
          "indexed": false,
          "internalType": "address",
          "name": "previousAdmin",
          "type": "address"
        },
        {
          "indexed": false,
          "internalType": "address",
          "name": "newAdmin",
          "type": "address"
        }
      ],
      "name": "AdminChanged",
      "type": "event"
    },
    {
      "anonymous": false,
      "inputs": [
        {
          "indexed": true,
          "internalType": "address",
          "name": "beacon",
          "type": "address"
        }
      ],
      "name": "BeaconUpgraded",
      "type": "event"
    },
    {
      "anonymous": false,
      "inputs": [
        {
          "indexed": true,
          "internalType": "address",
          "name": "market",
          "type": "address"
        },
        {
          "indexed": true,
          "internalType": "address",
          "name": "rewardToken",
          "type": "address"
        },
        {
          "indexed": false,
          "internalType": "uint256",
          "name": "amount",
          "type": "uint256"
        }
      ],
      "name": "DistributeReward",
      "type": "event"
    },
    {
      "anonymous": false,
      "inputs": [
        {
          "indexed": false,
          "internalType": "uint8",
          "name": "version",
          "type": "uint8"
        }
      ],
      "name": "Initialized",
      "type": "event"
    },
    {
      "anonymous": false,
      "inputs": [
        {
          "indexed": true,
          "internalType": "address",
          "name": "previousOwner",
          "type": "address"
        },
        {
          "indexed": true,
          "internalType": "address",
          "name": "newOwner",
          "type": "address"
        }
      ],
      "name": "OwnershipTransferred",
      "type": "event"
    },
    {
      "anonymous": false,
      "inputs": [
        {
          "indexed": true,
          "internalType": "address",
          "name": "implementation",
          "type": "address"
        }
      ],
      "name": "Upgraded",
      "type": "event"
    },
    {
      "inputs": [
        {
          "internalType": "address",
          "name": "market",
          "type": "address"
        },
        {
          "internalType": "address",
          "name": "token",
          "type": "address"
        },
        {
          "internalType": "uint128",
          "name": "rewardAmount",
          "type": "uint128"
        },
        {
          "internalType": "uint128",
          "name": "duration",
          "type": "uint128"
        }
      ],
      "name": "addRewardToMarket",
      "outputs": [],
      "stateMutability": "nonpayable",
      "type": "function"
    },
    {
      "inputs": [
        {
          "internalType": "address",
          "name": "token",
          "type": "address"
        },
        {
          "internalType": "address[]",
          "name": "markets",
          "type": "address[]"
        },
        {
          "internalType": "uint256[]",
          "name": "weights",
          "type": "uint256[]"
        },
        {
          "internalType": "uint256",
          "name": "totalRewardToDistribute",
          "type": "uint256"
        }
      ],
      "name": "addWeeklyRewardBatch",
      "outputs": [],
      "stateMutability": "nonpayable",
      "type": "function"
    },
    {
      "inputs": [],
      "name": "claimOwnership",
      "outputs": [],
      "stateMutability": "nonpayable",
      "type": "function"
    },
    {
      "inputs": [
        {
          "internalType": "address",
          "name": "market",
          "type": "address"
        }
      ],
      "name": "getRewardTokens",
      "outputs": [
        {
          "internalType": "address[]",
          "name": "",
          "type": "address[]"
        }
      ],
      "stateMutability": "view",
      "type": "function"
    },
    {
      "inputs": [],
      "name": "initialize",
      "outputs": [],
      "stateMutability": "nonpayable",
      "type": "function"
    },
    {
      "inputs": [],
      "name": "marketFactory",
      "outputs": [
        {
          "internalType": "address",
          "name": "",
          "type": "address"
        }
      ],
      "stateMutability": "view",
      "type": "function"
    },
    {
      "inputs": [],
      "name": "owner",
      "outputs": [
        {
          "internalType": "address",
          "name": "",
          "type": "address"
        }
      ],
      "stateMutability": "view",
      "type": "function"
    },
    {
      "inputs": [],
      "name": "pendingOwner",
      "outputs": [
        {
          "internalType": "address",
          "name": "",
          "type": "address"
        }
      ],
      "stateMutability": "view",
      "type": "function"
    },
    {
      "inputs": [],
      "name": "proxiableUUID",
      "outputs": [
        {
          "internalType": "bytes32",
          "name": "",
          "type": "bytes32"
        }
      ],
      "stateMutability": "view",
      "type": "function"
    },
    {
      "inputs": [],
      "name": "redeemRewards",
      "outputs": [],
      "stateMutability": "nonpayable",
      "type": "function"
    },
    {
      "inputs": [
        {
          "internalType": "address",
          "name": "newOwner",
          "type": "address"
        },
        {
          "internalType": "bool",
          "name": "direct",
          "type": "bool"
        },
        {
          "internalType": "bool",
          "name": "renounce",
          "type": "bool"
        }
      ],
      "name": "transferOwnership",
      "outputs": [],
      "stateMutability": "nonpayable",
      "type": "function"
    },
    {
      "inputs": [
        {
          "internalType": "address",
          "name": "newImplementation",
          "type": "address"
        }
      ],
      "name": "upgradeTo",
      "outputs": [],
      "stateMutability": "nonpayable",
      "type": "function"
    },
    {
      "inputs": [
        {
          "internalType": "address",
          "name": "newImplementation",
          "type": "address"
        },
        {
          "internalType": "bytes",
          "name": "data",
          "type": "bytes"
        }
      ],
      "name": "upgradeToAndCall",
      "outputs": [],
      "stateMutability": "payable",
      "type": "function"
    }
  ],
  "bytecode": "0x60c0604052306080523480156200001557600080fd5b506040516200251938038062002519833981016040819052620000389162000197565b600154600160a81b900460ff16158080156200005f575060018054600160a01b900460ff16105b806200009557506200007c306200018860201b62000eb01760201c565b15801562000095575060018054600160a01b900460ff16145b620000fd5760405162461bcd60e51b815260206004820152602e60248201527f496e697469616c697a61626c653a20636f6e747261637420697320616c72656160448201526d191e481a5b9a5d1a585b1a5e995960921b606482015260840160405180910390fd5b6001805460ff60a01b1916600160a01b17905580156200012b576001805460ff60a81b1916600160a81b1790555b6001600160a01b03821660a052801562000180576001805460ff60a81b191681556040519081527f7f26b83ff96e1f2b6a682f133852f6798a09c465da95921460cefb38474024989060200160405180910390a15b5050620001c9565b6001600160a01b03163b151590565b600060208284031215620001aa57600080fd5b81516001600160a01b0381168114620001c257600080fd5b9392505050565b60805160a051612307620002126000396000818161011e01526111a50152600081816104740152818161050a015281816106db01528181610771015261086c01526123076000f3fe6080604052600436106100d15760003560e01c806352d1902d1161007f578063b394652c11610059578063b394652c1461021a578063d4518ff41461023a578063e30c39781461025a578063f0fc4ec11461027a57600080fd5b806352d1902d146101c25780638129fc1c146101e55780638da5cb5b146101fa57600080fd5b80633659cfe6116100b05780633659cfe61461017a5780634e71e0c81461019a5780634f1ef286146101af57600080fd5b806201b0b6146100d657806306ae70951461010c578063078dfbe714610158575b600080fd5b3480156100e257600080fd5b506100f66100f1366004611d38565b61028f565b6040516101039190611d53565b60405180910390f35b34801561011857600080fd5b506101407f000000000000000000000000000000000000000000000000000000000000000081565b6040516001600160a01b039091168152602001610103565b34801561016457600080fd5b50610178610173366004611dae565b610305565b005b34801561018657600080fd5b50610178610195366004611d38565b61046a565b3480156101a657600080fd5b50610178610607565b6101786101bd366004611e3e565b6106d1565b3480156101ce57600080fd5b506101d761085f565b604051908152602001610103565b3480156101f157600080fd5b50610178610924565b34801561020657600080fd5b50600054610140906001600160a01b031681565b34801561022657600080fd5b50610178610235366004611efb565b610b02565b34801561024657600080fd5b50610178610255366004611fde565b610b6e565b34801561026657600080fd5b50600154610140906001600160a01b031681565b34801561028657600080fd5b50610178610caf565b6001600160a01b0381166000908152603260209081526040918290208054835181840281018401909452808452606093928301828280156102f957602002820191906000526020600020905b81546001600160a01b031681526001909101906020018083116102db575b50505050509050919050565b6000546001600160a01b031633146103645760405162461bcd60e51b815260206004820181905260248201527f4f776e61626c653a2063616c6c6572206973206e6f7420746865206f776e657260448201526064015b60405180910390fd5b811561043c576001600160a01b03831615158061037e5750805b6103ca5760405162461bcd60e51b815260206004820152601560248201527f4f776e61626c653a207a65726f20616464726573730000000000000000000000604482015260640161035b565b600080546040516001600160a01b03808716939216917f8be0079c531659141344cd1fd0a4f28419497f9722a3daafe3b4186f6b6457e091a3600080546001600160a01b03851673ffffffffffffffffffffffffffffffffffffffff1991821617909155600180549091169055505050565b6001805473ffffffffffffffffffffffffffffffffffffffff19166001600160a01b0385161790555b505050565b6001600160a01b037f00000000000000000000000000000000000000000000000000000000000000001630036105085760405162461bcd60e51b815260206004820152602c60248201527f46756e6374696f6e206d7573742062652063616c6c6564207468726f7567682060448201527f64656c656761746563616c6c0000000000000000000000000000000000000000606482015260840161035b565b7f00000000000000000000000000000000000000000000000000000000000000006001600160a01b03166105637f360894a13ba1a3210667c828492db98dca3e2076cc3735a920a3ca505d382bbc546001600160a01b031690565b6001600160a01b0316146105df5760405162461bcd60e51b815260206004820152602c60248201527f46756e6374696f6e206d7573742062652063616c6c6564207468726f7567682060448201527f6163746976652070726f78790000000000000000000000000000000000000000606482015260840161035b565b6105e881610ebf565b6040805160008082526020820190925261060491839190610f19565b50565b6001546001600160a01b03163381146106625760405162461bcd60e51b815260206004820181905260248201527f4f776e61626c653a2063616c6c657220213d2070656e64696e67206f776e6572604482015260640161035b565b600080546040516001600160a01b03808516939216917f8be0079c531659141344cd1fd0a4f28419497f9722a3daafe3b4186f6b6457e091a3600080546001600160a01b0390921673ffffffffffffffffffffffffffffffffffffffff19928316179055600180549091169055565b6001600160a01b037f000000000000000000000000000000000000000000000000000000000000000016300361076f5760405162461bcd60e51b815260206004820152602c60248201527f46756e6374696f6e206d7573742062652063616c6c6564207468726f7567682060448201527f64656c656761746563616c6c0000000000000000000000000000000000000000606482015260840161035b565b7f00000000000000000000000000000000000000000000000000000000000000006001600160a01b03166107ca7f360894a13ba1a3210667c828492db98dca3e2076cc3735a920a3ca505d382bbc546001600160a01b031690565b6001600160a01b0316146108465760405162461bcd60e51b815260206004820152602c60248201527f46756e6374696f6e206d7573742062652063616c6c6564207468726f7567682060448201527f6163746976652070726f78790000000000000000000000000000000000000000606482015260840161035b565b61084f82610ebf565b61085b82826001610f19565b5050565b6000306001600160a01b037f000000000000000000000000000000000000000000000000000000000000000016146108ff5760405162461bcd60e51b815260206004820152603860248201527f555550535570677261646561626c653a206d757374206e6f742062652063616c60448201527f6c6564207468726f7567682064656c656761746563616c6c0000000000000000606482015260840161035b565b507f360894a13ba1a3210667c828492db98dca3e2076cc3735a920a3ca505d382bbc90565b6001547501000000000000000000000000000000000000000000900460ff161580801561096d57506001805474010000000000000000000000000000000000000000900460ff16105b8061099e5750303b15801561099e57506001805474010000000000000000000000000000000000000000900460ff16145b610a105760405162461bcd60e51b815260206004820152602e60248201527f496e697469616c697a61626c653a20636f6e747261637420697320616c72656160448201527f647920696e697469616c697a6564000000000000000000000000000000000000606482015260840161035b565b600180547fffffffffffffffffffffff00ffffffffffffffffffffffffffffffffffffffff16740100000000000000000000000000000000000000001790558015610a9657600180547fffffffffffffffffffff00ffffffffffffffffffffffffffffffffffffffffff1675010000000000000000000000000000000000000000001790555b610a9e6110b9565b801561060457600180547fffffffffffffffffffff00ffffffffffffffffffffffffffffffffffffffffff1681556040519081527f7f26b83ff96e1f2b6a682f133852f6798a09c465da95921460cefb38474024989060200160405180910390a150565b6000546001600160a01b03163314610b5c5760405162461bcd60e51b815260206004820181905260248201527f4f776e61626c653a2063616c6c6572206973206e6f7420746865206f776e6572604482015260640161035b565b610b688484848461116b565b50505050565b6000546001600160a01b03163314610bc85760405162461bcd60e51b815260206004820181905260248201527f4f776e61626c653a2063616c6c6572206973206e6f7420746865206f776e6572604482015260640161035b565b8151835114610c195760405162461bcd60e51b815260206004820152601860248201527f6172726179206c656e67746873206d69736d6174636865640000000000000000604482015260640161035b565b6000610c248361159c565b905060005b8451811015610ca757600082858381518110610c4757610c476120b8565b602002602001015185610c5a91906120e4565b610c649190612111565b9050610c96868381518110610c7b57610c7b6120b8565b602002602001015188610c8d846115e0565b62093a8061116b565b50610ca081612125565b9050610c29565b505050505050565b33600081815260326020908152604080832080548251818502810185019093528083529192909190830182828015610d1057602002820191906000526020600020905b81546001600160a01b03168152600190910190602001808311610cf2575b5050505050905060005b8151811015610465576000828281518110610d3757610d376120b8565b602002602001015190506000610d4d85836115fa565b60208101519091506001600160801b03168015610e3057600060208381018281526001600160a01b0389811684526033835260408085209188168552925291819020845192516001600160801b039384167001000000000000000000000000000000009185168202178255918501516060860151908416931690910291909117600190910155610dde8387836116f2565b826001600160a01b0316866001600160a01b03167f4fa9693cae526341d334e2862ca2413b2e503f1266255f9e0869fb36e6d89b1783604051610e2391815260200190565b60405180910390a3610e9c565b6001600160a01b0386811660009081526033602090815260408083209387168352928152908290208451918501516001600160801b0392831670010000000000000000000000000000000091841682021782559285015160608601519083169216909202176001909101555b50505080610ea990612125565b9050610d1a565b6001600160a01b03163b151590565b6000546001600160a01b031633146106045760405162461bcd60e51b815260206004820181905260248201527f4f776e61626c653a2063616c6c6572206973206e6f7420746865206f776e6572604482015260640161035b565b7f4910fdfa16fed3260ed0e7147f7cc6da11a60208b5b9406d12a635614ffd91435460ff1615610f4c57610465836117c4565b826001600160a01b03166352d1902d6040518163ffffffff1660e01b8152600401602060405180830381865afa925050508015610fa6575060408051601f3d908101601f19168201909252610fa39181019061215d565b60015b6110185760405162461bcd60e51b815260206004820152602e60248201527f45524331393637557067726164653a206e657720696d706c656d656e7461746960448201527f6f6e206973206e6f742055555053000000000000000000000000000000000000606482015260840161035b565b7f360894a13ba1a3210667c828492db98dca3e2076cc3735a920a3ca505d382bbc81146110ad5760405162461bcd60e51b815260206004820152602960248201527f45524331393637557067726164653a20756e737570706f727465642070726f7860448201527f6961626c65555549440000000000000000000000000000000000000000000000606482015260840161035b565b5061046583838361188f565b6001547501000000000000000000000000000000000000000000900460ff1661114a5760405162461bcd60e51b815260206004820152602b60248201527f496e697469616c697a61626c653a20636f6e7472616374206973206e6f74206960448201527f6e697469616c697a696e67000000000000000000000000000000000000000000606482015260840161035b565b6000805473ffffffffffffffffffffffffffffffffffffffff191633179055565b6040517f58e6309f0000000000000000000000000000000000000000000000000000000081526001600160a01b03808616600483015285917f0000000000000000000000000000000000000000000000000000000000000000909116906358e6309f90602401602060405180830381865afa1580156111ee573d6000803e3d6000fd5b505050506040513d601f19601f820116820180604052508101906112129190612176565b801561127e5750806001600160a01b031663e184c9be6040518163ffffffff1660e01b8152600401602060405180830381865afa158015611257573d6000803e3d6000fd5b505050506040513d601f19601f8201168201806040525081019061127b919061215d565b42105b6112ca5760405162461bcd60e51b815260206004820152600e60248201527f696e76616c6964206d61726b6574000000000000000000000000000000000000604482015260640161035b565b61135a8460326000886001600160a01b03166001600160a01b0316815260200190815260200160002080548060200260200160405190810160405280929190818152602001828054801561134757602002820191906000526020600020905b81546001600160a01b03168152600190910190602001808311611329575b50505050506118b490919063ffffffff16565b6113aa576001600160a01b03858116600090815260326020908152604082208054600181018255908352912001805473ffffffffffffffffffffffffffffffffffffffff19169186169190911790555b60006113b686866115fa565b905080606001516001600160801b0316836001600160801b0316426113db9190612193565b116114285760405162461bcd60e51b815260206004820152601a60248201527f496e76616c696420696e63656e74697665206475726174696f6e000000000000604482015260640161035b565b80516040820151606083015160009291611441916121a6565b61144b91906121c6565b905060008461145a87846121f1565b6114649190612211565b90506040518060800160405280826001600160801b0316815260200184602001516001600160801b03168152602001426001600160801b0316815260200186426114ae91906121f1565b6001600160801b039081169091526001600160a01b03808b166000818152603360209081526040808320948e168084528583528184208851898501518916700100000000000000000000000000000000908102918a16919091178255898401516060909a0151891602989097169790971760018701559186905292909252905190917f9e95e16c122b213a0cb1a037acece482a78239aa2ab5222d5399501e2e60e89c9161158a919081546001600160801b038082168352608091821c6020840152600190930154928316604083015291821c60608201520190565b60405180910390a35050505050505050565b600080805b83518110156115d9578381815181106115bc576115bc6120b8565b6020026020010151826115cf9190612193565b91506001016115a1565b5092915050565b60006001600160801b038211156115f657600080fd5b5090565b6040805160808101825260008082526020820181905291810182905260608101919091526001600160a01b0380841660009081526033602090815260408083209386168352928152828220835160808101855281546001600160801b038082168352700100000000000000000000000000000000918290048116948301949094526001909201548084169582019590955293048116606084018190526116a291421690611913565b90508160400151816116b491906121a6565b82516116c091906121c6565b826020018181516116d191906121f1565b6001600160801b039081169091529190911660408301525090505b92915050565b806000036116ff57505050565b6001600160a01b0383166117b0576000826001600160a01b03168260405160006040518083038185875af1925050503d806000811461175a576040519150601f19603f3d011682016040523d82523d6000602084013e61175f565b606091505b5050905080610b685760405162461bcd60e51b815260206004820152600f60248201527f6574682073656e64206661696c65640000000000000000000000000000000000604482015260640161035b565b6104656001600160a01b038416838361192b565b6001600160a01b0381163b6118415760405162461bcd60e51b815260206004820152602d60248201527f455243313936373a206e657720696d706c656d656e746174696f6e206973206e60448201527f6f74206120636f6e747261637400000000000000000000000000000000000000606482015260840161035b565b7f360894a13ba1a3210667c828492db98dca3e2076cc3735a920a3ca505d382bbc805473ffffffffffffffffffffffffffffffffffffffff19166001600160a01b0392909216919091179055565b611898836119ab565b6000825111806118a55750805b1561046557610b6883836119eb565b8151600090815b8181101561190857836001600160a01b03168582815181106118df576118df6120b8565b60200260200101516001600160a01b031603611900576001925050506116ec565b6001016118bb565b506000949350505050565b60008183106119225781611924565b825b9392505050565b604080516001600160a01b038416602482015260448082018490528251808303909101815260649091019091526020810180517bffffffffffffffffffffffffffffffffffffffffffffffffffffffff167fa9059cbb00000000000000000000000000000000000000000000000000000000179052610465908490611a10565b6119b4816117c4565b6040516001600160a01b038216907fbc7cd75a20ee27fd9adebab32041f755214dbc6bffa90cc0225b39da2e5c2d3b90600090a250565b606061192483836040518060600160405280602781526020016122ab60279139611af8565b6000611a65826040518060400160405280602081526020017f5361666545524332303a206c6f772d6c6576656c2063616c6c206661696c6564815250856001600160a01b0316611b709092919063ffffffff16565b9050805160001480611a86575080806020019051810190611a869190612176565b6104655760405162461bcd60e51b815260206004820152602a60248201527f5361666545524332303a204552433230206f7065726174696f6e20646964206e60448201527f6f74207375636365656400000000000000000000000000000000000000000000606482015260840161035b565b6060600080856001600160a01b031685604051611b15919061225b565b600060405180830381855af49150503d8060008114611b50576040519150601f19603f3d011682016040523d82523d6000602084013e611b55565b606091505b5091509150611b6686838387611b87565b9695505050505050565b6060611b7f8484600085611c00565b949350505050565b60608315611bf6578251600003611bef576001600160a01b0385163b611bef5760405162461bcd60e51b815260206004820152601d60248201527f416464726573733a2063616c6c20746f206e6f6e2d636f6e7472616374000000604482015260640161035b565b5081611b7f565b611b7f8383611cf2565b606082471015611c785760405162461bcd60e51b815260206004820152602660248201527f416464726573733a20696e73756666696369656e742062616c616e636520666f60448201527f722063616c6c0000000000000000000000000000000000000000000000000000606482015260840161035b565b600080866001600160a01b03168587604051611c94919061225b565b60006040518083038185875af1925050503d8060008114611cd1576040519150601f19603f3d011682016040523d82523d6000602084013e611cd6565b606091505b5091509150611ce787838387611b87565b979650505050505050565b815115611d025781518083602001fd5b8060405162461bcd60e51b815260040161035b9190612277565b80356001600160a01b0381168114611d3357600080fd5b919050565b600060208284031215611d4a57600080fd5b61192482611d1c565b6020808252825182820181905260009190848201906040850190845b81811015611d945783516001600160a01b031683529284019291840191600101611d6f565b50909695505050505050565b801515811461060457600080fd5b600080600060608486031215611dc357600080fd5b611dcc84611d1c565b92506020840135611ddc81611da0565b91506040840135611dec81611da0565b809150509250925092565b634e487b7160e01b600052604160045260246000fd5b604051601f8201601f1916810167ffffffffffffffff81118282101715611e3657611e36611df7565b604052919050565b60008060408385031215611e5157600080fd5b611e5a83611d1c565b915060208084013567ffffffffffffffff80821115611e7857600080fd5b818601915086601f830112611e8c57600080fd5b813581811115611e9e57611e9e611df7565b611eb084601f19601f84011601611e0d565b91508082528784828501011115611ec657600080fd5b80848401858401376000848284010152508093505050509250929050565b80356001600160801b0381168114611d3357600080fd5b60008060008060808587031215611f1157600080fd5b611f1a85611d1c565b9350611f2860208601611d1c565b9250611f3660408601611ee4565b9150611f4460608601611ee4565b905092959194509250565b600067ffffffffffffffff821115611f6957611f69611df7565b5060051b60200190565b600082601f830112611f8457600080fd5b81356020611f99611f9483611f4f565b611e0d565b82815260059290921b84018101918181019086841115611fb857600080fd5b8286015b84811015611fd35780358352918301918301611fbc565b509695505050505050565b60008060008060808587031215611ff457600080fd5b611ffd85611d1c565b935060208086013567ffffffffffffffff8082111561201b57600080fd5b818801915088601f83011261202f57600080fd5b813561203d611f9482611f4f565b81815260059190911b8301840190848101908b83111561205c57600080fd5b938501935b828510156120815761207285611d1c565b82529385019390850190612061565b97505050604088013592508083111561209957600080fd5b50506120a787828801611f73565b949793965093946060013593505050565b634e487b7160e01b600052603260045260246000fd5b634e487b7160e01b600052601160045260246000fd5b80820281158282048414176116ec576116ec6120ce565b634e487b7160e01b600052601260045260246000fd5b600082612120576121206120fb565b500490565b60007fffffffffffffffffffffffffffffffffffffffffffffffffffffffffffffffff8203612156576121566120ce565b5060010190565b60006020828403121561216f57600080fd5b5051919050565b60006020828403121561218857600080fd5b815161192481611da0565b808201808211156116ec576116ec6120ce565b6001600160801b038281168282160390808211156115d9576115d96120ce565b6001600160801b038181168382160280821691908281146121e9576121e96120ce565b505092915050565b6001600160801b038181168382160190808211156115d9576115d96120ce565b60006001600160801b038084168061222b5761222b6120fb565b92169190910492915050565b60005b8381101561225257818101518382015260200161223a565b50506000910152565b6000825161226d818460208701612237565b9190910192915050565b6020815260008251806020840152612296816040850160208701612237565b601f01601f1916919091016040019291505056fe416464726573733a206c6f772d6c6576656c2064656c65676174652063616c6c206661696c6564a264697066735822122005df967c8042062220e68ff4402595aef0087371935938b142c27108fc5458ae64736f6c63430008110033",
  "linkReferences": {},
  "deployedLinkReferences": {}
}