{
  "_format": "hh-sol-artifact-1",
  "contractName": "EuphratesYieldContractFactoryV3",
  "sourceName": "contracts/core/YieldContractsV3/EuphratesYieldContractFactoryV3.sol",
  "abi": [
    {
      "inputs": [
        {
          "internalType": "uint256",
          "name": "interestFeeRate",
          "type": "uint256"
        },
        {
          "internalType": "uint256",
          "name": "maxInterestFeeRate",
          "type": "uint256"
        }
      ],
      "name": "YCFactoryInterestFeeRateTooHigh",
      "type": "error"
    },
    {
      "inputs": [],
      "name": "YCFactoryInvalidExpiry",
      "type": "error"
    },
    {
      "inputs": [
        {
          "internalType": "uint256",
          "name": "newRewardFeeRate",
          "type": "uint256"
        },
        {
          "internalType": "uint256",
          "name": "maxRewardFeeRate",
          "type": "uint256"
        }
      ],
      "name": "YCFactoryRewardFeeRateTooHigh",
      "type": "error"
    },
    {
      "inputs": [],
      "name": "YCFactoryYieldContractExisted",
      "type": "error"
    },
    {
      "inputs": [],
      "name": "YCFactoryZeroExpiryDivisor",
      "type": "error"
    },
    {
      "inputs": [],
      "name": "YCFactoryZeroTreasury",
      "type": "error"
    },
    {
      "anonymous": false,
      "inputs": [
        {
          "indexed": true,
          "internalType": "address",
          "name": "SY",
          "type": "address"
        },
        {
          "indexed": true,
          "internalType": "uint256",
          "name": "expiry",
          "type": "uint256"
        },
        {
          "indexed": false,
          "internalType": "address",
          "name": "PT",
          "type": "address"
        },
        {
          "indexed": false,
          "internalType": "address",
          "name": "YT",
          "type": "address"
        }
      ],
      "name": "CreateYieldContract",
      "type": "event"
    },
    {
      "anonymous": false,
      "inputs": [
        {
          "indexed": false,
          "internalType": "uint8",
          "name": "version",
          "type": "uint8"
        }
      ],
      "name": "Initialized",
      "type": "event"
    },
    {
      "anonymous": false,
      "inputs": [
        {
          "indexed": true,
          "internalType": "address",
          "name": "previousOwner",
          "type": "address"
        },
        {
          "indexed": true,
          "internalType": "address",
          "name": "newOwner",
          "type": "address"
        }
      ],
      "name": "OwnershipTransferred",
      "type": "event"
    },
    {
      "anonymous": false,
      "inputs": [
        {
          "indexed": false,
          "internalType": "uint256",
          "name": "newExpiryDivisor",
          "type": "uint256"
        }
      ],
      "name": "SetExpiryDivisor",
      "type": "event"
    },
    {
      "anonymous": false,
      "inputs": [
        {
          "indexed": false,
          "internalType": "uint256",
          "name": "newInterestFeeRate",
          "type": "uint256"
        }
      ],
      "name": "SetInterestFeeRate",
      "type": "event"
    },
    {
      "anonymous": false,
      "inputs": [
        {
          "indexed": false,
          "internalType": "uint256",
          "name": "newRewardFeeRate",
          "type": "uint256"
        }
      ],
      "name": "SetRewardFeeRate",
      "type": "event"
    },
    {
      "anonymous": false,
      "inputs": [
        {
          "indexed": true,
          "internalType": "address",
          "name": "treasury",
          "type": "address"
        }
      ],
      "name": "SetTreasury",
      "type": "event"
    },
    {
      "inputs": [],
      "name": "claimOwnership",
      "outputs": [],
      "stateMutability": "nonpayable",
      "type": "function"
    },
    {
      "inputs": [],
      "name": "expiryDivisor",
      "outputs": [
        {
          "internalType": "uint96",
          "name": "",
          "type": "uint96"
        }
      ],
      "stateMutability": "view",
      "type": "function"
    },
    {
      "inputs": [
        {
          "internalType": "address",
          "name": "",
          "type": "address"
        },
        {
          "internalType": "uint256",
          "name": "",
          "type": "uint256"
        }
      ],
      "name": "getPT",
      "outputs": [
        {
          "internalType": "address",
          "name": "",
          "type": "address"
        }
      ],
      "stateMutability": "view",
      "type": "function"
    },
    {
      "inputs": [
        {
          "internalType": "address",
          "name": "",
          "type": "address"
        },
        {
          "internalType": "uint256",
          "name": "",
          "type": "uint256"
        }
      ],
      "name": "getYT",
      "outputs": [
        {
          "internalType": "address",
          "name": "",
          "type": "address"
        }
      ],
      "stateMutability": "view",
      "type": "function"
    },
    {
      "inputs": [
        {
          "internalType": "uint96",
          "name": "_expiryDivisor",
          "type": "uint96"
        },
        {
          "internalType": "uint128",
          "name": "_interestFeeRate",
          "type": "uint128"
        },
        {
          "internalType": "uint128",
          "name": "_rewardFeeRate",
          "type": "uint128"
        },
        {
          "internalType": "address",
          "name": "_treasury",
          "type": "address"
        }
      ],
      "name": "initialize",
      "outputs": [],
      "stateMutability": "nonpayable",
      "type": "function"
    },
    {
      "inputs": [
        {
          "internalType": "address",
          "name": "SY",
          "type": "address"
        },
        {
          "internalType": "address",
          "name": "PT",
          "type": "address"
        },
        {
          "internalType": "address",
          "name": "YT",
          "type": "address"
        },
        {
          "internalType": "uint32",
          "name": "expiry",
          "type": "uint32"
        }
      ],
      "name": "initializePTYT",
      "outputs": [],
      "stateMutability": "nonpayable",
      "type": "function"
    },
    {
      "inputs": [],
      "name": "interestFeeRate",
      "outputs": [
        {
          "internalType": "uint128",
          "name": "",
          "type": "uint128"
        }
      ],
      "stateMutability": "view",
      "type": "function"
    },
    {
      "inputs": [
        {
          "internalType": "address",
          "name": "",
          "type": "address"
        }
      ],
      "name": "isPT",
      "outputs": [
        {
          "internalType": "bool",
          "name": "",
          "type": "bool"
        }
      ],
      "stateMutability": "view",
      "type": "function"
    },
    {
      "inputs": [
        {
          "internalType": "address",
          "name": "",
          "type": "address"
        }
      ],
      "name": "isYT",
      "outputs": [
        {
          "internalType": "bool",
          "name": "",
          "type": "bool"
        }
      ],
      "stateMutability": "view",
      "type": "function"
    },
    {
      "inputs": [],
      "name": "maxInterestFeeRate",
      "outputs": [
        {
          "internalType": "uint256",
          "name": "",
          "type": "uint256"
        }
      ],
      "stateMutability": "view",
      "type": "function"
    },
    {
      "inputs": [],
      "name": "maxRewardFeeRate",
      "outputs": [
        {
          "internalType": "uint256",
          "name": "",
          "type": "uint256"
        }
      ],
      "stateMutability": "view",
      "type": "function"
    },
    {
      "inputs": [],
      "name": "owner",
      "outputs": [
        {
          "internalType": "address",
          "name": "",
          "type": "address"
        }
      ],
      "stateMutability": "view",
      "type": "function"
    },
    {
      "inputs": [],
      "name": "pendingOwner",
      "outputs": [
        {
          "internalType": "address",
          "name": "",
          "type": "address"
        }
      ],
      "stateMutability": "view",
      "type": "function"
    },
    {
      "inputs": [],
      "name": "rewardFeeRate",
      "outputs": [
        {
          "internalType": "uint128",
          "name": "",
          "type": "uint128"
        }
      ],
      "stateMutability": "view",
      "type": "function"
    },
    {
      "inputs": [
        {
          "internalType": "uint96",
          "name": "newExpiryDivisor",
          "type": "uint96"
        }
      ],
      "name": "setExpiryDivisor",
      "outputs": [],
      "stateMutability": "nonpayable",
      "type": "function"
    },
    {
      "inputs": [
        {
          "internalType": "uint128",
          "name": "newInterestFeeRate",
          "type": "uint128"
        }
      ],
      "name": "setInterestFeeRate",
      "outputs": [],
      "stateMutability": "nonpayable",
      "type": "function"
    },
    {
      "inputs": [
        {
          "internalType": "uint128",
          "name": "newRewardFeeRate",
          "type": "uint128"
        }
      ],
      "name": "setRewardFeeRate",
      "outputs": [],
      "stateMutability": "nonpayable",
      "type": "function"
    },
    {
      "inputs": [
        {
          "internalType": "address",
          "name": "newTreasury",
          "type": "address"
        }
      ],
      "name": "setTreasury",
      "outputs": [],
      "stateMutability": "nonpayable",
      "type": "function"
    },
    {
      "inputs": [
        {
          "internalType": "address",
          "name": "newOwner",
          "type": "address"
        },
        {
          "internalType": "bool",
          "name": "direct",
          "type": "bool"
        },
        {
          "internalType": "bool",
          "name": "renounce",
          "type": "bool"
        }
      ],
      "name": "transferOwnership",
      "outputs": [],
      "stateMutability": "nonpayable",
      "type": "function"
    },
    {
      "inputs": [],
      "name": "treasury",
      "outputs": [
        {
          "internalType": "address",
          "name": "",
          "type": "address"
        }
      ],
      "stateMutability": "view",
      "type": "function"
    }
  ],
  "bytecode": "0x608060405234801561001057600080fd5b5061184d806100206000396000f3fe608060405234801561001057600080fd5b506004361061016c5760003560e01c806387efe5a7116100cd578063e30c397811610081578063ea93854711610066578063ea938547146102ee578063f0f4426014610397578063f5de2d1f146103aa57600080fd5b8063e30c397814610348578063e9e5f3cf1461035b57600080fd5b80638da5cb5b116100b25780638da5cb5b146102db57806395ce8917146102ee578063dd86fea11461030b57600080fd5b806387efe5a7146102735780638c9f7962146102a757600080fd5b806361d027b31161012457806371846aa81161010957806371846aa81461022a5780637cce09311461024d5780637d39cabf1461026057600080fd5b806361d027b3146101ec5780636348cb211461021757600080fd5b806344601d691161015557806344601d69146101be5780634e71e0c8146101d1578063586007bc146101d957600080fd5b8063078dfbe71461017157806318b7373d14610186575b600080fd5b61018461017f3660046113c4565b6103da565b005b6101a9610194366004611409565b60366020526000908152604090205460ff1681565b60405190151581526020015b60405180910390f35b6101846101cc36600461144d565b610540565b61018461067b565b6101846101e7366004611484565b610745565b6033546101ff906001600160a01b031681565b6040516001600160a01b0390911681526020016101b5565b61018461022536600461149f565b610842565b6101a9610238366004611409565b60376020526000908152604090205460ff1681565b61018461025b3660046114f5565b610a16565b61018461026e36600461144d565b610e3a565b6101ff61028136600461154f565b60346020908152600092835260408084209091529082529020546001600160a01b031681565b6101ff6102b536600461154f565b60356020908152600092835260408084209091529082529020546001600160a01b031681565b6000546101ff906001600160a01b031681565b6102fd6702c68af0bb14000081565b6040519081526020016101b5565b603254610327906fffffffffffffffffffffffffffffffff1681565b6040516fffffffffffffffffffffffffffffffff90911681526020016101b5565b6001546101ff906001600160a01b031681565b60335461037a90600160a01b90046bffffffffffffffffffffffff1681565b6040516bffffffffffffffffffffffff90911681526020016101b5565b6101846103a5366004611409565b610f79565b6032546103279070010000000000000000000000000000000090046fffffffffffffffffffffffffffffffff1681565b6000546001600160a01b031633146104395760405162461bcd60e51b815260206004820181905260248201527f4f776e61626c653a2063616c6c6572206973206e6f7420746865206f776e657260448201526064015b60405180910390fd5b8115610511576001600160a01b0383161515806104535750805b61049f5760405162461bcd60e51b815260206004820152601560248201527f4f776e61626c653a207a65726f206164647265737300000000000000000000006044820152606401610430565b600080546040516001600160a01b03808716939216917f8be0079c531659141344cd1fd0a4f28419497f9722a3daafe3b4186f6b6457e091a3600080546001600160a01b03851673ffffffffffffffffffffffffffffffffffffffff1991821617909155600180549091169055505050565b600180546001600160a01b03851673ffffffffffffffffffffffffffffffffffffffff19909116179055505050565b6000546001600160a01b0316331461059a5760405162461bcd60e51b815260206004820181905260248201527f4f776e61626c653a2063616c6c6572206973206e6f7420746865206f776e65726044820152606401610430565b6702c68af0bb140000816fffffffffffffffffffffffffffffffff161115610610576040517f5dbf54510000000000000000000000000000000000000000000000000000000081526fffffffffffffffffffffffffffffffff821660048201526702c68af0bb1400006024820152604401610430565b603280546fffffffffffffffffffffffffffffffff908116700100000000000000000000000000000000918416918202179091556040519081527f8dfda2f0f14feea9a776359ded0d062934c38098a21d140fcdd9a3dbfb6294c1906020015b60405180910390a150565b6001546001600160a01b03163381146106d65760405162461bcd60e51b815260206004820181905260248201527f4f776e61626c653a2063616c6c657220213d2070656e64696e67206f776e65726044820152606401610430565b600080546040516001600160a01b03808516939216917f8be0079c531659141344cd1fd0a4f28419497f9722a3daafe3b4186f6b6457e091a3600080546001600160a01b0390921673ffffffffffffffffffffffffffffffffffffffff19928316179055600180549091169055565b6000546001600160a01b0316331461079f5760405162461bcd60e51b815260206004820181905260248201527f4f776e61626c653a2063616c6c6572206973206e6f7420746865206f776e65726044820152606401610430565b806bffffffffffffffffffffffff166000036107e7576040517ff2baeb4900000000000000000000000000000000000000000000000000000000815260040160405180910390fd5b603380546001600160a01b0316600160a01b6bffffffffffffffffffffffff8416908102919091179091556040519081527fdaf60f79a59eb1d8c1748ab26dc83c44f364ce8c1fc497ec2df45d9538a1aa1190602001610670565b6001547501000000000000000000000000000000000000000000900460ff161580801561087a575060018054600160a01b900460ff16105b8061089a5750303b15801561089a575060018054600160a01b900460ff16145b61090c5760405162461bcd60e51b815260206004820152602e60248201527f496e697469616c697a61626c653a20636f6e747261637420697320616c72656160448201527f647920696e697469616c697a65640000000000000000000000000000000000006064820152608401610430565b600180547fffffffffffffffffffffff00ffffffffffffffffffffffffffffffffffffffff16600160a01b179055801561098157600180547fffffffffffffffffffff00ffffffffffffffffffffffffffffffffffffffffff1675010000000000000000000000000000000000000000001790555b61098961106a565b61099285610745565b61099b84610e3a565b6109a483610540565b6109ad82610f79565b8015610a0f57600180547fffffffffffffffffffff00ffffffffffffffffffffffffffffffffffffffffff1681556040519081527f7f26b83ff96e1f2b6a682f133852f6798a09c465da95921460cefb38474024989060200160405180910390a15b5050505050565b63ffffffff811642101580610a5f5750603354610a4e90600160a01b90046bffffffffffffffffffffffff1663ffffffff831661157b565b6bffffffffffffffffffffffff1615155b15610a96576040517f1f687fd000000000000000000000000000000000000000000000000000000000815260040160405180910390fd5b6001600160a01b03848116600090815260346020908152604080832063ffffffff861684529091529020541615610af9576040517fa50d950200000000000000000000000000000000000000000000000000000000815260040160405180910390fd5b60008490506000816001600160a01b031663a40bee506040518163ffffffff1660e01b8152600401606060405180830381865afa158015610b3e573d6000803e3d6000fd5b505050506040513d601f19601f82011682018060405250810190610b6291906115b4565b925050506000610bd6836001600160a01b03166306fdde036040518163ffffffff1660e01b8152600401600060405180830381865afa158015610ba9573d6000803e3d6000fd5b505050506040513d6000823e601f3d908101601f19168201604052610bd19190810190611621565b61111c565b90506000610c1b846001600160a01b03166395d89b416040518163ffffffff1660e01b8152600401600060405180830381865afa158015610ba9573d6000803e3d6000fd5b6040517fc4d66de80000000000000000000000000000000000000000000000000000000081526001600160a01b0388811660048301529192509088169063c4d66de890602401600060405180830381600087803b158015610c7b57600080fd5b505af1158015610c8f573d6000803e3d6000fd5b5050505086603460008a6001600160a01b03166001600160a01b0316815260200190815260200160002060008763ffffffff16815260200190815260200160002060006101000a8154816001600160a01b0302191690836001600160a01b0316021790555085603560008a6001600160a01b03166001600160a01b0316815260200190815260200160002060008763ffffffff16815260200190815260200160002060006101000a8154816001600160a01b0302191690836001600160a01b03160217905550600160366000896001600160a01b03166001600160a01b0316815260200190815260200160002060006101000a81548160ff021916908315150217905550600160376000886001600160a01b03166001600160a01b0316815260200190815260200160002060006101000a81548160ff0219169083151502179055508463ffffffff16886001600160a01b03167faa79d8f17776adeaa316c5411b72e8b0057d064974fa8748f32492ecaa22ecd18989604051610e289291906001600160a01b0392831681529116602082015260400190565b60405180910390a35050505050505050565b6000546001600160a01b03163314610e945760405162461bcd60e51b815260206004820181905260248201527f4f776e61626c653a2063616c6c6572206973206e6f7420746865206f776e65726044820152606401610430565b6702c68af0bb140000816fffffffffffffffffffffffffffffffff161115610f0a576040517f7cc0c7380000000000000000000000000000000000000000000000000000000081526fffffffffffffffffffffffffffffffff821660048201526702c68af0bb1400006024820152604401610430565b603280547fffffffffffffffffffffffffffffffff00000000000000000000000000000000166fffffffffffffffffffffffffffffffff83169081179091556040519081527fa9d618683ded3ac7317e1717ad10e9e3b92041092a8e97ceb038c699cc54d64090602001610670565b6000546001600160a01b03163314610fd35760405162461bcd60e51b815260206004820181905260248201527f4f776e61626c653a2063616c6c6572206973206e6f7420746865206f776e65726044820152606401610430565b6001600160a01b038116611013576040517fb8c9673100000000000000000000000000000000000000000000000000000000815260040160405180910390fd5b6033805473ffffffffffffffffffffffffffffffffffffffff19166001600160a01b0383169081179091556040517fcb7ef3e545f5cdb893f5c568ba710fe08f336375a2d9fd66e161033f8fc09ef390600090a250565b6001547501000000000000000000000000000000000000000000900460ff166110fb5760405162461bcd60e51b815260206004820152602b60248201527f496e697469616c697a61626c653a20636f6e7472616374206973206e6f74206960448201527f6e697469616c697a696e670000000000000000000000000000000000000000006064820152608401610430565b6000805473ffffffffffffffffffffffffffffffffffffffff191633179055565b606060006111518360408051808201825260008082526020918201528151808301909252825182529182019181019190915290565b60408051808201825260038082527f53592000000000000000000000000000000000000000000000000000000000006020808401918252845180860186526000808252908201819052855180870187529451855284820192909252845180860186529283527f53592d0000000000000000000000000000000000000000000000000000000000838201908152855180870187528381528201929092528451808601909552915184529083015291925061121c611217826112118686611225565b90611225565b6112ad565b95945050505050565b604080518082019091526000808252602082015281518351101561124a5750816112a7565b60208083015190840151600191146112715750815160208481015190840151829020919020145b80156112a257825184518590611288908390611701565b905250825160208501805161129e908390611714565b9052505b839150505b92915050565b60606000826000015167ffffffffffffffff8111156112ce576112ce61160b565b6040519080825280601f01601f1916602001820160405280156112f8576020820181803683370190505b5090506000602082019050611316818560200151866000015161131d565b5092915050565b602081106113555781518352611334602084611714565b9250611341602083611714565b915061134e602082611701565b905061131d565b600019811561138457600161136b836020611701565b6113779061010061180b565b6113819190611701565b90505b9151835183169219169190911790915250565b6001600160a01b03811681146113ac57600080fd5b50565b803580151581146113bf57600080fd5b919050565b6000806000606084860312156113d957600080fd5b83356113e481611397565b92506113f2602085016113af565b9150611400604085016113af565b90509250925092565b60006020828403121561141b57600080fd5b813561142681611397565b9392505050565b80356fffffffffffffffffffffffffffffffff811681146113bf57600080fd5b60006020828403121561145f57600080fd5b6114268261142d565b80356bffffffffffffffffffffffff811681146113bf57600080fd5b60006020828403121561149657600080fd5b61142682611468565b600080600080608085870312156114b557600080fd5b6114be85611468565b93506114cc6020860161142d565b92506114da6040860161142d565b915060608501356114ea81611397565b939692955090935050565b6000806000806080858703121561150b57600080fd5b843561151681611397565b9350602085013561152681611397565b9250604085013561153681611397565b9150606085013563ffffffff811681146114ea57600080fd5b6000806040838503121561156257600080fd5b823561156d81611397565b946020939093013593505050565b60006bffffffffffffffffffffffff808416806115a857634e487b7160e01b600052601260045260246000fd5b92169190910692915050565b6000806000606084860312156115c957600080fd5b8351600281106115d857600080fd5b60208501519093506115e981611397565b604085015190925060ff8116811461160057600080fd5b809150509250925092565b634e487b7160e01b600052604160045260246000fd5b6000602080838503121561163457600080fd5b825167ffffffffffffffff8082111561164c57600080fd5b818501915085601f83011261166057600080fd5b8151818111156116725761167261160b565b604051601f8201601f19908116603f0116810190838211818310171561169a5761169a61160b565b8160405282815288868487010111156116b257600080fd5b600093505b828410156116d457848401860151818501870152928501926116b7565b600086848301015280965050505050505092915050565b634e487b7160e01b600052601160045260246000fd5b818103818111156112a7576112a76116eb565b808201808211156112a7576112a76116eb565b600181815b80851115611762578160001904821115611748576117486116eb565b8085161561175557918102915b93841c939080029061172c565b509250929050565b600082611779575060016112a7565b81611786575060006112a7565b816001811461179c57600281146117a6576117c2565b60019150506112a7565b60ff8411156117b7576117b76116eb565b50506001821b6112a7565b5060208310610133831016604e8410600b84101617156117e5575081810a6112a7565b6117ef8383611727565b8060001904821115611803576118036116eb565b029392505050565b6000611426838361176a56fea264697066735822122093fa83718b678d5312fdfed5c246202fc0c9f51ead47c19c6c61dfaf07b7fe8064736f6c63430008110033",
  "linkReferences": {},
  "deployedLinkReferences": {}
}