{
  "_format": "hh-sol-artifact-1",
  "contractName": "ChainlinkRelayerAutomation",
  "sourceName": "contracts/offchain-helpers/ChainlinkRelayerAutomation.sol",
  "abi": [
    {
      "inputs": [
        {
          "internalType": "contract EuphratesChainlinkRelayer",
          "name": "_relayer",
          "type": "address"
        }
      ],
      "stateMutability": "nonpayable",
      "type": "constructor"
    },
    {
      "inputs": [],
      "name": "OnlySimulatedBackend",
      "type": "error"
    },
    {
      "anonymous": false,
      "inputs": [
        {
          "indexed": false,
          "internalType": "uint8",
          "name": "version",
          "type": "uint8"
        }
      ],
      "name": "Initialized",
      "type": "event"
    },
    {
      "anonymous": false,
      "inputs": [
        {
          "indexed": true,
          "internalType": "address",
          "name": "previousOwner",
          "type": "address"
        },
        {
          "indexed": true,
          "internalType": "address",
          "name": "newOwner",
          "type": "address"
        }
      ],
      "name": "OwnershipTransferred",
      "type": "event"
    },
    {
      "inputs": [],
      "name": "answerLastSent",
      "outputs": [
        {
          "internalType": "int256",
          "name": "",
          "type": "int256"
        }
      ],
      "stateMutability": "view",
      "type": "function"
    },
    {
      "inputs": [
        {
          "internalType": "bytes",
          "name": "",
          "type": "bytes"
        }
      ],
      "name": "checkUpkeep",
      "outputs": [
        {
          "internalType": "bool",
          "name": "upkeepNeeded",
          "type": "bool"
        },
        {
          "internalType": "bytes",
          "name": "",
          "type": "bytes"
        }
      ],
      "stateMutability": "view",
      "type": "function"
    },
    {
      "inputs": [],
      "name": "claimOwnership",
      "outputs": [],
      "stateMutability": "nonpayable",
      "type": "function"
    },
    {
      "inputs": [],
      "name": "owner",
      "outputs": [
        {
          "internalType": "address",
          "name": "",
          "type": "address"
        }
      ],
      "stateMutability": "view",
      "type": "function"
    },
    {
      "inputs": [],
      "name": "pendingOwner",
      "outputs": [
        {
          "internalType": "address",
          "name": "",
          "type": "address"
        }
      ],
      "stateMutability": "view",
      "type": "function"
    },
    {
      "inputs": [
        {
          "internalType": "bytes",
          "name": "",
          "type": "bytes"
        }
      ],
      "name": "performUpkeep",
      "outputs": [],
      "stateMutability": "nonpayable",
      "type": "function"
    },
    {
      "inputs": [
        {
          "internalType": "address",
          "name": "newOwner",
          "type": "address"
        },
        {
          "internalType": "bool",
          "name": "direct",
          "type": "bool"
        },
        {
          "internalType": "bool",
          "name": "renounce",
          "type": "bool"
        }
      ],
      "name": "transferOwnership",
      "outputs": [],
      "stateMutability": "nonpayable",
      "type": "function"
    },
    {
      "inputs": [],
      "name": "withdraw",
      "outputs": [],
      "stateMutability": "nonpayable",
      "type": "function"
    },
    {
      "stateMutability": "payable",
      "type": "receive"
    }
  ],
  "bytecode": "0x60a060405234801561001057600080fd5b50604051610a8b380380610a8b83398101604081905261002f9161020e565b600154600160a81b900460ff1615808015610055575060018054600160a01b900460ff16105b80610086575061006e3061017e60201b61055e1760201c565b158015610086575060018054600160a01b900460ff16145b6100ee5760405162461bcd60e51b815260206004820152602e60248201527f496e697469616c697a61626c653a20636f6e747261637420697320616c72656160448201526d191e481a5b9a5d1a585b1a5e995960921b60648201526084015b60405180910390fd5b6001805460ff60a01b1916600160a01b179055801561011b576001805460ff60a81b1916600160a81b1790555b61012361018d565b6001600160a01b0382166080528015610177576001805460ff60a81b191681556040519081527f7f26b83ff96e1f2b6a682f133852f6798a09c465da95921460cefb38474024989060200160405180910390a15b505061023e565b6001600160a01b03163b151590565b600154600160a81b900460ff166101fa5760405162461bcd60e51b815260206004820152602b60248201527f496e697469616c697a61626c653a20636f6e7472616374206973206e6f74206960448201526a6e697469616c697a696e6760a81b60648201526084016100e5565b600080546001600160a01b03191633179055565b60006020828403121561022057600080fd5b81516001600160a01b038116811461023757600080fd5b9392505050565b60805161082b610260600039600081816104010152610572015261082b6000f3fe60806040526004361061007f5760003560e01c80634e71e0c81161004e5780634e71e0c81461010b5780636e04ff0d146101205780638da5cb5b1461014e578063e30c39781461018657600080fd5b8063078dfbe71461008b5780631f8ca609146100ad5780633ccfd60b146100d65780634585e33b146100eb57600080fd5b3661008657005b600080fd5b34801561009757600080fd5b506100ab6100a636600461068b565b6101a6565b005b3480156100b957600080fd5b506100c360325481565b6040519081526020015b60405180910390f35b3480156100e257600080fd5b506100ab61030c565b3480156100f757600080fd5b506100ab6101063660046106d0565b6103a3565b34801561011757600080fd5b506100ab61047e565b34801561012c57600080fd5b5061014061013b3660046106d0565b610548565b6040516100cd929190610742565b34801561015a57600080fd5b5060005461016e906001600160a01b031681565b6040516001600160a01b0390911681526020016100cd565b34801561019257600080fd5b5060015461016e906001600160a01b031681565b6000546001600160a01b031633146102055760405162461bcd60e51b815260206004820181905260248201527f4f776e61626c653a2063616c6c6572206973206e6f7420746865206f776e657260448201526064015b60405180910390fd5b81156102dd576001600160a01b03831615158061021f5750805b61026b5760405162461bcd60e51b815260206004820152601560248201527f4f776e61626c653a207a65726f2061646472657373000000000000000000000060448201526064016101fc565b600080546040516001600160a01b03808716939216917f8be0079c531659141344cd1fd0a4f28419497f9722a3daafe3b4186f6b6457e091a3600080546001600160a01b03851673ffffffffffffffffffffffffffffffffffffffff1991821617909155600180549091169055505050565b600180546001600160a01b03851673ffffffffffffffffffffffffffffffffffffffff19909116179055505050565b6000546001600160a01b031633146103665760405162461bcd60e51b815260206004820181905260248201527f4f776e61626c653a2063616c6c6572206973206e6f7420746865206f776e657260448201526064016101fc565b600080546040516001600160a01b03909116914780156108fc02929091818181858888f193505050501580156103a0573d6000803e3d6000fd5b50565b6000806103ae61056d565b91509150816103ff5760405162461bcd60e51b815260206004820152601060248201527f6e6f2075706b656570206e65656465640000000000000000000000000000000060448201526064016101fc565b7f00000000000000000000000000000000000000000000000000000000000000006001600160a01b031663c0406226476040518263ffffffff1660e01b81526004016000604051808303818588803b15801561045a57600080fd5b505af115801561046e573d6000803e3d6000fd5b5050506032929092555050505050565b6001546001600160a01b03163381146104d95760405162461bcd60e51b815260206004820181905260248201527f4f776e61626c653a2063616c6c657220213d2070656e64696e67206f776e657260448201526064016101fc565b600080546040516001600160a01b03808516939216917f8be0079c531659141344cd1fd0a4f28419497f9722a3daafe3b4186f6b6457e091a3600080546001600160a01b0390921673ffffffffffffffffffffffffffffffffffffffff19928316179055600180549091169055565b6000606061055461056d565b5094909350915050565b6001600160a01b03163b151590565b6000807f00000000000000000000000000000000000000000000000000000000000000006001600160a01b0316637dbdf1f56040518163ffffffff1660e01b8152600401602060405180830381865afa1580156105ce573d6000803e3d6000fd5b505050506040513d601f19601f820116820180604052508101906105f291906107b8565b6001600160a01b03166350d25bcd6040518163ffffffff1660e01b8152600401602060405180830381865afa15801561062f573d6000803e3d6000fd5b505050506040513d601f19601f8201168201806040525081019061065391906107dc565b905060325481141591509091565b6001600160a01b03811681146103a057600080fd5b8035801515811461068657600080fd5b919050565b6000806000606084860312156106a057600080fd5b83356106ab81610661565b92506106b960208501610676565b91506106c760408501610676565b90509250925092565b600080602083850312156106e357600080fd5b823567ffffffffffffffff808211156106fb57600080fd5b818501915085601f83011261070f57600080fd5b81358181111561071e57600080fd5b86602082850101111561073057600080fd5b60209290920196919550909350505050565b821515815260006020604081840152835180604085015260005b818110156107785785810183015185820160600152820161075c565b5060006060828601015260607fffffffffffffffffffffffffffffffffffffffffffffffffffffffffffffffe0601f830116850101925050509392505050565b6000602082840312156107ca57600080fd5b81516107d581610661565b9392505050565b6000602082840312156107ee57600080fd5b505191905056fea2646970667358221220fbca63df40fbfdded1c98981adb713988735ba7b10737f400b70bf3f16dd719f64736f6c63430008110033",
  "linkReferences": {},
  "deployedLinkReferences": {}
}