{
  "_format": "hh-sol-artifact-1",
  "contractName": "ActionMarketCoreStatic",
  "sourceName": "contracts/offchain-helpers/router-static/base/ActionMarketCoreStatic.sol",
  "abi": [
    {
      "inputs": [],
      "name": "ApproxFail",
      "type": "error"
    },
    {
      "inputs": [
        {
          "internalType": "uint256",
          "name": "guessMin",
          "type": "uint256"
        },
        {
          "internalType": "uint256",
          "name": "guessMax",
          "type": "uint256"
        },
        {
          "internalType": "uint256",
          "name": "eps",
          "type": "uint256"
        }
      ],
      "name": "ApproxParamsInvalid",
      "type": "error"
    },
    {
      "inputs": [
        {
          "internalType": "int256",
          "name": "exchangeRate",
          "type": "int256"
        }
      ],
      "name": "MarketExchangeRateBelowOne",
      "type": "error"
    },
    {
      "inputs": [],
      "name": "MarketExpired",
      "type": "error"
    },
    {
      "inputs": [
        {
          "internalType": "int256",
          "name": "currentAmount",
          "type": "int256"
        },
        {
          "internalType": "int256",
          "name": "requiredAmount",
          "type": "int256"
        }
      ],
      "name": "MarketInsufficientPtForTrade",
      "type": "error"
    },
    {
      "inputs": [],
      "name": "MarketProportionMustNotEqualOne",
      "type": "error"
    },
    {
      "inputs": [
        {
          "internalType": "int256",
          "name": "proportion",
          "type": "int256"
        },
        {
          "internalType": "int256",
          "name": "maxProportion",
          "type": "int256"
        }
      ],
      "name": "MarketProportionTooHigh",
      "type": "error"
    },
    {
      "inputs": [
        {
          "internalType": "int256",
          "name": "rateScalar",
          "type": "int256"
        }
      ],
      "name": "MarketRateScalarBelowZero",
      "type": "error"
    },
    {
      "inputs": [],
      "name": "MarketZeroAmountsInput",
      "type": "error"
    },
    {
      "inputs": [],
      "name": "MarketZeroAmountsOutput",
      "type": "error"
    },
    {
      "inputs": [],
      "name": "MarketZeroLnImpliedRate",
      "type": "error"
    },
    {
      "inputs": [
        {
          "internalType": "int256",
          "name": "totalPt",
          "type": "int256"
        },
        {
          "internalType": "int256",
          "name": "totalAsset",
          "type": "int256"
        }
      ],
      "name": "MarketZeroTotalPtOrTotalAsset",
      "type": "error"
    },
    {
      "inputs": [
        {
          "internalType": "uint256",
          "name": "netSyDesired",
          "type": "uint256"
        },
        {
          "internalType": "uint256",
          "name": "netSyUsed",
          "type": "uint256"
        }
      ],
      "name": "RouterNotAllSyUsed",
      "type": "error"
    },
    {
      "inputs": [
        {
          "internalType": "address",
          "name": "market",
          "type": "address"
        },
        {
          "internalType": "uint256",
          "name": "netSyDesired",
          "type": "uint256"
        },
        {
          "internalType": "uint256",
          "name": "netPtDesired",
          "type": "uint256"
        }
      ],
      "name": "addLiquidityDualSyAndPtStatic",
      "outputs": [
        {
          "internalType": "uint256",
          "name": "netLpOut",
          "type": "uint256"
        },
        {
          "internalType": "uint256",
          "name": "netSyUsed",
          "type": "uint256"
        },
        {
          "internalType": "uint256",
          "name": "netPtUsed",
          "type": "uint256"
        }
      ],
      "stateMutability": "view",
      "type": "function"
    },
    {
      "inputs": [
        {
          "internalType": "address",
          "name": "market",
          "type": "address"
        },
        {
          "internalType": "address",
          "name": "tokenIn",
          "type": "address"
        },
        {
          "internalType": "uint256",
          "name": "netTokenDesired",
          "type": "uint256"
        },
        {
          "internalType": "address",
          "name": "bulk",
          "type": "address"
        },
        {
          "internalType": "uint256",
          "name": "netPtDesired",
          "type": "uint256"
        }
      ],
      "name": "addLiquidityDualTokenAndPtStatic",
      "outputs": [
        {
          "internalType": "uint256",
          "name": "netLpOut",
          "type": "uint256"
        },
        {
          "internalType": "uint256",
          "name": "netTokenUsed",
          "type": "uint256"
        },
        {
          "internalType": "uint256",
          "name": "netPtUsed",
          "type": "uint256"
        },
        {
          "internalType": "uint256",
          "name": "netSyUsed",
          "type": "uint256"
        },
        {
          "internalType": "uint256",
          "name": "netSyDesired",
          "type": "uint256"
        }
      ],
      "stateMutability": "view",
      "type": "function"
    },
    {
      "inputs": [
        {
          "internalType": "address",
          "name": "market",
          "type": "address"
        },
        {
          "internalType": "uint256",
          "name": "netPtIn",
          "type": "uint256"
        }
      ],
      "name": "addLiquiditySinglePtStatic",
      "outputs": [
        {
          "internalType": "uint256",
          "name": "netLpOut",
          "type": "uint256"
        },
        {
          "internalType": "uint256",
          "name": "netPtToSwap",
          "type": "uint256"
        },
        {
          "internalType": "uint256",
          "name": "netSyFee",
          "type": "uint256"
        },
        {
          "internalType": "uint256",
          "name": "priceImpact",
          "type": "uint256"
        },
        {
          "internalType": "uint256",
          "name": "exchangeRateAfter",
          "type": "uint256"
        },
        {
          "internalType": "uint256",
          "name": "netSyFromSwap",
          "type": "uint256"
        }
      ],
      "stateMutability": "view",
      "type": "function"
    },
    {
      "inputs": [
        {
          "internalType": "address",
          "name": "market",
          "type": "address"
        },
        {
          "internalType": "uint256",
          "name": "netSyIn",
          "type": "uint256"
        }
      ],
      "name": "addLiquiditySingleSyKeepYtStatic",
      "outputs": [
        {
          "internalType": "uint256",
          "name": "netLpOut",
          "type": "uint256"
        },
        {
          "internalType": "uint256",
          "name": "netYtOut",
          "type": "uint256"
        },
        {
          "internalType": "uint256",
          "name": "netSyToPY",
          "type": "uint256"
        }
      ],
      "stateMutability": "view",
      "type": "function"
    },
    {
      "inputs": [
        {
          "internalType": "address",
          "name": "market",
          "type": "address"
        },
        {
          "internalType": "uint256",
          "name": "netSyIn",
          "type": "uint256"
        }
      ],
      "name": "addLiquiditySingleSyStatic",
      "outputs": [
        {
          "internalType": "uint256",
          "name": "netLpOut",
          "type": "uint256"
        },
        {
          "internalType": "uint256",
          "name": "netPtFromSwap",
          "type": "uint256"
        },
        {
          "internalType": "uint256",
          "name": "netSyFee",
          "type": "uint256"
        },
        {
          "internalType": "uint256",
          "name": "priceImpact",
          "type": "uint256"
        },
        {
          "internalType": "uint256",
          "name": "exchangeRateAfter",
          "type": "uint256"
        },
        {
          "internalType": "uint256",
          "name": "netSyToSwap",
          "type": "uint256"
        }
      ],
      "stateMutability": "view",
      "type": "function"
    },
    {
      "inputs": [
        {
          "internalType": "address",
          "name": "market",
          "type": "address"
        },
        {
          "internalType": "address",
          "name": "tokenIn",
          "type": "address"
        },
        {
          "internalType": "uint256",
          "name": "netTokenIn",
          "type": "uint256"
        },
        {
          "internalType": "address",
          "name": "bulk",
          "type": "address"
        }
      ],
      "name": "addLiquiditySingleTokenKeepYtStatic",
      "outputs": [
        {
          "internalType": "uint256",
          "name": "netLpOut",
          "type": "uint256"
        },
        {
          "internalType": "uint256",
          "name": "netYtOut",
          "type": "uint256"
        },
        {
          "internalType": "uint256",
          "name": "netSyMinted",
          "type": "uint256"
        },
        {
          "internalType": "uint256",
          "name": "netSyToPY",
          "type": "uint256"
        }
      ],
      "stateMutability": "view",
      "type": "function"
    },
    {
      "inputs": [
        {
          "internalType": "address",
          "name": "market",
          "type": "address"
        },
        {
          "internalType": "address",
          "name": "tokenIn",
          "type": "address"
        },
        {
          "internalType": "uint256",
          "name": "netTokenIn",
          "type": "uint256"
        },
        {
          "internalType": "address",
          "name": "bulk",
          "type": "address"
        }
      ],
      "name": "addLiquiditySingleTokenStatic",
      "outputs": [
        {
          "internalType": "uint256",
          "name": "netLpOut",
          "type": "uint256"
        },
        {
          "internalType": "uint256",
          "name": "netPtFromSwap",
          "type": "uint256"
        },
        {
          "internalType": "uint256",
          "name": "netSyFee",
          "type": "uint256"
        },
        {
          "internalType": "uint256",
          "name": "priceImpact",
          "type": "uint256"
        },
        {
          "internalType": "uint256",
          "name": "exchangeRateAfter",
          "type": "uint256"
        },
        {
          "internalType": "uint256",
          "name": "netSyMinted",
          "type": "uint256"
        },
        {
          "internalType": "uint256",
          "name": "netSyToSwap",
          "type": "uint256"
        }
      ],
      "stateMutability": "view",
      "type": "function"
    },
    {
      "inputs": [
        {
          "internalType": "address",
          "name": "market",
          "type": "address"
        },
        {
          "internalType": "uint256",
          "name": "netLpToRemove",
          "type": "uint256"
        }
      ],
      "name": "removeLiquidityDualSyAndPtStatic",
      "outputs": [
        {
          "internalType": "uint256",
          "name": "netSyOut",
          "type": "uint256"
        },
        {
          "internalType": "uint256",
          "name": "netPtOut",
          "type": "uint256"
        }
      ],
      "stateMutability": "view",
      "type": "function"
    },
    {
      "inputs": [
        {
          "internalType": "address",
          "name": "market",
          "type": "address"
        },
        {
          "internalType": "uint256",
          "name": "netLpToRemove",
          "type": "uint256"
        },
        {
          "internalType": "address",
          "name": "tokenOut",
          "type": "address"
        },
        {
          "internalType": "address",
          "name": "bulk",
          "type": "address"
        }
      ],
      "name": "removeLiquidityDualTokenAndPtStatic",
      "outputs": [
        {
          "internalType": "uint256",
          "name": "netTokenOut",
          "type": "uint256"
        },
        {
          "internalType": "uint256",
          "name": "netPtOut",
          "type": "uint256"
        },
        {
          "internalType": "uint256",
          "name": "netSyToRedeem",
          "type": "uint256"
        }
      ],
      "stateMutability": "view",
      "type": "function"
    },
    {
      "inputs": [
        {
          "internalType": "address",
          "name": "market",
          "type": "address"
        },
        {
          "internalType": "uint256",
          "name": "netLpToRemove",
          "type": "uint256"
        }
      ],
      "name": "removeLiquiditySinglePtStatic",
      "outputs": [
        {
          "internalType": "uint256",
          "name": "netPtOut",
          "type": "uint256"
        },
        {
          "internalType": "uint256",
          "name": "netPtFromSwap",
          "type": "uint256"
        },
        {
          "internalType": "uint256",
          "name": "netSyFee",
          "type": "uint256"
        },
        {
          "internalType": "uint256",
          "name": "priceImpact",
          "type": "uint256"
        },
        {
          "internalType": "uint256",
          "name": "exchangeRateAfter",
          "type": "uint256"
        },
        {
          "internalType": "uint256",
          "name": "netSyFromBurn",
          "type": "uint256"
        },
        {
          "internalType": "uint256",
          "name": "netPtFromBurn",
          "type": "uint256"
        }
      ],
      "stateMutability": "view",
      "type": "function"
    },
    {
      "inputs": [
        {
          "internalType": "address",
          "name": "market",
          "type": "address"
        },
        {
          "internalType": "uint256",
          "name": "netLpToRemove",
          "type": "uint256"
        }
      ],
      "name": "removeLiquiditySingleSyStatic",
      "outputs": [
        {
          "internalType": "uint256",
          "name": "netSyOut",
          "type": "uint256"
        },
        {
          "internalType": "uint256",
          "name": "netSyFee",
          "type": "uint256"
        },
        {
          "internalType": "uint256",
          "name": "priceImpact",
          "type": "uint256"
        },
        {
          "internalType": "uint256",
          "name": "exchangeRateAfter",
          "type": "uint256"
        },
        {
          "internalType": "uint256",
          "name": "netSyFromBurn",
          "type": "uint256"
        },
        {
          "internalType": "uint256",
          "name": "netPtFromBurn",
          "type": "uint256"
        },
        {
          "internalType": "uint256",
          "name": "netSyFromSwap",
          "type": "uint256"
        }
      ],
      "stateMutability": "view",
      "type": "function"
    },
    {
      "inputs": [
        {
          "internalType": "address",
          "name": "market",
          "type": "address"
        },
        {
          "internalType": "uint256",
          "name": "netLpToRemove",
          "type": "uint256"
        },
        {
          "internalType": "address",
          "name": "tokenOut",
          "type": "address"
        },
        {
          "internalType": "address",
          "name": "bulk",
          "type": "address"
        }
      ],
      "name": "removeLiquiditySingleTokenStatic",
      "outputs": [
        {
          "internalType": "uint256",
          "name": "netTokenOut",
          "type": "uint256"
        },
        {
          "internalType": "uint256",
          "name": "netSyFee",
          "type": "uint256"
        },
        {
          "internalType": "uint256",
          "name": "priceImpact",
          "type": "uint256"
        },
        {
          "internalType": "uint256",
          "name": "exchangeRateAfter",
          "type": "uint256"
        },
        {
          "internalType": "uint256",
          "name": "netSyOut",
          "type": "uint256"
        },
        {
          "internalType": "uint256",
          "name": "netSyFromBurn",
          "type": "uint256"
        },
        {
          "internalType": "uint256",
          "name": "netPtFromBurn",
          "type": "uint256"
        },
        {
          "internalType": "uint256",
          "name": "netSyFromSwap",
          "type": "uint256"
        }
      ],
      "stateMutability": "view",
      "type": "function"
    },
    {
      "inputs": [
        {
          "internalType": "address",
          "name": "market",
          "type": "address"
        },
        {
          "internalType": "uint256",
          "name": "exactPtIn",
          "type": "uint256"
        }
      ],
      "name": "swapExactPtForSyStatic",
      "outputs": [
        {
          "internalType": "uint256",
          "name": "netSyOut",
          "type": "uint256"
        },
        {
          "internalType": "uint256",
          "name": "netSyFee",
          "type": "uint256"
        },
        {
          "internalType": "uint256",
          "name": "priceImpact",
          "type": "uint256"
        },
        {
          "internalType": "uint256",
          "name": "exchangeRateAfter",
          "type": "uint256"
        }
      ],
      "stateMutability": "view",
      "type": "function"
    },
    {
      "inputs": [
        {
          "internalType": "address",
          "name": "market",
          "type": "address"
        },
        {
          "internalType": "uint256",
          "name": "exactPtIn",
          "type": "uint256"
        },
        {
          "internalType": "address",
          "name": "tokenOut",
          "type": "address"
        },
        {
          "internalType": "address",
          "name": "bulk",
          "type": "address"
        }
      ],
      "name": "swapExactPtForTokenStatic",
      "outputs": [
        {
          "internalType": "uint256",
          "name": "netTokenOut",
          "type": "uint256"
        },
        {
          "internalType": "uint256",
          "name": "netSyToRedeem",
          "type": "uint256"
        },
        {
          "internalType": "uint256",
          "name": "netSyFee",
          "type": "uint256"
        },
        {
          "internalType": "uint256",
          "name": "priceImpact",
          "type": "uint256"
        },
        {
          "internalType": "uint256",
          "name": "exchangeRateAfter",
          "type": "uint256"
        }
      ],
      "stateMutability": "view",
      "type": "function"
    },
    {
      "inputs": [
        {
          "internalType": "address",
          "name": "market",
          "type": "address"
        },
        {
          "internalType": "uint256",
          "name": "exactPtIn",
          "type": "uint256"
        }
      ],
      "name": "swapExactPtForYtStatic",
      "outputs": [
        {
          "internalType": "uint256",
          "name": "netYtOut",
          "type": "uint256"
        },
        {
          "internalType": "uint256",
          "name": "totalPtToSwap",
          "type": "uint256"
        },
        {
          "internalType": "uint256",
          "name": "netSyFee",
          "type": "uint256"
        },
        {
          "internalType": "uint256",
          "name": "priceImpact",
          "type": "uint256"
        },
        {
          "internalType": "uint256",
          "name": "exchangeRateAfter",
          "type": "uint256"
        }
      ],
      "stateMutability": "view",
      "type": "function"
    },
    {
      "inputs": [
        {
          "internalType": "address",
          "name": "market",
          "type": "address"
        },
        {
          "internalType": "uint256",
          "name": "exactSyIn",
          "type": "uint256"
        }
      ],
      "name": "swapExactSyForPtStatic",
      "outputs": [
        {
          "internalType": "uint256",
          "name": "netPtOut",
          "type": "uint256"
        },
        {
          "internalType": "uint256",
          "name": "netSyFee",
          "type": "uint256"
        },
        {
          "internalType": "uint256",
          "name": "priceImpact",
          "type": "uint256"
        },
        {
          "internalType": "uint256",
          "name": "exchangeRateAfter",
          "type": "uint256"
        }
      ],
      "stateMutability": "view",
      "type": "function"
    },
    {
      "inputs": [
        {
          "internalType": "address",
          "name": "market",
          "type": "address"
        },
        {
          "internalType": "uint256",
          "name": "exactSyIn",
          "type": "uint256"
        }
      ],
      "name": "swapExactSyForYtStatic",
      "outputs": [
        {
          "internalType": "uint256",
          "name": "netYtOut",
          "type": "uint256"
        },
        {
          "internalType": "uint256",
          "name": "netSyFee",
          "type": "uint256"
        },
        {
          "internalType": "uint256",
          "name": "priceImpact",
          "type": "uint256"
        },
        {
          "internalType": "uint256",
          "name": "exchangeRateAfter",
          "type": "uint256"
        }
      ],
      "stateMutability": "view",
      "type": "function"
    },
    {
      "inputs": [
        {
          "internalType": "address",
          "name": "market",
          "type": "address"
        },
        {
          "internalType": "address",
          "name": "tokenIn",
          "type": "address"
        },
        {
          "internalType": "uint256",
          "name": "amountTokenIn",
          "type": "uint256"
        },
        {
          "internalType": "address",
          "name": "bulk",
          "type": "address"
        }
      ],
      "name": "swapExactTokenForPtStatic",
      "outputs": [
        {
          "internalType": "uint256",
          "name": "netPtOut",
          "type": "uint256"
        },
        {
          "internalType": "uint256",
          "name": "netSyMinted",
          "type": "uint256"
        },
        {
          "internalType": "uint256",
          "name": "netSyFee",
          "type": "uint256"
        },
        {
          "internalType": "uint256",
          "name": "priceImpact",
          "type": "uint256"
        },
        {
          "internalType": "uint256",
          "name": "exchangeRateAfter",
          "type": "uint256"
        }
      ],
      "stateMutability": "view",
      "type": "function"
    },
    {
      "inputs": [
        {
          "internalType": "address",
          "name": "market",
          "type": "address"
        },
        {
          "internalType": "address",
          "name": "tokenIn",
          "type": "address"
        },
        {
          "internalType": "uint256",
          "name": "amountTokenIn",
          "type": "uint256"
        },
        {
          "internalType": "address",
          "name": "bulk",
          "type": "address"
        }
      ],
      "name": "swapExactTokenForYtStatic",
      "outputs": [
        {
          "internalType": "uint256",
          "name": "netYtOut",
          "type": "uint256"
        },
        {
          "internalType": "uint256",
          "name": "netSyMinted",
          "type": "uint256"
        },
        {
          "internalType": "uint256",
          "name": "netSyFee",
          "type": "uint256"
        },
        {
          "internalType": "uint256",
          "name": "priceImpact",
          "type": "uint256"
        },
        {
          "internalType": "uint256",
          "name": "exchangeRateAfter",
          "type": "uint256"
        }
      ],
      "stateMutability": "view",
      "type": "function"
    },
    {
      "inputs": [
        {
          "internalType": "address",
          "name": "market",
          "type": "address"
        },
        {
          "internalType": "uint256",
          "name": "exactYtIn",
          "type": "uint256"
        }
      ],
      "name": "swapExactYtForPtStatic",
      "outputs": [
        {
          "internalType": "uint256",
          "name": "netPtOut",
          "type": "uint256"
        },
        {
          "internalType": "uint256",
          "name": "totalPtSwapped",
          "type": "uint256"
        },
        {
          "internalType": "uint256",
          "name": "netSyFee",
          "type": "uint256"
        },
        {
          "internalType": "uint256",
          "name": "priceImpact",
          "type": "uint256"
        },
        {
          "internalType": "uint256",
          "name": "exchangeRateAfter",
          "type": "uint256"
        }
      ],
      "stateMutability": "view",
      "type": "function"
    },
    {
      "inputs": [
        {
          "internalType": "address",
          "name": "market",
          "type": "address"
        },
        {
          "internalType": "uint256",
          "name": "exactYtIn",
          "type": "uint256"
        }
      ],
      "name": "swapExactYtForSyStatic",
      "outputs": [
        {
          "internalType": "uint256",
          "name": "netSyOut",
          "type": "uint256"
        },
        {
          "internalType": "uint256",
          "name": "netSyFee",
          "type": "uint256"
        },
        {
          "internalType": "uint256",
          "name": "priceImpact",
          "type": "uint256"
        },
        {
          "internalType": "uint256",
          "name": "exchangeRateAfter",
          "type": "uint256"
        },
        {
          "internalType": "uint256",
          "name": "netSyOwedInt",
          "type": "uint256"
        },
        {
          "internalType": "uint256",
          "name": "netPYToRepaySyOwedInt",
          "type": "uint256"
        },
        {
          "internalType": "uint256",
          "name": "netPYToRedeemSyOutInt",
          "type": "uint256"
        }
      ],
      "stateMutability": "view",
      "type": "function"
    },
    {
      "inputs": [
        {
          "internalType": "address",
          "name": "market",
          "type": "address"
        },
        {
          "internalType": "uint256",
          "name": "exactYtIn",
          "type": "uint256"
        },
        {
          "internalType": "address",
          "name": "tokenOut",
          "type": "address"
        },
        {
          "internalType": "address",
          "name": "bulk",
          "type": "address"
        }
      ],
      "name": "swapExactYtForTokenStatic",
      "outputs": [
        {
          "internalType": "uint256",
          "name": "netTokenOut",
          "type": "uint256"
        },
        {
          "internalType": "uint256",
          "name": "netSyFee",
          "type": "uint256"
        },
        {
          "internalType": "uint256",
          "name": "priceImpact",
          "type": "uint256"
        },
        {
          "internalType": "uint256",
          "name": "exchangeRateAfter",
          "type": "uint256"
        },
        {
          "internalType": "uint256",
          "name": "netSyOut",
          "type": "uint256"
        },
        {
          "internalType": "uint256",
          "name": "netSyOwedInt",
          "type": "uint256"
        },
        {
          "internalType": "uint256",
          "name": "netPYToRepaySyOwedInt",
          "type": "uint256"
        },
        {
          "internalType": "uint256",
          "name": "netPYToRedeemSyOutInt",
          "type": "uint256"
        }
      ],
      "stateMutability": "view",
      "type": "function"
    },
    {
      "inputs": [
        {
          "internalType": "address",
          "name": "market",
          "type": "address"
        },
        {
          "internalType": "uint256",
          "name": "exactSyOut",
          "type": "uint256"
        }
      ],
      "name": "swapPtForExactSyStatic",
      "outputs": [
        {
          "internalType": "uint256",
          "name": "netPtIn",
          "type": "uint256"
        },
        {
          "internalType": "uint256",
          "name": "netSyFee",
          "type": "uint256"
        },
        {
          "internalType": "uint256",
          "name": "priceImpact",
          "type": "uint256"
        },
        {
          "internalType": "uint256",
          "name": "exchangeRateAfter",
          "type": "uint256"
        }
      ],
      "stateMutability": "view",
      "type": "function"
    },
    {
      "inputs": [
        {
          "internalType": "address",
          "name": "market",
          "type": "address"
        },
        {
          "internalType": "uint256",
          "name": "exactPtOut",
          "type": "uint256"
        }
      ],
      "name": "swapSyForExactPtStatic",
      "outputs": [
        {
          "internalType": "uint256",
          "name": "netSyIn",
          "type": "uint256"
        },
        {
          "internalType": "uint256",
          "name": "netSyFee",
          "type": "uint256"
        },
        {
          "internalType": "uint256",
          "name": "priceImpact",
          "type": "uint256"
        },
        {
          "internalType": "uint256",
          "name": "exchangeRateAfter",
          "type": "uint256"
        }
      ],
      "stateMutability": "view",
      "type": "function"
    },
    {
      "inputs": [
        {
          "internalType": "address",
          "name": "market",
          "type": "address"
        },
        {
          "internalType": "uint256",
          "name": "exactYtOut",
          "type": "uint256"
        }
      ],
      "name": "swapSyForExactYtStatic",
      "outputs": [
        {
          "internalType": "uint256",
          "name": "netSyIn",
          "type": "uint256"
        },
        {
          "internalType": "uint256",
          "name": "netSyFee",
          "type": "uint256"
        },
        {
          "internalType": "uint256",
          "name": "priceImpact",
          "type": "uint256"
        },
        {
          "internalType": "uint256",
          "name": "exchangeRateAfter",
          "type": "uint256"
        },
        {
          "internalType": "uint256",
          "name": "netSyReceivedInt",
          "type": "uint256"
        },
        {
          "internalType": "uint256",
          "name": "totalSyNeedInt",
          "type": "uint256"
        }
      ],
      "stateMutability": "view",
      "type": "function"
    },
    {
      "inputs": [
        {
          "internalType": "address",
          "name": "market",
          "type": "address"
        },
        {
          "internalType": "uint256",
          "name": "exactSyOut",
          "type": "uint256"
        }
      ],
      "name": "swapYtForExactSyStatic",
      "outputs": [
        {
          "internalType": "uint256",
          "name": "netYtIn",
          "type": "uint256"
        },
        {
          "internalType": "uint256",
          "name": "netSyFee",
          "type": "uint256"
        },
        {
          "internalType": "uint256",
          "name": "priceImpact",
          "type": "uint256"
        },
        {
          "internalType": "uint256",
          "name": "exchangeRateAfter",
          "type": "uint256"
        }
      ],
      "stateMutability": "view",
      "type": "function"
    }
  ],
  "bytecode": "0x608060405234801561001057600080fd5b50613eb6806100206000396000f3fe608060405234801561001057600080fd5b50600436106101ae5760003560e01c806366d215d0116100ee5780639766cb4e11610097578063b1f3606511610071578063b1f360651461046f578063b38e231614610482578063d8d3307814610495578063f50945cc146104a857600080fd5b80639766cb4e146103ec5780639a01bff614610414578063a9d09ae31461045c57600080fd5b80638c0cc77c116100c85780638c0cc77c146103b35780638d4ab764146103c6578063946bbc47146103d957600080fd5b806366d215d01461037a5780636e7721ab1461038d57806388a485f3146103a057600080fd5b806338f3ba8e1161015b5780634ff94087116101355780634ff940871461032e57806353dfc868146103415780635b42f5e314610354578063629723a11461036757600080fd5b806338f3ba8e146102b25780633b672dcd146102e0578063488022a01461031b57600080fd5b80631e9658511161018c5780631e9658511461024c57806325cadd2c1461028c578063340e11261461029f57600080fd5b8063066fd4c2146101b35780631161b4a1146102065780631e0b829414610239575b600080fd5b6101c66101c1366004613a7c565b6104bb565b604080519889526020890197909752958701949094526060860192909252608085015260a084015260c083015260e0820152610100015b60405180910390f35b610219610214366004613acf565b610502565b6040805194855260208501939093529183015260608201526080016101fd565b610219610247366004613b17565b610532565b61025f61025a366004613b17565b61058a565b604080519687526020870195909552938501929092526060840152608083015260a082015260c0016101fd565b61025f61029a366004613b17565b610650565b6102196102ad366004613b17565b6106d1565b6102c56102c0366004613b43565b610766565b604080519384526020840192909252908201526060016101fd565b6102f36102ee366004613b17565b610794565b604080519586526020860194909452928401919091526060830152608082015260a0016101fd565b6102f3610329366004613b78565b61083a565b6102f361033c366004613acf565b6108bb565b61021961034f366004613b17565b6108ef565b61025f610362366004613b17565b61098f565b6102c5610375366004613a7c565b610a44565b6102f3610388366004613acf565b610a6f565b61021961039b366004613b17565b610a8f565b6102c56103ae366004613b17565b610ac1565b6102196103c1366004613b17565b610b60565b6102f36103d4366004613b17565b610be3565b6101c66103e7366004613a7c565b610c69565b6103ff6103fa366004613b17565b610c7f565b604080519283526020830191909152016101fd565b610427610422366004613b17565b610ca5565b604080519788526020880196909652948601939093526060850191909152608084015260a083015260c082015260e0016101fd565b61042761046a366004613b17565b610dbb565b61021961047d366004613b17565b610e7b565b610427610490366004613acf565b610f00565b6104276104a3366004613b17565b610f49565b6102f36104b6366004613a7c565b610fcc565b6000806000806000806000806104d18c8c610f49565b949c50929a5090985092965091945090925090506104f18c8b868c611001565b975094995094995094999196509450565b600080600080610514888888886110b2565b91506105208883610ac1565b919a9099509297509550909350505050565b6000806000806000610543876110c3565b905061055a610551886111a3565b82908842611227565b5090955093506105728761056d88611278565b61128f565b925061057e8782611322565b91505092959194509250565b600080600080600080600061059e896110c3565b90506105e96105ac8a6111a3565b6040805160a0810182526003548152600454602082015260055491810191909152600654606082015260075460808201528391908b9042906113c9565b509096506105f89050896110c3565b90506106066105518a6111a3565b509550915061062282610619888b613be9565b8391904261154e565b5090985061063791508a905061056d88611278565b93506106438982611322565b9250509295509295509295565b60008060008060008061066b8861066689611278565b6115b9565b93506000610678896110c3565b905060006106858a6111a3565b905061069c6106938b6111a3565b83908b42611227565b50975093506106ab818a611608565b92506106b78385611614565b97506106c38a83611322565b945050509295509295509295565b60008060008060006106e2876110c3565b905061072d6106f0886111a3565b6040805160a0810182526003548152600454602082015260055491810191909152600654606082015260075460808201528391908990429061162b565b91965090945061074290508761056d87611278565b9250610759610750886111a3565b82908742611227565b50505061057e8782611322565b600080600080610775876110c3565b90506107838187874261154e565b919a90995090975095505050505050565b6000806000806000806107a6886110c3565b905060006107b3896111a3565b6040805160a0810182526003548152600454602082015260055491810191909152600654606082015260075460808201529091506107f890839083908b9042906116e8565b919850965094506108118961080c886117dd565b611810565b935061081f8282884261185f565b50505061082c8983611322565b925050509295509295909350565b600080600080600061084e8a8a8a8a6110b2565b905061085b8a8288610766565b91965090935091508082146108ab576040517fdea0d17600000000000000000000000000000000000000000000000000000000815260048101829052602481018390526044015b60405180910390fd5b8793509550955095509550959050565b60008060008060006108cf898989896110b2565b93506108db8985610b60565b929c969b5090995097509550929350505050565b6000806000806000610900876110c3565b9050600061090d886111a3565b6040805160a08101825260035481526004546020820152600554918101919091526006546060820152600754608082015290915061095290839083908a90429061188d565b919750909550610967905088610666886117dd565b93506109758282884261185f565b5050506109828883611322565b9250505092959194509250565b60008060008060008060006109a3896110c3565b90506109ee6109b18a6111a3565b6040805160a0810182526003548152600454602082015260055491810191909152600654606082015260075460808201528391908b904290611984565b509096506109fd9050896110c3565b9050610a14610a0b8a6111a3565b8290884261185f565b5095509150610a2f610a26838a613be9565b8290884261154e565b5090985061063791508a905061056d886117dd565b6000806000610a538787610c7f565b92509050610a6387868387611001565b92509450945094915050565b6000806000806000610a83898989896110b2565b93506108db8985610e7b565b6000806000806000610aa0876110c3565b9050610aae610a0b886111a3565b5090955093506105728761056d886117dd565b600080600080610ad0866110c3565b90506000610add876111a3565b9050610af6610aef8360200151611ba3565b8290611bb2565b8251610b0190611ba3565b610b0b9190613bfc565b8251610b1690611ba3565b610b209088613c0f565b610b2a9190613c3c565b9250610b368184611bb2565b9350610b4e610b458488613be9565b8390864261154e565b50909995985093965093945050505050565b6000806000806000610b71876110c3565b90506000610b7e886111a3565b6040805160a081018252600354815260045460208201526005549181019190915260065460608201526007546080820152909150610bc390839083908a904290611bbe565b9096509450610bd58861066688611278565b935061097582828842611227565b600080600080600080610bf5886110c3565b90506000610c02896111a3565b6040805160a081018252600354815260045460208201526005549181019190915260065460608201526007546080820152909150610c4790839083908b904290611cc5565b91985096509450610c5b8961080c88611278565b935061081f82828842611227565b6000806000806000806000806104d18c8c610ca5565b6000806000610c8d856110c3565b9050610c998185611dbc565b90969095509350505050565b600080600080600080600080610cba8a6110c3565b9050610cc6818a611dbc565b8094508195505050896001600160a01b0316632f13b60c6040518163ffffffff1660e01b8152600401602060405180830381865afa158015610d0c573d6000803e3d6000fd5b505050506040513d601f19601f82011682018060405250810190610d309190613c50565b15610d6c57610d4883610d428c6111a3565b90611df7565b610d529085613bfc565b97506000965060009550670de0b6b3a76400009450610dae565b610d81610d788b6111a3565b82908542611227565b5097509150610d908285613bfc565b9750610d9f8a61056d85611278565b9550610dab8a82611322565b94505b5092959891949750929550565b600080600080600080600080610dd08a6110c3565b9050610ddc818a611dbc565b9093509150610e2a610ded8b6111a3565b6040805160a08101825260035481526004546020820152600554918101919091526006546060820152600754608082015283919086904290611e03565b9097509550610e398783613bfc565b9750610e488a61056d896117dd565b9450610e5f610e568b6111a3565b8290894261185f565b505050610e6c8a82611322565b93505092959891949750929550565b6000806000806000610e8c876110c3565b9050610ed7610e9a886111a3565b6040805160a08101825260035481526004546020820152600554918101919091526006546060820152600754608082015283919089904290611e03565b9095509350610ee98761056d876117dd565b9250610759610ef7886111a3565b8290874261185f565b6000806000806000806000610f178b8b8b8b6110b2565b9150610f238b8361098f565b809650819850829950839a50849b50859c50505050505050949950949992975094509450565b6000806000806000806000610f61896106668a6117dd565b94506000610f6e8a6110c3565b90506000610f7b8b6111a3565b9050610f8982828c4261185f565b5098509450610f988186611ecc565b9350610fa4848b613be9565b9250610fb08184611df7565b9850610fbc8b83611322565b9550505092959891949750929550565b6000806000806000610fde8989610532565b92965090945092509050610ff489888689611001565b9450945094509450945094565b60003063f5cc4fad61101287611ee1565b6040517fffffffff0000000000000000000000000000000000000000000000000000000060e084901b1681526001600160a01b0391821660048201528188166024820152604481018790529085166064820152608401602060405180830381865afa158015611085573d6000803e3d6000fd5b505050506040513d601f19601f820116820180604052508101906110a99190613c72565b95945050505050565b60003063502fdd3f61101287611ee1565b61111b60405180610120016040528060008152602001600081526020016000815260200160006001600160a01b0316815260200160008152602001600081526020016000815260200160008152602001600081525090565b6040517f794052f30000000000000000000000000000000000000000000000000000000081523060048201526001600160a01b0383169063794052f39060240161012060405180830381865afa158015611179573d6000803e3d6000fd5b505050506040513d601f19601f8201168201806040525081019061119d9190613cce565b92915050565b6040517f295c2ea60000000000000000000000000000000000000000000000000000000081526001600160a01b0382166004820152600090309063295c2ea690602401602060405180830381865afa158015611203573d6000803e3d6000fd5b505050506040513d601f19601f8201168201806040525081019061119d9190613c72565b6000806000806000806112448a8a61123e8b611278565b8a611f50565b92509250925061125383611ba3565b955061125e82611ba3565b945061126981611ba3565b93505050509450945094915050565b6000611283826117dd565b61119d90600019613d50565b6040517fa34560c60000000000000000000000000000000000000000000000000000000081526001600160a01b038316600482015260248101829052600090309063a34560c6906044015b602060405180830381865afa1580156112f7573d6000803e3d6000fd5b505050506040513d601f19601f8201168201806040525081019061131b9190613c72565b9392505050565b604080517f5dc9bdbe0000000000000000000000000000000000000000000000000000000081526001600160a01b038085166004830152835160248301526020840151604483015291830151606482015260608301519091166084820152608082015160a482015260a082015160c482015260c082015160e482015260e08201516101048201526101008201516101248201526000903090635dc9bdbe90610144016112da565b60008080806113d9898988612004565b90508460400151600003611471576113fe85602001516113f98b8461211e565b6121a2565b6020860181905261140f90886121a2565b602086015261141d856121b8565b88604001516000036114715760405162461bcd60e51b815260206004820152600e60248201527f6e6f206578697374696e67206c7000000000000000000000000000000000000060448201526064016108a2565b60005b856060015181101561151057600061148c878361222d565b90506000806000806114a18f8f8f8a896122b2565b5093509350935093506114b984848d60800151612331565b156114d05793985096509194506115439350505050565b8284116114e9576114e2856001613bfc565b8b526114fa565b6114f4600186613be9565b60208c01525b50505050508061150990613d80565b9050611474565b506040517ffa711db200000000000000000000000000000000000000000000000000000000815260040160405180910390fd5b955095509592505050565b6000806000806000806000806115768c6115678d6117dd565b6115708d6117dd565b8c612379565b935093509350935061158784611ba3565b975061159283611ba3565b965061159d82611ba3565b95506115a881611ba3565b945050505050945094509450949050565b6040517fd1b087c90000000000000000000000000000000000000000000000000000000081526001600160a01b038316600482015260248101829052600090309063d1b087c9906044016112da565b600061131b838361255e565b60008183101561162557600061131b565b50900390565b600080808061163b898988612004565b905084604001516000036116695761165b85602001516113f98b8461211e565b6020860152611669856121b8565b60005b8560600151811015611510576000611684878361222d565b90506000806116958d868e86612594565b50915091508a82106116d0576116b0828c8b608001516125c5565b156116c45791965094509250611543915050565b602089018390526116d4565b8289525b505050806116e190613d80565b905061166c565b60008080806116f8898988612004565b9050846040015160000361173957845161171290886125e8565b85526020850151895161172b91906113f99084906125f7565b6020860152611739856121b8565b60005b8560600151811015611510576000611754878361222d565b90506000806117658d868e86612696565b50909250905060006117778d84611ecc565b90508b81116117b75761178f818d8c608001516126c8565b156117af5761179e8185613be9565b985092965094506115439350505050565b838a526117c8565b6117c2600185613be9565b60208b01525b50505050806117d690613d80565b905061173c565b60007f7fffffffffffffffffffffffffffffffffffffffffffffffffffffffffffffff82111561180c57600080fd5b5090565b6040517f0ac6aa690000000000000000000000000000000000000000000000000000000081526001600160a01b0383166004820152602481018290526000903090630ac6aa69906044016112da565b6000806000806000806118768a8a61123e8b6117dd565b925092509250611253611888846126f6565b611ba3565b600080808061189d898988612004565b905084604001516000036118cf576118c185602001516113f9838c600001516125f7565b60208601526118cf856121b8565b60005b85606001518110156115105760006118ea878361222d565b90506000806118fb8d868e86612696565b509092509050600061190d8d84611ecc565b9050600061192561191e8387613be9565b8f90611df7565b90508c81106119605761193d818e8d608001516125c5565b156119545793985092965094506115439350505050565b60208b0185905261196e565b61196b856001613bfc565b8b525b50505050508061197d90613d80565b90506118d2565b6040805160a08101825286815260208101869052908101849052606081018390526080810182905260009081908190816119bf8a8a89612004565b9050816080015160400151600003611a5b576119ef8260800151602001516113f9838560000151600001516125f7565b6080830180516020019190915251611a06906121b8565b815160400151600003611a5b5760405162461bcd60e51b815260206004820152600e60248201527f6e6f206578697374696e67206c7000000000000000000000000000000000000060448201526064016108a2565b60005b826080015160600151811015611510576000611a7e84608001518361222d565b90506000806000611a99876000015187896020015187612696565b9250925092508660400151831115611ac957611ab6600185613be9565b60808801516020015250611b9392505050565b86515160009081908190611ade908890613be9565b9050600084878c6000015160200151611af79190613bfc565b611b019190613be9565b9050611b0d8189613c0f565b925081878c60400151611b209190613be9565b611b2a9190613c0f565b93505050611b4181838b6080015160800151612331565b15611b5a57509399509197509550611543945050505050565b818111611b7757611b6c866001613bfc565b60808a015152611b8c565b611b82600187613be9565b60808a0151602001525b5050505050505b611b9c81613d80565b9050611a5e565b60008082121561180c57600080fd5b600061131b8383612704565b60008080611bcd888887612004565b90508360400151600003611c13578351611bf090611beb8989611bb2565b6125e8565b84526020840151611c05906113f98a8461211e565b6020850152611c13846121b8565b60005b8460600151811015611510576000611c2e868361222d565b9050600080611c3f8c868d86612594565b5090925090506000611c518c85611608565b90506000611c5f8483613be9565b90508b8111611c9457611c77818d8c608001516126c8565b15611c8c57509296509450611cbb9350505050565b848a52611ca5565b611c9f600186613be9565b60208b01525b505050505080611cb490613d80565b9050611c16565b9550959350505050565b6000808080611cd5898988612004565b90508460400151600003611d12578451611cef90886125e8565b85526020850151611d04906113f98b8461211e565b6020860152611d12856121b8565b60005b8560600151811015611510576000611d2d878361222d565b9050600080611d3e8d868e86612594565b5090925090506000611d508d84611bb2565b90506000611d5e8286613be9565b90508c8111611d9557611d76818e8d608001516126c8565b15611d8d5750975091955090935061154392505050565b848b52611da6565b611da0600186613be9565b60208c01525b505050505080611db590613d80565b9050611d15565b600080600080611dd486611dcf876117dd565b612719565b91509150611de182611ba3565b9350611dec81611ba3565b925050509250929050565b600061131b8383612817565b60008080611e12888887612004565b90508360400151600003611e4457611e3684602001516113f9838b600001516125f7565b6020850152611e44846121b8565b60005b8460600151811015611510576000611e5f868361222d565b9050600080611e708c868d86612696565b5091509150898211611ea757611e8b828b8a608001516126c8565b15611e9f57919550909350611cbb92505050565b828852611eb8565b611eb2600184613be9565b60208901525b50505080611ec590613d80565b9050611e47565b600082611ed9818461282c565b949350505050565b600080826001600160a01b0316632c8ce6bc6040518163ffffffff1660e01b8152600401606060405180830381865afa158015611f22573d6000803e3d6000fd5b505050506040513d601f19601f82011682018060405250810190611f469190613d9a565b5090949350505050565b6000806000611f638760a0015185101590565b15611f815760405163b2094b5960e01b815260040160405180910390fd5b86518512611fc85786516040517f8615426c0000000000000000000000000000000000000000000000000000000081526004810191909152602481018690526044016108a2565b6000611fd5888887612004565b9050611fe388828989612844565b91955093509150611ff98882898988878b612998565b509450945094915050565b61202f6040518060800160405280600081526020016000815260200160008152602001600081525090565b60a084015182106120535760405163b2094b5960e01b815260040160405180910390fd5b6000828560a001516120659190613be9565b90506120718582612a43565b82526020850151612083908590612ab8565b60208301528451158061209857506020820151155b156120df57845160208301516040517fb1c4aefb000000000000000000000000000000000000000000000000000000008152600481019290925260248201526044016108a2565b6120fd85600001518661010001518460200151856000015185612aef565b604083015260c08501516121119082612b70565b6060830152509392505050565b600080600090506000600184602001516121389190613be9565b90505b80821461219a57600060026121508385613bfc565b61215b906001613bfc565b6121659190613c3c565b9050600061217886886000015184612ba4565b121561219057612189600182613be9565b9150612194565b8092505b5061213b565b509392505050565b60008183106121b1578161131b565b5090919050565b6020810151815111806121d65750670de0b6b3a76400008160800151115b1561222a578051602082015160808301516040517fb301af040000000000000000000000000000000000000000000000000000000081526004810193909352602483019190915260448201526064016108a2565b50565b6000811580156122405750604083015115155b156122505750604082015161119d565b6020830151835111612280576020830151835160029161226f91613bfc565b6122799190613c3c565b905061119d565b6040517ffa711db200000000000000000000000000000000000000000000000000000000815260040160405180910390fd5b60008060008060006122c68a888b89612594565b8c5192955090935091506000906122de908890613bfc565b9050600082858d602001516122f39190613be9565b6122fd9190613be9565b90506123098286613c0f565b965080612316898c613be9565b6123209190613c0f565b955050509550955095509550959050565b60008361234f8461234a85670de0b6b3a7640000613be9565b612ca1565b11158015611ed9575061236e8361234a84670de0b6b3a7640000613bfc565b841115949350505050565b6000808080861580612389575085155b156123c0576040517f25daaec300000000000000000000000000000000000000000000000000000000815260040160405180910390fd5b60a088015185106123e45760405163b2094b5960e01b815260040160405180910390fd5b876040015160000361242c576103e861241061240b6124066118888a8c613d50565b612cc1565b6117dd565b61241a9190613de7565b92506103e893508691508590506124cf565b87516040890151600091906124419089613d50565b61244b9190613e0e565b9050600089602001518a604001518a6124649190613d50565b61246e9190613e0e565b9050808212156124a4578194508792508960400151858b602001516124939190613d50565b61249d9190613e0e565b93506124cc565b8094508893508960400151858b600001516124bf9190613d50565b6124c99190613e0e565b92505b50505b60008313612509576040517fccbf546800000000000000000000000000000000000000000000000000000000815260040160405180910390fd5b818860200181815161251b9190613e3c565b90525087518190899061252f908390613e3c565b90525061253c8484613e3c565b8860400181815161254d9190613e3c565b905250929791965094509092509050565b600082600181612576670de0b6b3a764000086613c0f565b6125809190613bfc565b61258a9190613be9565b61131b9190613c3c565b600080808080806125b289896125a98a613e64565b8d929190612844565b919c909b50909950975050505050505050565b6000828410158015611ed9575061236e8361234a84670de0b6b3a7640000613bfc565b60008183116121b1578161131b565b60008061262461261f8560000151866040015187606001516126199190613de7565b90612d31565b612d54565b9050600061264461263d670de0b6b3a764000084613e3c565b839061326b565b9050600061266286602001518661265b9190613e3c565b8390612d31565b905060006126708287613de7565b90506103e8612681826103e7613c0f565b61268b9190613c3c565b979650505050505050565b600080808080806126a98a8a8a8a612844565b925092509250826126b990613e64565b9a919950975095505050505050565b6000828411158015611ed957506126eb8361234a84670de0b6b3a7640000613be9565b909310159392505050565b600061119d82600019613d50565b6000670de0b6b3a764000061258a8484613c0f565b60008082600003612756576040517f25daaec300000000000000000000000000000000000000000000000000000000815260040160405180910390fd5b6040840151602085015161276a9085613d50565b6127749190613e0e565b60408501518551919350906127899085613d50565b6127939190613e0e565b9050811580156127a1575080155b156127d8576040517fccbf546800000000000000000000000000000000000000000000000000000000815260040160405180910390fd5b60408401516127e79084613291565b604085015283516127f89082613291565b845260208401516128099083613291565b602090940193909352929050565b60008261258a670de0b6b3a764000084613c0f565b6000670de0b6b3a76400006001816125768686613c0f565b6000806000806128678860000151886020015189600001518a60400151896132ed565b9050600061287d612878878461326b565b6126f6565b606089015190915060008713156128ec57600061289a848361326b565b9050670de0b6b3a76400008112156128c85760405163329e322960e21b8152600481018290526024016108a2565b6128e46128dd83670de0b6b3a7640000613de7565b8490612d31565b915050612919565b6129168161290281670de0b6b3a7640000613de7565b61290c9085613d50565b6128789190613e0e565b90505b6000606461292a8c60e001516117dd565b6129349084613d50565b61293e9190613e0e565b9050600061294c8385613de7565b905060008112612965576129608a826133bc565b61296f565b61296f8a826133e9565b975061297b8a846133bc565b96506129878a836133bc565b955050505050509450945094915050565b6000818860a001516129aa9190613be9565b88519091506129b99086613291565b88526129d36129c88486613e3c565b60208a015190613291565b6020890181905288516129f8916129eb908990612ab8565b895160408b015185613416565b6101008901819052600003612a39576040517faa69ae1e00000000000000000000000000000000000000000000000000000000815260040160405180910390fd5b5050505050505050565b6000612a4e826117dd565b612a6061240b6201518061016d613c0f565b8460800151612a6f9190613d50565b612a799190613e0e565b90506000811361119d576040517f1ca41876000000000000000000000000000000000000000000000000000000008152600481018290526024016108a2565b60008060008312612aca576001612ace565b6000195b9050612ae561240b85612ae086613469565b612704565b611ed99082613d50565b600080612afc8684612b70565b9050670de0b6b3a7640000811215612b2a5760405163329e322960e21b8152600481018290526024016108a2565b6000612b40612b39878a613e3c565b899061326b565b90506000612b4d82613480565b9050612b59818761326b565b612b639084613de7565b9998505050505050505050565b600080612b826201518061016d613c0f565b612b8c8486613c0f565b612b969190613c3c565b9050611ed961261f826117dd565b600080828560200151612bb79190613de7565b90506000612bc58585613e3c565b9050600082138015612bd75750600081135b612c235760405162461bcd60e51b815260206004820152601260248201527f696e76616c6964207074546f4d61726b6574000000000000000000000000000060448201526064016108a2565b6000612c51612c328484613d50565b6020890151612c419089613e3c565b612c4b9088613d50565b9061326b565b90506000612c67612c62848661326b565b6134e8565b8851909150600090612c8290670de0b6b3a76400009061326b565b9050612c92816126198486613de7565b8960400151612b639190613de7565b600080612cae8385613c0f565b670de0b6b3a76400009004949350505050565b60006003821115612d225750806000612cdb600283613c3c565b612ce6906001613bfc565b90505b81811015612d1c57905080600281612d018186613c3c565b612d0b9190613bfc565b612d159190613c3c565b9050612ce9565b50919050565b8115612d2c575060015b919050565b600080612d3e8385613d50565b9050670de0b6b3a7640000815b05949350505050565b60007ffffffffffffffffffffffffffffffffffffffffffffffffdc702bd3a30fc00008212158015612d8f575068070c1cc73b00c800008213155b612ddb5760405162461bcd60e51b815260206004820152601060248201527f496e76616c6964206578706f6e656e740000000000000000000000000000000060448201526064016108a2565b6000821215612e1457612df082600003612d54565b6ec097ce7bc90715b34b9f100000000081612e0d57612e0d613c26565b0592915050565b60006806f05b59d3b20000008312612e6a57507ffffffffffffffffffffffffffffffffffffffffffffffff90fa4a62c4e00000090910190770195e54c5dd42177f53a27172fa9ec630262827000000000612eb6565b6803782dace9d90000008312612eb257507ffffffffffffffffffffffffffffffffffffffffffffffffc87d2531627000000909101906b1425982cf597cd205cef7380612eb6565b5060015b6064929092029168056bc75e2d6310000068ad78ebc5ac620000008412612f1c577fffffffffffffffffffffffffffffffffffffffffffffff5287143a539e0000009093019268056bc75e2d631000006e01855144814a7ff805980ff008400082020590505b6856bc75e2d6310000008412612f6e577fffffffffffffffffffffffffffffffffffffffffffffffa9438a1d29cf0000009093019268056bc75e2d631000006b02df0ab5a80a22c61ab5a70082020590505b682b5e3af16b188000008412612fbe577fffffffffffffffffffffffffffffffffffffffffffffffd4a1c50e94e78000009093019268056bc75e2d63100000693f1fce3da636ea5cf85082020590505b6815af1d78b58c400000841261300e577fffffffffffffffffffffffffffffffffffffffffffffffea50e2874a73c000009093019268056bc75e2d63100000690127fa27722cc06cc5e282020590505b680ad78ebc5ac6200000841261305d577ffffffffffffffffffffffffffffffffffffffffffffffff5287143a539e000009093019268056bc75e2d6310000068280e60114edb805d0382020590505b68056bc75e2d6310000084126130ac577ffffffffffffffffffffffffffffffffffffffffffffffffa9438a1d29cf000009093019268056bc75e2d63100000680ebc5fb4174612111082020590505b6802b5e3af16b188000084126130fb577ffffffffffffffffffffffffffffffffffffffffffffffffd4a1c50e94e7800009093019268056bc75e2d631000006808f00f760a4b2db55d82020590505b68015af1d78b58c40000841261314a577ffffffffffffffffffffffffffffffffffffffffffffffffea50e2874a73c00009093019268056bc75e2d631000006806f5f177578893793782020590505b68056bc75e2d631000008481019085906002908280020505918201919050600368056bc75e2d631000008783020505918201919050600468056bc75e2d631000008783020505918201919050600568056bc75e2d631000008783020505918201919050600668056bc75e2d631000008783020505918201919050600768056bc75e2d631000008783020505918201919050600868056bc75e2d631000008783020505918201919050600968056bc75e2d631000008783020505918201919050600a68056bc75e2d631000008783020505918201919050600b68056bc75e2d631000008783020505918201919050600c68056bc75e2d631000008783020505918201919050606468056bc75e2d63100000848402058502059695505050505050565b600080613280670de0b6b3a764000085613d50565b9050828181612d4b57612d4b613c26565b6000818312156132e35760405162461bcd60e51b815260206004820152600860248201527f6e6567617469766500000000000000000000000000000000000000000000000060448201526064016108a2565b61131b8284613de7565b6000806132fa8784613291565b9050600061330b61263d888a613e3c565b9050670d529ae9e8600000811315613360576040517ffc68d09e00000000000000000000000000000000000000000000000000000000815260048101829052670d529ae9e860000060248201526044016108a2565b600061336b82613480565b905085613378828961326b565b6133829190613e3c565b9350670de0b6b3a76400008412156133b05760405163329e322960e21b8152600481018590526024016108a2565b50505095945050505050565b600080600083126133ce5760016133d2565b6000195b9050612ae561240b856133e486613469565b612817565b600080600083126133fb5760016133ff565b6000195b9050612ae561240b8561341186613469565b61255e565b6000806134278787878760006132ed565b90506000613437611888836134e8565b9050836134496201518061016d613c0f565b6134539083613c0f565b61345d9190613c3c565b98975050505050505050565b600080821361180c5761347b82613e64565b61119d565b6000670de0b6b3a764000082036134c3576040517fa9c8b14d00000000000000000000000000000000000000000000000000000000815260040160405180910390fd5b60006134e16134da84670de0b6b3a7640000613de7565b849061326b565b905061131b815b60008082136135395760405162461bcd60e51b815260206004820152600d60248201527f6f7574206f6620626f756e64730000000000000000000000000000000000000060448201526064016108a2565b670c7d713b49da0000821380156135575750670f43fc2c04ee000082125b1561357b57670de0b6b3a764000061356e83613584565b81612e0d57612e0d613c26565b61119d826136bc565b670de0b6b3a7640000026000806ec097ce7bc90715b34b9f1000000000808401907fffffffffffffffffffffffffffffffffff3f68318436f8ea4cb460f000000000850102816135d6576135d6613c26565b05905060006ec097ce7bc90715b34b9f100000000082800205905081806ec097ce7bc90715b34b9f100000000081840205915060038205016ec097ce7bc90715b34b9f100000000082840205915060058205016ec097ce7bc90715b34b9f100000000082840205915060078205016ec097ce7bc90715b34b9f100000000082840205915060098205016ec097ce7bc90715b34b9f1000000000828402059150600b8205016ec097ce7bc90715b34b9f1000000000828402059150600d8205016ec097ce7bc90715b34b9f1000000000828402059150600f82050160020295945050505050565b6000670de0b6b3a76400008212156136fe576136f5826ec097ce7bc90715b34b9f1000000000816136ef576136ef613c26565b056136bc565b60000392915050565b60007e1600ef3172e58d2e933ec884fde10064c63b5372d805e203c0000000000000831261374f57770195e54c5dd42177f53a27172fa9ec630262827000000000830592506806f05b59d3b2000000015b73011798004d755d3c8bc8e03204cf44619e0000008312613787576b1425982cf597cd205cef7380830592506803782dace9d9000000015b606492830292026e01855144814a7ff805980ff008400083126137cf576e01855144814a7ff805980ff008400068056bc75e2d63100000840205925068ad78ebc5ac62000000015b6b02df0ab5a80a22c61ab5a700831261380a576b02df0ab5a80a22c61ab5a70068056bc75e2d6310000084020592506856bc75e2d631000000015b693f1fce3da636ea5cf850831261384157693f1fce3da636ea5cf85068056bc75e2d631000008402059250682b5e3af16b18800000015b690127fa27722cc06cc5e2831261387857690127fa27722cc06cc5e268056bc75e2d6310000084020592506815af1d78b58c400000015b68280e60114edb805d0383126138ad5768280e60114edb805d0368056bc75e2d631000008402059250680ad78ebc5ac6200000015b680ebc5fb4174612111083126138d857680ebc5fb4174612111068056bc75e2d631000009384020592015b6808f00f760a4b2db55d831261390d576808f00f760a4b2db55d68056bc75e2d6310000084020592506802b5e3af16b1880000015b6806f5f17757889379378312613942576806f5f177578893793768056bc75e2d63100000840205925068015af1d78b58c40000015b6806248f33704b2866038312613976576806248f33704b28660368056bc75e2d63100000840205925067ad78ebc5ac620000015b6805c548670b9510e7ac83126139aa576805c548670b9510e7ac68056bc75e2d6310000084020592506756bc75e2d6310000015b600068056bc75e2d63100000840168056bc75e2d6310000080860302816139d3576139d3613c26565b059050600068056bc75e2d63100000828002059050818068056bc75e2d63100000818402059150600382050168056bc75e2d63100000828402059150600582050168056bc75e2d63100000828402059150600782050168056bc75e2d63100000828402059150600982050168056bc75e2d63100000828402059150600b820501600202606485820105979650505050505050565b6001600160a01b038116811461222a57600080fd5b60008060008060808587031215613a9257600080fd5b8435613a9d81613a67565b9350602085013592506040850135613ab481613a67565b91506060850135613ac481613a67565b939692955090935050565b60008060008060808587031215613ae557600080fd5b8435613af081613a67565b93506020850135613b0081613a67565b9250604085013591506060850135613ac481613a67565b60008060408385031215613b2a57600080fd5b8235613b3581613a67565b946020939093013593505050565b600080600060608486031215613b5857600080fd5b8335613b6381613a67565b95602085013595506040909401359392505050565b600080600080600060a08688031215613b9057600080fd5b8535613b9b81613a67565b94506020860135613bab81613a67565b9350604086013592506060860135613bc281613a67565b949793965091946080013592915050565b634e487b7160e01b600052601160045260246000fd5b8181038181111561119d5761119d613bd3565b8082018082111561119d5761119d613bd3565b808202811582820484141761119d5761119d613bd3565b634e487b7160e01b600052601260045260246000fd5b600082613c4b57613c4b613c26565b500490565b600060208284031215613c6257600080fd5b8151801515811461131b57600080fd5b600060208284031215613c8457600080fd5b5051919050565b604051610120810167ffffffffffffffff81118282101715613cbd57634e487b7160e01b600052604160045260246000fd5b60405290565b8051612d2c81613a67565b60006101208284031215613ce157600080fd5b613ce9613c8b565b825181526020830151602082015260408301516040820152613d0d60608401613cc3565b60608201526080830151608082015260a083015160a082015260c083015160c082015260e083015160e08201526101008084015181830152508091505092915050565b80820260008212600160ff1b84141615613d6c57613d6c613bd3565b818105831482151761119d5761119d613bd3565b60006000198203613d9357613d93613bd3565b5060010190565b600080600060608486031215613daf57600080fd5b8351613dba81613a67565b6020850151909350613dcb81613a67565b6040850151909250613ddc81613a67565b809150509250925092565b8181036000831280158383131683831282161715613e0757613e07613bd3565b5092915050565b600082613e1d57613e1d613c26565b6000198314600160ff1b83141615613e3757613e37613bd3565b500590565b8082018281126000831280158216821582161715613e5c57613e5c613bd3565b505092915050565b6000600160ff1b8203613e7957613e79613bd3565b506000039056fea26469706673582212202838f30e1a8caadc05f01bfe2f88afe7ea266498b5939d714c23e1e0fdcc7a5564736f6c63430008110033",
  "linkReferences": {},
  "deployedLinkReferences": {}
}