{
  "_format": "hh-sol-artifact-1",
  "contractName": "EuphratesYieldTokenV3",
  "sourceName": "contracts/core/YieldContractsV3/EuphratesYieldTokenV3.sol",
  "abi": [
    {
      "inputs": [
        {
          "internalType": "address",
          "name": "_SY",
          "type": "address"
        },
        {
          "internalType": "address",
          "name": "_PT",
          "type": "address"
        },
        {
          "internalType": "address",
          "name": "_factory",
          "type": "address"
        },
        {
          "internalType": "string",
          "name": "_name",
          "type": "string"
        },
        {
          "internalType": "string",
          "name": "_symbol",
          "type": "string"
        },
        {
          "internalType": "uint8",
          "name": "__decimals",
          "type": "uint8"
        },
        {
          "internalType": "uint256",
          "name": "_expiry",
          "type": "uint256"
        },
        {
          "internalType": "uint256",
          "name": "_sAPR",
          "type": "uint256"
        },
        {
          "internalType": "bool",
          "name": "_doCacheIndexSameBlock",
          "type": "bool"
        }
      ],
      "stateMutability": "nonpayable",
      "type": "constructor"
    },
    {
      "inputs": [],
      "name": "ArrayEmpty",
      "type": "error"
    },
    {
      "inputs": [],
      "name": "ArrayLengthMismatch",
      "type": "error"
    },
    {
      "inputs": [],
      "name": "OnlyPT",
      "type": "error"
    },
    {
      "inputs": [],
      "name": "YCExpired",
      "type": "error"
    },
    {
      "inputs": [],
      "name": "YCNoFloatingSy",
      "type": "error"
    },
    {
      "inputs": [],
      "name": "YCNotExpired",
      "type": "error"
    },
    {
      "inputs": [],
      "name": "YCNothingToRedeem",
      "type": "error"
    },
    {
      "inputs": [],
      "name": "YCPostExpiryDataNotSet",
      "type": "error"
    },
    {
      "inputs": [
        {
          "internalType": "uint256",
          "name": "actualSy",
          "type": "uint256"
        },
        {
          "internalType": "uint256",
          "name": "requiredSy",
          "type": "uint256"
        }
      ],
      "name": "YieldContractInsufficientSy",
      "type": "error"
    },
    {
      "anonymous": false,
      "inputs": [
        {
          "indexed": true,
          "internalType": "address",
          "name": "owner",
          "type": "address"
        },
        {
          "indexed": true,
          "internalType": "address",
          "name": "spender",
          "type": "address"
        },
        {
          "indexed": false,
          "internalType": "uint256",
          "name": "value",
          "type": "uint256"
        }
      ],
      "name": "Approval",
      "type": "event"
    },
    {
      "anonymous": false,
      "inputs": [
        {
          "indexed": true,
          "internalType": "address",
          "name": "caller",
          "type": "address"
        },
        {
          "indexed": true,
          "internalType": "address",
          "name": "receiver",
          "type": "address"
        },
        {
          "indexed": false,
          "internalType": "uint256",
          "name": "amountPYToRedeem",
          "type": "uint256"
        },
        {
          "indexed": false,
          "internalType": "uint256",
          "name": "amountSyOut",
          "type": "uint256"
        }
      ],
      "name": "Burn",
      "type": "event"
    },
    {
      "anonymous": false,
      "inputs": [
        {
          "indexed": false,
          "internalType": "uint256",
          "name": "amountInterestFee",
          "type": "uint256"
        }
      ],
      "name": "CollectInterestFee",
      "type": "event"
    },
    {
      "anonymous": false,
      "inputs": [
        {
          "indexed": true,
          "internalType": "address",
          "name": "rewardToken",
          "type": "address"
        },
        {
          "indexed": false,
          "internalType": "uint256",
          "name": "amountRewardFee",
          "type": "uint256"
        }
      ],
      "name": "CollectRewardFee",
      "type": "event"
    },
    {
      "anonymous": false,
      "inputs": [
        {
          "indexed": true,
          "internalType": "address",
          "name": "caller",
          "type": "address"
        },
        {
          "indexed": true,
          "internalType": "address",
          "name": "receiverPT",
          "type": "address"
        },
        {
          "indexed": true,
          "internalType": "address",
          "name": "receiverYT",
          "type": "address"
        },
        {
          "indexed": false,
          "internalType": "uint256",
          "name": "amountSyToMint",
          "type": "uint256"
        },
        {
          "indexed": false,
          "internalType": "uint256",
          "name": "amountPYOut",
          "type": "uint256"
        }
      ],
      "name": "Mint",
      "type": "event"
    },
    {
      "anonymous": false,
      "inputs": [
        {
          "indexed": true,
          "internalType": "address",
          "name": "user",
          "type": "address"
        },
        {
          "indexed": false,
          "internalType": "uint256",
          "name": "interestOut",
          "type": "uint256"
        }
      ],
      "name": "RedeemInterest",
      "type": "event"
    },
    {
      "anonymous": false,
      "inputs": [
        {
          "indexed": true,
          "internalType": "address",
          "name": "user",
          "type": "address"
        },
        {
          "indexed": false,
          "internalType": "uint256[]",
          "name": "amountRewardsOut",
          "type": "uint256[]"
        }
      ],
      "name": "RedeemRewards",
      "type": "event"
    },
    {
      "anonymous": false,
      "inputs": [
        {
          "indexed": true,
          "internalType": "address",
          "name": "from",
          "type": "address"
        },
        {
          "indexed": true,
          "internalType": "address",
          "name": "to",
          "type": "address"
        },
        {
          "indexed": false,
          "internalType": "uint256",
          "name": "value",
          "type": "uint256"
        }
      ],
      "name": "Transfer",
      "type": "event"
    },
    {
      "anonymous": false,
      "inputs": [
        {
          "indexed": false,
          "internalType": "uint256[]",
          "name": "amountRewardsOut",
          "type": "uint256[]"
        },
        {
          "indexed": false,
          "internalType": "uint256",
          "name": "syOut",
          "type": "uint256"
        }
      ],
      "name": "WithdrawFeeToTreasury",
      "type": "event"
    },
    {
      "inputs": [],
      "name": "PT",
      "outputs": [
        {
          "internalType": "address",
          "name": "",
          "type": "address"
        }
      ],
      "stateMutability": "view",
      "type": "function"
    },
    {
      "inputs": [],
      "name": "SY",
      "outputs": [
        {
          "internalType": "address",
          "name": "",
          "type": "address"
        }
      ],
      "stateMutability": "view",
      "type": "function"
    },
    {
      "inputs": [
        {
          "internalType": "address",
          "name": "owner",
          "type": "address"
        },
        {
          "internalType": "address",
          "name": "spender",
          "type": "address"
        }
      ],
      "name": "allowance",
      "outputs": [
        {
          "internalType": "uint256",
          "name": "",
          "type": "uint256"
        }
      ],
      "stateMutability": "view",
      "type": "function"
    },
    {
      "inputs": [
        {
          "internalType": "address",
          "name": "spender",
          "type": "address"
        },
        {
          "internalType": "uint256",
          "name": "amount",
          "type": "uint256"
        }
      ],
      "name": "approve",
      "outputs": [
        {
          "internalType": "bool",
          "name": "",
          "type": "bool"
        }
      ],
      "stateMutability": "nonpayable",
      "type": "function"
    },
    {
      "inputs": [
        {
          "internalType": "address",
          "name": "account",
          "type": "address"
        }
      ],
      "name": "balanceOf",
      "outputs": [
        {
          "internalType": "uint256",
          "name": "",
          "type": "uint256"
        }
      ],
      "stateMutability": "view",
      "type": "function"
    },
    {
      "inputs": [],
      "name": "decimals",
      "outputs": [
        {
          "internalType": "uint8",
          "name": "",
          "type": "uint8"
        }
      ],
      "stateMutability": "view",
      "type": "function"
    },
    {
      "inputs": [],
      "name": "doCacheIndexSameBlock",
      "outputs": [
        {
          "internalType": "bool",
          "name": "",
          "type": "bool"
        }
      ],
      "stateMutability": "view",
      "type": "function"
    },
    {
      "inputs": [
        {
          "internalType": "address",
          "name": "user",
          "type": "address"
        },
        {
          "internalType": "address",
          "name": "SY",
          "type": "address"
        }
      ],
      "name": "doTransferOutInterestFPT",
      "outputs": [
        {
          "internalType": "uint256",
          "name": "interestAmount",
          "type": "uint256"
        }
      ],
      "stateMutability": "nonpayable",
      "type": "function"
    },
    {
      "inputs": [],
      "name": "expiry",
      "outputs": [
        {
          "internalType": "uint256",
          "name": "",
          "type": "uint256"
        }
      ],
      "stateMutability": "view",
      "type": "function"
    },
    {
      "inputs": [],
      "name": "factory",
      "outputs": [
        {
          "internalType": "address",
          "name": "",
          "type": "address"
        }
      ],
      "stateMutability": "view",
      "type": "function"
    },
    {
      "inputs": [],
      "name": "getPostExpiryData",
      "outputs": [
        {
          "internalType": "uint256",
          "name": "firstPYIndex",
          "type": "uint256"
        }
      ],
      "stateMutability": "view",
      "type": "function"
    },
    {
      "inputs": [],
      "name": "getRewardTokens",
      "outputs": [
        {
          "internalType": "address[]",
          "name": "",
          "type": "address[]"
        }
      ],
      "stateMutability": "view",
      "type": "function"
    },
    {
      "inputs": [],
      "name": "globalInterestIndex",
      "outputs": [
        {
          "internalType": "uint256",
          "name": "",
          "type": "uint256"
        }
      ],
      "stateMutability": "view",
      "type": "function"
    },
    {
      "inputs": [],
      "name": "globalInterestIndexFPT",
      "outputs": [
        {
          "internalType": "uint256",
          "name": "",
          "type": "uint256"
        }
      ],
      "stateMutability": "view",
      "type": "function"
    },
    {
      "inputs": [],
      "name": "isDistributingInterestAndRewards",
      "outputs": [
        {
          "internalType": "bool",
          "name": "",
          "type": "bool"
        }
      ],
      "stateMutability": "view",
      "type": "function"
    },
    {
      "inputs": [],
      "name": "isExpired",
      "outputs": [
        {
          "internalType": "bool",
          "name": "",
          "type": "bool"
        }
      ],
      "stateMutability": "view",
      "type": "function"
    },
    {
      "inputs": [],
      "name": "lastInterestBlock",
      "outputs": [
        {
          "internalType": "uint256",
          "name": "",
          "type": "uint256"
        }
      ],
      "stateMutability": "view",
      "type": "function"
    },
    {
      "inputs": [],
      "name": "lastInterestDayIndex",
      "outputs": [
        {
          "internalType": "uint256",
          "name": "",
          "type": "uint256"
        }
      ],
      "stateMutability": "view",
      "type": "function"
    },
    {
      "inputs": [],
      "name": "lastInterestUpdatedDayIndexByOracle",
      "outputs": [
        {
          "internalType": "uint256",
          "name": "",
          "type": "uint256"
        }
      ],
      "stateMutability": "view",
      "type": "function"
    },
    {
      "inputs": [],
      "name": "lastRewardBlock",
      "outputs": [
        {
          "internalType": "uint256",
          "name": "",
          "type": "uint256"
        }
      ],
      "stateMutability": "view",
      "type": "function"
    },
    {
      "inputs": [
        {
          "internalType": "address",
          "name": "receiverPT",
          "type": "address"
        },
        {
          "internalType": "address",
          "name": "receiverYT",
          "type": "address"
        }
      ],
      "name": "mintPY",
      "outputs": [
        {
          "internalType": "uint256",
          "name": "amountPYOut",
          "type": "uint256"
        }
      ],
      "stateMutability": "nonpayable",
      "type": "function"
    },
    {
      "inputs": [
        {
          "internalType": "address[]",
          "name": "receiverPTs",
          "type": "address[]"
        },
        {
          "internalType": "address[]",
          "name": "receiverYTs",
          "type": "address[]"
        },
        {
          "internalType": "uint256[]",
          "name": "amountSyToMints",
          "type": "uint256[]"
        }
      ],
      "name": "mintPYMulti",
      "outputs": [
        {
          "internalType": "uint256[]",
          "name": "amountPYOuts",
          "type": "uint256[]"
        }
      ],
      "stateMutability": "nonpayable",
      "type": "function"
    },
    {
      "inputs": [],
      "name": "name",
      "outputs": [
        {
          "internalType": "string",
          "name": "",
          "type": "string"
        }
      ],
      "stateMutability": "view",
      "type": "function"
    },
    {
      "inputs": [],
      "name": "postExpiry",
      "outputs": [
        {
          "internalType": "uint256",
          "name": "firstPYIndex",
          "type": "uint256"
        }
      ],
      "stateMutability": "view",
      "type": "function"
    },
    {
      "inputs": [],
      "name": "pyIndexCurrent",
      "outputs": [
        {
          "internalType": "uint256",
          "name": "currentIndex",
          "type": "uint256"
        }
      ],
      "stateMutability": "nonpayable",
      "type": "function"
    },
    {
      "inputs": [],
      "name": "pyIndexLastUpdatedBlock",
      "outputs": [
        {
          "internalType": "uint128",
          "name": "",
          "type": "uint128"
        }
      ],
      "stateMutability": "view",
      "type": "function"
    },
    {
      "inputs": [],
      "name": "pyIndexStored",
      "outputs": [
        {
          "internalType": "uint256",
          "name": "",
          "type": "uint256"
        }
      ],
      "stateMutability": "view",
      "type": "function"
    },
    {
      "inputs": [
        {
          "internalType": "address",
          "name": "user",
          "type": "address"
        },
        {
          "internalType": "bool",
          "name": "redeemInterest",
          "type": "bool"
        },
        {
          "internalType": "bool",
          "name": "redeemRewards",
          "type": "bool"
        }
      ],
      "name": "redeemDueInterestAndRewards",
      "outputs": [
        {
          "internalType": "uint256",
          "name": "interestOut",
          "type": "uint256"
        },
        {
          "internalType": "uint256[]",
          "name": "rewardsOut",
          "type": "uint256[]"
        }
      ],
      "stateMutability": "nonpayable",
      "type": "function"
    },
    {
      "inputs": [],
      "name": "redeemInterestAndRewardsPostExpiryForTreasury",
      "outputs": [],
      "stateMutability": "nonpayable",
      "type": "function"
    },
    {
      "inputs": [
        {
          "internalType": "address",
          "name": "receiver",
          "type": "address"
        }
      ],
      "name": "redeemPY",
      "outputs": [
        {
          "internalType": "uint256",
          "name": "amountSyOut",
          "type": "uint256"
        }
      ],
      "stateMutability": "nonpayable",
      "type": "function"
    },
    {
      "inputs": [
        {
          "internalType": "address[]",
          "name": "receivers",
          "type": "address[]"
        },
        {
          "internalType": "uint256[]",
          "name": "amountPYToRedeems",
          "type": "uint256[]"
        }
      ],
      "name": "redeemPYMulti",
      "outputs": [
        {
          "internalType": "uint256[]",
          "name": "amountSyOuts",
          "type": "uint256[]"
        }
      ],
      "stateMutability": "nonpayable",
      "type": "function"
    },
    {
      "inputs": [],
      "name": "rewardIndexesCurrent",
      "outputs": [
        {
          "internalType": "uint256[]",
          "name": "",
          "type": "uint256[]"
        }
      ],
      "stateMutability": "nonpayable",
      "type": "function"
    },
    {
      "inputs": [
        {
          "internalType": "address",
          "name": "",
          "type": "address"
        }
      ],
      "name": "rewardState",
      "outputs": [
        {
          "internalType": "uint128",
          "name": "index",
          "type": "uint128"
        },
        {
          "internalType": "uint128",
          "name": "lastBalance",
          "type": "uint128"
        }
      ],
      "stateMutability": "view",
      "type": "function"
    },
    {
      "inputs": [],
      "name": "sAPR",
      "outputs": [
        {
          "internalType": "uint256",
          "name": "",
          "type": "uint256"
        }
      ],
      "stateMutability": "view",
      "type": "function"
    },
    {
      "inputs": [],
      "name": "setPostExpiryData",
      "outputs": [],
      "stateMutability": "nonpayable",
      "type": "function"
    },
    {
      "inputs": [],
      "name": "syReserve",
      "outputs": [
        {
          "internalType": "uint256",
          "name": "",
          "type": "uint256"
        }
      ],
      "stateMutability": "view",
      "type": "function"
    },
    {
      "inputs": [],
      "name": "symbol",
      "outputs": [
        {
          "internalType": "string",
          "name": "",
          "type": "string"
        }
      ],
      "stateMutability": "view",
      "type": "function"
    },
    {
      "inputs": [],
      "name": "totalSupply",
      "outputs": [
        {
          "internalType": "uint256",
          "name": "",
          "type": "uint256"
        }
      ],
      "stateMutability": "view",
      "type": "function"
    },
    {
      "inputs": [
        {
          "internalType": "address",
          "name": "to",
          "type": "address"
        },
        {
          "internalType": "uint256",
          "name": "amount",
          "type": "uint256"
        }
      ],
      "name": "transfer",
      "outputs": [
        {
          "internalType": "bool",
          "name": "",
          "type": "bool"
        }
      ],
      "stateMutability": "nonpayable",
      "type": "function"
    },
    {
      "inputs": [
        {
          "internalType": "address",
          "name": "from",
          "type": "address"
        },
        {
          "internalType": "address",
          "name": "to",
          "type": "address"
        },
        {
          "internalType": "uint256",
          "name": "amount",
          "type": "uint256"
        }
      ],
      "name": "transferFrom",
      "outputs": [
        {
          "internalType": "bool",
          "name": "",
          "type": "bool"
        }
      ],
      "stateMutability": "nonpayable",
      "type": "function"
    },
    {
      "inputs": [
        {
          "internalType": "address",
          "name": "user",
          "type": "address"
        }
      ],
      "name": "updateAndDistributeInterestFPT",
      "outputs": [],
      "stateMutability": "nonpayable",
      "type": "function"
    },
    {
      "inputs": [
        {
          "internalType": "address",
          "name": "user1",
          "type": "address"
        },
        {
          "internalType": "address",
          "name": "user2",
          "type": "address"
        }
      ],
      "name": "updateAndDistributeInterestForTwoFPT",
      "outputs": [],
      "stateMutability": "nonpayable",
      "type": "function"
    },
    {
      "inputs": [],
      "name": "updateSyReserve",
      "outputs": [],
      "stateMutability": "nonpayable",
      "type": "function"
    },
    {
      "inputs": [
        {
          "internalType": "address",
          "name": "",
          "type": "address"
        }
      ],
      "name": "userInterest",
      "outputs": [
        {
          "internalType": "uint128",
          "name": "index",
          "type": "uint128"
        },
        {
          "internalType": "uint128",
          "name": "accrued",
          "type": "uint128"
        },
        {
          "internalType": "uint256",
          "name": "pyIndex",
          "type": "uint256"
        }
      ],
      "stateMutability": "view",
      "type": "function"
    },
    {
      "inputs": [
        {
          "internalType": "address",
          "name": "",
          "type": "address"
        }
      ],
      "name": "userInterestFPT",
      "outputs": [
        {
          "internalType": "uint128",
          "name": "index",
          "type": "uint128"
        },
        {
          "internalType": "uint128",
          "name": "accrued",
          "type": "uint128"
        },
        {
          "internalType": "uint256",
          "name": "pyIndex",
          "type": "uint256"
        }
      ],
      "stateMutability": "view",
      "type": "function"
    },
    {
      "inputs": [
        {
          "internalType": "address",
          "name": "",
          "type": "address"
        },
        {
          "internalType": "address",
          "name": "",
          "type": "address"
        }
      ],
      "name": "userReward",
      "outputs": [
        {
          "internalType": "uint128",
          "name": "index",
          "type": "uint128"
        },
        {
          "internalType": "uint128",
          "name": "accrued",
          "type": "uint128"
        }
      ],
      "stateMutability": "view",
      "type": "function"
    }
  ],
  "bytecode": "0x6101406040523480156200001257600080fd5b5060405162004fef38038062004fef83398101604081905262000035916200019a565b85858560036200004684826200030d565b5060046200005583826200030d565b5060ff166080525050600280546001600160f81b0316600160f81b1790556001600160a01b0398891660a05296881660c052610100919091529390951660e0525050600d5515156101205250620003d9565b80516001600160a01b0381168114620000bf57600080fd5b919050565b634e487b7160e01b600052604160045260246000fd5b600082601f830112620000ec57600080fd5b81516001600160401b0380821115620001095762000109620000c4565b604051601f8301601f19908116603f01168101908282118183101715620001345762000134620000c4565b816040528381526020925086838588010111156200015157600080fd5b600091505b8382101562000175578582018301518183018401529082019062000156565b600093810190920192909252949350505050565b80518015158114620000bf57600080fd5b60008060008060008060008060006101208a8c031215620001ba57600080fd5b620001c58a620000a7565b9850620001d560208b01620000a7565b9750620001e560408b01620000a7565b60608b01519097506001600160401b03808211156200020357600080fd5b620002118d838e01620000da565b975060808c01519150808211156200022857600080fd5b50620002378c828d01620000da565b95505060a08a015160ff811681146200024f57600080fd5b60c08b015160e08c0151919550935091506200026f6101008b0162000189565b90509295985092959850929598565b600181811c908216806200029357607f821691505b602082108103620002b457634e487b7160e01b600052602260045260246000fd5b50919050565b601f8211156200030857600081815260208120601f850160051c81016020861015620002e35750805b601f850160051c820191505b818110156200030457828155600101620002ef565b5050505b505050565b81516001600160401b03811115620003295762000329620000c4565b62000341816200033a84546200027e565b84620002ba565b602080601f831160018114620003795760008415620003605750858301515b600019600386901b1c1916600185901b17855562000304565b600085815260208120601f198616915b82811015620003aa5788860151825594840194600190910190840162000389565b5085821015620003c95787850151600019600388901b60f8161c191681555b5050505050600190811b01905550565b60805160a05160c05160e0516101005161012051614aae62000541600039600081816104280152611bbc0152600081816103b10152818161076f01528181610b1401528181610b7201528181610dfb015281816110fe0152818161113201528181611236015281816113eb015281816115f1015281816116f50152818161175301528181612c1601528181612ec00152818161303b01526139ec015260008181610648015281816126c90152818161276b01528181612951015281816129f30152612e050152600081816106f301528181610a4c0152818161162e0152818161189c015281816118f30152818161220201528181612bad01528181612eee01528181612f2c015261403c0152600081816105da01528181610f3a015281816114f5015281816119e301528181611c1701528181612006015281816120b601528181612836015281816128d301528181612cf50152612e8c015260006103dd0152614aae6000f3fe608060405234801561001057600080fd5b506004361061030a5760003560e01c8063a9f8d1811161019c578063d68076c3116100ee578063e433359311610097578063ea64a82011610071578063ea64a820146107b6578063f8567b3d146107ea578063f8b2f991146107fd57600080fd5b8063e433359314610791578063e5e9079d146107a4578063e767b9e5146107ad57600080fd5b8063dd62ed3e116100c8578063dd62ed3e14610728578063df58e99414610761578063e184c9be1461076a57600080fd5b8063d68076c3146106b2578063d94073d4146106ee578063db74aa151461071557600080fd5b8063bde7f6cd11610150578063cdbb03611161012a578063cdbb03611461067f578063d2a3584e14610687578063d2ccc1cd1461069f57600080fd5b8063bde7f6cd1461063a578063c45a015514610643578063c4f59f9b1461066a57600080fd5b8063afd27bf511610181578063afd27bf5146105d5578063b0d8898114610614578063bcb7ea5d1461062757600080fd5b8063a9f8d181146105c4578063acc5da4c146105cd57600080fd5b80633d8df4921161026057806368bc9e6a116102095780637d24da4d116101e35780637d24da4d1461058857806395d89b41146105a9578063a9059cbb146105b157600080fd5b806368bc9e6a146104f45780636d2eab1e146104fd57806370a082311461055f57600080fd5b8063533358191161023a578063533358191461044a5780635cbadbe41461046a57806360e0a9e1146104c957600080fd5b80633d8df492146104115780634ba6dcd71461041a578063516399df1461042357600080fd5b80631d52edc4116102c25780632eb1a18c1161029c5780632eb1a18c146103a55780632f13b60c146103af578063313ce567146103d857600080fd5b80631d52edc4146103815780631d6e45a11461038957806323b872dd1461039257600080fd5b80630a2b83a7116102f35780630a2b83a7146103505780630b49fcef1461036857806318160ddd1461037057600080fd5b806306fdde031461030f578063095ea7b31461032d575b600080fd5b610317610805565b604051610324919061436d565b60405180910390f35b61034061033b3660046143b5565b610897565b6040519015158152602001610324565b60125461035a9081565b604051908152602001610324565b61035a6108b1565b6002546001600160f81b031661035a565b61035a6108f6565b60125415610340565b6103406103a03660046143e1565b610993565b6103ad610a41565b005b7f0000000000000000000000000000000000000000000000000000000000000000421015610340565b6103ff7f000000000000000000000000000000000000000000000000000000000000000081565b60405160ff9091168152602001610324565b61035a60095481565b61035a60105481565b6103407f000000000000000000000000000000000000000000000000000000000000000081565b61045d610458366004614467565b610a99565b604051610324919061453c565b6104a961047836600461454f565b60056020908152600092835260408084209091529082529020546001600160801b0380821691600160801b90041682565b604080516001600160801b03938416815292909116602083015201610324565b6011546104dc906001600160801b031681565b6040516001600160801b039091168152602001610324565b61035a600d5481565b61053961050b366004614588565b600f60205260009081526040902080546001909101546001600160801b0380831692600160801b9004169083565b604080516001600160801b03948516815293909216602084015290820152606001610324565b61035a61056d366004614588565b6001600160a01b031660009081526020819052604090205490565b61059b6105963660046145b3565b610d7d565b6040516103249291906145fe565b610317610fd4565b6103406105bf3660046143b5565b610fe3565b61035a60065481565b6103ad611086565b6105fc7f000000000000000000000000000000000000000000000000000000000000000081565b6040516001600160a01b039091168152602001610324565b61045d610622366004614617565b6111bb565b61035a610635366004614588565b611370565b61035a600a5481565b6105fc7f000000000000000000000000000000000000000000000000000000000000000081565b6106726114f1565b6040516103249190614683565b6103ad611579565b601154600160801b90046001600160801b031661035a565b6103ad6106ad36600461454f565b611623565b6105396106c0366004614588565b600e60205260009081526040902080546001909101546001600160801b0380831692600160801b9004169083565b6105fc7f000000000000000000000000000000000000000000000000000000000000000081565b61035a61072336600461454f565b61167a565b61035a61073636600461454f565b6001600160a01b03918216600090815260016020908152604080832093909416825291909152205490565b61035a600b5481565b61035a7f000000000000000000000000000000000000000000000000000000000000000081565b6103ad61079f366004614588565b611891565b61035a600c5481565b61035a60085481565b6104a96107c4366004614588565b6007602052600090815260409020546001600160801b0380821691600160801b90041682565b61035a6107f836600461454f565b6118e6565b61045d611942565b606060038054610814906146d0565b80601f0160208091040260200160405190810160405280929190818152602001828054610840906146d0565b801561088d5780601f106108625761010080835404028352916020019161088d565b820191906000526020600020905b81548152906001019060200180831161087057829003601f168201915b5050505050905090565b6000336108a5818585611a5f565b60019150505b92915050565b60125460009081036108ef576040517fd250963300000000000000000000000000000000000000000000000000000000815260040160405180910390fd5b5060125490565b600254600090600119600160f81b90910460ff160161095c5760405162461bcd60e51b815260206004820152601f60248201527f5265656e7472616e637947756172643a207265656e7472616e742063616c6c0060448201526064015b60405180910390fd5b600280546001600160f81b0316600160f91b179055610979611bb8565b600280546001600160f81b0316600160f81b179055919050565b600254600090600119600160f81b90910460ff16016109f45760405162461bcd60e51b815260206004820152601f60248201527f5265656e7472616e637947756172643a207265656e7472616e742063616c6c006044820152606401610953565b600280546001600160f81b0316600160f91b17905533610a15858285611cec565b610a20858585611d7e565b6001915050600280546001600160f81b0316600160f81b1790559392505050565b336001600160a01b037f00000000000000000000000000000000000000000000000000000000000000001614610a8a5760405163223723a360e11b815260040160405180910390fd5b610a92612001565b565b905090565b600254606090600119600160f81b90910460ff1601610afa5760405162461bcd60e51b815260206004820152601f60248201527f5265656e7472616e637947756172643a207265656e7472616e742063616c6c006044820152606401610953565b600280546001600160f81b0316600160f91b179055610b397f000000000000000000000000000000000000000000000000000000000000000042101590565b15610b70576040517f5b15a6da00000000000000000000000000000000000000000000000000000000815260040160405180910390fd5b7f00000000000000000000000000000000000000000000000000000000000000004210610b9f57610b9f61202f565b856000819003610bdb576040517ff1364a7400000000000000000000000000000000000000000000000000000000815260040160405180910390fd5b8481141580610bea5750828114155b15610c21576040517fa24a13a600000000000000000000000000000000000000000000000000000000815260040160405180910390fd5b6000610c5f85858080602002602001604051908101604052809392919081815260200183836020028082843760009201919091525061206892505050565b9050610c696120ac565b811115610cb45780610c796120ac565b6040517fa2cb081900000000000000000000000000000000000000000000000000000000815260048101929092526024820152604401610953565b610d5289898080602002602001604051908101604052809392919081815260200183836020028082843760009201919091525050604080516020808d0282810182019093528c82529093508c92508b91829185019084908082843760009201919091525050604080516020808c0282810182019093528b82529093508b92508a91829185019084908082843760009201919091525061212392505050565b92505050610d5e612001565b600280546001600160f81b0316600160f81b1790559695505050505050565b600254600090606090600119600160f81b90910460ff1601610de15760405162461bcd60e51b815260206004820152601f60248201527f5265656e7472616e637947756172643a207265656e7472616e742063616c6c006044820152606401610953565b600280546001600160f81b0316600160f91b179055610e207f000000000000000000000000000000000000000000000000000000000000000042101590565b15610e2d57610e2d61202f565b83158015610e39575082155b15610e70576040517f68146f1d00000000000000000000000000000000000000000000000000000000815260040160405180910390fd5b610e79856123a5565b8215610ed157610e8985866123b0565b9050846001600160a01b03167f78d61a0c27b13f43911095f9f356f14daa3cd8b125eea1aa22421245e90e813d82604051610ec4919061453c565b60405180910390a2610f25565b6000610edb6114f1565b9050805167ffffffffffffffff811115610ef757610ef761470a565b604051908082528060200260200182016040528015610f20578160200160208202803683370190505b509150505b8315610fa857610f3485612659565b610f5e857f0000000000000000000000000000000000000000000000000000000000000000612664565b9150846001600160a01b03167f83a945bd12c713615b59a6e48a3467c05d1a7442350600d6f7fce6af9f7190e983604051610f9b91815260200190565b60405180910390a2610fad565b600091505b610fb5612001565b600280546001600160f81b0316600160f81b1790559094909350915050565b606060048054610814906146d0565b600254600090600119600160f81b90910460ff16016110445760405162461bcd60e51b815260206004820152601f60248201527f5265656e7472616e637947756172643a207265656e7472616e742063616c6c006044820152606401610953565b600280546001600160f81b0316600160f91b17905533611065818585611d7e565b60019150505b600280546001600160f81b0316600160f81b17905592915050565b600254600119600160f81b90910460ff16016110e45760405162461bcd60e51b815260206004820152601f60248201527f5265656e7472616e637947756172643a207265656e7472616e742063616c6c006044820152606401610953565b600280546001600160f81b0316600160f91b1790556111237f000000000000000000000000000000000000000000000000000000000000000042101590565b156111305761113061202f565b7f000000000000000000000000000000000000000000000000000000000000000042101561118a576040517fcd81a63600000000000000000000000000000000000000000000000000000000815260040160405180910390fd5b61119261269f565b505061119c6128a5565b6111a4612001565b600280546001600160f81b0316600160f81b179055565b600254606090600119600160f81b90910460ff160161121c5760405162461bcd60e51b815260206004820152601f60248201527f5265656e7472616e637947756172643a207265656e7472616e742063616c6c006044820152606401610953565b600280546001600160f81b0316600160f91b17905561125b7f000000000000000000000000000000000000000000000000000000000000000042101590565b156112685761126861202f565b8382146112a1576040517fa24a13a600000000000000000000000000000000000000000000000000000000815260040160405180910390fd5b60008490036112dc576040517ff1364a7400000000000000000000000000000000000000000000000000000000815260040160405180910390fd5b61134985858080602002602001604051908101604052809392919081815260200183836020028082843760009201919091525050604080516020808902828101820190935288825290935088925087918291850190849080828437600092019190915250612b6892505050565b9050611353612001565b600280546001600160f81b0316600160f81b179055949350505050565b600254600090600119600160f81b90910460ff16016113d15760405162461bcd60e51b815260206004820152601f60248201527f5265656e7472616e637947756172643a207265656e7472616e742063616c6c006044820152606401610953565b600280546001600160f81b0316600160f91b1790556114107f000000000000000000000000000000000000000000000000000000000000000042101590565b1561141d5761141d61202f565b6040805160018082528183019092526000916020808301908036833750506040805160018082528183019092529293506000929150602080830190803683370190505090508361146b612ebc565b8360008151811061147e5761147e614720565b602002602001018360008151811061149857611498614720565b6020026020010182815250826001600160a01b03166001600160a01b0316815250505060606114c78383612b68565b9050806000815181106114dc576114dc614720565b60200260200101519350505050610979612001565b60607f00000000000000000000000000000000000000000000000000000000000000006001600160a01b031663c4f59f9b6040518163ffffffff1660e01b8152600401600060405180830381865afa158015611551573d6000803e3d6000fd5b505050506040513d6000823e601f3d908101601f19168201604052610a94919081019061478b565b600254600119600160f81b90910460ff16016115d75760405162461bcd60e51b815260206004820152601f60248201527f5265656e7472616e637947756172643a207265656e7472616e742063616c6c006044820152606401610953565b600280546001600160f81b0316600160f91b1790556116167f000000000000000000000000000000000000000000000000000000000000000042101590565b156111a4576111a461202f565b336001600160a01b037f0000000000000000000000000000000000000000000000000000000000000000161461166c5760405163223723a360e11b815260040160405180910390fd5b6116768282612f50565b5050565b600254600090600119600160f81b90910460ff16016116db5760405162461bcd60e51b815260206004820152601f60248201527f5265656e7472616e637947756172643a207265656e7472616e742063616c6c006044820152606401610953565b600280546001600160f81b0316600160f91b17905561171a7f000000000000000000000000000000000000000000000000000000000000000042101590565b15611751576040517f5b15a6da00000000000000000000000000000000000000000000000000000000815260040160405180910390fd5b7f000000000000000000000000000000000000000000000000000000000000000042106117805761178061202f565b604080516001808252818301909252600091602080830190803683375050604080516001808252818301909252929350600092915060208083019080368337505060408051600180825281830190925292935060009291506020808301908036833701905050905085856117f26120ac565b8560008151811061180557611805614720565b602002602001018560008151811061181f5761181f614720565b602002602001018560008151811061183957611839614720565b60209081029190910101929092526001600160a01b03928316909152911690526000611866848484612123565b90508060008151811061187b5761187b614720565b602002602001015194505050505061106b612001565b336001600160a01b037f000000000000000000000000000000000000000000000000000000000000000016146118da5760405163223723a360e11b815260040160405180910390fd5b6118e381612fc3565b50565b6000336001600160a01b037f000000000000000000000000000000000000000000000000000000000000000016146119315760405163223723a360e11b815260040160405180910390fd5b61193b8383612fce565b9392505050565b600254606090600119600160f81b90910460ff16016119a35760405162461bcd60e51b815260206004820152601f60248201527f5265656e7472616e637947756172643a207265656e7472616e742063616c6c006044820152606401610953565b600280546001600160f81b0316600160f91b179055604080517ff8b2f99100000000000000000000000000000000000000000000000000000000815290517f00000000000000000000000000000000000000000000000000000000000000006001600160a01b03169163f8b2f991916004808301926000929190829003018183875af1158015611a37573d6000803e3d6000fd5b505050506040513d6000823e601f3d908101601f19168201604052610979919081019061481f565b6001600160a01b038316611ada5760405162461bcd60e51b8152602060048201526024808201527f45524332303a20617070726f76652066726f6d20746865207a65726f2061646460448201527f72657373000000000000000000000000000000000000000000000000000000006064820152608401610953565b6001600160a01b038216611b565760405162461bcd60e51b815260206004820152602260248201527f45524332303a20617070726f766520746f20746865207a65726f20616464726560448201527f73730000000000000000000000000000000000000000000000000000000000006064820152608401610953565b6001600160a01b0383811660008181526001602090815260408083209487168084529482529182902085905590518481527f8c5be1e5ebec7d5bd14f71427d1e84f3dd0314c0f7b2291e5b200ac8c7c3b92591015b60405180910390a3505050565b60007f00000000000000000000000000000000000000000000000000000000000000008015611bf157506011546001600160801b031643145b15611c0d5750601154600160801b90046001600160801b031690565b6000611cb4611caf7f00000000000000000000000000000000000000000000000000000000000000006001600160a01b0316633ba0b9a96040518163ffffffff1660e01b8152600401602060405180830381865afa158015611c73573d6000803e3d6000fd5b505050506040513d601f19601f82011682018060405250810190611c9791906148a5565b601154600160801b90046001600160801b0316613009565b61301f565b436001600160801b03908116600160801b919092169081026fffffffffffffffffffffffffffffffff19169190911760115592915050565b6001600160a01b038381166000908152600160209081526040808320938616835292905220546000198114611d785781811015611d6b5760405162461bcd60e51b815260206004820152601d60248201527f45524332303a20696e73756666696369656e7420616c6c6f77616e63650000006044820152606401610953565b611d788484848403611a5f565b50505050565b6001600160a01b038316611dfa5760405162461bcd60e51b815260206004820152602560248201527f45524332303a207472616e736665722066726f6d20746865207a65726f20616460448201527f64726573730000000000000000000000000000000000000000000000000000006064820152608401610953565b6001600160a01b038216611e765760405162461bcd60e51b815260206004820152602360248201527f45524332303a207472616e7366657220746f20746865207a65726f206164647260448201527f65737300000000000000000000000000000000000000000000000000000000006064820152608401610953565b816001600160a01b0316836001600160a01b031603611ed75760405162461bcd60e51b815260206004820152601760248201527f45524332303a207472616e7366657220746f2073656c660000000000000000006044820152606401610953565b611ee2838383613039565b6001600160a01b03831660009081526020819052604090205481811015611f715760405162461bcd60e51b815260206004820152602660248201527f45524332303a207472616e7366657220616d6f756e742065786365656473206260448201527f616c616e636500000000000000000000000000000000000000000000000000006064820152608401610953565b6001600160a01b03808516600090815260208190526040808220858503905591851681529081208054849290611fa89084906148d4565b92505081905550826001600160a01b0316846001600160a01b03167fddf252ad1be2c89b69c2b068fc378daa952ba7f163c4a11628f55a4df523b3ef84604051611ff491815260200190565b60405180910390a3611d78565b61202a7f0000000000000000000000000000000000000000000000000000000000000000613081565b601055565b601280541561203b5750565b61204361311f565b50505061204e613225565b505061205b611caf611bb8565b6001600160801b03169055565b600080805b83518110156120a55783818151811061208857612088614720565b60200260200101518261209b91906148d4565b915060010161206d565b5092915050565b60006010546120da7f0000000000000000000000000000000000000000000000000000000000000000613081565b6120e491906148e7565b905080600003612120576040517f2282661900000000000000000000000000000000000000000000000000000000815260040160405180910390fd5b90565b6060815167ffffffffffffffff81111561213f5761213f61470a565b604051908082528060200260200182016040528015612168578160200160208202803683370190505b5090506000612175611bb8565b905060005b835181101561239c576121a684828151811061219857612198614720565b6020026020010151836134cb565b8382815181106121b8576121b8614720565b6020026020010181815250506122008582815181106121d9576121d9614720565b60200260200101518483815181106121f3576121f3614720565b60200260200101516134d7565b7f00000000000000000000000000000000000000000000000000000000000000006001600160a01b03166312a31dcc87838151811061224157612241614720565b602002602001015185848151811061225b5761225b614720565b60200260200101516040518363ffffffff1660e01b81526004016122949291906001600160a01b03929092168252602082015260400190565b600060405180830381600087803b1580156122ae57600080fd5b505af11580156122c2573d6000803e3d6000fd5b505050508481815181106122d8576122d8614720565b60200260200101516001600160a01b03168682815181106122fb576122fb614720565b60200260200101516001600160a01b0316336001600160a01b03167fc0025304673122449dd60b9b0093874b0e2fd6fe57af1c7c2fbfee0ccf5ead5887858151811061234957612349614720565b602002602001015187868151811061236357612363614720565b6020026020010151604051612382929190918252602082015260400190565b60405180910390a480612394816148fa565b91505061217a565b50509392505050565b6118e38160006135ff565b606060006123bc6114f1565b9050805167ffffffffffffffff8111156123d8576123d861470a565b604051908082528060200260200182016040528015612401578160200160208202803683370190505b50915060005b8151811015612651576005600083838151811061242657612426614720565b60200260200101516001600160a01b03166001600160a01b031681526020019081526020016000206000866001600160a01b03166001600160a01b0316815260200190815260200160002060000160109054906101000a90046001600160801b03166001600160801b03168382815181106124a3576124a3614720565b6020026020010181815250508281815181106124c1576124c1614720565b602002602001015160001461263f576000600560008484815181106124e8576124e8614720565b60200260200101516001600160a01b03166001600160a01b031681526020019081526020016000206000876001600160a01b03166001600160a01b0316815260200190815260200160002060000160106101000a8154816001600160801b0302191690836001600160801b0316021790555061257c83828151811061256f5761256f614720565b602002602001015161301f565b6007600084848151811061259257612592614720565b60200260200101516001600160a01b03166001600160a01b0316815260200190815260200160002060000160108282829054906101000a90046001600160801b03166125de9190614914565b92506101000a8154816001600160801b0302191690836001600160801b0316021790555061263f82828151811061261757612617614720565b60200260200101518585848151811061263257612632614720565b602002602001015161367f565b80612649816148fa565b915050612407565b505092915050565b6118e3816000613751565b6001600160a01b0382166000908152600e6020526040902080546001600160801b03808216909255600160801b9004166108ab82848361367f565b60135460009081906126af611bb8565b915080158015906126c05750818114155b1561289b5760007f00000000000000000000000000000000000000000000000000000000000000006001600160a01b03166361d027b36040518163ffffffff1660e01b8152600401602060405180830381865afa158015612725573d6000803e3d6000fd5b505050506040513d601f19601f820116820180604052508101906127499190614934565b905060006127576012541590565b61276957670de0b6b3a76400006127f5565b7f00000000000000000000000000000000000000000000000000000000000000006001600160a01b031663dd86fea16040518163ffffffff1660e01b8152600401602060405180830381865afa1580156127c7573d6000803e3d6000fd5b505050506040513d601f19601f820116820180604052508101906127eb9190614951565b6001600160801b03165b9050600061281561280e6002546001600160f81b031690565b85876137c5565b9050600061282382846137f6565b905061282f81836148e7565b965061285c7f0000000000000000000000000000000000000000000000000000000000000000858361367f565b612864612001565b6040518181527e4e8d79e4b41c5fad7561dc7c07786ee4e52292da7a3f5dc7ab90e32cc304239060200160405180910390a1505050505b5060138190559091565b6040517fef5cfb8c0000000000000000000000000000000000000000000000000000000081523060048201527f00000000000000000000000000000000000000000000000000000000000000006001600160a01b03169063ef5cfb8c906024016000604051808303816000875af1158015612924573d6000803e3d6000fd5b505050506040513d6000823e601f3d908101601f1916820160405261294c919081019061481f565b5060007f00000000000000000000000000000000000000000000000000000000000000006001600160a01b03166361d027b36040518163ffffffff1660e01b8152600401602060405180830381865afa1580156129ad573d6000803e3d6000fd5b505050506040513d601f19601f820116820180604052508101906129d19190614934565b905060006129df6012541590565b6129f157670de0b6b3a7640000612a7d565b7f00000000000000000000000000000000000000000000000000000000000000006001600160a01b031663f5de2d1f6040518163ffffffff1660e01b8152600401602060405180830381865afa158015612a4f573d6000803e3d6000fd5b505050506040513d601f19601f82011682018060405250810190612a739190614951565b6001600160801b03165b90506000612a896114f1565b905060005b8151811015611d78576000828281518110612aab57612aab614720565b6020908102919091018101516001600160a01b038116600090815260079092526040822054909250600160801b90046001600160801b0316612aec83613081565b612af691906148e7565b90506000612b0482876137f6565b9050612b1183888361367f565b826001600160a01b03167f880a48d40a6133941abdcfabd5c5f9a791b1e6c8afd23138c5a36e3d9503922282604051612b4c91815260200190565b60405180910390a250505080612b61906148fa565b9050612a8e565b60606000612b7583612068565b6040517fb64761f9000000000000000000000000000000000000000000000000000000008152306004820152602481018290529091507f00000000000000000000000000000000000000000000000000000000000000006001600160a01b03169063b64761f990604401600060405180830381600087803b158015612bf957600080fd5b505af1158015612c0d573d6000803e3d6000fd5b50505050612c3b7f000000000000000000000000000000000000000000000000000000000000000042101590565b612c4957612c493082613819565b6000612c53611bb8565b90506000855167ffffffffffffffff811115612c7157612c7161470a565b604051908082528060200260200182016040528015612c9a578160200160208202803683370190505b50935060005b8651811015612e00576000612cce878381518110612cc057612cc0614720565b6020026020010151856139db565b878481518110612ce057612ce0614720565b60200260200101819350828152505050612d407f0000000000000000000000000000000000000000000000000000000000000000898481518110612d2657612d26614720565b602002602001015188858151811061263257612632614720565b612d4a81846148d4565b9250878281518110612d5e57612d5e614720565b60200260200101516001600160a01b0316336001600160a01b03167f5d624aa9c148153ab3446c1b154f660ee7701e549fe9b62dab7171b1c80e6fa2898581518110612dac57612dac614720565b6020026020010151898681518110612dc657612dc6614720565b6020026020010151604051612de5929190918252602082015260400190565b60405180910390a35080612df8816148fa565b915050612ca0565b5060007f00000000000000000000000000000000000000000000000000000000000000006001600160a01b03166361d027b36040518163ffffffff1660e01b8152600401602060405180830381865afa158015612e61573d6000803e3d6000fd5b505050506040513d601f19601f82011682018060405250810190612e859190614934565b9050612eb27f0000000000000000000000000000000000000000000000000000000000000000828461367f565b5050505092915050565b60007f0000000000000000000000000000000000000000000000000000000000000000421015612f2757610a94612f127f0000000000000000000000000000000000000000000000000000000000000000613081565b30600090815260208190526040902054613a39565b610a947f0000000000000000000000000000000000000000000000000000000000000000613081565b600080612f5b61311f565b9093509150506001600160a01b03841615801590612f8257506001600160a01b0384163014155b15612f9257612f92848383613a48565b6001600160a01b03831615801590612fb357506001600160a01b0383163014155b15611d7857611d78838383613a48565b6118e3816000612f50565b6001600160a01b0382166000908152600f6020526040902080546001600160801b03808216909255600160801b9004166108ab82848361367f565b6000818311613018578161193b565b5090919050565b60006001600160801b0382111561303557600080fd5b5090565b7f000000000000000000000000000000000000000000000000000000000000000042106130685761306861202f565b61307283836135ff565b61307c8383613751565b505050565b60006001600160a01b03821615613118576040517f70a082310000000000000000000000000000000000000000000000000000000081523060048201526001600160a01b038316906370a0823190602401602060405180830381865afa1580156130ef573d6000803e3d6000fd5b505050506040513d601f19601f8201168201806040525081019061311391906148a5565b6108ab565b4792915050565b600080600043600854146132005743600855600061313b613b86565b9050600061314761269f565b600954600a54909750955093509050600085900361316457600194505b8360000361317157600193505b81156131ef576000600b54600c5461318991906148e7565b9050600081600d5461319b919061497a565b905060008184116131ad5760006131b7565b6131b782856148e7565b90506131c38186613b9a565b6131cd90896148d4565b97506131d98286613b9a565b6131e390886148d4565b600c54600b5596505050505b50506009839055600a829055909192565b600954600a546011549194509250600160801b90046001600160801b03169050909192565b6060806132306114f1565b9150815167ffffffffffffffff81111561324c5761324c61470a565b604051908082528060200260200182016040528015613275578160200160208202803683370190505b5090508151600003613285579091565b43600654146134435743600655600061329d60105490565b90506132a76128a5565b60005b83518110156134405760008482815181106132c7576132c7614720565b6020908102919091018101516001600160a01b0381166000908152600790925260408220548751919350600160801b90046001600160801b0316906133259088908690811061331857613318614720565b6020026020010151613081565b61332f91906148e7565b6001600160a01b0383166000908152600760205260408120549192506001600160801b0390911690819003613362575060015b841561337f576133728286613b9a565b61337c90826148d4565b90505b6133888161301f565b6001600160a01b038416600090815260076020526040902080546fffffffffffffffffffffffffffffffff19166001600160801b03929092169190911790556133d08261301f565b6001600160a01b03841660009081526007602052604090208054601090613408908490600160801b90046001600160801b0316614991565b92506101000a8154816001600160801b0302191690836001600160801b0316021790555050505080613439906148fa565b90506132aa565b50505b60005b82518110156134c6576007600084838151811061346557613465614720565b6020908102919091018101516001600160a01b031682528101919091526040016000205482516001600160801b03909116908390839081106134a9576134a9614720565b6020908102919091010152806134be816148fa565b915050613446565b509091565b600061193b8284613bc0565b6001600160a01b03821661352d5760405162461bcd60e51b815260206004820152601f60248201527f45524332303a206d696e7420746f20746865207a65726f2061646472657373006044820152606401610953565b61353960008383613039565b61354281613bdf565b6002805460009061355d9084906001600160f81b03166149b1565b92506101000a8154816001600160f81b0302191690836001600160f81b0316021790555080600080846001600160a01b03166001600160a01b0316815260200190815260200160002060008282546135b591906148d4565b90915550506040518181526001600160a01b038316906000907fddf252ad1be2c89b69c2b068fc378daa952ba7f163c4a11628f55a4df523b3ef9060200160405180910390a35050565b60008061360a613225565b91509150815160000361361d5750505050565b6001600160a01b0384161580159061363e57506001600160a01b0384163014155b1561364e5761364e848383613bf5565b6001600160a01b0383161580159061366f57506001600160a01b0383163014155b15611d7857611d78838383613bf5565b8060000361368c57505050565b6001600160a01b03831661373d576000826001600160a01b03168260405160006040518083038185875af1925050503d80600081146136e7576040519150601f19603f3d011682016040523d82523d6000602084013e6136ec565b606091505b5050905080611d785760405162461bcd60e51b815260206004820152600f60248201527f6574682073656e64206661696c656400000000000000000000000000000000006044820152606401610953565b61307c6001600160a01b0384168383613e34565b60008061375c61311f565b919350909150506001600160a01b0384161580159061378457506001600160a01b0384163014155b1561379457613794848383613eb4565b6001600160a01b038316158015906137b557506001600160a01b0383163014155b15611d7857611d78838383613eb4565b60006137ee6137d4838561497a565b6137de85856148e7565b6137e8908761497a565b90613b9a565b949350505050565b600080613803838561497a565b9050670de0b6b3a7640000815b04949350505050565b6001600160a01b0382166138955760405162461bcd60e51b815260206004820152602160248201527f45524332303a206275726e2066726f6d20746865207a65726f2061646472657360448201527f73000000000000000000000000000000000000000000000000000000000000006064820152608401610953565b6138a182600083613039565b6001600160a01b038216600090815260208190526040902054818110156139305760405162461bcd60e51b815260206004820152602260248201527f45524332303a206275726e20616d6f756e7420657863656564732062616c616e60448201527f63650000000000000000000000000000000000000000000000000000000000006064820152608401610953565b6001600160a01b0383166000908152602081905260409020828203905561395682613bdf565b600280546000906139719084906001600160f81b03166149e7565b92506101000a8154816001600160f81b0302191690836001600160f81b0316021790555060006001600160a01b0316836001600160a01b03167fddf252ad1be2c89b69c2b068fc378daa952ba7f163c4a11628f55a4df523b3ef84604051611bab91815260200190565b6000806139e88385613fec565b91507f00000000000000000000000000000000000000000000000000000000000000004210613a32576000613a2260126000015486613fec565b9050613a2e83826148e7565b9150505b9250929050565b6000818310613018578161193b565b6001600160a01b03831615801590613a6957506001600160a01b0383163014155b613a7557613a75614a07565b6001600160a01b0383166000908152600f60205260409020546001600160801b0316828103613aa45750505050565b80600003613b0257613ab58361301f565b6001600160a01b03949094166000908152600f6020526040902080546fffffffffffffffffffffffffffffffff19166001600160801b039095169490941784555060019092019190915550565b613b21611caf613b1283866148e7565b613b1b87614001565b906137f6565b6001600160a01b0385166000908152600f602052604090208054601090613b59908490600160801b90046001600160801b0316614991565b92506101000a8154816001600160801b0302191690836001600160801b03160217905550613ab58361301f565b6000610a946002546001600160f81b031690565b600080613baf670de0b6b3a76400008561497a565b9050828181613810576138106149d1565b6000670de0b6b3a7640000613bd5848461497a565b61193b9190614a1d565b60006001600160f81b0382111561303557600080fd5b6001600160a01b03831615801590613c1657506001600160a01b0383163014155b613c2257613c22614a07565b6000613c2d846140a9565b905060005b8351811015613e2d576000848281518110613c4f57613c4f614720565b602002602001015190506000848381518110613c6d57613c6d614720565b6020908102919091018101516001600160a01b038085166000908152600584526040808220928c168252919093528220549092506001600160801b031690819003613cc857613cbc600161301f565b6001600160801b031690505b818103613cd757505050613e1d565b6000613ce382846148e7565b90506000613cf187836137f6565b6001600160a01b038681166000908152600560209081526040808320938f1683529290529081205491925090613d38908390600160801b90046001600160801b03166148d4565b90506040518060400160405280613d4e8761301f565b6001600160801b03168152602001613d658361301f565b6001600160801b031681525060056000886001600160a01b03166001600160a01b0316815260200190815260200160002060008d6001600160a01b03166001600160a01b0316815260200190815260200160002060008201518160000160006101000a8154816001600160801b0302191690836001600160801b0316021790555060208201518160000160106101000a8154816001600160801b0302191690836001600160801b031602179055509050505050505050505b613e26816148fa565b9050613c32565b5050505050565b604080516001600160a01b038416602482015260448082018490528251808303909101815260649091019091526020810180517bffffffffffffffffffffffffffffffffffffffffffffffffffffffff167fa9059cbb0000000000000000000000000000000000000000000000000000000017905261307c908490614120565b6001600160a01b03831615801590613ed557506001600160a01b0383163014155b613ee157613ee1614a07565b6001600160a01b0383166000908152600e60205260409020546001600160801b0316828103613f105750505050565b80600003613f6e57613f218361301f565b6001600160a01b03949094166000908152600e6020526040902080546fffffffffffffffffffffffffffffffff19166001600160801b039095169490941784555060019092019190915550565b613f87611caf613f7e83866148e7565b613b1b87614208565b6001600160a01b0385166000908152600e602052604090208054601090613fbf908490600160801b90046001600160801b0316614991565b92506101000a8154816001600160801b0302191690836001600160801b03160217905550613f218361301f565b600082613bd5670de0b6b3a76400008461497a565b6040517f70a082310000000000000000000000000000000000000000000000000000000081526001600160a01b0382811660048301526000917f0000000000000000000000000000000000000000000000000000000000000000909116906370a0823190602401602060405180830381865afa158015614085573d6000803e3d6000fd5b505050506040513d601f19601f820116820180604052508101906108ab91906148a5565b6001600160a01b0381166000908152600e60205260408120600101548082036140d55750600092915050565b6001600160a01b0383166000908152600e60209081526040808320549183905290912054600160801b9091046001600160801b031690614116908390613fec565b61193b91906148d4565b6000614175826040518060400160405280602081526020017f5361666545524332303a206c6f772d6c6576656c2063616c6c206661696c6564815250856001600160a01b03166142269092919063ffffffff16565b90508051600014806141965750808060200190518101906141969190614a3f565b61307c5760405162461bcd60e51b815260206004820152602a60248201527f5361666545524332303a204552433230206f7065726174696f6e20646964206e60448201527f6f742073756363656564000000000000000000000000000000000000000000006064820152608401610953565b6001600160a01b0381166000908152602081905260408120546108ab565b60606137ee848460008585600080866001600160a01b0316858760405161424d9190614a5c565b60006040518083038185875af1925050503d806000811461428a576040519150601f19603f3d011682016040523d82523d6000602084013e61428f565b606091505b50915091506142a0878383876142ab565b979650505050505050565b6060831561431a578251600003614313576001600160a01b0385163b6143135760405162461bcd60e51b815260206004820152601d60248201527f416464726573733a2063616c6c20746f206e6f6e2d636f6e74726163740000006044820152606401610953565b50816137ee565b6137ee838381511561432f5781518083602001fd5b8060405162461bcd60e51b8152600401610953919061436d565b60005b8381101561436457818101518382015260200161434c565b50506000910152565b602081526000825180602084015261438c816040850160208701614349565b601f01601f19169190910160400192915050565b6001600160a01b03811681146118e357600080fd5b600080604083850312156143c857600080fd5b82356143d3816143a0565b946020939093013593505050565b6000806000606084860312156143f657600080fd5b8335614401816143a0565b92506020840135614411816143a0565b929592945050506040919091013590565b60008083601f84011261443457600080fd5b50813567ffffffffffffffff81111561444c57600080fd5b6020830191508360208260051b8501011115613a3257600080fd5b6000806000806000806060878903121561448057600080fd5b863567ffffffffffffffff8082111561449857600080fd5b6144a48a838b01614422565b909850965060208901359150808211156144bd57600080fd5b6144c98a838b01614422565b909650945060408901359150808211156144e257600080fd5b506144ef89828a01614422565b979a9699509497509295939492505050565b600081518084526020808501945080840160005b8381101561453157815187529582019590820190600101614515565b509495945050505050565b60208152600061193b6020830184614501565b6000806040838503121561456257600080fd5b823561456d816143a0565b9150602083013561457d816143a0565b809150509250929050565b60006020828403121561459a57600080fd5b813561193b816143a0565b80151581146118e357600080fd5b6000806000606084860312156145c857600080fd5b83356145d3816143a0565b925060208401356145e3816145a5565b915060408401356145f3816145a5565b809150509250925092565b8281526040602082015260006137ee6040830184614501565b6000806000806040858703121561462d57600080fd5b843567ffffffffffffffff8082111561464557600080fd5b61465188838901614422565b9096509450602087013591508082111561466a57600080fd5b5061467787828801614422565b95989497509550505050565b6020808252825182820181905260009190848201906040850190845b818110156146c45783516001600160a01b03168352928401929184019160010161469f565b50909695505050505050565b600181811c908216806146e457607f821691505b60208210810361470457634e487b7160e01b600052602260045260246000fd5b50919050565b634e487b7160e01b600052604160045260246000fd5b634e487b7160e01b600052603260045260246000fd5b604051601f8201601f1916810167ffffffffffffffff8111828210171561475f5761475f61470a565b604052919050565b600067ffffffffffffffff8211156147815761478161470a565b5060051b60200190565b6000602080838503121561479e57600080fd5b825167ffffffffffffffff8111156147b557600080fd5b8301601f810185136147c657600080fd5b80516147d96147d482614767565b614736565b81815260059190911b820183019083810190878311156147f857600080fd5b928401925b828410156142a0578351614810816143a0565b825292840192908401906147fd565b6000602080838503121561483257600080fd5b825167ffffffffffffffff81111561484957600080fd5b8301601f8101851361485a57600080fd5b80516148686147d482614767565b81815260059190911b8201830190838101908783111561488757600080fd5b928401925b828410156142a05783518252928401929084019061488c565b6000602082840312156148b757600080fd5b5051919050565b634e487b7160e01b600052601160045260246000fd5b808201808211156108ab576108ab6148be565b818103818111156108ab576108ab6148be565b6000600019820361490d5761490d6148be565b5060010190565b6001600160801b038281168282160390808211156120a5576120a56148be565b60006020828403121561494657600080fd5b815161193b816143a0565b60006020828403121561496357600080fd5b81516001600160801b038116811461193b57600080fd5b80820281158282048414176108ab576108ab6148be565b6001600160801b038181168382160190808211156120a5576120a56148be565b6001600160f81b038181168382160190808211156120a5576120a56148be565b634e487b7160e01b600052601260045260246000fd5b6001600160f81b038281168282160390808211156120a5576120a56148be565b634e487b7160e01b600052600160045260246000fd5b600082614a3a57634e487b7160e01b600052601260045260246000fd5b500490565b600060208284031215614a5157600080fd5b815161193b816145a5565b60008251614a6e818460208701614349565b919091019291505056fea264697066735822122052db43adc11e6ac13b09b194bca8f749277da9e9fc2ebed800e7b10ddf65237f64736f6c63430008110033",
  "linkReferences": {},
  "deployedLinkReferences": {}
}