{
  "_format": "hh-sol-artifact-1",
  "contractName": "EuphratesYieldTokenV3",
  "sourceName": "contracts/core/YieldContractsV3/EuphratesYieldTokenV3.sol",
  "abi": [
    {
      "inputs": [
        {
          "internalType": "address",
          "name": "_SY",
          "type": "address"
        },
        {
          "internalType": "address",
          "name": "_PT",
          "type": "address"
        },
        {
          "internalType": "address",
          "name": "_factory",
          "type": "address"
        },
        {
          "internalType": "string",
          "name": "_name",
          "type": "string"
        },
        {
          "internalType": "string",
          "name": "_symbol",
          "type": "string"
        },
        {
          "internalType": "uint8",
          "name": "__decimals",
          "type": "uint8"
        },
        {
          "internalType": "uint256",
          "name": "_expiry",
          "type": "uint256"
        },
        {
          "internalType": "uint256",
          "name": "_sAPR",
          "type": "uint256"
        },
        {
          "internalType": "uint256",
          "name": "_lifecircle",
          "type": "uint256"
        },
        {
          "internalType": "bool",
          "name": "_doCacheIndexSameBlock",
          "type": "bool"
        }
      ],
      "stateMutability": "nonpayable",
      "type": "constructor"
    },
    {
      "inputs": [],
      "name": "ArrayEmpty",
      "type": "error"
    },
    {
      "inputs": [],
      "name": "ArrayLengthMismatch",
      "type": "error"
    },
    {
      "inputs": [],
      "name": "OnlyPT",
      "type": "error"
    },
    {
      "inputs": [],
      "name": "YCExpired",
      "type": "error"
    },
    {
      "inputs": [],
      "name": "YCNoFloatingSy",
      "type": "error"
    },
    {
      "inputs": [],
      "name": "YCNotExpired",
      "type": "error"
    },
    {
      "inputs": [],
      "name": "YCNothingToRedeem",
      "type": "error"
    },
    {
      "inputs": [],
      "name": "YCPostExpiryDataNotSet",
      "type": "error"
    },
    {
      "inputs": [
        {
          "internalType": "uint256",
          "name": "actualSy",
          "type": "uint256"
        },
        {
          "internalType": "uint256",
          "name": "requiredSy",
          "type": "uint256"
        }
      ],
      "name": "YieldContractInsufficientSy",
      "type": "error"
    },
    {
      "anonymous": false,
      "inputs": [
        {
          "indexed": true,
          "internalType": "address",
          "name": "owner",
          "type": "address"
        },
        {
          "indexed": true,
          "internalType": "address",
          "name": "spender",
          "type": "address"
        },
        {
          "indexed": false,
          "internalType": "uint256",
          "name": "value",
          "type": "uint256"
        }
      ],
      "name": "Approval",
      "type": "event"
    },
    {
      "anonymous": false,
      "inputs": [
        {
          "indexed": true,
          "internalType": "address",
          "name": "caller",
          "type": "address"
        },
        {
          "indexed": true,
          "internalType": "address",
          "name": "receiver",
          "type": "address"
        },
        {
          "indexed": false,
          "internalType": "uint256",
          "name": "amountPYToRedeem",
          "type": "uint256"
        },
        {
          "indexed": false,
          "internalType": "uint256",
          "name": "amountSyOut",
          "type": "uint256"
        }
      ],
      "name": "Burn",
      "type": "event"
    },
    {
      "anonymous": false,
      "inputs": [
        {
          "indexed": false,
          "internalType": "uint256",
          "name": "amountInterestFee",
          "type": "uint256"
        }
      ],
      "name": "CollectInterestFee",
      "type": "event"
    },
    {
      "anonymous": false,
      "inputs": [
        {
          "indexed": true,
          "internalType": "address",
          "name": "rewardToken",
          "type": "address"
        },
        {
          "indexed": false,
          "internalType": "uint256",
          "name": "amountRewardFee",
          "type": "uint256"
        }
      ],
      "name": "CollectRewardFee",
      "type": "event"
    },
    {
      "anonymous": false,
      "inputs": [
        {
          "indexed": true,
          "internalType": "address",
          "name": "caller",
          "type": "address"
        },
        {
          "indexed": true,
          "internalType": "address",
          "name": "receiverPT",
          "type": "address"
        },
        {
          "indexed": true,
          "internalType": "address",
          "name": "receiverYT",
          "type": "address"
        },
        {
          "indexed": false,
          "internalType": "uint256",
          "name": "amountSyToMint",
          "type": "uint256"
        },
        {
          "indexed": false,
          "internalType": "uint256",
          "name": "amountPYOut",
          "type": "uint256"
        }
      ],
      "name": "Mint",
      "type": "event"
    },
    {
      "anonymous": false,
      "inputs": [
        {
          "indexed": true,
          "internalType": "address",
          "name": "user",
          "type": "address"
        },
        {
          "indexed": false,
          "internalType": "uint256",
          "name": "interestOut",
          "type": "uint256"
        }
      ],
      "name": "RedeemInterest",
      "type": "event"
    },
    {
      "anonymous": false,
      "inputs": [
        {
          "indexed": true,
          "internalType": "address",
          "name": "user",
          "type": "address"
        },
        {
          "indexed": false,
          "internalType": "uint256[]",
          "name": "amountRewardsOut",
          "type": "uint256[]"
        }
      ],
      "name": "RedeemRewards",
      "type": "event"
    },
    {
      "anonymous": false,
      "inputs": [
        {
          "indexed": true,
          "internalType": "address",
          "name": "from",
          "type": "address"
        },
        {
          "indexed": true,
          "internalType": "address",
          "name": "to",
          "type": "address"
        },
        {
          "indexed": false,
          "internalType": "uint256",
          "name": "value",
          "type": "uint256"
        }
      ],
      "name": "Transfer",
      "type": "event"
    },
    {
      "anonymous": false,
      "inputs": [
        {
          "indexed": false,
          "internalType": "uint256[]",
          "name": "amountRewardsOut",
          "type": "uint256[]"
        },
        {
          "indexed": false,
          "internalType": "uint256",
          "name": "syOut",
          "type": "uint256"
        }
      ],
      "name": "WithdrawFeeToTreasury",
      "type": "event"
    },
    {
      "inputs": [],
      "name": "PT",
      "outputs": [
        {
          "internalType": "address",
          "name": "",
          "type": "address"
        }
      ],
      "stateMutability": "view",
      "type": "function"
    },
    {
      "inputs": [],
      "name": "SY",
      "outputs": [
        {
          "internalType": "address",
          "name": "",
          "type": "address"
        }
      ],
      "stateMutability": "view",
      "type": "function"
    },
    {
      "inputs": [
        {
          "internalType": "address",
          "name": "owner",
          "type": "address"
        },
        {
          "internalType": "address",
          "name": "spender",
          "type": "address"
        }
      ],
      "name": "allowance",
      "outputs": [
        {
          "internalType": "uint256",
          "name": "",
          "type": "uint256"
        }
      ],
      "stateMutability": "view",
      "type": "function"
    },
    {
      "inputs": [
        {
          "internalType": "address",
          "name": "spender",
          "type": "address"
        },
        {
          "internalType": "uint256",
          "name": "amount",
          "type": "uint256"
        }
      ],
      "name": "approve",
      "outputs": [
        {
          "internalType": "bool",
          "name": "",
          "type": "bool"
        }
      ],
      "stateMutability": "nonpayable",
      "type": "function"
    },
    {
      "inputs": [
        {
          "internalType": "address",
          "name": "account",
          "type": "address"
        }
      ],
      "name": "balanceOf",
      "outputs": [
        {
          "internalType": "uint256",
          "name": "",
          "type": "uint256"
        }
      ],
      "stateMutability": "view",
      "type": "function"
    },
    {
      "inputs": [],
      "name": "decimals",
      "outputs": [
        {
          "internalType": "uint8",
          "name": "",
          "type": "uint8"
        }
      ],
      "stateMutability": "view",
      "type": "function"
    },
    {
      "inputs": [],
      "name": "doCacheIndexSameBlock",
      "outputs": [
        {
          "internalType": "bool",
          "name": "",
          "type": "bool"
        }
      ],
      "stateMutability": "view",
      "type": "function"
    },
    {
      "inputs": [
        {
          "internalType": "address",
          "name": "user",
          "type": "address"
        },
        {
          "internalType": "address",
          "name": "SY",
          "type": "address"
        }
      ],
      "name": "doTransferOutInterestFPT",
      "outputs": [
        {
          "internalType": "uint256",
          "name": "interestAmount",
          "type": "uint256"
        }
      ],
      "stateMutability": "nonpayable",
      "type": "function"
    },
    {
      "inputs": [],
      "name": "expiry",
      "outputs": [
        {
          "internalType": "uint256",
          "name": "",
          "type": "uint256"
        }
      ],
      "stateMutability": "view",
      "type": "function"
    },
    {
      "inputs": [],
      "name": "factory",
      "outputs": [
        {
          "internalType": "address",
          "name": "",
          "type": "address"
        }
      ],
      "stateMutability": "view",
      "type": "function"
    },
    {
      "inputs": [],
      "name": "getPostExpiryData",
      "outputs": [
        {
          "internalType": "uint256",
          "name": "firstPYIndex",
          "type": "uint256"
        }
      ],
      "stateMutability": "view",
      "type": "function"
    },
    {
      "inputs": [],
      "name": "getRewardTokens",
      "outputs": [
        {
          "internalType": "address[]",
          "name": "",
          "type": "address[]"
        }
      ],
      "stateMutability": "view",
      "type": "function"
    },
    {
      "inputs": [],
      "name": "globalInterestIndex",
      "outputs": [
        {
          "internalType": "uint256",
          "name": "",
          "type": "uint256"
        }
      ],
      "stateMutability": "view",
      "type": "function"
    },
    {
      "inputs": [],
      "name": "globalInterestIndexFPT",
      "outputs": [
        {
          "internalType": "uint256",
          "name": "",
          "type": "uint256"
        }
      ],
      "stateMutability": "view",
      "type": "function"
    },
    {
      "inputs": [],
      "name": "isDistributingInterestAndRewards",
      "outputs": [
        {
          "internalType": "bool",
          "name": "",
          "type": "bool"
        }
      ],
      "stateMutability": "view",
      "type": "function"
    },
    {
      "inputs": [],
      "name": "isExpired",
      "outputs": [
        {
          "internalType": "bool",
          "name": "",
          "type": "bool"
        }
      ],
      "stateMutability": "view",
      "type": "function"
    },
    {
      "inputs": [],
      "name": "lastGlobalInterestUpdatedDayIndexByOracle",
      "outputs": [
        {
          "internalType": "uint256",
          "name": "",
          "type": "uint256"
        }
      ],
      "stateMutability": "view",
      "type": "function"
    },
    {
      "inputs": [],
      "name": "lastInterestBlock",
      "outputs": [
        {
          "internalType": "uint256",
          "name": "",
          "type": "uint256"
        }
      ],
      "stateMutability": "view",
      "type": "function"
    },
    {
      "inputs": [],
      "name": "lastRewardBlock",
      "outputs": [
        {
          "internalType": "uint256",
          "name": "",
          "type": "uint256"
        }
      ],
      "stateMutability": "view",
      "type": "function"
    },
    {
      "inputs": [],
      "name": "lifecircle",
      "outputs": [
        {
          "internalType": "uint256",
          "name": "",
          "type": "uint256"
        }
      ],
      "stateMutability": "view",
      "type": "function"
    },
    {
      "inputs": [
        {
          "internalType": "address",
          "name": "receiverPT",
          "type": "address"
        },
        {
          "internalType": "address",
          "name": "receiverYT",
          "type": "address"
        }
      ],
      "name": "mintPY",
      "outputs": [
        {
          "internalType": "uint256",
          "name": "amountPYOut",
          "type": "uint256"
        }
      ],
      "stateMutability": "nonpayable",
      "type": "function"
    },
    {
      "inputs": [
        {
          "internalType": "address[]",
          "name": "receiverPTs",
          "type": "address[]"
        },
        {
          "internalType": "address[]",
          "name": "receiverYTs",
          "type": "address[]"
        },
        {
          "internalType": "uint256[]",
          "name": "amountSyToMints",
          "type": "uint256[]"
        }
      ],
      "name": "mintPYMulti",
      "outputs": [
        {
          "internalType": "uint256[]",
          "name": "amountPYOuts",
          "type": "uint256[]"
        }
      ],
      "stateMutability": "nonpayable",
      "type": "function"
    },
    {
      "inputs": [],
      "name": "name",
      "outputs": [
        {
          "internalType": "string",
          "name": "",
          "type": "string"
        }
      ],
      "stateMutability": "view",
      "type": "function"
    },
    {
      "inputs": [],
      "name": "postExpiry",
      "outputs": [
        {
          "internalType": "uint256",
          "name": "firstPYIndex",
          "type": "uint256"
        }
      ],
      "stateMutability": "view",
      "type": "function"
    },
    {
      "inputs": [],
      "name": "pyIndexCurrent",
      "outputs": [
        {
          "internalType": "uint256",
          "name": "currentIndex",
          "type": "uint256"
        }
      ],
      "stateMutability": "nonpayable",
      "type": "function"
    },
    {
      "inputs": [],
      "name": "pyIndexLastUpdatedBlock",
      "outputs": [
        {
          "internalType": "uint128",
          "name": "",
          "type": "uint128"
        }
      ],
      "stateMutability": "view",
      "type": "function"
    },
    {
      "inputs": [],
      "name": "pyIndexStored",
      "outputs": [
        {
          "internalType": "uint256",
          "name": "",
          "type": "uint256"
        }
      ],
      "stateMutability": "view",
      "type": "function"
    },
    {
      "inputs": [
        {
          "internalType": "address",
          "name": "user",
          "type": "address"
        },
        {
          "internalType": "bool",
          "name": "redeemInterest",
          "type": "bool"
        },
        {
          "internalType": "bool",
          "name": "redeemRewards",
          "type": "bool"
        }
      ],
      "name": "redeemDueInterestAndRewards",
      "outputs": [
        {
          "internalType": "uint256",
          "name": "interestOut",
          "type": "uint256"
        },
        {
          "internalType": "uint256[]",
          "name": "rewardsOut",
          "type": "uint256[]"
        }
      ],
      "stateMutability": "nonpayable",
      "type": "function"
    },
    {
      "inputs": [],
      "name": "redeemInterestAndRewardsPostExpiryForTreasury",
      "outputs": [],
      "stateMutability": "nonpayable",
      "type": "function"
    },
    {
      "inputs": [
        {
          "internalType": "address",
          "name": "receiver",
          "type": "address"
        }
      ],
      "name": "redeemPY",
      "outputs": [
        {
          "internalType": "uint256",
          "name": "amountSyOut",
          "type": "uint256"
        }
      ],
      "stateMutability": "nonpayable",
      "type": "function"
    },
    {
      "inputs": [
        {
          "internalType": "address[]",
          "name": "receivers",
          "type": "address[]"
        },
        {
          "internalType": "uint256[]",
          "name": "amountPYToRedeems",
          "type": "uint256[]"
        }
      ],
      "name": "redeemPYMulti",
      "outputs": [
        {
          "internalType": "uint256[]",
          "name": "amountSyOuts",
          "type": "uint256[]"
        }
      ],
      "stateMutability": "nonpayable",
      "type": "function"
    },
    {
      "inputs": [],
      "name": "rewardIndexesCurrent",
      "outputs": [
        {
          "internalType": "uint256[]",
          "name": "",
          "type": "uint256[]"
        }
      ],
      "stateMutability": "nonpayable",
      "type": "function"
    },
    {
      "inputs": [
        {
          "internalType": "address",
          "name": "",
          "type": "address"
        }
      ],
      "name": "rewardState",
      "outputs": [
        {
          "internalType": "uint128",
          "name": "index",
          "type": "uint128"
        },
        {
          "internalType": "uint128",
          "name": "lastBalance",
          "type": "uint128"
        }
      ],
      "stateMutability": "view",
      "type": "function"
    },
    {
      "inputs": [],
      "name": "sAPR",
      "outputs": [
        {
          "internalType": "uint256",
          "name": "",
          "type": "uint256"
        }
      ],
      "stateMutability": "view",
      "type": "function"
    },
    {
      "inputs": [],
      "name": "setPostExpiryData",
      "outputs": [],
      "stateMutability": "nonpayable",
      "type": "function"
    },
    {
      "inputs": [],
      "name": "syReserve",
      "outputs": [
        {
          "internalType": "uint256",
          "name": "",
          "type": "uint256"
        }
      ],
      "stateMutability": "view",
      "type": "function"
    },
    {
      "inputs": [],
      "name": "symbol",
      "outputs": [
        {
          "internalType": "string",
          "name": "",
          "type": "string"
        }
      ],
      "stateMutability": "view",
      "type": "function"
    },
    {
      "inputs": [],
      "name": "totalSupply",
      "outputs": [
        {
          "internalType": "uint256",
          "name": "",
          "type": "uint256"
        }
      ],
      "stateMutability": "view",
      "type": "function"
    },
    {
      "inputs": [
        {
          "internalType": "address",
          "name": "to",
          "type": "address"
        },
        {
          "internalType": "uint256",
          "name": "amount",
          "type": "uint256"
        }
      ],
      "name": "transfer",
      "outputs": [
        {
          "internalType": "bool",
          "name": "",
          "type": "bool"
        }
      ],
      "stateMutability": "nonpayable",
      "type": "function"
    },
    {
      "inputs": [
        {
          "internalType": "address",
          "name": "from",
          "type": "address"
        },
        {
          "internalType": "address",
          "name": "to",
          "type": "address"
        },
        {
          "internalType": "uint256",
          "name": "amount",
          "type": "uint256"
        }
      ],
      "name": "transferFrom",
      "outputs": [
        {
          "internalType": "bool",
          "name": "",
          "type": "bool"
        }
      ],
      "stateMutability": "nonpayable",
      "type": "function"
    },
    {
      "inputs": [
        {
          "internalType": "address",
          "name": "user",
          "type": "address"
        }
      ],
      "name": "updateAndDistributeInterestFPT",
      "outputs": [],
      "stateMutability": "nonpayable",
      "type": "function"
    },
    {
      "inputs": [
        {
          "internalType": "address",
          "name": "user1",
          "type": "address"
        },
        {
          "internalType": "address",
          "name": "user2",
          "type": "address"
        }
      ],
      "name": "updateAndDistributeInterestForTwoFPT",
      "outputs": [],
      "stateMutability": "nonpayable",
      "type": "function"
    },
    {
      "inputs": [],
      "name": "updateSyReserve",
      "outputs": [],
      "stateMutability": "nonpayable",
      "type": "function"
    },
    {
      "inputs": [
        {
          "internalType": "address",
          "name": "",
          "type": "address"
        }
      ],
      "name": "userInterest",
      "outputs": [
        {
          "internalType": "uint128",
          "name": "index",
          "type": "uint128"
        },
        {
          "internalType": "uint128",
          "name": "accrued",
          "type": "uint128"
        },
        {
          "internalType": "uint256",
          "name": "pyIndex",
          "type": "uint256"
        }
      ],
      "stateMutability": "view",
      "type": "function"
    },
    {
      "inputs": [
        {
          "internalType": "address",
          "name": "",
          "type": "address"
        }
      ],
      "name": "userInterestFPT",
      "outputs": [
        {
          "internalType": "uint128",
          "name": "index",
          "type": "uint128"
        },
        {
          "internalType": "uint128",
          "name": "accrued",
          "type": "uint128"
        },
        {
          "internalType": "uint256",
          "name": "pyIndex",
          "type": "uint256"
        }
      ],
      "stateMutability": "view",
      "type": "function"
    },
    {
      "inputs": [
        {
          "internalType": "address",
          "name": "",
          "type": "address"
        },
        {
          "internalType": "address",
          "name": "",
          "type": "address"
        }
      ],
      "name": "userReward",
      "outputs": [
        {
          "internalType": "uint128",
          "name": "index",
          "type": "uint128"
        },
        {
          "internalType": "uint128",
          "name": "accrued",
          "type": "uint128"
        }
      ],
      "stateMutability": "view",
      "type": "function"
    }
  ],
  "bytecode": "0x6101806040523480156200001257600080fd5b5060405162005061380380620050618339810160408190526200003591620001b8565b8287878760036200004784826200032e565b5060046200005683826200032e565b5060ff166080525050600280546001600160f81b0316600160f81b179055600d556001600160a01b03998a1660a05297891660c052610100929092529490961660e0525050506101205261014091909152151561016052620003fa565b80516001600160a01b0381168114620000cb57600080fd5b919050565b634e487b7160e01b600052604160045260246000fd5b600082601f830112620000f857600080fd5b81516001600160401b0380821115620001155762000115620000d0565b604051601f8301601f19908116603f01168101908282118183101715620001405762000140620000d0565b816040528381526020925086838588010111156200015d57600080fd5b600091505b8382101562000181578582018301518183018401529082019062000162565b600093810190920192909252949350505050565b805160ff81168114620000cb57600080fd5b80518015158114620000cb57600080fd5b6000806000806000806000806000806101408b8d031215620001d957600080fd5b620001e48b620000b3565b9950620001f460208c01620000b3565b98506200020460408c01620000b3565b60608c01519098506001600160401b03808211156200022257600080fd5b620002308e838f01620000e6565b985060808d01519150808211156200024757600080fd5b50620002568d828e01620000e6565b9650506200026760a08c0162000195565b945060c08b0151935060e08b015192506101008b015191506200028e6101208c01620001a7565b90509295989b9194979a5092959850565b600181811c90821680620002b457607f821691505b602082108103620002d557634e487b7160e01b600052602260045260246000fd5b50919050565b601f8211156200032957600081815260208120601f850160051c81016020861015620003045750805b601f850160051c820191505b81811015620003255782815560010162000310565b5050505b505050565b81516001600160401b038111156200034a576200034a620000d0565b62000362816200035b84546200029f565b84620002db565b602080601f8311600181146200039a5760008415620003815750858301515b600019600386901b1c1916600185901b17855562000325565b600085815260208120601f198616915b82811015620003cb57888601518255948401946001909101908401620003aa565b5085821015620003ea5787850151600019600388901b60f8161c191681555b5050505050600190811b01905550565b60805160a05160c05160e05161010051610120516101405161016051614ae962000578600039600081816104280152611bf701526000610803015260006104f90152600081816103b10152818161078c01528181610b4f01528181610bad01528181610e36015281816111390152818161116d01528181611271015281816114260152818161162c015281816117300152818161178e01528181612c5101528181612efb015281816130760152613a2701526000818161066e01528181612704015281816127a60152818161298c01528181612a2e0152612e4001526000818161071901528181610a8701528181611669015281816118d70152818161192e0152818161223d01528181612be801528181612f2901528181612f67015261407701526000818161060001528181610f750152818161153001528181611a1e01528181611c5201528181612041015281816120f1015281816128710152818161290e01528181612d300152612ec7015260006103dd0152614ae96000f3fe608060405234801561001057600080fd5b506004361061030a5760003560e01c8063a9480e591161019c578063d2ccc1cd116100ee578063e433359311610097578063f2184c8a11610071578063f2184c8a146107fe578063f8567b3d14610825578063f8b2f9911461083857600080fd5b8063e4333593146107ae578063e767b9e5146107c1578063ea64a820146107ca57600080fd5b8063db74aa15116100c8578063db74aa151461073b578063dd62ed3e1461074e578063e184c9be1461078757600080fd5b8063d2ccc1cd146106c5578063d68076c3146106d8578063d94073d41461071457600080fd5b8063bcb7ea5d11610150578063c4f59f9b1161012a578063c4f59f9b14610690578063cdbb0361146106a5578063d2a3584e146106ad57600080fd5b8063bcb7ea5d1461064d578063bde7f6cd14610660578063c45a01551461066957600080fd5b8063acc5da4c11610181578063acc5da4c146105f3578063afd27bf5146105fb578063b0d889811461063a57600080fd5b8063a9480e59146105e2578063a9f8d181146105ea57600080fd5b80633d8df4921161026057806368bc9e6a116102095780637d24da4d116101e35780637d24da4d146105a657806395d89b41146105c7578063a9059cbb146105cf57600080fd5b806368bc9e6a146104f45780636d2eab1e1461051b57806370a082311461057d57600080fd5b8063533358191161023a578063533358191461044a5780635cbadbe41461046a57806360e0a9e1146104c957600080fd5b80633d8df492146104115780634ba6dcd71461041a578063516399df1461042357600080fd5b80631d52edc4116102c25780632eb1a18c1161029c5780632eb1a18c146103a55780632f13b60c146103af578063313ce567146103d857600080fd5b80631d52edc4146103815780631d6e45a11461038957806323b872dd1461039257600080fd5b80630a2b83a7116102f35780630a2b83a7146103505780630b49fcef1461036857806318160ddd1461037057600080fd5b806306fdde031461030f578063095ea7b31461032d575b600080fd5b610317610840565b60405161032491906143a8565b60405180910390f35b61034061033b3660046143f0565b6108d2565b6040519015158152602001610324565b60125461035a9081565b604051908152602001610324565b61035a6108ec565b6002546001600160f81b031661035a565b61035a610931565b60125415610340565b6103406103a036600461441c565b6109ce565b6103ad610a7c565b005b7f0000000000000000000000000000000000000000000000000000000000000000421015610340565b6103ff7f000000000000000000000000000000000000000000000000000000000000000081565b60405160ff9091168152602001610324565b61035a60095481565b61035a60105481565b6103407f000000000000000000000000000000000000000000000000000000000000000081565b61045d6104583660046144a2565b610ad4565b6040516103249190614577565b6104a961047836600461458a565b60056020908152600092835260408084209091529082529020546001600160801b0380821691600160801b90041682565b604080516001600160801b03938416815292909116602083015201610324565b6011546104dc906001600160801b031681565b6040516001600160801b039091168152602001610324565b61035a7f000000000000000000000000000000000000000000000000000000000000000081565b6105576105293660046145c3565b600f60205260009081526040902080546001909101546001600160801b0380831692600160801b9004169083565b604080516001600160801b03948516815293909216602084015290820152606001610324565b61035a61058b3660046145c3565b6001600160a01b031660009081526020819052604090205490565b6105b96105b43660046145ee565b610db8565b604051610324929190614639565b61031761100f565b6103406105dd3660046143f0565b61101e565b600c5461035a565b61035a60065481565b6103ad6110c1565b6106227f000000000000000000000000000000000000000000000000000000000000000081565b6040516001600160a01b039091168152602001610324565b61045d610648366004614652565b6111f6565b61035a61065b3660046145c3565b6113ab565b61035a600a5481565b6106227f000000000000000000000000000000000000000000000000000000000000000081565b61069861152c565b60405161032491906146be565b6103ad6115b4565b601154600160801b90046001600160801b031661035a565b6103ad6106d336600461458a565b61165e565b6105576106e63660046145c3565b600e60205260009081526040902080546001909101546001600160801b0380831692600160801b9004169083565b6106227f000000000000000000000000000000000000000000000000000000000000000081565b61035a61074936600461458a565b6116b5565b61035a61075c36600461458a565b6001600160a01b03918216600090815260016020908152604080832093909416825291909152205490565b61035a7f000000000000000000000000000000000000000000000000000000000000000081565b6103ad6107bc3660046145c3565b6118cc565b61035a60085481565b6104a96107d83660046145c3565b6007602052600090815260409020546001600160801b0380821691600160801b90041682565b61035a7f000000000000000000000000000000000000000000000000000000000000000081565b61035a61083336600461458a565b611921565b61045d61197d565b60606003805461084f9061470b565b80601f016020809104026020016040519081016040528092919081815260200182805461087b9061470b565b80156108c85780601f1061089d576101008083540402835291602001916108c8565b820191906000526020600020905b8154815290600101906020018083116108ab57829003601f168201915b5050505050905090565b6000336108e0818585611a9a565b60019150505b92915050565b601254600090810361092a576040517fd250963300000000000000000000000000000000000000000000000000000000815260040160405180910390fd5b5060125490565b600254600090600119600160f81b90910460ff16016109975760405162461bcd60e51b815260206004820152601f60248201527f5265656e7472616e637947756172643a207265656e7472616e742063616c6c0060448201526064015b60405180910390fd5b600280546001600160f81b0316600160f91b1790556109b4611bf3565b600280546001600160f81b0316600160f81b179055919050565b600254600090600119600160f81b90910460ff1601610a2f5760405162461bcd60e51b815260206004820152601f60248201527f5265656e7472616e637947756172643a207265656e7472616e742063616c6c00604482015260640161098e565b600280546001600160f81b0316600160f91b17905533610a50858285611d27565b610a5b858585611db9565b6001915050600280546001600160f81b0316600160f81b1790559392505050565b336001600160a01b037f00000000000000000000000000000000000000000000000000000000000000001614610ac55760405163223723a360e11b815260040160405180910390fd5b610acd61203c565b565b905090565b600254606090600119600160f81b90910460ff1601610b355760405162461bcd60e51b815260206004820152601f60248201527f5265656e7472616e637947756172643a207265656e7472616e742063616c6c00604482015260640161098e565b600280546001600160f81b0316600160f91b179055610b747f000000000000000000000000000000000000000000000000000000000000000042101590565b15610bab576040517f5b15a6da00000000000000000000000000000000000000000000000000000000815260040160405180910390fd5b7f00000000000000000000000000000000000000000000000000000000000000004210610bda57610bda61206a565b856000819003610c16576040517ff1364a7400000000000000000000000000000000000000000000000000000000815260040160405180910390fd5b8481141580610c255750828114155b15610c5c576040517fa24a13a600000000000000000000000000000000000000000000000000000000815260040160405180910390fd5b6000610c9a8585808060200260200160405190810160405280939291908181526020018383602002808284376000920191909152506120a392505050565b9050610ca46120e7565b811115610cef5780610cb46120e7565b6040517fa2cb08190000000000000000000000000000000000000000000000000000000081526004810192909252602482015260440161098e565b610d8d89898080602002602001604051908101604052809392919081815260200183836020028082843760009201919091525050604080516020808d0282810182019093528c82529093508c92508b91829185019084908082843760009201919091525050604080516020808c0282810182019093528b82529093508b92508a91829185019084908082843760009201919091525061215e92505050565b92505050610d9961203c565b600280546001600160f81b0316600160f81b1790559695505050505050565b600254600090606090600119600160f81b90910460ff1601610e1c5760405162461bcd60e51b815260206004820152601f60248201527f5265656e7472616e637947756172643a207265656e7472616e742063616c6c00604482015260640161098e565b600280546001600160f81b0316600160f91b179055610e5b7f000000000000000000000000000000000000000000000000000000000000000042101590565b15610e6857610e6861206a565b83158015610e74575082155b15610eab576040517f68146f1d00000000000000000000000000000000000000000000000000000000815260040160405180910390fd5b610eb4856123e0565b8215610f0c57610ec485866123eb565b9050846001600160a01b03167f78d61a0c27b13f43911095f9f356f14daa3cd8b125eea1aa22421245e90e813d82604051610eff9190614577565b60405180910390a2610f60565b6000610f1661152c565b9050805167ffffffffffffffff811115610f3257610f32614745565b604051908082528060200260200182016040528015610f5b578160200160208202803683370190505b509150505b8315610fe357610f6f85612694565b610f99857f000000000000000000000000000000000000000000000000000000000000000061269f565b9150846001600160a01b03167f83a945bd12c713615b59a6e48a3467c05d1a7442350600d6f7fce6af9f7190e983604051610fd691815260200190565b60405180910390a2610fe8565b600091505b610ff061203c565b600280546001600160f81b0316600160f81b1790559094909350915050565b60606004805461084f9061470b565b600254600090600119600160f81b90910460ff160161107f5760405162461bcd60e51b815260206004820152601f60248201527f5265656e7472616e637947756172643a207265656e7472616e742063616c6c00604482015260640161098e565b600280546001600160f81b0316600160f91b179055336110a0818585611db9565b60019150505b600280546001600160f81b0316600160f81b17905592915050565b600254600119600160f81b90910460ff160161111f5760405162461bcd60e51b815260206004820152601f60248201527f5265656e7472616e637947756172643a207265656e7472616e742063616c6c00604482015260640161098e565b600280546001600160f81b0316600160f91b17905561115e7f000000000000000000000000000000000000000000000000000000000000000042101590565b1561116b5761116b61206a565b7f00000000000000000000000000000000000000000000000000000000000000004210156111c5576040517fcd81a63600000000000000000000000000000000000000000000000000000000815260040160405180910390fd5b6111cd6126da565b50506111d76128e0565b6111df61203c565b600280546001600160f81b0316600160f81b179055565b600254606090600119600160f81b90910460ff16016112575760405162461bcd60e51b815260206004820152601f60248201527f5265656e7472616e637947756172643a207265656e7472616e742063616c6c00604482015260640161098e565b600280546001600160f81b0316600160f91b1790556112967f000000000000000000000000000000000000000000000000000000000000000042101590565b156112a3576112a361206a565b8382146112dc576040517fa24a13a600000000000000000000000000000000000000000000000000000000815260040160405180910390fd5b6000849003611317576040517ff1364a7400000000000000000000000000000000000000000000000000000000815260040160405180910390fd5b61138485858080602002602001604051908101604052809392919081815260200183836020028082843760009201919091525050604080516020808902828101820190935288825290935088925087918291850190849080828437600092019190915250612ba392505050565b905061138e61203c565b600280546001600160f81b0316600160f81b179055949350505050565b600254600090600119600160f81b90910460ff160161140c5760405162461bcd60e51b815260206004820152601f60248201527f5265656e7472616e637947756172643a207265656e7472616e742063616c6c00604482015260640161098e565b600280546001600160f81b0316600160f91b17905561144b7f000000000000000000000000000000000000000000000000000000000000000042101590565b156114585761145861206a565b604080516001808252818301909252600091602080830190803683375050604080516001808252818301909252929350600092915060208083019080368337019050509050836114a6612ef7565b836000815181106114b9576114b961475b565b60200260200101836000815181106114d3576114d361475b565b6020026020010182815250826001600160a01b03166001600160a01b0316815250505060606115028383612ba3565b9050806000815181106115175761151761475b565b602002602001015193505050506109b461203c565b60607f00000000000000000000000000000000000000000000000000000000000000006001600160a01b031663c4f59f9b6040518163ffffffff1660e01b8152600401600060405180830381865afa15801561158c573d6000803e3d6000fd5b505050506040513d6000823e601f3d908101601f19168201604052610acf91908101906147c6565b600254600119600160f81b90910460ff16016116125760405162461bcd60e51b815260206004820152601f60248201527f5265656e7472616e637947756172643a207265656e7472616e742063616c6c00604482015260640161098e565b600280546001600160f81b0316600160f91b1790556116517f000000000000000000000000000000000000000000000000000000000000000042101590565b156111df576111df61206a565b336001600160a01b037f000000000000000000000000000000000000000000000000000000000000000016146116a75760405163223723a360e11b815260040160405180910390fd5b6116b18282612f8b565b5050565b600254600090600119600160f81b90910460ff16016117165760405162461bcd60e51b815260206004820152601f60248201527f5265656e7472616e637947756172643a207265656e7472616e742063616c6c00604482015260640161098e565b600280546001600160f81b0316600160f91b1790556117557f000000000000000000000000000000000000000000000000000000000000000042101590565b1561178c576040517f5b15a6da00000000000000000000000000000000000000000000000000000000815260040160405180910390fd5b7f000000000000000000000000000000000000000000000000000000000000000042106117bb576117bb61206a565b6040805160018082528183019092526000916020808301908036833750506040805160018082528183019092529293506000929150602080830190803683375050604080516001808252818301909252929350600092915060208083019080368337019050509050858561182d6120e7565b856000815181106118405761184061475b565b602002602001018560008151811061185a5761185a61475b565b60200260200101856000815181106118745761187461475b565b60209081029190910101929092526001600160a01b039283169091529116905260006118a184848461215e565b9050806000815181106118b6576118b661475b565b60200260200101519450505050506110a661203c565b336001600160a01b037f000000000000000000000000000000000000000000000000000000000000000016146119155760405163223723a360e11b815260040160405180910390fd5b61191e81612ffe565b50565b6000336001600160a01b037f0000000000000000000000000000000000000000000000000000000000000000161461196c5760405163223723a360e11b815260040160405180910390fd5b6119768383613009565b9392505050565b600254606090600119600160f81b90910460ff16016119de5760405162461bcd60e51b815260206004820152601f60248201527f5265656e7472616e637947756172643a207265656e7472616e742063616c6c00604482015260640161098e565b600280546001600160f81b0316600160f91b179055604080517ff8b2f99100000000000000000000000000000000000000000000000000000000815290517f00000000000000000000000000000000000000000000000000000000000000006001600160a01b03169163f8b2f991916004808301926000929190829003018183875af1158015611a72573d6000803e3d6000fd5b505050506040513d6000823e601f3d908101601f191682016040526109b4919081019061485a565b6001600160a01b038316611b155760405162461bcd60e51b8152602060048201526024808201527f45524332303a20617070726f76652066726f6d20746865207a65726f2061646460448201527f7265737300000000000000000000000000000000000000000000000000000000606482015260840161098e565b6001600160a01b038216611b915760405162461bcd60e51b815260206004820152602260248201527f45524332303a20617070726f766520746f20746865207a65726f20616464726560448201527f7373000000000000000000000000000000000000000000000000000000000000606482015260840161098e565b6001600160a01b0383811660008181526001602090815260408083209487168084529482529182902085905590518481527f8c5be1e5ebec7d5bd14f71427d1e84f3dd0314c0f7b2291e5b200ac8c7c3b92591015b60405180910390a3505050565b60007f00000000000000000000000000000000000000000000000000000000000000008015611c2c57506011546001600160801b031643145b15611c485750601154600160801b90046001600160801b031690565b6000611cef611cea7f00000000000000000000000000000000000000000000000000000000000000006001600160a01b0316633ba0b9a96040518163ffffffff1660e01b8152600401602060405180830381865afa158015611cae573d6000803e3d6000fd5b505050506040513d601f19601f82011682018060405250810190611cd291906148e0565b601154600160801b90046001600160801b0316613044565b61305a565b436001600160801b03908116600160801b919092169081026fffffffffffffffffffffffffffffffff19169190911760115592915050565b6001600160a01b038381166000908152600160209081526040808320938616835292905220546000198114611db35781811015611da65760405162461bcd60e51b815260206004820152601d60248201527f45524332303a20696e73756666696369656e7420616c6c6f77616e6365000000604482015260640161098e565b611db38484848403611a9a565b50505050565b6001600160a01b038316611e355760405162461bcd60e51b815260206004820152602560248201527f45524332303a207472616e736665722066726f6d20746865207a65726f20616460448201527f6472657373000000000000000000000000000000000000000000000000000000606482015260840161098e565b6001600160a01b038216611eb15760405162461bcd60e51b815260206004820152602360248201527f45524332303a207472616e7366657220746f20746865207a65726f206164647260448201527f6573730000000000000000000000000000000000000000000000000000000000606482015260840161098e565b816001600160a01b0316836001600160a01b031603611f125760405162461bcd60e51b815260206004820152601760248201527f45524332303a207472616e7366657220746f2073656c66000000000000000000604482015260640161098e565b611f1d838383613074565b6001600160a01b03831660009081526020819052604090205481811015611fac5760405162461bcd60e51b815260206004820152602660248201527f45524332303a207472616e7366657220616d6f756e742065786365656473206260448201527f616c616e63650000000000000000000000000000000000000000000000000000606482015260840161098e565b6001600160a01b03808516600090815260208190526040808220858503905591851681529081208054849290611fe390849061490f565b92505081905550826001600160a01b0316846001600160a01b03167fddf252ad1be2c89b69c2b068fc378daa952ba7f163c4a11628f55a4df523b3ef8460405161202f91815260200190565b60405180910390a3611db3565b6120657f00000000000000000000000000000000000000000000000000000000000000006130bc565b601055565b60128054156120765750565b61207e61315a565b505050612089613260565b5050612096611cea611bf3565b6001600160801b03169055565b600080805b83518110156120e0578381815181106120c3576120c361475b565b6020026020010151826120d6919061490f565b91506001016120a8565b5092915050565b60006010546121157f00000000000000000000000000000000000000000000000000000000000000006130bc565b61211f9190614922565b90508060000361215b576040517f2282661900000000000000000000000000000000000000000000000000000000815260040160405180910390fd5b90565b6060815167ffffffffffffffff81111561217a5761217a614745565b6040519080825280602002602001820160405280156121a3578160200160208202803683370190505b50905060006121b0611bf3565b905060005b83518110156123d7576121e18482815181106121d3576121d361475b565b602002602001015183613506565b8382815181106121f3576121f361475b565b60200260200101818152505061223b8582815181106122145761221461475b565b602002602001015184838151811061222e5761222e61475b565b6020026020010151613512565b7f00000000000000000000000000000000000000000000000000000000000000006001600160a01b03166312a31dcc87838151811061227c5761227c61475b565b60200260200101518584815181106122965761229661475b565b60200260200101516040518363ffffffff1660e01b81526004016122cf9291906001600160a01b03929092168252602082015260400190565b600060405180830381600087803b1580156122e957600080fd5b505af11580156122fd573d6000803e3d6000fd5b505050508481815181106123135761231361475b565b60200260200101516001600160a01b03168682815181106123365761233661475b565b60200260200101516001600160a01b0316336001600160a01b03167fc0025304673122449dd60b9b0093874b0e2fd6fe57af1c7c2fbfee0ccf5ead588785815181106123845761238461475b565b602002602001015187868151811061239e5761239e61475b565b60200260200101516040516123bd929190918252602082015260400190565b60405180910390a4806123cf81614935565b9150506121b5565b50509392505050565b61191e81600061363a565b606060006123f761152c565b9050805167ffffffffffffffff81111561241357612413614745565b60405190808252806020026020018201604052801561243c578160200160208202803683370190505b50915060005b815181101561268c57600560008383815181106124615761246161475b565b60200260200101516001600160a01b03166001600160a01b031681526020019081526020016000206000866001600160a01b03166001600160a01b0316815260200190815260200160002060000160109054906101000a90046001600160801b03166001600160801b03168382815181106124de576124de61475b565b6020026020010181815250508281815181106124fc576124fc61475b565b602002602001015160001461267a576000600560008484815181106125235761252361475b565b60200260200101516001600160a01b03166001600160a01b031681526020019081526020016000206000876001600160a01b03166001600160a01b0316815260200190815260200160002060000160106101000a8154816001600160801b0302191690836001600160801b031602179055506125b78382815181106125aa576125aa61475b565b602002602001015161305a565b600760008484815181106125cd576125cd61475b565b60200260200101516001600160a01b03166001600160a01b0316815260200190815260200160002060000160108282829054906101000a90046001600160801b0316612619919061494f565b92506101000a8154816001600160801b0302191690836001600160801b0316021790555061267a8282815181106126525761265261475b565b60200260200101518585848151811061266d5761266d61475b565b60200260200101516136ba565b8061268481614935565b915050612442565b505092915050565b61191e81600061378c565b6001600160a01b0382166000908152600e6020526040902080546001600160801b03808216909255600160801b9004166108e68284836136ba565b60135460009081906126ea611bf3565b915080158015906126fb5750818114155b156128d65760007f00000000000000000000000000000000000000000000000000000000000000006001600160a01b03166361d027b36040518163ffffffff1660e01b8152600401602060405180830381865afa158015612760573d6000803e3d6000fd5b505050506040513d601f19601f82011682018060405250810190612784919061496f565b905060006127926012541590565b6127a457670de0b6b3a7640000612830565b7f00000000000000000000000000000000000000000000000000000000000000006001600160a01b031663dd86fea16040518163ffffffff1660e01b8152600401602060405180830381865afa158015612802573d6000803e3d6000fd5b505050506040513d601f19601f82011682018060405250810190612826919061498c565b6001600160801b03165b905060006128506128496002546001600160f81b031690565b8587613800565b9050600061285e8284613831565b905061286a8183614922565b96506128977f000000000000000000000000000000000000000000000000000000000000000085836136ba565b61289f61203c565b6040518181527e4e8d79e4b41c5fad7561dc7c07786ee4e52292da7a3f5dc7ab90e32cc304239060200160405180910390a1505050505b5060138190559091565b6040517fef5cfb8c0000000000000000000000000000000000000000000000000000000081523060048201527f00000000000000000000000000000000000000000000000000000000000000006001600160a01b03169063ef5cfb8c906024016000604051808303816000875af115801561295f573d6000803e3d6000fd5b505050506040513d6000823e601f3d908101601f19168201604052612987919081019061485a565b5060007f00000000000000000000000000000000000000000000000000000000000000006001600160a01b03166361d027b36040518163ffffffff1660e01b8152600401602060405180830381865afa1580156129e8573d6000803e3d6000fd5b505050506040513d601f19601f82011682018060405250810190612a0c919061496f565b90506000612a1a6012541590565b612a2c57670de0b6b3a7640000612ab8565b7f00000000000000000000000000000000000000000000000000000000000000006001600160a01b031663f5de2d1f6040518163ffffffff1660e01b8152600401602060405180830381865afa158015612a8a573d6000803e3d6000fd5b505050506040513d601f19601f82011682018060405250810190612aae919061498c565b6001600160801b03165b90506000612ac461152c565b905060005b8151811015611db3576000828281518110612ae657612ae661475b565b6020908102919091018101516001600160a01b038116600090815260079092526040822054909250600160801b90046001600160801b0316612b27836130bc565b612b319190614922565b90506000612b3f8287613831565b9050612b4c8388836136ba565b826001600160a01b03167f880a48d40a6133941abdcfabd5c5f9a791b1e6c8afd23138c5a36e3d9503922282604051612b8791815260200190565b60405180910390a250505080612b9c90614935565b9050612ac9565b60606000612bb0836120a3565b6040517fb64761f9000000000000000000000000000000000000000000000000000000008152306004820152602481018290529091507f00000000000000000000000000000000000000000000000000000000000000006001600160a01b03169063b64761f990604401600060405180830381600087803b158015612c3457600080fd5b505af1158015612c48573d6000803e3d6000fd5b50505050612c767f000000000000000000000000000000000000000000000000000000000000000042101590565b612c8457612c843082613854565b6000612c8e611bf3565b90506000855167ffffffffffffffff811115612cac57612cac614745565b604051908082528060200260200182016040528015612cd5578160200160208202803683370190505b50935060005b8651811015612e3b576000612d09878381518110612cfb57612cfb61475b565b602002602001015185613a16565b878481518110612d1b57612d1b61475b565b60200260200101819350828152505050612d7b7f0000000000000000000000000000000000000000000000000000000000000000898481518110612d6157612d6161475b565b602002602001015188858151811061266d5761266d61475b565b612d85818461490f565b9250878281518110612d9957612d9961475b565b60200260200101516001600160a01b0316336001600160a01b03167f5d624aa9c148153ab3446c1b154f660ee7701e549fe9b62dab7171b1c80e6fa2898581518110612de757612de761475b565b6020026020010151898681518110612e0157612e0161475b565b6020026020010151604051612e20929190918252602082015260400190565b60405180910390a35080612e3381614935565b915050612cdb565b5060007f00000000000000000000000000000000000000000000000000000000000000006001600160a01b03166361d027b36040518163ffffffff1660e01b8152600401602060405180830381865afa158015612e9c573d6000803e3d6000fd5b505050506040513d601f19601f82011682018060405250810190612ec0919061496f565b9050612eed7f000000000000000000000000000000000000000000000000000000000000000082846136ba565b5050505092915050565b60007f0000000000000000000000000000000000000000000000000000000000000000421015612f6257610acf612f4d7f00000000000000000000000000000000000000000000000000000000000000006130bc565b30600090815260208190526040902054613a74565b610acf7f00000000000000000000000000000000000000000000000000000000000000006130bc565b600080612f9661315a565b9093509150506001600160a01b03841615801590612fbd57506001600160a01b0384163014155b15612fcd57612fcd848383613a83565b6001600160a01b03831615801590612fee57506001600160a01b0383163014155b15611db357611db3838383613a83565b61191e816000612f8b565b6001600160a01b0382166000908152600f6020526040902080546001600160801b03808216909255600160801b9004166108e68284836136ba565b60008183116130535781611976565b5090919050565b60006001600160801b0382111561307057600080fd5b5090565b7f000000000000000000000000000000000000000000000000000000000000000042106130a3576130a361206a565b6130ad838361363a565b6130b7838361378c565b505050565b60006001600160a01b03821615613153576040517f70a082310000000000000000000000000000000000000000000000000000000081523060048201526001600160a01b038316906370a0823190602401602060405180830381865afa15801561312a573d6000803e3d6000fd5b505050506040513d601f19601f8201168201806040525081019061314e91906148e0565b6108e6565b4792915050565b6000806000436008541461323b57436008556000613176613bc1565b905060006131826126da565b600954600a54909750955093509050600085900361319f57600194505b836000036131ac57600193505b811561322a576000600b54600c546131c49190614922565b9050600081600d546131d691906149b5565b905060008184116131e85760006131f2565b6131f28285614922565b90506131fe8186613bd5565b613208908961490f565b97506132148286613bd5565b61321e908861490f565b600c54600b5596505050505b50506009839055600a829055909192565b600954600a546011549194509250600160801b90046001600160801b03169050909192565b60608061326b61152c565b9150815167ffffffffffffffff81111561328757613287614745565b6040519080825280602002602001820160405280156132b0578160200160208202803683370190505b50905081516000036132c0579091565b436006541461347e574360065560006132d860105490565b90506132e26128e0565b60005b835181101561347b5760008482815181106133025761330261475b565b6020908102919091018101516001600160a01b0381166000908152600790925260408220548751919350600160801b90046001600160801b031690613360908890869081106133535761335361475b565b60200260200101516130bc565b61336a9190614922565b6001600160a01b0383166000908152600760205260408120549192506001600160801b039091169081900361339d575060015b84156133ba576133ad8286613bd5565b6133b7908261490f565b90505b6133c38161305a565b6001600160a01b038416600090815260076020526040902080546fffffffffffffffffffffffffffffffff19166001600160801b039290921691909117905561340b8261305a565b6001600160a01b03841660009081526007602052604090208054601090613443908490600160801b90046001600160801b03166149cc565b92506101000a8154816001600160801b0302191690836001600160801b031602179055505050508061347490614935565b90506132e5565b50505b60005b825181101561350157600760008483815181106134a0576134a061475b565b6020908102919091018101516001600160a01b031682528101919091526040016000205482516001600160801b03909116908390839081106134e4576134e461475b565b6020908102919091010152806134f981614935565b915050613481565b509091565b60006119768284613bfb565b6001600160a01b0382166135685760405162461bcd60e51b815260206004820152601f60248201527f45524332303a206d696e7420746f20746865207a65726f206164647265737300604482015260640161098e565b61357460008383613074565b61357d81613c1a565b600280546000906135989084906001600160f81b03166149ec565b92506101000a8154816001600160f81b0302191690836001600160f81b0316021790555080600080846001600160a01b03166001600160a01b0316815260200190815260200160002060008282546135f0919061490f565b90915550506040518181526001600160a01b038316906000907fddf252ad1be2c89b69c2b068fc378daa952ba7f163c4a11628f55a4df523b3ef9060200160405180910390a35050565b600080613645613260565b9150915081516000036136585750505050565b6001600160a01b0384161580159061367957506001600160a01b0384163014155b1561368957613689848383613c30565b6001600160a01b038316158015906136aa57506001600160a01b0383163014155b15611db357611db3838383613c30565b806000036136c757505050565b6001600160a01b038316613778576000826001600160a01b03168260405160006040518083038185875af1925050503d8060008114613722576040519150601f19603f3d011682016040523d82523d6000602084013e613727565b606091505b5050905080611db35760405162461bcd60e51b815260206004820152600f60248201527f6574682073656e64206661696c65640000000000000000000000000000000000604482015260640161098e565b6130b76001600160a01b0384168383613e6f565b60008061379761315a565b919350909150506001600160a01b038416158015906137bf57506001600160a01b0384163014155b156137cf576137cf848383613eef565b6001600160a01b038316158015906137f057506001600160a01b0383163014155b15611db357611db3838383613eef565b600061382961380f83856149b5565b6138198585614922565b61382390876149b5565b90613bd5565b949350505050565b60008061383e83856149b5565b9050670de0b6b3a7640000815b04949350505050565b6001600160a01b0382166138d05760405162461bcd60e51b815260206004820152602160248201527f45524332303a206275726e2066726f6d20746865207a65726f2061646472657360448201527f7300000000000000000000000000000000000000000000000000000000000000606482015260840161098e565b6138dc82600083613074565b6001600160a01b0382166000908152602081905260409020548181101561396b5760405162461bcd60e51b815260206004820152602260248201527f45524332303a206275726e20616d6f756e7420657863656564732062616c616e60448201527f6365000000000000000000000000000000000000000000000000000000000000606482015260840161098e565b6001600160a01b0383166000908152602081905260409020828203905561399182613c1a565b600280546000906139ac9084906001600160f81b0316614a22565b92506101000a8154816001600160f81b0302191690836001600160f81b0316021790555060006001600160a01b0316836001600160a01b03167fddf252ad1be2c89b69c2b068fc378daa952ba7f163c4a11628f55a4df523b3ef84604051611be691815260200190565b600080613a238385614027565b91507f00000000000000000000000000000000000000000000000000000000000000004210613a6d576000613a5d60126000015486614027565b9050613a698382614922565b9150505b9250929050565b60008183106130535781611976565b6001600160a01b03831615801590613aa457506001600160a01b0383163014155b613ab057613ab0614a42565b6001600160a01b0383166000908152600f60205260409020546001600160801b0316828103613adf5750505050565b80600003613b3d57613af08361305a565b6001600160a01b03949094166000908152600f6020526040902080546fffffffffffffffffffffffffffffffff19166001600160801b039095169490941784555060019092019190915550565b613b5c611cea613b4d8386614922565b613b568761403c565b90613831565b6001600160a01b0385166000908152600f602052604090208054601090613b94908490600160801b90046001600160801b03166149cc565b92506101000a8154816001600160801b0302191690836001600160801b03160217905550613af08361305a565b6000610acf6002546001600160f81b031690565b600080613bea670de0b6b3a7640000856149b5565b905082818161384b5761384b614a0c565b6000670de0b6b3a7640000613c1084846149b5565b6119769190614a58565b60006001600160f81b0382111561307057600080fd5b6001600160a01b03831615801590613c5157506001600160a01b0383163014155b613c5d57613c5d614a42565b6000613c68846140e4565b905060005b8351811015613e68576000848281518110613c8a57613c8a61475b565b602002602001015190506000848381518110613ca857613ca861475b565b6020908102919091018101516001600160a01b038085166000908152600584526040808220928c168252919093528220549092506001600160801b031690819003613d0357613cf7600161305a565b6001600160801b031690505b818103613d1257505050613e58565b6000613d1e8284614922565b90506000613d2c8783613831565b6001600160a01b038681166000908152600560209081526040808320938f1683529290529081205491925090613d73908390600160801b90046001600160801b031661490f565b90506040518060400160405280613d898761305a565b6001600160801b03168152602001613da08361305a565b6001600160801b031681525060056000886001600160a01b03166001600160a01b0316815260200190815260200160002060008d6001600160a01b03166001600160a01b0316815260200190815260200160002060008201518160000160006101000a8154816001600160801b0302191690836001600160801b0316021790555060208201518160000160106101000a8154816001600160801b0302191690836001600160801b031602179055509050505050505050505b613e6181614935565b9050613c6d565b5050505050565b604080516001600160a01b038416602482015260448082018490528251808303909101815260649091019091526020810180517bffffffffffffffffffffffffffffffffffffffffffffffffffffffff167fa9059cbb000000000000000000000000000000000000000000000000000000001790526130b790849061415b565b6001600160a01b03831615801590613f1057506001600160a01b0383163014155b613f1c57613f1c614a42565b6001600160a01b0383166000908152600e60205260409020546001600160801b0316828103613f4b5750505050565b80600003613fa957613f5c8361305a565b6001600160a01b03949094166000908152600e6020526040902080546fffffffffffffffffffffffffffffffff19166001600160801b039095169490941784555060019092019190915550565b613fc2611cea613fb98386614922565b613b5687614243565b6001600160a01b0385166000908152600e602052604090208054601090613ffa908490600160801b90046001600160801b03166149cc565b92506101000a8154816001600160801b0302191690836001600160801b03160217905550613f5c8361305a565b600082613c10670de0b6b3a7640000846149b5565b6040517f70a082310000000000000000000000000000000000000000000000000000000081526001600160a01b0382811660048301526000917f0000000000000000000000000000000000000000000000000000000000000000909116906370a0823190602401602060405180830381865afa1580156140c0573d6000803e3d6000fd5b505050506040513d601f19601f820116820180604052508101906108e691906148e0565b6001600160a01b0381166000908152600e60205260408120600101548082036141105750600092915050565b6001600160a01b0383166000908152600e60209081526040808320549183905290912054600160801b9091046001600160801b031690614151908390614027565b611976919061490f565b60006141b0826040518060400160405280602081526020017f5361666545524332303a206c6f772d6c6576656c2063616c6c206661696c6564815250856001600160a01b03166142619092919063ffffffff16565b90508051600014806141d15750808060200190518101906141d19190614a7a565b6130b75760405162461bcd60e51b815260206004820152602a60248201527f5361666545524332303a204552433230206f7065726174696f6e20646964206e60448201527f6f74207375636365656400000000000000000000000000000000000000000000606482015260840161098e565b6001600160a01b0381166000908152602081905260408120546108e6565b6060613829848460008585600080866001600160a01b031685876040516142889190614a97565b60006040518083038185875af1925050503d80600081146142c5576040519150601f19603f3d011682016040523d82523d6000602084013e6142ca565b606091505b50915091506142db878383876142e6565b979650505050505050565b6060831561435557825160000361434e576001600160a01b0385163b61434e5760405162461bcd60e51b815260206004820152601d60248201527f416464726573733a2063616c6c20746f206e6f6e2d636f6e7472616374000000604482015260640161098e565b5081613829565b613829838381511561436a5781518083602001fd5b8060405162461bcd60e51b815260040161098e91906143a8565b60005b8381101561439f578181015183820152602001614387565b50506000910152565b60208152600082518060208401526143c7816040850160208701614384565b601f01601f19169190910160400192915050565b6001600160a01b038116811461191e57600080fd5b6000806040838503121561440357600080fd5b823561440e816143db565b946020939093013593505050565b60008060006060848603121561443157600080fd5b833561443c816143db565b9250602084013561444c816143db565b929592945050506040919091013590565b60008083601f84011261446f57600080fd5b50813567ffffffffffffffff81111561448757600080fd5b6020830191508360208260051b8501011115613a6d57600080fd5b600080600080600080606087890312156144bb57600080fd5b863567ffffffffffffffff808211156144d357600080fd5b6144df8a838b0161445d565b909850965060208901359150808211156144f857600080fd5b6145048a838b0161445d565b9096509450604089013591508082111561451d57600080fd5b5061452a89828a0161445d565b979a9699509497509295939492505050565b600081518084526020808501945080840160005b8381101561456c57815187529582019590820190600101614550565b509495945050505050565b602081526000611976602083018461453c565b6000806040838503121561459d57600080fd5b82356145a8816143db565b915060208301356145b8816143db565b809150509250929050565b6000602082840312156145d557600080fd5b8135611976816143db565b801515811461191e57600080fd5b60008060006060848603121561460357600080fd5b833561460e816143db565b9250602084013561461e816145e0565b9150604084013561462e816145e0565b809150509250925092565b828152604060208201526000613829604083018461453c565b6000806000806040858703121561466857600080fd5b843567ffffffffffffffff8082111561468057600080fd5b61468c8883890161445d565b909650945060208701359150808211156146a557600080fd5b506146b28782880161445d565b95989497509550505050565b6020808252825182820181905260009190848201906040850190845b818110156146ff5783516001600160a01b0316835292840192918401916001016146da565b50909695505050505050565b600181811c9082168061471f57607f821691505b60208210810361473f57634e487b7160e01b600052602260045260246000fd5b50919050565b634e487b7160e01b600052604160045260246000fd5b634e487b7160e01b600052603260045260246000fd5b604051601f8201601f1916810167ffffffffffffffff8111828210171561479a5761479a614745565b604052919050565b600067ffffffffffffffff8211156147bc576147bc614745565b5060051b60200190565b600060208083850312156147d957600080fd5b825167ffffffffffffffff8111156147f057600080fd5b8301601f8101851361480157600080fd5b805161481461480f826147a2565b614771565b81815260059190911b8201830190838101908783111561483357600080fd5b928401925b828410156142db57835161484b816143db565b82529284019290840190614838565b6000602080838503121561486d57600080fd5b825167ffffffffffffffff81111561488457600080fd5b8301601f8101851361489557600080fd5b80516148a361480f826147a2565b81815260059190911b820183019083810190878311156148c257600080fd5b928401925b828410156142db578351825292840192908401906148c7565b6000602082840312156148f257600080fd5b5051919050565b634e487b7160e01b600052601160045260246000fd5b808201808211156108e6576108e66148f9565b818103818111156108e6576108e66148f9565b60006000198203614948576149486148f9565b5060010190565b6001600160801b038281168282160390808211156120e0576120e06148f9565b60006020828403121561498157600080fd5b8151611976816143db565b60006020828403121561499e57600080fd5b81516001600160801b038116811461197657600080fd5b80820281158282048414176108e6576108e66148f9565b6001600160801b038181168382160190808211156120e0576120e06148f9565b6001600160f81b038181168382160190808211156120e0576120e06148f9565b634e487b7160e01b600052601260045260246000fd5b6001600160f81b038281168282160390808211156120e0576120e06148f9565b634e487b7160e01b600052600160045260246000fd5b600082614a7557634e487b7160e01b600052601260045260246000fd5b500490565b600060208284031215614a8c57600080fd5b8151611976816145e0565b60008251614aa9818460208701614384565b919091019291505056fea26469706673582212209e5fc43c17af5831094bc660734b7ea0a9d78b159fc1db546e1792112677badc64736f6c63430008110033",
  "linkReferences": {},
  "deployedLinkReferences": {}
}