{
  "_format": "hh-sol-artifact-1",
  "contractName": "EuphratesRouter",
  "sourceName": "contracts/router/PendleRouter.sol",
  "abi": [
    {
      "inputs": [
        {
          "internalType": "address",
          "name": "_ACTION_MINT_REDEEM",
          "type": "address"
        },
        {
          "internalType": "address",
          "name": "_ACTION_ADD_REMOVE_LIQ",
          "type": "address"
        },
        {
          "internalType": "address",
          "name": "_ACTION_SWAP_PT",
          "type": "address"
        },
        {
          "internalType": "address",
          "name": "_ACTION_SWAP_YT",
          "type": "address"
        },
        {
          "internalType": "address",
          "name": "_ACTION_MISC",
          "type": "address"
        }
      ],
      "stateMutability": "nonpayable",
      "type": "constructor"
    },
    {
      "inputs": [
        {
          "internalType": "bytes4",
          "name": "selector",
          "type": "bytes4"
        }
      ],
      "name": "RouterInvalidAction",
      "type": "error"
    },
    {
      "inputs": [
        {
          "internalType": "address",
          "name": "facet",
          "type": "address"
        }
      ],
      "name": "RouterInvalidFacet",
      "type": "error"
    },
    {
      "anonymous": false,
      "inputs": [
        {
          "components": [
            {
              "internalType": "address",
              "name": "facetAddress",
              "type": "address"
            },
            {
              "internalType": "enum IDiamondCut.FacetCutAction",
              "name": "action",
              "type": "uint8"
            },
            {
              "internalType": "bytes4[]",
              "name": "functionSelectors",
              "type": "bytes4[]"
            }
          ],
          "indexed": false,
          "internalType": "struct IDiamondCut.FacetCut[]",
          "name": "_diamondCut",
          "type": "tuple[]"
        },
        {
          "indexed": false,
          "internalType": "address",
          "name": "_init",
          "type": "address"
        },
        {
          "indexed": false,
          "internalType": "bytes",
          "name": "_calldata",
          "type": "bytes"
        }
      ],
      "name": "DiamondCut",
      "type": "event"
    },
    {
      "stateMutability": "payable",
      "type": "fallback"
    },
    {
      "inputs": [
        {
          "internalType": "bytes4",
          "name": "sig",
          "type": "bytes4"
        }
      ],
      "name": "facetAddress",
      "outputs": [
        {
          "internalType": "address",
          "name": "",
          "type": "address"
        }
      ],
      "stateMutability": "view",
      "type": "function"
    },
    {
      "inputs": [],
      "name": "facetAddresses",
      "outputs": [
        {
          "internalType": "address[]",
          "name": "",
          "type": "address[]"
        }
      ],
      "stateMutability": "view",
      "type": "function"
    },
    {
      "inputs": [
        {
          "internalType": "address",
          "name": "facet",
          "type": "address"
        }
      ],
      "name": "facetFunctionSelectors",
      "outputs": [
        {
          "internalType": "bytes4[]",
          "name": "res",
          "type": "bytes4[]"
        }
      ],
      "stateMutability": "view",
      "type": "function"
    },
    {
      "inputs": [],
      "name": "facets",
      "outputs": [
        {
          "components": [
            {
              "internalType": "address",
              "name": "facetAddress",
              "type": "address"
            },
            {
              "internalType": "bytes4[]",
              "name": "functionSelectors",
              "type": "bytes4[]"
            }
          ],
          "internalType": "struct IDiamondLoupe.Facet[]",
          "name": "facets_",
          "type": "tuple[]"
        }
      ],
      "stateMutability": "view",
      "type": "function"
    },
    {
      "stateMutability": "payable",
      "type": "receive"
    }
  ],
  "bytecode": "0x6101206040523480156200001257600080fd5b50604051620033a9380380620033a9833981016040819052620000359162000f1e565b6001600160a01b0380861660805284811660a05283811660c05282811660e0528116610100526200006562000070565b5050505050620010d3565b60006200007c62000237565b80519091506000816001600160401b038111156200009e576200009e62000f8e565b604051908082528060200260200182016040528015620000ed57816020015b60408051606080820183526000808352602083015291810191909152815260200190600190039081620000bd5790505b50905060005b82811015620001f55783818151811062000111576200011162000fa4565b60200260200101516000015182828151811062000132576200013262000fa4565b6020026020010151600001906001600160a01b031690816001600160a01b03168152505060008282815181106200016d576200016d62000fa4565b60200260200101516020019060028111156200018d576200018d62000fba565b90816002811115620001a357620001a362000fba565b81525050838181518110620001bc57620001bc62000fa4565b602002602001015160200151828281518110620001dd57620001dd62000fa4565b602090810291909101015160400152600101620000f3565b507f8faa70878671ccd212d20771b795c50af8fd3ff6cf27f4bde57e5d4de0aeb6738160006040516200022a92919062000fd0565b60405180910390a1505050565b606060006200024562000371565b8051909150806001600160401b0381111562000265576200026562000f8e565b604051908082528060200260200182016040528015620002ad57816020015b604080518082019091526000815260606020820152815260200190600190039081620002845790505b50925060005b818110156200036b57828181518110620002d157620002d162000fa4565b6020026020010151848281518110620002ee57620002ee62000fa4565b6020026020010151600001906001600160a01b031690816001600160a01b0316815250506200033f8382815181106200032b576200032b62000fa4565b6020026020010151620004ea60201b60201c565b84828151811062000354576200035462000fa4565b6020908102919091018101510152600101620002b3565b50505090565b60408051600680825260e08201909252606091600091906020820160c08036833701905050905060a05181600081518110620003b157620003b162000fa4565b60200260200101906001600160a01b031690816001600160a01b03168152505060805181600181518110620003ea57620003ea62000fa4565b60200260200101906001600160a01b031690816001600160a01b03168152505060c0518160028151811062000423576200042362000fa4565b60200260200101906001600160a01b031690816001600160a01b03168152505060e051816003815181106200045c576200045c62000fa4565b60200260200101906001600160a01b031690816001600160a01b031681525050610100518160048151811062000496576200049662000fa4565b60200260200101906001600160a01b031690816001600160a01b0316815250503081600581518110620004cd57620004cd62000fa4565b6001600160a01b0390921660209283029190910190910152919050565b606060a0516001600160a01b0316826001600160a01b031603620007e55760408051600c8082526101a082019092529060208201610180803683370190505090506397ee279e60e01b8160008151811062000549576200054962000fa4565b6001600160e01b03199092166020928302919091019091015280516365ac8f5960e11b908290600190811062000583576200058362000fa4565b6001600160e01b0319909216602092830291909101909101528051633af1f32960e01b9082906002908110620005bd57620005bd62000fa4565b6001600160e01b031990921660209283029190910190910152805163409c7a8960e01b9082906003908110620005f757620005f762000fa4565b6001600160e01b031990921660209283029190910190910152805163015491d160e01b908290600490811062000631576200063162000fa4565b6001600160e01b031990921660209283029190910190910152805163b7d75b8b60e01b90829060059081106200066b576200066b62000fa4565b6001600160e01b031990921660209283029190910190910152805163e6eaba0160e01b9082906006908110620006a557620006a562000fa4565b6001600160e01b031990921660209283029190910190910152805163694ab55960e01b9082906007908110620006df57620006df62000fa4565b6001600160e01b031990921660209283029190910190910152805163178d29d360e01b908290600890811062000719576200071962000fa4565b6001600160e01b031990921660209283029190910190910152805163690807ad60e01b908290600990811062000753576200075362000fa4565b6001600160e01b0319909216602092830291909101909101528051636fde40a760e11b908290600a9081106200078d576200078d62000fa4565b6001600160e01b0319909216602092830291909101909101528051634221c25560e11b908290600b908110620007c757620007c762000fa4565b6001600160e01b031990921660209283029190910190910152919050565b6080516001600160a01b0316826001600160a01b0316036200099d576040805160078082526101008201909252906020820160e080368337019050509050631a8631b260e01b8160008151811062000841576200084162000fa4565b6001600160e01b031990921660209283029190910190910152805163237596db60e11b90829060019081106200087b576200087b62000fa4565b6001600160e01b031990921660209283029190910190910152805163221f328960e11b9082906002908110620008b557620008b562000fa4565b6001600160e01b0319909216602092830291909101909101528051631efc6ebd60e31b9082906003908110620008ef57620008ef62000fa4565b6001600160e01b031990921660209283029190910190910152805163339748cb60e01b908290600490811062000929576200092962000fa4565b6001600160e01b031990921660209283029190910190910152805163527df19960e01b908290600590811062000963576200096362000fa4565b6001600160e01b03199092166020928302919091019091015280516342d94c9b60e11b9082906006908110620007c757620007c762000fa4565b60c0516001600160a01b0316826001600160a01b03160362000b1a5760408051600680825260e08201909252906020820160c080368337019050509050632032aecd60e01b81600081518110620009f857620009f862000fa4565b6001600160e01b0319909216602092830291909101909101528051635c2fa85d60e11b908290600190811062000a325762000a3262000fa4565b6001600160e01b03199092166020928302919091019091015280516383c71b6960e01b908290600290811062000a6c5762000a6c62000fa4565b6001600160e01b031990921660209283029190910190910152805163a5f9931b60e01b908290600390811062000aa65762000aa662000fa4565b6001600160e01b031990921660209283029190910190910152805163dd371acd60e01b908290600490811062000ae05762000ae062000fa4565b6001600160e01b03199092166020928302919091019091015280516335c5ef9960e11b9082906005908110620007c757620007c762000fa4565b60e0516001600160a01b0316826001600160a01b03160362000d4657604080516009808252610140820190925290602082016101208036833701905050905063fa483e7260e01b8160008151811062000b775762000b7762000fa4565b6001600160e01b031990921660209283029190910190910152805163190c351360e31b908290600190811062000bb15762000bb162000fa4565b6001600160e01b031990921660209283029190910190910152805163448b9b9560e01b908290600290811062000beb5762000beb62000fa4565b6001600160e01b031990921660209283029190910190910152805163fdd71f4360e01b908290600390811062000c255762000c2562000fa4565b6001600160e01b0319909216602092830291909101909101528051636254e3ef60e11b908290600490811062000c5f5762000c5f62000fa4565b6001600160e01b031990921660209283029190910190910152805162d5f59560e61b908290600590811062000c985762000c9862000fa4565b6001600160e01b031990921660209283029190910190910152805163358c23e960e21b908290600690811062000cd25762000cd262000fa4565b6001600160e01b0319909216602092830291909101909101528051632fc6f50d60e21b908290600790811062000d0c5762000d0c62000fa4565b6001600160e01b0319909216602092830291909101909101528051631c2b981360e31b9082906008908110620007c757620007c762000fa4565b610100516001600160a01b0316826001600160a01b03160362000ddb57604080516002808252606082018352909160208301908036833701905050905063acdb32df60e01b8160008151811062000da15762000da162000fa4565b6001600160e01b031990921660209283029190910190910152805163d617b03b60e01b9082906001908110620007c757620007c762000fa4565b306001600160a01b0383160362000ed95760408051600480825260a08201909252906020820160808036833701905050905063cdffacc660e01b8160008151811062000e2b5762000e2b62000fa4565b6001600160e01b03199092166020928302919091019091015280516314bbdacb60e21b908290600190811062000e655762000e6562000fa4565b6001600160e01b03199092166020928302919091019091015280516356fe50af60e11b908290600290811062000e9f5762000e9f62000fa4565b6001600160e01b0319909216602092830291909101909101528051637a0ed62760e01b9082906003908110620007c757620007c762000fa4565b60405163da21759360e01b81526001600160a01b038316600482015260240160405180910390fd5b80516001600160a01b038116811462000f1957600080fd5b919050565b600080600080600060a0868803121562000f3757600080fd5b62000f428662000f01565b945062000f526020870162000f01565b935062000f626040870162000f01565b925062000f726060870162000f01565b915062000f826080870162000f01565b90509295509295909350565b634e487b7160e01b600052604160045260246000fd5b634e487b7160e01b600052603260045260246000fd5b634e487b7160e01b600052602160045260246000fd5b60006060808301818452808651808352608092508286019150828160051b8701016020808a0160005b84811015620010a557898403607f19018652815180516001600160a01b031685528381015189860190600381106200104157634e487b7160e01b600052602160045260246000fd5b868601526040918201519186018a905281519081905290840190600090898701905b808310156200108f5783516001600160e01b031916825292860192600192909201919086019062001063565b5097850197955050509082019060010162000ff9565b50506001600160a01b0389168882015250868103604088015260008152602081019998505050505050505050565b60805160a05160c05160e05161010051612172620012376000396000818161029101528181610e920152818161197b0152611bdc01526000818161023d01528181610c00015281816113400152818161148701528181611a6301528181611aa201528181611b5201528181611c5301528181611db301528181611e0b0152611ea20152600081816101e901528181610a4601528181611291015281816116770152818161179e0152818161187301528181611a0b0152611d030152600081816101410152818161043601528181611184015281816111dc01528181611398015281816113d7015281816115a8015281816116000152818161175f015281816118cb0152818161192301528181611afa01528181611cab0152611d740152600081816101950152818161082201528181611239015281816112e90152818161142f015281816114f801528181611550015281816117070152611e4a01526121726000f3fe6080604052600436106100435760003560e01c806352ef6b2c146100545780637a0ed6271461007f578063adfca15e146100a1578063cdffacc6146100ce5761004a565b3661004a57005b610052610106565b005b34801561006057600080fd5b50610069610118565b6040516100769190611f44565b60405180910390f35b34801561008b57600080fd5b50610094610314565b6040516100769190611fd6565b3480156100ad57600080fd5b506100c16100bc366004612071565b610432565b60405161007691906120a1565b3480156100da57600080fd5b506100ee6100e93660046120b4565b6110b9565b6040516001600160a01b039091168152602001610076565b610116610111611f04565b611f20565b565b60408051600680825260e08201909252606091600091906020820160c0803683370190505090507f0000000000000000000000000000000000000000000000000000000000000000816000815181106101735761017361210d565b60200260200101906001600160a01b031690816001600160a01b0316815250507f0000000000000000000000000000000000000000000000000000000000000000816001815181106101c7576101c761210d565b60200260200101906001600160a01b031690816001600160a01b0316815250507f00000000000000000000000000000000000000000000000000000000000000008160028151811061021b5761021b61210d565b60200260200101906001600160a01b031690816001600160a01b0316815250507f00000000000000000000000000000000000000000000000000000000000000008160038151811061026f5761026f61210d565b60200260200101906001600160a01b031690816001600160a01b0316815250507f0000000000000000000000000000000000000000000000000000000000000000816004815181106102c3576102c361210d565b60200260200101906001600160a01b031690816001600160a01b03168152505030816005815181106102f7576102f761210d565b6001600160a01b0390921660209283029190910190910152919050565b60606000610320610118565b80519091508067ffffffffffffffff81111561033e5761033e6120de565b60405190808252806020026020018201604052801561038457816020015b60408051808201909152600081526060602082015281526020019060019003908161035c5790505b50925060005b8181101561042c578281815181106103a4576103a461210d565b60200260200101518482815181106103be576103be61210d565b6020026020010151600001906001600160a01b031690816001600160a01b0316815250506104048382815181106103f7576103f761210d565b6020026020010151610432565b8482815181106104165761041661210d565b602090810291909101810151015260010161038a565b50505090565b60607f00000000000000000000000000000000000000000000000000000000000000006001600160a01b0316826001600160a01b0316036108205760408051600c8082526101a082019092529060208201610180803683370190505090506397ee279e60e01b816000815181106104ab576104ab61210d565b6001600160e01b03199092166020928302919091019091015280517fcb591eb20000000000000000000000000000000000000000000000000000000090829060019081106104fb576104fb61210d565b6001600160e01b03199092166020928302919091019091015280517f3af1f32900000000000000000000000000000000000000000000000000000000908290600290811061054b5761054b61210d565b6001600160e01b031990921660209283029190910190910152805163409c7a8960e01b90829060039081106105825761058261210d565b6001600160e01b03199092166020928302919091019091015280517f015491d10000000000000000000000000000000000000000000000000000000090829060049081106105d2576105d261210d565b6001600160e01b03199092166020928302919091019091015280517fb7d75b8b0000000000000000000000000000000000000000000000000000000090829060059081106106225761062261210d565b6001600160e01b03199092166020928302919091019091015280517fe6eaba010000000000000000000000000000000000000000000000000000000090829060069081106106725761067261210d565b6001600160e01b03199092166020928302919091019091015280517f694ab5590000000000000000000000000000000000000000000000000000000090829060079081106106c2576106c261210d565b6001600160e01b03199092166020928302919091019091015280517f178d29d30000000000000000000000000000000000000000000000000000000090829060089081106107125761071261210d565b6001600160e01b03199092166020928302919091019091015280517f690807ad0000000000000000000000000000000000000000000000000000000090829060099081106107625761076261210d565b6001600160e01b03199092166020928302919091019091015280517fdfbc814e00000000000000000000000000000000000000000000000000000000908290600a9081106107b2576107b261210d565b6001600160e01b03199092166020928302919091019091015280517f844384aa00000000000000000000000000000000000000000000000000000000908290600b9081106108025761080261210d565b6001600160e01b031990921660209283029190910190910152919050565b7f00000000000000000000000000000000000000000000000000000000000000006001600160a01b0316826001600160a01b031603610a44576040805160078082526101008201909252906020820160e080368337019050509050631a8631b260e01b816000815181106108965761089661210d565b6001600160e01b031990921660209283029190910190910152805163237596db60e11b90829060019081106108cd576108cd61210d565b6001600160e01b03199092166020928302919091019091015280517f443e651200000000000000000000000000000000000000000000000000000000908290600290811061091d5761091d61210d565b6001600160e01b0319909216602092830291909101909101528051631efc6ebd60e31b90829060039081106109545761095461210d565b6001600160e01b03199092166020928302919091019091015280517f339748cb0000000000000000000000000000000000000000000000000000000090829060049081106109a4576109a461210d565b6001600160e01b03199092166020928302919091019091015280517f527df1990000000000000000000000000000000000000000000000000000000090829060059081106109f4576109f461210d565b6001600160e01b03199092166020928302919091019091015280517f85b299360000000000000000000000000000000000000000000000000000000090829060069081106108025761080261210d565b7f00000000000000000000000000000000000000000000000000000000000000006001600160a01b0316826001600160a01b031603610bfe5760408051600680825260e08201909252906020820160c080368337019050509050632032aecd60e01b81600081518110610ab957610ab961210d565b6001600160e01b0319909216602092830291909101909101528051635c2fa85d60e11b9082906001908110610af057610af061210d565b6001600160e01b03199092166020928302919091019091015280516383c71b6960e01b9082906002908110610b2757610b2761210d565b6001600160e01b03199092166020928302919091019091015280517fa5f9931b000000000000000000000000000000000000000000000000000000009082906003908110610b7757610b7761210d565b6001600160e01b03199092166020928302919091019091015280517fdd371acd000000000000000000000000000000000000000000000000000000009082906004908110610bc757610bc761210d565b6001600160e01b03199092166020928302919091019091015280516335c5ef9960e11b90829060059081106108025761080261210d565b7f00000000000000000000000000000000000000000000000000000000000000006001600160a01b0316826001600160a01b031603610e9057604080516009808252610140820190925290602082016101208036833701905050905063fa483e7260e01b81600081518110610c7557610c7561210d565b6001600160e01b03199092166020928302919091019091015280517fc861a898000000000000000000000000000000000000000000000000000000009082906001908110610cc557610cc561210d565b6001600160e01b03199092166020928302919091019091015280517f448b9b95000000000000000000000000000000000000000000000000000000009082906002908110610d1557610d1561210d565b6001600160e01b03199092166020928302919091019091015280517ffdd71f43000000000000000000000000000000000000000000000000000000009082906003908110610d6557610d6561210d565b6001600160e01b0319909216602092830291909101909101528051636254e3ef60e11b9082906004908110610d9c57610d9c61210d565b6001600160e01b031990921660209283029190910190910152805162d5f59560e61b9082906005908110610dd257610dd261210d565b6001600160e01b031990921660209283029190910190910152805163358c23e960e21b9082906006908110610e0957610e0961210d565b6001600160e01b03199092166020928302919091019091015280517fbf1bd434000000000000000000000000000000000000000000000000000000009082906007908110610e5957610e5961210d565b6001600160e01b0319909216602092830291909101909101528051631c2b981360e31b90829060089081106108025761080261210d565b7f00000000000000000000000000000000000000000000000000000000000000006001600160a01b0316826001600160a01b031603610f5457604080516002808252606082018352909160208301908036833701905050905063acdb32df60e01b81600081518110610f0457610f0461210d565b6001600160e01b03199092166020928302919091019091015280517fd617b03b0000000000000000000000000000000000000000000000000000000090829060019081106108025761080261210d565b306001600160a01b038316036110775760408051600480825260a08201909252906020820160808036833701905050905063cdffacc660e01b81600081518110610fa057610fa061210d565b6001600160e01b03199092166020928302919091019091015280516314bbdacb60e21b9082906001908110610fd757610fd761210d565b6001600160e01b03199092166020928302919091019091015280517fadfca15e0000000000000000000000000000000000000000000000000000000090829060029081106110275761102761210d565b6001600160e01b03199092166020928302919091019091015280517f7a0ed6270000000000000000000000000000000000000000000000000000000090829060039081106108025761080261210d565b6040517fda2175930000000000000000000000000000000000000000000000000000000081526001600160a01b03831660048201526024015b60405180910390fd5b60007f97ee279e000000000000000000000000000000000000000000000000000000006001600160e01b0319831610156117c25763237596db60e11b6001600160e01b0319831610156114ab5762d5f59560e61b6001600160e01b03198316101561130d577f1a8631b2000000000000000000000000000000000000000000000000000000006001600160e01b031983161015611205576001600160e01b031982167f015491d100000000000000000000000000000000000000000000000000000000036111a857507f0000000000000000000000000000000000000000000000000000000000000000919050565b6001600160e01b031982167f178d29d3000000000000000000000000000000000000000000000000000000000361120057507f0000000000000000000000000000000000000000000000000000000000000000919050565b611ec6565b6001600160e01b031982167f1a8631b2000000000000000000000000000000000000000000000000000000000361125d57507f0000000000000000000000000000000000000000000000000000000000000000919050565b6001600160e01b031982167f2032aecd00000000000000000000000000000000000000000000000000000000036112b557507f0000000000000000000000000000000000000000000000000000000000000000919050565b6001600160e01b031982167f339748cb000000000000000000000000000000000000000000000000000000000361120057507f0000000000000000000000000000000000000000000000000000000000000000919050565b63409c7a8960e01b6001600160e01b0319831610156113bc576001600160e01b0319821662d5f59560e61b0361136457507f0000000000000000000000000000000000000000000000000000000000000000919050565b6001600160e01b031982167f3af1f329000000000000000000000000000000000000000000000000000000000361120057507f0000000000000000000000000000000000000000000000000000000000000000919050565b6001600160e01b0319821663409c7a8960e01b036113fb57507f0000000000000000000000000000000000000000000000000000000000000000919050565b6001600160e01b031982167f443e6512000000000000000000000000000000000000000000000000000000000361145357507f0000000000000000000000000000000000000000000000000000000000000000919050565b6001600160e01b031982167f448b9b95000000000000000000000000000000000000000000000000000000000361120057507f0000000000000000000000000000000000000000000000000000000000000000919050565b6335c5ef9960e11b6001600160e01b031983161015611643576314bbdacb60e21b6001600160e01b031983161015611574576001600160e01b0319821663237596db60e11b0361151c57507f0000000000000000000000000000000000000000000000000000000000000000919050565b6001600160e01b031982167f527df199000000000000000000000000000000000000000000000000000000000361120057507f0000000000000000000000000000000000000000000000000000000000000000919050565b6001600160e01b031982167f690807ad00000000000000000000000000000000000000000000000000000000036115cc57507f0000000000000000000000000000000000000000000000000000000000000000919050565b6001600160e01b031982167f694ab559000000000000000000000000000000000000000000000000000000000361162457507f0000000000000000000000000000000000000000000000000000000000000000919050565b6001600160e01b031982166314bbdacb60e21b03611200575030919050565b6383c71b6960e01b6001600160e01b0319831610156116d3576001600160e01b031982166335c5ef9960e11b0361169b57507f0000000000000000000000000000000000000000000000000000000000000000919050565b6001600160e01b031982167f7a0ed6270000000000000000000000000000000000000000000000000000000003611200575030919050565b6001600160e01b031982167f85b29936000000000000000000000000000000000000000000000000000000000361172b57507f0000000000000000000000000000000000000000000000000000000000000000919050565b6001600160e01b031982167f844384aa000000000000000000000000000000000000000000000000000000000361178357507f0000000000000000000000000000000000000000000000000000000000000000919050565b6001600160e01b031982166383c71b6960e01b0361120057507f0000000000000000000000000000000000000000000000000000000000000000919050565b7fcdffacc6000000000000000000000000000000000000000000000000000000006001600160e01b031983161015611b7657635c2fa85d60e11b6001600160e01b0319831610156119d7577facdb32df000000000000000000000000000000000000000000000000000000006001600160e01b0319831610156118ef576001600160e01b031982167fa5f9931b000000000000000000000000000000000000000000000000000000000361189757507f0000000000000000000000000000000000000000000000000000000000000000919050565b6001600160e01b031982167f97ee279e000000000000000000000000000000000000000000000000000000000361120057507f0000000000000000000000000000000000000000000000000000000000000000919050565b6001600160e01b031982167fb7d75b8b000000000000000000000000000000000000000000000000000000000361194757507f0000000000000000000000000000000000000000000000000000000000000000919050565b6001600160e01b031982167facdb32df000000000000000000000000000000000000000000000000000000000361199f57507f0000000000000000000000000000000000000000000000000000000000000000919050565b6001600160e01b031982167fadfca15e0000000000000000000000000000000000000000000000000000000003611200575030919050565b636254e3ef60e11b6001600160e01b031983161015611a87576001600160e01b03198216635c2fa85d60e11b03611a2f57507f0000000000000000000000000000000000000000000000000000000000000000919050565b6001600160e01b031982167fbf1bd434000000000000000000000000000000000000000000000000000000000361120057507f0000000000000000000000000000000000000000000000000000000000000000919050565b6001600160e01b03198216636254e3ef60e11b03611ac657507f0000000000000000000000000000000000000000000000000000000000000000919050565b6001600160e01b031982167fcb591eb20000000000000000000000000000000000000000000000000000000003611b1e57507f0000000000000000000000000000000000000000000000000000000000000000919050565b6001600160e01b031982167fc861a898000000000000000000000000000000000000000000000000000000000361120057507f0000000000000000000000000000000000000000000000000000000000000000919050565b631c2b981360e31b6001600160e01b031983161015611d275763358c23e960e21b6001600160e01b031983161015611c38576001600160e01b031982167fd617b03b0000000000000000000000000000000000000000000000000000000003611c0057507f0000000000000000000000000000000000000000000000000000000000000000919050565b6001600160e01b031982167fcdffacc60000000000000000000000000000000000000000000000000000000003611200575030919050565b6001600160e01b0319821663358c23e960e21b03611c7757507f0000000000000000000000000000000000000000000000000000000000000000919050565b6001600160e01b031982167fdfbc814e0000000000000000000000000000000000000000000000000000000003611ccf57507f0000000000000000000000000000000000000000000000000000000000000000919050565b6001600160e01b031982167fdd371acd000000000000000000000000000000000000000000000000000000000361120057507f0000000000000000000000000000000000000000000000000000000000000000919050565b631efc6ebd60e31b6001600160e01b031983161015611dd7576001600160e01b031982167fe6eaba010000000000000000000000000000000000000000000000000000000003611d9857507f0000000000000000000000000000000000000000000000000000000000000000919050565b6001600160e01b03198216631c2b981360e31b0361120057507f0000000000000000000000000000000000000000000000000000000000000000919050565b6001600160e01b031982167ffa483e720000000000000000000000000000000000000000000000000000000003611e2f57507f0000000000000000000000000000000000000000000000000000000000000000919050565b6001600160e01b03198216631efc6ebd60e31b03611e6e57507f0000000000000000000000000000000000000000000000000000000000000000919050565b6001600160e01b031982167ffdd71f430000000000000000000000000000000000000000000000000000000003611ec657507f0000000000000000000000000000000000000000000000000000000000000000919050565b6040517fd5acfbc20000000000000000000000000000000000000000000000000000000081526001600160e01b0319831660048201526024016110b0565b6000611f1b6000356001600160e01b0319166110b9565b905090565b3660008037600080366000845af43d6000803e808015611f3f573d6000f35b3d6000fd5b6020808252825182820181905260009190848201906040850190845b81811015611f855783516001600160a01b031683529284019291840191600101611f60565b50909695505050505050565b600081518084526020808501945080840160005b83811015611fcb5781516001600160e01b03191687529582019590820190600101611fa5565b509495945050505050565b60006020808301818452808551808352604092508286019150828160051b87010184880160005b83811015612063578883037fffffffffffffffffffffffffffffffffffffffffffffffffffffffffffffffc0018552815180516001600160a01b0316845287015187840187905261205087850182611f91565b9588019593505090860190600101611ffd565b509098975050505050505050565b60006020828403121561208357600080fd5b81356001600160a01b038116811461209a57600080fd5b9392505050565b60208152600061209a6020830184611f91565b6000602082840312156120c657600080fd5b81356001600160e01b03198116811461209a57600080fd5b7f4e487b7100000000000000000000000000000000000000000000000000000000600052604160045260246000fd5b7f4e487b7100000000000000000000000000000000000000000000000000000000600052603260045260246000fdfea2646970667358221220aa01befbc0da496daea419daa70126bd16674272acee9f0136b33e629b76a9ae64736f6c63430008110033",
  "linkReferences": {},
  "deployedLinkReferences": {}
}