{
  "_format": "hh-sol-artifact-1",
  "contractName": "EuphratesMarketFactoryV3",
  "sourceName": "contracts/core/Market/v3/EuphratesMarketFactoryV3.sol",
  "abi": [
    {
      "inputs": [
        {
          "internalType": "address",
          "name": "_yieldContractFactory",
          "type": "address"
        }
      ],
      "stateMutability": "nonpayable",
      "type": "constructor"
    },
    {
      "inputs": [],
      "name": "MarketFactoryExpiredPt",
      "type": "error"
    },
    {
      "inputs": [
        {
          "internalType": "int256",
          "name": "initialAnchor",
          "type": "int256"
        },
        {
          "internalType": "int256",
          "name": "minInitialAnchor",
          "type": "int256"
        }
      ],
      "name": "MarketFactoryInitialAnchorTooLow",
      "type": "error"
    },
    {
      "inputs": [],
      "name": "MarketFactoryInvalidPt",
      "type": "error"
    },
    {
      "inputs": [
        {
          "internalType": "uint80",
          "name": "lnFeeRateRoot",
          "type": "uint80"
        },
        {
          "internalType": "uint256",
          "name": "maxLnFeeRateRoot",
          "type": "uint256"
        }
      ],
      "name": "MarketFactoryLnFeeRateRootTooHigh",
      "type": "error"
    },
    {
      "inputs": [],
      "name": "MarketFactoryMarketExists",
      "type": "error"
    },
    {
      "inputs": [
        {
          "internalType": "uint8",
          "name": "reserveFeePercent",
          "type": "uint8"
        },
        {
          "internalType": "uint8",
          "name": "maxReserveFeePercent",
          "type": "uint8"
        }
      ],
      "name": "MarketFactoryReserveFeePercentTooHigh",
      "type": "error"
    },
    {
      "inputs": [],
      "name": "MarketFactoryZeroTreasury",
      "type": "error"
    },
    {
      "anonymous": false,
      "inputs": [
        {
          "indexed": true,
          "internalType": "address",
          "name": "market",
          "type": "address"
        },
        {
          "indexed": true,
          "internalType": "address",
          "name": "PT",
          "type": "address"
        },
        {
          "indexed": false,
          "internalType": "int256",
          "name": "scalarRoot",
          "type": "int256"
        },
        {
          "indexed": false,
          "internalType": "int256",
          "name": "initialAnchor",
          "type": "int256"
        }
      ],
      "name": "CreateNewMarket",
      "type": "event"
    },
    {
      "anonymous": false,
      "inputs": [
        {
          "indexed": false,
          "internalType": "uint8",
          "name": "version",
          "type": "uint8"
        }
      ],
      "name": "Initialized",
      "type": "event"
    },
    {
      "anonymous": false,
      "inputs": [
        {
          "indexed": true,
          "internalType": "address",
          "name": "treasury",
          "type": "address"
        },
        {
          "indexed": false,
          "internalType": "uint80",
          "name": "defaultLnFeeRateRoot",
          "type": "uint80"
        },
        {
          "indexed": false,
          "internalType": "uint8",
          "name": "reserveFeePercent",
          "type": "uint8"
        }
      ],
      "name": "NewMarketConfig",
      "type": "event"
    },
    {
      "anonymous": false,
      "inputs": [
        {
          "indexed": true,
          "internalType": "address",
          "name": "previousOwner",
          "type": "address"
        },
        {
          "indexed": true,
          "internalType": "address",
          "name": "newOwner",
          "type": "address"
        }
      ],
      "name": "OwnershipTransferred",
      "type": "event"
    },
    {
      "anonymous": false,
      "inputs": [
        {
          "indexed": true,
          "internalType": "address",
          "name": "router",
          "type": "address"
        },
        {
          "indexed": false,
          "internalType": "uint80",
          "name": "lnFeeRateRoot",
          "type": "uint80"
        },
        {
          "indexed": false,
          "internalType": "uint8",
          "name": "reserveFeePercent",
          "type": "uint8"
        }
      ],
      "name": "SetOverriddenFee",
      "type": "event"
    },
    {
      "anonymous": false,
      "inputs": [
        {
          "indexed": true,
          "internalType": "address",
          "name": "router",
          "type": "address"
        }
      ],
      "name": "UnsetOverriddenFee",
      "type": "event"
    },
    {
      "inputs": [],
      "name": "claimOwnership",
      "outputs": [],
      "stateMutability": "nonpayable",
      "type": "function"
    },
    {
      "inputs": [
        {
          "internalType": "address",
          "name": "PT",
          "type": "address"
        },
        {
          "internalType": "address",
          "name": "market",
          "type": "address"
        },
        {
          "internalType": "int256",
          "name": "scalarRoot",
          "type": "int256"
        },
        {
          "internalType": "int256",
          "name": "initialAnchor",
          "type": "int256"
        }
      ],
      "name": "createNewMarket",
      "outputs": [],
      "stateMutability": "nonpayable",
      "type": "function"
    },
    {
      "inputs": [],
      "name": "defaultFee",
      "outputs": [
        {
          "internalType": "uint80",
          "name": "lnFeeRateRoot",
          "type": "uint80"
        },
        {
          "internalType": "uint8",
          "name": "reserveFeePercent",
          "type": "uint8"
        },
        {
          "internalType": "bool",
          "name": "active",
          "type": "bool"
        }
      ],
      "stateMutability": "view",
      "type": "function"
    },
    {
      "inputs": [],
      "name": "externalRewardDistributor",
      "outputs": [
        {
          "internalType": "address",
          "name": "",
          "type": "address"
        }
      ],
      "stateMutability": "view",
      "type": "function"
    },
    {
      "inputs": [
        {
          "internalType": "address",
          "name": "router",
          "type": "address"
        }
      ],
      "name": "getMarketConfig",
      "outputs": [
        {
          "internalType": "address",
          "name": "_treasury",
          "type": "address"
        },
        {
          "internalType": "uint80",
          "name": "_lnFeeRateRoot",
          "type": "uint80"
        },
        {
          "internalType": "uint8",
          "name": "_reserveFeePercent",
          "type": "uint8"
        }
      ],
      "stateMutability": "view",
      "type": "function"
    },
    {
      "inputs": [
        {
          "internalType": "address",
          "name": "_treasury",
          "type": "address"
        },
        {
          "internalType": "uint80",
          "name": "_defaultLnFeeRateRoot",
          "type": "uint80"
        },
        {
          "internalType": "uint8",
          "name": "_defaultReserveFeePercent",
          "type": "uint8"
        },
        {
          "internalType": "address",
          "name": "newExternalRewardDistributor",
          "type": "address"
        }
      ],
      "name": "initialize",
      "outputs": [],
      "stateMutability": "nonpayable",
      "type": "function"
    },
    {
      "inputs": [
        {
          "internalType": "address",
          "name": "market",
          "type": "address"
        }
      ],
      "name": "isValidMarket",
      "outputs": [
        {
          "internalType": "bool",
          "name": "",
          "type": "bool"
        }
      ],
      "stateMutability": "view",
      "type": "function"
    },
    {
      "inputs": [],
      "name": "maxLnFeeRateRoot",
      "outputs": [
        {
          "internalType": "uint256",
          "name": "",
          "type": "uint256"
        }
      ],
      "stateMutability": "view",
      "type": "function"
    },
    {
      "inputs": [],
      "name": "maxReserveFeePercent",
      "outputs": [
        {
          "internalType": "uint8",
          "name": "",
          "type": "uint8"
        }
      ],
      "stateMutability": "view",
      "type": "function"
    },
    {
      "inputs": [],
      "name": "minInitialAnchor",
      "outputs": [
        {
          "internalType": "int256",
          "name": "",
          "type": "int256"
        }
      ],
      "stateMutability": "view",
      "type": "function"
    },
    {
      "inputs": [
        {
          "internalType": "address",
          "name": "",
          "type": "address"
        }
      ],
      "name": "overriddenFee",
      "outputs": [
        {
          "internalType": "uint80",
          "name": "lnFeeRateRoot",
          "type": "uint80"
        },
        {
          "internalType": "uint8",
          "name": "reserveFeePercent",
          "type": "uint8"
        },
        {
          "internalType": "bool",
          "name": "active",
          "type": "bool"
        }
      ],
      "stateMutability": "view",
      "type": "function"
    },
    {
      "inputs": [],
      "name": "owner",
      "outputs": [
        {
          "internalType": "address",
          "name": "",
          "type": "address"
        }
      ],
      "stateMutability": "view",
      "type": "function"
    },
    {
      "inputs": [],
      "name": "pendingOwner",
      "outputs": [
        {
          "internalType": "address",
          "name": "",
          "type": "address"
        }
      ],
      "stateMutability": "view",
      "type": "function"
    },
    {
      "inputs": [
        {
          "internalType": "uint80",
          "name": "newLnFeeRateRoot",
          "type": "uint80"
        },
        {
          "internalType": "uint8",
          "name": "newReserveFeePercent",
          "type": "uint8"
        }
      ],
      "name": "setDefaultFee",
      "outputs": [],
      "stateMutability": "nonpayable",
      "type": "function"
    },
    {
      "inputs": [
        {
          "internalType": "address",
          "name": "router",
          "type": "address"
        },
        {
          "internalType": "uint80",
          "name": "newLnFeeRateRoot",
          "type": "uint80"
        },
        {
          "internalType": "uint8",
          "name": "newReserveFeePercent",
          "type": "uint8"
        }
      ],
      "name": "setOverriddenFee",
      "outputs": [],
      "stateMutability": "nonpayable",
      "type": "function"
    },
    {
      "inputs": [
        {
          "internalType": "address",
          "name": "newTreasury",
          "type": "address"
        }
      ],
      "name": "setTreasury",
      "outputs": [],
      "stateMutability": "nonpayable",
      "type": "function"
    },
    {
      "inputs": [
        {
          "internalType": "address",
          "name": "newOwner",
          "type": "address"
        },
        {
          "internalType": "bool",
          "name": "direct",
          "type": "bool"
        },
        {
          "internalType": "bool",
          "name": "renounce",
          "type": "bool"
        }
      ],
      "name": "transferOwnership",
      "outputs": [],
      "stateMutability": "nonpayable",
      "type": "function"
    },
    {
      "inputs": [],
      "name": "treasury",
      "outputs": [
        {
          "internalType": "address",
          "name": "",
          "type": "address"
        }
      ],
      "stateMutability": "view",
      "type": "function"
    },
    {
      "inputs": [
        {
          "internalType": "address",
          "name": "router",
          "type": "address"
        }
      ],
      "name": "unsetOverriddenFee",
      "outputs": [],
      "stateMutability": "nonpayable",
      "type": "function"
    },
    {
      "inputs": [],
      "name": "yieldContractFactory",
      "outputs": [
        {
          "internalType": "address",
          "name": "",
          "type": "address"
        }
      ],
      "stateMutability": "view",
      "type": "function"
    }
  ],
  "bytecode": "0x60c06040523480156200001157600080fd5b506040516200215938038062002159833981016040819052620000349162000615565b6001600160a01b0381166080526200007960646200005c670de0b6b3a764000060696200065d565b620000689190620006a9565b6200008360201b62000fad1760201c565b60a05250620006e9565b6000808213620000c95760405162461bcd60e51b815260206004820152600d60248201526c6f7574206f6620626f756e647360981b604482015260640160405180910390fd5b670c7d713b49da000082138015620000e85750670f43fc2c04ee000082125b156200011957670de0b6b3a764000062000102836200012a565b8162000112576200011262000693565b0592915050565b620001248262000255565b92915050565b670de0b6b3a7640000026000806ec097ce7bc90715b34b9f1000000000808401906ec097ce7bc90715b34b9f0fffffffff19850102816200016f576200016f62000693565b05905060006ec097ce7bc90715b34b9f100000000082800205905081806ec097ce7bc90715b34b9f100000000081840205915060038205016ec097ce7bc90715b34b9f100000000082840205915060058205016ec097ce7bc90715b34b9f100000000082840205915060078205016ec097ce7bc90715b34b9f100000000082840205915060098205016ec097ce7bc90715b34b9f1000000000828402059150600b8205016ec097ce7bc90715b34b9f1000000000828402059150600d8205016ec097ce7bc90715b34b9f1000000000828402059150600f82050160020295945050505050565b6000670de0b6b3a76400008212156200029d5762000294826ec097ce7bc90715b34b9f1000000000816200028d576200028d62000693565b0562000255565b60000392915050565b60007e1600ef3172e58d2e933ec884fde10064c63b5372d805e203c00000000000008312620002ef57770195e54c5dd42177f53a27172fa9ec630262827000000000830592506806f05b59d3b2000000015b73011798004d755d3c8bc8e03204cf44619e000000831262000328576b1425982cf597cd205cef7380830592506803782dace9d9000000015b606492830292026e01855144814a7ff805980ff0084000831262000371576e01855144814a7ff805980ff008400068056bc75e2d63100000840205925068ad78ebc5ac62000000015b6b02df0ab5a80a22c61ab5a7008312620003ad576b02df0ab5a80a22c61ab5a70068056bc75e2d6310000084020592506856bc75e2d631000000015b693f1fce3da636ea5cf8508312620003e557693f1fce3da636ea5cf85068056bc75e2d631000008402059250682b5e3af16b18800000015b690127fa27722cc06cc5e283126200041d57690127fa27722cc06cc5e268056bc75e2d6310000084020592506815af1d78b58c400000015b68280e60114edb805d038312620004535768280e60114edb805d0368056bc75e2d631000008402059250680ad78ebc5ac6200000015b680ebc5fb4174612111083126200047f57680ebc5fb4174612111068056bc75e2d631000009384020592015b6808f00f760a4b2db55d8312620004b5576808f00f760a4b2db55d68056bc75e2d6310000084020592506802b5e3af16b1880000015b6806f5f17757889379378312620004eb576806f5f177578893793768056bc75e2d63100000840205925068015af1d78b58c40000015b6806248f33704b286603831262000520576806248f33704b28660368056bc75e2d63100000840205925067ad78ebc5ac620000015b6805c548670b9510e7ac831262000555576805c548670b9510e7ac68056bc75e2d6310000084020592506756bc75e2d6310000015b600068056bc75e2d63100000840168056bc75e2d63100000808603028162000581576200058162000693565b059050600068056bc75e2d63100000828002059050818068056bc75e2d63100000818402059150600382050168056bc75e2d63100000828402059150600582050168056bc75e2d63100000828402059150600782050168056bc75e2d63100000828402059150600982050168056bc75e2d63100000828402059150600b820501600202606485820105979650505050505050565b6000602082840312156200062857600080fd5b81516001600160a01b03811681146200064057600080fd5b9392505050565b634e487b7160e01b600052601160045260246000fd5b80820260008212600160ff1b841416156200067c576200067c62000647565b818105831482151762000124576200012462000647565b634e487b7160e01b600052601260045260246000fd5b600082620006c757634e487b7160e01b600052601260045260246000fd5b600160ff1b821460001984141615620006e457620006e462000647565b500590565b60805160a051611a35620007246000396000818161023b0152818161107301526110df0152600081816102f901526105ad0152611a356000f3fe608060405234801561001057600080fd5b506004361061016c5760003560e01c80638da5cb5b116100cd578063e30c397811610081578063e50bf2dc11610066578063e50bf2dc146103cf578063eb279b6f146103e9578063f0f44260146103fc57600080fd5b8063e30c3978146103a9578063e376ecf2146103bc57600080fd5b8063a3a4d69a116100b2578063a3a4d69a14610341578063a63e0eca14610350578063c7bfd2fd1461036357600080fd5b80638da5cb5b1461031b578063958330d91461032e57600080fd5b80634facfd7a116101245780635a6c72d0116101095780635a6c72d01461028e57806361d027b3146102c957806387a409a2146102f457600080fd5b80634facfd7a1461023657806358e6309f1461026b57600080fd5b8063102eed3c11610155578063102eed3c1461019957806342871ac6146101ac5780634e71e0c81461022e57600080fd5b8063078dfbe714610171578063088643cc14610186575b600080fd5b61018461017f3660046117e9565b61040f565b005b610184610194366004611832565b610575565b6101846101a736600461189f565b610860565b6101fd6101ba3660046118d2565b60356020526000908152604090205469ffffffffffffffffffff81169060ff6a010000000000000000000082048116916b01000000000000000000000090041683565b6040805169ffffffffffffffffffff909416845260ff90921660208401521515908201526060015b60405180910390f35b610184610948565b61025d7f000000000000000000000000000000000000000000000000000000000000000081565b604051908152602001610225565b61027e6102793660046118d2565b610a12565b6040519015158152602001610225565b6034546101fd9069ffffffffffffffffffff81169060ff6a010000000000000000000082048116916b01000000000000000000000090041683565b6032546102dc906001600160a01b031681565b6040516001600160a01b039091168152602001610225565b6102dc7f000000000000000000000000000000000000000000000000000000000000000081565b6000546102dc906001600160a01b031681565b61018461033c3660046118d2565b610a25565b61025d670de0b6b3a764000081565b61018461035e3660046118ed565b610ae6565b6103766103713660046118d2565b610c25565b604080516001600160a01b03909416845269ffffffffffffffffffff909216602084015260ff1690820152606001610225565b6001546102dc906001600160a01b031681565b6033546102dc906001600160a01b031681565b6103d7606481565b60405160ff9091168152602001610225565b6101846103f7366004611930565b610cc2565b61018461040a3660046118d2565b610ee0565b6000546001600160a01b0316331461046e5760405162461bcd60e51b815260206004820181905260248201527f4f776e61626c653a2063616c6c6572206973206e6f7420746865206f776e657260448201526064015b60405180910390fd5b8115610546576001600160a01b0383161515806104885750805b6104d45760405162461bcd60e51b815260206004820152601560248201527f4f776e61626c653a207a65726f206164647265737300000000000000000000006044820152606401610465565b600080546040516001600160a01b03808716939216917f8be0079c531659141344cd1fd0a4f28419497f9722a3daafe3b4186f6b6457e091a3600080546001600160a01b03851673ffffffffffffffffffffffffffffffffffffffff1991821617909155600180549091169055505050565b600180546001600160a01b03851673ffffffffffffffffffffffffffffffffffffffff19909116179055505050565b6040517f18b7373d0000000000000000000000000000000000000000000000000000000081526001600160a01b0385811660048301527f000000000000000000000000000000000000000000000000000000000000000016906318b7373d90602401602060405180830381865afa1580156105f4573d6000803e3d6000fd5b505050506040513d601f19601f820116820180604052508101906106189190611984565b61064e576040517f781eae2d00000000000000000000000000000000000000000000000000000000815260040160405180910390fd5b836001600160a01b0316632f13b60c6040518163ffffffff1660e01b8152600401602060405180830381865afa15801561068c573d6000803e3d6000fd5b505050506040513d601f19601f820116820180604052508101906106b09190611984565b156106e7576040517fe29ecf1500000000000000000000000000000000000000000000000000000000815260040160405180910390fd5b6001600160a01b0384811660009081526036602090815260408083208684528252808320858452909152902054161561074c576040517f4a58886600000000000000000000000000000000000000000000000000000000815260040160405180910390fd5b670de0b6b3a764000081121561079f576040517f7b48ef7000000000000000000000000000000000000000000000000000000000815260048101829052670de0b6b3a76400006024820152604401610465565b6001600160a01b03848116600090815260366020908152604080832086845282528083208584529091529020805473ffffffffffffffffffffffffffffffffffffffff19169185169190911790556107f8603784611055565b610804576108046119a1565b836001600160a01b0316836001600160a01b03167f166ae5f55615b65bbd9a2496e98d4e4d78ca15bd6127c0fe2dc27b76f6c031438484604051610852929190918252602082015260400190565b60405180910390a350505050565b6000546001600160a01b031633146108ba5760405162461bcd60e51b815260206004820181905260248201527f4f776e61626c653a2063616c6c6572206973206e6f7420746865206f776e65726044820152606401610465565b6108c48282611071565b6040805160608101825269ffffffffffffffffffff841680825260ff84166020830181905260019290930191909152603480546b0100000000000000000000006affffffffffffffffffffff199091169092176a0100000000000000000000909302929092176bff00000000000000000000001916179055610944611155565b5050565b6001546001600160a01b03163381146109a35760405162461bcd60e51b815260206004820181905260248201527f4f776e61626c653a2063616c6c657220213d2070656e64696e67206f776e65726044820152606401610465565b600080546040516001600160a01b03808516939216917f8be0079c531659141344cd1fd0a4f28419497f9722a3daafe3b4186f6b6457e091a3600080546001600160a01b0390921673ffffffffffffffffffffffffffffffffffffffff19928316179055600180549091169055565b6000610a1f6037836111be565b92915050565b6000546001600160a01b03163314610a7f5760405162461bcd60e51b815260206004820181905260248201527f4f776e61626c653a2063616c6c6572206973206e6f7420746865206f776e65726044820152606401610465565b6001600160a01b03811660008181526035602052604080822080547fffffffffffffffffffffffffffffffffffffffff000000000000000000000000169055517fde6e91eb95830256384b447e0ee564556c85ade807db58dc6e1d18688418aacd9190a250565b6000546001600160a01b03163314610b405760405162461bcd60e51b815260206004820181905260248201527f4f776e61626c653a2063616c6c6572206973206e6f7420746865206f776e65726044820152606401610465565b610b4a8282611071565b6040805160608101825269ffffffffffffffffffff84811680835260ff858116602080860182815260018789019081526001600160a01b038c166000818152603585528a9020985189549351925115156b010000000000000000000000026bff000000000000000000000019939097166a0100000000000000000000026affffffffffffffffffffff199094169816979097179190911716929092179094558451918252810192909252917fa19e7426d30754f50d54a9c1c82b400fc1b4516ab9e91e20269634fb8b422752910160405180910390a2505050565b6032546034546001600160a01b038381166000908152603560209081526040918290208251606081018452905469ffffffffffffffffffff81811683526a010000000000000000000080830460ff908116958501959095526b01000000000000000000000090920484161580159584019590955294909616959385169493909304169190610cba578051602082015190935091505b509193909250565b6001547501000000000000000000000000000000000000000000900460ff1615808015610d0b57506001805474010000000000000000000000000000000000000000900460ff16105b80610d3c5750303b158015610d3c57506001805474010000000000000000000000000000000000000000900460ff16145b610dae5760405162461bcd60e51b815260206004820152602e60248201527f496e697469616c697a61626c653a20636f6e747261637420697320616c72656160448201527f647920696e697469616c697a65640000000000000000000000000000000000006064820152608401610465565b600180547fffffffffffffffffffffff00ffffffffffffffffffffffffffffffffffffffff16740100000000000000000000000000000000000000001790558015610e3457600180547fffffffffffffffffffff00ffffffffffffffffffffffffffffffffffffffffff1675010000000000000000000000000000000000000000001790555b610e3c6111e0565b610e4585610ee0565b610e4f8484610860565b6033805473ffffffffffffffffffffffffffffffffffffffff19166001600160a01b0384161790558015610ed957600180547fffffffffffffffffffff00ffffffffffffffffffffffffffffffffffffffffff1681556040519081527f7f26b83ff96e1f2b6a682f133852f6798a09c465da95921460cefb38474024989060200160405180910390a15b5050505050565b6000546001600160a01b03163314610f3a5760405162461bcd60e51b815260206004820181905260248201527f4f776e61626c653a2063616c6c6572206973206e6f7420746865206f776e65726044820152606401610465565b6001600160a01b038116610f7a576040517f2bcb92ec00000000000000000000000000000000000000000000000000000000815260040160405180910390fd5b6032805473ffffffffffffffffffffffffffffffffffffffff19166001600160a01b038316179055610faa611155565b50565b6000808213610ffe5760405162461bcd60e51b815260206004820152600d60248201527f6f7574206f6620626f756e6473000000000000000000000000000000000000006044820152606401610465565b670c7d713b49da00008213801561101c5750670f43fc2c04ee000082125b1561104757670de0b6b3a764000061103383611292565b81611040576110406119d0565b0592915050565b610a1f826113ca565b919050565b600061106a836001600160a01b038416611775565b9392505050565b7f00000000000000000000000000000000000000000000000000000000000000008269ffffffffffffffffffff16111561110b576040517f163cca2a00000000000000000000000000000000000000000000000000000000815269ffffffffffffffffffff831660048201527f00000000000000000000000000000000000000000000000000000000000000006024820152604401610465565b606460ff82161115610944576040517fb6cd18d600000000000000000000000000000000000000000000000000000000815260ff8216600482015260646024820152604401610465565b6032546034546040805169ffffffffffffffffffff831681526a010000000000000000000090920460ff1660208301526001600160a01b03909216917fe7b39c33a288abde49b8d831b2125b22dbb151766d6aa52b1511b340923d4587910160405180910390a2565b6001600160a01b0381166000908152600183016020526040812054151561106a565b6001547501000000000000000000000000000000000000000000900460ff166112715760405162461bcd60e51b815260206004820152602b60248201527f496e697469616c697a61626c653a20636f6e7472616374206973206e6f74206960448201527f6e697469616c697a696e670000000000000000000000000000000000000000006064820152608401610465565b6000805473ffffffffffffffffffffffffffffffffffffffff191633179055565b670de0b6b3a7640000026000806ec097ce7bc90715b34b9f1000000000808401907fffffffffffffffffffffffffffffffffff3f68318436f8ea4cb460f000000000850102816112e4576112e46119d0565b05905060006ec097ce7bc90715b34b9f100000000082800205905081806ec097ce7bc90715b34b9f100000000081840205915060038205016ec097ce7bc90715b34b9f100000000082840205915060058205016ec097ce7bc90715b34b9f100000000082840205915060078205016ec097ce7bc90715b34b9f100000000082840205915060098205016ec097ce7bc90715b34b9f1000000000828402059150600b8205016ec097ce7bc90715b34b9f1000000000828402059150600d8205016ec097ce7bc90715b34b9f1000000000828402059150600f82050160020295945050505050565b6000670de0b6b3a764000082121561140c57611403826ec097ce7bc90715b34b9f1000000000816113fd576113fd6119d0565b056113ca565b60000392915050565b60007e1600ef3172e58d2e933ec884fde10064c63b5372d805e203c0000000000000831261145d57770195e54c5dd42177f53a27172fa9ec630262827000000000830592506806f05b59d3b2000000015b73011798004d755d3c8bc8e03204cf44619e0000008312611495576b1425982cf597cd205cef7380830592506803782dace9d9000000015b606492830292026e01855144814a7ff805980ff008400083126114dd576e01855144814a7ff805980ff008400068056bc75e2d63100000840205925068ad78ebc5ac62000000015b6b02df0ab5a80a22c61ab5a7008312611518576b02df0ab5a80a22c61ab5a70068056bc75e2d6310000084020592506856bc75e2d631000000015b693f1fce3da636ea5cf850831261154f57693f1fce3da636ea5cf85068056bc75e2d631000008402059250682b5e3af16b18800000015b690127fa27722cc06cc5e2831261158657690127fa27722cc06cc5e268056bc75e2d6310000084020592506815af1d78b58c400000015b68280e60114edb805d0383126115bb5768280e60114edb805d0368056bc75e2d631000008402059250680ad78ebc5ac6200000015b680ebc5fb4174612111083126115e657680ebc5fb4174612111068056bc75e2d631000009384020592015b6808f00f760a4b2db55d831261161b576808f00f760a4b2db55d68056bc75e2d6310000084020592506802b5e3af16b1880000015b6806f5f17757889379378312611650576806f5f177578893793768056bc75e2d63100000840205925068015af1d78b58c40000015b6806248f33704b2866038312611684576806248f33704b28660368056bc75e2d63100000840205925067ad78ebc5ac620000015b6805c548670b9510e7ac83126116b8576805c548670b9510e7ac68056bc75e2d6310000084020592506756bc75e2d6310000015b600068056bc75e2d63100000840168056bc75e2d6310000080860302816116e1576116e16119d0565b059050600068056bc75e2d63100000828002059050818068056bc75e2d63100000818402059150600382050168056bc75e2d63100000828402059150600582050168056bc75e2d63100000828402059150600782050168056bc75e2d63100000828402059150600982050168056bc75e2d63100000828402059150600b820501600202606485820105979650505050505050565b60008181526001830160205260408120546117bc57508154600181810184556000848152602080822090930184905584548482528286019093526040902091909155610a1f565b506000610a1f565b80356001600160a01b038116811461105057600080fd5b8015158114610faa57600080fd5b6000806000606084860312156117fe57600080fd5b611807846117c4565b92506020840135611817816117db565b91506040840135611827816117db565b809150509250925092565b6000806000806080858703121561184857600080fd5b611851856117c4565b935061185f602086016117c4565b93969395505050506040820135916060013590565b803569ffffffffffffffffffff8116811461105057600080fd5b803560ff8116811461105057600080fd5b600080604083850312156118b257600080fd5b6118bb83611874565b91506118c96020840161188e565b90509250929050565b6000602082840312156118e457600080fd5b61106a826117c4565b60008060006060848603121561190257600080fd5b61190b846117c4565b925061191960208501611874565b91506119276040850161188e565b90509250925092565b6000806000806080858703121561194657600080fd5b61194f856117c4565b935061195d60208601611874565b925061196b6040860161188e565b9150611979606086016117c4565b905092959194509250565b60006020828403121561199657600080fd5b815161106a816117db565b7f4e487b7100000000000000000000000000000000000000000000000000000000600052600160045260246000fd5b7f4e487b7100000000000000000000000000000000000000000000000000000000600052601260045260246000fdfea26469706673582212201d31a9eea6273260dd5921cb197a7a91a51950af1d60222b7a3d7cf75f76ce3364736f6c63430008110033",
  "linkReferences": {},
  "deployedLinkReferences": {}
}