{
  "_format": "hh-sol-artifact-1",
  "contractName": "EuphratesYieldTokenV2",
  "sourceName": "contracts/core/YieldContractsV2/EuphratesYieldTokenV2.sol",
  "abi": [
    {
      "inputs": [
        {
          "internalType": "address",
          "name": "_SY",
          "type": "address"
        },
        {
          "internalType": "address",
          "name": "_PT",
          "type": "address"
        },
        {
          "internalType": "address",
          "name": "_factory",
          "type": "address"
        },
        {
          "internalType": "string",
          "name": "_name",
          "type": "string"
        },
        {
          "internalType": "string",
          "name": "_symbol",
          "type": "string"
        },
        {
          "internalType": "uint8",
          "name": "__decimals",
          "type": "uint8"
        },
        {
          "internalType": "uint256",
          "name": "_expiry",
          "type": "uint256"
        },
        {
          "internalType": "bool",
          "name": "_doCacheIndexSameBlock",
          "type": "bool"
        }
      ],
      "stateMutability": "nonpayable",
      "type": "constructor"
    },
    {
      "inputs": [],
      "name": "ArrayEmpty",
      "type": "error"
    },
    {
      "inputs": [],
      "name": "ArrayLengthMismatch",
      "type": "error"
    },
    {
      "inputs": [],
      "name": "YCExpired",
      "type": "error"
    },
    {
      "inputs": [],
      "name": "YCNoFloatingSy",
      "type": "error"
    },
    {
      "inputs": [],
      "name": "YCNotExpired",
      "type": "error"
    },
    {
      "inputs": [],
      "name": "YCNothingToRedeem",
      "type": "error"
    },
    {
      "inputs": [],
      "name": "YCPostExpiryDataNotSet",
      "type": "error"
    },
    {
      "inputs": [
        {
          "internalType": "uint256",
          "name": "actualSy",
          "type": "uint256"
        },
        {
          "internalType": "uint256",
          "name": "requiredSy",
          "type": "uint256"
        }
      ],
      "name": "YieldContractInsufficientSy",
      "type": "error"
    },
    {
      "anonymous": false,
      "inputs": [
        {
          "indexed": true,
          "internalType": "address",
          "name": "owner",
          "type": "address"
        },
        {
          "indexed": true,
          "internalType": "address",
          "name": "spender",
          "type": "address"
        },
        {
          "indexed": false,
          "internalType": "uint256",
          "name": "value",
          "type": "uint256"
        }
      ],
      "name": "Approval",
      "type": "event"
    },
    {
      "anonymous": false,
      "inputs": [
        {
          "indexed": true,
          "internalType": "address",
          "name": "caller",
          "type": "address"
        },
        {
          "indexed": true,
          "internalType": "address",
          "name": "receiver",
          "type": "address"
        },
        {
          "indexed": false,
          "internalType": "uint256",
          "name": "amountPYToRedeem",
          "type": "uint256"
        },
        {
          "indexed": false,
          "internalType": "uint256",
          "name": "amountSyOut",
          "type": "uint256"
        }
      ],
      "name": "Burn",
      "type": "event"
    },
    {
      "anonymous": false,
      "inputs": [
        {
          "indexed": false,
          "internalType": "uint256",
          "name": "amountInterestFee",
          "type": "uint256"
        }
      ],
      "name": "CollectInterestFee",
      "type": "event"
    },
    {
      "anonymous": false,
      "inputs": [
        {
          "indexed": true,
          "internalType": "address",
          "name": "rewardToken",
          "type": "address"
        },
        {
          "indexed": false,
          "internalType": "uint256",
          "name": "amountRewardFee",
          "type": "uint256"
        }
      ],
      "name": "CollectRewardFee",
      "type": "event"
    },
    {
      "anonymous": false,
      "inputs": [
        {
          "indexed": true,
          "internalType": "address",
          "name": "caller",
          "type": "address"
        },
        {
          "indexed": true,
          "internalType": "address",
          "name": "receiverPT",
          "type": "address"
        },
        {
          "indexed": true,
          "internalType": "address",
          "name": "receiverYT",
          "type": "address"
        },
        {
          "indexed": false,
          "internalType": "uint256",
          "name": "amountSyToMint",
          "type": "uint256"
        },
        {
          "indexed": false,
          "internalType": "uint256",
          "name": "amountPYOut",
          "type": "uint256"
        }
      ],
      "name": "Mint",
      "type": "event"
    },
    {
      "anonymous": false,
      "inputs": [
        {
          "indexed": true,
          "internalType": "address",
          "name": "user",
          "type": "address"
        },
        {
          "indexed": false,
          "internalType": "uint256",
          "name": "interestOut",
          "type": "uint256"
        }
      ],
      "name": "RedeemInterest",
      "type": "event"
    },
    {
      "anonymous": false,
      "inputs": [
        {
          "indexed": true,
          "internalType": "address",
          "name": "user",
          "type": "address"
        },
        {
          "indexed": false,
          "internalType": "uint256[]",
          "name": "amountRewardsOut",
          "type": "uint256[]"
        }
      ],
      "name": "RedeemRewards",
      "type": "event"
    },
    {
      "anonymous": false,
      "inputs": [
        {
          "indexed": true,
          "internalType": "address",
          "name": "from",
          "type": "address"
        },
        {
          "indexed": true,
          "internalType": "address",
          "name": "to",
          "type": "address"
        },
        {
          "indexed": false,
          "internalType": "uint256",
          "name": "value",
          "type": "uint256"
        }
      ],
      "name": "Transfer",
      "type": "event"
    },
    {
      "anonymous": false,
      "inputs": [
        {
          "indexed": false,
          "internalType": "uint256[]",
          "name": "amountRewardsOut",
          "type": "uint256[]"
        },
        {
          "indexed": false,
          "internalType": "uint256",
          "name": "syOut",
          "type": "uint256"
        }
      ],
      "name": "WithdrawFeeToTreasury",
      "type": "event"
    },
    {
      "inputs": [],
      "name": "PT",
      "outputs": [
        {
          "internalType": "address",
          "name": "",
          "type": "address"
        }
      ],
      "stateMutability": "view",
      "type": "function"
    },
    {
      "inputs": [],
      "name": "SY",
      "outputs": [
        {
          "internalType": "address",
          "name": "",
          "type": "address"
        }
      ],
      "stateMutability": "view",
      "type": "function"
    },
    {
      "inputs": [
        {
          "internalType": "address",
          "name": "owner",
          "type": "address"
        },
        {
          "internalType": "address",
          "name": "spender",
          "type": "address"
        }
      ],
      "name": "allowance",
      "outputs": [
        {
          "internalType": "uint256",
          "name": "",
          "type": "uint256"
        }
      ],
      "stateMutability": "view",
      "type": "function"
    },
    {
      "inputs": [
        {
          "internalType": "address",
          "name": "spender",
          "type": "address"
        },
        {
          "internalType": "uint256",
          "name": "amount",
          "type": "uint256"
        }
      ],
      "name": "approve",
      "outputs": [
        {
          "internalType": "bool",
          "name": "",
          "type": "bool"
        }
      ],
      "stateMutability": "nonpayable",
      "type": "function"
    },
    {
      "inputs": [
        {
          "internalType": "address",
          "name": "account",
          "type": "address"
        }
      ],
      "name": "balanceOf",
      "outputs": [
        {
          "internalType": "uint256",
          "name": "",
          "type": "uint256"
        }
      ],
      "stateMutability": "view",
      "type": "function"
    },
    {
      "inputs": [],
      "name": "decimals",
      "outputs": [
        {
          "internalType": "uint8",
          "name": "",
          "type": "uint8"
        }
      ],
      "stateMutability": "view",
      "type": "function"
    },
    {
      "inputs": [],
      "name": "doCacheIndexSameBlock",
      "outputs": [
        {
          "internalType": "bool",
          "name": "",
          "type": "bool"
        }
      ],
      "stateMutability": "view",
      "type": "function"
    },
    {
      "inputs": [],
      "name": "expiry",
      "outputs": [
        {
          "internalType": "uint256",
          "name": "",
          "type": "uint256"
        }
      ],
      "stateMutability": "view",
      "type": "function"
    },
    {
      "inputs": [],
      "name": "factory",
      "outputs": [
        {
          "internalType": "address",
          "name": "",
          "type": "address"
        }
      ],
      "stateMutability": "view",
      "type": "function"
    },
    {
      "inputs": [],
      "name": "getPostExpiryData",
      "outputs": [
        {
          "internalType": "uint256",
          "name": "firstPYIndex",
          "type": "uint256"
        }
      ],
      "stateMutability": "view",
      "type": "function"
    },
    {
      "inputs": [],
      "name": "getRewardTokens",
      "outputs": [
        {
          "internalType": "address[]",
          "name": "",
          "type": "address[]"
        }
      ],
      "stateMutability": "view",
      "type": "function"
    },
    {
      "inputs": [],
      "name": "globalInterestIndex",
      "outputs": [
        {
          "internalType": "uint256",
          "name": "",
          "type": "uint256"
        }
      ],
      "stateMutability": "view",
      "type": "function"
    },
    {
      "inputs": [],
      "name": "isDistributingInterestAndRewards",
      "outputs": [
        {
          "internalType": "bool",
          "name": "",
          "type": "bool"
        }
      ],
      "stateMutability": "view",
      "type": "function"
    },
    {
      "inputs": [],
      "name": "isExpired",
      "outputs": [
        {
          "internalType": "bool",
          "name": "",
          "type": "bool"
        }
      ],
      "stateMutability": "view",
      "type": "function"
    },
    {
      "inputs": [],
      "name": "lastInterestBlock",
      "outputs": [
        {
          "internalType": "uint256",
          "name": "",
          "type": "uint256"
        }
      ],
      "stateMutability": "view",
      "type": "function"
    },
    {
      "inputs": [],
      "name": "lastRewardBlock",
      "outputs": [
        {
          "internalType": "uint256",
          "name": "",
          "type": "uint256"
        }
      ],
      "stateMutability": "view",
      "type": "function"
    },
    {
      "inputs": [
        {
          "internalType": "address",
          "name": "receiverPT",
          "type": "address"
        },
        {
          "internalType": "address",
          "name": "receiverYT",
          "type": "address"
        }
      ],
      "name": "mintPY",
      "outputs": [
        {
          "internalType": "uint256",
          "name": "amountPYOut",
          "type": "uint256"
        }
      ],
      "stateMutability": "nonpayable",
      "type": "function"
    },
    {
      "inputs": [
        {
          "internalType": "address[]",
          "name": "receiverPTs",
          "type": "address[]"
        },
        {
          "internalType": "address[]",
          "name": "receiverYTs",
          "type": "address[]"
        },
        {
          "internalType": "uint256[]",
          "name": "amountSyToMints",
          "type": "uint256[]"
        }
      ],
      "name": "mintPYMulti",
      "outputs": [
        {
          "internalType": "uint256[]",
          "name": "amountPYOuts",
          "type": "uint256[]"
        }
      ],
      "stateMutability": "nonpayable",
      "type": "function"
    },
    {
      "inputs": [],
      "name": "name",
      "outputs": [
        {
          "internalType": "string",
          "name": "",
          "type": "string"
        }
      ],
      "stateMutability": "view",
      "type": "function"
    },
    {
      "inputs": [],
      "name": "postExpiry",
      "outputs": [
        {
          "internalType": "uint256",
          "name": "firstPYIndex",
          "type": "uint256"
        }
      ],
      "stateMutability": "view",
      "type": "function"
    },
    {
      "inputs": [],
      "name": "pyIndexCurrent",
      "outputs": [
        {
          "internalType": "uint256",
          "name": "currentIndex",
          "type": "uint256"
        }
      ],
      "stateMutability": "nonpayable",
      "type": "function"
    },
    {
      "inputs": [],
      "name": "pyIndexLastUpdatedBlock",
      "outputs": [
        {
          "internalType": "uint128",
          "name": "",
          "type": "uint128"
        }
      ],
      "stateMutability": "view",
      "type": "function"
    },
    {
      "inputs": [],
      "name": "pyIndexStored",
      "outputs": [
        {
          "internalType": "uint256",
          "name": "",
          "type": "uint256"
        }
      ],
      "stateMutability": "view",
      "type": "function"
    },
    {
      "inputs": [
        {
          "internalType": "address",
          "name": "user",
          "type": "address"
        },
        {
          "internalType": "bool",
          "name": "redeemInterest",
          "type": "bool"
        },
        {
          "internalType": "bool",
          "name": "redeemRewards",
          "type": "bool"
        }
      ],
      "name": "redeemDueInterestAndRewards",
      "outputs": [
        {
          "internalType": "uint256",
          "name": "interestOut",
          "type": "uint256"
        },
        {
          "internalType": "uint256[]",
          "name": "rewardsOut",
          "type": "uint256[]"
        }
      ],
      "stateMutability": "nonpayable",
      "type": "function"
    },
    {
      "inputs": [],
      "name": "redeemInterestAndRewardsPostExpiryForTreasury",
      "outputs": [],
      "stateMutability": "nonpayable",
      "type": "function"
    },
    {
      "inputs": [
        {
          "internalType": "address",
          "name": "receiver",
          "type": "address"
        }
      ],
      "name": "redeemPY",
      "outputs": [
        {
          "internalType": "uint256",
          "name": "amountSyOut",
          "type": "uint256"
        }
      ],
      "stateMutability": "nonpayable",
      "type": "function"
    },
    {
      "inputs": [
        {
          "internalType": "address[]",
          "name": "receivers",
          "type": "address[]"
        },
        {
          "internalType": "uint256[]",
          "name": "amountPYToRedeems",
          "type": "uint256[]"
        }
      ],
      "name": "redeemPYMulti",
      "outputs": [
        {
          "internalType": "uint256[]",
          "name": "amountSyOuts",
          "type": "uint256[]"
        }
      ],
      "stateMutability": "nonpayable",
      "type": "function"
    },
    {
      "inputs": [],
      "name": "rewardIndexesCurrent",
      "outputs": [
        {
          "internalType": "uint256[]",
          "name": "",
          "type": "uint256[]"
        }
      ],
      "stateMutability": "nonpayable",
      "type": "function"
    },
    {
      "inputs": [
        {
          "internalType": "address",
          "name": "",
          "type": "address"
        }
      ],
      "name": "rewardState",
      "outputs": [
        {
          "internalType": "uint128",
          "name": "index",
          "type": "uint128"
        },
        {
          "internalType": "uint128",
          "name": "lastBalance",
          "type": "uint128"
        }
      ],
      "stateMutability": "view",
      "type": "function"
    },
    {
      "inputs": [],
      "name": "setPostExpiryData",
      "outputs": [],
      "stateMutability": "nonpayable",
      "type": "function"
    },
    {
      "inputs": [],
      "name": "syReserve",
      "outputs": [
        {
          "internalType": "uint256",
          "name": "",
          "type": "uint256"
        }
      ],
      "stateMutability": "view",
      "type": "function"
    },
    {
      "inputs": [],
      "name": "symbol",
      "outputs": [
        {
          "internalType": "string",
          "name": "",
          "type": "string"
        }
      ],
      "stateMutability": "view",
      "type": "function"
    },
    {
      "inputs": [],
      "name": "totalSupply",
      "outputs": [
        {
          "internalType": "uint256",
          "name": "",
          "type": "uint256"
        }
      ],
      "stateMutability": "view",
      "type": "function"
    },
    {
      "inputs": [
        {
          "internalType": "address",
          "name": "to",
          "type": "address"
        },
        {
          "internalType": "uint256",
          "name": "amount",
          "type": "uint256"
        }
      ],
      "name": "transfer",
      "outputs": [
        {
          "internalType": "bool",
          "name": "",
          "type": "bool"
        }
      ],
      "stateMutability": "nonpayable",
      "type": "function"
    },
    {
      "inputs": [
        {
          "internalType": "address",
          "name": "from",
          "type": "address"
        },
        {
          "internalType": "address",
          "name": "to",
          "type": "address"
        },
        {
          "internalType": "uint256",
          "name": "amount",
          "type": "uint256"
        }
      ],
      "name": "transferFrom",
      "outputs": [
        {
          "internalType": "bool",
          "name": "",
          "type": "bool"
        }
      ],
      "stateMutability": "nonpayable",
      "type": "function"
    },
    {
      "inputs": [
        {
          "internalType": "address",
          "name": "",
          "type": "address"
        }
      ],
      "name": "userInterest",
      "outputs": [
        {
          "internalType": "uint128",
          "name": "index",
          "type": "uint128"
        },
        {
          "internalType": "uint128",
          "name": "accrued",
          "type": "uint128"
        },
        {
          "internalType": "uint256",
          "name": "pyIndex",
          "type": "uint256"
        }
      ],
      "stateMutability": "view",
      "type": "function"
    },
    {
      "inputs": [
        {
          "internalType": "address",
          "name": "",
          "type": "address"
        },
        {
          "internalType": "address",
          "name": "",
          "type": "address"
        }
      ],
      "name": "userReward",
      "outputs": [
        {
          "internalType": "uint128",
          "name": "index",
          "type": "uint128"
        },
        {
          "internalType": "uint128",
          "name": "accrued",
          "type": "uint128"
        }
      ],
      "stateMutability": "view",
      "type": "function"
    }
  ],
  "bytecode": "0x6101406040523480156200001257600080fd5b5060405162004a1338038062004a13833981016040819052620000359162000193565b8484846003620000468482620002fc565b506004620000558382620002fc565b5060ff166080525050600280546001600160f81b0316600160f81b1790556001600160a01b0397881660a05295871660c0526101005250505090911660e052151561012052620003c8565b80516001600160a01b0381168114620000b857600080fd5b919050565b634e487b7160e01b600052604160045260246000fd5b600082601f830112620000e557600080fd5b81516001600160401b0380821115620001025762000102620000bd565b604051601f8301601f19908116603f011681019082821181831017156200012d576200012d620000bd565b816040528381526020925086838588010111156200014a57600080fd5b600091505b838210156200016e57858201830151818301840152908201906200014f565b600093810190920192909252949350505050565b80518015158114620000b857600080fd5b600080600080600080600080610100898b031215620001b157600080fd5b620001bc89620000a0565b9750620001cc60208a01620000a0565b9650620001dc60408a01620000a0565b60608a01519096506001600160401b0380821115620001fa57600080fd5b620002088c838d01620000d3565b965060808b01519150808211156200021f57600080fd5b506200022e8b828c01620000d3565b94505060a089015160ff811681146200024657600080fd5b60c08a015190935091506200025e60e08a0162000182565b90509295985092959890939650565b600181811c908216806200028257607f821691505b602082108103620002a357634e487b7160e01b600052602260045260246000fd5b50919050565b601f821115620002f757600081815260208120601f850160051c81016020861015620002d25750805b601f850160051c820191505b81811015620002f357828155600101620002de565b5050505b505050565b81516001600160401b03811115620003185762000318620000bd565b62000330816200032984546200026d565b84620002a9565b602080601f8311600181146200036857600084156200034f5750858301515b600019600386901b1c1916600185901b178555620002f3565b600085815260208120601f198616915b82811015620003995788860151825594840194600190910190840162000378565b5085821015620003b85787850151600019600388901b60f8161c191681555b5050505050600190811b01905550565b60805160a05160c05160e05161010051610120516145066200050d6000396000818161038b015261192d0152600081816103140152818161066a0152818161098d015281816109eb01528181610c7401528181610f7701528181610fab015281816110af015281816112640152818161146a01528181611517015281816115750152818161298901528181612c3301528181612cf701526136240152600081816105390152818161243c015281816124de015281816126c4015281816127660152612b780152600081816105f701528181611f440152818161292001528181612c610152612c9f0152600081816104d401528181610db30152818161136e015281816117540152818161198801528181611df8015281816120ec015281816125a90152818161264601528181612a680152612bff0152600061034001526145066000f3fe608060405234801561001057600080fd5b50600436106102775760003560e01c806395d89b4111610160578063cdbb0361116100d8578063dd62ed3e1161008c578063e767b9e511610071578063e767b9e51461068c578063ea64a82014610695578063f8b2f991146106c957600080fd5b8063dd62ed3e1461062c578063e184c9be1461066557600080fd5b8063d68076c3116100bd578063d68076c314610590578063d94073d4146105f2578063db74aa151461061957600080fd5b8063cdbb036114610570578063d2a3584e1461057857600080fd5b8063afd27bf51161012f578063bcb7ea5d11610114578063bcb7ea5d14610521578063c45a015514610534578063c4f59f9b1461055b57600080fd5b8063afd27bf5146104cf578063b0d889811461050e57600080fd5b806395d89b41146104a1578063a9059cbb146104a9578063a9f8d181146104bc578063acc5da4c146104c557600080fd5b8063313ce567116101f357806353335819116101c257806360e0a9e1116101a757806360e0a9e11461042c57806370a08231146104575780637d24da4d1461048057600080fd5b806353335819146103ad5780635cbadbe4146103cd57600080fd5b8063313ce5671461033b5780633d8df492146103745780634ba6dcd71461037d578063516399df1461038657600080fd5b806318160ddd1161024a5780631d6e45a11161022f5780631d6e45a1146102f657806323b872dd146102ff5780632f13b60c1461031257600080fd5b806318160ddd146102dd5780631d52edc4146102ee57600080fd5b806306fdde031461027c578063095ea7b31461029a5780630a2b83a7146102bd5780630b49fcef146102d5575b600080fd5b6102846106d1565b6040516102919190613dc5565b60405180910390f35b6102ad6102a8366004613e0d565b610763565b6040519015158152602001610291565b600d546102c79081565b604051908152602001610291565b6102c761077d565b6002546001600160f81b03166102c7565b6102c76107c2565b600d54156102ad565b6102ad61030d366004613e39565b61085f565b7f00000000000000000000000000000000000000000000000000000000000000004210156102ad565b6103627f000000000000000000000000000000000000000000000000000000000000000081565b60405160ff9091168152602001610291565b6102c760095481565b6102c7600b5481565b6102ad7f000000000000000000000000000000000000000000000000000000000000000081565b6103c06103bb366004613ebf565b610912565b6040516102919190613f94565b61040c6103db366004613fa7565b60056020908152600092835260408084209091529082529020546001600160801b0380821691600160801b90041682565b604080516001600160801b03938416815292909116602083015201610291565b600c5461043f906001600160801b031681565b6040516001600160801b039091168152602001610291565b6102c7610465366004613fe0565b6001600160a01b031660009081526020819052604090205490565b61049361048e36600461400b565b610bf6565b604051610291929190614056565b610284610e4d565b6102ad6104b7366004613e0d565b610e5c565b6102c760065481565b6104cd610eff565b005b6104f67f000000000000000000000000000000000000000000000000000000000000000081565b6040516001600160a01b039091168152602001610291565b6103c061051c36600461406f565b611034565b6102c761052f366004613fe0565b6111e9565b6104f67f000000000000000000000000000000000000000000000000000000000000000081565b61056361136a565b60405161029191906140db565b6104cd6113f2565b600c54600160801b90046001600160801b03166102c7565b6105cc61059e366004613fe0565b600a60205260009081526040902080546001909101546001600160801b0380831692600160801b9004169083565b604080516001600160801b03948516815293909216602084015290820152606001610291565b6104f67f000000000000000000000000000000000000000000000000000000000000000081565b6102c7610627366004613fa7565b61149c565b6102c761063a366004613fa7565b6001600160a01b03918216600090815260016020908152604080832093909416825291909152205490565b6102c77f000000000000000000000000000000000000000000000000000000000000000081565b6102c760085481565b61040c6106a3366004613fe0565b6007602052600090815260409020546001600160801b0380821691600160801b90041682565b6103c06116b3565b6060600380546106e090614128565b80601f016020809104026020016040519081016040528092919081815260200182805461070c90614128565b80156107595780601f1061072e57610100808354040283529160200191610759565b820191906000526020600020905b81548152906001019060200180831161073c57829003601f168201915b5050505050905090565b6000336107718185856117d0565b60019150505b92915050565b600d5460009081036107bb576040517fd250963300000000000000000000000000000000000000000000000000000000815260040160405180910390fd5b50600d5490565b600254600090600119600160f81b90910460ff16016108285760405162461bcd60e51b815260206004820152601f60248201527f5265656e7472616e637947756172643a207265656e7472616e742063616c6c0060448201526064015b60405180910390fd5b600280546001600160f81b0316600160f91b179055610845611929565b600280546001600160f81b0316600160f81b179055919050565b600254600090600119600160f81b90910460ff16016108c05760405162461bcd60e51b815260206004820152601f60248201527f5265656e7472616e637947756172643a207265656e7472616e742063616c6c00604482015260640161081f565b600280546001600160f81b0316600160f91b179055336108e1858285611a5d565b6108ec858585611aef565b6001915050600280546001600160f81b0316600160f81b1790559392505050565b905090565b600254606090600119600160f81b90910460ff16016109735760405162461bcd60e51b815260206004820152601f60248201527f5265656e7472616e637947756172643a207265656e7472616e742063616c6c00604482015260640161081f565b600280546001600160f81b0316600160f91b1790556109b27f000000000000000000000000000000000000000000000000000000000000000042101590565b156109e9576040517f5b15a6da00000000000000000000000000000000000000000000000000000000815260040160405180910390fd5b7f00000000000000000000000000000000000000000000000000000000000000004210610a1857610a18611d72565b856000819003610a54576040517ff1364a7400000000000000000000000000000000000000000000000000000000815260040160405180910390fd5b8481141580610a635750828114155b15610a9a576040517fa24a13a600000000000000000000000000000000000000000000000000000000815260040160405180910390fd5b6000610ad8858580806020026020016040519081016040528093929190818152602001838360200280828437600092019190915250611daa92505050565b9050610ae2611dee565b811115610b2d5780610af2611dee565b6040517fa2cb08190000000000000000000000000000000000000000000000000000000081526004810192909252602482015260440161081f565b610bcb89898080602002602001604051908101604052809392919081815260200183836020028082843760009201919091525050604080516020808d0282810182019093528c82529093508c92508b91829185019084908082843760009201919091525050604080516020808c0282810182019093528b82529093508b92508a918291850190849080828437600092019190915250611e6592505050565b92505050610bd76120e7565b600280546001600160f81b0316600160f81b1790559695505050505050565b600254600090606090600119600160f81b90910460ff1601610c5a5760405162461bcd60e51b815260206004820152601f60248201527f5265656e7472616e637947756172643a207265656e7472616e742063616c6c00604482015260640161081f565b600280546001600160f81b0316600160f91b179055610c997f000000000000000000000000000000000000000000000000000000000000000042101590565b15610ca657610ca6611d72565b83158015610cb2575082155b15610ce9576040517f68146f1d00000000000000000000000000000000000000000000000000000000815260040160405180910390fd5b610cf285612115565b8215610d4a57610d028586612123565b9050846001600160a01b03167f78d61a0c27b13f43911095f9f356f14daa3cd8b125eea1aa22421245e90e813d82604051610d3d9190613f94565b60405180910390a2610d9e565b6000610d5461136a565b9050805167ffffffffffffffff811115610d7057610d70614162565b604051908082528060200260200182016040528015610d99578160200160208202803683370190505b509150505b8315610e2157610dad856123cc565b610dd7857f00000000000000000000000000000000000000000000000000000000000000006123d7565b9150846001600160a01b03167f83a945bd12c713615b59a6e48a3467c05d1a7442350600d6f7fce6af9f7190e983604051610e1491815260200190565b60405180910390a2610e26565b600091505b610e2e6120e7565b600280546001600160f81b0316600160f81b1790559094909350915050565b6060600480546106e090614128565b600254600090600119600160f81b90910460ff1601610ebd5760405162461bcd60e51b815260206004820152601f60248201527f5265656e7472616e637947756172643a207265656e7472616e742063616c6c00604482015260640161081f565b600280546001600160f81b0316600160f91b17905533610ede818585611aef565b60019150505b600280546001600160f81b0316600160f81b17905592915050565b600254600119600160f81b90910460ff1601610f5d5760405162461bcd60e51b815260206004820152601f60248201527f5265656e7472616e637947756172643a207265656e7472616e742063616c6c00604482015260640161081f565b600280546001600160f81b0316600160f91b179055610f9c7f000000000000000000000000000000000000000000000000000000000000000042101590565b15610fa957610fa9611d72565b7f0000000000000000000000000000000000000000000000000000000000000000421015611003576040517fcd81a63600000000000000000000000000000000000000000000000000000000815260040160405180910390fd5b61100b612412565b5050611015612618565b61101d6120e7565b600280546001600160f81b0316600160f81b179055565b600254606090600119600160f81b90910460ff16016110955760405162461bcd60e51b815260206004820152601f60248201527f5265656e7472616e637947756172643a207265656e7472616e742063616c6c00604482015260640161081f565b600280546001600160f81b0316600160f91b1790556110d47f000000000000000000000000000000000000000000000000000000000000000042101590565b156110e1576110e1611d72565b83821461111a576040517fa24a13a600000000000000000000000000000000000000000000000000000000815260040160405180910390fd5b6000849003611155576040517ff1364a7400000000000000000000000000000000000000000000000000000000815260040160405180910390fd5b6111c2858580806020026020016040519081016040528093929190818152602001838360200280828437600092019190915250506040805160208089028281018201909352888252909350889250879182918501908490808284376000920191909152506128db92505050565b90506111cc6120e7565b600280546001600160f81b0316600160f81b179055949350505050565b600254600090600119600160f81b90910460ff160161124a5760405162461bcd60e51b815260206004820152601f60248201527f5265656e7472616e637947756172643a207265656e7472616e742063616c6c00604482015260640161081f565b600280546001600160f81b0316600160f91b1790556112897f000000000000000000000000000000000000000000000000000000000000000042101590565b1561129657611296611d72565b604080516001808252818301909252600091602080830190803683375050604080516001808252818301909252929350600092915060208083019080368337019050509050836112e4612c2f565b836000815181106112f7576112f7614178565b602002602001018360008151811061131157611311614178565b6020026020010182815250826001600160a01b03166001600160a01b03168152505050606061134083836128db565b90508060008151811061135557611355614178565b602002602001015193505050506108456120e7565b60607f00000000000000000000000000000000000000000000000000000000000000006001600160a01b031663c4f59f9b6040518163ffffffff1660e01b8152600401600060405180830381865afa1580156113ca573d6000803e3d6000fd5b505050506040513d6000823e601f3d908101601f1916820160405261090d91908101906141e3565b600254600119600160f81b90910460ff16016114505760405162461bcd60e51b815260206004820152601f60248201527f5265656e7472616e637947756172643a207265656e7472616e742063616c6c00604482015260640161081f565b600280546001600160f81b0316600160f91b17905561148f7f000000000000000000000000000000000000000000000000000000000000000042101590565b1561101d5761101d611d72565b600254600090600119600160f81b90910460ff16016114fd5760405162461bcd60e51b815260206004820152601f60248201527f5265656e7472616e637947756172643a207265656e7472616e742063616c6c00604482015260640161081f565b600280546001600160f81b0316600160f91b17905561153c7f000000000000000000000000000000000000000000000000000000000000000042101590565b15611573576040517f5b15a6da00000000000000000000000000000000000000000000000000000000815260040160405180910390fd5b7f000000000000000000000000000000000000000000000000000000000000000042106115a2576115a2611d72565b60408051600180825281830190925260009160208083019080368337505060408051600180825281830190925292935060009291506020808301908036833750506040805160018082528183019092529293506000929150602080830190803683370190505090508585611614611dee565b8560008151811061162757611627614178565b602002602001018560008151811061164157611641614178565b602002602001018560008151811061165b5761165b614178565b60209081029190910101929092526001600160a01b03928316909152911690526000611688848484611e65565b90508060008151811061169d5761169d614178565b6020026020010151945050505050610ee46120e7565b600254606090600119600160f81b90910460ff16016117145760405162461bcd60e51b815260206004820152601f60248201527f5265656e7472616e637947756172643a207265656e7472616e742063616c6c00604482015260640161081f565b600280546001600160f81b0316600160f91b179055604080517ff8b2f99100000000000000000000000000000000000000000000000000000000815290517f00000000000000000000000000000000000000000000000000000000000000006001600160a01b03169163f8b2f991916004808301926000929190829003018183875af11580156117a8573d6000803e3d6000fd5b505050506040513d6000823e601f3d908101601f191682016040526108459190810190614277565b6001600160a01b03831661184b5760405162461bcd60e51b8152602060048201526024808201527f45524332303a20617070726f76652066726f6d20746865207a65726f2061646460448201527f7265737300000000000000000000000000000000000000000000000000000000606482015260840161081f565b6001600160a01b0382166118c75760405162461bcd60e51b815260206004820152602260248201527f45524332303a20617070726f766520746f20746865207a65726f20616464726560448201527f7373000000000000000000000000000000000000000000000000000000000000606482015260840161081f565b6001600160a01b0383811660008181526001602090815260408083209487168084529482529182902085905590518481527f8c5be1e5ebec7d5bd14f71427d1e84f3dd0314c0f7b2291e5b200ac8c7c3b92591015b60405180910390a3505050565b60007f000000000000000000000000000000000000000000000000000000000000000080156119625750600c546001600160801b031643145b1561197e5750600c54600160801b90046001600160801b031690565b6000611a25611a207f00000000000000000000000000000000000000000000000000000000000000006001600160a01b0316633ba0b9a96040518163ffffffff1660e01b8152600401602060405180830381865afa1580156119e4573d6000803e3d6000fd5b505050506040513d601f19601f82011682018060405250810190611a0891906142fd565b600c54600160801b90046001600160801b0316612cc3565b612cdb565b436001600160801b03908116600160801b919092169081026fffffffffffffffffffffffffffffffff191691909117600c5592915050565b6001600160a01b038381166000908152600160209081526040808320938616835292905220546000198114611ae95781811015611adc5760405162461bcd60e51b815260206004820152601d60248201527f45524332303a20696e73756666696369656e7420616c6c6f77616e6365000000604482015260640161081f565b611ae984848484036117d0565b50505050565b6001600160a01b038316611b6b5760405162461bcd60e51b815260206004820152602560248201527f45524332303a207472616e736665722066726f6d20746865207a65726f20616460448201527f6472657373000000000000000000000000000000000000000000000000000000606482015260840161081f565b6001600160a01b038216611be75760405162461bcd60e51b815260206004820152602360248201527f45524332303a207472616e7366657220746f20746865207a65726f206164647260448201527f6573730000000000000000000000000000000000000000000000000000000000606482015260840161081f565b816001600160a01b0316836001600160a01b031603611c485760405162461bcd60e51b815260206004820152601760248201527f45524332303a207472616e7366657220746f2073656c66000000000000000000604482015260640161081f565b611c53838383612cf5565b6001600160a01b03831660009081526020819052604090205481811015611ce25760405162461bcd60e51b815260206004820152602660248201527f45524332303a207472616e7366657220616d6f756e742065786365656473206260448201527f616c616e63650000000000000000000000000000000000000000000000000000606482015260840161081f565b6001600160a01b03808516600090815260208190526040808220858503905591851681529081208054849290611d1990849061432c565b92505081905550826001600160a01b0316846001600160a01b03167fddf252ad1be2c89b69c2b068fc378daa952ba7f163c4a11628f55a4df523b3ef84604051611d6591815260200190565b60405180910390a3611ae9565b600d805415611d7e5750565b611d86612d3d565b5050611d90612dc1565b5050611d9d611a20611929565b6001600160801b03169055565b600080805b8351811015611de757838181518110611dca57611dca614178565b602002602001015182611ddd919061432c565b9150600101611daf565b5092915050565b6000600b54611e1c7f0000000000000000000000000000000000000000000000000000000000000000613067565b611e26919061433f565b905080600003611e62576040517f2282661900000000000000000000000000000000000000000000000000000000815260040160405180910390fd5b90565b6060815167ffffffffffffffff811115611e8157611e81614162565b604051908082528060200260200182016040528015611eaa578160200160208202803683370190505b5090506000611eb7611929565b905060005b83518110156120de57611ee8848281518110611eda57611eda614178565b602002602001015183613105565b838281518110611efa57611efa614178565b602002602001018181525050611f42858281518110611f1b57611f1b614178565b6020026020010151848381518110611f3557611f35614178565b6020026020010151613111565b7f00000000000000000000000000000000000000000000000000000000000000006001600160a01b03166312a31dcc878381518110611f8357611f83614178565b6020026020010151858481518110611f9d57611f9d614178565b60200260200101516040518363ffffffff1660e01b8152600401611fd69291906001600160a01b03929092168252602082015260400190565b600060405180830381600087803b158015611ff057600080fd5b505af1158015612004573d6000803e3d6000fd5b5050505084818151811061201a5761201a614178565b60200260200101516001600160a01b031686828151811061203d5761203d614178565b60200260200101516001600160a01b0316336001600160a01b03167fc0025304673122449dd60b9b0093874b0e2fd6fe57af1c7c2fbfee0ccf5ead5887858151811061208b5761208b614178565b60200260200101518786815181106120a5576120a5614178565b60200260200101516040516120c4929190918252602082015260400190565b60405180910390a4806120d681614352565b915050611ebc565b50509392505050565b6121107f0000000000000000000000000000000000000000000000000000000000000000613067565b600b55565b612120816000613239565b50565b6060600061212f61136a565b9050805167ffffffffffffffff81111561214b5761214b614162565b604051908082528060200260200182016040528015612174578160200160208202803683370190505b50915060005b81518110156123c4576005600083838151811061219957612199614178565b60200260200101516001600160a01b03166001600160a01b031681526020019081526020016000206000866001600160a01b03166001600160a01b0316815260200190815260200160002060000160109054906101000a90046001600160801b03166001600160801b031683828151811061221657612216614178565b60200260200101818152505082818151811061223457612234614178565b60200260200101516000146123b25760006005600084848151811061225b5761225b614178565b60200260200101516001600160a01b03166001600160a01b031681526020019081526020016000206000876001600160a01b03166001600160a01b0316815260200190815260200160002060000160106101000a8154816001600160801b0302191690836001600160801b031602179055506122ef8382815181106122e2576122e2614178565b6020026020010151612cdb565b6007600084848151811061230557612305614178565b60200260200101516001600160a01b03166001600160a01b0316815260200190815260200160002060000160108282829054906101000a90046001600160801b0316612351919061436c565b92506101000a8154816001600160801b0302191690836001600160801b031602179055506123b282828151811061238a5761238a614178565b6020026020010151858584815181106123a5576123a5614178565b60200260200101516132b9565b806123bc81614352565b91505061217a565b505092915050565b61212081600061338b565b6001600160a01b0382166000908152600a6020526040902080546001600160801b03808216909255600160801b9004166107778284836132b9565b600e546000908190612422611929565b915080158015906124335750818114155b1561260e5760007f00000000000000000000000000000000000000000000000000000000000000006001600160a01b03166361d027b36040518163ffffffff1660e01b8152600401602060405180830381865afa158015612498573d6000803e3d6000fd5b505050506040513d601f19601f820116820180604052508101906124bc919061438c565b905060006124ca600d541590565b6124dc57670de0b6b3a7640000612568565b7f00000000000000000000000000000000000000000000000000000000000000006001600160a01b031663dd86fea16040518163ffffffff1660e01b8152600401602060405180830381865afa15801561253a573d6000803e3d6000fd5b505050506040513d601f19601f8201168201806040525081019061255e91906143a9565b6001600160801b03165b905060006125886125816002546001600160f81b031690565b85876133fd565b90506000612596828461342e565b90506125a2818361433f565b96506125cf7f000000000000000000000000000000000000000000000000000000000000000085836132b9565b6125d76120e7565b6040518181527e4e8d79e4b41c5fad7561dc7c07786ee4e52292da7a3f5dc7ab90e32cc304239060200160405180910390a1505050505b50600e8190559091565b6040517fef5cfb8c0000000000000000000000000000000000000000000000000000000081523060048201527f00000000000000000000000000000000000000000000000000000000000000006001600160a01b03169063ef5cfb8c906024016000604051808303816000875af1158015612697573d6000803e3d6000fd5b505050506040513d6000823e601f3d908101601f191682016040526126bf9190810190614277565b5060007f00000000000000000000000000000000000000000000000000000000000000006001600160a01b03166361d027b36040518163ffffffff1660e01b8152600401602060405180830381865afa158015612720573d6000803e3d6000fd5b505050506040513d601f19601f82011682018060405250810190612744919061438c565b90506000612752600d541590565b61276457670de0b6b3a76400006127f0565b7f00000000000000000000000000000000000000000000000000000000000000006001600160a01b031663f5de2d1f6040518163ffffffff1660e01b8152600401602060405180830381865afa1580156127c2573d6000803e3d6000fd5b505050506040513d601f19601f820116820180604052508101906127e691906143a9565b6001600160801b03165b905060006127fc61136a565b905060005b8151811015611ae957600082828151811061281e5761281e614178565b6020908102919091018101516001600160a01b038116600090815260079092526040822054909250600160801b90046001600160801b031661285f83613067565b612869919061433f565b90506000612877828761342e565b90506128848388836132b9565b826001600160a01b03167f880a48d40a6133941abdcfabd5c5f9a791b1e6c8afd23138c5a36e3d95039222826040516128bf91815260200190565b60405180910390a2505050806128d490614352565b9050612801565b606060006128e883611daa565b6040517fb64761f9000000000000000000000000000000000000000000000000000000008152306004820152602481018290529091507f00000000000000000000000000000000000000000000000000000000000000006001600160a01b03169063b64761f990604401600060405180830381600087803b15801561296c57600080fd5b505af1158015612980573d6000803e3d6000fd5b505050506129ae7f000000000000000000000000000000000000000000000000000000000000000042101590565b6129bc576129bc3082613451565b60006129c6611929565b90506000855167ffffffffffffffff8111156129e4576129e4614162565b604051908082528060200260200182016040528015612a0d578160200160208202803683370190505b50935060005b8651811015612b73576000612a41878381518110612a3357612a33614178565b602002602001015185613613565b878481518110612a5357612a53614178565b60200260200101819350828152505050612ab37f0000000000000000000000000000000000000000000000000000000000000000898481518110612a9957612a99614178565b60200260200101518885815181106123a5576123a5614178565b612abd818461432c565b9250878281518110612ad157612ad1614178565b60200260200101516001600160a01b0316336001600160a01b03167f5d624aa9c148153ab3446c1b154f660ee7701e549fe9b62dab7171b1c80e6fa2898581518110612b1f57612b1f614178565b6020026020010151898681518110612b3957612b39614178565b6020026020010151604051612b58929190918252602082015260400190565b60405180910390a35080612b6b81614352565b915050612a13565b5060007f00000000000000000000000000000000000000000000000000000000000000006001600160a01b03166361d027b36040518163ffffffff1660e01b8152600401602060405180830381865afa158015612bd4573d6000803e3d6000fd5b505050506040513d601f19601f82011682018060405250810190612bf8919061438c565b9050612c257f000000000000000000000000000000000000000000000000000000000000000082846132b9565b5050505092915050565b60007f0000000000000000000000000000000000000000000000000000000000000000421015612c9a5761090d612c857f0000000000000000000000000000000000000000000000000000000000000000613067565b30600090815260208190526040902054613671565b61090d7f0000000000000000000000000000000000000000000000000000000000000000613067565b6000818311612cd25781612cd4565b825b9392505050565b60006001600160801b03821115612cf157600080fd5b5090565b7f00000000000000000000000000000000000000000000000000000000000000004210612d2457612d24611d72565b612d2e8383613239565b612d38838361338b565b505050565b6000804360085414612da257436008556000612d57613680565b90506000612d63612412565b6009549550935090506000849003612d7a57600193505b8115612d9757612d8a8183613694565b612d94908561432c565b93505b505060098290559091565b600954600c54909250600160801b90046001600160801b031690509091565b606080612dcc61136a565b9150815167ffffffffffffffff811115612de857612de8614162565b604051908082528060200260200182016040528015612e11578160200160208202803683370190505b5090508151600003612e21579091565b4360065414612fdf57436006556000612e39600b5490565b9050612e43612618565b60005b8351811015612fdc576000848281518110612e6357612e63614178565b6020908102919091018101516001600160a01b0381166000908152600790925260408220548751919350600160801b90046001600160801b031690612ec190889086908110612eb457612eb4614178565b6020026020010151613067565b612ecb919061433f565b6001600160a01b0383166000908152600760205260408120549192506001600160801b0390911690819003612efe575060015b8415612f1b57612f0e8286613694565b612f18908261432c565b90505b612f2481612cdb565b6001600160a01b038416600090815260076020526040902080546fffffffffffffffffffffffffffffffff19166001600160801b0392909216919091179055612f6c82612cdb565b6001600160a01b03841660009081526007602052604090208054601090612fa4908490600160801b90046001600160801b03166143d2565b92506101000a8154816001600160801b0302191690836001600160801b0316021790555050505080612fd590614352565b9050612e46565b50505b60005b8251811015613062576007600084838151811061300157613001614178565b6020908102919091018101516001600160a01b031682528101919091526040016000205482516001600160801b039091169083908390811061304557613045614178565b60209081029190910101528061305a81614352565b915050612fe2565b509091565b60006001600160a01b038216156130fe576040517f70a082310000000000000000000000000000000000000000000000000000000081523060048201526001600160a01b038316906370a0823190602401602060405180830381865afa1580156130d5573d6000803e3d6000fd5b505050506040513d601f19601f820116820180604052508101906130f991906142fd565b610777565b4792915050565b6000612cd482846136ba565b6001600160a01b0382166131675760405162461bcd60e51b815260206004820152601f60248201527f45524332303a206d696e7420746f20746865207a65726f206164647265737300604482015260640161081f565b61317360008383612cf5565b61317c816136d9565b600280546000906131979084906001600160f81b03166143f2565b92506101000a8154816001600160f81b0302191690836001600160f81b0316021790555080600080846001600160a01b03166001600160a01b0316815260200190815260200160002060008282546131ef919061432c565b90915550506040518181526001600160a01b038316906000907fddf252ad1be2c89b69c2b068fc378daa952ba7f163c4a11628f55a4df523b3ef9060200160405180910390a35050565b600080613244612dc1565b9150915081516000036132575750505050565b6001600160a01b0384161580159061327857506001600160a01b0384163014155b15613288576132888483836136ef565b6001600160a01b038316158015906132a957506001600160a01b0383163014155b15611ae957611ae98383836136ef565b806000036132c657505050565b6001600160a01b038316613377576000826001600160a01b03168260405160006040518083038185875af1925050503d8060008114613321576040519150601f19603f3d011682016040523d82523d6000602084013e613326565b606091505b5050905080611ae95760405162461bcd60e51b815260206004820152600f60248201527f6574682073656e64206661696c65640000000000000000000000000000000000604482015260640161081f565b612d386001600160a01b038416838361392e565b600080613396612d3d565b90925090506001600160a01b038416158015906133bc57506001600160a01b0384163014155b156133cc576133cc8483836139ae565b6001600160a01b038316158015906133ed57506001600160a01b0383163014155b15611ae957611ae98383836139ae565b600061342661340c8385614412565b613416858561433f565b6134209087614412565b90613694565b949350505050565b60008061343b8385614412565b9050670de0b6b3a7640000815b04949350505050565b6001600160a01b0382166134cd5760405162461bcd60e51b815260206004820152602160248201527f45524332303a206275726e2066726f6d20746865207a65726f2061646472657360448201527f7300000000000000000000000000000000000000000000000000000000000000606482015260840161081f565b6134d982600083612cf5565b6001600160a01b038216600090815260208190526040902054818110156135685760405162461bcd60e51b815260206004820152602260248201527f45524332303a206275726e20616d6f756e7420657863656564732062616c616e60448201527f6365000000000000000000000000000000000000000000000000000000000000606482015260840161081f565b6001600160a01b0383166000908152602081905260409020828203905561358e826136d9565b600280546000906135a99084906001600160f81b031661443f565b92506101000a8154816001600160f81b0302191690836001600160f81b0316021790555060006001600160a01b0316836001600160a01b03167fddf252ad1be2c89b69c2b068fc378daa952ba7f163c4a11628f55a4df523b3ef8460405161191c91815260200190565b6000806136208385613aec565b91507f0000000000000000000000000000000000000000000000000000000000000000421061366a57600061365a600d6000015486613aec565b9050613666838261433f565b9150505b9250929050565b6000818310612cd25781612cd4565b600061090d6002546001600160f81b031690565b6000806136a9670de0b6b3a764000085614412565b905082818161344857613448614429565b6000670de0b6b3a76400006136cf8484614412565b612cd4919061445f565b60006001600160f81b03821115612cf157600080fd5b6001600160a01b0383161580159061371057506001600160a01b0383163014155b61371c5761371c614481565b600061372784613b01565b905060005b835181101561392757600084828151811061374957613749614178565b60200260200101519050600084838151811061376757613767614178565b6020908102919091018101516001600160a01b038085166000908152600584526040808220928c168252919093528220549092506001600160801b0316908190036137c2576137b66001612cdb565b6001600160801b031690505b8181036137d157505050613917565b60006137dd828461433f565b905060006137eb878361342e565b6001600160a01b038681166000908152600560209081526040808320938f1683529290529081205491925090613832908390600160801b90046001600160801b031661432c565b9050604051806040016040528061384887612cdb565b6001600160801b0316815260200161385f83612cdb565b6001600160801b031681525060056000886001600160a01b03166001600160a01b0316815260200190815260200160002060008d6001600160a01b03166001600160a01b0316815260200190815260200160002060008201518160000160006101000a8154816001600160801b0302191690836001600160801b0316021790555060208201518160000160106101000a8154816001600160801b0302191690836001600160801b031602179055509050505050505050505b61392081614352565b905061372c565b5050505050565b604080516001600160a01b038416602482015260448082018490528251808303909101815260649091019091526020810180517bffffffffffffffffffffffffffffffffffffffffffffffffffffffff167fa9059cbb00000000000000000000000000000000000000000000000000000000179052612d38908490613b78565b6001600160a01b038316158015906139cf57506001600160a01b0383163014155b6139db576139db614481565b6001600160a01b0383166000908152600a60205260409020546001600160801b0316828103613a0a5750505050565b80600003613a6857613a1b83612cdb565b6001600160a01b03949094166000908152600a6020526040902080546fffffffffffffffffffffffffffffffff19166001600160801b039095169490941784555060019092019190915550565b613a87611a20613a78838661433f565b613a8187613c60565b9061342e565b6001600160a01b0385166000908152600a602052604090208054601090613abf908490600160801b90046001600160801b03166143d2565b92506101000a8154816001600160801b0302191690836001600160801b03160217905550613a1b83612cdb565b6000826136cf670de0b6b3a764000084614412565b6001600160a01b0381166000908152600a6020526040812060010154808203613b2d5750600092915050565b6001600160a01b0383166000908152600a60209081526040808320549183905290912054600160801b9091046001600160801b031690613b6e908390613aec565b612cd4919061432c565b6000613bcd826040518060400160405280602081526020017f5361666545524332303a206c6f772d6c6576656c2063616c6c206661696c6564815250856001600160a01b0316613c7e9092919063ffffffff16565b9050805160001480613bee575080806020019051810190613bee9190614497565b612d385760405162461bcd60e51b815260206004820152602a60248201527f5361666545524332303a204552433230206f7065726174696f6e20646964206e60448201527f6f74207375636365656400000000000000000000000000000000000000000000606482015260840161081f565b6001600160a01b038116600090815260208190526040812054610777565b6060613426848460008585600080866001600160a01b03168587604051613ca591906144b4565b60006040518083038185875af1925050503d8060008114613ce2576040519150601f19603f3d011682016040523d82523d6000602084013e613ce7565b606091505b5091509150613cf887838387613d03565b979650505050505050565b60608315613d72578251600003613d6b576001600160a01b0385163b613d6b5760405162461bcd60e51b815260206004820152601d60248201527f416464726573733a2063616c6c20746f206e6f6e2d636f6e7472616374000000604482015260640161081f565b5081613426565b6134268383815115613d875781518083602001fd5b8060405162461bcd60e51b815260040161081f9190613dc5565b60005b83811015613dbc578181015183820152602001613da4565b50506000910152565b6020815260008251806020840152613de4816040850160208701613da1565b601f01601f19169190910160400192915050565b6001600160a01b038116811461212057600080fd5b60008060408385031215613e2057600080fd5b8235613e2b81613df8565b946020939093013593505050565b600080600060608486031215613e4e57600080fd5b8335613e5981613df8565b92506020840135613e6981613df8565b929592945050506040919091013590565b60008083601f840112613e8c57600080fd5b50813567ffffffffffffffff811115613ea457600080fd5b6020830191508360208260051b850101111561366a57600080fd5b60008060008060008060608789031215613ed857600080fd5b863567ffffffffffffffff80821115613ef057600080fd5b613efc8a838b01613e7a565b90985096506020890135915080821115613f1557600080fd5b613f218a838b01613e7a565b90965094506040890135915080821115613f3a57600080fd5b50613f4789828a01613e7a565b979a9699509497509295939492505050565b600081518084526020808501945080840160005b83811015613f8957815187529582019590820190600101613f6d565b509495945050505050565b602081526000612cd46020830184613f59565b60008060408385031215613fba57600080fd5b8235613fc581613df8565b91506020830135613fd581613df8565b809150509250929050565b600060208284031215613ff257600080fd5b8135612cd481613df8565b801515811461212057600080fd5b60008060006060848603121561402057600080fd5b833561402b81613df8565b9250602084013561403b81613ffd565b9150604084013561404b81613ffd565b809150509250925092565b8281526040602082015260006134266040830184613f59565b6000806000806040858703121561408557600080fd5b843567ffffffffffffffff8082111561409d57600080fd5b6140a988838901613e7a565b909650945060208701359150808211156140c257600080fd5b506140cf87828801613e7a565b95989497509550505050565b6020808252825182820181905260009190848201906040850190845b8181101561411c5783516001600160a01b0316835292840192918401916001016140f7565b50909695505050505050565b600181811c9082168061413c57607f821691505b60208210810361415c57634e487b7160e01b600052602260045260246000fd5b50919050565b634e487b7160e01b600052604160045260246000fd5b634e487b7160e01b600052603260045260246000fd5b604051601f8201601f1916810167ffffffffffffffff811182821017156141b7576141b7614162565b604052919050565b600067ffffffffffffffff8211156141d9576141d9614162565b5060051b60200190565b600060208083850312156141f657600080fd5b825167ffffffffffffffff81111561420d57600080fd5b8301601f8101851361421e57600080fd5b805161423161422c826141bf565b61418e565b81815260059190911b8201830190838101908783111561425057600080fd5b928401925b82841015613cf857835161426881613df8565b82529284019290840190614255565b6000602080838503121561428a57600080fd5b825167ffffffffffffffff8111156142a157600080fd5b8301601f810185136142b257600080fd5b80516142c061422c826141bf565b81815260059190911b820183019083810190878311156142df57600080fd5b928401925b82841015613cf8578351825292840192908401906142e4565b60006020828403121561430f57600080fd5b5051919050565b634e487b7160e01b600052601160045260246000fd5b8082018082111561077757610777614316565b8181038181111561077757610777614316565b6000600019820361436557614365614316565b5060010190565b6001600160801b03828116828216039080821115611de757611de7614316565b60006020828403121561439e57600080fd5b8151612cd481613df8565b6000602082840312156143bb57600080fd5b81516001600160801b0381168114612cd457600080fd5b6001600160801b03818116838216019080821115611de757611de7614316565b6001600160f81b03818116838216019080821115611de757611de7614316565b808202811582820484141761077757610777614316565b634e487b7160e01b600052601260045260246000fd5b6001600160f81b03828116828216039080821115611de757611de7614316565b60008261447c57634e487b7160e01b600052601260045260246000fd5b500490565b634e487b7160e01b600052600160045260246000fd5b6000602082840312156144a957600080fd5b8151612cd481613ffd565b600082516144c6818460208701613da1565b919091019291505056fea264697066735822122038dce6eb69e9d0c44b8fa416f711eef6a79cd0eb5af17c83c0672773984d9a8c64736f6c63430008110033",
  "linkReferences": {},
  "deployedLinkReferences": {}
}