{
  "_format": "hh-sol-artifact-1",
  "contractName": "EuphratesMulticallV2",
  "sourceName": "contracts/offchain-helpers/PendleMulticallV2.sol",
  "abi": [
    {
      "inputs": [
        {
          "internalType": "bool",
          "name": "success",
          "type": "bool"
        },
        {
          "internalType": "bytes",
          "name": "res",
          "type": "bytes"
        }
      ],
      "name": "CallThenRevertError",
      "type": "error"
    },
    {
      "inputs": [
        {
          "components": [
            {
              "internalType": "address",
              "name": "target",
              "type": "address"
            },
            {
              "internalType": "bytes",
              "name": "callData",
              "type": "bytes"
            }
          ],
          "internalType": "struct EuphratesMulticallV2.Call[]",
          "name": "calls",
          "type": "tuple[]"
        }
      ],
      "name": "aggregate",
      "outputs": [],
      "stateMutability": "payable",
      "type": "function"
    },
    {
      "inputs": [
        {
          "internalType": "address",
          "name": "target",
          "type": "address"
        },
        {
          "internalType": "bytes",
          "name": "callData",
          "type": "bytes"
        }
      ],
      "name": "callThenRevert",
      "outputs": [],
      "stateMutability": "nonpayable",
      "type": "function"
    },
    {
      "inputs": [
        {
          "internalType": "bool",
          "name": "requireSuccess",
          "type": "bool"
        },
        {
          "internalType": "uint256",
          "name": "gasLimit",
          "type": "uint256"
        },
        {
          "components": [
            {
              "internalType": "address",
              "name": "target",
              "type": "address"
            },
            {
              "internalType": "bytes",
              "name": "callData",
              "type": "bytes"
            }
          ],
          "internalType": "struct EuphratesMulticallV2.Call[]",
          "name": "calls",
          "type": "tuple[]"
        }
      ],
      "name": "tryAggregate",
      "outputs": [
        {
          "components": [
            {
              "internalType": "bool",
              "name": "success",
              "type": "bool"
            },
            {
              "internalType": "bytes",
              "name": "returnData",
              "type": "bytes"
            }
          ],
          "internalType": "struct EuphratesMulticallV2.Result[]",
          "name": "returnData",
          "type": "tuple[]"
        }
      ],
      "stateMutability": "payable",
      "type": "function"
    },
    {
      "inputs": [
        {
          "internalType": "uint256",
          "name": "gasLimit",
          "type": "uint256"
        },
        {
          "components": [
            {
              "internalType": "address",
              "name": "target",
              "type": "address"
            },
            {
              "internalType": "bytes",
              "name": "callData",
              "type": "bytes"
            }
          ],
          "internalType": "struct EuphratesMulticallV2.Call[]",
          "name": "calls",
          "type": "tuple[]"
        }
      ],
      "name": "tryAggregateRevert",
      "outputs": [
        {
          "internalType": "bytes[]",
          "name": "returnData",
          "type": "bytes[]"
        }
      ],
      "stateMutability": "payable",
      "type": "function"
    }
  ],
  "bytecode": "0x608060405234801561001057600080fd5b50610ab0806100206000396000f3fe60806040526004361061003f5760003560e01c806315855fb914610044578063252dba421461006d5780635a17b420146100825780638ee52744146100a2575b600080fd5b6100576100523660046105c4565b6100c2565b6040516100649190610675565b60405180910390f35b61008061007b3660046106eb565b610269565b005b61009561009036600461072d565b610342565b6040516100649190610779565b3480156100ae57600080fd5b506100806100bd366004610833565b6104ca565b6060818067ffffffffffffffff8111156100de576100de610804565b60405190808252806020026020018201604052801561012457816020015b6040805180820190915260008152606060208201528152602001906001900390816100fc5790505b5091503660005b8281101561025e57858582818110610145576101456108f5565b90506020028101906101579190610924565b91506000806101696020850185610962565b73ffffffffffffffffffffffffffffffffffffffff1689898986818110610192576101926108f5565b90506020028101906101a49190610924565b6101b2906020810190610984565b6040516101c09291906109e9565b60006040518083038160008787f1925050503d80600081146101fe576040519150601f19603f3d011682016040523d82523d6000602084013e610203565b606091505b5091509150811580156102135750895b1561022057805181602001fd5b6040518060400160405280831515815260200182815250868481518110610249576102496108f5565b6020908102919091010152505060010161012b565b505050949350505050565b803660005b8281101561033b57848482818110610288576102886108f5565b905060200281019061029a9190610924565b91506000806102ac6020850185610962565b73ffffffffffffffffffffffffffffffffffffffff166102cf6020860186610984565b6040516102dd9291906109e9565b6000604051808303816000865af19150503d806000811461031a576040519150601f19603f3d011682016040523d82523d6000602084013e61031f565b606091505b50915091508161033157805181602001fd5b505060010161026e565b5050505050565b6060818067ffffffffffffffff81111561035e5761035e610804565b60405190808252806020026020018201604052801561039157816020015b606081526020019060019003908161037c5790505b5091503660005b828110156104c0578585828181106103b2576103b26108f5565b90506020028101906103c49190610924565b915030876103d56020850185610962565b6103e26020860186610984565b6040516024016103f4939291906109f9565b60408051601f198184030181529181526020820180517bffffffffffffffffffffffffffffffffffffffffffffffffffffffff167f8ee5274400000000000000000000000000000000000000000000000000000000179052516104579190610a45565b6000604051808303818686f4925050503d8060008114610493576040519150601f19603f3d011682016040523d82523d6000602084013e610498565b606091505b5090508482815181106104ad576104ad6108f5565b6020908102919091010152600101610398565b5050509392505050565b6000808373ffffffffffffffffffffffffffffffffffffffff16836040516104f29190610a45565b6000604051808303816000865af19150503d806000811461052f576040519150601f19603f3d011682016040523d82523d6000602084013e610534565b606091505b509150915081816040517f9a518aec00000000000000000000000000000000000000000000000000000000815260040161056f929190610a57565b60405180910390fd5b60008083601f84011261058a57600080fd5b50813567ffffffffffffffff8111156105a257600080fd5b6020830191508360208260051b85010111156105bd57600080fd5b9250929050565b600080600080606085870312156105da57600080fd5b843580151581146105ea57600080fd5b935060208501359250604085013567ffffffffffffffff81111561060d57600080fd5b61061987828801610578565b95989497509550505050565b60005b83811015610640578181015183820152602001610628565b50506000910152565b60008151808452610661816020860160208601610625565b601f01601f19169290920160200192915050565b60006020808301818452808551808352604092508286019150828160051b87010184880160005b838110156106dd57888303603f1901855281518051151584528701518784018790526106ca87850182610649565b958801959350509086019060010161069c565b509098975050505050505050565b600080602083850312156106fe57600080fd5b823567ffffffffffffffff81111561071557600080fd5b61072185828601610578565b90969095509350505050565b60008060006040848603121561074257600080fd5b83359250602084013567ffffffffffffffff81111561076057600080fd5b61076c86828701610578565b9497909650939450505050565b6000602080830181845280855180835260408601915060408160051b870101925083870160005b828110156107ce57603f198886030184526107bc858351610649565b945092850192908501906001016107a0565b5092979650505050505050565b803573ffffffffffffffffffffffffffffffffffffffff811681146107ff57600080fd5b919050565b7f4e487b7100000000000000000000000000000000000000000000000000000000600052604160045260246000fd5b6000806040838503121561084657600080fd5b61084f836107db565b9150602083013567ffffffffffffffff8082111561086c57600080fd5b818501915085601f83011261088057600080fd5b81358181111561089257610892610804565b604051601f8201601f19908116603f011681019083821181831017156108ba576108ba610804565b816040528281528860208487010111156108d357600080fd5b8260208601602083013760006020848301015280955050505050509250929050565b7f4e487b7100000000000000000000000000000000000000000000000000000000600052603260045260246000fd5b600082357fffffffffffffffffffffffffffffffffffffffffffffffffffffffffffffffc183360301811261095857600080fd5b9190910192915050565b60006020828403121561097457600080fd5b61097d826107db565b9392505050565b60008083357fffffffffffffffffffffffffffffffffffffffffffffffffffffffffffffffe18436030181126109b957600080fd5b83018035915067ffffffffffffffff8211156109d457600080fd5b6020019150368190038213156105bd57600080fd5b8183823760009101908152919050565b73ffffffffffffffffffffffffffffffffffffffff8416815260406020820152816040820152818360608301376000818301606090810191909152601f909201601f1916010192915050565b60008251610958818460208701610625565b8215158152604060208201526000610a726040830184610649565b94935050505056fea264697066735822122075d0e791a9d86bc3161ed673712eae4e2b90574110ff7c590047a348a956a1e464736f6c63430008110033",
  "linkReferences": {},
  "deployedLinkReferences": {}
}