{
  "_format": "hh-sol-artifact-1",
  "contractName": "EuphratesMsgReceiveEndpointUpg",
  "sourceName": "contracts/LiquidityMining/CrossChainMsg/EuphratesMsgReceiveEndpointUpg.sol",
  "abi": [
    {
      "inputs": [
        {
          "internalType": "address",
          "name": "_lzEndpoint",
          "type": "address"
        },
        {
          "internalType": "address",
          "name": "_sendEndpointAddr",
          "type": "address"
        },
        {
          "internalType": "uint64",
          "name": "_sendEndpointChainId",
          "type": "uint64"
        }
      ],
      "stateMutability": "nonpayable",
      "type": "constructor"
    },
    {
      "inputs": [
        {
          "internalType": "uint16",
          "name": "srcChainId",
          "type": "uint16"
        },
        {
          "internalType": "bytes",
          "name": "path",
          "type": "bytes"
        }
      ],
      "name": "MsgNotFromSendEndpoint",
      "type": "error"
    },
    {
      "inputs": [],
      "name": "OnlyLayerZeroEndpoint",
      "type": "error"
    },
    {
      "anonymous": false,
      "inputs": [
        {
          "indexed": false,
          "internalType": "address",
          "name": "previousAdmin",
          "type": "address"
        },
        {
          "indexed": false,
          "internalType": "address",
          "name": "newAdmin",
          "type": "address"
        }
      ],
      "name": "AdminChanged",
      "type": "event"
    },
    {
      "anonymous": false,
      "inputs": [
        {
          "indexed": true,
          "internalType": "address",
          "name": "beacon",
          "type": "address"
        }
      ],
      "name": "BeaconUpgraded",
      "type": "event"
    },
    {
      "anonymous": false,
      "inputs": [
        {
          "indexed": false,
          "internalType": "uint8",
          "name": "version",
          "type": "uint8"
        }
      ],
      "name": "Initialized",
      "type": "event"
    },
    {
      "anonymous": false,
      "inputs": [
        {
          "indexed": false,
          "internalType": "uint16",
          "name": "_srcChainId",
          "type": "uint16"
        },
        {
          "indexed": false,
          "internalType": "bytes",
          "name": "_path",
          "type": "bytes"
        },
        {
          "indexed": false,
          "internalType": "uint64",
          "name": "_nonce",
          "type": "uint64"
        },
        {
          "indexed": false,
          "internalType": "bytes",
          "name": "_payload",
          "type": "bytes"
        },
        {
          "indexed": false,
          "internalType": "bytes",
          "name": "_reason",
          "type": "bytes"
        }
      ],
      "name": "MessageFailed",
      "type": "event"
    },
    {
      "anonymous": false,
      "inputs": [
        {
          "indexed": true,
          "internalType": "address",
          "name": "previousOwner",
          "type": "address"
        },
        {
          "indexed": true,
          "internalType": "address",
          "name": "newOwner",
          "type": "address"
        }
      ],
      "name": "OwnershipTransferred",
      "type": "event"
    },
    {
      "anonymous": false,
      "inputs": [
        {
          "indexed": true,
          "internalType": "address",
          "name": "implementation",
          "type": "address"
        }
      ],
      "name": "Upgraded",
      "type": "event"
    },
    {
      "inputs": [],
      "name": "claimOwnership",
      "outputs": [],
      "stateMutability": "nonpayable",
      "type": "function"
    },
    {
      "inputs": [
        {
          "internalType": "address",
          "name": "receiver",
          "type": "address"
        },
        {
          "internalType": "bytes",
          "name": "message",
          "type": "bytes"
        }
      ],
      "name": "govExecuteMessage",
      "outputs": [],
      "stateMutability": "payable",
      "type": "function"
    },
    {
      "inputs": [],
      "name": "initialize",
      "outputs": [],
      "stateMutability": "nonpayable",
      "type": "function"
    },
    {
      "inputs": [],
      "name": "lzEndpoint",
      "outputs": [
        {
          "internalType": "address",
          "name": "",
          "type": "address"
        }
      ],
      "stateMutability": "view",
      "type": "function"
    },
    {
      "inputs": [
        {
          "internalType": "uint16",
          "name": "_srcChainId",
          "type": "uint16"
        },
        {
          "internalType": "bytes",
          "name": "_path",
          "type": "bytes"
        },
        {
          "internalType": "uint64",
          "name": "_nonce",
          "type": "uint64"
        },
        {
          "internalType": "bytes",
          "name": "_payload",
          "type": "bytes"
        }
      ],
      "name": "lzReceive",
      "outputs": [],
      "stateMutability": "nonpayable",
      "type": "function"
    },
    {
      "inputs": [],
      "name": "owner",
      "outputs": [
        {
          "internalType": "address",
          "name": "",
          "type": "address"
        }
      ],
      "stateMutability": "view",
      "type": "function"
    },
    {
      "inputs": [],
      "name": "pendingOwner",
      "outputs": [
        {
          "internalType": "address",
          "name": "",
          "type": "address"
        }
      ],
      "stateMutability": "view",
      "type": "function"
    },
    {
      "inputs": [],
      "name": "proxiableUUID",
      "outputs": [
        {
          "internalType": "bytes32",
          "name": "",
          "type": "bytes32"
        }
      ],
      "stateMutability": "view",
      "type": "function"
    },
    {
      "inputs": [],
      "name": "sendEndpointAddr",
      "outputs": [
        {
          "internalType": "address",
          "name": "",
          "type": "address"
        }
      ],
      "stateMutability": "view",
      "type": "function"
    },
    {
      "inputs": [],
      "name": "sendEndpointChainId",
      "outputs": [
        {
          "internalType": "uint64",
          "name": "",
          "type": "uint64"
        }
      ],
      "stateMutability": "view",
      "type": "function"
    },
    {
      "inputs": [
        {
          "internalType": "uint16",
          "name": "_newVersion",
          "type": "uint16"
        }
      ],
      "name": "setLzReceiveVersion",
      "outputs": [],
      "stateMutability": "nonpayable",
      "type": "function"
    },
    {
      "inputs": [
        {
          "internalType": "address",
          "name": "newOwner",
          "type": "address"
        },
        {
          "internalType": "bool",
          "name": "direct",
          "type": "bool"
        },
        {
          "internalType": "bool",
          "name": "renounce",
          "type": "bool"
        }
      ],
      "name": "transferOwnership",
      "outputs": [],
      "stateMutability": "nonpayable",
      "type": "function"
    },
    {
      "inputs": [
        {
          "internalType": "address",
          "name": "newImplementation",
          "type": "address"
        }
      ],
      "name": "upgradeTo",
      "outputs": [],
      "stateMutability": "nonpayable",
      "type": "function"
    },
    {
      "inputs": [
        {
          "internalType": "address",
          "name": "newImplementation",
          "type": "address"
        },
        {
          "internalType": "bytes",
          "name": "data",
          "type": "bytes"
        }
      ],
      "name": "upgradeToAndCall",
      "outputs": [],
      "stateMutability": "payable",
      "type": "function"
    }
  ],
  "bytecode": "0x610100604052306080523480156200001657600080fd5b5060405162001d0138038062001d018339810160408190526200003991620001ca565b600154600160a81b900460ff161580801562000060575060018054600160a01b900460ff16105b806200009657506200007d306200019e60201b62000f071760201c565b15801562000096575060018054600160a01b900460ff16145b620000fe5760405162461bcd60e51b815260206004820152602e60248201527f496e697469616c697a61626c653a20636f6e747261637420697320616c72656160448201526d191e481a5b9a5d1a585b1a5e995960921b606482015260840160405180910390fd5b6001805460ff60a01b1916600160a01b17905580156200012c576001805460ff60a81b1916600160a81b1790555b6001600160a01b0380851660a052831660c0526001600160401b03821660e052801562000194576001805460ff60a81b191681556040519081527f7f26b83ff96e1f2b6a682f133852f6798a09c465da95921460cefb38474024989060200160405180910390a15b5050505062000224565b6001600160a01b03163b151590565b80516001600160a01b0381168114620001c557600080fd5b919050565b600080600060608486031215620001e057600080fd5b620001eb84620001ad565b9250620001fb60208501620001ad565b60408501519092506001600160401b03811681146200021957600080fd5b809150509250925092565b60805160a05160c05160e051611a6b620002966000396000818161025901526103d301526000818161022501526103980152600081816102a6015281816102f30152610b250152600081816106ae0152818161074401528181610915015281816109ab0152610b990152611a6b6000f3fe6080604052600436106100dc5760003560e01c80637efec77a1161007f5780638e0dec4d116100595780638e0dec4d14610213578063931a11d914610247578063b353aaa714610294578063e30c3978146102c857600080fd5b80637efec77a146101b35780638129fc1c146101c65780638da5cb5b146101db57600080fd5b80634e71e0c8116100bb5780634e71e0c8146101435780634f1ef28614610158578063510653ea1461016b57806352d1902d1461018b57600080fd5b80621d3567146100e1578063078dfbe7146101035780633659cfe614610123575b600080fd5b3480156100ed57600080fd5b506101016100fc3660046115eb565b6102e8565b005b34801561010f57600080fd5b5061010161011e3660046116aa565b610544565b34801561012f57600080fd5b5061010161013e3660046116ef565b6106a4565b34801561014f57600080fd5b50610101610841565b6101016101663660046117c8565b61090b565b34801561017757600080fd5b50610101610186366004611818565b610a99565b34801561019757600080fd5b506101a0610b8c565b6040519081526020015b60405180910390f35b6101016101c1366004611833565b610c51565b3480156101d257600080fd5b50610101610d29565b3480156101e757600080fd5b506000546101fb906001600160a01b031681565b6040516001600160a01b0390911681526020016101aa565b34801561021f57600080fd5b506101fb7f000000000000000000000000000000000000000000000000000000000000000081565b34801561025357600080fd5b5061027b7f000000000000000000000000000000000000000000000000000000000000000081565b60405167ffffffffffffffff90911681526020016101aa565b3480156102a057600080fd5b506101fb7f000000000000000000000000000000000000000000000000000000000000000081565b3480156102d457600080fd5b506001546101fb906001600160a01b031681565b336001600160a01b037f0000000000000000000000000000000000000000000000000000000000000000161461034a576040517f2ec667eb00000000000000000000000000000000000000000000000000000000815260040160405180910390fd5b8585858080601f01602080910402602001604051908101604052809392919081815260200183838082843760009201919091525061038d9250839150610f169050565b6001600160a01b03167f00000000000000000000000000000000000000000000000000000000000000006001600160a01b03161415806103ff57506103d182610f1d565b7f000000000000000000000000000000000000000000000000000000000000000067ffffffffffffffff1614155b156104435781816040517f96bc30e600000000000000000000000000000000000000000000000000000000815260040161043a9291906118d8565b60405180910390fd5b600080610452858701876117c8565b915091506000806104e95a609663e0299bf560e01b8660405160240161047891906118f5565b60408051601f198184030181529190526020810180517bffffffffffffffffffffffffffffffffffffffffffffffffffffffff167fffffffff00000000000000000000000000000000000000000000000000000000909316929092179091526001600160a01b038816929190610fd4565b9150915081610536577fe183f33de2837795525b4792ca4cd60535bd77c53b7e7030060bfcf5734d6b0c8c8c8c8c8c8c8760405161052d9796959493929190611933565b60405180910390a15b505050505050505050505050565b6000546001600160a01b0316331461059e5760405162461bcd60e51b815260206004820181905260248201527f4f776e61626c653a2063616c6c6572206973206e6f7420746865206f776e6572604482015260640161043a565b8115610676576001600160a01b0383161515806105b85750805b6106045760405162461bcd60e51b815260206004820152601560248201527f4f776e61626c653a207a65726f20616464726573730000000000000000000000604482015260640161043a565b600080546040516001600160a01b03808716939216917f8be0079c531659141344cd1fd0a4f28419497f9722a3daafe3b4186f6b6457e091a3600080546001600160a01b03851673ffffffffffffffffffffffffffffffffffffffff1991821617909155600180549091169055505050565b6001805473ffffffffffffffffffffffffffffffffffffffff19166001600160a01b0385161790555b505050565b6001600160a01b037f00000000000000000000000000000000000000000000000000000000000000001630036107425760405162461bcd60e51b815260206004820152602c60248201527f46756e6374696f6e206d7573742062652063616c6c6564207468726f7567682060448201527f64656c656761746563616c6c0000000000000000000000000000000000000000606482015260840161043a565b7f00000000000000000000000000000000000000000000000000000000000000006001600160a01b031661079d7f360894a13ba1a3210667c828492db98dca3e2076cc3735a920a3ca505d382bbc546001600160a01b031690565b6001600160a01b0316146108195760405162461bcd60e51b815260206004820152602c60248201527f46756e6374696f6e206d7573742062652063616c6c6564207468726f7567682060448201527f6163746976652070726f78790000000000000000000000000000000000000000606482015260840161043a565b6108228161105f565b6040805160008082526020820190925261083e918391906110b9565b50565b6001546001600160a01b031633811461089c5760405162461bcd60e51b815260206004820181905260248201527f4f776e61626c653a2063616c6c657220213d2070656e64696e67206f776e6572604482015260640161043a565b600080546040516001600160a01b03808516939216917f8be0079c531659141344cd1fd0a4f28419497f9722a3daafe3b4186f6b6457e091a3600080546001600160a01b0390921673ffffffffffffffffffffffffffffffffffffffff19928316179055600180549091169055565b6001600160a01b037f00000000000000000000000000000000000000000000000000000000000000001630036109a95760405162461bcd60e51b815260206004820152602c60248201527f46756e6374696f6e206d7573742062652063616c6c6564207468726f7567682060448201527f64656c656761746563616c6c0000000000000000000000000000000000000000606482015260840161043a565b7f00000000000000000000000000000000000000000000000000000000000000006001600160a01b0316610a047f360894a13ba1a3210667c828492db98dca3e2076cc3735a920a3ca505d382bbc546001600160a01b031690565b6001600160a01b031614610a805760405162461bcd60e51b815260206004820152602c60248201527f46756e6374696f6e206d7573742062652063616c6c6564207468726f7567682060448201527f6163746976652070726f78790000000000000000000000000000000000000000606482015260840161043a565b610a898261105f565b610a95828260016110b9565b5050565b6000546001600160a01b03163314610af35760405162461bcd60e51b815260206004820181905260248201527f4f776e61626c653a2063616c6c6572206973206e6f7420746865206f776e6572604482015260640161043a565b6040517f10ddb13700000000000000000000000000000000000000000000000000000000815261ffff821660048201527f00000000000000000000000000000000000000000000000000000000000000006001600160a01b0316906310ddb13790602401600060405180830381600087803b158015610b7157600080fd5b505af1158015610b85573d6000803e3d6000fd5b5050505050565b6000306001600160a01b037f00000000000000000000000000000000000000000000000000000000000000001614610c2c5760405162461bcd60e51b815260206004820152603860248201527f555550535570677261646561626c653a206d757374206e6f742062652063616c60448201527f6c6564207468726f7567682064656c656761746563616c6c0000000000000000606482015260840161043a565b507f360894a13ba1a3210667c828492db98dca3e2076cc3735a920a3ca505d382bbc90565b6000546001600160a01b03163314610cab5760405162461bcd60e51b815260206004820181905260248201527f4f776e61626c653a2063616c6c6572206973206e6f7420746865206f776e6572604482015260640161043a565b6040517fe0299bf50000000000000000000000000000000000000000000000000000000081526001600160a01b0384169063e0299bf590610cf29085908590600401611996565b600060405180830381600087803b158015610d0c57600080fd5b505af1158015610d20573d6000803e3d6000fd5b50505050505050565b6001547501000000000000000000000000000000000000000000900460ff1615808015610d7257506001805474010000000000000000000000000000000000000000900460ff16105b80610da35750303b158015610da357506001805474010000000000000000000000000000000000000000900460ff16145b610e155760405162461bcd60e51b815260206004820152602e60248201527f496e697469616c697a61626c653a20636f6e747261637420697320616c72656160448201527f647920696e697469616c697a6564000000000000000000000000000000000000606482015260840161043a565b600180547fffffffffffffffffffffff00ffffffffffffffffffffffffffffffffffffffff16740100000000000000000000000000000000000000001790558015610e9b57600180547fffffffffffffffffffff00ffffffffffffffffffffffffffffffffffffffffff1675010000000000000000000000000000000000000000001790555b610ea3611259565b801561083e57600180547fffffffffffffffffffff00ffffffffffffffffffffffffffffffffffffffffff1681556040519081527f7f26b83ff96e1f2b6a682f133852f6798a09c465da95921460cefb38474024989060200160405180910390a150565b6001600160a01b03163b151590565b6014015190565b60008161ffff1661277a03610f35575061a869919050565b8161ffff1661277d03610f4c575062013881919050565b8161ffff16606a03610f61575061a86a919050565b8161ffff16606e03610f76575061a4b1919050565b8161ffff16606603610f8a57506038919050565b8161ffff16606503610f9e57506001919050565b8161ffff1660b503610fb35750611388919050565b8161ffff16606f03610fc75750600a919050565b610fcf6119aa565b919050565b6000606060008060008661ffff1667ffffffffffffffff811115610ffa57610ffa61170c565b6040519080825280601f01601f191660200182016040528015611024576020820181803683370190505b50905060008087516020890160008d8df191503d925086831115611046578692505b828152826000602083013e909890975095505050505050565b6000546001600160a01b0316331461083e5760405162461bcd60e51b815260206004820181905260248201527f4f776e61626c653a2063616c6c6572206973206e6f7420746865206f776e6572604482015260640161043a565b7f4910fdfa16fed3260ed0e7147f7cc6da11a60208b5b9406d12a635614ffd91435460ff16156110ec5761069f8361130b565b826001600160a01b03166352d1902d6040518163ffffffff1660e01b8152600401602060405180830381865afa925050508015611146575060408051601f3d908101601f19168201909252611143918101906119d9565b60015b6111b85760405162461bcd60e51b815260206004820152602e60248201527f45524331393637557067726164653a206e657720696d706c656d656e7461746960448201527f6f6e206973206e6f742055555053000000000000000000000000000000000000606482015260840161043a565b7f360894a13ba1a3210667c828492db98dca3e2076cc3735a920a3ca505d382bbc811461124d5760405162461bcd60e51b815260206004820152602960248201527f45524331393637557067726164653a20756e737570706f727465642070726f7860448201527f6961626c65555549440000000000000000000000000000000000000000000000606482015260840161043a565b5061069f8383836113d6565b6001547501000000000000000000000000000000000000000000900460ff166112ea5760405162461bcd60e51b815260206004820152602b60248201527f496e697469616c697a61626c653a20636f6e7472616374206973206e6f74206960448201527f6e697469616c697a696e67000000000000000000000000000000000000000000606482015260840161043a565b6000805473ffffffffffffffffffffffffffffffffffffffff191633179055565b6001600160a01b0381163b6113885760405162461bcd60e51b815260206004820152602d60248201527f455243313936373a206e657720696d706c656d656e746174696f6e206973206e60448201527f6f74206120636f6e747261637400000000000000000000000000000000000000606482015260840161043a565b7f360894a13ba1a3210667c828492db98dca3e2076cc3735a920a3ca505d382bbc805473ffffffffffffffffffffffffffffffffffffffff19166001600160a01b0392909216919091179055565b6113df83611401565b6000825111806113ec5750805b1561069f576113fb8383611441565b50505050565b61140a8161130b565b6040516001600160a01b038216907fbc7cd75a20ee27fd9adebab32041f755214dbc6bffa90cc0225b39da2e5c2d3b90600090a250565b60606114668383604051806060016040528060278152602001611a0f6027913961146d565b9392505050565b6060600080856001600160a01b03168560405161148a91906119f2565b600060405180830381855af49150503d80600081146114c5576040519150601f19603f3d011682016040523d82523d6000602084013e6114ca565b606091505b50915091506114db868383876114e5565b9695505050505050565b6060831561155457825160000361154d576001600160a01b0385163b61154d5760405162461bcd60e51b815260206004820152601d60248201527f416464726573733a2063616c6c20746f206e6f6e2d636f6e7472616374000000604482015260640161043a565b508161155e565b61155e8383611566565b949350505050565b8151156115765781518083602001fd5b8060405162461bcd60e51b815260040161043a91906118f5565b803561ffff81168114610fcf57600080fd5b60008083601f8401126115b457600080fd5b50813567ffffffffffffffff8111156115cc57600080fd5b6020830191508360208285010111156115e457600080fd5b9250929050565b6000806000806000806080878903121561160457600080fd5b61160d87611590565b9550602087013567ffffffffffffffff8082111561162a57600080fd5b6116368a838b016115a2565b909750955060408901359150808216821461165057600080fd5b9093506060880135908082111561166657600080fd5b5061167389828a016115a2565b979a9699509497509295939492505050565b6001600160a01b038116811461083e57600080fd5b80358015158114610fcf57600080fd5b6000806000606084860312156116bf57600080fd5b83356116ca81611685565b92506116d86020850161169a565b91506116e66040850161169a565b90509250925092565b60006020828403121561170157600080fd5b813561146681611685565b7f4e487b7100000000000000000000000000000000000000000000000000000000600052604160045260246000fd5b600082601f83011261174c57600080fd5b813567ffffffffffffffff808211156117675761176761170c565b604051601f8301601f19908116603f0116810190828211818310171561178f5761178f61170c565b816040528381528660208588010111156117a857600080fd5b836020870160208301376000602085830101528094505050505092915050565b600080604083850312156117db57600080fd5b82356117e681611685565b9150602083013567ffffffffffffffff81111561180257600080fd5b61180e8582860161173b565b9150509250929050565b60006020828403121561182a57600080fd5b61146682611590565b60008060006040848603121561184857600080fd5b833561185381611685565b9250602084013567ffffffffffffffff81111561186f57600080fd5b61187b868287016115a2565b9497909650939450505050565b60005b838110156118a357818101518382015260200161188b565b50506000910152565b600081518084526118c4816020860160208601611888565b601f01601f19169290920160200192915050565b61ffff8316815260406020820152600061155e60408301846118ac565b60208152600061146660208301846118ac565b818352818160208501375060006020828401015260006020601f19601f840116840101905092915050565b61ffff8816815260a06020820152600061195160a08301888a611908565b67ffffffffffffffff871660408401528281036060840152611974818688611908565b9050828103608084015261198881856118ac565b9a9950505050505050505050565b60208152600061155e602083018486611908565b7f4e487b7100000000000000000000000000000000000000000000000000000000600052600160045260246000fd5b6000602082840312156119eb57600080fd5b5051919050565b60008251611a04818460208701611888565b919091019291505056fe416464726573733a206c6f772d6c6576656c2064656c65676174652063616c6c206661696c6564a2646970667358221220977367aec128d1601fbb3008b59741dbfe0c902706325703d15dbefb4fba80e864736f6c63430008110033",
  "linkReferences": {},
  "deployedLinkReferences": {}
}