{
  "_format": "hh-sol-artifact-1",
  "contractName": "EuphratesYieldToken",
  "sourceName": "contracts/core/YieldContracts/EuphratesYieldToken.sol",
  "abi": [
    {
      "inputs": [
        {
          "internalType": "address",
          "name": "_SY",
          "type": "address"
        },
        {
          "internalType": "address",
          "name": "_PT",
          "type": "address"
        },
        {
          "internalType": "string",
          "name": "_name",
          "type": "string"
        },
        {
          "internalType": "string",
          "name": "_symbol",
          "type": "string"
        },
        {
          "internalType": "uint8",
          "name": "__decimals",
          "type": "uint8"
        },
        {
          "internalType": "uint256",
          "name": "_expiry",
          "type": "uint256"
        },
        {
          "internalType": "bool",
          "name": "_doCacheIndexSameBlock",
          "type": "bool"
        }
      ],
      "stateMutability": "nonpayable",
      "type": "constructor"
    },
    {
      "inputs": [],
      "name": "ArrayEmpty",
      "type": "error"
    },
    {
      "inputs": [],
      "name": "ArrayLengthMismatch",
      "type": "error"
    },
    {
      "inputs": [],
      "name": "InvalidShortString",
      "type": "error"
    },
    {
      "inputs": [
        {
          "internalType": "string",
          "name": "str",
          "type": "string"
        }
      ],
      "name": "StringTooLong",
      "type": "error"
    },
    {
      "inputs": [],
      "name": "YCExpired",
      "type": "error"
    },
    {
      "inputs": [],
      "name": "YCNoFloatingSy",
      "type": "error"
    },
    {
      "inputs": [],
      "name": "YCNotExpired",
      "type": "error"
    },
    {
      "inputs": [],
      "name": "YCNothingToRedeem",
      "type": "error"
    },
    {
      "inputs": [],
      "name": "YCPostExpiryDataNotSet",
      "type": "error"
    },
    {
      "inputs": [
        {
          "internalType": "uint256",
          "name": "actualSy",
          "type": "uint256"
        },
        {
          "internalType": "uint256",
          "name": "requiredSy",
          "type": "uint256"
        }
      ],
      "name": "YieldContractInsufficientSy",
      "type": "error"
    },
    {
      "anonymous": false,
      "inputs": [
        {
          "indexed": true,
          "internalType": "address",
          "name": "owner",
          "type": "address"
        },
        {
          "indexed": true,
          "internalType": "address",
          "name": "spender",
          "type": "address"
        },
        {
          "indexed": false,
          "internalType": "uint256",
          "name": "value",
          "type": "uint256"
        }
      ],
      "name": "Approval",
      "type": "event"
    },
    {
      "anonymous": false,
      "inputs": [
        {
          "indexed": true,
          "internalType": "address",
          "name": "caller",
          "type": "address"
        },
        {
          "indexed": true,
          "internalType": "address",
          "name": "receiver",
          "type": "address"
        },
        {
          "indexed": false,
          "internalType": "uint256",
          "name": "amountPYToRedeem",
          "type": "uint256"
        },
        {
          "indexed": false,
          "internalType": "uint256",
          "name": "amountSyOut",
          "type": "uint256"
        }
      ],
      "name": "Burn",
      "type": "event"
    },
    {
      "anonymous": false,
      "inputs": [],
      "name": "EIP712DomainChanged",
      "type": "event"
    },
    {
      "anonymous": false,
      "inputs": [
        {
          "indexed": true,
          "internalType": "address",
          "name": "caller",
          "type": "address"
        },
        {
          "indexed": true,
          "internalType": "address",
          "name": "receiverPT",
          "type": "address"
        },
        {
          "indexed": true,
          "internalType": "address",
          "name": "receiverYT",
          "type": "address"
        },
        {
          "indexed": false,
          "internalType": "uint256",
          "name": "amountSyToMint",
          "type": "uint256"
        },
        {
          "indexed": false,
          "internalType": "uint256",
          "name": "amountPYOut",
          "type": "uint256"
        }
      ],
      "name": "Mint",
      "type": "event"
    },
    {
      "anonymous": false,
      "inputs": [
        {
          "indexed": true,
          "internalType": "uint256",
          "name": "newIndex",
          "type": "uint256"
        }
      ],
      "name": "NewInterestIndex",
      "type": "event"
    },
    {
      "anonymous": false,
      "inputs": [
        {
          "indexed": true,
          "internalType": "address",
          "name": "user",
          "type": "address"
        },
        {
          "indexed": false,
          "internalType": "uint256",
          "name": "interestOut",
          "type": "uint256"
        }
      ],
      "name": "RedeemInterest",
      "type": "event"
    },
    {
      "anonymous": false,
      "inputs": [
        {
          "indexed": true,
          "internalType": "address",
          "name": "user",
          "type": "address"
        },
        {
          "indexed": false,
          "internalType": "uint256[]",
          "name": "amountRewardsOut",
          "type": "uint256[]"
        }
      ],
      "name": "RedeemRewards",
      "type": "event"
    },
    {
      "anonymous": false,
      "inputs": [
        {
          "indexed": true,
          "internalType": "address",
          "name": "from",
          "type": "address"
        },
        {
          "indexed": true,
          "internalType": "address",
          "name": "to",
          "type": "address"
        },
        {
          "indexed": false,
          "internalType": "uint256",
          "name": "value",
          "type": "uint256"
        }
      ],
      "name": "Transfer",
      "type": "event"
    },
    {
      "anonymous": false,
      "inputs": [
        {
          "indexed": false,
          "internalType": "uint256[]",
          "name": "amountRewardsOut",
          "type": "uint256[]"
        },
        {
          "indexed": false,
          "internalType": "uint256",
          "name": "syOut",
          "type": "uint256"
        }
      ],
      "name": "WithdrawFeeToTreasury",
      "type": "event"
    },
    {
      "inputs": [],
      "name": "DOMAIN_SEPARATOR",
      "outputs": [
        {
          "internalType": "bytes32",
          "name": "",
          "type": "bytes32"
        }
      ],
      "stateMutability": "view",
      "type": "function"
    },
    {
      "inputs": [],
      "name": "PT",
      "outputs": [
        {
          "internalType": "address",
          "name": "",
          "type": "address"
        }
      ],
      "stateMutability": "view",
      "type": "function"
    },
    {
      "inputs": [],
      "name": "SY",
      "outputs": [
        {
          "internalType": "address",
          "name": "",
          "type": "address"
        }
      ],
      "stateMutability": "view",
      "type": "function"
    },
    {
      "inputs": [
        {
          "internalType": "address",
          "name": "owner",
          "type": "address"
        },
        {
          "internalType": "address",
          "name": "spender",
          "type": "address"
        }
      ],
      "name": "allowance",
      "outputs": [
        {
          "internalType": "uint256",
          "name": "",
          "type": "uint256"
        }
      ],
      "stateMutability": "view",
      "type": "function"
    },
    {
      "inputs": [
        {
          "internalType": "address",
          "name": "spender",
          "type": "address"
        },
        {
          "internalType": "uint256",
          "name": "amount",
          "type": "uint256"
        }
      ],
      "name": "approve",
      "outputs": [
        {
          "internalType": "bool",
          "name": "",
          "type": "bool"
        }
      ],
      "stateMutability": "nonpayable",
      "type": "function"
    },
    {
      "inputs": [
        {
          "internalType": "address",
          "name": "account",
          "type": "address"
        }
      ],
      "name": "balanceOf",
      "outputs": [
        {
          "internalType": "uint256",
          "name": "",
          "type": "uint256"
        }
      ],
      "stateMutability": "view",
      "type": "function"
    },
    {
      "inputs": [],
      "name": "decimals",
      "outputs": [
        {
          "internalType": "uint8",
          "name": "",
          "type": "uint8"
        }
      ],
      "stateMutability": "view",
      "type": "function"
    },
    {
      "inputs": [],
      "name": "doCacheIndexSameBlock",
      "outputs": [
        {
          "internalType": "bool",
          "name": "",
          "type": "bool"
        }
      ],
      "stateMutability": "view",
      "type": "function"
    },
    {
      "inputs": [],
      "name": "eip712Domain",
      "outputs": [
        {
          "internalType": "bytes1",
          "name": "fields",
          "type": "bytes1"
        },
        {
          "internalType": "string",
          "name": "name",
          "type": "string"
        },
        {
          "internalType": "string",
          "name": "version",
          "type": "string"
        },
        {
          "internalType": "uint256",
          "name": "chainId",
          "type": "uint256"
        },
        {
          "internalType": "address",
          "name": "verifyingContract",
          "type": "address"
        },
        {
          "internalType": "bytes32",
          "name": "salt",
          "type": "bytes32"
        },
        {
          "internalType": "uint256[]",
          "name": "extensions",
          "type": "uint256[]"
        }
      ],
      "stateMutability": "view",
      "type": "function"
    },
    {
      "inputs": [],
      "name": "expiry",
      "outputs": [
        {
          "internalType": "uint256",
          "name": "",
          "type": "uint256"
        }
      ],
      "stateMutability": "view",
      "type": "function"
    },
    {
      "inputs": [],
      "name": "factory",
      "outputs": [
        {
          "internalType": "address",
          "name": "",
          "type": "address"
        }
      ],
      "stateMutability": "view",
      "type": "function"
    },
    {
      "inputs": [],
      "name": "getPostExpiryData",
      "outputs": [
        {
          "internalType": "uint256",
          "name": "firstPYIndex",
          "type": "uint256"
        },
        {
          "internalType": "uint256",
          "name": "totalSyInterestForTreasury",
          "type": "uint256"
        },
        {
          "internalType": "uint256[]",
          "name": "firstRewardIndexes",
          "type": "uint256[]"
        },
        {
          "internalType": "uint256[]",
          "name": "userRewardOwed",
          "type": "uint256[]"
        }
      ],
      "stateMutability": "view",
      "type": "function"
    },
    {
      "inputs": [],
      "name": "getRewardTokens",
      "outputs": [
        {
          "internalType": "address[]",
          "name": "",
          "type": "address[]"
        }
      ],
      "stateMutability": "view",
      "type": "function"
    },
    {
      "inputs": [],
      "name": "isExpired",
      "outputs": [
        {
          "internalType": "bool",
          "name": "",
          "type": "bool"
        }
      ],
      "stateMutability": "view",
      "type": "function"
    },
    {
      "inputs": [
        {
          "internalType": "address",
          "name": "receiverPT",
          "type": "address"
        },
        {
          "internalType": "address",
          "name": "receiverYT",
          "type": "address"
        }
      ],
      "name": "mintPY",
      "outputs": [
        {
          "internalType": "uint256",
          "name": "amountPYOut",
          "type": "uint256"
        }
      ],
      "stateMutability": "nonpayable",
      "type": "function"
    },
    {
      "inputs": [
        {
          "internalType": "address[]",
          "name": "receiverPTs",
          "type": "address[]"
        },
        {
          "internalType": "address[]",
          "name": "receiverYTs",
          "type": "address[]"
        },
        {
          "internalType": "uint256[]",
          "name": "amountSyToMints",
          "type": "uint256[]"
        }
      ],
      "name": "mintPYMulti",
      "outputs": [
        {
          "internalType": "uint256[]",
          "name": "amountPYOuts",
          "type": "uint256[]"
        }
      ],
      "stateMutability": "nonpayable",
      "type": "function"
    },
    {
      "inputs": [],
      "name": "name",
      "outputs": [
        {
          "internalType": "string",
          "name": "",
          "type": "string"
        }
      ],
      "stateMutability": "view",
      "type": "function"
    },
    {
      "inputs": [
        {
          "internalType": "address",
          "name": "owner",
          "type": "address"
        }
      ],
      "name": "nonces",
      "outputs": [
        {
          "internalType": "uint256",
          "name": "",
          "type": "uint256"
        }
      ],
      "stateMutability": "view",
      "type": "function"
    },
    {
      "inputs": [
        {
          "internalType": "address",
          "name": "owner",
          "type": "address"
        },
        {
          "internalType": "address",
          "name": "spender",
          "type": "address"
        },
        {
          "internalType": "uint256",
          "name": "value",
          "type": "uint256"
        },
        {
          "internalType": "uint256",
          "name": "deadline",
          "type": "uint256"
        },
        {
          "internalType": "uint8",
          "name": "v",
          "type": "uint8"
        },
        {
          "internalType": "bytes32",
          "name": "r",
          "type": "bytes32"
        },
        {
          "internalType": "bytes32",
          "name": "s",
          "type": "bytes32"
        }
      ],
      "name": "permit",
      "outputs": [],
      "stateMutability": "nonpayable",
      "type": "function"
    },
    {
      "inputs": [],
      "name": "postExpiry",
      "outputs": [
        {
          "internalType": "uint128",
          "name": "firstPYIndex",
          "type": "uint128"
        },
        {
          "internalType": "uint128",
          "name": "totalSyInterestForTreasury",
          "type": "uint128"
        }
      ],
      "stateMutability": "view",
      "type": "function"
    },
    {
      "inputs": [],
      "name": "pyIndexCurrent",
      "outputs": [
        {
          "internalType": "uint256",
          "name": "currentIndex",
          "type": "uint256"
        }
      ],
      "stateMutability": "nonpayable",
      "type": "function"
    },
    {
      "inputs": [],
      "name": "pyIndexLastUpdatedBlock",
      "outputs": [
        {
          "internalType": "uint128",
          "name": "",
          "type": "uint128"
        }
      ],
      "stateMutability": "view",
      "type": "function"
    },
    {
      "inputs": [],
      "name": "pyIndexStored",
      "outputs": [
        {
          "internalType": "uint256",
          "name": "",
          "type": "uint256"
        }
      ],
      "stateMutability": "view",
      "type": "function"
    },
    {
      "inputs": [
        {
          "internalType": "address",
          "name": "user",
          "type": "address"
        },
        {
          "internalType": "bool",
          "name": "redeemInterest",
          "type": "bool"
        },
        {
          "internalType": "bool",
          "name": "redeemRewards",
          "type": "bool"
        }
      ],
      "name": "redeemDueInterestAndRewards",
      "outputs": [
        {
          "internalType": "uint256",
          "name": "interestOut",
          "type": "uint256"
        },
        {
          "internalType": "uint256[]",
          "name": "rewardsOut",
          "type": "uint256[]"
        }
      ],
      "stateMutability": "nonpayable",
      "type": "function"
    },
    {
      "inputs": [],
      "name": "redeemInterestAndRewardsPostExpiryForTreasury",
      "outputs": [
        {
          "internalType": "uint256",
          "name": "interestOut",
          "type": "uint256"
        },
        {
          "internalType": "uint256[]",
          "name": "rewardsOut",
          "type": "uint256[]"
        }
      ],
      "stateMutability": "nonpayable",
      "type": "function"
    },
    {
      "inputs": [
        {
          "internalType": "address",
          "name": "receiver",
          "type": "address"
        }
      ],
      "name": "redeemPY",
      "outputs": [
        {
          "internalType": "uint256",
          "name": "amountSyOut",
          "type": "uint256"
        }
      ],
      "stateMutability": "nonpayable",
      "type": "function"
    },
    {
      "inputs": [
        {
          "internalType": "address[]",
          "name": "receivers",
          "type": "address[]"
        },
        {
          "internalType": "uint256[]",
          "name": "amountPYToRedeems",
          "type": "uint256[]"
        }
      ],
      "name": "redeemPYMulti",
      "outputs": [
        {
          "internalType": "uint256[]",
          "name": "amountSyOuts",
          "type": "uint256[]"
        }
      ],
      "stateMutability": "nonpayable",
      "type": "function"
    },
    {
      "inputs": [],
      "name": "rewardIndexesCurrent",
      "outputs": [
        {
          "internalType": "uint256[]",
          "name": "",
          "type": "uint256[]"
        }
      ],
      "stateMutability": "nonpayable",
      "type": "function"
    },
    {
      "inputs": [],
      "name": "setPostExpiryData",
      "outputs": [],
      "stateMutability": "nonpayable",
      "type": "function"
    },
    {
      "inputs": [],
      "name": "syReserve",
      "outputs": [
        {
          "internalType": "uint256",
          "name": "",
          "type": "uint256"
        }
      ],
      "stateMutability": "view",
      "type": "function"
    },
    {
      "inputs": [],
      "name": "symbol",
      "outputs": [
        {
          "internalType": "string",
          "name": "",
          "type": "string"
        }
      ],
      "stateMutability": "view",
      "type": "function"
    },
    {
      "inputs": [],
      "name": "totalSupply",
      "outputs": [
        {
          "internalType": "uint256",
          "name": "",
          "type": "uint256"
        }
      ],
      "stateMutability": "view",
      "type": "function"
    },
    {
      "inputs": [
        {
          "internalType": "address",
          "name": "to",
          "type": "address"
        },
        {
          "internalType": "uint256",
          "name": "amount",
          "type": "uint256"
        }
      ],
      "name": "transfer",
      "outputs": [
        {
          "internalType": "bool",
          "name": "",
          "type": "bool"
        }
      ],
      "stateMutability": "nonpayable",
      "type": "function"
    },
    {
      "inputs": [
        {
          "internalType": "address",
          "name": "from",
          "type": "address"
        },
        {
          "internalType": "address",
          "name": "to",
          "type": "address"
        },
        {
          "internalType": "uint256",
          "name": "amount",
          "type": "uint256"
        }
      ],
      "name": "transferFrom",
      "outputs": [
        {
          "internalType": "bool",
          "name": "",
          "type": "bool"
        }
      ],
      "stateMutability": "nonpayable",
      "type": "function"
    },
    {
      "inputs": [
        {
          "internalType": "address",
          "name": "",
          "type": "address"
        }
      ],
      "name": "userInterest",
      "outputs": [
        {
          "internalType": "uint128",
          "name": "index",
          "type": "uint128"
        },
        {
          "internalType": "uint128",
          "name": "accrued",
          "type": "uint128"
        }
      ],
      "stateMutability": "view",
      "type": "function"
    },
    {
      "inputs": [
        {
          "internalType": "address",
          "name": "",
          "type": "address"
        },
        {
          "internalType": "address",
          "name": "",
          "type": "address"
        }
      ],
      "name": "userReward",
      "outputs": [
        {
          "internalType": "uint128",
          "name": "index",
          "type": "uint128"
        },
        {
          "internalType": "uint128",
          "name": "accrued",
          "type": "uint128"
        }
      ],
      "stateMutability": "view",
      "type": "function"
    }
  ],
  "bytecode": "0x6102206040523480156200001257600080fd5b5060405162005a0138038062005a01833981016040819052620000359162000323565b84848482604051806040016040528060018152602001603160f81b815250848484826003908162000067919062000481565b50600462000076838262000481565b5060ff16608052505060028054600160f81b6001600160f81b03909116179055620000af8260056200019a602090811b62001d7417901c565b61014052620000cc8160066200019a602090811b62001d7417901c565b61016052815160208084019190912061010052815190820120610120524660c0526200015c6101005161012051604080517f8b73c3c69bb8fe3d512ecc4cf759cc79239f7b179b0ffacaa9a75d522b39400f60208201529081019290925260608201524660808201523060a082015260009060c00160405160208183030381529060405280519060200120905090565b60a05250503060e0525050506001600160a01b0396871661018052949095166101a0525050506101e091909152336101c052151561020052620005a7565b6000602083511015620001ba57620001b283620001ea565b9050620001e4565b82620001d1836200023660201b62001da51760201c565b90620001de908262000481565b5060ff90505b92915050565b600080829050601f8151111562000221578260405163305a27a960e01b81526004016200021891906200054d565b60405180910390fd5b80516200022e8262000582565b179392505050565b90565b80516001600160a01b03811681146200025157600080fd5b919050565b634e487b7160e01b600052604160045260246000fd5b60005b83811015620002895781810151838201526020016200026f565b50506000910152565b600082601f830112620002a457600080fd5b81516001600160401b0380821115620002c157620002c162000256565b604051601f8301601f19908116603f01168101908282118183101715620002ec57620002ec62000256565b816040528381528660208588010111156200030657600080fd5b620003198460208301602089016200026c565b9695505050505050565b600080600080600080600060e0888a0312156200033f57600080fd5b6200034a8862000239565b96506200035a6020890162000239565b60408901519096506001600160401b03808211156200037857600080fd5b620003868b838c0162000292565b965060608a01519150808211156200039d57600080fd5b50620003ac8a828b0162000292565b945050608088015160ff81168114620003c457600080fd5b60a089015160c08a015191945092508015158114620003e257600080fd5b8091505092959891949750929550565b600181811c908216806200040757607f821691505b6020821081036200042857634e487b7160e01b600052602260045260246000fd5b50919050565b601f8211156200047c57600081815260208120601f850160051c81016020861015620004575750805b601f850160051c820191505b81811015620004785782815560010162000463565b5050505b505050565b81516001600160401b038111156200049d576200049d62000256565b620004b581620004ae8454620003f2565b846200042e565b602080601f831160018114620004ed5760008415620004d45750858301515b600019600386901b1c1916600185901b17855562000478565b600085815260208120601f198616915b828110156200051e57888601518255948401946001909101908401620004fd565b50858210156200053d5787850151600019600388901b60f8161c191681555b5050505050600190811b01905550565b60208152600082518060208401526200056e8160408501602087016200026c565b601f01601f19169190910160400192915050565b80516020808301519190811015620004285760001960209190910360031b1b16919050565b60805160a05160c05160e05161010051610120516101405161016051610180516101a0516101c0516101e051610200516152ac62000755600039600081816103a60152611f040152600081816103300152818161066f01528181610afe01528181610b5c01528181610de5015281816111d201528181611206015281816114d80152818161168d0152818161189301528181611abb01528181611b1901528181612a6101528181613104015281816133520152818161350501528181613d620152818161403301526143ea01526000818161055701528181610f45015281816112620152818161370001526137860152600081816105fc015281816128720152818161309b0152818161338001526133be0152600081816104f201528181610f24015281816114140152818161179701528181611cf801528181611f5f015281816124f30152818161257d0152818161272901528181612a1a01528181612dbf015281816131e30152614122015260006110360152600061100b0152600061244e0152600061242601526000612381015260006123ab015260006123d50152600061035c01526152ac6000f3fe608060405234801561001057600080fd5b506004361061025c5760003560e01c806384b0196e11610145578063cdbb0361116100bd578063d94073d41161008c578063dd62ed3e11610071578063dd62ed3e14610631578063e184c9be1461066a578063f8b2f9911461069157600080fd5b8063d94073d4146105f7578063db74aa151461061e57600080fd5b8063cdbb03611461058e578063d2a3584e14610598578063d505accf146105b0578063d68076c3146105c357600080fd5b8063afd27bf511610114578063bcb7ea5d116100f9578063bcb7ea5d1461053f578063c45a015514610552578063c4f59f9b1461057957600080fd5b8063afd27bf5146104ed578063b0d889811461052c57600080fd5b806384b0196e146104af57806395d89b41146104ca578063a9059cbb146104d2578063acc5da4c146104e557600080fd5b80633644e515116101d85780635cbadbe4116101a757806370a082311161018c57806370a08231146104525780637d24da4d1461047b5780637ecebe001461049c57600080fd5b80635cbadbe4146103e857806360e0a9e11461042757600080fd5b80633644e515146103905780634ba6dcd714610398578063516399df146103a157806353335819146103c857600080fd5b806318160ddd1161022f57806323b872dd1161021457806323b872dd1461031b5780632f13b60c1461032e578063313ce5671461035757600080fd5b806318160ddd146102f85780631d52edc41461031357600080fd5b806306fdde0314610261578063095ea7b31461027f5780630a2b83a7146102a25780630b49fcef146102e0575b600080fd5b610269610699565b6040516102769190614937565b60405180910390f35b61029261028d36600461495f565b61072b565b6040519015158152602001610276565b600c546102c0906001600160801b0380821691600160801b90041682565b604080516001600160801b03938416815292909116602083015201610276565b6102e8610745565b60405161027694939291906149c6565b6002546001600160f81b03165b604051908152602001610276565b610305610929565b6102926103293660046149f7565b6109c6565b7f0000000000000000000000000000000000000000000000000000000000000000421015610292565b61037e7f000000000000000000000000000000000000000000000000000000000000000081565b60405160ff9091168152602001610276565b610305610a79565b610305600a5481565b6102927f000000000000000000000000000000000000000000000000000000000000000081565b6103db6103d6366004614a7d565b610a83565b6040516102769190614b17565b6102c06103f6366004614b2a565b60086020908152600092835260408084209091529082529020546001600160801b0380821691600160801b90041682565b600b5461043a906001600160801b031681565b6040516001600160801b039091168152602001610276565b610305610460366004614b63565b6001600160a01b031660009081526020819052604090205490565b61048e610489366004614b8e565b610d67565b604051610276929190614bd9565b6103056104aa366004614b63565b610fdf565b6104b7610ffd565b6040516102769796959493929190614bf2565b6102696110a2565b6102926104e036600461495f565b6110b1565b61048e611154565b6105147f000000000000000000000000000000000000000000000000000000000000000081565b6040516001600160a01b039091168152602001610276565b6103db61053a366004614c7c565b61145d565b61030561054d366004614b63565b611612565b6105147f000000000000000000000000000000000000000000000000000000000000000081565b610581611793565b6040516102769190614ce8565b61059661181b565b005b600b54600160801b90046001600160801b0316610305565b6105966105be366004614d35565b6118dc565b6102c06105d1366004614b63565b6009602052600090815260409020546001600160801b0380821691600160801b90041682565b6105147f000000000000000000000000000000000000000000000000000000000000000081565b61030561062c366004614b2a565b611a40565b61030561063f366004614b2a565b6001600160a01b03918216600090815260016020908152604080832093909416825291909152205490565b6103057f000000000000000000000000000000000000000000000000000000000000000081565b6103db611c57565b6060600380546106a890614dac565b80601f01602080910402602001604051908101604052809291908181526020018280546106d490614dac565b80156107215780601f106106f657610100808354040283529160200191610721565b820191906000526020600020905b81548152906001019060200180831161070457829003601f168201915b5050505050905090565b600033610739818585611da8565b60019150505b92915050565b600c54600090819060609081906001600160801b03168303610793576040517fd250963300000000000000000000000000000000000000000000000000000000815260040160405180910390fd5b600c546001600160801b038082169550600160801b90910416925060006107b8611793565b9050805167ffffffffffffffff8111156107d4576107d4614de0565b6040519080825280602002602001820160405280156107fd578160200160208202803683370190505b509250805167ffffffffffffffff81111561081a5761081a614de0565b604051908082528060200260200182016040528015610843578160200160208202803683370190505b50915060005b815181101561092157600c600101600083838151811061086b5761086b614df6565b60200260200101516001600160a01b03166001600160a01b03168152602001908152602001600020548482815181106108a6576108a6614df6565b602002602001018181525050600c60020160008383815181106108cb576108cb614df6565b60200260200101516001600160a01b03166001600160a01b031681526020019081526020016000205483828151811061090657610906614df6565b602090810291909101015261091a81614e22565b9050610849565b505090919293565b600254600090600119600160f81b90910460ff160161098f5760405162461bcd60e51b815260206004820152601f60248201527f5265656e7472616e637947756172643a207265656e7472616e742063616c6c0060448201526064015b60405180910390fd5b600280546001600160f81b0316600160f91b1790556109ac611f00565b600280546001600160f81b0316600160f81b179055919050565b600254600090600119600160f81b90910460ff1601610a275760405162461bcd60e51b815260206004820152601f60248201527f5265656e7472616e637947756172643a207265656e7472616e742063616c6c006044820152606401610986565b600280546001600160f81b0316600160f91b17905533610a4885828561205f565b610a538585856120f1565b6001915050600280546001600160f81b0316600160f81b1790559392505050565b905090565b6000610a74612374565b600254606090600119600160f81b90910460ff1601610ae45760405162461bcd60e51b815260206004820152601f60248201527f5265656e7472616e637947756172643a207265656e7472616e742063616c6c006044820152606401610986565b600280546001600160f81b0316600160f91b179055610b237f000000000000000000000000000000000000000000000000000000000000000042101590565b15610b5a576040517f5b15a6da00000000000000000000000000000000000000000000000000000000815260040160405180910390fd5b7f00000000000000000000000000000000000000000000000000000000000000004210610b8957610b8961249f565b856000819003610bc5576040517ff1364a7400000000000000000000000000000000000000000000000000000000815260040160405180910390fd5b8481141580610bd45750828114155b15610c0b576040517fa24a13a600000000000000000000000000000000000000000000000000000000815260040160405180910390fd5b6000610c498585808060200260200160405190810160405280939291908181526020018383602002808284376000920191909152506126db92505050565b9050610c5361271f565b811115610c9e5780610c6361271f565b6040517fa2cb081900000000000000000000000000000000000000000000000000000000815260048101929092526024820152604401610986565b610d3c89898080602002602001604051908101604052809392919081815260200183836020028082843760009201919091525050604080516020808d0282810182019093528c82529093508c92508b91829185019084908082843760009201919091525050604080516020808c0282810182019093528b82529093508b92508a91829185019084908082843760009201919091525061279392505050565b92505050610d48612a15565b600280546001600160f81b0316600160f81b1790559695505050505050565b600254600090606090600119600160f81b90910460ff1601610dcb5760405162461bcd60e51b815260206004820152601f60248201527f5265656e7472616e637947756172643a207265656e7472616e742063616c6c006044820152606401610986565b600280546001600160f81b0316600160f91b179055610e0a7f000000000000000000000000000000000000000000000000000000000000000042101590565b15610e1757610e1761249f565b83158015610e23575082155b15610e5a576040517f68146f1d00000000000000000000000000000000000000000000000000000000815260040160405180910390fd5b610e6385612a43565b8215610ebb57610e738586612a51565b9050846001600160a01b03167f78d61a0c27b13f43911095f9f356f14daa3cd8b125eea1aa22421245e90e813d82604051610eae9190614b17565b60405180910390a2610f0f565b6000610ec5611793565b9050805167ffffffffffffffff811115610ee157610ee1614de0565b604051908082528060200260200182016040528015610f0a578160200160208202803683370190505b509150505b8315610fb357610f1e85612ba5565b610f69857f00000000000000000000000000000000000000000000000000000000000000007f0000000000000000000000000000000000000000000000000000000000000000612bb0565b9150846001600160a01b03167f83a945bd12c713615b59a6e48a3467c05d1a7442350600d6f7fce6af9f7190e983604051610fa691815260200190565b60405180910390a2610fb8565b600091505b610fc0612a15565b600280546001600160f81b0316600160f81b1790559094909350915050565b6001600160a01b03811660009081526007602052604081205461073f565b6000606080828080836110317f00000000000000000000000000000000000000000000000000000000000000006005612ced565b61105c7f00000000000000000000000000000000000000000000000000000000000000006006612ced565b604080516000808252602082019092527f0f000000000000000000000000000000000000000000000000000000000000009b939a50919850469750309650945092509050565b6060600480546106a890614dac565b600254600090600119600160f81b90910460ff16016111125760405162461bcd60e51b815260206004820152601f60248201527f5265656e7472616e637947756172643a207265656e7472616e742063616c6c006044820152606401610986565b600280546001600160f81b0316600160f91b179055336111338185856120f1565b60019150505b600280546001600160f81b0316600160f81b17905592915050565b600254600090606090600119600160f81b90910460ff16016111b85760405162461bcd60e51b815260206004820152601f60248201527f5265656e7472616e637947756172643a207265656e7472616e742063616c6c006044820152606401610986565b600280546001600160f81b0316600160f91b1790556111f77f000000000000000000000000000000000000000000000000000000000000000042101590565b156112045761120461249f565b7f000000000000000000000000000000000000000000000000000000000000000042101561125e576040517fcd81a63600000000000000000000000000000000000000000000000000000000815260040160405180910390fd5b60007f00000000000000000000000000000000000000000000000000000000000000006001600160a01b03166361d027b36040518163ffffffff1660e01b8152600401602060405180830381865afa1580156112be573d6000803e3d6000fd5b505050506040513d601f19601f820116820180604052508101906112e29190614e3c565b905060006112ee611793565b9050805167ffffffffffffffff81111561130a5761130a614de0565b604051908082528060200260200182016040528015611333578160200160208202803683370190505b50925061133e612d91565b60005b81518110156113e757600c600201600083838151811061136357611363614df6565b60200260200101516001600160a01b03166001600160a01b03168152602001908152602001600020546113ae8383815181106113a1576113a1614df6565b6020026020010151612e38565b6113b89190614e59565b8482815181106113ca576113ca614df6565b6020908102919091010152806113df81614e22565b915050611341565b506113f3818385612ed6565b600c80546001600160801b03808216909255600160801b900416935061143a7f00000000000000000000000000000000000000000000000000000000000000008386612f7f565b5050611444612a15565b600280546001600160f81b0316600160f81b1790559091565b600254606090600119600160f81b90910460ff16016114be5760405162461bcd60e51b815260206004820152601f60248201527f5265656e7472616e637947756172643a207265656e7472616e742063616c6c006044820152606401610986565b600280546001600160f81b0316600160f91b1790556114fd7f000000000000000000000000000000000000000000000000000000000000000042101590565b1561150a5761150a61249f565b838214611543576040517fa24a13a600000000000000000000000000000000000000000000000000000000815260040160405180910390fd5b600084900361157e576040517ff1364a7400000000000000000000000000000000000000000000000000000000815260040160405180910390fd5b6115eb8585808060200260200160405190810160405280939291908181526020018383602002808284376000920191909152505060408051602080890282810182019093528882529093508892508791829185019084908082843760009201919091525061305692505050565b90506115f5612a15565b600280546001600160f81b0316600160f81b179055949350505050565b600254600090600119600160f81b90910460ff16016116735760405162461bcd60e51b815260206004820152601f60248201527f5265656e7472616e637947756172643a207265656e7472616e742063616c6c006044820152606401610986565b600280546001600160f81b0316600160f91b1790556116b27f000000000000000000000000000000000000000000000000000000000000000042101590565b156116bf576116bf61249f565b6040805160018082528183019092526000916020808301908036833750506040805160018082528183019092529293506000929150602080830190803683370190505090508361170d61334e565b8360008151811061172057611720614df6565b602002602001018360008151811061173a5761173a614df6565b6020026020010182815250826001600160a01b03166001600160a01b0316815250505060606117698383613056565b90508060008151811061177e5761177e614df6565b602002602001015193505050506109ac612a15565b60607f00000000000000000000000000000000000000000000000000000000000000006001600160a01b031663c4f59f9b6040518163ffffffff1660e01b8152600401600060405180830381865afa1580156117f3573d6000803e3d6000fd5b505050506040513d6000823e601f3d908101601f19168201604052610a749190810190614ec1565b600254600119600160f81b90910460ff16016118795760405162461bcd60e51b815260206004820152601f60248201527f5265656e7472616e637947756172643a207265656e7472616e742063616c6c006044820152606401610986565b600280546001600160f81b0316600160f91b1790556118b87f000000000000000000000000000000000000000000000000000000000000000042101590565b156118c5576118c561249f565b600280546001600160f81b0316600160f81b179055565b8342111561192c5760405162461bcd60e51b815260206004820152601d60248201527f45524332305065726d69743a206578706972656420646561646c696e650000006044820152606401610986565b60007f6e71edae12b1b97f4d1f60370fef10105fa2faae0126114a169c64845d6126c988888861195b8c6133e2565b6040805160208101969096526001600160a01b0394851690860152929091166060840152608083015260a082015260c0810186905260e00160405160208183030381529060405280519060200120905060006119b68261340a565b905060006119c682878787613452565b9050896001600160a01b0316816001600160a01b031614611a295760405162461bcd60e51b815260206004820152601e60248201527f45524332305065726d69743a20696e76616c6964207369676e617475726500006044820152606401610986565b611a348a8a8a611da8565b50505050505050505050565b600254600090600119600160f81b90910460ff1601611aa15760405162461bcd60e51b815260206004820152601f60248201527f5265656e7472616e637947756172643a207265656e7472616e742063616c6c006044820152606401610986565b600280546001600160f81b0316600160f91b179055611ae07f000000000000000000000000000000000000000000000000000000000000000042101590565b15611b17576040517f5b15a6da00000000000000000000000000000000000000000000000000000000815260040160405180910390fd5b7f00000000000000000000000000000000000000000000000000000000000000004210611b4657611b4661249f565b60408051600180825281830190925260009160208083019080368337505060408051600180825281830190925292935060009291506020808301908036833750506040805160018082528183019092529293506000929150602080830190803683370190505090508585611bb861271f565b85600081518110611bcb57611bcb614df6565b6020026020010185600081518110611be557611be5614df6565b6020026020010185600081518110611bff57611bff614df6565b60209081029190910101929092526001600160a01b03928316909152911690526000611c2c848484612793565b905080600081518110611c4157611c41614df6565b6020026020010151945050505050611139612a15565b600254606090600119600160f81b90910460ff1601611cb85760405162461bcd60e51b815260206004820152601f60248201527f5265656e7472616e637947756172643a207265656e7472616e742063616c6c006044820152606401610986565b600280546001600160f81b0316600160f91b179055604080517ff8b2f99100000000000000000000000000000000000000000000000000000000815290517f00000000000000000000000000000000000000000000000000000000000000006001600160a01b03169163f8b2f991916004808301926000929190829003018183875af1158015611d4c573d6000803e3d6000fd5b505050506040513d6000823e601f3d908101601f191682016040526109ac9190810190614f55565b6000602083511015611d9057611d898361347a565b905061073f565b81611d9b8482615029565b5060ff905061073f565b90565b6001600160a01b038316611e235760405162461bcd60e51b8152602060048201526024808201527f45524332303a20617070726f76652066726f6d20746865207a65726f2061646460448201527f72657373000000000000000000000000000000000000000000000000000000006064820152608401610986565b6001600160a01b038216611e9f5760405162461bcd60e51b815260206004820152602260248201527f45524332303a20617070726f766520746f20746865207a65726f20616464726560448201527f73730000000000000000000000000000000000000000000000000000000000006064820152608401610986565b6001600160a01b0383811660008181526001602090815260408083209487168084529482529182902085905590518481527f8c5be1e5ebec7d5bd14f71427d1e84f3dd0314c0f7b2291e5b200ac8c7c3b925910160405180910390a3505050565b60007f00000000000000000000000000000000000000000000000000000000000000008015611f395750600b546001600160801b031643145b15611f555750600b54600160801b90046001600160801b031690565b6000611ffc611ff77f00000000000000000000000000000000000000000000000000000000000000006001600160a01b0316633ba0b9a96040518163ffffffff1660e01b8152600401602060405180830381865afa158015611fbb573d6000803e3d6000fd5b505050506040513d601f19601f82011682018060405250810190611fdf91906150e9565b600b54600160801b90046001600160801b03166134d1565b6134e9565b436001600160801b03908116600160801b9183169182026fffffffffffffffffffffffffffffffff191617600b5560405190935090915082907f71475f2f645813fdbebf53a58968008bff11ee21a58f01c5a9cc263d0bc4703d90600090a25090565b6001600160a01b0383811660009081526001602090815260408083209386168352929052205460001981146120eb57818110156120de5760405162461bcd60e51b815260206004820152601d60248201527f45524332303a20696e73756666696369656e7420616c6c6f77616e63650000006044820152606401610986565b6120eb8484848403611da8565b50505050565b6001600160a01b03831661216d5760405162461bcd60e51b815260206004820152602560248201527f45524332303a207472616e736665722066726f6d20746865207a65726f20616460448201527f64726573730000000000000000000000000000000000000000000000000000006064820152608401610986565b6001600160a01b0382166121e95760405162461bcd60e51b815260206004820152602360248201527f45524332303a207472616e7366657220746f20746865207a65726f206164647260448201527f65737300000000000000000000000000000000000000000000000000000000006064820152608401610986565b816001600160a01b0316836001600160a01b03160361224a5760405162461bcd60e51b815260206004820152601760248201527f45524332303a207472616e7366657220746f2073656c660000000000000000006044820152606401610986565b612255838383613503565b6001600160a01b038316600090815260208190526040902054818110156122e45760405162461bcd60e51b815260206004820152602660248201527f45524332303a207472616e7366657220616d6f756e742065786365656473206260448201527f616c616e636500000000000000000000000000000000000000000000000000006064820152608401610986565b6001600160a01b0380851660009081526020819052604080822085850390559185168152908120805484929061231b908490615102565b92505081905550826001600160a01b0316846001600160a01b03167fddf252ad1be2c89b69c2b068fc378daa952ba7f163c4a11628f55a4df523b3ef8460405161236791815260200190565b60405180910390a36120eb565b6000306001600160a01b037f0000000000000000000000000000000000000000000000000000000000000000161480156123cd57507f000000000000000000000000000000000000000000000000000000000000000046145b156123f757507f000000000000000000000000000000000000000000000000000000000000000090565b610a74604080517f8b73c3c69bb8fe3d512ecc4cf759cc79239f7b179b0ffacaa9a75d522b39400f60208201527f0000000000000000000000000000000000000000000000000000000000000000918101919091527f000000000000000000000000000000000000000000000000000000000000000060608201524660808201523060a082015260009060c00160405160208183030381529060405280519060200120905090565b600c80546001600160801b0316156124b45750565b6124bc612d91565b6124c7611ff7611f00565b8160000160006101000a8154816001600160801b0302191690836001600160801b0316021790555060007f00000000000000000000000000000000000000000000000000000000000000006001600160a01b031663c4f59f9b6040518163ffffffff1660e01b8152600401600060405180830381865afa15801561254f573d6000803e3d6000fd5b505050506040513d6000823e601f3d908101601f191682016040526125779190810190614ec1565b905060007f00000000000000000000000000000000000000000000000000000000000000006001600160a01b031663f8b2f9916040518163ffffffff1660e01b81526004016000604051808303816000875af11580156125db573d6000803e3d6000fd5b505050506040513d6000823e601f3d908101601f191682016040526126039190810190614f55565b905060005b82518110156120eb5781818151811061262357612623614df6565b602002602001015184600101600085848151811061264357612643614df6565b60200260200101516001600160a01b03166001600160a01b03168152602001908152602001600020819055506126848382815181106113a1576113a1614df6565b84600201600085848151811061269c5761269c614df6565b60200260200101516001600160a01b03166001600160a01b031681526020019081526020016000208190555080806126d390614e22565b915050612608565b600080805b8351811015612718578381815181106126fb576126fb614df6565b60200260200101518261270e9190615102565b91506001016126e0565b5092915050565b6000600a5461274d7f0000000000000000000000000000000000000000000000000000000000000000612e38565b6127579190614e59565b905080600003611da5576040517f2282661900000000000000000000000000000000000000000000000000000000815260040160405180910390fd5b6060815167ffffffffffffffff8111156127af576127af614de0565b6040519080825280602002602001820160405280156127d8578160200160208202803683370190505b50905060006127e5611f00565b905060005b8351811015612a0c5761281684828151811061280857612808614df6565b602002602001015183613546565b83828151811061282857612828614df6565b60200260200101818152505061287085828151811061284957612849614df6565b602002602001015184838151811061286357612863614df6565b6020026020010151613552565b7f00000000000000000000000000000000000000000000000000000000000000006001600160a01b03166312a31dcc8783815181106128b1576128b1614df6565b60200260200101518584815181106128cb576128cb614df6565b60200260200101516040518363ffffffff1660e01b81526004016129049291906001600160a01b03929092168252602082015260400190565b600060405180830381600087803b15801561291e57600080fd5b505af1158015612932573d6000803e3d6000fd5b5050505084818151811061294857612948614df6565b60200260200101516001600160a01b031686828151811061296b5761296b614df6565b60200260200101516001600160a01b0316336001600160a01b03167fc0025304673122449dd60b9b0093874b0e2fd6fe57af1c7c2fbfee0ccf5ead588785815181106129b9576129b9614df6565b60200260200101518786815181106129d3576129d3614df6565b60200260200101516040516129f2929190918252602082015260400190565b60405180910390a480612a0481614e22565b9150506127ea565b50509392505050565b612a3e7f0000000000000000000000000000000000000000000000000000000000000000612e38565b600a55565b612a4e81600061367a565b50565b60606000612a5d611793565b90507f00000000000000000000000000000000000000000000000000000000000000004210612b905760005b8151811015612b7b5760086000838381518110612aa857612aa8614df6565b60200260200101516001600160a01b03166001600160a01b031681526020019081526020016000206000866001600160a01b03166001600160a01b0316815260200190815260200160002060000160109054906101000a90046001600160801b03166001600160801b0316600c6002016000848481518110612b2c57612b2c614df6565b60200260200101516001600160a01b03166001600160a01b031681526020019081526020016000206000828254612b639190614e59565b90915550819050612b7381614e22565b915050612a89565b50612b8981858560006136fa565b9150612718565b612b9d81858560016136fa565b949350505050565b612a4e816000613a34565b600080826001600160a01b03166361d027b36040518163ffffffff1660e01b8152600401602060405180830381865afa158015612bf1573d6000803e3d6000fd5b505050506040513d601f19601f82011682018060405250810190612c159190614e3c565b90506000836001600160a01b031663dd86fea16040518163ffffffff1660e01b8152600401602060405180830381865afa158015612c57573d6000803e3d6000fd5b505050506040513d601f19601f82011682018060405250810190612c7b9190615115565b6001600160a01b038716600090815260096020526040812080546001600160801b038181169092559281169350600160801b90920490911690612cbe8284613aa0565b9050612cca8183614e59565b9450612cd7878583612f7f565b612ce2878987612f7f565b505050509392505050565b606060ff8314612d0057611d8983613ac3565b818054612d0c90614dac565b80601f0160208091040260200160405190810160405280929190818152602001828054612d3890614dac565b8015612d855780601f10612d5a57610100808354040283529160200191612d85565b820191906000526020600020905b815481529060010190602001808311612d6857829003601f168201915b5050505050905061073f565b6040517fef5cfb8c0000000000000000000000000000000000000000000000000000000081523060048201527f00000000000000000000000000000000000000000000000000000000000000006001600160a01b03169063ef5cfb8c906024016000604051808303816000875af1158015612e10573d6000803e3d6000fd5b505050506040513d6000823e601f3d908101601f19168201604052612a4e9190810190614f55565b60006001600160a01b03821615612ecf576040517f70a082310000000000000000000000000000000000000000000000000000000081523060048201526001600160a01b038316906370a0823190602401602060405180830381865afa158015612ea6573d6000803e3d6000fd5b505050506040513d601f19601f82011682018060405250810190612eca91906150e9565b61073f565b4792915050565b825181518114612f285760405162461bcd60e51b815260206004820152600f60248201527f6c656e677468206d69736d6174636800000000000000000000000000000000006044820152606401610986565b60005b81811015612f7857612f70858281518110612f4857612f48614df6565b602002602001015185858481518110612f6357612f63614df6565b6020026020010151612f7f565b600101612f2b565b5050505050565b80600003612f8c57505050565b6001600160a01b03831661303d576000826001600160a01b03168260405160006040518083038185875af1925050503d8060008114612fe7576040519150601f19603f3d011682016040523d82523d6000602084013e612fec565b606091505b50509050806120eb5760405162461bcd60e51b815260206004820152600f60248201527f6574682073656e64206661696c656400000000000000000000000000000000006044820152606401610986565b6130516001600160a01b0384168383613b02565b505050565b60606000613063836126db565b6040517fb64761f9000000000000000000000000000000000000000000000000000000008152306004820152602481018290529091507f00000000000000000000000000000000000000000000000000000000000000006001600160a01b03169063b64761f990604401600060405180830381600087803b1580156130e757600080fd5b505af11580156130fb573d6000803e3d6000fd5b505050506131297f000000000000000000000000000000000000000000000000000000000000000042101590565b613137576131373082613b82565b6000613141611f00565b90506000855167ffffffffffffffff81111561315f5761315f614de0565b604051908082528060200260200182016040528015613188578160200160208202803683370190505b50935060005b86518110156132ee5760006131bc8783815181106131ae576131ae614df6565b602002602001015185613d51565b8784815181106131ce576131ce614df6565b6020026020010181935082815250505061322e7f000000000000000000000000000000000000000000000000000000000000000089848151811061321457613214614df6565b6020026020010151888581518110612f6357612f63614df6565b6132388184615102565b925087828151811061324c5761324c614df6565b60200260200101516001600160a01b0316336001600160a01b03167f5d624aa9c148153ab3446c1b154f660ee7701e549fe9b62dab7171b1c80e6fa289858151811061329a5761329a614df6565b60200260200101518986815181106132b4576132b4614df6565b60200260200101516040516132d3929190918252602082015260400190565b60405180910390a350806132e681614e22565b91505061318e565b508015613345576132fe816134e9565b600c8054601090613320908490600160801b90046001600160801b031661513e565b92506101000a8154816001600160801b0302191690836001600160801b031602179055505b50505092915050565b60007f00000000000000000000000000000000000000000000000000000000000000004210156133b957610a746133a47f0000000000000000000000000000000000000000000000000000000000000000612e38565b30600090815260208190526040902054613db7565b610a747f0000000000000000000000000000000000000000000000000000000000000000612e38565b6001600160a01b03811660009081526007602052604090208054600181018255905b50919050565b600061073f613417612374565b836040517f19010000000000000000000000000000000000000000000000000000000000008152600281019290925260228201526042902090565b600080600061346387878787613dc6565b9150915061347081613e8a565b5095945050505050565b600080829050601f815111156134be57826040517f305a27a90000000000000000000000000000000000000000000000000000000081526004016109869190614937565b80516134c98261515e565b179392505050565b60008183116134e057816134e2565b825b9392505050565b60006001600160801b038211156134ff57600080fd5b5090565b7f000000000000000000000000000000000000000000000000000000000000000042106135325761353261249f565b61353c838361367a565b6130518383613a34565b60006134e28284613fef565b6001600160a01b0382166135a85760405162461bcd60e51b815260206004820152601f60248201527f45524332303a206d696e7420746f20746865207a65726f2061646472657373006044820152606401610986565b6135b460008383613503565b6135bd8161400e565b600280546000906135d89084906001600160f81b0316615182565b92506101000a8154816001600160f81b0302191690836001600160f81b0316021790555080600080846001600160a01b03166001600160a01b0316815260200190815260200160002060008282546136309190615102565b90915550506040518181526001600160a01b038316906000907fddf252ad1be2c89b69c2b068fc378daa952ba7f163c4a11628f55a4df523b3ef9060200160405180910390a35050565b600080613685614024565b9150915081516000036136985750505050565b6001600160a01b038416158015906136b957506001600160a01b0384163014155b156136c9576136c98483836141ae565b6001600160a01b038316158015906136ea57506001600160a01b0383163014155b156120eb576120eb8383836141ae565b606060007f00000000000000000000000000000000000000000000000000000000000000006001600160a01b03166361d027b36040518163ffffffff1660e01b8152600401602060405180830381865afa15801561375c573d6000803e3d6000fd5b505050506040513d601f19601f820116820180604052508101906137809190614e3c565b905060007f00000000000000000000000000000000000000000000000000000000000000006001600160a01b031663f5de2d1f6040518163ffffffff1660e01b8152600401602060405180830381865afa1580156137e2573d6000803e3d6000fd5b505050506040513d601f19601f820116820180604052508101906138069190615115565b6001600160801b031690506000875167ffffffffffffffff81111561382d5761382d614de0565b604051908082528060200260200182016040528015613856578160200160208202803683370190505b50935060005b8851811015613a28576000600860008b848151811061387d5761387d614df6565b60200260200101516001600160a01b03166001600160a01b0316815260200190815260200160002060008a6001600160a01b03166001600160a01b0316815260200190815260200160002060000160109054906101000a90046001600160801b03166001600160801b031690506000600860008c858151811061390257613902614df6565b6020908102919091018101516001600160a01b0390811683528282019390935260409182016000908120938e168152929052812080546001600160801b03938416600160801b0293169290921790915561395c8286613aa0565b90506139688183614e59565b87848151811061397a5761397a614df6565b602002602001018181525050831580156139915750875b156139bf57816139ac8c85815181106113a1576113a1614df6565b10156139bf576139ba612d91565b600193505b6139e38b84815181106139d4576139d4614df6565b60200260200101518783612f7f565b613a138b84815181106139f8576139f8614df6565b60200260200101518a898681518110612f6357612f63614df6565b50508080613a2090614e22565b91505061385c565b50505050949350505050565b6000613a3e6143e6565b90506001600160a01b03831615801590613a6157506001600160a01b0383163014155b15613a7057613a708382614427565b6001600160a01b03821615801590613a9157506001600160a01b0382163014155b15613051576130518282614427565b600080613aad83856151a2565b9050670de0b6b3a7640000815b04949350505050565b60606000613ad0836145c5565b604080516020808252818301909252919250600091906020820181803683375050509182525060208101929092525090565b604080516001600160a01b038416602482015260448082018490528251808303909101815260649091019091526020810180517bffffffffffffffffffffffffffffffffffffffffffffffffffffffff167fa9059cbb00000000000000000000000000000000000000000000000000000000179052613051908490614606565b6001600160a01b038216613bfe5760405162461bcd60e51b815260206004820152602160248201527f45524332303a206275726e2066726f6d20746865207a65726f2061646472657360448201527f73000000000000000000000000000000000000000000000000000000000000006064820152608401610986565b613c0a82600083613503565b6001600160a01b03821660009081526020819052604090205481811015613c995760405162461bcd60e51b815260206004820152602260248201527f45524332303a206275726e20616d6f756e7420657863656564732062616c616e60448201527f63650000000000000000000000000000000000000000000000000000000000006064820152608401610986565b6001600160a01b03831660009081526020819052604090208282039055613cbf8261400e565b60028054600090613cda9084906001600160f81b03166151cf565b92506101000a8154816001600160f81b0302191690836001600160f81b0316021790555060006001600160a01b0316836001600160a01b03167fddf252ad1be2c89b69c2b068fc378daa952ba7f163c4a11628f55a4df523b3ef84604051613d4491815260200190565b60405180910390a3505050565b600080613d5e83856146ee565b91507f00000000000000000000000000000000000000000000000000000000000000004210613db057600c54600090613da0906001600160801b0316866146ee565b9050613dac8382614e59565b9150505b9250929050565b60008183106134e057816134e2565b6000807f7fffffffffffffffffffffffffffffff5d576e7357a4501ddfe92f46681b20a0831115613dfd5750600090506003613e81565b6040805160008082526020820180845289905260ff881692820192909252606081018690526080810185905260019060a0016020604051602081039080840390855afa158015613e51573d6000803e3d6000fd5b5050604051601f1901519150506001600160a01b038116613e7a57600060019250925050613e81565b9150600090505b94509492505050565b6000816004811115613e9e57613e9e6151ef565b03613ea65750565b6001816004811115613eba57613eba6151ef565b03613f075760405162461bcd60e51b815260206004820152601860248201527f45434453413a20696e76616c6964207369676e617475726500000000000000006044820152606401610986565b6002816004811115613f1b57613f1b6151ef565b03613f685760405162461bcd60e51b815260206004820152601f60248201527f45434453413a20696e76616c6964207369676e6174757265206c656e677468006044820152606401610986565b6003816004811115613f7c57613f7c6151ef565b03612a4e5760405162461bcd60e51b815260206004820152602260248201527f45434453413a20696e76616c6964207369676e6174757265202773272076616c60448201527f75650000000000000000000000000000000000000000000000000000000000006064820152608401610986565b6000670de0b6b3a764000061400484846151a2565b6134e29190615205565b60006001600160f81b038211156134ff57600080fd5b60608061402f611793565b91507f0000000000000000000000000000000000000000000000000000000000000000421061412057815167ffffffffffffffff81111561407257614072614de0565b60405190808252806020026020018201604052801561409b578160200160208202803683370190505b50905060005b825181101561411b57600c60010160008483815181106140c3576140c3614df6565b60200260200101516001600160a01b03166001600160a01b03168152602001908152602001600020548282815181106140fe576140fe614df6565b60209081029190910101528061411381614e22565b9150506140a1565b509091565b7f00000000000000000000000000000000000000000000000000000000000000006001600160a01b031663f8b2f9916040518163ffffffff1660e01b81526004016000604051808303816000875af1158015614180573d6000803e3d6000fd5b505050506040513d6000823e601f3d908101601f191682016040526141a89190810190614f55565b90509091565b6001600160a01b038316158015906141cf57506001600160a01b0383163014155b6141db576141db615227565b60006141e684614703565b905060005b8351811015612f7857600084828151811061420857614208614df6565b60200260200101519050600084838151811061422657614226614df6565b6020908102919091018101516001600160a01b038085166000908152600884526040808220928c168252919093528220549092506001600160801b0316908190036142815761427560016134e9565b6001600160801b031690505b818103614290575050506143d6565b600061429c8284614e59565b905060006142aa8783613aa0565b6001600160a01b038681166000908152600860209081526040808320938f16835292905290812054919250906142f1908390600160801b90046001600160801b0316615102565b90506040518060400160405280614307876134e9565b6001600160801b0316815260200161431e836134e9565b6001600160801b031681525060086000886001600160a01b03166001600160a01b0316815260200190815260200160002060008d6001600160a01b03166001600160a01b0316815260200190815260200160002060008201518160000160006101000a8154816001600160801b0302191690836001600160801b0316021790555060208201518160000160106101000a8154816001600160801b0302191690836001600160801b031602179055509050505050505050505b6143df81614e22565b90506141eb565b60007f0000000000000000000000000000000000000000000000000000000000000000421061441f5750600c546001600160801b031690565b610a74611f00565b6001600160a01b0382161580159061444857506001600160a01b0382163014155b61445457614454615227565b6001600160a01b0382166000908152600960205260409020546001600160801b031681810361448257505050565b806000036144d857614493826134e9565b6001600160a01b0393909316600090815260096020526040902080546fffffffffffffffffffffffffffffffff19166001600160801b03909416939093179092555050565b60006144e384614780565b9050600061450e6144f485856151a2565b6144fe8587614e59565b61450890856151a2565b9061479e565b9050614519816134e9565b6001600160a01b03861660009081526009602052604090208054601090614551908490600160801b90046001600160801b031661513e565b92506101000a8154816001600160801b0302191690836001600160801b0316021790555061457e846134e9565b6001600160a01b0395909516600090815260096020526040902080546fffffffffffffffffffffffffffffffff19166001600160801b039096169590951790945550505050565b600060ff8216601f81111561073f576040517fb3512b0c00000000000000000000000000000000000000000000000000000000815260040160405180910390fd5b600061465b826040518060400160405280602081526020017f5361666545524332303a206c6f772d6c6576656c2063616c6c206661696c6564815250856001600160a01b03166147c49092919063ffffffff16565b905080516000148061467c57508080602001905181019061467c919061523d565b6130515760405162461bcd60e51b815260206004820152602a60248201527f5361666545524332303a204552433230206f7065726174696f6e20646964206e60448201527f6f742073756363656564000000000000000000000000000000000000000000006064820152608401610986565b600082614004670de0b6b3a7640000846151a2565b6001600160a01b0381166000908152600960205260408120546001600160801b03168082036147355750600092915050565b6001600160a01b0383166000908152600960209081526040808320549183905290912054600160801b9091046001600160801b0316906147769083906146ee565b6134e29190615102565b6001600160a01b03811660009081526020819052604081205461073f565b6000806147b3670de0b6b3a7640000856151a2565b9050828181613aba57613aba6151b9565b6060612b9d848460008585600080866001600160a01b031685876040516147eb919061525a565b60006040518083038185875af1925050503d8060008114614828576040519150601f19603f3d011682016040523d82523d6000602084013e61482d565b606091505b509150915061483e87838387614849565b979650505050505050565b606083156148b85782516000036148b1576001600160a01b0385163b6148b15760405162461bcd60e51b815260206004820152601d60248201527f416464726573733a2063616c6c20746f206e6f6e2d636f6e74726163740000006044820152606401610986565b5081612b9d565b612b9d83838151156148cd5781518083602001fd5b8060405162461bcd60e51b81526004016109869190614937565b60005b838110156149025781810151838201526020016148ea565b50506000910152565b600081518084526149238160208601602086016148e7565b601f01601f19169290920160200192915050565b6020815260006134e2602083018461490b565b6001600160a01b0381168114612a4e57600080fd5b6000806040838503121561497257600080fd5b823561497d8161494a565b946020939093013593505050565b600081518084526020808501945080840160005b838110156149bb5781518752958201959082019060010161499f565b509495945050505050565b8481528360208201526080604082015260006149e5608083018561498b565b828103606084015261483e818561498b565b600080600060608486031215614a0c57600080fd5b8335614a178161494a565b92506020840135614a278161494a565b929592945050506040919091013590565b60008083601f840112614a4a57600080fd5b50813567ffffffffffffffff811115614a6257600080fd5b6020830191508360208260051b8501011115613db057600080fd5b60008060008060008060608789031215614a9657600080fd5b863567ffffffffffffffff80821115614aae57600080fd5b614aba8a838b01614a38565b90985096506020890135915080821115614ad357600080fd5b614adf8a838b01614a38565b90965094506040890135915080821115614af857600080fd5b50614b0589828a01614a38565b979a9699509497509295939492505050565b6020815260006134e2602083018461498b565b60008060408385031215614b3d57600080fd5b8235614b488161494a565b91506020830135614b588161494a565b809150509250929050565b600060208284031215614b7557600080fd5b81356134e28161494a565b8015158114612a4e57600080fd5b600080600060608486031215614ba357600080fd5b8335614bae8161494a565b92506020840135614bbe81614b80565b91506040840135614bce81614b80565b809150509250925092565b828152604060208201526000612b9d604083018461498b565b7fff000000000000000000000000000000000000000000000000000000000000008816815260e060208201526000614c2d60e083018961490b565b8281036040840152614c3f818961490b565b90508660608401526001600160a01b03861660808401528460a084015282810360c0840152614c6e818561498b565b9a9950505050505050505050565b60008060008060408587031215614c9257600080fd5b843567ffffffffffffffff80821115614caa57600080fd5b614cb688838901614a38565b90965094506020870135915080821115614ccf57600080fd5b50614cdc87828801614a38565b95989497509550505050565b6020808252825182820181905260009190848201906040850190845b81811015614d295783516001600160a01b031683529284019291840191600101614d04565b50909695505050505050565b600080600080600080600060e0888a031215614d5057600080fd5b8735614d5b8161494a565b96506020880135614d6b8161494a565b95506040880135945060608801359350608088013560ff81168114614d8f57600080fd5b9699959850939692959460a0840135945060c09093013592915050565b600181811c90821680614dc057607f821691505b60208210810361340457634e487b7160e01b600052602260045260246000fd5b634e487b7160e01b600052604160045260246000fd5b634e487b7160e01b600052603260045260246000fd5b634e487b7160e01b600052601160045260246000fd5b60006000198203614e3557614e35614e0c565b5060010190565b600060208284031215614e4e57600080fd5b81516134e28161494a565b8181038181111561073f5761073f614e0c565b604051601f8201601f1916810167ffffffffffffffff81118282101715614e9557614e95614de0565b604052919050565b600067ffffffffffffffff821115614eb757614eb7614de0565b5060051b60200190565b60006020808385031215614ed457600080fd5b825167ffffffffffffffff811115614eeb57600080fd5b8301601f81018513614efc57600080fd5b8051614f0f614f0a82614e9d565b614e6c565b81815260059190911b82018301908381019087831115614f2e57600080fd5b928401925b8284101561483e578351614f468161494a565b82529284019290840190614f33565b60006020808385031215614f6857600080fd5b825167ffffffffffffffff811115614f7f57600080fd5b8301601f81018513614f9057600080fd5b8051614f9e614f0a82614e9d565b81815260059190911b82018301908381019087831115614fbd57600080fd5b928401925b8284101561483e57835182529284019290840190614fc2565b601f82111561305157600081815260208120601f850160051c810160208610156150025750805b601f850160051c820191505b818110156150215782815560010161500e565b505050505050565b815167ffffffffffffffff81111561504357615043614de0565b615057816150518454614dac565b84614fdb565b602080601f83116001811461508c57600084156150745750858301515b600019600386901b1c1916600185901b178555615021565b600085815260208120601f198616915b828110156150bb5788860151825594840194600190910190840161509c565b50858210156150d95787850151600019600388901b60f8161c191681555b5050505050600190811b01905550565b6000602082840312156150fb57600080fd5b5051919050565b8082018082111561073f5761073f614e0c565b60006020828403121561512757600080fd5b81516001600160801b03811681146134e257600080fd5b6001600160801b0381811683821601908082111561271857612718614e0c565b805160208083015191908110156134045760001960209190910360031b1b16919050565b6001600160f81b0381811683821601908082111561271857612718614e0c565b808202811582820484141761073f5761073f614e0c565b634e487b7160e01b600052601260045260246000fd5b6001600160f81b0382811682821603908082111561271857612718614e0c565b634e487b7160e01b600052602160045260246000fd5b60008261522257634e487b7160e01b600052601260045260246000fd5b500490565b634e487b7160e01b600052600160045260246000fd5b60006020828403121561524f57600080fd5b81516134e281614b80565b6000825161526c8184602087016148e7565b919091019291505056fea26469706673582212207e69d2859d03f4db72b690321a9c0af5ee33642f5fc95766812401c7769c359764736f6c63430008110033",
  "linkReferences": {},
  "deployedLinkReferences": {}
}