{
  "_format": "hh-sol-artifact-1",
  "contractName": "EuphratesRouterHelper",
  "sourceName": "contracts/router/PendleRouterHelper.sol",
  "abi": [
    {
      "inputs": [
        {
          "internalType": "address",
          "name": "_ROUTER",
          "type": "address"
        },
        {
          "internalType": "contract IAddressProvider",
          "name": "provider",
          "type": "address"
        }
      ],
      "stateMutability": "nonpayable",
      "type": "constructor"
    },
    {
      "anonymous": false,
      "inputs": [
        {
          "indexed": true,
          "internalType": "address",
          "name": "caller",
          "type": "address"
        },
        {
          "indexed": true,
          "internalType": "address",
          "name": "market",
          "type": "address"
        },
        {
          "indexed": true,
          "internalType": "address",
          "name": "receiver",
          "type": "address"
        },
        {
          "indexed": false,
          "internalType": "uint256",
          "name": "netSyIn",
          "type": "uint256"
        },
        {
          "indexed": false,
          "internalType": "uint256",
          "name": "netLpOut",
          "type": "uint256"
        }
      ],
      "name": "AddLiquiditySingleSy",
      "type": "event"
    },
    {
      "anonymous": false,
      "inputs": [
        {
          "indexed": true,
          "internalType": "address",
          "name": "caller",
          "type": "address"
        },
        {
          "indexed": true,
          "internalType": "address",
          "name": "market",
          "type": "address"
        },
        {
          "indexed": true,
          "internalType": "address",
          "name": "receiver",
          "type": "address"
        },
        {
          "indexed": false,
          "internalType": "uint256",
          "name": "netSyIn",
          "type": "uint256"
        },
        {
          "indexed": false,
          "internalType": "uint256",
          "name": "netLpOut",
          "type": "uint256"
        },
        {
          "indexed": false,
          "internalType": "uint256",
          "name": "netYtOut",
          "type": "uint256"
        }
      ],
      "name": "AddLiquiditySingleSyKeepYt",
      "type": "event"
    },
    {
      "anonymous": false,
      "inputs": [
        {
          "indexed": true,
          "internalType": "address",
          "name": "caller",
          "type": "address"
        },
        {
          "indexed": true,
          "internalType": "address",
          "name": "market",
          "type": "address"
        },
        {
          "indexed": true,
          "internalType": "address",
          "name": "token",
          "type": "address"
        },
        {
          "indexed": false,
          "internalType": "address",
          "name": "receiver",
          "type": "address"
        },
        {
          "indexed": false,
          "internalType": "uint256",
          "name": "netTokenIn",
          "type": "uint256"
        },
        {
          "indexed": false,
          "internalType": "uint256",
          "name": "netLpOut",
          "type": "uint256"
        }
      ],
      "name": "AddLiquiditySingleToken",
      "type": "event"
    },
    {
      "anonymous": false,
      "inputs": [
        {
          "indexed": true,
          "internalType": "address",
          "name": "caller",
          "type": "address"
        },
        {
          "indexed": true,
          "internalType": "address",
          "name": "market",
          "type": "address"
        },
        {
          "indexed": true,
          "internalType": "address",
          "name": "token",
          "type": "address"
        },
        {
          "indexed": false,
          "internalType": "address",
          "name": "receiver",
          "type": "address"
        },
        {
          "indexed": false,
          "internalType": "uint256",
          "name": "netTokenIn",
          "type": "uint256"
        },
        {
          "indexed": false,
          "internalType": "uint256",
          "name": "netLpOut",
          "type": "uint256"
        },
        {
          "indexed": false,
          "internalType": "uint256",
          "name": "netYtOut",
          "type": "uint256"
        }
      ],
      "name": "AddLiquiditySingleTokenKeepYt",
      "type": "event"
    },
    {
      "anonymous": false,
      "inputs": [
        {
          "indexed": true,
          "internalType": "address",
          "name": "caller",
          "type": "address"
        },
        {
          "indexed": true,
          "internalType": "address",
          "name": "market",
          "type": "address"
        },
        {
          "indexed": true,
          "internalType": "address",
          "name": "receiver",
          "type": "address"
        },
        {
          "indexed": false,
          "internalType": "uint256",
          "name": "netLpToRemove",
          "type": "uint256"
        },
        {
          "indexed": false,
          "internalType": "uint256",
          "name": "netSyOut",
          "type": "uint256"
        }
      ],
      "name": "RemoveLiquiditySingleSy",
      "type": "event"
    },
    {
      "anonymous": false,
      "inputs": [
        {
          "indexed": true,
          "internalType": "address",
          "name": "caller",
          "type": "address"
        },
        {
          "indexed": true,
          "internalType": "address",
          "name": "market",
          "type": "address"
        },
        {
          "indexed": true,
          "internalType": "address",
          "name": "token",
          "type": "address"
        },
        {
          "indexed": false,
          "internalType": "address",
          "name": "receiver",
          "type": "address"
        },
        {
          "indexed": false,
          "internalType": "uint256",
          "name": "netLpToRemove",
          "type": "uint256"
        },
        {
          "indexed": false,
          "internalType": "uint256",
          "name": "netTokenOut",
          "type": "uint256"
        }
      ],
      "name": "RemoveLiquiditySingleToken",
      "type": "event"
    },
    {
      "inputs": [],
      "name": "ROUTER",
      "outputs": [
        {
          "internalType": "contract IPAllAction",
          "name": "",
          "type": "address"
        }
      ],
      "stateMutability": "view",
      "type": "function"
    },
    {
      "inputs": [],
      "name": "WETH",
      "outputs": [
        {
          "internalType": "address",
          "name": "",
          "type": "address"
        }
      ],
      "stateMutability": "view",
      "type": "function"
    },
    {
      "inputs": [
        {
          "internalType": "address",
          "name": "receiver",
          "type": "address"
        },
        {
          "internalType": "address",
          "name": "market",
          "type": "address"
        },
        {
          "internalType": "uint256",
          "name": "minLpOut",
          "type": "uint256"
        },
        {
          "internalType": "uint256",
          "name": "minYtOut",
          "type": "uint256"
        },
        {
          "components": [
            {
              "internalType": "address",
              "name": "tokenIn",
              "type": "address"
            },
            {
              "internalType": "uint256",
              "name": "netTokenIn",
              "type": "uint256"
            },
            {
              "internalType": "address",
              "name": "tokenMintSy",
              "type": "address"
            },
            {
              "internalType": "address",
              "name": "bulk",
              "type": "address"
            },
            {
              "internalType": "address",
              "name": "euphratesSwap",
              "type": "address"
            },
            {
              "components": [
                {
                  "internalType": "enum SwapType",
                  "name": "swapType",
                  "type": "uint8"
                },
                {
                  "internalType": "address",
                  "name": "extRouter",
                  "type": "address"
                },
                {
                  "internalType": "bytes",
                  "name": "extCalldata",
                  "type": "bytes"
                },
                {
                  "internalType": "bool",
                  "name": "needScale",
                  "type": "bool"
                }
              ],
              "internalType": "struct SwapData",
              "name": "swapData",
              "type": "tuple"
            }
          ],
          "internalType": "struct TokenInput",
          "name": "input",
          "type": "tuple"
        }
      ],
      "name": "addLiquiditySingleTokenKeepYtWithEth",
      "outputs": [
        {
          "internalType": "uint256",
          "name": "netLpOut",
          "type": "uint256"
        },
        {
          "internalType": "uint256",
          "name": "netYtOut",
          "type": "uint256"
        }
      ],
      "stateMutability": "payable",
      "type": "function"
    },
    {
      "inputs": [
        {
          "components": [
            {
              "internalType": "address",
              "name": "market",
              "type": "address"
            },
            {
              "internalType": "uint256",
              "name": "netLpToRemove",
              "type": "uint256"
            },
            {
              "internalType": "bool",
              "name": "doRedeemRewards",
              "type": "bool"
            }
          ],
          "internalType": "struct IPRouterHelper.RemoveLiquiditySingleSyStruct",
          "name": "fromMarket",
          "type": "tuple"
        }
      ],
      "name": "removeLiquiditySingleSy",
      "outputs": [
        {
          "internalType": "uint256",
          "name": "netSyOut",
          "type": "uint256"
        },
        {
          "internalType": "uint256",
          "name": "netSyFee",
          "type": "uint256"
        }
      ],
      "stateMutability": "nonpayable",
      "type": "function"
    },
    {
      "inputs": [
        {
          "components": [
            {
              "internalType": "address",
              "name": "market",
              "type": "address"
            },
            {
              "internalType": "uint256",
              "name": "netLpToRemove",
              "type": "uint256"
            },
            {
              "internalType": "bool",
              "name": "doRedeemRewards",
              "type": "bool"
            },
            {
              "components": [
                {
                  "internalType": "address",
                  "name": "tokenOut",
                  "type": "address"
                },
                {
                  "internalType": "uint256",
                  "name": "minTokenOut",
                  "type": "uint256"
                },
                {
                  "internalType": "address",
                  "name": "tokenRedeemSy",
                  "type": "address"
                },
                {
                  "internalType": "address",
                  "name": "bulk",
                  "type": "address"
                },
                {
                  "internalType": "address",
                  "name": "euphratesSwap",
                  "type": "address"
                },
                {
                  "components": [
                    {
                      "internalType": "enum SwapType",
                      "name": "swapType",
                      "type": "uint8"
                    },
                    {
                      "internalType": "address",
                      "name": "extRouter",
                      "type": "address"
                    },
                    {
                      "internalType": "bytes",
                      "name": "extCalldata",
                      "type": "bytes"
                    },
                    {
                      "internalType": "bool",
                      "name": "needScale",
                      "type": "bool"
                    }
                  ],
                  "internalType": "struct SwapData",
                  "name": "swapData",
                  "type": "tuple"
                }
              ],
              "internalType": "struct TokenOutput",
              "name": "output",
              "type": "tuple"
            }
          ],
          "internalType": "struct IPRouterHelper.RemoveLiquiditySingleTokenStruct",
          "name": "fromMarket",
          "type": "tuple"
        }
      ],
      "name": "removeLiquiditySingleToken",
      "outputs": [
        {
          "internalType": "uint256",
          "name": "netTokenOut",
          "type": "uint256"
        },
        {
          "internalType": "uint256",
          "name": "netSyFee",
          "type": "uint256"
        }
      ],
      "stateMutability": "nonpayable",
      "type": "function"
    },
    {
      "inputs": [
        {
          "components": [
            {
              "internalType": "address",
              "name": "market",
              "type": "address"
            },
            {
              "internalType": "uint256",
              "name": "netLpToRemove",
              "type": "uint256"
            },
            {
              "internalType": "bool",
              "name": "doRedeemRewards",
              "type": "bool"
            },
            {
              "components": [
                {
                  "internalType": "address",
                  "name": "tokenOut",
                  "type": "address"
                },
                {
                  "internalType": "uint256",
                  "name": "minTokenOut",
                  "type": "uint256"
                },
                {
                  "internalType": "address",
                  "name": "tokenRedeemSy",
                  "type": "address"
                },
                {
                  "internalType": "address",
                  "name": "bulk",
                  "type": "address"
                },
                {
                  "internalType": "address",
                  "name": "euphratesSwap",
                  "type": "address"
                },
                {
                  "components": [
                    {
                      "internalType": "enum SwapType",
                      "name": "swapType",
                      "type": "uint8"
                    },
                    {
                      "internalType": "address",
                      "name": "extRouter",
                      "type": "address"
                    },
                    {
                      "internalType": "bytes",
                      "name": "extCalldata",
                      "type": "bytes"
                    },
                    {
                      "internalType": "bool",
                      "name": "needScale",
                      "type": "bool"
                    }
                  ],
                  "internalType": "struct SwapData",
                  "name": "swapData",
                  "type": "tuple"
                }
              ],
              "internalType": "struct TokenOutput",
              "name": "output",
              "type": "tuple"
            }
          ],
          "internalType": "struct IPRouterHelper.RemoveLiquiditySingleTokenStruct",
          "name": "fromMarket",
          "type": "tuple"
        },
        {
          "components": [
            {
              "internalType": "address",
              "name": "market",
              "type": "address"
            },
            {
              "internalType": "uint256",
              "name": "minLpOut",
              "type": "uint256"
            },
            {
              "internalType": "uint256",
              "name": "minYtOut",
              "type": "uint256"
            },
            {
              "internalType": "address",
              "name": "bulk",
              "type": "address"
            }
          ],
          "internalType": "struct IPRouterHelper.AddLiquiditySingleTokenKeepYtStruct",
          "name": "toMarket",
          "type": "tuple"
        }
      ],
      "name": "transferLiquidityDifferentSyKeepYt",
      "outputs": [
        {
          "internalType": "uint256",
          "name": "netLpOut",
          "type": "uint256"
        },
        {
          "internalType": "uint256",
          "name": "netYtOut",
          "type": "uint256"
        },
        {
          "internalType": "uint256",
          "name": "netTokenZapIn",
          "type": "uint256"
        },
        {
          "internalType": "uint256",
          "name": "netSyFeeOfRemove",
          "type": "uint256"
        }
      ],
      "stateMutability": "nonpayable",
      "type": "function"
    },
    {
      "inputs": [
        {
          "components": [
            {
              "internalType": "address",
              "name": "market",
              "type": "address"
            },
            {
              "internalType": "uint256",
              "name": "netLpToRemove",
              "type": "uint256"
            },
            {
              "internalType": "bool",
              "name": "doRedeemRewards",
              "type": "bool"
            },
            {
              "components": [
                {
                  "internalType": "address",
                  "name": "tokenOut",
                  "type": "address"
                },
                {
                  "internalType": "uint256",
                  "name": "minTokenOut",
                  "type": "uint256"
                },
                {
                  "internalType": "address",
                  "name": "tokenRedeemSy",
                  "type": "address"
                },
                {
                  "internalType": "address",
                  "name": "bulk",
                  "type": "address"
                },
                {
                  "internalType": "address",
                  "name": "euphratesSwap",
                  "type": "address"
                },
                {
                  "components": [
                    {
                      "internalType": "enum SwapType",
                      "name": "swapType",
                      "type": "uint8"
                    },
                    {
                      "internalType": "address",
                      "name": "extRouter",
                      "type": "address"
                    },
                    {
                      "internalType": "bytes",
                      "name": "extCalldata",
                      "type": "bytes"
                    },
                    {
                      "internalType": "bool",
                      "name": "needScale",
                      "type": "bool"
                    }
                  ],
                  "internalType": "struct SwapData",
                  "name": "swapData",
                  "type": "tuple"
                }
              ],
              "internalType": "struct TokenOutput",
              "name": "output",
              "type": "tuple"
            }
          ],
          "internalType": "struct IPRouterHelper.RemoveLiquiditySingleTokenStruct",
          "name": "fromMarket",
          "type": "tuple"
        },
        {
          "components": [
            {
              "internalType": "address",
              "name": "market",
              "type": "address"
            },
            {
              "internalType": "uint256",
              "name": "minLpOut",
              "type": "uint256"
            },
            {
              "internalType": "uint256",
              "name": "guessNetTokenIn",
              "type": "uint256"
            },
            {
              "components": [
                {
                  "internalType": "uint256",
                  "name": "guessMin",
                  "type": "uint256"
                },
                {
                  "internalType": "uint256",
                  "name": "guessMax",
                  "type": "uint256"
                },
                {
                  "internalType": "uint256",
                  "name": "guessOffchain",
                  "type": "uint256"
                },
                {
                  "internalType": "uint256",
                  "name": "maxIteration",
                  "type": "uint256"
                },
                {
                  "internalType": "uint256",
                  "name": "eps",
                  "type": "uint256"
                }
              ],
              "internalType": "struct ApproxParams",
              "name": "guessPtReceivedFromSy",
              "type": "tuple"
            },
            {
              "internalType": "address",
              "name": "bulk",
              "type": "address"
            }
          ],
          "internalType": "struct IPRouterHelper.AddLiquiditySingleTokenStruct",
          "name": "toMarket",
          "type": "tuple"
        }
      ],
      "name": "transferLiquidityDifferentSyNormal",
      "outputs": [
        {
          "internalType": "uint256",
          "name": "netLpOut",
          "type": "uint256"
        },
        {
          "internalType": "uint256",
          "name": "netTokenZapIn",
          "type": "uint256"
        },
        {
          "internalType": "uint256",
          "name": "netSyFeeOfRemove",
          "type": "uint256"
        },
        {
          "internalType": "uint256",
          "name": "netSyFeeOfAdd",
          "type": "uint256"
        }
      ],
      "stateMutability": "nonpayable",
      "type": "function"
    },
    {
      "inputs": [
        {
          "components": [
            {
              "internalType": "address",
              "name": "market",
              "type": "address"
            },
            {
              "internalType": "uint256",
              "name": "netLpToRemove",
              "type": "uint256"
            },
            {
              "internalType": "bool",
              "name": "doRedeemRewards",
              "type": "bool"
            }
          ],
          "internalType": "struct IPRouterHelper.RemoveLiquiditySingleSyStruct",
          "name": "fromMarket",
          "type": "tuple"
        },
        {
          "components": [
            {
              "internalType": "address",
              "name": "market",
              "type": "address"
            },
            {
              "internalType": "uint256",
              "name": "minLpOut",
              "type": "uint256"
            },
            {
              "internalType": "uint256",
              "name": "minYtOut",
              "type": "uint256"
            }
          ],
          "internalType": "struct IPRouterHelper.AddLiquiditySingleSyKeepYtStruct",
          "name": "toMarket",
          "type": "tuple"
        }
      ],
      "name": "transferLiquiditySameSyKeepYt",
      "outputs": [
        {
          "internalType": "uint256",
          "name": "netLpOut",
          "type": "uint256"
        },
        {
          "internalType": "uint256",
          "name": "netYtOut",
          "type": "uint256"
        },
        {
          "internalType": "uint256",
          "name": "netSyZapIn",
          "type": "uint256"
        },
        {
          "internalType": "uint256",
          "name": "netSyFeeOfRemove",
          "type": "uint256"
        }
      ],
      "stateMutability": "nonpayable",
      "type": "function"
    },
    {
      "inputs": [
        {
          "components": [
            {
              "internalType": "address",
              "name": "market",
              "type": "address"
            },
            {
              "internalType": "uint256",
              "name": "netLpToRemove",
              "type": "uint256"
            },
            {
              "internalType": "bool",
              "name": "doRedeemRewards",
              "type": "bool"
            }
          ],
          "internalType": "struct IPRouterHelper.RemoveLiquiditySingleSyStruct",
          "name": "fromMarket",
          "type": "tuple"
        },
        {
          "components": [
            {
              "internalType": "address",
              "name": "market",
              "type": "address"
            },
            {
              "internalType": "uint256",
              "name": "minLpOut",
              "type": "uint256"
            },
            {
              "internalType": "uint256",
              "name": "guessNetSyIn",
              "type": "uint256"
            },
            {
              "components": [
                {
                  "internalType": "uint256",
                  "name": "guessMin",
                  "type": "uint256"
                },
                {
                  "internalType": "uint256",
                  "name": "guessMax",
                  "type": "uint256"
                },
                {
                  "internalType": "uint256",
                  "name": "guessOffchain",
                  "type": "uint256"
                },
                {
                  "internalType": "uint256",
                  "name": "maxIteration",
                  "type": "uint256"
                },
                {
                  "internalType": "uint256",
                  "name": "eps",
                  "type": "uint256"
                }
              ],
              "internalType": "struct ApproxParams",
              "name": "guessPtReceivedFromSy",
              "type": "tuple"
            }
          ],
          "internalType": "struct IPRouterHelper.AddLiquiditySingleSyStruct",
          "name": "toMarket",
          "type": "tuple"
        }
      ],
      "name": "transferLiquiditySameSyNormal",
      "outputs": [
        {
          "internalType": "uint256",
          "name": "netLpOut",
          "type": "uint256"
        },
        {
          "internalType": "uint256",
          "name": "netSyZapIn",
          "type": "uint256"
        },
        {
          "internalType": "uint256",
          "name": "netSyFeeOfRemove",
          "type": "uint256"
        },
        {
          "internalType": "uint256",
          "name": "netSyFeeOfAdd",
          "type": "uint256"
        }
      ],
      "stateMutability": "nonpayable",
      "type": "function"
    },
    {
      "stateMutability": "payable",
      "type": "receive"
    }
  ],
  "bytecode": "0x60c06040523480156200001157600080fd5b506040516200274a3803806200274a8339810160408190526200003491620002e8565b6001600160a01b0382166080526200004e81600162000073565b6001600160a01b031660a08190526080516200006b9190620000e9565b5050620003eb565b604051634a83e9cd60e11b8152600481018290526000906001600160a01b03841690639507d39a90602401602060405180830381865afa158015620000bc573d6000803e3d6000fd5b505050506040513d601f19601f82011682018060405250810190620000e2919062000327565b9392505050565b6001600160a01b038216620000fc575050565b6200011060026001600160601b0362000347565b604051636eb1769f60e11b81523060048201526001600160a01b0383811660248301526001600160601b03929092169184169063dd62ed3e90604401602060405180830381865afa1580156200016a573d6000803e3d6000fd5b505050506040513d601f19601f820116820180604052508101906200019091906200037c565b1015620001b457620001a582826000620001b8565b620001b48282600019620001b8565b5050565b604080516001600160a01b038481166024830152604480830185905283518084039091018152606490920183526020820180516001600160e01b031663095ea7b360e01b179052915160009283929087169162000216919062000396565b6000604051808303816000865af19150503d806000811462000255576040519150601f19603f3d011682016040523d82523d6000602084013e6200025a565b606091505b50915091508180156200028857508051158062000288575080806020019051810190620002889190620003c7565b620002c85760405162461bcd60e51b815260206004820152600c60248201526b5361666520417070726f766560a01b604482015260640160405180910390fd5b5050505050565b6001600160a01b0381168114620002e557600080fd5b50565b60008060408385031215620002fc57600080fd5b82516200030981620002cf565b60208401519092506200031c81620002cf565b809150509250929050565b6000602082840312156200033a57600080fd5b8151620000e281620002cf565b60006001600160601b03838116806200037057634e487b7160e01b600052601260045260246000fd5b92169190910492915050565b6000602082840312156200038f57600080fd5b5051919050565b6000825160005b81811015620003b957602081860181015185830152016200039d565b506000920191825250919050565b600060208284031215620003da57600080fd5b81518015158114620000e257600080fd5b60805160a0516122ca620004806000396000818161014901528181610287015281816102de01528181610905015261092d01526000818160b801528181610337015281816104d5015281816105030152818161071a015281816109580152818161098601528181610d1c01528181610d4a01528181610e8201528181610eb001528181611066015261109401526122ca6000f3fe60806040526004361061009a5760003560e01c8063b558229a11610069578063c7f363711161004e578063c7f36371146101d3578063d64bccb3146101f3578063dcdcc4c21461021357600080fd5b8063b558229a14610193578063b8a3339c146101b357600080fd5b806332fe7b26146100a657806365debe5f146100f7578063ad5c464814610137578063af0b53311461016b57600080fd5b366100a157005b600080fd5b3480156100b257600080fd5b506100da7f000000000000000000000000000000000000000000000000000000000000000081565b6040516001600160a01b0390911681526020015b60405180910390f35b34801561010357600080fd5b506101176101123660046118f6565b610233565b6040805194855260208501939093529183015260608201526080016100ee565b34801561014357600080fd5b506100da7f000000000000000000000000000000000000000000000000000000000000000081565b61017e61017936600461195d565b61027a565b604080519283526020830191909152016100ee565b34801561019f57600080fd5b506101176101ae3660046119ec565b610421565b3480156101bf57600080fd5b506101176101ce366004611a4c565b61044d565b3480156101df57600080fd5b506101176101ee366004611aa8565b610486565b3480156101ff57600080fd5b5061017e61020e366004611ad4565b6104a4565b34801561021f57600080fd5b5061017e61022e366004611af0565b6106ed565b600080600080610242866106ed565b909250905061026c856102586060890189611b25565b610266906020810190611b63565b846108f2565b909790965091945092509050565b6000806001600160a01b037f0000000000000000000000000000000000000000000000000000000000000000166102b46020850185611b63565b6001600160a01b0316146102c757600080fd5b6102d76000338560200135610abc565b61030760007f00000000000000000000000000000000000000000000000000000000000000008560200135610bc1565b6040517fdfbc814e0000000000000000000000000000000000000000000000000000000081526001600160a01b037f0000000000000000000000000000000000000000000000000000000000000000169063dfbc814e90610374908a908a908a908a908a90600401611d6d565b60408051808303816000875af1158015610392573d6000803e3d6000fd5b505050506040513d601f19601f820116820180604052508101906103b69190611da5565b604080513380825260208881013590830152918101849052606081018390529294509092506000916001600160a01b03891691907f43eb84d5f21c53e2b7be07b8fc06cbbb55af094a111c91c7ddc6513fed4d03529060800160405180910390a49550959350505050565b600080600080610430866104a4565b909350915061043f8584610ca0565b909793965091945090925050565b60008060008061045c866106ed565b909350915061043f856104726060890189611b25565b610480906020810190611b63565b85610e67565b600080600080610495866104a4565b909250905061026c8583610fea565b6000806104c36104b76020850185611b63565b333086602001356111cb565b6104f96104d36020850185611b63565b7f00000000000000000000000000000000000000000000000000000000000000006111e6565b6001600160a01b037f00000000000000000000000000000000000000000000000000000000000000001663178d29d3306105366020870187611b63565b6040517fffffffff0000000000000000000000000000000000000000000000000000000060e085901b1681526001600160a01b03928316600482015291166024820152602086013560448201526000606482015260840160408051808303816000875af11580156105ab573d6000803e3d6000fd5b505050506040513d601f19601f820116820180604052508101906105cf9190611da5565b90925090506105e46060840160408501611dc9565b15610681576105f66020840184611b63565b6040517f9262187b0000000000000000000000000000000000000000000000000000000081523360048201526001600160a01b039190911690639262187b906024016000604051808303816000875af1158015610657573d6000803e3d6000fd5b505050506040513d6000823e601f3d908101601f1916820160405261067f9190810190611e2d565b505b3361068f6020850185611b63565b6001600160a01b0316336001600160a01b03167fd31f02c44717b409d13b92ec9d2eaf1427fb4e63f85f4777f1458fb8d93877618660200135866040516106e0929190918252602082015260400190565b60405180910390a4915091565b6000806107006104b76020850185611b63565b6107106104d36020850185611b63565b6001600160a01b037f00000000000000000000000000000000000000000000000000000000000000001663690807ad3061074d6020870187611b63565b602087013561075f6060890189611b25565b6040518563ffffffff1660e01b815260040161077e9493929190611ed3565b60408051808303816000875af115801561079c573d6000803e3d6000fd5b505050506040513d601f19601f820116820180604052508101906107c09190611da5565b90925090506107d56060840160408501611dc9565b15610872576107e76020840184611b63565b6040517f9262187b0000000000000000000000000000000000000000000000000000000081523360048201526001600160a01b039190911690639262187b906024016000604051808303816000875af1158015610848573d6000803e3d6000fd5b505050506040513d6000823e601f3d908101601f191682016040526108709190810190611e2d565b505b61087f6060840184611b25565b61088d906020810190611b63565b6001600160a01b03166108a36020850185611b63565b6040805133808252602080890135908301529181018690526001600160a01b0392909216917f3fff08e8137afe866dce7ced13ddc12d684db61b80b0ac5cb9e54961c9dd8a21906060016106e0565b6000806001600160a01b038416610952577f0000000000000000000000000000000000000000000000000000000000000000935061095260007f000000000000000000000000000000000000000000000000000000000000000085610bc1565b61097c847f00000000000000000000000000000000000000000000000000000000000000006111e6565b6001600160a01b037f00000000000000000000000000000000000000000000000000000000000000001663dfbc814e336109b96020890189611b63565b886020013589604001356109e08a8a8d60600160208101906109db9190611b63565b6112cd565b6040518663ffffffff1660e01b8152600401610a00959493929190611ffa565b60408051808303816000875af1158015610a1e573d6000803e3d6000fd5b505050506040513d601f19601f82011682018060405250810190610a429190611da5565b90925090506001600160a01b038416610a5e6020870187611b63565b604080513380825260208201889052918101869052606081018590526001600160a01b0392909216917f43eb84d5f21c53e2b7be07b8fc06cbbb55af094a111c91c7ddc6513fed4d03529060800160405180910390a4935093915050565b6001600160a01b038316610b2357803414610b1e5760405162461bcd60e51b815260206004820152600c60248201527f657468206d69736d61746368000000000000000000000000000000000000000060448201526064015b60405180910390fd5b505050565b8015610b1e576040517f23b872dd0000000000000000000000000000000000000000000000000000000081526001600160a01b038381166004830152306024830152604482018390528416906323b872dd906064016020604051808303816000875af1158015610b97573d6000803e3d6000fd5b505050506040513d601f19601f82011682018060405250810190610bbb9190612032565b50505050565b6001600160a01b038316610c2857816001600160a01b031663d0e30db0826040518263ffffffff1660e01b81526004016000604051808303818588803b158015610c0a57600080fd5b505af1158015610c1e573d6000803e3d6000fd5b5050505050505050565b6040517f2e1a7d4d000000000000000000000000000000000000000000000000000000008152600481018290526001600160a01b03841690632e1a7d4d90602401600060405180830381600087803b158015610c8357600080fd5b505af1158015610c97573d6000803e3d6000fd5b50505050505050565b60008080610cb16020860186611b63565b6001600160a01b0316632c8ce6bc6040518163ffffffff1660e01b8152600401606060405180830381865afa158015610cee573d6000803e3d6000fd5b505050506040513d601f19601f82011682018060405250810190610d12919061204f565b50509050610d40817f00000000000000000000000000000000000000000000000000000000000000006111e6565b6001600160a01b037f00000000000000000000000000000000000000000000000000000000000000001663409c7a8933610d7d6020890189611b63565b878960200135610d958b6060018c604001358c61134a565b6040518663ffffffff1660e01b8152600401610db595949392919061209c565b60408051808303816000875af1158015610dd3573d6000803e3d6000fd5b505050506040513d601f19601f82011682018060405250810190610df79190611da5565b909350915033610e0a6020870187611b63565b6001600160a01b0316336001600160a01b03167fb51950711c9b21dc7888d41f68a19540231ffb5f0d19d8f75cbccaf90ffa7fa58787604051610e57929190918252602082015260400190565b60405180910390a4509250929050565b600080806001600160a01b038516610e7c5750825b610ea6857f00000000000000000000000000000000000000000000000000000000000000006111e6565b6001600160a01b037f00000000000000000000000000000000000000000000000000000000000000001663015491d18233610ee460208b018b611b63565b8a60200135610efb8c6060018d604001358c61134a565b610f148c8c8f6101000160208101906109db9190611b63565b6040518763ffffffff1660e01b8152600401610f349594939291906120fb565b604080518083038185885af1158015610f51573d6000803e3d6000fd5b50505050506040513d601f19601f82011682018060405250810190610f769190611da5565b90935091506001600160a01b038516610f926020880188611b63565b6040805133808252602082018990529181018790526001600160a01b0392909216917ff83776e5b667a2b471f92ddfd482749c61b5328b832d375097638c2c08818f3b9060600160405180910390a450935093915050565b60008080610ffb6020860186611b63565b6001600160a01b0316632c8ce6bc6040518163ffffffff1660e01b8152600401606060405180830381865afa158015611038573d6000803e3d6000fd5b505050506040513d601f19601f8201168201806040525081019061105c919061204f565b5050905061108a817f00000000000000000000000000000000000000000000000000000000000000006111e6565b6001600160a01b037f00000000000000000000000000000000000000000000000000000000000000001663844384aa336110c76020890189611b63565b604080517fffffffff0000000000000000000000000000000000000000000000000000000060e086901b1681526001600160a01b0393841660048201529290911660248301526044820188905260208901356064830152880135608482015260a40160408051808303816000875af1158015611147573d6000803e3d6000fd5b505050506040513d601f19601f8201168201806040525081019061116b9190611da5565b90935091503361117e6020870187611b63565b60408051878152602081018790529081018590526001600160a01b03919091169033907fc8437d84f52d1e20cc82487e336feadb2d39ede00af7711b6a58abf39392328f90606001610e57565b8015610bbb57610bbb6001600160a01b03851684848461147e565b6001600160a01b0382166111f8575050565b61120f60026bffffffffffffffffffffffff61217c565b6040517fdd62ed3e0000000000000000000000000000000000000000000000000000000081523060048201526001600160a01b0383811660248301526bffffffffffffffffffffffff929092169184169063dd62ed3e90604401602060405180830381865afa158015611286573d6000803e3d6000fd5b505050506040513d601f19601f820116820180604052508101906112aa91906121a7565b10156112c9576112bc82826000611506565b6112c98282600019611506565b5050565b6113206040805160c081018252600080825260208083018290528284018290526060808401839052608080850184905285519081018652838152918201839052938101849052928301529060a082015290565b6001600160a01b0380851660408301819052825260208201849052821660608201525b9392505050565b61137c6040518060a0016040528060008152602001600081526020016000815260200160008152602001600081525090565b83604001356000036113fe57833515801561139c57506000198460200135145b6113e85760405162461bcd60e51b815260206004820152600d60248201527f696e76616c6964206775657373000000000000000000000000000000000000006044820152606401610b15565b6113f7368590038501856121c0565b9050611343565b6040805160a081019091528084611416858835612230565b611420919061225b565b8152602001848487602001356114369190612230565b611440919061225b565b815260200184611454856040890135612230565b61145e919061225b565b815260200185606001358152602001856080013581525090509392505050565b604080516001600160a01b0385811660248301528416604482015260648082018490528251808303909101815260849091019091526020810180517bffffffffffffffffffffffffffffffffffffffffffffffffffffffff167f23b872dd00000000000000000000000000000000000000000000000000000000179052610bbb90859061164f565b604080516001600160a01b038481166024830152604480830185905283518084039091018152606490920183526020820180517bffffffffffffffffffffffffffffffffffffffffffffffffffffffff167f095ea7b3000000000000000000000000000000000000000000000000000000001790529151600092839290871691611590919061226f565b6000604051808303816000865af19150503d80600081146115cd576040519150601f19603f3d011682016040523d82523d6000602084013e6115d2565b606091505b50915091508180156115fc5750805115806115fc5750808060200190518101906115fc9190612032565b6116485760405162461bcd60e51b815260206004820152600c60248201527f5361666520417070726f766500000000000000000000000000000000000000006044820152606401610b15565b5050505050565b60006116a4826040518060400160405280602081526020017f5361666545524332303a206c6f772d6c6576656c2063616c6c206661696c6564815250856001600160a01b03166117379092919063ffffffff16565b90508051600014806116c55750808060200190518101906116c59190612032565b610b1e5760405162461bcd60e51b815260206004820152602a60248201527f5361666545524332303a204552433230206f7065726174696f6e20646964206e60448201527f6f742073756363656564000000000000000000000000000000000000000000006064820152608401610b15565b6060611746848460008561174e565b949350505050565b6060824710156117c65760405162461bcd60e51b815260206004820152602660248201527f416464726573733a20696e73756666696369656e742062616c616e636520666f60448201527f722063616c6c00000000000000000000000000000000000000000000000000006064820152608401610b15565b600080866001600160a01b031685876040516117e2919061226f565b60006040518083038185875af1925050503d806000811461181f576040519150601f19603f3d011682016040523d82523d6000602084013e611824565b606091505b509150915061183587838387611840565b979650505050505050565b606083156118af5782516000036118a8576001600160a01b0385163b6118a85760405162461bcd60e51b815260206004820152601d60248201527f416464726573733a2063616c6c20746f206e6f6e2d636f6e74726163740000006044820152606401610b15565b5081611746565b61174683838151156118c45781518083602001fd5b8060405162461bcd60e51b8152600401610b159190612281565b6000608082840312156118f057600080fd5b50919050565b60008060a0838503121561190957600080fd5b823567ffffffffffffffff81111561192057600080fd5b61192c858286016118de565b92505061193c84602085016118de565b90509250929050565b6001600160a01b038116811461195a57600080fd5b50565b600080600080600060a0868803121561197557600080fd5b853561198081611945565b9450602086013561199081611945565b93506040860135925060608601359150608086013567ffffffffffffffff8111156119ba57600080fd5b860160c081890312156119cc57600080fd5b809150509295509295909350565b6000606082840312156118f057600080fd5b600080828403610160811215611a0157600080fd5b611a0b85856119da565b92506101007fffffffffffffffffffffffffffffffffffffffffffffffffffffffffffffffa082011215611a3e57600080fd5b506060830190509250929050565b600080828403610140811215611a6157600080fd5b833567ffffffffffffffff811115611a7857600080fd5b611a84868287016118de565b935050610120601f1982011215611a9a57600080fd5b506020830190509250929050565b60008060c08385031215611abb57600080fd5b611ac584846119da565b915061193c84606085016119da565b600060608284031215611ae657600080fd5b61134383836119da565b600060208284031215611b0257600080fd5b813567ffffffffffffffff811115611b1957600080fd5b611746848285016118de565b600082357fffffffffffffffffffffffffffffffffffffffffffffffffffffffffffffff41833603018112611b5957600080fd5b9190910192915050565b600060208284031215611b7557600080fd5b813561134381611945565b60048110611b9e57634e487b7160e01b600052602160045260246000fd5b9052565b818352818160208501375060006020828401015260006020601f19601f840116840101905092915050565b801515811461195a57600080fd5b8035611be681611bcd565b919050565b6000813560048110611bfc57600080fd5b611c068482611b80565b506020820135611c1581611945565b6001600160a01b031660208401526040820135368390037fffffffffffffffffffffffffffffffffffffffffffffffffffffffffffffffe1018112611c5957600080fd5b820160208101903567ffffffffffffffff811115611c7657600080fd5b803603821315611c8557600080fd5b60806040860152611c9a608086018284611ba2565b915050611ca960608401611bdb565b8015156060860152509392505050565b60008135611cc681611945565b6001600160a01b0380821685526020840135602086015260408401359150611ced82611945565b9081166040850152606083013590611d0482611945565b9081166060850152608083013590611d1b82611945565b16608084015260a0820135368390037fffffffffffffffffffffffffffffffffffffffffffffffffffffffffffffff81018112611d5757600080fd5b60c060a085015261174660c08501848301611beb565b60006001600160a01b03808816835280871660208401525084604083015283606083015260a0608083015261183560a0830184611cb9565b60008060408385031215611db857600080fd5b505080516020909101519092909150565b600060208284031215611ddb57600080fd5b813561134381611bcd565b634e487b7160e01b600052604160045260246000fd5b604051601f8201601f1916810167ffffffffffffffff81118282101715611e2557611e25611de6565b604052919050565b60006020808385031215611e4057600080fd5b825167ffffffffffffffff80821115611e5857600080fd5b818501915085601f830112611e6c57600080fd5b815181811115611e7e57611e7e611de6565b8060051b9150611e8f848301611dfc565b8181529183018401918481019088841115611ea957600080fd5b938501935b83851015611ec757845182529385019390850190611eae565b98975050505050505050565b60006001600160a01b03808716835280861660208401525083604083015260806060830152611f056080830184611cb9565b9695505050505050565b60005b83811015611f2a578181015183820152602001611f12565b50506000910152565b60008151808452611f4b816020860160208601611f0f565b601f01601f19169290920160200192915050565b60006001600160a01b038083511684526020830151602085015280604084015116604085015280606084015116606085015280608084015116608085015260a083015160c060a0860152611fb760c086018251611b80565b8160208201511660e0860152604081015191506080610100860152611fe0610140860183611f33565b915060608101511515610120860152508091505092915050565b60006001600160a01b03808816835280871660208401525084604083015283606083015260a0608083015261183560a0830184611f5f565b60006020828403121561204457600080fd5b815161134381611bcd565b60008060006060848603121561206457600080fd5b835161206f81611945565b602085015190935061208081611945565b604085015190925061209181611945565b809150509250925092565b6001600160a01b0386811682528516602082015260408101849052606081018390526101208101611f05608083018480518252602081015160208301526040810151604083015260608101516060830152608081015160808301525050565b6001600160a01b03868116825285166020820152604081018490526000610120612153606084018680518252602081015160208301526040810151604083015260608101516060830152608081015160808301525050565b80610100840152611ec781840185611f5f565b634e487b7160e01b600052601260045260246000fd5b60006bffffffffffffffffffffffff8084168061219b5761219b612166565b92169190910492915050565b6000602082840312156121b957600080fd5b5051919050565b600060a082840312156121d257600080fd5b60405160a0810181811067ffffffffffffffff821117156121f5576121f5611de6565b806040525082358152602083013560208201526040830135604082015260608301356060820152608083013560808201528091505092915050565b808202811582820484141761225557634e487b7160e01b600052601160045260246000fd5b92915050565b60008261226a5761226a612166565b500490565b60008251611b59818460208701611f0f565b6020815260006113436020830184611f3356fea264697066735822122005bc43ca276cdbb3d17a5fb64c7fc6c3da31534555af35807f1137a517dde25064736f6c63430008110033",
  "linkReferences": {},
  "deployedLinkReferences": {}
}