{
  "_format": "hh-sol-artifact-1",
  "contractName": "EuphratesEUSDSY",
  "sourceName": "contracts/core/StandardizedYield/implementations/EuphratesEUSDSY.sol",
  "abi": [
    {
      "inputs": [
        {
          "internalType": "string",
          "name": "_name",
          "type": "string"
        },
        {
          "internalType": "string",
          "name": "_symbol",
          "type": "string"
        },
        {
          "internalType": "address",
          "name": "_eUSD",
          "type": "address"
        }
      ],
      "stateMutability": "nonpayable",
      "type": "constructor"
    },
    {
      "inputs": [],
      "name": "InvalidShortString",
      "type": "error"
    },
    {
      "inputs": [
        {
          "internalType": "uint256",
          "name": "actualSharesOut",
          "type": "uint256"
        },
        {
          "internalType": "uint256",
          "name": "requiredSharesOut",
          "type": "uint256"
        }
      ],
      "name": "SYInsufficientSharesOut",
      "type": "error"
    },
    {
      "inputs": [
        {
          "internalType": "uint256",
          "name": "actualTokenOut",
          "type": "uint256"
        },
        {
          "internalType": "uint256",
          "name": "requiredTokenOut",
          "type": "uint256"
        }
      ],
      "name": "SYInsufficientTokenOut",
      "type": "error"
    },
    {
      "inputs": [
        {
          "internalType": "address",
          "name": "token",
          "type": "address"
        }
      ],
      "name": "SYInvalidTokenIn",
      "type": "error"
    },
    {
      "inputs": [
        {
          "internalType": "address",
          "name": "token",
          "type": "address"
        }
      ],
      "name": "SYInvalidTokenOut",
      "type": "error"
    },
    {
      "inputs": [],
      "name": "SYZeroDeposit",
      "type": "error"
    },
    {
      "inputs": [],
      "name": "SYZeroRedeem",
      "type": "error"
    },
    {
      "inputs": [
        {
          "internalType": "string",
          "name": "str",
          "type": "string"
        }
      ],
      "name": "StringTooLong",
      "type": "error"
    },
    {
      "anonymous": false,
      "inputs": [
        {
          "indexed": true,
          "internalType": "address",
          "name": "owner",
          "type": "address"
        },
        {
          "indexed": true,
          "internalType": "address",
          "name": "spender",
          "type": "address"
        },
        {
          "indexed": false,
          "internalType": "uint256",
          "name": "value",
          "type": "uint256"
        }
      ],
      "name": "Approval",
      "type": "event"
    },
    {
      "anonymous": false,
      "inputs": [
        {
          "indexed": true,
          "internalType": "address",
          "name": "user",
          "type": "address"
        },
        {
          "indexed": false,
          "internalType": "address[]",
          "name": "rewardTokens",
          "type": "address[]"
        },
        {
          "indexed": false,
          "internalType": "uint256[]",
          "name": "rewardAmounts",
          "type": "uint256[]"
        }
      ],
      "name": "ClaimRewards",
      "type": "event"
    },
    {
      "anonymous": false,
      "inputs": [
        {
          "indexed": true,
          "internalType": "address",
          "name": "caller",
          "type": "address"
        },
        {
          "indexed": true,
          "internalType": "address",
          "name": "receiver",
          "type": "address"
        },
        {
          "indexed": true,
          "internalType": "address",
          "name": "tokenIn",
          "type": "address"
        },
        {
          "indexed": false,
          "internalType": "uint256",
          "name": "amountDeposited",
          "type": "uint256"
        },
        {
          "indexed": false,
          "internalType": "uint256",
          "name": "amountSyOut",
          "type": "uint256"
        }
      ],
      "name": "Deposit",
      "type": "event"
    },
    {
      "anonymous": false,
      "inputs": [],
      "name": "EIP712DomainChanged",
      "type": "event"
    },
    {
      "anonymous": false,
      "inputs": [
        {
          "indexed": false,
          "internalType": "uint8",
          "name": "version",
          "type": "uint8"
        }
      ],
      "name": "Initialized",
      "type": "event"
    },
    {
      "anonymous": false,
      "inputs": [
        {
          "indexed": true,
          "internalType": "address",
          "name": "previousOwner",
          "type": "address"
        },
        {
          "indexed": true,
          "internalType": "address",
          "name": "newOwner",
          "type": "address"
        }
      ],
      "name": "OwnershipTransferred",
      "type": "event"
    },
    {
      "anonymous": false,
      "inputs": [
        {
          "indexed": false,
          "internalType": "address",
          "name": "account",
          "type": "address"
        }
      ],
      "name": "Paused",
      "type": "event"
    },
    {
      "anonymous": false,
      "inputs": [
        {
          "indexed": true,
          "internalType": "address",
          "name": "caller",
          "type": "address"
        },
        {
          "indexed": true,
          "internalType": "address",
          "name": "receiver",
          "type": "address"
        },
        {
          "indexed": true,
          "internalType": "address",
          "name": "tokenOut",
          "type": "address"
        },
        {
          "indexed": false,
          "internalType": "uint256",
          "name": "amountSyToRedeem",
          "type": "uint256"
        },
        {
          "indexed": false,
          "internalType": "uint256",
          "name": "amountTokenOut",
          "type": "uint256"
        }
      ],
      "name": "Redeem",
      "type": "event"
    },
    {
      "anonymous": false,
      "inputs": [
        {
          "indexed": true,
          "internalType": "address",
          "name": "from",
          "type": "address"
        },
        {
          "indexed": true,
          "internalType": "address",
          "name": "to",
          "type": "address"
        },
        {
          "indexed": false,
          "internalType": "uint256",
          "name": "value",
          "type": "uint256"
        }
      ],
      "name": "Transfer",
      "type": "event"
    },
    {
      "anonymous": false,
      "inputs": [
        {
          "indexed": false,
          "internalType": "address",
          "name": "account",
          "type": "address"
        }
      ],
      "name": "Unpaused",
      "type": "event"
    },
    {
      "inputs": [],
      "name": "DOMAIN_SEPARATOR",
      "outputs": [
        {
          "internalType": "bytes32",
          "name": "",
          "type": "bytes32"
        }
      ],
      "stateMutability": "view",
      "type": "function"
    },
    {
      "inputs": [
        {
          "internalType": "address",
          "name": "",
          "type": "address"
        }
      ],
      "name": "accruedRewards",
      "outputs": [
        {
          "internalType": "uint256[]",
          "name": "rewardAmounts",
          "type": "uint256[]"
        }
      ],
      "stateMutability": "view",
      "type": "function"
    },
    {
      "inputs": [
        {
          "internalType": "address",
          "name": "owner",
          "type": "address"
        },
        {
          "internalType": "address",
          "name": "spender",
          "type": "address"
        }
      ],
      "name": "allowance",
      "outputs": [
        {
          "internalType": "uint256",
          "name": "",
          "type": "uint256"
        }
      ],
      "stateMutability": "view",
      "type": "function"
    },
    {
      "inputs": [
        {
          "internalType": "address",
          "name": "spender",
          "type": "address"
        },
        {
          "internalType": "uint256",
          "name": "amount",
          "type": "uint256"
        }
      ],
      "name": "approve",
      "outputs": [
        {
          "internalType": "bool",
          "name": "",
          "type": "bool"
        }
      ],
      "stateMutability": "nonpayable",
      "type": "function"
    },
    {
      "inputs": [],
      "name": "assetInfo",
      "outputs": [
        {
          "internalType": "enum IStandardizedYield.AssetType",
          "name": "assetType",
          "type": "uint8"
        },
        {
          "internalType": "address",
          "name": "assetAddress",
          "type": "address"
        },
        {
          "internalType": "uint8",
          "name": "assetDecimals",
          "type": "uint8"
        }
      ],
      "stateMutability": "view",
      "type": "function"
    },
    {
      "inputs": [
        {
          "internalType": "address",
          "name": "account",
          "type": "address"
        }
      ],
      "name": "balanceOf",
      "outputs": [
        {
          "internalType": "uint256",
          "name": "",
          "type": "uint256"
        }
      ],
      "stateMutability": "view",
      "type": "function"
    },
    {
      "inputs": [],
      "name": "claimOwnership",
      "outputs": [],
      "stateMutability": "nonpayable",
      "type": "function"
    },
    {
      "inputs": [
        {
          "internalType": "address",
          "name": "",
          "type": "address"
        }
      ],
      "name": "claimRewards",
      "outputs": [
        {
          "internalType": "uint256[]",
          "name": "rewardAmounts",
          "type": "uint256[]"
        }
      ],
      "stateMutability": "nonpayable",
      "type": "function"
    },
    {
      "inputs": [],
      "name": "decimals",
      "outputs": [
        {
          "internalType": "uint8",
          "name": "",
          "type": "uint8"
        }
      ],
      "stateMutability": "view",
      "type": "function"
    },
    {
      "inputs": [
        {
          "internalType": "address",
          "name": "receiver",
          "type": "address"
        },
        {
          "internalType": "address",
          "name": "tokenIn",
          "type": "address"
        },
        {
          "internalType": "uint256",
          "name": "amountTokenToDeposit",
          "type": "uint256"
        },
        {
          "internalType": "uint256",
          "name": "minSharesOut",
          "type": "uint256"
        }
      ],
      "name": "deposit",
      "outputs": [
        {
          "internalType": "uint256",
          "name": "amountSharesOut",
          "type": "uint256"
        }
      ],
      "stateMutability": "payable",
      "type": "function"
    },
    {
      "inputs": [],
      "name": "eUSD",
      "outputs": [
        {
          "internalType": "address",
          "name": "",
          "type": "address"
        }
      ],
      "stateMutability": "view",
      "type": "function"
    },
    {
      "inputs": [],
      "name": "eip712Domain",
      "outputs": [
        {
          "internalType": "bytes1",
          "name": "fields",
          "type": "bytes1"
        },
        {
          "internalType": "string",
          "name": "name",
          "type": "string"
        },
        {
          "internalType": "string",
          "name": "version",
          "type": "string"
        },
        {
          "internalType": "uint256",
          "name": "chainId",
          "type": "uint256"
        },
        {
          "internalType": "address",
          "name": "verifyingContract",
          "type": "address"
        },
        {
          "internalType": "bytes32",
          "name": "salt",
          "type": "bytes32"
        },
        {
          "internalType": "uint256[]",
          "name": "extensions",
          "type": "uint256[]"
        }
      ],
      "stateMutability": "view",
      "type": "function"
    },
    {
      "inputs": [],
      "name": "exchangeRate",
      "outputs": [
        {
          "internalType": "uint256",
          "name": "",
          "type": "uint256"
        }
      ],
      "stateMutability": "view",
      "type": "function"
    },
    {
      "inputs": [],
      "name": "getRewardTokens",
      "outputs": [
        {
          "internalType": "address[]",
          "name": "rewardTokens",
          "type": "address[]"
        }
      ],
      "stateMutability": "view",
      "type": "function"
    },
    {
      "inputs": [],
      "name": "getTokensIn",
      "outputs": [
        {
          "internalType": "address[]",
          "name": "res",
          "type": "address[]"
        }
      ],
      "stateMutability": "view",
      "type": "function"
    },
    {
      "inputs": [],
      "name": "getTokensOut",
      "outputs": [
        {
          "internalType": "address[]",
          "name": "res",
          "type": "address[]"
        }
      ],
      "stateMutability": "view",
      "type": "function"
    },
    {
      "inputs": [
        {
          "internalType": "address",
          "name": "token",
          "type": "address"
        }
      ],
      "name": "isValidTokenIn",
      "outputs": [
        {
          "internalType": "bool",
          "name": "",
          "type": "bool"
        }
      ],
      "stateMutability": "view",
      "type": "function"
    },
    {
      "inputs": [
        {
          "internalType": "address",
          "name": "token",
          "type": "address"
        }
      ],
      "name": "isValidTokenOut",
      "outputs": [
        {
          "internalType": "bool",
          "name": "",
          "type": "bool"
        }
      ],
      "stateMutability": "view",
      "type": "function"
    },
    {
      "inputs": [],
      "name": "name",
      "outputs": [
        {
          "internalType": "string",
          "name": "",
          "type": "string"
        }
      ],
      "stateMutability": "view",
      "type": "function"
    },
    {
      "inputs": [
        {
          "internalType": "address",
          "name": "owner",
          "type": "address"
        }
      ],
      "name": "nonces",
      "outputs": [
        {
          "internalType": "uint256",
          "name": "",
          "type": "uint256"
        }
      ],
      "stateMutability": "view",
      "type": "function"
    },
    {
      "inputs": [],
      "name": "owner",
      "outputs": [
        {
          "internalType": "address",
          "name": "",
          "type": "address"
        }
      ],
      "stateMutability": "view",
      "type": "function"
    },
    {
      "inputs": [],
      "name": "pause",
      "outputs": [],
      "stateMutability": "nonpayable",
      "type": "function"
    },
    {
      "inputs": [],
      "name": "paused",
      "outputs": [
        {
          "internalType": "bool",
          "name": "",
          "type": "bool"
        }
      ],
      "stateMutability": "view",
      "type": "function"
    },
    {
      "inputs": [],
      "name": "pendingOwner",
      "outputs": [
        {
          "internalType": "address",
          "name": "",
          "type": "address"
        }
      ],
      "stateMutability": "view",
      "type": "function"
    },
    {
      "inputs": [
        {
          "internalType": "address",
          "name": "owner",
          "type": "address"
        },
        {
          "internalType": "address",
          "name": "spender",
          "type": "address"
        },
        {
          "internalType": "uint256",
          "name": "value",
          "type": "uint256"
        },
        {
          "internalType": "uint256",
          "name": "deadline",
          "type": "uint256"
        },
        {
          "internalType": "uint8",
          "name": "v",
          "type": "uint8"
        },
        {
          "internalType": "bytes32",
          "name": "r",
          "type": "bytes32"
        },
        {
          "internalType": "bytes32",
          "name": "s",
          "type": "bytes32"
        }
      ],
      "name": "permit",
      "outputs": [],
      "stateMutability": "nonpayable",
      "type": "function"
    },
    {
      "inputs": [
        {
          "internalType": "address",
          "name": "tokenIn",
          "type": "address"
        },
        {
          "internalType": "uint256",
          "name": "amountTokenToDeposit",
          "type": "uint256"
        }
      ],
      "name": "previewDeposit",
      "outputs": [
        {
          "internalType": "uint256",
          "name": "amountSharesOut",
          "type": "uint256"
        }
      ],
      "stateMutability": "view",
      "type": "function"
    },
    {
      "inputs": [
        {
          "internalType": "address",
          "name": "tokenOut",
          "type": "address"
        },
        {
          "internalType": "uint256",
          "name": "amountSharesToRedeem",
          "type": "uint256"
        }
      ],
      "name": "previewRedeem",
      "outputs": [
        {
          "internalType": "uint256",
          "name": "amountTokenOut",
          "type": "uint256"
        }
      ],
      "stateMutability": "view",
      "type": "function"
    },
    {
      "inputs": [
        {
          "internalType": "address",
          "name": "receiver",
          "type": "address"
        },
        {
          "internalType": "uint256",
          "name": "amountSharesToRedeem",
          "type": "uint256"
        },
        {
          "internalType": "address",
          "name": "tokenOut",
          "type": "address"
        },
        {
          "internalType": "uint256",
          "name": "minTokenOut",
          "type": "uint256"
        },
        {
          "internalType": "bool",
          "name": "burnFromInternalBalance",
          "type": "bool"
        }
      ],
      "name": "redeem",
      "outputs": [
        {
          "internalType": "uint256",
          "name": "amountTokenOut",
          "type": "uint256"
        }
      ],
      "stateMutability": "nonpayable",
      "type": "function"
    },
    {
      "inputs": [],
      "name": "rewardIndexesCurrent",
      "outputs": [
        {
          "internalType": "uint256[]",
          "name": "indexes",
          "type": "uint256[]"
        }
      ],
      "stateMutability": "nonpayable",
      "type": "function"
    },
    {
      "inputs": [],
      "name": "rewardIndexesStored",
      "outputs": [
        {
          "internalType": "uint256[]",
          "name": "indexes",
          "type": "uint256[]"
        }
      ],
      "stateMutability": "view",
      "type": "function"
    },
    {
      "inputs": [],
      "name": "symbol",
      "outputs": [
        {
          "internalType": "string",
          "name": "",
          "type": "string"
        }
      ],
      "stateMutability": "view",
      "type": "function"
    },
    {
      "inputs": [],
      "name": "totalSupply",
      "outputs": [
        {
          "internalType": "uint256",
          "name": "",
          "type": "uint256"
        }
      ],
      "stateMutability": "view",
      "type": "function"
    },
    {
      "inputs": [
        {
          "internalType": "address",
          "name": "to",
          "type": "address"
        },
        {
          "internalType": "uint256",
          "name": "amount",
          "type": "uint256"
        }
      ],
      "name": "transfer",
      "outputs": [
        {
          "internalType": "bool",
          "name": "",
          "type": "bool"
        }
      ],
      "stateMutability": "nonpayable",
      "type": "function"
    },
    {
      "inputs": [
        {
          "internalType": "address",
          "name": "from",
          "type": "address"
        },
        {
          "internalType": "address",
          "name": "to",
          "type": "address"
        },
        {
          "internalType": "uint256",
          "name": "amount",
          "type": "uint256"
        }
      ],
      "name": "transferFrom",
      "outputs": [
        {
          "internalType": "bool",
          "name": "",
          "type": "bool"
        }
      ],
      "stateMutability": "nonpayable",
      "type": "function"
    },
    {
      "inputs": [
        {
          "internalType": "address",
          "name": "newOwner",
          "type": "address"
        },
        {
          "internalType": "bool",
          "name": "direct",
          "type": "bool"
        },
        {
          "internalType": "bool",
          "name": "renounce",
          "type": "bool"
        }
      ],
      "name": "transferOwnership",
      "outputs": [],
      "stateMutability": "nonpayable",
      "type": "function"
    },
    {
      "inputs": [],
      "name": "unpause",
      "outputs": [],
      "stateMutability": "nonpayable",
      "type": "function"
    },
    {
      "inputs": [],
      "name": "yieldToken",
      "outputs": [
        {
          "internalType": "address",
          "name": "",
          "type": "address"
        }
      ],
      "stateMutability": "view",
      "type": "function"
    },
    {
      "stateMutability": "payable",
      "type": "receive"
    }
  ],
  "bytecode": "0x6101c06040523480156200001257600080fd5b50604051620034d1380380620034d183398101604081905262000035916200053c565b8282828282826001600160a01b031663313ce5676040518163ffffffff1660e01b8152600401602060405180830381865afa15801562000079573d6000803e3d6000fd5b505050506040513d601f19601f820116820180604052508101906200009f9190620005c9565b6040805180820190915260018152603160f81b602082015283908184846003620000ca848262000684565b506004620000d9838262000684565b5060ff16608052505060028054600160f81b6001600160f81b039091161790556200011282600562000347602090811b620014d217901c565b610140526200012f81600662000347602090811b620014d217901c565b61016052815160208084019190912061010052815190820120610120524660c052620001bf6101005161012051604080517f8b73c3c69bb8fe3d512ecc4cf759cc79239f7b179b0ffacaa9a75d522b39400f60208201529081019290925260608201524660808201523060a082015260009060c00160405160208183030381529060405280519060200120905090565b60a05250503060e0525050603a805460ff1916905550600954600160a81b900460ff1615808015620001fe57506009546001600160a01b90910460ff16105b806200023557506200021b306200039760201b620015031760201c565b158015620002355750600954600160a01b900460ff166001145b6200029e5760405162461bcd60e51b815260206004820152602e60248201527f496e697469616c697a61626c653a20636f6e747261637420697320616c72656160448201526d191e481a5b9a5d1a585b1a5e995960921b60648201526084015b60405180910390fd5b6009805460ff60a01b1916600160a01b1790558015620002cc576009805460ff60a81b1916600160a81b1790555b6001600160a01b03821661018052620002e4620003a6565b80156200032d576009805460ff60a81b19169055604051600181527f7f26b83ff96e1f2b6a682f133852f6798a09c465da95921460cefb38474024989060200160405180910390a15b505050506001600160a01b03166101a05250620007aa9050565b600060208351101562000367576200035f8362000429565b905062000391565b826200037e836200046c60201b620015121760201c565b906200038b908262000684565b5060ff90505b92915050565b6001600160a01b03163b151590565b600954600160a81b900460ff16620004155760405162461bcd60e51b815260206004820152602b60248201527f496e697469616c697a61626c653a20636f6e7472616374206973206e6f74206960448201526a6e697469616c697a696e6760a81b606482015260840162000295565b600880546001600160a01b03191633179055565b600080829050601f8151111562000457578260405163305a27a960e01b815260040162000295919062000750565b8051620004648262000785565b179392505050565b90565b634e487b7160e01b600052604160045260246000fd5b60005b83811015620004a257818101518382015260200162000488565b50506000910152565b600082601f830112620004bd57600080fd5b81516001600160401b0380821115620004da57620004da6200046f565b604051601f8301601f19908116603f011681019082821181831017156200050557620005056200046f565b816040528381528660208588010111156200051f57600080fd5b6200053284602083016020890162000485565b9695505050505050565b6000806000606084860312156200055257600080fd5b83516001600160401b03808211156200056a57600080fd5b6200057887838801620004ab565b945060208601519150808211156200058f57600080fd5b506200059e86828701620004ab565b604086015190935090506001600160a01b0381168114620005be57600080fd5b809150509250925092565b600060208284031215620005dc57600080fd5b815160ff81168114620005ee57600080fd5b9392505050565b600181811c908216806200060a57607f821691505b6020821081036200062b57634e487b7160e01b600052602260045260246000fd5b50919050565b601f8211156200067f57600081815260208120601f850160051c810160208610156200065a5750805b601f850160051c820191505b818110156200067b5782815560010162000666565b5050505b505050565b81516001600160401b03811115620006a057620006a06200046f565b620006b881620006b18454620005f5565b8462000631565b602080601f831160018114620006f05760008415620006d75750858301515b600019600386901b1c1916600185901b1785556200067b565b600085815260208120601f198616915b82811015620007215788860151825594840194600190910190840162000700565b5085821015620007405787850151600019600388901b60f8161c191681555b5050505050600190811b01905550565b60208152600082518060208401526200077181604085016020870162000485565b601f01601f19169190910160400192915050565b805160208083015191908110156200062b5760001960209190910360031b1b16919050565b60805160a05160c05160e05161010051610120516101405161016051610180516101a051612c5e620008736000396000818161043801528181610546015281816106190152818161082701528181610a8f01528181610cfb01528181610f1501528181611271015281816112f50152818161179b01528181611fc7015261215101526000610507015260006111500152600061112501526000611d2001526000611cf801526000611c5301526000611c7d01526000611ca7015260006103b30152612c5e6000f3fe60806040526004361061026e5760003560e01c806376d5de8511610153578063b8f82b26116100cb578063dd62ed3e1161007f578063ef5cfb8c11610064578063ef5cfb8c14610319578063f8b2f991146106ea578063fa5a4f061461052957600080fd5b8063dd62ed3e1461070b578063e30c39781461075157600080fd5b8063cbe52ae3116100b0578063cbe52ae3146106aa578063d505accf146106ca578063da88ecb4146106ea57600080fd5b8063b8f82b2614610669578063c4f59f9b1461068957600080fd5b806384b0196e1161012257806395d89b411161010757806395d89b41146105f3578063a40bee5014610608578063a9059cbb1461064957600080fd5b806384b0196e146105ab5780638da5cb5b146105d357600080fd5b806376d5de85146104f5578063784367d6146105295780637ecebe00146105765780638456cb591461059657600080fd5b8063313ce567116101e657806342c65ae5116101b55780635c975abb1161019a5780635c975abb1461048757806370a082311461049f578063769f8e5d146104d557600080fd5b806342c65ae5146104265780634e71e0c81461047257600080fd5b8063313ce567146103a15780633644e515146103e75780633ba0b9a9146103fc5780633f4ba83a1461041157600080fd5b8063128fced11161023d57806320e8c5651161022257806320e8c5651461036e578063213cae63146102a557806323b872dd1461038157600080fd5b8063128fced11461031957806318160ddd1461034657600080fd5b806306fdde031461027a578063071bc3c9146102a5578063078dfbe7146102c7578063095ea7b3146102e957600080fd5b3661027557005b600080fd5b34801561028657600080fd5b5061028f610771565b60405161029c9190612630565b60405180910390f35b3480156102b157600080fd5b506102ba610803565b60405161029c9190612643565b3480156102d357600080fd5b506102e76102e23660046126ba565b61087c565b005b3480156102f557600080fd5b50610309610304366004612703565b6109e2565b604051901515815260200161029c565b34801561032557600080fd5b5061033961033436600461272d565b6109fc565b60405161029c9190612783565b34801561035257600080fd5b506002546001600160f81b03165b60405190815260200161029c565b61036061037c366004612796565b610a17565b34801561038d57600080fd5b5061030961039c3660046127d8565b610c05565b3480156103ad57600080fd5b506103d57f000000000000000000000000000000000000000000000000000000000000000081565b60405160ff909116815260200161029c565b3480156103f357600080fd5b50610360610cb3565b34801561040857600080fd5b50610360610cc2565b34801561041d57600080fd5b506102e7610d6e565b34801561043257600080fd5b5061045a7f000000000000000000000000000000000000000000000000000000000000000081565b6040516001600160a01b03909116815260200161029c565b34801561047e57600080fd5b506102e7610dd2565b34801561049357600080fd5b50603a5460ff16610309565b3480156104ab57600080fd5b506103606104ba36600461272d565b6001600160a01b031660009081526020819052604090205490565b3480156104e157600080fd5b506103606104f0366004612814565b610e9d565b34801561050157600080fd5b5061045a7f000000000000000000000000000000000000000000000000000000000000000081565b34801561053557600080fd5b5061030961054436600461272d565b7f00000000000000000000000000000000000000000000000000000000000000006001600160a01b0390811691161490565b34801561058257600080fd5b5061036061059136600461272d565b611097565b3480156105a257600080fd5b506102e76110b5565b3480156105b757600080fd5b506105c0611117565b60405161029c979695949392919061286f565b3480156105df57600080fd5b5060085461045a906001600160a01b031681565b3480156105ff57600080fd5b5061028f6111bc565b34801561061457600080fd5b5060007f0000000000000000000000000000000000000000000000000000000000000000601260405161029c9392919061290f565b34801561065557600080fd5b50610309610664366004612703565b6111cb565b34801561067557600080fd5b50610360610684366004612703565b61126d565b34801561069557600080fd5b506040805160008152602081019091526102ba565b3480156106b657600080fd5b506103606106c5366004612703565b6112f1565b3480156106d657600080fd5b506102e76106e5366004612951565b61136e565b3480156106f657600080fd5b50604080516000815260208101909152610339565b34801561071757600080fd5b506103606107263660046129c4565b6001600160a01b03918216600090815260016020908152604080832093909416825291909152205490565b34801561075d57600080fd5b5060095461045a906001600160a01b031681565b606060038054610780906129f7565b80601f01602080910402602001604051908101604052809291908181526020018280546107ac906129f7565b80156107f95780601f106107ce576101008083540402835291602001916107f9565b820191906000526020600020905b8154815290600101906020018083116107dc57829003601f168201915b5050505050905090565b604080516001808252818301909252606091602080830190803683370190505090507f00000000000000000000000000000000000000000000000000000000000000008160008151811061085957610859612a41565b60200260200101906001600160a01b031690816001600160a01b03168152505090565b6008546001600160a01b031633146108db5760405162461bcd60e51b815260206004820181905260248201527f4f776e61626c653a2063616c6c6572206973206e6f7420746865206f776e657260448201526064015b60405180910390fd5b81156109b4576001600160a01b0383161515806108f55750805b6109415760405162461bcd60e51b815260206004820152601560248201527f4f776e61626c653a207a65726f2061646472657373000000000000000000000060448201526064016108d2565b6008546040516001600160a01b038086169216907f8be0079c531659141344cd1fd0a4f28419497f9722a3daafe3b4186f6b6457e090600090a3600880546001600160a01b03851673ffffffffffffffffffffffffffffffffffffffff1991821617909155600980549091169055505050565b6009805473ffffffffffffffffffffffffffffffffffffffff19166001600160a01b0385161790555b505050565b6000336109f0818585611515565b60019150505b92915050565b604080516000808252602082019092526060915b5092915050565b600254600090600119600160f81b90910460ff1601610a785760405162461bcd60e51b815260206004820152601f60248201527f5265656e7472616e637947756172643a207265656e7472616e742063616c6c0060448201526064016108d2565b600280546001600160f81b0316600160f91b1790557f00000000000000000000000000000000000000000000000000000000000000006001600160a01b0390811690851614610afe576040517faeabe7180000000000000000000000000000000000000000000000000000000081526001600160a01b03851660048201526024016108d2565b82600003610b38576040517fa907f2f000000000000000000000000000000000000000000000000000000000815260040160405180910390fd5b610b4384338561166e565b610b4d8484611769565b905081811015610b93576040517fbc71f2ba00000000000000000000000000000000000000000000000000000000815260048101829052602481018390526044016108d2565b610b9d858261180f565b60408051848152602081018390526001600160a01b03808716929088169133917f5fe47ed6d4225326d3303476197d782ded5a4e9c14f479dc9ec4992af4e85d59910160405180910390a4600280546001600160f81b0316600160f81b179055949350505050565b600254600090600119600160f81b90910460ff1601610c665760405162461bcd60e51b815260206004820152601f60248201527f5265656e7472616e637947756172643a207265656e7472616e742063616c6c0060448201526064016108d2565b600280546001600160f81b0316600160f91b17905533610c87858285611937565b610c928585856119c3565b6001915050600280546001600160f81b0316600160f81b1790559392505050565b6000610cbd611c46565b905090565b6040517fbaab9dab000000000000000000000000000000000000000000000000000000008152670de0b6b3a764000060048201526000907f00000000000000000000000000000000000000000000000000000000000000006001600160a01b03169063baab9dab90602401602060405180830381865afa158015610d4a573d6000803e3d6000fd5b505050506040513d601f19601f82011682018060405250810190610cbd9190612a57565b6008546001600160a01b03163314610dc85760405162461bcd60e51b815260206004820181905260248201527f4f776e61626c653a2063616c6c6572206973206e6f7420746865206f776e657260448201526064016108d2565b610dd0611d71565b565b6009546001600160a01b0316338114610e2d5760405162461bcd60e51b815260206004820181905260248201527f4f776e61626c653a2063616c6c657220213d2070656e64696e67206f776e657260448201526064016108d2565b6008546040516001600160a01b038084169216907f8be0079c531659141344cd1fd0a4f28419497f9722a3daafe3b4186f6b6457e090600090a3600880546001600160a01b0390921673ffffffffffffffffffffffffffffffffffffffff19928316179055600980549091169055565b600254600090600119600160f81b90910460ff1601610efe5760405162461bcd60e51b815260206004820152601f60248201527f5265656e7472616e637947756172643a207265656e7472616e742063616c6c0060448201526064016108d2565b600280546001600160f81b0316600160f91b1790557f00000000000000000000000000000000000000000000000000000000000000006001600160a01b0390811690851614610f84576040517f88a505610000000000000000000000000000000000000000000000000000000081526001600160a01b03851660048201526024016108d2565b84600003610fbe576040517fc3d83b0700000000000000000000000000000000000000000000000000000000815260040160405180910390fd5b8115610fd357610fce3086611dc3565b610fdd565b610fdd3386611dc3565b610fe8868587611f85565b90508281101561102e576040517fbfee4ca000000000000000000000000000000000000000000000000000000000815260048101829052602481018490526044016108d2565b60408051868152602081018390526001600160a01b03808716929089169133917faee47cdf925cf525fdae94f9777ee5a06cac37e1c41220d0a8a89ed154f62d1c910160405180910390a4600280546001600160f81b0316600160f81b17905595945050505050565b6001600160a01b0381166000908152600760205260408120546109f6565b6008546001600160a01b0316331461110f5760405162461bcd60e51b815260206004820181905260248201527f4f776e61626c653a2063616c6c6572206973206e6f7420746865206f776e657260448201526064016108d2565b610dd061203e565b60006060808280808361114b7f0000000000000000000000000000000000000000000000000000000000000000600561207b565b6111767f0000000000000000000000000000000000000000000000000000000000000000600661207b565b604080516000808252602082019092527f0f000000000000000000000000000000000000000000000000000000000000009b939a50919850469750309650945092509050565b606060048054610780906129f7565b600254600090600119600160f81b90910460ff160161122c5760405162461bcd60e51b815260206004820152601f60248201527f5265656e7472616e637947756172643a207265656e7472616e742063616c6c0060448201526064016108d2565b600280546001600160f81b0316600160f91b1790553361124d8185856119c3565b6001915050600280546001600160f81b0316600160f81b17905592915050565b60007f00000000000000000000000000000000000000000000000000000000000000006001600160a01b03908116908416146112e0576040517faeabe7180000000000000000000000000000000000000000000000000000000081526001600160a01b03841660048201526024016108d2565b6112ea8383611769565b9392505050565b60007f00000000000000000000000000000000000000000000000000000000000000006001600160a01b0390811690841614611364576040517f88a505610000000000000000000000000000000000000000000000000000000081526001600160a01b03841660048201526024016108d2565b6112ea838361211f565b834211156113be5760405162461bcd60e51b815260206004820152601d60248201527f45524332305065726d69743a206578706972656420646561646c696e6500000060448201526064016108d2565b60007f6e71edae12b1b97f4d1f60370fef10105fa2faae0126114a169c64845d6126c98888886113ed8c612188565b6040805160208101969096526001600160a01b0394851690860152929091166060840152608083015260a082015260c0810186905260e0016040516020818303038152906040528051906020012090506000611448826121b0565b90506000611458828787876121f8565b9050896001600160a01b0316816001600160a01b0316146114bb5760405162461bcd60e51b815260206004820152601e60248201527f45524332305065726d69743a20696e76616c6964207369676e6174757265000060448201526064016108d2565b6114c68a8a8a611515565b50505050505050505050565b60006020835110156114ee576114e783612220565b90506109f6565b816114f98482612abe565b5060ff90506109f6565b6001600160a01b03163b151590565b90565b6001600160a01b0383166115905760405162461bcd60e51b8152602060048201526024808201527f45524332303a20617070726f76652066726f6d20746865207a65726f2061646460448201527f726573730000000000000000000000000000000000000000000000000000000060648201526084016108d2565b6001600160a01b03821661160c5760405162461bcd60e51b815260206004820152602260248201527f45524332303a20617070726f766520746f20746865207a65726f20616464726560448201527f737300000000000000000000000000000000000000000000000000000000000060648201526084016108d2565b6001600160a01b0383811660008181526001602090815260408083209487168084529482529182902085905590518481527f8c5be1e5ebec7d5bd14f71427d1e84f3dd0314c0f7b2291e5b200ac8c7c3b92591015b60405180910390a3505050565b6001600160a01b0383166116cb578034146109dd5760405162461bcd60e51b815260206004820152600c60248201527f657468206d69736d61746368000000000000000000000000000000000000000060448201526064016108d2565b80156109dd576040517f23b872dd0000000000000000000000000000000000000000000000000000000081526001600160a01b038381166004830152306024830152604482018390528416906323b872dd906064016020604051808303816000875af115801561173f573d6000803e3d6000fd5b505050506040513d601f19601f820116820180604052508101906117639190612b7e565b50505050565b6040517fb85364e5000000000000000000000000000000000000000000000000000000008152600481018290526000907f00000000000000000000000000000000000000000000000000000000000000006001600160a01b03169063b85364e5906024015b602060405180830381865afa1580156117eb573d6000803e3d6000fd5b505050506040513d601f19601f820116820180604052508101906112ea9190612a57565b6001600160a01b0382166118655760405162461bcd60e51b815260206004820152601f60248201527f45524332303a206d696e7420746f20746865207a65726f20616464726573730060448201526064016108d2565b61187160008383612277565b61187a8161227f565b600280546000906118959084906001600160f81b0316612bb1565b92506101000a8154816001600160f81b0302191690836001600160f81b0316021790555080600080846001600160a01b03166001600160a01b0316815260200190815260200160002060008282546118ed9190612bd1565b90915550506040518181526001600160a01b038316906000907fddf252ad1be2c89b69c2b068fc378daa952ba7f163c4a11628f55a4df523b3ef9060200160405180910390a35050565b6001600160a01b03838116600090815260016020908152604080832093861683529290522054600019811461176357818110156119b65760405162461bcd60e51b815260206004820152601d60248201527f45524332303a20696e73756666696369656e7420616c6c6f77616e636500000060448201526064016108d2565b6117638484848403611515565b6001600160a01b038316611a3f5760405162461bcd60e51b815260206004820152602560248201527f45524332303a207472616e736665722066726f6d20746865207a65726f20616460448201527f647265737300000000000000000000000000000000000000000000000000000060648201526084016108d2565b6001600160a01b038216611abb5760405162461bcd60e51b815260206004820152602360248201527f45524332303a207472616e7366657220746f20746865207a65726f206164647260448201527f657373000000000000000000000000000000000000000000000000000000000060648201526084016108d2565b816001600160a01b0316836001600160a01b031603611b1c5760405162461bcd60e51b815260206004820152601760248201527f45524332303a207472616e7366657220746f2073656c6600000000000000000060448201526064016108d2565b611b27838383612277565b6001600160a01b03831660009081526020819052604090205481811015611bb65760405162461bcd60e51b815260206004820152602660248201527f45524332303a207472616e7366657220616d6f756e742065786365656473206260448201527f616c616e6365000000000000000000000000000000000000000000000000000060648201526084016108d2565b6001600160a01b03808516600090815260208190526040808220858503905591851681529081208054849290611bed908490612bd1565b92505081905550826001600160a01b0316846001600160a01b03167fddf252ad1be2c89b69c2b068fc378daa952ba7f163c4a11628f55a4df523b3ef84604051611c3991815260200190565b60405180910390a3611763565b6000306001600160a01b037f000000000000000000000000000000000000000000000000000000000000000016148015611c9f57507f000000000000000000000000000000000000000000000000000000000000000046145b15611cc957507f000000000000000000000000000000000000000000000000000000000000000090565b610cbd604080517f8b73c3c69bb8fe3d512ecc4cf759cc79239f7b179b0ffacaa9a75d522b39400f60208201527f0000000000000000000000000000000000000000000000000000000000000000918101919091527f000000000000000000000000000000000000000000000000000000000000000060608201524660808201523060a082015260009060c00160405160208183030381529060405280519060200120905090565b611d79612299565b603a805460ff191690557f5db9ee0a495bf2e6ff9c91a7834c1ba4fdd244a5e8aa4e537bd38aeae4b073aa335b6040516001600160a01b03909116815260200160405180910390a1565b6001600160a01b038216611e3f5760405162461bcd60e51b815260206004820152602160248201527f45524332303a206275726e2066726f6d20746865207a65726f2061646472657360448201527f730000000000000000000000000000000000000000000000000000000000000060648201526084016108d2565b611e4b82600083612277565b6001600160a01b03821660009081526020819052604090205481811015611eda5760405162461bcd60e51b815260206004820152602260248201527f45524332303a206275726e20616d6f756e7420657863656564732062616c616e60448201527f636500000000000000000000000000000000000000000000000000000000000060648201526084016108d2565b6001600160a01b03831660009081526020819052604090208282039055611f008261227f565b60028054600090611f1b9084906001600160f81b0316612be4565b92506101000a8154816001600160f81b0302191690836001600160f81b0316021790555060006001600160a01b0316836001600160a01b03167fddf252ad1be2c89b69c2b068fc378daa952ba7f163c4a11628f55a4df523b3ef8460405161166191815260200190565b6040517f8fcb4e5b0000000000000000000000000000000000000000000000000000000081526001600160a01b038481166004830152602482018390526000917f000000000000000000000000000000000000000000000000000000000000000090911690638fcb4e5b906044016020604051808303816000875af1158015612012573d6000803e3d6000fd5b505050506040513d601f19601f820116820180604052508101906120369190612a57565b949350505050565b6120466122eb565b603a805460ff191660011790557f62e78cea01bee320cd4e420270b5ea74000d11b0c9f74754ebdbfc544b05a258611da63390565b606060ff831461208e576114e78361233e565b81805461209a906129f7565b80601f01602080910402602001604051908101604052809291908181526020018280546120c6906129f7565b80156121135780601f106120e857610100808354040283529160200191612113565b820191906000526020600020905b8154815290600101906020018083116120f657829003601f168201915b505050505090506109f6565b6040517fbaab9dab000000000000000000000000000000000000000000000000000000008152600481018290526000907f00000000000000000000000000000000000000000000000000000000000000006001600160a01b03169063baab9dab906024016117ce565b6001600160a01b03811660009081526007602052604090208054600181018255905b50919050565b60006109f66121bd611c46565b836040517f19010000000000000000000000000000000000000000000000000000000000008152600281019290925260228201526042902090565b60008060006122098787878761237d565b9150915061221681612441565b5095945050505050565b600080829050601f8151111561226457826040517f305a27a90000000000000000000000000000000000000000000000000000000081526004016108d29190612630565b805161226f82612c04565b179392505050565b6109dd6122eb565b60006001600160f81b0382111561229557600080fd5b5090565b603a5460ff16610dd05760405162461bcd60e51b815260206004820152601460248201527f5061757361626c653a206e6f742070617573656400000000000000000000000060448201526064016108d2565b603a5460ff1615610dd05760405162461bcd60e51b815260206004820152601060248201527f5061757361626c653a207061757365640000000000000000000000000000000060448201526064016108d2565b6060600061234b836125a9565b604080516020808252818301909252919250600091906020820181803683375050509182525060208101929092525090565b6000807f7fffffffffffffffffffffffffffffff5d576e7357a4501ddfe92f46681b20a08311156123b45750600090506003612438565b6040805160008082526020820180845289905260ff881692820192909252606081018690526080810185905260019060a0016020604051602081039080840390855afa158015612408573d6000803e3d6000fd5b5050604051601f1901519150506001600160a01b03811661243157600060019250925050612438565b9150600090505b94509492505050565b6000816004811115612455576124556128f9565b0361245d5750565b6001816004811115612471576124716128f9565b036124be5760405162461bcd60e51b815260206004820152601860248201527f45434453413a20696e76616c6964207369676e6174757265000000000000000060448201526064016108d2565b60028160048111156124d2576124d26128f9565b0361251f5760405162461bcd60e51b815260206004820152601f60248201527f45434453413a20696e76616c6964207369676e6174757265206c656e6774680060448201526064016108d2565b6003816004811115612533576125336128f9565b036125a65760405162461bcd60e51b815260206004820152602260248201527f45434453413a20696e76616c6964207369676e6174757265202773272076616c60448201527f756500000000000000000000000000000000000000000000000000000000000060648201526084016108d2565b50565b600060ff8216601f8111156109f6576040517fb3512b0c00000000000000000000000000000000000000000000000000000000815260040160405180910390fd5b6000815180845260005b81811015612610576020818501810151868301820152016125f4565b506000602082860101526020601f19601f83011685010191505092915050565b6020815260006112ea60208301846125ea565b6020808252825182820181905260009190848201906040850190845b818110156126845783516001600160a01b03168352928401929184019160010161265f565b50909695505050505050565b80356001600160a01b03811681146126a757600080fd5b919050565b80151581146125a657600080fd5b6000806000606084860312156126cf57600080fd5b6126d884612690565b925060208401356126e8816126ac565b915060408401356126f8816126ac565b809150509250925092565b6000806040838503121561271657600080fd5b61271f83612690565b946020939093013593505050565b60006020828403121561273f57600080fd5b6112ea82612690565b600081518084526020808501945080840160005b838110156127785781518752958201959082019060010161275c565b509495945050505050565b6020815260006112ea6020830184612748565b600080600080608085870312156127ac57600080fd5b6127b585612690565b93506127c360208601612690565b93969395505050506040820135916060013590565b6000806000606084860312156127ed57600080fd5b6127f684612690565b925061280460208501612690565b9150604084013590509250925092565b600080600080600060a0868803121561282c57600080fd5b61283586612690565b94506020860135935061284a60408701612690565b9250606086013591506080860135612861816126ac565b809150509295509295909350565b7fff000000000000000000000000000000000000000000000000000000000000008816815260e0602082015260006128aa60e08301896125ea565b82810360408401526128bc81896125ea565b90508660608401526001600160a01b03861660808401528460a084015282810360c08401526128eb8185612748565b9a9950505050505050505050565b634e487b7160e01b600052602160045260246000fd5b606081016002851061293157634e487b7160e01b600052602160045260246000fd5b9381526001600160a01b0392909216602083015260ff1660409091015290565b600080600080600080600060e0888a03121561296c57600080fd5b61297588612690565b965061298360208901612690565b95506040880135945060608801359350608088013560ff811681146129a757600080fd5b9699959850939692959460a0840135945060c09093013592915050565b600080604083850312156129d757600080fd5b6129e083612690565b91506129ee60208401612690565b90509250929050565b600181811c90821680612a0b57607f821691505b6020821081036121aa57634e487b7160e01b600052602260045260246000fd5b634e487b7160e01b600052604160045260246000fd5b634e487b7160e01b600052603260045260246000fd5b600060208284031215612a6957600080fd5b5051919050565b601f8211156109dd57600081815260208120601f850160051c81016020861015612a975750805b601f850160051c820191505b81811015612ab657828155600101612aa3565b505050505050565b815167ffffffffffffffff811115612ad857612ad8612a2b565b612aec81612ae684546129f7565b84612a70565b602080601f831160018114612b215760008415612b095750858301515b600019600386901b1c1916600185901b178555612ab6565b600085815260208120601f198616915b82811015612b5057888601518255948401946001909101908401612b31565b5085821015612b6e5787850151600019600388901b60f8161c191681555b5050505050600190811b01905550565b600060208284031215612b9057600080fd5b81516112ea816126ac565b634e487b7160e01b600052601160045260246000fd5b6001600160f81b03818116838216019080821115610a1057610a10612b9b565b808201808211156109f6576109f6612b9b565b6001600160f81b03828116828216039080821115610a1057610a10612b9b565b805160208083015191908110156121aa5760001960209190910360031b1b1691905056fea2646970667358221220819aef7805c113b17ba0e1fdb71017b8c3b0401f5d6d5272be48151f92b43ba664736f6c63430008110033",
  "linkReferences": {},
  "deployedLinkReferences": {}
}