{
  "_format": "hh-sol-artifact-1",
  "contractName": "EUSDMock",
  "sourceName": "contracts/mocks/EUSDMock.sol",
  "abi": [
    {
      "inputs": [
        {
          "internalType": "address",
          "name": "_config",
          "type": "address"
        }
      ],
      "stateMutability": "nonpayable",
      "type": "constructor"
    },
    {
      "anonymous": false,
      "inputs": [
        {
          "indexed": true,
          "internalType": "address",
          "name": "owner",
          "type": "address"
        },
        {
          "indexed": true,
          "internalType": "address",
          "name": "spender",
          "type": "address"
        },
        {
          "indexed": false,
          "internalType": "uint256",
          "name": "value",
          "type": "uint256"
        }
      ],
      "name": "Approval",
      "type": "event"
    },
    {
      "anonymous": false,
      "inputs": [
        {
          "indexed": true,
          "internalType": "address",
          "name": "account",
          "type": "address"
        },
        {
          "indexed": false,
          "internalType": "uint256",
          "name": "preRebaseTokenAmount",
          "type": "uint256"
        },
        {
          "indexed": false,
          "internalType": "uint256",
          "name": "postRebaseTokenAmount",
          "type": "uint256"
        },
        {
          "indexed": false,
          "internalType": "uint256",
          "name": "sharesAmount",
          "type": "uint256"
        }
      ],
      "name": "SharesBurnt",
      "type": "event"
    },
    {
      "anonymous": false,
      "inputs": [
        {
          "indexed": true,
          "internalType": "address",
          "name": "from",
          "type": "address"
        },
        {
          "indexed": true,
          "internalType": "address",
          "name": "to",
          "type": "address"
        },
        {
          "indexed": false,
          "internalType": "uint256",
          "name": "value",
          "type": "uint256"
        }
      ],
      "name": "Transfer",
      "type": "event"
    },
    {
      "anonymous": false,
      "inputs": [
        {
          "indexed": true,
          "internalType": "address",
          "name": "from",
          "type": "address"
        },
        {
          "indexed": true,
          "internalType": "address",
          "name": "to",
          "type": "address"
        },
        {
          "indexed": false,
          "internalType": "uint256",
          "name": "sharesValue",
          "type": "uint256"
        }
      ],
      "name": "TransferShares",
      "type": "event"
    },
    {
      "inputs": [
        {
          "internalType": "address",
          "name": "_owner",
          "type": "address"
        },
        {
          "internalType": "address",
          "name": "_spender",
          "type": "address"
        }
      ],
      "name": "allowance",
      "outputs": [
        {
          "internalType": "uint256",
          "name": "",
          "type": "uint256"
        }
      ],
      "stateMutability": "view",
      "type": "function"
    },
    {
      "inputs": [
        {
          "internalType": "address",
          "name": "_spender",
          "type": "address"
        },
        {
          "internalType": "uint256",
          "name": "_amount",
          "type": "uint256"
        }
      ],
      "name": "approve",
      "outputs": [
        {
          "internalType": "bool",
          "name": "",
          "type": "bool"
        }
      ],
      "stateMutability": "nonpayable",
      "type": "function"
    },
    {
      "inputs": [
        {
          "internalType": "address",
          "name": "_account",
          "type": "address"
        }
      ],
      "name": "balanceOf",
      "outputs": [
        {
          "internalType": "uint256",
          "name": "",
          "type": "uint256"
        }
      ],
      "stateMutability": "view",
      "type": "function"
    },
    {
      "inputs": [
        {
          "internalType": "address",
          "name": "_account",
          "type": "address"
        },
        {
          "internalType": "uint256",
          "name": "_burnAmount",
          "type": "uint256"
        }
      ],
      "name": "burn",
      "outputs": [
        {
          "internalType": "uint256",
          "name": "newTotalShares",
          "type": "uint256"
        }
      ],
      "stateMutability": "nonpayable",
      "type": "function"
    },
    {
      "inputs": [
        {
          "internalType": "address",
          "name": "_account",
          "type": "address"
        },
        {
          "internalType": "uint256",
          "name": "_sharesAmount",
          "type": "uint256"
        }
      ],
      "name": "burnShares",
      "outputs": [
        {
          "internalType": "uint256",
          "name": "newTotalShares",
          "type": "uint256"
        }
      ],
      "stateMutability": "nonpayable",
      "type": "function"
    },
    {
      "inputs": [],
      "name": "configurator",
      "outputs": [
        {
          "internalType": "contract Iconfigurator",
          "name": "",
          "type": "address"
        }
      ],
      "stateMutability": "view",
      "type": "function"
    },
    {
      "inputs": [],
      "name": "decimals",
      "outputs": [
        {
          "internalType": "uint8",
          "name": "",
          "type": "uint8"
        }
      ],
      "stateMutability": "pure",
      "type": "function"
    },
    {
      "inputs": [
        {
          "internalType": "address",
          "name": "spender",
          "type": "address"
        },
        {
          "internalType": "uint256",
          "name": "subtractedValue",
          "type": "uint256"
        }
      ],
      "name": "decreaseAllowance",
      "outputs": [
        {
          "internalType": "bool",
          "name": "",
          "type": "bool"
        }
      ],
      "stateMutability": "nonpayable",
      "type": "function"
    },
    {
      "inputs": [
        {
          "internalType": "uint256",
          "name": "_sharesAmount",
          "type": "uint256"
        }
      ],
      "name": "getMintedEUSDByShares",
      "outputs": [
        {
          "internalType": "uint256",
          "name": "",
          "type": "uint256"
        }
      ],
      "stateMutability": "view",
      "type": "function"
    },
    {
      "inputs": [
        {
          "internalType": "uint256",
          "name": "_EUSDAmount",
          "type": "uint256"
        }
      ],
      "name": "getSharesByMintedEUSD",
      "outputs": [
        {
          "internalType": "uint256",
          "name": "",
          "type": "uint256"
        }
      ],
      "stateMutability": "view",
      "type": "function"
    },
    {
      "inputs": [],
      "name": "getTotalShares",
      "outputs": [
        {
          "internalType": "uint256",
          "name": "",
          "type": "uint256"
        }
      ],
      "stateMutability": "view",
      "type": "function"
    },
    {
      "inputs": [
        {
          "internalType": "address",
          "name": "_spender",
          "type": "address"
        },
        {
          "internalType": "uint256",
          "name": "_addedValue",
          "type": "uint256"
        }
      ],
      "name": "increaseAllowance",
      "outputs": [
        {
          "internalType": "bool",
          "name": "",
          "type": "bool"
        }
      ],
      "stateMutability": "nonpayable",
      "type": "function"
    },
    {
      "inputs": [
        {
          "internalType": "address",
          "name": "_recipient",
          "type": "address"
        },
        {
          "internalType": "uint256",
          "name": "_mintAmount",
          "type": "uint256"
        }
      ],
      "name": "mint",
      "outputs": [
        {
          "internalType": "uint256",
          "name": "newTotalShares",
          "type": "uint256"
        }
      ],
      "stateMutability": "nonpayable",
      "type": "function"
    },
    {
      "inputs": [],
      "name": "name",
      "outputs": [
        {
          "internalType": "string",
          "name": "",
          "type": "string"
        }
      ],
      "stateMutability": "pure",
      "type": "function"
    },
    {
      "inputs": [
        {
          "internalType": "address",
          "name": "_account",
          "type": "address"
        }
      ],
      "name": "sharesOf",
      "outputs": [
        {
          "internalType": "uint256",
          "name": "",
          "type": "uint256"
        }
      ],
      "stateMutability": "view",
      "type": "function"
    },
    {
      "inputs": [],
      "name": "symbol",
      "outputs": [
        {
          "internalType": "string",
          "name": "",
          "type": "string"
        }
      ],
      "stateMutability": "pure",
      "type": "function"
    },
    {
      "inputs": [],
      "name": "totalSupply",
      "outputs": [
        {
          "internalType": "uint256",
          "name": "",
          "type": "uint256"
        }
      ],
      "stateMutability": "view",
      "type": "function"
    },
    {
      "inputs": [
        {
          "internalType": "address",
          "name": "_recipient",
          "type": "address"
        },
        {
          "internalType": "uint256",
          "name": "_amount",
          "type": "uint256"
        }
      ],
      "name": "transfer",
      "outputs": [
        {
          "internalType": "bool",
          "name": "",
          "type": "bool"
        }
      ],
      "stateMutability": "nonpayable",
      "type": "function"
    },
    {
      "inputs": [
        {
          "internalType": "address",
          "name": "from",
          "type": "address"
        },
        {
          "internalType": "address",
          "name": "to",
          "type": "address"
        },
        {
          "internalType": "uint256",
          "name": "amount",
          "type": "uint256"
        }
      ],
      "name": "transferFrom",
      "outputs": [
        {
          "internalType": "bool",
          "name": "",
          "type": "bool"
        }
      ],
      "stateMutability": "nonpayable",
      "type": "function"
    },
    {
      "inputs": [
        {
          "internalType": "address",
          "name": "_recipient",
          "type": "address"
        },
        {
          "internalType": "uint256",
          "name": "_sharesAmount",
          "type": "uint256"
        }
      ],
      "name": "transferShares",
      "outputs": [
        {
          "internalType": "uint256",
          "name": "",
          "type": "uint256"
        }
      ],
      "stateMutability": "nonpayable",
      "type": "function"
    }
  ],
  "bytecode": "0x60a060405234801561001057600080fd5b506040516112fc3803806112fc83398101604081905261002f9161006b565b6001600160a01b031660805269d3c21bcecceda100000060008181553381526002602052604090205569e8ef1e96ae389780000060015561009b565b60006020828403121561007d57600080fd5b81516001600160a01b038116811461009457600080fd5b9392505050565b60805161122a6100d26000396000818161020601528181610608015281816106cf015281816109850152610a4c015261122a6000f3fe608060405234801561001057600080fd5b506004361061016c5760003560e01c806395d89b41116100cd578063baab9dab11610081578063dd62ed3e11610066578063dd62ed3e14610302578063ee7a7c041461033b578063f5eb42dc1461034e57600080fd5b8063baab9dab146102e7578063d5002f2e146102fa57600080fd5b8063a457c2d7116100b2578063a457c2d7146102ae578063a9059cbb146102c1578063b85364e5146102d457600080fd5b806395d89b41146101715780639dc29fac1461029b57600080fd5b8063313ce5671161012457806340c10f191161010957806340c10f191461026257806370a08231146102755780638fcb4e5b1461028857600080fd5b8063313ce56714610240578063395093511461024f57600080fd5b806318160ddd1161015557806318160ddd146101dc57806323b872dd146101ee5780632b507df81461020157600080fd5b806306fdde0314610171578063095ea7b3146101b9575b600080fd5b604080518082018252600481527f6555534400000000000000000000000000000000000000000000000000000000602082015290516101b09190610fdb565b60405180910390f35b6101cc6101c736600461105e565b610361565b60405190151581526020016101b0565b6001545b6040519081526020016101b0565b6101cc6101fc366004611088565b61037b565b6102287f000000000000000000000000000000000000000000000000000000000000000081565b6040516001600160a01b0390911681526020016101b0565b604051601281526020016101b0565b6101cc61025d36600461105e565b610394565b6101e061027036600461105e565b6103d2565b6101e06102833660046110c4565b6104f8565b6101e061029636600461105e565b61051a565b6101e06102a936600461105e565b6105d7565b6101cc6102bc36600461105e565b61082d565b6101cc6102cf36600461105e565b6108d7565b6101e06102e23660046110df565b6108e5565b6101e06102f53660046110df565b610921565b6000546101e0565b6101e06103103660046110f8565b6001600160a01b03918216600090815260036020908152604080832093909416825291909152205490565b6101e061034936600461105e565b610954565b6101e061035c3660046110c4565b610b46565b60003361036f818585610b64565b60019150505b92915050565b600033610389858585610c71565b506001949350505050565b3360008181526003602090815260408083206001600160a01b038716845290915281205490919061036f90829086906103cd9087610d29565b610b64565b60006001600160a01b03831661042f5760405162461bcd60e51b815260206004820152601860248201527f4d494e545f544f5f5448455f5a45524f5f41444452455353000000000000000060448201526064015b60405180910390fd5b600061043a836108e5565b9050806000036104475750815b6000546104549082610d29565b60008181556001600160a01b03861681526002602052604090205490925061047c9082610d29565b6001600160a01b038516600090815260026020526040812091909155600180548592906104aa90849061115a565b90915550506040518381526001600160a01b038516906000907fddf252ad1be2c89b69c2b068fc378daa952ba7f163c4a11628f55a4df523b3ef906020015b60405180910390a35092915050565b6001600160a01b03811660009081526002602052604081205461037590610921565b600033610528818585610d35565b836001600160a01b0316816001600160a01b03167f9d9c909296d9c674451c0c24f02cb64981eb3b727f99865939192f880a755dcb8560405161056d91815260200190565b60405180910390a3600061058084610921565b9050846001600160a01b0316826001600160a01b03167fddf252ad1be2c89b69c2b068fc378daa952ba7f163c4a11628f55a4df523b3ef836040516105c791815260200190565b60405180910390a3949350505050565b6040517ff2afd3990000000000000000000000000000000000000000000000000000000081523360048201526000907f00000000000000000000000000000000000000000000000000000000000000006001600160a01b03169063f2afd39990602401602060405180830381865afa158015610657573d6000803e3d6000fd5b505050506040513d601f19601f8201168201806040525081019061067b919061116d565b6106a15760405162461bcd60e51b81526020600482015260006024820152604401610426565b6040517f111098780000000000000000000000000000000000000000000000000000000081523360048201527f00000000000000000000000000000000000000000000000000000000000000006001600160a01b031690631110987890602401602060405180830381865afa15801561071e573d6000803e3d6000fd5b505050506040513d601f19601f82011682018060405250810190610742919061116d565b156107695760405162461bcd60e51b81526020600482015260006024820152604401610426565b6001600160a01b0383166107bf5760405162461bcd60e51b815260206004820152601a60248201527f4255524e5f46524f4d5f5448455f5a45524f5f414444524553530000000000006044820152606401610426565b60006107ca836108e5565b90506107d68482610ea5565b915082600160008282546107ea919061118f565b90915550506040518381526000906001600160a01b038616907fddf252ad1be2c89b69c2b068fc378daa952ba7f163c4a11628f55a4df523b3ef906020016104e9565b3360008181526003602090815260408083206001600160a01b0387168452909152812054909190838110156108ca5760405162461bcd60e51b815260206004820152602560248201527f45524332303a2064656372656173656420616c6c6f77616e63652062656c6f7760448201527f207a65726f0000000000000000000000000000000000000000000000000000006064820152608401610426565b6103898286868403610b64565b60003361036f818585610c71565b6001546000908082036108fb5750600092915050565b61091a8161091460005486610fb790919063ffffffff16565b90610fc3565b9392505050565b6000805460000361093457506000919050565b61037560005461091460015485610fb790919063ffffffff16565b919050565b6040517ff2afd3990000000000000000000000000000000000000000000000000000000081523360048201526000907f00000000000000000000000000000000000000000000000000000000000000006001600160a01b03169063f2afd39990602401602060405180830381865afa1580156109d4573d6000803e3d6000fd5b505050506040513d601f19601f820116820180604052508101906109f8919061116d565b610a1e5760405162461bcd60e51b81526020600482015260006024820152604401610426565b6040517f111098780000000000000000000000000000000000000000000000000000000081523360048201527f00000000000000000000000000000000000000000000000000000000000000006001600160a01b031690631110987890602401602060405180830381865afa158015610a9b573d6000803e3d6000fd5b505050506040513d601f19601f82011682018060405250810190610abf919061116d565b15610ae65760405162461bcd60e51b81526020600482015260006024820152604401610426565b6001600160a01b038316610b3c5760405162461bcd60e51b815260206004820152601a60248201527f4255524e5f46524f4d5f5448455f5a45524f5f414444524553530000000000006044820152606401610426565b61091a8383610ea5565b6001600160a01b038116600090815260026020526040812054610375565b6001600160a01b038316610bba5760405162461bcd60e51b815260206004820152601960248201527f415050524f56455f46524f4d5f5a45524f5f41444452455353000000000000006044820152606401610426565b6001600160a01b038216610c105760405162461bcd60e51b815260206004820152601760248201527f415050524f56455f544f5f5a45524f5f414444524553530000000000000000006044820152606401610426565b6001600160a01b0383811660008181526003602090815260408083209487168084529482529182902085905590518481527f8c5be1e5ebec7d5bd14f71427d1e84f3dd0314c0f7b2291e5b200ac8c7c3b925910160405180910390a3505050565b6000610c7c826108e5565b9050610c89848483610d35565b826001600160a01b0316846001600160a01b03167fddf252ad1be2c89b69c2b068fc378daa952ba7f163c4a11628f55a4df523b3ef84604051610cce91815260200190565b60405180910390a3826001600160a01b0316846001600160a01b03167f9d9c909296d9c674451c0c24f02cb64981eb3b727f99865939192f880a755dcb83604051610d1b91815260200190565b60405180910390a350505050565b600061091a828461115a565b6001600160a01b038316610d8b5760405162461bcd60e51b815260206004820152601e60248201527f5452414e534645525f46524f4d5f5448455f5a45524f5f4144445245535300006044820152606401610426565b6001600160a01b038216610de15760405162461bcd60e51b815260206004820152601c60248201527f5452414e534645525f544f5f5448455f5a45524f5f41444452455353000000006044820152606401610426565b6001600160a01b03831660009081526002602052604090205480821115610e4a5760405162461bcd60e51b815260206004820152601f60248201527f5452414e534645525f414d4f554e545f455843454544535f42414c414e4345006044820152606401610426565b610e548183610fcf565b6001600160a01b038086166000908152600260205260408082209390935590851681522054610e839083610d29565b6001600160a01b03909316600090815260026020526040902092909255505050565b6001600160a01b03821660009081526002602052604081205480831115610f0e5760405162461bcd60e51b815260206004820152601b60248201527f4255524e5f414d4f554e545f455843454544535f42414c414e434500000000006044820152606401610426565b6000610f1984610921565b600054909150610f299085610fcf565b60008190559250610f3a8285610fcf565b6001600160a01b038616600090815260026020526040812091909155610f5f85610921565b60408051848152602081018390529081018790529091506001600160a01b038716907f8b2a1e1ad5e0578c3dd82494156e985dade827a87c573b5c1c7716a32162ad649060600160405180910390a250505092915050565b600061091a82846111a2565b600061091a82846111b9565b600061091a828461118f565b600060208083528351808285015260005b8181101561100857858101830151858201604001528201610fec565b5060006040828601015260407fffffffffffffffffffffffffffffffffffffffffffffffffffffffffffffffe0601f8301168501019250505092915050565b80356001600160a01b038116811461094f57600080fd5b6000806040838503121561107157600080fd5b61107a83611047565b946020939093013593505050565b60008060006060848603121561109d57600080fd5b6110a684611047565b92506110b460208501611047565b9150604084013590509250925092565b6000602082840312156110d657600080fd5b61091a82611047565b6000602082840312156110f157600080fd5b5035919050565b6000806040838503121561110b57600080fd5b61111483611047565b915061112260208401611047565b90509250929050565b7f4e487b7100000000000000000000000000000000000000000000000000000000600052601160045260246000fd5b808201808211156103755761037561112b565b60006020828403121561117f57600080fd5b8151801515811461091a57600080fd5b818103818111156103755761037561112b565b80820281158282048414176103755761037561112b565b6000826111ef577f4e487b7100000000000000000000000000000000000000000000000000000000600052601260045260246000fd5b50049056fea264697066735822122017650a3f9b1258211bdd3909000692bc9d43346bbab331ef51da0be64fabc76164736f6c63430008110033",
  "linkReferences": {},
  "deployedLinkReferences": {}
}