{
  "_format": "hh-sol-artifact-1",
  "contractName": "EuphratesMarketV2",
  "sourceName": "contracts/core/Market/v2/EuphratesMarketV2.sol",
  "abi": [
    {
      "inputs": [
        {
          "internalType": "address",
          "name": "_PT",
          "type": "address"
        },
        {
          "internalType": "int256",
          "name": "_scalarRoot",
          "type": "int256"
        },
        {
          "internalType": "int256",
          "name": "_initialAnchor",
          "type": "int256"
        },
        {
          "internalType": "address",
          "name": "_EUPHRATES",
          "type": "address"
        },
        {
          "internalType": "address",
          "name": "_externalRewardDistributor",
          "type": "address"
        },
        {
          "internalType": "address",
          "name": "_marketFactory",
          "type": "address"
        }
      ],
      "stateMutability": "nonpayable",
      "type": "constructor"
    },
    {
      "inputs": [
        {
          "internalType": "int256",
          "name": "exchangeRate",
          "type": "int256"
        }
      ],
      "name": "MarketExchangeRateBelowOne",
      "type": "error"
    },
    {
      "inputs": [],
      "name": "MarketExpired",
      "type": "error"
    },
    {
      "inputs": [
        {
          "internalType": "int256",
          "name": "currentAmount",
          "type": "int256"
        },
        {
          "internalType": "int256",
          "name": "requiredAmount",
          "type": "int256"
        }
      ],
      "name": "MarketInsufficientPtForTrade",
      "type": "error"
    },
    {
      "inputs": [
        {
          "internalType": "uint256",
          "name": "actualBalance",
          "type": "uint256"
        },
        {
          "internalType": "uint256",
          "name": "requiredBalance",
          "type": "uint256"
        }
      ],
      "name": "MarketInsufficientPtReceived",
      "type": "error"
    },
    {
      "inputs": [
        {
          "internalType": "uint256",
          "name": "actualBalance",
          "type": "uint256"
        },
        {
          "internalType": "uint256",
          "name": "requiredBalance",
          "type": "uint256"
        }
      ],
      "name": "MarketInsufficientSyReceived",
      "type": "error"
    },
    {
      "inputs": [],
      "name": "MarketProportionMustNotEqualOne",
      "type": "error"
    },
    {
      "inputs": [
        {
          "internalType": "int256",
          "name": "proportion",
          "type": "int256"
        },
        {
          "internalType": "int256",
          "name": "maxProportion",
          "type": "int256"
        }
      ],
      "name": "MarketProportionTooHigh",
      "type": "error"
    },
    {
      "inputs": [
        {
          "internalType": "int256",
          "name": "rateScalar",
          "type": "int256"
        }
      ],
      "name": "MarketRateScalarBelowZero",
      "type": "error"
    },
    {
      "inputs": [
        {
          "internalType": "int256",
          "name": "scalarRoot",
          "type": "int256"
        }
      ],
      "name": "MarketScalarRootBelowZero",
      "type": "error"
    },
    {
      "inputs": [],
      "name": "MarketZeroAmountsInput",
      "type": "error"
    },
    {
      "inputs": [],
      "name": "MarketZeroAmountsOutput",
      "type": "error"
    },
    {
      "inputs": [],
      "name": "MarketZeroLnImpliedRate",
      "type": "error"
    },
    {
      "inputs": [
        {
          "internalType": "int256",
          "name": "totalPt",
          "type": "int256"
        },
        {
          "internalType": "int256",
          "name": "totalAsset",
          "type": "int256"
        }
      ],
      "name": "MarketZeroTotalPtOrTotalAsset",
      "type": "error"
    },
    {
      "anonymous": false,
      "inputs": [
        {
          "indexed": true,
          "internalType": "address",
          "name": "owner",
          "type": "address"
        },
        {
          "indexed": true,
          "internalType": "address",
          "name": "spender",
          "type": "address"
        },
        {
          "indexed": false,
          "internalType": "uint256",
          "name": "value",
          "type": "uint256"
        }
      ],
      "name": "Approval",
      "type": "event"
    },
    {
      "anonymous": false,
      "inputs": [
        {
          "indexed": true,
          "internalType": "address",
          "name": "receiverSy",
          "type": "address"
        },
        {
          "indexed": true,
          "internalType": "address",
          "name": "receiverPt",
          "type": "address"
        },
        {
          "indexed": false,
          "internalType": "uint256",
          "name": "netLpBurned",
          "type": "uint256"
        },
        {
          "indexed": false,
          "internalType": "uint256",
          "name": "netSyOut",
          "type": "uint256"
        },
        {
          "indexed": false,
          "internalType": "uint256",
          "name": "netPtOut",
          "type": "uint256"
        }
      ],
      "name": "Burn",
      "type": "event"
    },
    {
      "anonymous": false,
      "inputs": [
        {
          "indexed": false,
          "internalType": "uint16",
          "name": "observationCardinalityNextOld",
          "type": "uint16"
        },
        {
          "indexed": false,
          "internalType": "uint16",
          "name": "observationCardinalityNextNew",
          "type": "uint16"
        }
      ],
      "name": "IncreaseObservationCardinalityNext",
      "type": "event"
    },
    {
      "anonymous": false,
      "inputs": [
        {
          "indexed": true,
          "internalType": "address",
          "name": "receiver",
          "type": "address"
        },
        {
          "indexed": false,
          "internalType": "uint256",
          "name": "netLpMinted",
          "type": "uint256"
        },
        {
          "indexed": false,
          "internalType": "uint256",
          "name": "netSyUsed",
          "type": "uint256"
        },
        {
          "indexed": false,
          "internalType": "uint256",
          "name": "netPtUsed",
          "type": "uint256"
        }
      ],
      "name": "Mint",
      "type": "event"
    },
    {
      "anonymous": false,
      "inputs": [
        {
          "indexed": true,
          "internalType": "address",
          "name": "user",
          "type": "address"
        },
        {
          "indexed": false,
          "internalType": "uint256[]",
          "name": "rewardsOut",
          "type": "uint256[]"
        }
      ],
      "name": "RedeemRewards",
      "type": "event"
    },
    {
      "anonymous": false,
      "inputs": [
        {
          "indexed": true,
          "internalType": "address",
          "name": "caller",
          "type": "address"
        },
        {
          "indexed": true,
          "internalType": "address",
          "name": "receiver",
          "type": "address"
        },
        {
          "indexed": false,
          "internalType": "int256",
          "name": "netPtOut",
          "type": "int256"
        },
        {
          "indexed": false,
          "internalType": "int256",
          "name": "netSyOut",
          "type": "int256"
        },
        {
          "indexed": false,
          "internalType": "uint256",
          "name": "netSyFee",
          "type": "uint256"
        },
        {
          "indexed": false,
          "internalType": "uint256",
          "name": "netSyToReserve",
          "type": "uint256"
        }
      ],
      "name": "Swap",
      "type": "event"
    },
    {
      "anonymous": false,
      "inputs": [
        {
          "indexed": true,
          "internalType": "address",
          "name": "from",
          "type": "address"
        },
        {
          "indexed": true,
          "internalType": "address",
          "name": "to",
          "type": "address"
        },
        {
          "indexed": false,
          "internalType": "uint256",
          "name": "value",
          "type": "uint256"
        }
      ],
      "name": "Transfer",
      "type": "event"
    },
    {
      "anonymous": false,
      "inputs": [
        {
          "indexed": true,
          "internalType": "uint256",
          "name": "timestamp",
          "type": "uint256"
        },
        {
          "indexed": false,
          "internalType": "uint256",
          "name": "lnLastImpliedRate",
          "type": "uint256"
        }
      ],
      "name": "UpdateImpliedRate",
      "type": "event"
    },
    {
      "inputs": [],
      "name": "_storage",
      "outputs": [
        {
          "internalType": "int128",
          "name": "totalPt",
          "type": "int128"
        },
        {
          "internalType": "int128",
          "name": "totalSy",
          "type": "int128"
        },
        {
          "internalType": "uint96",
          "name": "lastLnImpliedRate",
          "type": "uint96"
        },
        {
          "internalType": "uint16",
          "name": "observationIndex",
          "type": "uint16"
        },
        {
          "internalType": "uint16",
          "name": "observationCardinality",
          "type": "uint16"
        },
        {
          "internalType": "uint16",
          "name": "observationCardinalityNext",
          "type": "uint16"
        }
      ],
      "stateMutability": "view",
      "type": "function"
    },
    {
      "inputs": [
        {
          "internalType": "address",
          "name": "",
          "type": "address"
        }
      ],
      "name": "activeBalance",
      "outputs": [
        {
          "internalType": "uint256",
          "name": "",
          "type": "uint256"
        }
      ],
      "stateMutability": "view",
      "type": "function"
    },
    {
      "inputs": [
        {
          "internalType": "address",
          "name": "owner",
          "type": "address"
        },
        {
          "internalType": "address",
          "name": "spender",
          "type": "address"
        }
      ],
      "name": "allowance",
      "outputs": [
        {
          "internalType": "uint256",
          "name": "",
          "type": "uint256"
        }
      ],
      "stateMutability": "view",
      "type": "function"
    },
    {
      "inputs": [
        {
          "internalType": "address",
          "name": "spender",
          "type": "address"
        },
        {
          "internalType": "uint256",
          "name": "amount",
          "type": "uint256"
        }
      ],
      "name": "approve",
      "outputs": [
        {
          "internalType": "bool",
          "name": "",
          "type": "bool"
        }
      ],
      "stateMutability": "nonpayable",
      "type": "function"
    },
    {
      "inputs": [
        {
          "internalType": "address",
          "name": "account",
          "type": "address"
        }
      ],
      "name": "balanceOf",
      "outputs": [
        {
          "internalType": "uint256",
          "name": "",
          "type": "uint256"
        }
      ],
      "stateMutability": "view",
      "type": "function"
    },
    {
      "inputs": [
        {
          "internalType": "address",
          "name": "receiverSy",
          "type": "address"
        },
        {
          "internalType": "address",
          "name": "receiverPt",
          "type": "address"
        },
        {
          "internalType": "uint256",
          "name": "netLpToBurn",
          "type": "uint256"
        }
      ],
      "name": "burn",
      "outputs": [
        {
          "internalType": "uint256",
          "name": "netSyOut",
          "type": "uint256"
        },
        {
          "internalType": "uint256",
          "name": "netPtOut",
          "type": "uint256"
        }
      ],
      "stateMutability": "nonpayable",
      "type": "function"
    },
    {
      "inputs": [],
      "name": "decimals",
      "outputs": [
        {
          "internalType": "uint8",
          "name": "",
          "type": "uint8"
        }
      ],
      "stateMutability": "view",
      "type": "function"
    },
    {
      "inputs": [],
      "name": "expiry",
      "outputs": [
        {
          "internalType": "uint256",
          "name": "",
          "type": "uint256"
        }
      ],
      "stateMutability": "view",
      "type": "function"
    },
    {
      "inputs": [],
      "name": "factory",
      "outputs": [
        {
          "internalType": "address",
          "name": "",
          "type": "address"
        }
      ],
      "stateMutability": "view",
      "type": "function"
    },
    {
      "inputs": [],
      "name": "getRewardTokens",
      "outputs": [
        {
          "internalType": "address[]",
          "name": "",
          "type": "address[]"
        }
      ],
      "stateMutability": "view",
      "type": "function"
    },
    {
      "inputs": [
        {
          "internalType": "uint16",
          "name": "cardinalityNext",
          "type": "uint16"
        }
      ],
      "name": "increaseObservationsCardinalityNext",
      "outputs": [],
      "stateMutability": "nonpayable",
      "type": "function"
    },
    {
      "inputs": [],
      "name": "initialAnchor",
      "outputs": [
        {
          "internalType": "int256",
          "name": "",
          "type": "int256"
        }
      ],
      "stateMutability": "view",
      "type": "function"
    },
    {
      "inputs": [],
      "name": "isExpired",
      "outputs": [
        {
          "internalType": "bool",
          "name": "",
          "type": "bool"
        }
      ],
      "stateMutability": "view",
      "type": "function"
    },
    {
      "inputs": [],
      "name": "lastRewardBlock",
      "outputs": [
        {
          "internalType": "uint256",
          "name": "",
          "type": "uint256"
        }
      ],
      "stateMutability": "view",
      "type": "function"
    },
    {
      "inputs": [
        {
          "internalType": "address",
          "name": "receiver",
          "type": "address"
        },
        {
          "internalType": "uint256",
          "name": "netSyDesired",
          "type": "uint256"
        },
        {
          "internalType": "uint256",
          "name": "netPtDesired",
          "type": "uint256"
        }
      ],
      "name": "mint",
      "outputs": [
        {
          "internalType": "uint256",
          "name": "netLpOut",
          "type": "uint256"
        },
        {
          "internalType": "uint256",
          "name": "netSyUsed",
          "type": "uint256"
        },
        {
          "internalType": "uint256",
          "name": "netPtUsed",
          "type": "uint256"
        }
      ],
      "stateMutability": "nonpayable",
      "type": "function"
    },
    {
      "inputs": [],
      "name": "name",
      "outputs": [
        {
          "internalType": "string",
          "name": "",
          "type": "string"
        }
      ],
      "stateMutability": "view",
      "type": "function"
    },
    {
      "inputs": [
        {
          "internalType": "uint256",
          "name": "",
          "type": "uint256"
        }
      ],
      "name": "observations",
      "outputs": [
        {
          "internalType": "uint32",
          "name": "blockTimestamp",
          "type": "uint32"
        },
        {
          "internalType": "uint216",
          "name": "lnImpliedRateCumulative",
          "type": "uint216"
        },
        {
          "internalType": "bool",
          "name": "initialized",
          "type": "bool"
        }
      ],
      "stateMutability": "view",
      "type": "function"
    },
    {
      "inputs": [
        {
          "internalType": "uint32[]",
          "name": "secondsAgos",
          "type": "uint32[]"
        }
      ],
      "name": "observe",
      "outputs": [
        {
          "internalType": "uint216[]",
          "name": "lnImpliedRateCumulative",
          "type": "uint216[]"
        }
      ],
      "stateMutability": "view",
      "type": "function"
    },
    {
      "inputs": [
        {
          "internalType": "address",
          "name": "router",
          "type": "address"
        }
      ],
      "name": "readState",
      "outputs": [
        {
          "components": [
            {
              "internalType": "int256",
              "name": "totalPt",
              "type": "int256"
            },
            {
              "internalType": "int256",
              "name": "totalSy",
              "type": "int256"
            },
            {
              "internalType": "int256",
              "name": "totalLp",
              "type": "int256"
            },
            {
              "internalType": "address",
              "name": "treasury",
              "type": "address"
            },
            {
              "internalType": "int256",
              "name": "scalarRoot",
              "type": "int256"
            },
            {
              "internalType": "uint256",
              "name": "expiry",
              "type": "uint256"
            },
            {
              "internalType": "uint256",
              "name": "lnFeeRateRoot",
              "type": "uint256"
            },
            {
              "internalType": "uint256",
              "name": "reserveFeePercent",
              "type": "uint256"
            },
            {
              "internalType": "uint256",
              "name": "lastLnImpliedRate",
              "type": "uint256"
            }
          ],
          "internalType": "struct MarketState",
          "name": "market",
          "type": "tuple"
        }
      ],
      "stateMutability": "view",
      "type": "function"
    },
    {
      "inputs": [],
      "name": "readTokens",
      "outputs": [
        {
          "internalType": "contract IStandardizedYield",
          "name": "_SY",
          "type": "address"
        },
        {
          "internalType": "contract IPPrincipalToken",
          "name": "_PT",
          "type": "address"
        },
        {
          "internalType": "contract IPYieldToken",
          "name": "_YT",
          "type": "address"
        }
      ],
      "stateMutability": "view",
      "type": "function"
    },
    {
      "inputs": [
        {
          "internalType": "address",
          "name": "user",
          "type": "address"
        }
      ],
      "name": "redeemRewards",
      "outputs": [
        {
          "internalType": "uint256[]",
          "name": "",
          "type": "uint256[]"
        }
      ],
      "stateMutability": "nonpayable",
      "type": "function"
    },
    {
      "inputs": [
        {
          "internalType": "address",
          "name": "",
          "type": "address"
        }
      ],
      "name": "rewardState",
      "outputs": [
        {
          "internalType": "uint128",
          "name": "index",
          "type": "uint128"
        },
        {
          "internalType": "uint128",
          "name": "lastBalance",
          "type": "uint128"
        }
      ],
      "stateMutability": "view",
      "type": "function"
    },
    {
      "inputs": [],
      "name": "scalarRoot",
      "outputs": [
        {
          "internalType": "int256",
          "name": "",
          "type": "int256"
        }
      ],
      "stateMutability": "view",
      "type": "function"
    },
    {
      "inputs": [],
      "name": "skim",
      "outputs": [],
      "stateMutability": "nonpayable",
      "type": "function"
    },
    {
      "inputs": [
        {
          "internalType": "address",
          "name": "receiver",
          "type": "address"
        },
        {
          "internalType": "uint256",
          "name": "exactPtIn",
          "type": "uint256"
        },
        {
          "internalType": "bytes",
          "name": "data",
          "type": "bytes"
        }
      ],
      "name": "swapExactPtForSy",
      "outputs": [
        {
          "internalType": "uint256",
          "name": "netSyOut",
          "type": "uint256"
        },
        {
          "internalType": "uint256",
          "name": "netSyFee",
          "type": "uint256"
        }
      ],
      "stateMutability": "nonpayable",
      "type": "function"
    },
    {
      "inputs": [
        {
          "internalType": "address",
          "name": "receiver",
          "type": "address"
        },
        {
          "internalType": "uint256",
          "name": "exactPtOut",
          "type": "uint256"
        },
        {
          "internalType": "bytes",
          "name": "data",
          "type": "bytes"
        }
      ],
      "name": "swapSyForExactPt",
      "outputs": [
        {
          "internalType": "uint256",
          "name": "netSyIn",
          "type": "uint256"
        },
        {
          "internalType": "uint256",
          "name": "netSyFee",
          "type": "uint256"
        }
      ],
      "stateMutability": "nonpayable",
      "type": "function"
    },
    {
      "inputs": [],
      "name": "symbol",
      "outputs": [
        {
          "internalType": "string",
          "name": "",
          "type": "string"
        }
      ],
      "stateMutability": "view",
      "type": "function"
    },
    {
      "inputs": [],
      "name": "totalActiveSupply",
      "outputs": [
        {
          "internalType": "uint256",
          "name": "",
          "type": "uint256"
        }
      ],
      "stateMutability": "view",
      "type": "function"
    },
    {
      "inputs": [],
      "name": "totalSupply",
      "outputs": [
        {
          "internalType": "uint256",
          "name": "",
          "type": "uint256"
        }
      ],
      "stateMutability": "view",
      "type": "function"
    },
    {
      "inputs": [
        {
          "internalType": "address",
          "name": "to",
          "type": "address"
        },
        {
          "internalType": "uint256",
          "name": "amount",
          "type": "uint256"
        }
      ],
      "name": "transfer",
      "outputs": [
        {
          "internalType": "bool",
          "name": "",
          "type": "bool"
        }
      ],
      "stateMutability": "nonpayable",
      "type": "function"
    },
    {
      "inputs": [
        {
          "internalType": "address",
          "name": "from",
          "type": "address"
        },
        {
          "internalType": "address",
          "name": "to",
          "type": "address"
        },
        {
          "internalType": "uint256",
          "name": "amount",
          "type": "uint256"
        }
      ],
      "name": "transferFrom",
      "outputs": [
        {
          "internalType": "bool",
          "name": "",
          "type": "bool"
        }
      ],
      "stateMutability": "nonpayable",
      "type": "function"
    },
    {
      "inputs": [
        {
          "internalType": "address",
          "name": "",
          "type": "address"
        },
        {
          "internalType": "address",
          "name": "",
          "type": "address"
        }
      ],
      "name": "userReward",
      "outputs": [
        {
          "internalType": "uint128",
          "name": "index",
          "type": "uint128"
        },
        {
          "internalType": "uint128",
          "name": "accrued",
          "type": "uint128"
        }
      ],
      "stateMutability": "view",
      "type": "function"
    }
  ],
  "bytecode": "0x6101e06040523480156200001257600080fd5b50604051620061b5380380620061b58339810160408190526200003591620003cc565b856001600160a01b031663afd27bf56040518163ffffffff1660e01b8152600401602060405180830381865afa15801562000074573d6000803e3d6000fd5b505050506040513d601f19601f820116820180604052508101906200009a91906200043b565b83836040518060400160405280601081526020016f115d5c1a1c985d195cc813585c9ad95d60821b8152506040518060400160405280600d81526020016c115554121490551154cb531415609a1b81525060128260039081620000fe919062000505565b5060046200010d838262000505565b5060ff166080525050600280546001600160f81b0316600160f81b1790556001600160a01b0392831660a05290821660c052811660e05286166101008190526040805163afd27bf560e01b8152905163afd27bf5916004808201926020929091908290030181865afa15801562000188573d6000803e3d6000fd5b505050506040513d601f19601f82011682018060405250810190620001ae91906200043b565b6001600160a01b0316610120816001600160a01b031681525050610100516001600160a01b031663781c18db6040518163ffffffff1660e01b8152600401602060405180830381865afa1580156200020a573d6000803e3d6000fd5b505050506040513d601f19601f820116820180604052508101906200023091906200043b565b6001600160a01b03166101405260405163329f6acb60e21b8152600c600482015263ffffffff4216602482015273__$048ed23d805a6069d4ffa97e047467fd4a$__9063ca7dab2c906044016040805180830381865af415801562000299573d6000803e3d6000fd5b505050506040513d601f19601f82011682018060405250810190620002bf9190620005e4565b600b805463ffffffff60701b1916600160801b61ffff9384160261ffff60701b191617600160701b9390921692909202179055600085136200031b5760405163483512b160e11b81526004810186905260240160405180910390fd5b846101a08181525050836101c08181525050856001600160a01b031663e184c9be6040518163ffffffff1660e01b8152600401602060405180830381865afa1580156200036c573d6000803e3d6000fd5b505050506040513d601f19601f820116820180604052508101906200039291906200061c565b610180526001600160a01b03166101605250620006369350505050565b80516001600160a01b0381168114620003c757600080fd5b919050565b60008060008060008060c08789031215620003e657600080fd5b620003f187620003af565b955060208701519450604087015193506200040f60608801620003af565b92506200041f60808801620003af565b91506200042f60a08801620003af565b90509295509295509295565b6000602082840312156200044e57600080fd5b6200045982620003af565b9392505050565b634e487b7160e01b600052604160045260246000fd5b600181811c908216806200048b57607f821691505b602082108103620004ac57634e487b7160e01b600052602260045260246000fd5b50919050565b601f8211156200050057600081815260208120601f850160051c81016020861015620004db5750805b601f850160051c820191505b81811015620004fc57828155600101620004e7565b5050505b505050565b81516001600160401b0381111562000521576200052162000460565b620005398162000532845462000476565b84620004b2565b602080601f831160018114620005715760008415620005585750858301515b600019600386901b1c1916600185901b178555620004fc565b600085815260208120601f198616915b82811015620005a25788860151825594840194600190910190840162000581565b5085821015620005c15787850151600019600388901b60f8161c191681555b5050505050600190811b01905550565b805161ffff81168114620003c757600080fd5b60008060408385031215620005f857600080fd5b6200060383620005d1565b91506200061360208401620005d1565b90509250929050565b6000602082840312156200062f57600080fd5b5051919050565b60805160a05160c05160e05161010051610120516101405161016051610180516101a0516101c051615a22620007936000396000818161058c015261099a0152600081816105f701526117290152600081816103c701528181610757015281816108f001528181610ebf0152818161138b015261174f0152600081816106ca01526116950152600081816103960152818161094701528181610f1901526113e5015260008181610349015281816109ef01528181610a1e01528181610c7b01528181610d0401528181610f7301528181610fad015281816114790152818161152d0152818161155c0152611a7a01526000818161036e01528181610a9a01528181610ac901528181610c3701528181610cc40152818161105f0152818161108e0152818161143f0152611abe0152600050506000818161272e01526127610152600081816126a20152614e6d015260006103f30152615a226000f3fe608060405234801561001057600080fd5b50600436106101f05760003560e01c8063720692641161010f578063af247da3116100a2578063dd62ed3e11610071578063dd62ed3e14610719578063e184c9be14610752578063ea64a82014610779578063f6b911bc146107ad57600080fd5b8063af247da3146105f2578063c3fb90d614610619578063c45a0155146106c5578063c4f59f9b1461070457600080fd5b80639262187b116100de5780639262187b146105ae57806395d89b41146105ce578063a9059cbb146105d6578063a9f8d181146105e957600080fd5b806372069264146104d5578063794052f3146104de578063883bdbfd1461056757806391e7c0151461058757600080fd5b806329910b111161018757806337d45e3a1161015657806337d45e3a146104275780635b709f171461043a5780635cbadbe41461044d57806370a08231146104ac57600080fd5b806329910b11146103135780632c8ce6bc1461033b5780632f13b60c146103c5578063313ce567146103ee57600080fd5b806318160ddd116101c357806318160ddd146102925780631dd19cb4146102a357806323b872dd146102ad578063252c09d7146102c057600080fd5b806306fdde03146101f55780630892cd8b14610213578063095ea7b314610241578063156e29f614610264575b600080fd5b6101fd6107c0565b60405161020a9190615038565b60405180910390f35b610233610221366004615080565b60096020526000908152604090205481565b60405190815260200161020a565b61025461024f36600461509d565b610852565b604051901515815260200161020a565b6102776102723660046150c9565b61086c565b6040805193845260208401929092529082015260600161020a565b6002546001600160f81b0316610233565b6102ab610ba3565b005b6102546102bb3660046150fe565b610d45565b6102d36102ce36600461513f565b610df3565b6040805163ffffffff90941684527affffffffffffffffffffffffffffffffffffffffffffffffffffff909216602084015215159082015260600161020a565b610326610321366004615158565b610e42565b6040805192835260208301919091520161020a565b604080516001600160a01b037f0000000000000000000000000000000000000000000000000000000000000000811682527f0000000000000000000000000000000000000000000000000000000000000000811660208301527f0000000000000000000000000000000000000000000000000000000000000000169181019190915260600161020a565b7f0000000000000000000000000000000000000000000000000000000000000000421015610254565b6104157f000000000000000000000000000000000000000000000000000000000000000081565b60405160ff909116815260200161020a565b6102ab6104353660046151f1565b611148565b610326610448366004615158565b61130e565b61048c61045b36600461520e565b60056020908152600092835260408084209091529082529020546001600160801b0380821691600160801b90041682565b604080516001600160801b0393841681529290911660208301520161020a565b6102336104ba366004615080565b6001600160a01b031660009081526020819052604090205490565b61023360085481565b6104f16104ec366004615080565b6115cb565b60405161020a91906000610120820190508251825260208301516020830152604083015160408301526001600160a01b0360608401511660608301526080830151608083015260a083015160a083015260c083015160c083015260e083015160e083015261010080840151818401525092915050565b61057a6105753660046152b2565b61178f565b60405161020a9190615350565b6102337f000000000000000000000000000000000000000000000000000000000000000081565b6105c16105bc366004615080565b611869565b60405161020a91906153b1565b6101fd611904565b6102546105e436600461509d565b611913565b61023360065481565b6102337f000000000000000000000000000000000000000000000000000000000000000081565b600a54600b5461067691600f81810b92600160801b9283900490910b916bffffffffffffffffffffffff82169161ffff6c0100000000000000000000000082048116926e0100000000000000000000000000008304821692041686565b60408051600f97880b81529590960b60208601526bffffffffffffffffffffffff9093169484019490945261ffff908116606084015292831660808301529190911660a082015260c00161020a565b6106ec7f000000000000000000000000000000000000000000000000000000000000000081565b6040516001600160a01b03909116815260200161020a565b61070c6119b5565b60405161020a91906153e9565b61023361072736600461520e565b6001600160a01b03918216600090815260016020908152604080832093909416825291909152205490565b6102337f000000000000000000000000000000000000000000000000000000000000000081565b61048c610787366004615080565b6007602052600090815260409020546001600160801b0380821691600160801b90041682565b6103266107bb3660046150fe565b6119bf565b6060600380546107cf9061542a565b80601f01602080910402602001604051908101604052809291908181526020018280546107fb9061542a565b80156108485780601f1061081d57610100808354040283529160200191610848565b820191906000526020600020905b81548152906001019060200180831161082b57829003601f168201915b5050505050905090565b600033610860818585611b5f565b60019150505b92915050565b60025460009081908190600119600160f81b90910460ff16016108d65760405162461bcd60e51b815260206004820152601f60248201527f5265656e7472616e637947756172643a207265656e7472616e742063616c6c0060448201526064015b60405180910390fd5b600280546001600160f81b0316600160f91b1790556109157f000000000000000000000000000000000000000000000000000000000000000042101590565b156109335760405163b2094b5960e01b815260040160405180910390fd5b600061093e336115cb565b905060006109747f00000000000000000000000000000000000000000000000000000000000000006001600160a01b0316611cb7565b9050600061098483898942611d1d565b91985096509450905080156109ca576109bf83837f000000000000000000000000000000000000000000000000000000000000000042611d88565b6109ca600182611e0c565b6109d48987611e0c565b6109dd83611f40565b6109ea836020015161215e565b610a137f0000000000000000000000000000000000000000000000000000000000000000612171565b1015610a8a57610a427f0000000000000000000000000000000000000000000000000000000000000000612171565b610a4f846020015161215e565b6040517ff62951c7000000000000000000000000000000000000000000000000000000008152600481019290925260248201526044016108cd565b8251610a959061215e565b610abe7f0000000000000000000000000000000000000000000000000000000000000000612171565b1015610b3357610aed7f0000000000000000000000000000000000000000000000000000000000000000612171565b8351610af89061215e565b6040517f2c49ea0f000000000000000000000000000000000000000000000000000000008152600481019290925260248201526044016108cd565b60408051878152602081018790529081018590526001600160a01b038a16907fb4c03061fb5b7fed76389d5af8f2e0ddb09f8c70d1333abbb62582835e10accb9060600160405180910390a25050600280546001600160f81b0316600160f81b1790555091959094509092509050565b600254600119600160f81b90910460ff1601610c015760405162461bcd60e51b815260206004820152601f60248201527f5265656e7472616e637947756172643a207265656e7472616e742063616c6c0060448201526064016108cd565b600280546001600160f81b0316600160f91b1790556000610c21336115cb565b90506000610c32826000015161215e565b610c5b7f0000000000000000000000000000000000000000000000000000000000000000612171565b610c659190615474565b90506000610c76836020015161215e565b610c9f7f0000000000000000000000000000000000000000000000000000000000000000612171565b610ca99190615474565b90508115610ceb576060830151610ceb906001600160a01b037f00000000000000000000000000000000000000000000000000000000000000001690846121d1565b8015610d2b576060830151610d2b906001600160a01b037f00000000000000000000000000000000000000000000000000000000000000001690836121d1565b5050600280546001600160f81b0316600160f81b17905550565b600254600090600119600160f81b90910460ff1601610da65760405162461bcd60e51b815260206004820152601f60248201527f5265656e7472616e637947756172643a207265656e7472616e742063616c6c0060448201526064016108cd565b600280546001600160f81b0316600160f91b17905533610dc7858285612256565b610dd28585856122e8565b6001915050600280546001600160f81b0316600160f81b1790559392505050565b600c8161ffff8110610e0457600080fd5b015463ffffffff8116915064010000000081047affffffffffffffffffffffffffffffffffffffffffffffffffffff1690600160f81b900460ff1683565b6002546000908190600119600160f81b90910460ff1601610ea55760405162461bcd60e51b815260206004820152601f60248201527f5265656e7472616e637947756172643a207265656e7472616e742063616c6c0060448201526064016108cd565b600280546001600160f81b0316600160f91b179055610ee47f000000000000000000000000000000000000000000000000000000000000000042101590565b15610f025760405163b2094b5960e01b815260040160405180910390fd5b6000610f0d336115cb565b90506000610f4f610f467f00000000000000000000000000000000000000000000000000000000000000006001600160a01b0316611cb7565b83908942612571565b919550935090506001600160a01b0388163014610f9a57610f9a6001600160a01b037f00000000000000000000000000000000000000000000000000000000000000001689866121d1565b6060820151610fd4906001600160a01b037f00000000000000000000000000000000000000000000000000000000000000001690836121d1565b610fdd82611f40565b841561104f573363fa483e72610ff2896125c2565b610ffb876125d9565b89896040518563ffffffff1660e01b815260040161101c9493929190615487565b600060405180830381600087803b15801561103657600080fd5b505af115801561104a573d6000803e3d6000fd5b505050505b815161105a9061215e565b6110837f0000000000000000000000000000000000000000000000000000000000000000612171565b10156110bd576110b27f0000000000000000000000000000000000000000000000000000000000000000612171565b8251610af89061215e565b6001600160a01b038816337f829000a5bc6a12d46e30cdcecd7c56b1efd88f6d7d059da6734a04f3764557c46110f28a6125c2565b6110fb886125d9565b60408051928352602083019190915281018790526060810185905260800160405180910390a35050600280546001600160f81b0316600160f81b179055909590945092505050565b905090565b600254600119600160f81b90910460ff16016111a65760405162461bcd60e51b815260206004820152601f60248201527f5265656e7472616e637947756172643a207265656e7472616e742063616c6c0060448201526064016108cd565b600280546001600160f81b0316600160f91b179055600b546040517f587cdc06000000000000000000000000000000000000000000000000000000008152600c6004820152600160801b90910461ffff9081166024830181905290831660448301529060009073__$048ed23d805a6069d4ffa97e047467fd4a$__9063587cdc0690606401602060405180830381865af4158015611248573d6000803e3d6000fd5b505050506040513d601f19601f8201168201806040525081019061126c91906154c4565b90508061ffff168261ffff1614610d2b57600b80547fffffffffffffffffffffffffffff0000ffffffffffffffffffffffffffffffff16600160801b61ffff8481169182029290921790925560408051918516825260208201929092527fac49e518f90a358f652e4400164f05a5d8f7e35e7747279bc3a93dbf584e125a910160405180910390a15050600280546001600160f81b0316600160f81b17905550565b6002546000908190600119600160f81b90910460ff16016113715760405162461bcd60e51b815260206004820152601f60248201527f5265656e7472616e637947756172643a207265656e7472616e742063616c6c0060448201526064016108cd565b600280546001600160f81b0316600160f91b1790556113b07f000000000000000000000000000000000000000000000000000000000000000042101590565b156113ce5760405163b2094b5960e01b815260040160405180910390fd5b60006113d9336115cb565b9050600061141b6114127f00000000000000000000000000000000000000000000000000000000000000006001600160a01b0316611cb7565b83908942612608565b919550935090506001600160a01b0388163014611466576114666001600160a01b037f00000000000000000000000000000000000000000000000000000000000000001689896121d1565b60608201516114a0906001600160a01b037f00000000000000000000000000000000000000000000000000000000000000001690836121d1565b6114a982611f40565b841561151b573363fa483e726114be896125d9565b6114c7876125c2565b89896040518563ffffffff1660e01b81526004016114e89493929190615487565b600060405180830381600087803b15801561150257600080fd5b505af1158015611516573d6000803e3d6000fd5b505050505b611528826020015161215e565b6115517f0000000000000000000000000000000000000000000000000000000000000000612171565b101561158d576115807f0000000000000000000000000000000000000000000000000000000000000000612171565b610a4f836020015161215e565b6001600160a01b038816337f829000a5bc6a12d46e30cdcecd7c56b1efd88f6d7d059da6734a04f3764557c46115c28a6125d9565b6110fb886125c2565b61162360405180610120016040528060008152602001600081526020016000815260200160006001600160a01b0316815260200160008152602001600081526020016000815260200160008152602001600081525090565b600a54600f81810b8352600160801b909104900b60208201526116566116516002546001600160f81b031690565b6125d9565b604082810191909152517fc7bfd2fd0000000000000000000000000000000000000000000000000000000081526001600160a01b0383811660048301527f0000000000000000000000000000000000000000000000000000000000000000169063c7bfd2fd90602401606060405180830381865afa1580156116dc573d6000803e3d6000fd5b505050506040513d601f19601f8201168201806040525081019061170091906154e1565b60ff1660e084015269ffffffffffffffffffff1660c08301526001600160a01b031660608201527f000000000000000000000000000000000000000000000000000000000000000060808201527f000000000000000000000000000000000000000000000000000000000000000060a0820152600b546bffffffffffffffffffffffff16610100820152919050565b600b546040517f1dd421ce00000000000000000000000000000000000000000000000000000000815260609173__$048ed23d805a6069d4ffa97e047467fd4a$__91631dd421ce9161182491600c91429188916bffffffffffffffffffffffff81169161ffff6c0100000000000000000000000083048116926e01000000000000000000000000000090041690600401615543565b600060405180830381865af4158015611841573d6000803e3d6000fd5b505050506040513d6000823e601f3d908101601f1916820160405261086691908101906155c6565b600254606090600119600160f81b90910460ff16016118ca5760405162461bcd60e51b815260206004820152601f60248201527f5265656e7472616e637947756172643a207265656e7472616e742063616c6c0060448201526064016108cd565b600280546001600160f81b0316600160f91b1790556118e882612636565b9050600280546001600160f81b0316600160f81b179055919050565b6060600480546107cf9061542a565b600254600090600119600160f81b90910460ff16016119745760405162461bcd60e51b815260206004820152601f60248201527f5265656e7472616e637947756172643a207265656e7472616e742063616c6c0060448201526064016108cd565b600280546001600160f81b0316600160f91b179055336119958185856122e8565b6001915050600280546001600160f81b0316600160f81b17905592915050565b606061114361269c565b6002546000908190600119600160f81b90910460ff1601611a225760405162461bcd60e51b815260206004820152601f60248201527f5265656e7472616e637947756172643a207265656e7472616e742063616c6c0060448201526064016108cd565b600280546001600160f81b0316600160f91b1790556000611a42336115cb565b9050611a4e308561278b565b611a588185612961565b90935091506001600160a01b0386163014611aa157611aa16001600160a01b037f00000000000000000000000000000000000000000000000000000000000000001687856121d1565b6001600160a01b0385163014611ae557611ae56001600160a01b037f00000000000000000000000000000000000000000000000000000000000000001686846121d1565b611aee81611f40565b60408051858152602081018590529081018390526001600160a01b0380871691908816907f4cf25bc1d991c17529c25213d3cc0cda295eeaad5f13f361969b12ea48015f909060600160405180910390a350600280546001600160f81b0316600160f81b1790559094909350915050565b6001600160a01b038316611bda5760405162461bcd60e51b8152602060048201526024808201527f45524332303a20617070726f76652066726f6d20746865207a65726f2061646460448201527f726573730000000000000000000000000000000000000000000000000000000060648201526084016108cd565b6001600160a01b038216611c565760405162461bcd60e51b815260206004820152602260248201527f45524332303a20617070726f766520746f20746865207a65726f20616464726560448201527f737300000000000000000000000000000000000000000000000000000000000060648201526084016108cd565b6001600160a01b0383811660008181526001602090815260408083209487168084529482529182902085905590518481527f8c5be1e5ebec7d5bd14f71427d1e84f3dd0314c0f7b2291e5b200ac8c7c3b925910160405180910390a3505050565b6000816001600160a01b0316631d52edc46040518163ffffffff1660e01b81526004016020604051808303816000875af1158015611cf9573d6000803e3d6000fd5b505050506040513d601f19601f820116820180604052508101906108669190615676565b600080600080600080600080611d458c611d368d6125d9565b611d3f8d6125d9565b8c61299c565b9350935093509350611d568461215e565b9750611d618361215e565b9650611d6c8261215e565b9550611d778161215e565b945050505050945094509450949050565b60a08401518110611dac5760405163b2094b5960e01b815260040160405180910390fd5b6000611dc5856020015185612b7c90919063ffffffff16565b90506000828660a00151611dd99190615474565b90506000611de78783612bbb565b9050611dfa876000015184838886612c30565b61010090970196909652505050505050565b6001600160a01b038216611e625760405162461bcd60e51b815260206004820152601f60248201527f45524332303a206d696e7420746f20746865207a65726f20616464726573730060448201526064016108cd565b611e6e60008383612c83565b611e7781612c8e565b60028054600090611e929084906001600160f81b031661568f565b92506101000a8154816001600160f81b0302191690836001600160f81b0316021790555080600080846001600160a01b03166001600160a01b031681526020019081526020016000206000828254611eea91906156b6565b90915550506040518181526001600160a01b038316906000907fddf252ad1be2c89b69c2b068fc378daa952ba7f163c4a11628f55a4df523b3ef9060200160405180910390a3611f3c60008383612ca4565b5050565b6000611f50826101000151612caf565b90506000611f618360000151612cca565b90506000611f728460200151612cca565b600b546040517f4af74b68000000000000000000000000000000000000000000000000000000008152600c600482015261ffff6c010000000000000000000000008304811660248301524263ffffffff1660448301526bffffffffffffffffffffffff831660648301526e010000000000000000000000000000830481166084830152600160801b90920490911660a4820152909150600090819073__$048ed23d805a6069d4ffa97e047467fd4a$__90634af74b689060c4016040805180830381865af4158015612048573d6000803e3d6000fd5b505050506040513d601f19601f8201168201806040525081019061206c91906156c9565b6001600160801b03858116600160801b0290871617600a55600b805461ffff8084166e010000000000000000000000000000027fffffffffffffffffffffffffffffffff0000ffffffffffffffffffffffffffff9186166c01000000000000000000000000027fffffffffffffffffffffffffffffffffffff00000000000000000000000000009093166bffffffffffffffffffffffff8c1617929092171617905561010088015160405192945090925042917f5c0e21d57bb4cf91d8fe238d6f92e2685a695371b19209afcce6217b478f83e19161214e9190815260200190565b60405180910390a2505050505050565b60008082121561216d57600080fd5b5090565b6040517f70a082310000000000000000000000000000000000000000000000000000000081523060048201526000906001600160a01b038316906370a0823190602401602060405180830381865afa158015611cf9573d6000803e3d6000fd5b604080516001600160a01b038416602482015260448082018490528251808303909101815260649091019091526020810180517bffffffffffffffffffffffffffffffffffffffffffffffffffffffff167fa9059cbb00000000000000000000000000000000000000000000000000000000179052612251908490612d15565b505050565b6001600160a01b0383811660009081526001602090815260408083209386168352929052205460001981146122e257818110156122d55760405162461bcd60e51b815260206004820152601d60248201527f45524332303a20696e73756666696369656e7420616c6c6f77616e636500000060448201526064016108cd565b6122e28484848403611b5f565b50505050565b6001600160a01b0383166123645760405162461bcd60e51b815260206004820152602560248201527f45524332303a207472616e736665722066726f6d20746865207a65726f20616460448201527f647265737300000000000000000000000000000000000000000000000000000060648201526084016108cd565b6001600160a01b0382166123e05760405162461bcd60e51b815260206004820152602360248201527f45524332303a207472616e7366657220746f20746865207a65726f206164647260448201527f657373000000000000000000000000000000000000000000000000000000000060648201526084016108cd565b816001600160a01b0316836001600160a01b0316036124415760405162461bcd60e51b815260206004820152601760248201527f45524332303a207472616e7366657220746f2073656c6600000000000000000060448201526064016108cd565b61244c838383612c83565b6001600160a01b038316600090815260208190526040902054818110156124db5760405162461bcd60e51b815260206004820152602660248201527f45524332303a207472616e7366657220616d6f756e742065786365656473206260448201527f616c616e6365000000000000000000000000000000000000000000000000000060648201526084016108cd565b6001600160a01b038085166000908152602081905260408082208585039055918516815290812080548492906125129084906156b6565b92505081905550826001600160a01b0316846001600160a01b03167fddf252ad1be2c89b69c2b068fc378daa952ba7f163c4a11628f55a4df523b3ef8460405161255e91815260200190565b60405180910390a36122e2848484612ca4565b60008060008060008061258e8a8a6125888b6125c2565b8a612dfd565b92509250925061259d8361215e565b95506125a88261215e565b94506125b38161215e565b93505050509450945094915050565b60006125cd826125d9565b610866906000196156f8565b60007f7fffffffffffffffffffffffffffffffffffffffffffffffffffffffffffffff82111561216d57600080fd5b60008060008060008061261f8a8a6125888b6125d9565b92509250925061259d61263184612eb1565b61215e565b606061264182612ebf565b61264a82612ecd565b6126548283612ed8565b9050816001600160a01b03167f78d61a0c27b13f43911095f9f356f14daa3cd8b125eea1aa22421245e90e813d8260405161268f91906153b1565b60405180910390a2919050565b606060007f00000000000000000000000000000000000000000000000000000000000000006001600160a01b031663c4f59f9b6040518163ffffffff1660e01b8152600401600060405180830381865afa1580156126fe573d6000803e3d6000fd5b505050506040513d6000823e601f3d908101601f191682016040526127269190810190615728565b9050612752827f0000000000000000000000000000000000000000000000000000000000000000613181565b1561275b575090565b612785827f00000000000000000000000000000000000000000000000000000000000000006131e0565b91505090565b6001600160a01b0382166128075760405162461bcd60e51b815260206004820152602160248201527f45524332303a206275726e2066726f6d20746865207a65726f2061646472657360448201527f730000000000000000000000000000000000000000000000000000000000000060648201526084016108cd565b61281382600083612c83565b6001600160a01b038216600090815260208190526040902054818110156128a25760405162461bcd60e51b815260206004820152602260248201527f45524332303a206275726e20616d6f756e7420657863656564732062616c616e60448201527f636500000000000000000000000000000000000000000000000000000000000060648201526084016108cd565b6001600160a01b038316600090815260208190526040902082820390556128c882612c8e565b600280546000906128e39084906001600160f81b03166157b7565b92506101000a8154816001600160f81b0302191690836001600160f81b0316021790555060006001600160a01b0316836001600160a01b03167fddf252ad1be2c89b69c2b068fc378daa952ba7f163c4a11628f55a4df523b3ef8460405161294d91815260200190565b60405180910390a361225183600084612ca4565b60008060008061297986612974876125d9565b6132c6565b915091506129868261215e565b93506129918161215e565b925050509250929050565b60008080808615806129ac575085155b156129e3576040517f25daaec300000000000000000000000000000000000000000000000000000000815260040160405180910390fd5b60a08801518510612a075760405163b2094b5960e01b815260040160405180910390fd5b8760400151600003612a4a576103e8612a2e611651612a296126318a8c6156f8565b6133c4565b612a3891906157d7565b92506103e89350869150859050612aed565b8751604089015160009190612a5f90896156f8565b612a69919061580d565b9050600089602001518a604001518a612a8291906156f8565b612a8c919061580d565b905080821215612ac2578194508792508960400151858b60200151612ab191906156f8565b612abb919061580d565b9350612aea565b8094508893508960400151858b60000151612add91906156f8565b612ae7919061580d565b92505b50505b60008313612b27576040517fccbf546800000000000000000000000000000000000000000000000000000000815260040160405180910390fd5b8188602001818151612b39919061583b565b905250875181908990612b4d90839061583b565b905250612b5a848461583b565b88604001818151612b6b919061583b565b905250929791965094509092509050565b60008060008312612b8e576001612b92565b6000195b9050612ba961165185612ba486613434565b61344b565b612bb390826156f8565b949350505050565b6000612bc6826125d9565b612bd86116516201518061016d61585b565b8460800151612be791906156f8565b612bf1919061580d565b905060008113610866576040517f1ca41876000000000000000000000000000000000000000000000000000000008152600481018290526024016108cd565b600080612c41878787876000613471565b90506000612c5161263183613547565b905083612c636201518061016d61585b565b612c6d908361585b565b612c779190615872565b98975050505050505050565b6122518383836135ea565b60006001600160f81b0382111561216d57600080fd5b6122518383836135f4565b60006bffffffffffffffffffffffff82111561216d57600080fd5b60007fffffffffffffffffffffffffffffffff800000000000000000000000000000008212801590612d0c57506f7fffffffffffffffffffffffffffffff8213155b61216d57600080fd5b6000612d6a826040518060400160405280602081526020017f5361666545524332303a206c6f772d6c6576656c2063616c6c206661696c6564815250856001600160a01b03166135fe9092919063ffffffff16565b9050805160001480612d8b575080806020019051810190612d8b9190615886565b6122515760405162461bcd60e51b815260206004820152602a60248201527f5361666545524332303a204552433230206f7065726174696f6e20646964206e60448201527f6f7420737563636565640000000000000000000000000000000000000000000060648201526084016108cd565b6000806000612e108760a0015185101590565b15612e2e5760405163b2094b5960e01b815260040160405180910390fd5b86518512612e755786516040517f8615426c0000000000000000000000000000000000000000000000000000000081526004810191909152602481018690526044016108cd565b6000612e8288888761360d565b9050612e9088828989613727565b91955093509150612ea68882898988878b61387b565b509450945094915050565b6000610866826000196156f8565b612eca816000613926565b50565b612eca8160006139a6565b60606000612ee461269c565b9050805167ffffffffffffffff811115612f0057612f00615247565b604051908082528060200260200182016040528015612f29578160200160208202803683370190505b50915060005b81518110156131795760056000838381518110612f4e57612f4e6158a8565b60200260200101516001600160a01b03166001600160a01b031681526020019081526020016000206000866001600160a01b03166001600160a01b0316815260200190815260200160002060000160109054906101000a90046001600160801b03166001600160801b0316838281518110612fcb57612fcb6158a8565b602002602001018181525050828181518110612fe957612fe96158a8565b602002602001015160001461316757600060056000848481518110613010576130106158a8565b60200260200101516001600160a01b03166001600160a01b031681526020019081526020016000206000876001600160a01b03166001600160a01b0316815260200190815260200160002060000160106101000a8154816001600160801b0302191690836001600160801b031602179055506130a4838281518110613097576130976158a8565b6020026020010151613a04565b600760008484815181106130ba576130ba6158a8565b60200260200101516001600160a01b03166001600160a01b0316815260200190815260200160002060000160108282829054906101000a90046001600160801b031661310691906158be565b92506101000a8154816001600160801b0302191690836001600160801b0316021790555061316782828151811061313f5761313f6158a8565b60200260200101518585848151811061315a5761315a6158a8565b6020026020010151613a1a565b80613171816158de565b915050612f2f565b505092915050565b8151600090815b818110156131d557836001600160a01b03168582815181106131ac576131ac6158a8565b60200260200101516001600160a01b0316036131cd57600192505050610866565b600101613188565b506000949350505050565b81516060906131f08160016156b6565b67ffffffffffffffff81111561320857613208615247565b604051908082528060200260200182016040528015613231578160200160208202803683370190505b50915060005b8181101561328b57848181518110613251576132516158a8565b602002602001015183828151811061326b5761326b6158a8565b6001600160a01b0390921660209283029190910190910152600101613237565b508282828151811061329f5761329f6158a8565b60200260200101906001600160a01b031690816001600160a01b0316815250505092915050565b60008082600003613303576040517f25daaec300000000000000000000000000000000000000000000000000000000815260040160405180910390fd5b6040840151602085015161331790856156f8565b613321919061580d565b604085015185519193509061333690856156f8565b613340919061580d565b90508115801561334e575080155b15613385576040517fccbf546800000000000000000000000000000000000000000000000000000000815260040160405180910390fd5b60408401516133949084613aec565b604085015283516133a59082613aec565b845260208401516133b69083613aec565b602090940193909352929050565b6000600382111561342557508060006133de600283615872565b6133e99060016156b6565b90505b8181101561341f579050806002816134048186615872565b61340e91906156b6565b6134189190615872565b90506133ec565b50919050565b811561342f575060015b919050565b600080821361216d57613446826158f8565b610866565b6000670de0b6b3a7640000613460848461585b565b61346a9190615872565b9392505050565b60008061347e8784613aec565b9050600061349661348f888a61583b565b8390613b48565b9050670d529ae9e86000008113156134eb576040517ffc68d09e00000000000000000000000000000000000000000000000000000000815260048101829052670d529ae9e860000060248201526044016108cd565b60006134f682613b77565b9050856135038289613b48565b61350d919061583b565b9350670de0b6b3a764000084121561353b5760405163329e322960e21b8152600481018590526024016108cd565b50505095945050505050565b60008082136135985760405162461bcd60e51b815260206004820152600d60248201527f6f7574206f6620626f756e64730000000000000000000000000000000000000060448201526064016108cd565b670c7d713b49da0000821380156135b65750670f43fc2c04ee000082125b156135e157670de0b6b3a76400006135cd83613be3565b816135da576135da6157f7565b0592915050565b61086682613d1b565b6122518383613926565b61225183836139a6565b6060612bb384846000856140c6565b6136386040518060800160405280600081526020016000815260200160008152602001600081525090565b60a0840151821061365c5760405163b2094b5960e01b815260040160405180910390fd5b6000828560a0015161366e9190615474565b905061367a8582612bbb565b8252602085015161368c908590612b7c565b6020830152845115806136a157506020820151155b156136e857845160208301516040517fb1c4aefb000000000000000000000000000000000000000000000000000000008152600481019290925260248201526044016108cd565b613706856000015186610100015184602001518560000151856141b8565b604083015260c085015161371a9082614239565b6060830152509392505050565b60008060008061374a8860000151886020015189600001518a6040015189613471565b9050600061376061375b8784613b48565b612eb1565b606089015190915060008713156137cf57600061377d8483613b48565b9050670de0b6b3a76400008112156137ab5760405163329e322960e21b8152600481018290526024016108cd565b6137c76137c083670de0b6b3a76400006157d7565b8490614272565b9150506137fc565b6137f9816137e581670de0b6b3a76400006157d7565b6137ef90856156f8565b61375b919061580d565b90505b6000606461380d8c60e001516125d9565b61381790846156f8565b613821919061580d565b9050600061382f83856157d7565b905060008112613848576138438a82614290565b613852565b6138528a826142bd565b975061385e8a84614290565b965061386a8a83614290565b955050505050509450945094915050565b6000818860a0015161388d9190615474565b885190915061389c9086613aec565b88526138b66138ab848661583b565b60208a015190613aec565b6020890181905288516138db916138ce908990612b7c565b895160408b015185612c30565b610100890181905260000361391c576040517faa69ae1e00000000000000000000000000000000000000000000000000000000815260040160405180910390fd5b5050505050505050565b6000806139316142ea565b9150915081516000036139445750505050565b6001600160a01b0384161580159061396557506001600160a01b0384163014155b156139755761397584838361459f565b6001600160a01b0383161580159061399657506001600160a01b0383163014155b156122e2576122e283838361459f565b6001600160a01b038216158015906139c757506001600160a01b0382163014155b156139d5576139d5826147e9565b6001600160a01b038116158015906139f657506001600160a01b0381163014155b15611f3c57611f3c816147e9565b60006001600160801b0382111561216d57600080fd5b80600003613a2757505050565b6001600160a01b038316613ad8576000826001600160a01b03168260405160006040518083038185875af1925050503d8060008114613a82576040519150601f19603f3d011682016040523d82523d6000602084013e613a87565b606091505b50509050806122e25760405162461bcd60e51b815260206004820152600f60248201527f6574682073656e64206661696c6564000000000000000000000000000000000060448201526064016108cd565b6122516001600160a01b03841683836121d1565b600081831215613b3e5760405162461bcd60e51b815260206004820152600860248201527f6e6567617469766500000000000000000000000000000000000000000000000060448201526064016108cd565b61346a82846157d7565b600080613b5d670de0b6b3a7640000856156f8565b9050828181613b6e57613b6e6157f7565b05949350505050565b6000670de0b6b3a76400008203613bba576040517fa9c8b14d00000000000000000000000000000000000000000000000000000000815260040160405180910390fd5b6000613bd8613bd184670de0b6b3a76400006157d7565b8490613b48565b905061346a81613547565b670de0b6b3a7640000026000806ec097ce7bc90715b34b9f1000000000808401907fffffffffffffffffffffffffffffffffff3f68318436f8ea4cb460f00000000085010281613c3557613c356157f7565b05905060006ec097ce7bc90715b34b9f100000000082800205905081806ec097ce7bc90715b34b9f100000000081840205915060038205016ec097ce7bc90715b34b9f100000000082840205915060058205016ec097ce7bc90715b34b9f100000000082840205915060078205016ec097ce7bc90715b34b9f100000000082840205915060098205016ec097ce7bc90715b34b9f1000000000828402059150600b8205016ec097ce7bc90715b34b9f1000000000828402059150600d8205016ec097ce7bc90715b34b9f1000000000828402059150600f82050160020295945050505050565b6000670de0b6b3a7640000821215613d5d57613d54826ec097ce7bc90715b34b9f100000000081613d4e57613d4e6157f7565b05613d1b565b60000392915050565b60007e1600ef3172e58d2e933ec884fde10064c63b5372d805e203c00000000000008312613dae57770195e54c5dd42177f53a27172fa9ec630262827000000000830592506806f05b59d3b2000000015b73011798004d755d3c8bc8e03204cf44619e0000008312613de6576b1425982cf597cd205cef7380830592506803782dace9d9000000015b606492830292026e01855144814a7ff805980ff00840008312613e2e576e01855144814a7ff805980ff008400068056bc75e2d63100000840205925068ad78ebc5ac62000000015b6b02df0ab5a80a22c61ab5a7008312613e69576b02df0ab5a80a22c61ab5a70068056bc75e2d6310000084020592506856bc75e2d631000000015b693f1fce3da636ea5cf8508312613ea057693f1fce3da636ea5cf85068056bc75e2d631000008402059250682b5e3af16b18800000015b690127fa27722cc06cc5e28312613ed757690127fa27722cc06cc5e268056bc75e2d6310000084020592506815af1d78b58c400000015b68280e60114edb805d038312613f0c5768280e60114edb805d0368056bc75e2d631000008402059250680ad78ebc5ac6200000015b680ebc5fb417461211108312613f3757680ebc5fb4174612111068056bc75e2d631000009384020592015b6808f00f760a4b2db55d8312613f6c576808f00f760a4b2db55d68056bc75e2d6310000084020592506802b5e3af16b1880000015b6806f5f17757889379378312613fa1576806f5f177578893793768056bc75e2d63100000840205925068015af1d78b58c40000015b6806248f33704b2866038312613fd5576806248f33704b28660368056bc75e2d63100000840205925067ad78ebc5ac620000015b6805c548670b9510e7ac8312614009576805c548670b9510e7ac68056bc75e2d6310000084020592506756bc75e2d6310000015b600068056bc75e2d63100000840168056bc75e2d631000008086030281614032576140326157f7565b059050600068056bc75e2d63100000828002059050818068056bc75e2d63100000818402059150600382050168056bc75e2d63100000828402059150600582050168056bc75e2d63100000828402059150600782050168056bc75e2d63100000828402059150600982050168056bc75e2d63100000828402059150600b820501600202606485820105979650505050505050565b60608247101561413e5760405162461bcd60e51b815260206004820152602660248201527f416464726573733a20696e73756666696369656e742062616c616e636520666f60448201527f722063616c6c000000000000000000000000000000000000000000000000000060648201526084016108cd565b600080866001600160a01b0316858760405161415a9190615914565b60006040518083038185875af1925050503d8060008114614197576040519150601f19603f3d011682016040523d82523d6000602084013e61419c565b606091505b50915091506141ad87838387614875565b979650505050505050565b6000806141c58684614239565b9050670de0b6b3a76400008112156141f35760405163329e322960e21b8152600481018290526024016108cd565b6000614209614202878a61583b565b8990613b48565b9050600061421682613b77565b90506142228187613b48565b61422c90846157d7565b9998505050505050505050565b60008061424b6201518061016d61585b565b614255848661585b565b61425f9190615872565b9050612bb361426d826125d9565b6148ee565b60008061427f83856156f8565b9050670de0b6b3a764000081613b6e565b600080600083126142a25760016142a6565b6000195b9050612ba9611651856142b886613434565b614dfe565b600080600083126142cf5760016142d3565b6000195b9050612ba9611651856142e586613434565b614e13565b6060806142f561269c565b9150815167ffffffffffffffff81111561431157614311615247565b60405190808252806020026020018201604052801561433a578160200160208202803683370190505b509050815160000361434a579091565b43600654146145175743600655600061436260085490565b905061436c614e3f565b60005b835181101561451457600084828151811061438c5761438c6158a8565b6020908102919091018101516001600160a01b0381166000908152600790925260408220548751919350600160801b90046001600160801b0316906143ea908890869081106143dd576143dd6158a8565b6020026020010151614ee6565b6143f49190615474565b6001600160a01b0383166000908152600760205260408120549192506001600160801b0390911690819003614427575060015b8415614444576144378286614f7f565b61444190826156b6565b90505b61444d81613a04565b6001600160a01b038416600090815260076020526040902080547fffffffffffffffffffffffffffffffff00000000000000000000000000000000166001600160801b03929092169190911790556144a482613a04565b6001600160a01b038416600090815260076020526040902080546010906144dc908490600160801b90046001600160801b0316615930565b92506101000a8154816001600160801b0302191690836001600160801b031602179055505050508061450d906158de565b905061436f565b50505b60005b825181101561459a5760076000848381518110614539576145396158a8565b6020908102919091018101516001600160a01b031682528101919091526040016000205482516001600160801b039091169083908390811061457d5761457d6158a8565b602090810291909101015280614592816158de565b91505061451a565b509091565b6001600160a01b038316158015906145c057506001600160a01b0383163014155b6145cc576145cc615950565b6001600160a01b038316600090815260096020526040812054905b83518110156147e2576000848281518110614604576146046158a8565b602002602001015190506000848381518110614622576146226158a8565b6020908102919091018101516001600160a01b038085166000908152600584526040808220928c168252919093528220549092506001600160801b03169081900361467d576146716001613a04565b6001600160801b031690505b81810361468c575050506147d2565b60006146988284615474565b905060006146a68783614fae565b6001600160a01b038681166000908152600560209081526040808320938f16835292905290812054919250906146ed908390600160801b90046001600160801b03166156b6565b9050604051806040016040528061470387613a04565b6001600160801b0316815260200161471a83613a04565b6001600160801b031681525060056000886001600160a01b03166001600160a01b0316815260200190815260200160002060008d6001600160a01b03166001600160a01b0316815260200190815260200160002060008201518160000160006101000a8154816001600160801b0302191690836001600160801b0316021790555060208201518160000160106101000a8154816001600160801b0302191690836001600160801b031602179055509050505050505050505b6147db816158de565b90506145e7565b5050505050565b6001600160a01b0381161580159061480a57506001600160a01b0381163014155b61481657614816615950565b600061482182614fcc565b6001600160a01b038316600090815260096020526040902054600854919250829161484c9190615474565b61485691906156b6565b6008556001600160a01b03909116600090815260096020526040902055565b606083156148e45782516000036148dd576001600160a01b0385163b6148dd5760405162461bcd60e51b815260206004820152601d60248201527f416464726573733a2063616c6c20746f206e6f6e2d636f6e747261637400000060448201526064016108cd565b5081612bb3565b612bb38383614fea565b60007ffffffffffffffffffffffffffffffffffffffffffffffffdc702bd3a30fc00008212158015614929575068070c1cc73b00c800008213155b6149755760405162461bcd60e51b815260206004820152601060248201527f496e76616c6964206578706f6e656e740000000000000000000000000000000060448201526064016108cd565b60008212156149a75761498a826000036148ee565b6ec097ce7bc90715b34b9f1000000000816135da576135da6157f7565b60006806f05b59d3b200000083126149fd57507ffffffffffffffffffffffffffffffffffffffffffffffff90fa4a62c4e00000090910190770195e54c5dd42177f53a27172fa9ec630262827000000000614a49565b6803782dace9d90000008312614a4557507ffffffffffffffffffffffffffffffffffffffffffffffffc87d2531627000000909101906b1425982cf597cd205cef7380614a49565b5060015b6064929092029168056bc75e2d6310000068ad78ebc5ac620000008412614aaf577fffffffffffffffffffffffffffffffffffffffffffffff5287143a539e0000009093019268056bc75e2d631000006e01855144814a7ff805980ff008400082020590505b6856bc75e2d6310000008412614b01577fffffffffffffffffffffffffffffffffffffffffffffffa9438a1d29cf0000009093019268056bc75e2d631000006b02df0ab5a80a22c61ab5a70082020590505b682b5e3af16b188000008412614b51577fffffffffffffffffffffffffffffffffffffffffffffffd4a1c50e94e78000009093019268056bc75e2d63100000693f1fce3da636ea5cf85082020590505b6815af1d78b58c4000008412614ba1577fffffffffffffffffffffffffffffffffffffffffffffffea50e2874a73c000009093019268056bc75e2d63100000690127fa27722cc06cc5e282020590505b680ad78ebc5ac62000008412614bf0577ffffffffffffffffffffffffffffffffffffffffffffffff5287143a539e000009093019268056bc75e2d6310000068280e60114edb805d0382020590505b68056bc75e2d631000008412614c3f577ffffffffffffffffffffffffffffffffffffffffffffffffa9438a1d29cf000009093019268056bc75e2d63100000680ebc5fb4174612111082020590505b6802b5e3af16b18800008412614c8e577ffffffffffffffffffffffffffffffffffffffffffffffffd4a1c50e94e7800009093019268056bc75e2d631000006808f00f760a4b2db55d82020590505b68015af1d78b58c400008412614cdd577ffffffffffffffffffffffffffffffffffffffffffffffffea50e2874a73c00009093019268056bc75e2d631000006806f5f177578893793782020590505b68056bc75e2d631000008481019085906002908280020505918201919050600368056bc75e2d631000008783020505918201919050600468056bc75e2d631000008783020505918201919050600568056bc75e2d631000008783020505918201919050600668056bc75e2d631000008783020505918201919050600768056bc75e2d631000008783020505918201919050600868056bc75e2d631000008783020505918201919050600968056bc75e2d631000008783020505918201919050600a68056bc75e2d631000008783020505918201919050600b68056bc75e2d631000008783020505918201919050600c68056bc75e2d631000008783020505918201919050606468056bc75e2d63100000848402058502059695505050505050565b600082613460670de0b6b3a76400008461585b565b600082600181614e2b670de0b6b3a76400008661585b565b614e3591906156b6565b6134609190615474565b6040517fef5cfb8c0000000000000000000000000000000000000000000000000000000081523060048201527f00000000000000000000000000000000000000000000000000000000000000006001600160a01b03169063ef5cfb8c906024016000604051808303816000875af1158015614ebe573d6000803e3d6000fd5b505050506040513d6000823e601f3d908101601f19168201604052612eca9190810190615966565b60006001600160a01b03821615614f78576040517f70a082310000000000000000000000000000000000000000000000000000000081523060048201526001600160a01b038316906370a0823190602401602060405180830381865afa158015614f54573d6000803e3d6000fd5b505050506040513d601f19601f820116820180604052508101906134469190615676565b4792915050565b600080614f94670de0b6b3a76400008561585b565b9050828181614fa557614fa56157f7565b04949350505050565b600080614fbb838561585b565b9050670de0b6b3a764000081614fa5565b6001600160a01b038116600090815260208190526040812054610866565b815115614ffa5781518083602001fd5b8060405162461bcd60e51b81526004016108cd9190615038565b60005b8381101561502f578181015183820152602001615017565b50506000910152565b6020815260008251806020840152615057816040850160208701615014565b601f01601f19169190910160400192915050565b6001600160a01b0381168114612eca57600080fd5b60006020828403121561509257600080fd5b813561346a8161506b565b600080604083850312156150b057600080fd5b82356150bb8161506b565b946020939093013593505050565b6000806000606084860312156150de57600080fd5b83356150e98161506b565b95602085013595506040909401359392505050565b60008060006060848603121561511357600080fd5b833561511e8161506b565b9250602084013561512e8161506b565b929592945050506040919091013590565b60006020828403121561515157600080fd5b5035919050565b6000806000806060858703121561516e57600080fd5b84356151798161506b565b935060208501359250604085013567ffffffffffffffff8082111561519d57600080fd5b818701915087601f8301126151b157600080fd5b8135818111156151c057600080fd5b8860208285010111156151d257600080fd5b95989497505060200194505050565b61ffff81168114612eca57600080fd5b60006020828403121561520357600080fd5b813561346a816151e1565b6000806040838503121561522157600080fd5b823561522c8161506b565b9150602083013561523c8161506b565b809150509250929050565b634e487b7160e01b600052604160045260246000fd5b604051601f8201601f1916810167ffffffffffffffff8111828210171561528657615286615247565b604052919050565b600067ffffffffffffffff8211156152a8576152a8615247565b5060051b60200190565b600060208083850312156152c557600080fd5b823567ffffffffffffffff8111156152dc57600080fd5b8301601f810185136152ed57600080fd5b80356153006152fb8261528e565b61525d565b81815260059190911b8201830190838101908783111561531f57600080fd5b928401925b828410156141ad57833563ffffffff811681146153415760008081fd5b82529284019290840190615324565b6020808252825182820181905260009190848201906040850190845b818110156153a55783517affffffffffffffffffffffffffffffffffffffffffffffffffffff168352928401929184019160010161536c565b50909695505050505050565b6020808252825182820181905260009190848201906040850190845b818110156153a5578351835292840192918401916001016153cd565b6020808252825182820181905260009190848201906040850190845b818110156153a55783516001600160a01b031683529284019291840191600101615405565b600181811c9082168061543e57607f821691505b60208210810361341f57634e487b7160e01b600052602260045260246000fd5b634e487b7160e01b600052601160045260246000fd5b818103818111156108665761086661545e565b84815283602082015260606040820152816060820152818360808301376000818301608090810191909152601f909201601f191601019392505050565b6000602082840312156154d657600080fd5b815161346a816151e1565b6000806000606084860312156154f657600080fd5b83516155018161506b565b602085015190935069ffffffffffffffffffff8116811461552157600080fd5b604085015190925060ff8116811461553857600080fd5b809150509250925092565b600060c08201888352602063ffffffff808a168286015260c0604086015282895180855260e087019150838b01945060005b81811015615593578551841683529484019491840191600101615575565b50506bffffffffffffffffffffffff8916606087015261ffff8881166080880152871660a087015293506141ad92505050565b600060208083850312156155d957600080fd5b825167ffffffffffffffff8111156155f057600080fd5b8301601f8101851361560157600080fd5b805161560f6152fb8261528e565b81815260059190911b8201830190838101908783111561562e57600080fd5b928401925b828410156141ad5783517affffffffffffffffffffffffffffffffffffffffffffffffffffff811681146156675760008081fd5b82529284019290840190615633565b60006020828403121561568857600080fd5b5051919050565b6001600160f81b038181168382160190808211156156af576156af61545e565b5092915050565b808201808211156108665761086661545e565b600080604083850312156156dc57600080fd5b82516156e7816151e1565b602084015190925061523c816151e1565b80820260008212600160ff1b841416156157145761571461545e565b81810583148215176108665761086661545e565b6000602080838503121561573b57600080fd5b825167ffffffffffffffff81111561575257600080fd5b8301601f8101851361576357600080fd5b80516157716152fb8261528e565b81815260059190911b8201830190838101908783111561579057600080fd5b928401925b828410156141ad5783516157a88161506b565b82529284019290840190615795565b6001600160f81b038281168282160390808211156156af576156af61545e565b81810360008312801583831316838312821617156156af576156af61545e565b634e487b7160e01b600052601260045260246000fd5b60008261581c5761581c6157f7565b6000198314600160ff1b831416156158365761583661545e565b500590565b80820182811260008312801582168215821617156131795761317961545e565b80820281158282048414176108665761086661545e565b600082615881576158816157f7565b500490565b60006020828403121561589857600080fd5b8151801515811461346a57600080fd5b634e487b7160e01b600052603260045260246000fd5b6001600160801b038281168282160390808211156156af576156af61545e565b600060001982036158f1576158f161545e565b5060010190565b6000600160ff1b820361590d5761590d61545e565b5060000390565b60008251615926818460208701615014565b9190910192915050565b6001600160801b038181168382160190808211156156af576156af61545e565b634e487b7160e01b600052600160045260246000fd5b6000602080838503121561597957600080fd5b825167ffffffffffffffff81111561599057600080fd5b8301601f810185136159a157600080fd5b80516159af6152fb8261528e565b81815260059190911b820183019083810190878311156159ce57600080fd5b928401925b828410156141ad578351825292840192908401906159d356fea2646970667358221220cc5c6e6f4b6965520d4d2d6c174a12a645f5af11f576f4af8df0bbfeebbbe3fb64736f6c63430008110033",
  "linkReferences": {
    "contracts/core/Market/OracleLib.sol": {
      "OracleLib": [
        {
          "length": 20,
          "start": 607
        },
        {
          "length": 20,
          "start": 6561
        },
        {
          "length": 20,
          "start": 8016
        },
        {
          "length": 20,
          "start": 10146
        }
      ]
    }
  },
  "deployedLinkReferences": {
    "contracts/core/Market/OracleLib.sol": {
      "OracleLib": [
        {
          "length": 20,
          "start": 4622
        },
        {
          "length": 20,
          "start": 6077
        },
        {
          "length": 20,
          "start": 8207
        }
      ]
    }
  }
}